{
  "contractName": "AccessStorageModel",
  "abi": [
    {
      "constant": true,
      "inputs": [
        {
          "name": "",
          "type": "address"
        }
      ],
      "name": "permissions",
      "outputs": [
        {
          "name": "",
          "type": "uint256"
        }
      ],
      "payable": false,
      "stateMutability": "view",
      "type": "function"
    },
    {
      "constant": true,
      "inputs": [
        {
          "name": "",
          "type": "uint256"
        }
      ],
      "name": "rolesKeys",
      "outputs": [
        {
          "name": "",
          "type": "bytes32"
        }
      ],
      "payable": false,
      "stateMutability": "view",
      "type": "function"
    },
    {
      "constant": true,
      "inputs": [
        {
          "name": "",
          "type": "bytes32"
        }
      ],
      "name": "roles",
      "outputs": [
        {
          "name": "",
          "type": "uint256"
        }
      ],
      "payable": false,
      "stateMutability": "view",
      "type": "function"
    }
  ],
  "bytecode": "0x608060405234801561001057600080fd5b506101be806100206000396000f3fe608060405234801561001057600080fd5b506004361061005e576000357c01000000000000000000000000000000000000000000000000000000009004806301e88208146100635780632cf88d9e146100bb57806395356651146100fd575b600080fd5b6100a56004803603602081101561007957600080fd5b81019080803573ffffffffffffffffffffffffffffffffffffffff16906020019092919050505061013f565b6040518082815260200191505060405180910390f35b6100e7600480360360208110156100d157600080fd5b8101908080359060200190929190505050610157565b6040518082815260200191505060405180910390f35b6101296004803603602081101561011357600080fd5b810190808035906020019092919050505061017a565b6040518082815260200191505060405180910390f35b60026020528060005260406000206000915090505481565b60018181548110151561016657fe5b906000526020600020016000915090505481565b6000602052806000526040600020600091509050548156fea165627a7a72305820e54498ba58ce92614253ed4667de8a85d453b49135cab9441b551e127e379e620029",
  "source": "pragma solidity 0.5.2;\n\nimport \"./IAccess.sol\";\n\ncontract AccessStorageModel is IAccess {\n    mapping(bytes32 => uint256) public roles;\n    bytes32[] public rolesKeys;\n\n    mapping(address => uint256) public permissions;\n}\n",
  "sourcePath": "/Users/ka/Projects/Altoros/Etherisc/dip-platform/core/gif-contracts/contracts/modules/access/AccessStorageModel.sol",
  "compiler": {
    "name": "solc",
    "version": "0.5.2+commit.1df8f40c.Emscripten.clang"
  },
  "schemaVersion": "3.0.1",
  "updatedAt": "2019-02-08T13:16:56.029Z",
  "devdoc": {
    "methods": {}
  },
  "userdoc": {
    "methods": {}
  }
}