{
  "contractName": "AccessController",
  "abi": [
    {
      "constant": true,
      "inputs": [
        {
          "name": "",
          "type": "address"
        }
      ],
      "name": "permissions",
      "outputs": [
        {
          "name": "",
          "type": "uint256"
        }
      ],
      "payable": false,
      "stateMutability": "view",
      "type": "function"
    },
    {
      "constant": true,
      "inputs": [
        {
          "name": "",
          "type": "uint256"
        }
      ],
      "name": "rolesKeys",
      "outputs": [
        {
          "name": "",
          "type": "bytes32"
        }
      ],
      "payable": false,
      "stateMutability": "view",
      "type": "function"
    },
    {
      "constant": false,
      "inputs": [
        {
          "name": "_registry",
          "type": "address"
        }
      ],
      "name": "assignRegistry",
      "outputs": [],
      "payable": false,
      "stateMutability": "nonpayable",
      "type": "function"
    },
    {
      "constant": true,
      "inputs": [],
      "name": "registry",
      "outputs": [
        {
          "name": "",
          "type": "address"
        }
      ],
      "payable": false,
      "stateMutability": "view",
      "type": "function"
    },
    {
      "constant": true,
      "inputs": [
        {
          "name": "",
          "type": "bytes32"
        }
      ],
      "name": "roles",
      "outputs": [
        {
          "name": "",
          "type": "uint256"
        }
      ],
      "payable": false,
      "stateMutability": "view",
      "type": "function"
    },
    {
      "constant": true,
      "inputs": [],
      "name": "delegator",
      "outputs": [
        {
          "name": "",
          "type": "address"
        }
      ],
      "payable": false,
      "stateMutability": "view",
      "type": "function"
    },
    {
      "constant": true,
      "inputs": [
        {
          "name": "_contractName",
          "type": "bytes32"
        }
      ],
      "name": "getService",
      "outputs": [
        {
          "name": "_addr",
          "type": "address"
        }
      ],
      "payable": false,
      "stateMutability": "view",
      "type": "function"
    },
    {
      "constant": true,
      "inputs": [
        {
          "name": "_contractName",
          "type": "bytes32"
        }
      ],
      "name": "getContract",
      "outputs": [
        {
          "name": "_addr",
          "type": "address"
        }
      ],
      "payable": false,
      "stateMutability": "view",
      "type": "function"
    },
    {
      "constant": false,
      "inputs": [
        {
          "name": "_storage",
          "type": "address"
        }
      ],
      "name": "assignStorage",
      "outputs": [],
      "payable": false,
      "stateMutability": "nonpayable",
      "type": "function"
    },
    {
      "inputs": [
        {
          "name": "_registry",
          "type": "address"
        }
      ],
      "payable": false,
      "stateMutability": "nonpayable",
      "type": "constructor"
    },
    {
      "payable": false,
      "stateMutability": "nonpayable",
      "type": "fallback"
    },
    {
      "constant": false,
      "inputs": [
        {
          "name": "_role",
          "type": "bytes32"
        }
      ],
      "name": "createRole",
      "outputs": [],
      "payable": false,
      "stateMutability": "nonpayable",
      "type": "function"
    },
    {
      "constant": false,
      "inputs": [
        {
          "name": "_address",
          "type": "address"
        },
        {
          "name": "_role",
          "type": "bytes32"
        }
      ],
      "name": "addRoleToAccount",
      "outputs": [],
      "payable": false,
      "stateMutability": "nonpayable",
      "type": "function"
    },
    {
      "constant": false,
      "inputs": [
        {
          "name": "_address",
          "type": "address"
        }
      ],
      "name": "cleanRolesForAccount",
      "outputs": [],
      "payable": false,
      "stateMutability": "nonpayable",
      "type": "function"
    },
    {
      "constant": true,
      "inputs": [
        {
          "name": "_address",
          "type": "address"
        },
        {
          "name": "_role",
          "type": "bytes32"
        }
      ],
      "name": "hasRole",
      "outputs": [
        {
          "name": "_hasRole",
          "type": "bool"
        }
      ],
      "payable": false,
      "stateMutability": "view",
      "type": "function"
    }
  ],
  "bytecode": "0x608060405234801561001057600080fd5b5060405160208061085d8339810180604052602081101561003057600080fd5b505160038054600160a060020a031916600160a060020a039092169190911790556107fd806100606000396000f3fe608060405234801561001057600080fd5b50600436106100ec576000357c010000000000000000000000000000000000000000000000000000000090048063c2e86735116100a9578063da47d85611610083578063da47d85614610275578063e16c7d9814610292578063e71359bf146102af578063f566e10e146102d5576100ec565b8063c2e8673514610224578063c42994a214610250578063ce9b79301461026d576100ec565b806301e88208146101265780632cf88d9e1461015e57806351b68ee41461017b5780637b103999146101a357806395356651146101c7578063ac4ab3fb146101e4575b60405160e560020a62461bcd02815260040180806020018281038252602481526020018061078e6024913960400191505060405180910390fd5b61014c6004803603602081101561013c57600080fd5b5035600160a060020a03166102fb565b60408051918252519081900360200190f35b61014c6004803603602081101561017457600080fd5b503561030d565b6101a16004803603602081101561019157600080fd5b5035600160a060020a031661032c565b005b6101ab6103ba565b60408051600160a060020a039092168252519081900360200190f35b61014c600480360360208110156101dd57600080fd5b50356103c9565b610210600480360360408110156101fa57600080fd5b50600160a060020a0381351690602001356103db565b604080519115158252519081900360200190f35b6101a16004803603604081101561023a57600080fd5b50600160a060020a038135169060200135610407565b6101a16004803603602081101561026657600080fd5b50356104ad565b6101ab61056f565b6101ab6004803603602081101561028b57600080fd5b503561057e565b6101ab600480360360208110156102a857600080fd5b5035610615565b6101a1600480360360208110156102c557600080fd5b5035600160a060020a031661067a565b6101a1600480360360208110156102eb57600080fd5b5035600160a060020a03166106e5565b60026020526000908152604090205481565b600180548290811061031b57fe5b600091825260209091200154905081565b61033e60e860020a6244414f0261057e565b600160a060020a0316331461038b576040805160e560020a62461bcd02815260206004820152601660248201526000805160206107b2833981519152604482015290519081900360640190fd5b6003805473ffffffffffffffffffffffffffffffffffffffff1916600160a060020a0392909216919091179055565b600354600160a060020a031681565b60006020819052908152604090205481565b60009081526020818152604080832054600160a060020a03909416835260029091528120549091161190565b61041960e860020a6244414f0261057e565b600160a060020a03163314610466576040805160e560020a62461bcd02815260206004820152601660248201526000805160206107b2833981519152604482015290519081900360640190fd5b600081815260208190526040902054151561048057600080fd5b60009081526020818152604080832054600160a060020a0390941683526002909152902080549091179055565b6104bf60e860020a6244414f0261057e565b600160a060020a0316331461050c576040805160e560020a62461bcd02815260206004820152601660248201526000805160206107b2833981519152604482015290519081900360640190fd5b6000818152602081905260409020541561052557600080fd5b60018054600083815260208190526040812060029290920a909155815480830183559190527fb10e2d527612073b26eecdfd717e6a320cf44b4afac2b0732d9fcbe2b7fa0cf60155565b600454600160a060020a031681565b600354604080517fda47d856000000000000000000000000000000000000000000000000000000008152600481018490529051600092600160a060020a03169163da47d856916024808301926020929190829003018186803b1580156105e357600080fd5b505afa1580156105f7573d6000803e3d6000fd5b505050506040513d602081101561060d57600080fd5b505192915050565b600354604080517fe16c7d98000000000000000000000000000000000000000000000000000000008152600481018490529051600092600160a060020a03169163e16c7d98916024808301926020929190829003018186803b1580156105e357600080fd5b61068c60e860020a6244414f0261057e565b600160a060020a031633146106d9576040805160e560020a62461bcd02815260206004820152601660248201526000805160206107b2833981519152604482015290519081900360640190fd5b6106e28161075e565b50565b6106f760e860020a6244414f0261057e565b600160a060020a03163314610744576040805160e560020a62461bcd02815260206004820152601660248201526000805160206107b2833981519152604482015290519081900360640190fd5b600160a060020a0316600090815260026020526040812055565b6004805473ffffffffffffffffffffffffffffffffffffffff1916600160a060020a039290921691909117905556fe4552524f523a3a46414c4c4241434b5f46554e4354494f4e5f4e4f575f414c4c4f5745444552524f523a3a4e4f545f44414f5f5345525649434500000000000000000000a165627a7a72305820b2168d621da305a4a6181f34c433f658d459c787e4c5ca295ba17c4e58b4427a0029",
  "source": "pragma solidity 0.5.2;\n\nimport \"./AccessStorageModel.sol\";\nimport \"../../shared/ModuleController.sol\";\n\ncontract AccessController is AccessStorageModel, ModuleController {\n    constructor(address _registry) public WithRegistry(_registry) {}\n\n    function createRole(bytes32 _role) external onlyDAO {\n        require(roles[_role] == 0);\n\n        roles[_role] = 1 << rolesKeys.length;\n        rolesKeys.push(_role);\n    }\n\n    function addRoleToAccount(address _address, bytes32 _role)\n        external\n        onlyDAO\n    {\n        require(roles[_role] != 0);\n\n        permissions[_address] = permissions[_address] | roles[_role];\n    }\n\n    function cleanRolesForAccount(address _address) external onlyDAO {\n        delete permissions[_address];\n    }\n\n    function hasRole(address _address, bytes32 _role)\n        external\n        view\n        returns (bool _hasRole)\n    {\n        _hasRole = (permissions[_address] & roles[_role]) > 0;\n    }\n}\n",
  "sourcePath": "/Users/ka/Projects/Altoros/Etherisc/dip-platform/core/gif-contracts/contracts/modules/access/AccessController.sol",
  "compiler": {
    "name": "solc",
    "version": "0.5.2+commit.1df8f40c.Emscripten.clang"
  },
  "schemaVersion": "3.0.2",
  "updatedAt": "2019-02-15T09:40:03.273Z",
  "devdoc": {
    "methods": {}
  },
  "userdoc": {
    "methods": {}
  }
}