{
  "contractName": "BaseModuleStorage",
  "abi": [
    {
      "constant": true,
      "inputs": [],
      "name": "controller",
      "outputs": [
        {
          "name": "",
          "type": "address"
        }
      ],
      "payable": false,
      "stateMutability": "view",
      "type": "function"
    },
    {
      "payable": false,
      "stateMutability": "nonpayable",
      "type": "fallback"
    }
  ],
  "bytecode": "0x608060405234801561001057600080fd5b506101c8806100206000396000f3fe608060405234801561001057600080fd5b5060043610610047577c01000000000000000000000000000000000000000000000000000000006000350463f77c4791811461006b575b6000546100699073ffffffffffffffffffffffffffffffffffffffff1661009c565b005b610073610180565b6040805173ffffffffffffffffffffffffffffffffffffffff9092168252519081900360200190f35b73ffffffffffffffffffffffffffffffffffffffff8116151561012057604080517f08c379a000000000000000000000000000000000000000000000000000000000815260206004820152601d60248201527f4552524f523a3a554e4b4e4f574e5f494d504c454d454e544154494f4e000000604482015290519081900360640190fd5b60606000368080601f016020809104026020016040519081016040528093929190818152602001838380828437600092018290525084519495509384935091505060208401855af43d604051816000823e82801561017c578282f35b8282fd5b60005473ffffffffffffffffffffffffffffffffffffffff168156fea165627a7a723058206e32a900be0ed3a70ad90d9dd6f54bd8eb3220c76cdd967aa858fe5b45f396a80029",
  "source": "pragma solidity 0.5.2;\n\nimport \"./Delegator.sol\";\n\ncontract BaseModuleStorage is Delegator {\n    address public controller;\n\n    /* solhint-disable payable-fallback */\n    function() external {\n        _delegate(controller);\n    }\n    /* solhint-enable payable-fallback */\n\n    function _assignController(address _controller) internal {\n        controller = _controller;\n    }\n}\n",
  "sourcePath": "/Users/ka/Projects/Altoros/Etherisc/dip-platform/core/gif-contracts/contracts/shared/BaseModuleStorage.sol",
  "compiler": {
    "name": "solc",
    "version": "0.5.2+commit.1df8f40c.Emscripten.clang"
  },
  "schemaVersion": "3.0.2",
  "updatedAt": "2019-02-18T10:13:22.907Z",
  "devdoc": {
    "methods": {}
  },
  "userdoc": {
    "methods": {}
  }
}