{
  "contractName": "BaseModuleStorage",
  "abi": [
    {
      "constant": true,
      "inputs": [],
      "name": "controller",
      "outputs": [
        {
          "name": "",
          "type": "address"
        }
      ],
      "payable": false,
      "stateMutability": "view",
      "type": "function"
    },
    {
      "payable": false,
      "stateMutability": "nonpayable",
      "type": "fallback"
    }
  ],
  "bytecode": "0x608060405234801561001057600080fd5b50610224806100206000396000f3fe608060405234801561001057600080fd5b5060043610610048576000357c010000000000000000000000000000000000000000000000000000000090048063f77c479114610074575b6100726000809054906101000a900473ffffffffffffffffffffffffffffffffffffffff166100be565b005b61007c6101d3565b604051808273ffffffffffffffffffffffffffffffffffffffff1673ffffffffffffffffffffffffffffffffffffffff16815260200191505060405180910390f35b600073ffffffffffffffffffffffffffffffffffffffff168173ffffffffffffffffffffffffffffffffffffffff1614151515610163576040517f08c379a000000000000000000000000000000000000000000000000000000000815260040180806020018281038252601d8152602001807f4552524f523a3a554e4b4e4f574e5f494d504c454d454e544154494f4e00000081525060200191505060405180910390fd5b60606000368080601f016020809104026020016040519081016040528093929190818152602001838380828437600081840152601f19601f820116905080830192505050505050509050600080825160208401855af43d604051816000823e82600081146101cf578282f35b8282fd5b6000809054906101000a900473ffffffffffffffffffffffffffffffffffffffff168156fea165627a7a7230582049f43cfebfa29dfe0eb11285685282225618b9a4c8ef26c667882b9af38c0b9b0029",
  "source": "pragma solidity 0.5.2;\n\nimport \"./Delegator.sol\";\n\ncontract BaseModuleStorage is Delegator {\n    address public controller;\n\n    /* solhint-disable payable-fallback */\n    function() external {\n        _delegate(controller);\n    }\n    /* solhint-enable payable-fallback */\n\n    function _assignController(address _controller) internal {\n        controller = _controller;\n    }\n}\n",
  "sourcePath": "/Users/ka/Projects/Altoros/Etherisc/dip-platform/core/gif-contracts/contracts/shared/BaseModuleStorage.sol",
  "compiler": {
    "name": "solc",
    "version": "0.5.2+commit.1df8f40c.Emscripten.clang"
  },
  "schemaVersion": "3.0.1",
  "updatedAt": "2019-02-08T13:16:56.064Z",
  "devdoc": {
    "methods": {}
  },
  "userdoc": {
    "methods": {}
  }
}