{
  "contractName": "BaseModuleController",
  "abi": [
    {
      "constant": true,
      "inputs": [],
      "name": "delegator",
      "outputs": [
        {
          "name": "",
          "type": "address"
        }
      ],
      "payable": false,
      "stateMutability": "view",
      "type": "function"
    }
  ],
  "bytecode": "0x608060405234801561001057600080fd5b5060e38061001f6000396000f3fe6080604052348015600f57600080fd5b50600436106045576000357c010000000000000000000000000000000000000000000000000000000090048063ce9b793014604a575b600080fd5b60506092565b604051808273ffffffffffffffffffffffffffffffffffffffff1673ffffffffffffffffffffffffffffffffffffffff16815260200191505060405180910390f35b6000809054906101000a900473ffffffffffffffffffffffffffffffffffffffff168156fea165627a7a72305820e24744b33a086da37e9540dbb292c155724c3288bfe95493b339809c69d6e0b10029",
  "source": "pragma solidity 0.5.2;\n\ncontract BaseModuleController {\n    address public delegator;\n\n    function _assignStorage(address _storage) internal {\n        delegator = _storage;\n    }\n}\n",
  "sourcePath": "/Users/ka/Projects/Altoros/Etherisc/dip-platform/core/gif-contracts/contracts/shared/BaseModuleController.sol",
  "compiler": {
    "name": "solc",
    "version": "0.5.2+commit.1df8f40c.Emscripten.clang"
  },
  "schemaVersion": "3.0.1",
  "updatedAt": "2019-02-08T13:16:56.064Z",
  "devdoc": {
    "methods": {}
  },
  "userdoc": {
    "methods": {}
  }
}