{
  "contractName": "DAOService",
  "abi": [
    {
      "constant": false,
      "inputs": [
        {
          "name": "_registry",
          "type": "address"
        }
      ],
      "name": "assignRegistry",
      "outputs": [],
      "payable": false,
      "stateMutability": "nonpayable",
      "type": "function",
      "signature": "0x51b68ee4"
    },
    {
      "constant": true,
      "inputs": [],
      "name": "registry",
      "outputs": [
        {
          "name": "",
          "type": "address"
        }
      ],
      "payable": false,
      "stateMutability": "view",
      "type": "function",
      "signature": "0x7b103999"
    },
    {
      "constant": true,
      "inputs": [],
      "name": "NAME",
      "outputs": [
        {
          "name": "",
          "type": "bytes32"
        }
      ],
      "payable": false,
      "stateMutability": "view",
      "type": "function",
      "signature": "0xa3f4df7e"
    },
    {
      "constant": true,
      "inputs": [
        {
          "name": "_contractName",
          "type": "bytes32"
        }
      ],
      "name": "getService",
      "outputs": [
        {
          "name": "_addr",
          "type": "address"
        }
      ],
      "payable": false,
      "stateMutability": "view",
      "type": "function",
      "signature": "0xda47d856"
    },
    {
      "constant": true,
      "inputs": [
        {
          "name": "_contractName",
          "type": "bytes32"
        }
      ],
      "name": "getContract",
      "outputs": [
        {
          "name": "_addr",
          "type": "address"
        }
      ],
      "payable": false,
      "stateMutability": "view",
      "type": "function",
      "signature": "0xe16c7d98"
    },
    {
      "inputs": [
        {
          "name": "_registry",
          "type": "address"
        }
      ],
      "payable": false,
      "stateMutability": "nonpayable",
      "type": "constructor",
      "signature": "constructor"
    },
    {
      "constant": false,
      "inputs": [
        {
          "name": "_registrationId",
          "type": "uint256"
        }
      ],
      "name": "approveRegistration",
      "outputs": [
        {
          "name": "_productId",
          "type": "uint256"
        }
      ],
      "payable": false,
      "stateMutability": "nonpayable",
      "type": "function",
      "signature": "0x23fafbe8"
    },
    {
      "constant": false,
      "inputs": [
        {
          "name": "_registrationId",
          "type": "uint256"
        }
      ],
      "name": "declineRegistration",
      "outputs": [],
      "payable": false,
      "stateMutability": "nonpayable",
      "type": "function",
      "signature": "0x18b3df9d"
    },
    {
      "constant": false,
      "inputs": [
        {
          "name": "_productId",
          "type": "uint256"
        }
      ],
      "name": "disapproveProduct",
      "outputs": [],
      "payable": false,
      "stateMutability": "nonpayable",
      "type": "function",
      "signature": "0xb4ec459d"
    },
    {
      "constant": false,
      "inputs": [
        {
          "name": "_productId",
          "type": "uint256"
        }
      ],
      "name": "reapproveProduct",
      "outputs": [],
      "payable": false,
      "stateMutability": "nonpayable",
      "type": "function",
      "signature": "0xa8798cc4"
    },
    {
      "constant": false,
      "inputs": [
        {
          "name": "_productId",
          "type": "uint256"
        }
      ],
      "name": "pauseProduct",
      "outputs": [],
      "payable": false,
      "stateMutability": "nonpayable",
      "type": "function",
      "signature": "0xf2272a79"
    },
    {
      "constant": false,
      "inputs": [
        {
          "name": "_productId",
          "type": "uint256"
        }
      ],
      "name": "unpauseProduct",
      "outputs": [],
      "payable": false,
      "stateMutability": "nonpayable",
      "type": "function",
      "signature": "0x1b164987"
    },
    {
      "constant": false,
      "inputs": [
        {
          "name": "_role",
          "type": "bytes32"
        }
      ],
      "name": "createRole",
      "outputs": [],
      "payable": false,
      "stateMutability": "nonpayable",
      "type": "function",
      "signature": "0xc42994a2"
    },
    {
      "constant": false,
      "inputs": [
        {
          "name": "_address",
          "type": "address"
        },
        {
          "name": "_role",
          "type": "bytes32"
        }
      ],
      "name": "addRoleToAccount",
      "outputs": [],
      "payable": false,
      "stateMutability": "nonpayable",
      "type": "function",
      "signature": "0xc2e86735"
    },
    {
      "constant": false,
      "inputs": [
        {
          "name": "_address",
          "type": "address"
        }
      ],
      "name": "cleanRolesForAccount",
      "outputs": [],
      "payable": false,
      "stateMutability": "nonpayable",
      "type": "function",
      "signature": "0xf566e10e"
    },
    {
      "constant": false,
      "inputs": [
        {
          "name": "_release",
          "type": "uint256"
        },
        {
          "name": "_contractName",
          "type": "bytes32"
        },
        {
          "name": "_contractAddress",
          "type": "address"
        }
      ],
      "name": "registerInRelease",
      "outputs": [],
      "payable": false,
      "stateMutability": "nonpayable",
      "type": "function",
      "signature": "0xf253f403"
    },
    {
      "constant": false,
      "inputs": [
        {
          "name": "_contractName",
          "type": "bytes32"
        },
        {
          "name": "_contractAddress",
          "type": "address"
        }
      ],
      "name": "register",
      "outputs": [],
      "payable": false,
      "stateMutability": "nonpayable",
      "type": "function",
      "signature": "0xd22057a9"
    },
    {
      "constant": false,
      "inputs": [
        {
          "name": "_release",
          "type": "uint256"
        },
        {
          "name": "_contractName",
          "type": "bytes32"
        }
      ],
      "name": "deregisterInRelease",
      "outputs": [],
      "payable": false,
      "stateMutability": "nonpayable",
      "type": "function",
      "signature": "0xdee86bc2"
    },
    {
      "constant": false,
      "inputs": [
        {
          "name": "_contractName",
          "type": "bytes32"
        }
      ],
      "name": "deregister",
      "outputs": [],
      "payable": false,
      "stateMutability": "nonpayable",
      "type": "function",
      "signature": "0x20813154"
    },
    {
      "constant": false,
      "inputs": [],
      "name": "prepareRelease",
      "outputs": [
        {
          "name": "_release",
          "type": "uint256"
        }
      ],
      "payable": false,
      "stateMutability": "nonpayable",
      "type": "function",
      "signature": "0xdfba2a6c"
    },
    {
      "constant": false,
      "inputs": [
        {
          "name": "_oracleTypeName",
          "type": "bytes32"
        }
      ],
      "name": "activateOracleType",
      "outputs": [],
      "payable": false,
      "stateMutability": "nonpayable",
      "type": "function",
      "signature": "0x4df83672"
    },
    {
      "constant": false,
      "inputs": [
        {
          "name": "_oracleId",
          "type": "uint256"
        }
      ],
      "name": "activateOracle",
      "outputs": [],
      "payable": false,
      "stateMutability": "nonpayable",
      "type": "function",
      "signature": "0xd114d8a1"
    },
    {
      "constant": false,
      "inputs": [
        {
          "name": "_oracleTypeName",
          "type": "bytes32"
        },
        {
          "name": "_oracleId",
          "type": "uint256"
        }
      ],
      "name": "assignOracleToOracleType",
      "outputs": [],
      "payable": false,
      "stateMutability": "nonpayable",
      "type": "function",
      "signature": "0xcd748de8"
    }
  ],
  "bytecode": "0x608060405234801561001057600080fd5b50604051602080610eac8339810180604052602081101561003057600080fd5b505160008054600160a060020a03909216600160a060020a0319909216919091179055610e4a806100626000396000f3fe608060405234801561001057600080fd5b50600436106101465760003560e060020a90048063c42994a2116100bc578063dee86bc211610080578063dee86bc21461034e578063dfba2a6c14610371578063e16c7d9814610379578063f2272a7914610396578063f253f403146103b3578063f566e10e146103e557610146565b8063c42994a2146102a8578063cd748de8146102c5578063d114d8a1146102e8578063d22057a914610305578063da47d8561461033157610146565b806351b68ee41161010e57806351b68ee4146101f05780637b10399914610216578063a3f4df7e1461023a578063a8798cc414610242578063b4ec459d1461025f578063c2e867351461027c57610146565b806318b3df9d1461014b5780631b1649871461016a578063208131541461018757806323fafbe8146101a45780634df83672146101d3575b600080fd5b6101686004803603602081101561016157600080fd5b503561040b565b005b6101686004803603602081101561018057600080fd5b5035610476565b6101686004803603602081101561019d57600080fd5b50356104c6565b6101c1600480360360208110156101ba57600080fd5b5035610516565b60408051918252519081900360200190f35b610168600480360360208110156101e957600080fd5b503561059a565b6101686004803603602081101561020657600080fd5b5035600160a060020a03166105ea565b61021e6106b8565b60408051600160a060020a039092168252519081900360200190f35b6101c16106c7565b6101686004803603602081101561025857600080fd5b50356106eb565b6101686004803603602081101561027557600080fd5b503561073b565b6101686004803603604081101561029257600080fd5b50600160a060020a03813516906020013561078b565b610168600480360360208110156102be57600080fd5b5035610811565b610168600480360360408110156102db57600080fd5b5080359060200135610861565b610168600480360360208110156102fe57600080fd5b50356108b9565b6101686004803603604081101561031b57600080fd5b5080359060200135600160a060020a0316610909565b61021e6004803603602081101561034757600080fd5b5035610973565b6101686004803603604081101561036457600080fd5b50803590602001356109ed565b6101c1610a45565b61021e6004803603602081101561038f57600080fd5b5035610abd565b610168600480360360208110156103ac57600080fd5b5035610b0d565b610168600480360360608110156103c957600080fd5b5080359060208101359060400135600160a060020a0316610b5d565b610168600480360360208110156103fb57600080fd5b5035600160a060020a0316610bec565b610413610c4e565b600160a060020a03166318b3df9d826040518263ffffffff1660e060020a02815260040180828152602001915050600060405180830381600087803b15801561045b57600080fd5b505af115801561046f573d6000803e3d6000fd5b5050505050565b61047e610c4e565b600160a060020a0316631b164987826040518263ffffffff1660e060020a02815260040180828152602001915050600060405180830381600087803b15801561045b57600080fd5b6104ce610cd1565b600160a060020a03166320813154826040518263ffffffff1660e060020a02815260040180828152602001915050600060405180830381600087803b15801561045b57600080fd5b6000610520610c4e565b600160a060020a03166323fafbe8836040518263ffffffff1660e060020a02815260040180828152602001915050602060405180830381600087803b15801561056857600080fd5b505af115801561057c573d6000803e3d6000fd5b505050506040513d602081101561059257600080fd5b505192915050565b6105a2610d40565b600160a060020a0316634df83672826040518263ffffffff1660e060020a02815260040180828152602001915050600060405180830381600087803b15801561045b57600080fd5b6106137f44414f0000000000000000000000000000000000000000000000000000000000610973565b600160a060020a0316331461068957604080517f08c379a000000000000000000000000000000000000000000000000000000000815260206004820152601660248201527f4552524f523a3a4e4f545f44414f5f5345525649434500000000000000000000604482015290519081900360640190fd5b6000805473ffffffffffffffffffffffffffffffffffffffff1916600160a060020a0392909216919091179055565b600054600160a060020a031681565b7f44414f000000000000000000000000000000000000000000000000000000000081565b6106f3610c4e565b600160a060020a031663a8798cc4826040518263ffffffff1660e060020a02815260040180828152602001915050600060405180830381600087803b15801561045b57600080fd5b610743610c4e565b600160a060020a031663b4ec459d826040518263ffffffff1660e060020a02815260040180828152602001915050600060405180830381600087803b15801561045b57600080fd5b610793610daf565b600160a060020a031663c2e8673583836040518363ffffffff1660e060020a0281526004018083600160a060020a0316600160a060020a0316815260200182815260200192505050600060405180830381600087803b1580156107f557600080fd5b505af1158015610809573d6000803e3d6000fd5b505050505050565b610819610daf565b600160a060020a031663c42994a2826040518263ffffffff1660e060020a02815260040180828152602001915050600060405180830381600087803b15801561045b57600080fd5b610869610d40565b600160a060020a031663cd748de883836040518363ffffffff1660e060020a0281526004018083815260200182815260200192505050600060405180830381600087803b1580156107f557600080fd5b6108c1610d40565b600160a060020a031663d114d8a1826040518263ffffffff1660e060020a02815260040180828152602001915050600060405180830381600087803b15801561045b57600080fd5b610911610cd1565b600160a060020a031663d22057a983836040518363ffffffff1660e060020a0281526004018083815260200182600160a060020a0316600160a060020a0316815260200192505050600060405180830381600087803b1580156107f557600080fd5b60008054604080517fda47d856000000000000000000000000000000000000000000000000000000008152600481018590529051600160a060020a039092169163da47d85691602480820192602092909190829003018186803b1580156109d957600080fd5b505afa15801561057c573d6000803e3d6000fd5b6109f5610cd1565b600160a060020a031663dee86bc283836040518363ffffffff1660e060020a0281526004018083815260200182815260200192505050600060405180830381600087803b1580156107f557600080fd5b6000610a4f610cd1565b600160a060020a031663dfba2a6c6040518163ffffffff1660e060020a028152600401602060405180830381600087803b158015610a8c57600080fd5b505af1158015610aa0573d6000803e3d6000fd5b505050506040513d6020811015610ab657600080fd5b5051919050565b600080546040805160e360020a631c2d8fb3028152600481018590529051600160a060020a039092169163e16c7d9891602480820192602092909190829003018186803b1580156109d957600080fd5b610b15610c4e565b600160a060020a031663f2272a79826040518263ffffffff1660e060020a02815260040180828152602001915050600060405180830381600087803b15801561045b57600080fd5b610b65610cd1565b600160a060020a031663f253f4038484846040518463ffffffff1660e060020a0281526004018084815260200183815260200182600160a060020a0316600160a060020a031681526020019350505050600060405180830381600087803b158015610bcf57600080fd5b505af1158015610be3573d6000803e3d6000fd5b50505050505050565b610bf4610daf565b600160a060020a031663f566e10e826040518263ffffffff1660e060020a0281526004018082600160a060020a0316600160a060020a03168152602001915050600060405180830381600087803b15801561045b57600080fd5b600080546040805160e360020a631c2d8fb30281527f4c6963656e73650000000000000000000000000000000000000000000000000060048201529051600160a060020a039092169163e16c7d9891602480820192602092909190829003018186803b158015610cbd57600080fd5b505afa158015610aa0573d6000803e3d6000fd5b600080546040805160e360020a631c2d8fb30281527f526567697374727900000000000000000000000000000000000000000000000060048201529051600160a060020a039092169163e16c7d9891602480820192602092909190829003018186803b158015610cbd57600080fd5b600080546040805160e360020a631c2d8fb30281527f517565727900000000000000000000000000000000000000000000000000000060048201529051600160a060020a039092169163e16c7d9891602480820192602092909190829003018186803b158015610cbd57600080fd5b600080546040805160e360020a631c2d8fb30281527f416363657373000000000000000000000000000000000000000000000000000060048201529051600160a060020a039092169163e16c7d9891602480820192602092909190829003018186803b158015610cbd57600080fdfea165627a7a72305820392431ba69af464351df57a4780c24d8779a867e74f78e370065a97bfc530aa80029",
  "source": "pragma solidity 0.5.2;\n\nimport \"../modules/license/ILicenseController.sol\";\nimport \"../modules/access/IAccessController.sol\";\nimport \"../modules/registry/IRegistryController.sol\";\nimport \"../modules/query/IQueryController.sol\";\nimport \"../shared/WithRegistry.sol\";\n\ncontract DAOService is WithRegistry {\n    bytes32 public constant NAME = \"DAO\";\n\n    constructor(address _registry) public WithRegistry(_registry) {}\n\n    /* License */\n    function approveRegistration(uint256 _registrationId)\n        external\n        returns (uint256 _productId)\n    {\n        _productId = license().approveRegistration(_registrationId);\n    }\n\n    function declineRegistration(uint256 _registrationId) external {\n        license().declineRegistration(_registrationId);\n    }\n\n    function disapproveProduct(uint256 _productId) external {\n        license().disapproveProduct(_productId);\n    }\n\n    function reapproveProduct(uint256 _productId) external {\n        license().reapproveProduct(_productId);\n    }\n\n    function pauseProduct(uint256 _productId) external {\n        license().pauseProduct(_productId);\n    }\n\n    function unpauseProduct(uint256 _productId) external {\n        license().unpauseProduct(_productId);\n    }\n\n    /* Access */\n    function createRole(bytes32 _role) external {\n        access().createRole(_role);\n    }\n\n    function addRoleToAccount(address _address, bytes32 _role) external {\n        access().addRoleToAccount(_address, _role);\n    }\n\n    function cleanRolesForAccount(address _address) external {\n        access().cleanRolesForAccount(_address);\n    }\n\n    /* Registry */\n    function registerInRelease(\n        uint256 _release,\n        bytes32 _contractName,\n        address _contractAddress\n    ) external {\n        registryStorage().registerInRelease(\n            _release,\n            _contractName,\n            _contractAddress\n        );\n    }\n\n    function register(bytes32 _contractName, address _contractAddress)\n        external\n    {\n        registryStorage().register(_contractName, _contractAddress);\n    }\n\n    function deregisterInRelease(uint256 _release, bytes32 _contractName)\n        external\n    {\n        registryStorage().deregisterInRelease(_release, _contractName);\n    }\n\n    function deregister(bytes32 _contractName) external {\n        registryStorage().deregister(_contractName);\n    }\n\n    function prepareRelease() external returns (uint256 _release) {\n        _release = registryStorage().prepareRelease();\n    }\n\n    /* Query */\n    function activateOracleType(bytes32 _oracleTypeName) external {\n        query().activateOracleType(_oracleTypeName);\n    }\n\n    function activateOracle(uint256 _oracleId) external {\n        query().activateOracle(_oracleId);\n    }\n\n    function assignOracleToOracleType(\n        bytes32 _oracleTypeName,\n        uint256 _oracleId\n    ) external {\n        query().assignOracleToOracleType(_oracleTypeName, _oracleId);\n    }\n\n    /* Lookup */\n    function license() internal view returns (ILicenseController) {\n        return ILicenseController(registry.getContract(\"License\"));\n    }\n\n    function access() internal view returns (IAccessController) {\n        return IAccessController(registry.getContract(\"Access\"));\n    }\n\n    function registryStorage() internal view returns (IRegistryController) {\n        return IRegistryController(registry.getContract(\"Registry\"));\n    }\n\n    function query() internal view returns (IQueryController) {\n        return IQueryController(registry.getContract(\"Query\"));\n    }\n}\n",
  "sourcePath": "/Users/ka/Projects/Altoros/Etherisc/dip-platform/core/gif-contracts/contracts/services/DAOService.sol",
  "compiler": {
    "name": "solc",
    "version": "0.5.2+commit.1df8f40c.Emscripten.clang"
  },
  "schemaVersion": "3.0.1",
  "updatedAt": "2019-02-13T15:27:22.343Z",
  "devdoc": {
    "methods": {}
  },
  "userdoc": {
    "methods": {}
  }
}