{
  "contractName": "DAOService",
  "abi": [
    {
      "constant": false,
      "inputs": [
        {
          "name": "_registry",
          "type": "address"
        }
      ],
      "name": "assignRegistry",
      "outputs": [],
      "payable": false,
      "stateMutability": "nonpayable",
      "type": "function",
      "signature": "0x51b68ee4"
    },
    {
      "constant": true,
      "inputs": [],
      "name": "registry",
      "outputs": [
        {
          "name": "",
          "type": "address"
        }
      ],
      "payable": false,
      "stateMutability": "view",
      "type": "function",
      "signature": "0x7b103999"
    },
    {
      "constant": true,
      "inputs": [],
      "name": "NAME",
      "outputs": [
        {
          "name": "",
          "type": "bytes32"
        }
      ],
      "payable": false,
      "stateMutability": "view",
      "type": "function",
      "signature": "0xa3f4df7e"
    },
    {
      "constant": true,
      "inputs": [
        {
          "name": "_contractName",
          "type": "bytes32"
        }
      ],
      "name": "getService",
      "outputs": [
        {
          "name": "_addr",
          "type": "address"
        }
      ],
      "payable": false,
      "stateMutability": "view",
      "type": "function",
      "signature": "0xda47d856"
    },
    {
      "constant": true,
      "inputs": [
        {
          "name": "_contractName",
          "type": "bytes32"
        }
      ],
      "name": "getContract",
      "outputs": [
        {
          "name": "_addr",
          "type": "address"
        }
      ],
      "payable": false,
      "stateMutability": "view",
      "type": "function",
      "signature": "0xe16c7d98"
    },
    {
      "inputs": [
        {
          "name": "_registry",
          "type": "address"
        }
      ],
      "payable": false,
      "stateMutability": "nonpayable",
      "type": "constructor",
      "signature": "constructor"
    },
    {
      "constant": false,
      "inputs": [
        {
          "name": "_registrationId",
          "type": "uint256"
        }
      ],
      "name": "approveRegistration",
      "outputs": [
        {
          "name": "_productId",
          "type": "uint256"
        }
      ],
      "payable": false,
      "stateMutability": "nonpayable",
      "type": "function",
      "signature": "0x23fafbe8"
    },
    {
      "constant": false,
      "inputs": [
        {
          "name": "_registrationId",
          "type": "uint256"
        }
      ],
      "name": "declineRegistration",
      "outputs": [],
      "payable": false,
      "stateMutability": "nonpayable",
      "type": "function",
      "signature": "0x18b3df9d"
    },
    {
      "constant": false,
      "inputs": [
        {
          "name": "_productId",
          "type": "uint256"
        }
      ],
      "name": "disapproveProduct",
      "outputs": [],
      "payable": false,
      "stateMutability": "nonpayable",
      "type": "function",
      "signature": "0xb4ec459d"
    },
    {
      "constant": false,
      "inputs": [
        {
          "name": "_productId",
          "type": "uint256"
        }
      ],
      "name": "reapproveProduct",
      "outputs": [],
      "payable": false,
      "stateMutability": "nonpayable",
      "type": "function",
      "signature": "0xa8798cc4"
    },
    {
      "constant": false,
      "inputs": [
        {
          "name": "_productId",
          "type": "uint256"
        }
      ],
      "name": "pauseProduct",
      "outputs": [],
      "payable": false,
      "stateMutability": "nonpayable",
      "type": "function",
      "signature": "0xf2272a79"
    },
    {
      "constant": false,
      "inputs": [
        {
          "name": "_productId",
          "type": "uint256"
        }
      ],
      "name": "unpauseProduct",
      "outputs": [],
      "payable": false,
      "stateMutability": "nonpayable",
      "type": "function",
      "signature": "0x1b164987"
    },
    {
      "constant": false,
      "inputs": [
        {
          "name": "_role",
          "type": "bytes32"
        }
      ],
      "name": "createRole",
      "outputs": [],
      "payable": false,
      "stateMutability": "nonpayable",
      "type": "function",
      "signature": "0xc42994a2"
    },
    {
      "constant": false,
      "inputs": [
        {
          "name": "_address",
          "type": "address"
        },
        {
          "name": "_role",
          "type": "bytes32"
        }
      ],
      "name": "addRoleToAccount",
      "outputs": [],
      "payable": false,
      "stateMutability": "nonpayable",
      "type": "function",
      "signature": "0xc2e86735"
    },
    {
      "constant": false,
      "inputs": [
        {
          "name": "_address",
          "type": "address"
        }
      ],
      "name": "cleanRolesForAccount",
      "outputs": [],
      "payable": false,
      "stateMutability": "nonpayable",
      "type": "function",
      "signature": "0xf566e10e"
    },
    {
      "constant": false,
      "inputs": [
        {
          "name": "_release",
          "type": "uint256"
        },
        {
          "name": "_contractName",
          "type": "bytes32"
        },
        {
          "name": "_contractAddress",
          "type": "address"
        }
      ],
      "name": "registerInRelease",
      "outputs": [],
      "payable": false,
      "stateMutability": "nonpayable",
      "type": "function",
      "signature": "0xf253f403"
    },
    {
      "constant": false,
      "inputs": [
        {
          "name": "_contractName",
          "type": "bytes32"
        },
        {
          "name": "_contractAddress",
          "type": "address"
        }
      ],
      "name": "register",
      "outputs": [],
      "payable": false,
      "stateMutability": "nonpayable",
      "type": "function",
      "signature": "0xd22057a9"
    },
    {
      "constant": false,
      "inputs": [
        {
          "name": "_release",
          "type": "uint256"
        },
        {
          "name": "_contractName",
          "type": "bytes32"
        }
      ],
      "name": "deregisterInRelease",
      "outputs": [],
      "payable": false,
      "stateMutability": "nonpayable",
      "type": "function",
      "signature": "0xdee86bc2"
    },
    {
      "constant": false,
      "inputs": [
        {
          "name": "_contractName",
          "type": "bytes32"
        }
      ],
      "name": "deregister",
      "outputs": [],
      "payable": false,
      "stateMutability": "nonpayable",
      "type": "function",
      "signature": "0x20813154"
    },
    {
      "constant": false,
      "inputs": [],
      "name": "prepareRelease",
      "outputs": [
        {
          "name": "_release",
          "type": "uint256"
        }
      ],
      "payable": false,
      "stateMutability": "nonpayable",
      "type": "function",
      "signature": "0xdfba2a6c"
    },
    {
      "constant": false,
      "inputs": [
        {
          "name": "_oracleTypeName",
          "type": "bytes32"
        }
      ],
      "name": "activateOracleType",
      "outputs": [],
      "payable": false,
      "stateMutability": "nonpayable",
      "type": "function",
      "signature": "0x4df83672"
    },
    {
      "constant": false,
      "inputs": [
        {
          "name": "_oracleId",
          "type": "uint256"
        }
      ],
      "name": "activateOracle",
      "outputs": [],
      "payable": false,
      "stateMutability": "nonpayable",
      "type": "function",
      "signature": "0xd114d8a1"
    },
    {
      "constant": false,
      "inputs": [
        {
          "name": "_oracleTypeName",
          "type": "bytes32"
        },
        {
          "name": "_oracleId",
          "type": "uint256"
        }
      ],
      "name": "assignOracleToOracleType",
      "outputs": [],
      "payable": false,
      "stateMutability": "nonpayable",
      "type": "function",
      "signature": "0xcd748de8"
    }
  ],
  "bytecode": "0x608060405234801561001057600080fd5b506040516020806118d88339810180604052602081101561003057600080fd5b810190808051906020019092919050505080806000806101000a81548173ffffffffffffffffffffffffffffffffffffffff021916908373ffffffffffffffffffffffffffffffffffffffff1602179055505050611845806100936000396000f3fe608060405234801561001057600080fd5b506004361061015f576000357c010000000000000000000000000000000000000000000000000000000090048063c42994a2116100d5578063dee86bc211610099578063dee86bc214610504578063dfba2a6c1461053c578063e16c7d981461055a578063f2272a79146105c8578063f253f403146105f6578063f566e10e1461064e5761015f565b8063c42994a2146103b4578063cd748de8146103e2578063d114d8a11461041a578063d22057a914610448578063da47d856146104965761015f565b806351b68ee41161012757806351b68ee41461025e5780637b103999146102a2578063a3f4df7e146102ec578063a8798cc41461030a578063b4ec459d14610338578063c2e86735146103665761015f565b806318b3df9d146101645780631b1649871461019257806320813154146101c057806323fafbe8146101ee5780634df8367214610230575b600080fd5b6101906004803603602081101561017a57600080fd5b8101908080359060200190929190505050610692565b005b6101be600480360360208110156101a857600080fd5b8101908080359060200190929190505050610723565b005b6101ec600480360360208110156101d657600080fd5b81019080803590602001909291905050506107b4565b005b61021a6004803603602081101561020457600080fd5b8101908080359060200190929190505050610845565b6040518082815260200191505060405180910390f35b61025c6004803603602081101561024657600080fd5b81019080803590602001909291905050506108ff565b005b6102a06004803603602081101561027457600080fd5b81019080803573ffffffffffffffffffffffffffffffffffffffff169060200190929190505050610990565b005b6102aa610a9e565b604051808273ffffffffffffffffffffffffffffffffffffffff1673ffffffffffffffffffffffffffffffffffffffff16815260200191505060405180910390f35b6102f4610ac3565b6040518082815260200191505060405180910390f35b6103366004803603602081101561032057600080fd5b8101908080359060200190929190505050610ae7565b005b6103646004803603602081101561034e57600080fd5b8101908080359060200190929190505050610b78565b005b6103b26004803603604081101561037c57600080fd5b81019080803573ffffffffffffffffffffffffffffffffffffffff16906020019092919080359060200190929190505050610c09565b005b6103e0600480360360208110156103ca57600080fd5b8101908080359060200190929190505050610ccf565b005b610418600480360360408110156103f857600080fd5b810190808035906020019092919080359060200190929190505050610d60565b005b6104466004803603602081101561043057600080fd5b8101908080359060200190929190505050610dfa565b005b6104946004803603604081101561045e57600080fd5b8101908080359060200190929190803573ffffffffffffffffffffffffffffffffffffffff169060200190929190505050610e8b565b005b6104c2600480360360208110156104ac57600080fd5b8101908080359060200190929190505050610f51565b604051808273ffffffffffffffffffffffffffffffffffffffff1673ffffffffffffffffffffffffffffffffffffffff16815260200191505060405180910390f35b61053a6004803603604081101561051a57600080fd5b810190808035906020019092919080359060200190929190505050611023565b005b6105446110bd565b6040518082815260200191505060405180910390f35b6105866004803603602081101561057057600080fd5b810190808035906020019092919050505061116a565b604051808273ffffffffffffffffffffffffffffffffffffffff1673ffffffffffffffffffffffffffffffffffffffff16815260200191505060405180910390f35b6105f4600480360360208110156105de57600080fd5b810190808035906020019092919050505061123c565b005b61064c6004803603606081101561060c57600080fd5b810190808035906020019092919080359060200190929190803573ffffffffffffffffffffffffffffffffffffffff1690602001909291905050506112cd565b005b6106906004803603602081101561066457600080fd5b81019080803573ffffffffffffffffffffffffffffffffffffffff16906020019092919050505061139c565b005b61069a611459565b73ffffffffffffffffffffffffffffffffffffffff166318b3df9d826040518263ffffffff167c010000000000000000000000000000000000000000000000000000000002815260040180828152602001915050600060405180830381600087803b15801561070857600080fd5b505af115801561071c573d6000803e3d6000fd5b5050505050565b61072b611459565b73ffffffffffffffffffffffffffffffffffffffff16631b164987826040518263ffffffff167c010000000000000000000000000000000000000000000000000000000002815260040180828152602001915050600060405180830381600087803b15801561079957600080fd5b505af11580156107ad573d6000803e3d6000fd5b5050505050565b6107bc611549565b73ffffffffffffffffffffffffffffffffffffffff166320813154826040518263ffffffff167c010000000000000000000000000000000000000000000000000000000002815260040180828152602001915050600060405180830381600087803b15801561082a57600080fd5b505af115801561083e573d6000803e3d6000fd5b5050505050565b600061084f611459565b73ffffffffffffffffffffffffffffffffffffffff166323fafbe8836040518263ffffffff167c010000000000000000000000000000000000000000000000000000000002815260040180828152602001915050602060405180830381600087803b1580156108bd57600080fd5b505af11580156108d1573d6000803e3d6000fd5b505050506040513d60208110156108e757600080fd5b81019080805190602001909291905050509050919050565b610907611639565b73ffffffffffffffffffffffffffffffffffffffff16634df83672826040518263ffffffff167c010000000000000000000000000000000000000000000000000000000002815260040180828152602001915050600060405180830381600087803b15801561097557600080fd5b505af1158015610989573d6000803e3d6000fd5b5050505050565b6109b97f44414f0000000000000000000000000000000000000000000000000000000000610f51565b73ffffffffffffffffffffffffffffffffffffffff163373ffffffffffffffffffffffffffffffffffffffff16141515610a5b576040517f08c379a00000000000000000000000000000000000000000000000000000000081526004018080602001828103825260168152602001807f4552524f523a3a4e4f545f44414f5f534552564943450000000000000000000081525060200191505060405180910390fd5b806000806101000a81548173ffffffffffffffffffffffffffffffffffffffff021916908373ffffffffffffffffffffffffffffffffffffffff16021790555050565b6000809054906101000a900473ffffffffffffffffffffffffffffffffffffffff1681565b7f44414f000000000000000000000000000000000000000000000000000000000081565b610aef611459565b73ffffffffffffffffffffffffffffffffffffffff1663a8798cc4826040518263ffffffff167c010000000000000000000000000000000000000000000000000000000002815260040180828152602001915050600060405180830381600087803b158015610b5d57600080fd5b505af1158015610b71573d6000803e3d6000fd5b5050505050565b610b80611459565b73ffffffffffffffffffffffffffffffffffffffff1663b4ec459d826040518263ffffffff167c010000000000000000000000000000000000000000000000000000000002815260040180828152602001915050600060405180830381600087803b158015610bee57600080fd5b505af1158015610c02573d6000803e3d6000fd5b5050505050565b610c11611729565b73ffffffffffffffffffffffffffffffffffffffff1663c2e8673583836040518363ffffffff167c0100000000000000000000000000000000000000000000000000000000028152600401808373ffffffffffffffffffffffffffffffffffffffff1673ffffffffffffffffffffffffffffffffffffffff16815260200182815260200192505050600060405180830381600087803b158015610cb357600080fd5b505af1158015610cc7573d6000803e3d6000fd5b505050505050565b610cd7611729565b73ffffffffffffffffffffffffffffffffffffffff1663c42994a2826040518263ffffffff167c010000000000000000000000000000000000000000000000000000000002815260040180828152602001915050600060405180830381600087803b158015610d4557600080fd5b505af1158015610d59573d6000803e3d6000fd5b5050505050565b610d68611639565b73ffffffffffffffffffffffffffffffffffffffff1663cd748de883836040518363ffffffff167c01000000000000000000000000000000000000000000000000000000000281526004018083815260200182815260200192505050600060405180830381600087803b158015610dde57600080fd5b505af1158015610df2573d6000803e3d6000fd5b505050505050565b610e02611639565b73ffffffffffffffffffffffffffffffffffffffff1663d114d8a1826040518263ffffffff167c010000000000000000000000000000000000000000000000000000000002815260040180828152602001915050600060405180830381600087803b158015610e7057600080fd5b505af1158015610e84573d6000803e3d6000fd5b5050505050565b610e93611549565b73ffffffffffffffffffffffffffffffffffffffff1663d22057a983836040518363ffffffff167c0100000000000000000000000000000000000000000000000000000000028152600401808381526020018273ffffffffffffffffffffffffffffffffffffffff1673ffffffffffffffffffffffffffffffffffffffff16815260200192505050600060405180830381600087803b158015610f3557600080fd5b505af1158015610f49573d6000803e3d6000fd5b505050505050565b60008060009054906101000a900473ffffffffffffffffffffffffffffffffffffffff1673ffffffffffffffffffffffffffffffffffffffff1663da47d856836040518263ffffffff167c01000000000000000000000000000000000000000000000000000000000281526004018082815260200191505060206040518083038186803b158015610fe157600080fd5b505afa158015610ff5573d6000803e3d6000fd5b505050506040513d602081101561100b57600080fd5b81019080805190602001909291905050509050919050565b61102b611549565b73ffffffffffffffffffffffffffffffffffffffff1663dee86bc283836040518363ffffffff167c01000000000000000000000000000000000000000000000000000000000281526004018083815260200182815260200192505050600060405180830381600087803b1580156110a157600080fd5b505af11580156110b5573d6000803e3d6000fd5b505050505050565b60006110c7611549565b73ffffffffffffffffffffffffffffffffffffffff1663dfba2a6c6040518163ffffffff167c0100000000000000000000000000000000000000000000000000000000028152600401602060405180830381600087803b15801561112a57600080fd5b505af115801561113e573d6000803e3d6000fd5b505050506040513d602081101561115457600080fd5b8101908080519060200190929190505050905090565b60008060009054906101000a900473ffffffffffffffffffffffffffffffffffffffff1673ffffffffffffffffffffffffffffffffffffffff1663e16c7d98836040518263ffffffff167c01000000000000000000000000000000000000000000000000000000000281526004018082815260200191505060206040518083038186803b1580156111fa57600080fd5b505afa15801561120e573d6000803e3d6000fd5b505050506040513d602081101561122457600080fd5b81019080805190602001909291905050509050919050565b611244611459565b73ffffffffffffffffffffffffffffffffffffffff1663f2272a79826040518263ffffffff167c010000000000000000000000000000000000000000000000000000000002815260040180828152602001915050600060405180830381600087803b1580156112b257600080fd5b505af11580156112c6573d6000803e3d6000fd5b5050505050565b6112d5611549565b73ffffffffffffffffffffffffffffffffffffffff1663f253f4038484846040518463ffffffff167c0100000000000000000000000000000000000000000000000000000000028152600401808481526020018381526020018273ffffffffffffffffffffffffffffffffffffffff1673ffffffffffffffffffffffffffffffffffffffff1681526020019350505050600060405180830381600087803b15801561137f57600080fd5b505af1158015611393573d6000803e3d6000fd5b50505050505050565b6113a4611729565b73ffffffffffffffffffffffffffffffffffffffff1663f566e10e826040518263ffffffff167c0100000000000000000000000000000000000000000000000000000000028152600401808273ffffffffffffffffffffffffffffffffffffffff1673ffffffffffffffffffffffffffffffffffffffff168152602001915050600060405180830381600087803b15801561143e57600080fd5b505af1158015611452573d6000803e3d6000fd5b5050505050565b60008060009054906101000a900473ffffffffffffffffffffffffffffffffffffffff1673ffffffffffffffffffffffffffffffffffffffff1663e16c7d986040518163ffffffff167c010000000000000000000000000000000000000000000000000000000002815260040180807f4c6963656e736500000000000000000000000000000000000000000000000000815250602001905060206040518083038186803b15801561150957600080fd5b505afa15801561151d573d6000803e3d6000fd5b505050506040513d602081101561153357600080fd5b8101908080519060200190929190505050905090565b60008060009054906101000a900473ffffffffffffffffffffffffffffffffffffffff1673ffffffffffffffffffffffffffffffffffffffff1663e16c7d986040518163ffffffff167c010000000000000000000000000000000000000000000000000000000002815260040180807f5265676973747279000000000000000000000000000000000000000000000000815250602001905060206040518083038186803b1580156115f957600080fd5b505afa15801561160d573d6000803e3d6000fd5b505050506040513d602081101561162357600080fd5b8101908080519060200190929190505050905090565b60008060009054906101000a900473ffffffffffffffffffffffffffffffffffffffff1673ffffffffffffffffffffffffffffffffffffffff1663e16c7d986040518163ffffffff167c010000000000000000000000000000000000000000000000000000000002815260040180807f5175657279000000000000000000000000000000000000000000000000000000815250602001905060206040518083038186803b1580156116e957600080fd5b505afa1580156116fd573d6000803e3d6000fd5b505050506040513d602081101561171357600080fd5b8101908080519060200190929190505050905090565b60008060009054906101000a900473ffffffffffffffffffffffffffffffffffffffff1673ffffffffffffffffffffffffffffffffffffffff1663e16c7d986040518163ffffffff167c010000000000000000000000000000000000000000000000000000000002815260040180807f4163636573730000000000000000000000000000000000000000000000000000815250602001905060206040518083038186803b1580156117d957600080fd5b505afa1580156117ed573d6000803e3d6000fd5b505050506040513d602081101561180357600080fd5b810190808051906020019092919050505090509056fea165627a7a723058208c69056f317b7b42625b8a44540c2d594ba4ae314d3a46a59be0b8249097e5520029",
  "source": "pragma solidity 0.5.2;\n\nimport \"../modules/license/ILicenseController.sol\";\nimport \"../modules/access/IAccessController.sol\";\nimport \"../modules/registry/IRegistryController.v1.sol\";\nimport \"../modules/query/IQueryController.sol\";\nimport \"../shared/WithRegistry.sol\";\n\ncontract DAOService is WithRegistry {\n    bytes32 public constant NAME = \"DAO\";\n\n    constructor(address _registry) public WithRegistry(_registry) {}\n\n    /* License */\n    function approveRegistration(uint256 _registrationId)\n        external\n        returns (uint256 _productId)\n    {\n        _productId = license().approveRegistration(_registrationId);\n    }\n\n    function declineRegistration(uint256 _registrationId) external {\n        license().declineRegistration(_registrationId);\n    }\n\n    function disapproveProduct(uint256 _productId) external {\n        license().disapproveProduct(_productId);\n    }\n\n    function reapproveProduct(uint256 _productId) external {\n        license().reapproveProduct(_productId);\n    }\n\n    function pauseProduct(uint256 _productId) external {\n        license().pauseProduct(_productId);\n    }\n\n    function unpauseProduct(uint256 _productId) external {\n        license().unpauseProduct(_productId);\n    }\n\n    /* Access */\n    function createRole(bytes32 _role) external {\n        access().createRole(_role);\n    }\n\n    function addRoleToAccount(address _address, bytes32 _role) external {\n        access().addRoleToAccount(_address, _role);\n    }\n\n    function cleanRolesForAccount(address _address) external {\n        access().cleanRolesForAccount(_address);\n    }\n\n    /* Registry */\n    function registerInRelease(\n        uint256 _release,\n        bytes32 _contractName,\n        address _contractAddress\n    ) external {\n        registryStorage().registerInRelease(\n            _release,\n            _contractName,\n            _contractAddress\n        );\n    }\n\n    function register(bytes32 _contractName, address _contractAddress)\n        external\n    {\n        registryStorage().register(_contractName, _contractAddress);\n    }\n\n    function deregisterInRelease(uint256 _release, bytes32 _contractName)\n        external\n    {\n        registryStorage().deregisterInRelease(_release, _contractName);\n    }\n\n    function deregister(bytes32 _contractName) external {\n        registryStorage().deregister(_contractName);\n    }\n\n    function prepareRelease() external returns (uint256 _release) {\n        _release = registryStorage().prepareRelease();\n    }\n\n    /* Query */\n    function activateOracleType(bytes32 _oracleTypeName) external {\n        query().activateOracleType(_oracleTypeName);\n    }\n\n    function activateOracle(uint256 _oracleId) external {\n        query().activateOracle(_oracleId);\n    }\n\n    function assignOracleToOracleType(\n        bytes32 _oracleTypeName,\n        uint256 _oracleId\n    ) external {\n        query().assignOracleToOracleType(_oracleTypeName, _oracleId);\n    }\n\n    /* Lookup */\n    function license() internal view returns (ILicenseController) {\n        return ILicenseController(registry.getContract(\"License\"));\n    }\n\n    function access() internal view returns (IAccessController) {\n        return IAccessController(registry.getContract(\"Access\"));\n    }\n\n    function registryStorage() internal view returns (IRegistryController) {\n        return IRegistryController(registry.getContract(\"Registry\"));\n    }\n\n    function query() internal view returns (IQueryController) {\n        return IQueryController(registry.getContract(\"Query\"));\n    }\n}\n",
  "sourcePath": "/Users/ka/Projects/Altoros/Etherisc/dip-platform/core/gif-contracts/contracts/services/DAOService.sol",
  "compiler": {
    "name": "solc",
    "version": "0.5.2+commit.1df8f40c.Emscripten.clang"
  },
  "schemaVersion": "3.0.1",
  "updatedAt": "2019-02-07T14:17:15.473Z",
  "devdoc": {
    "methods": {}
  },
  "userdoc": {
    "methods": {}
  }
}