{
  "contractName": "FlightDelayRoleBasedOracle",
  "abi": [
    {
      "constant": true,
      "inputs": [],
      "name": "POLICY_FLOW",
      "outputs": [
        {
          "name": "",
          "type": "bytes32"
        }
      ],
      "payable": false,
      "stateMutability": "view",
      "type": "function"
    },
    {
      "constant": true,
      "inputs": [],
      "name": "NAME",
      "outputs": [
        {
          "name": "",
          "type": "bytes32"
        }
      ],
      "payable": false,
      "stateMutability": "view",
      "type": "function"
    }
  ],
  "bytecode": "0x608060405234801561001057600080fd5b50610100806100206000396000f3fe6080604052348015600f57600080fd5b5060043610604f576000357c01000000000000000000000000000000000000000000000000000000009004806309128d83146054578063a3f4df7e146070575b600080fd5b605a608c565b6040518082815260200191505060405180910390f35b607660b0565b6040518082815260200191505060405180910390f35b7f506f6c696379466c6f7744656661756c7400000000000000000000000000000081565b7f466c6967687444656c6179526f6c6542617365644f7261636c650000000000008156fea165627a7a72305820df03a36ba1a325fc7b1f25ee98667762d53237ed12d50ce3a2a6dd6a035de7370029",
  "source": "pragma solidity 0.5.2;\n\ncontract FlightDelayRoleBasedOracle {\n    bytes32 public constant NAME = \"FlightDelayRoleBasedOracle\";\n    bytes32 public constant POLICY_FLOW = \"PolicyFlowDefault\";\n}\n",
  "sourcePath": "/Users/ka/Projects/Altoros/Etherisc/dip-platform/core/gif-contracts/contracts/examples/FlightDelayRoleBasedOracle/FlightDelayRoleBasedOracle.sol",
  "compiler": {
    "name": "solc",
    "version": "0.5.2+commit.1df8f40c.Emscripten.clang"
  },
  "schemaVersion": "3.0.1",
  "updatedAt": "2019-02-08T13:16:55.680Z",
  "devdoc": {
    "methods": {}
  },
  "userdoc": {
    "methods": {}
  }
}