{
  "contractName": "FlightDelayOraclize",
  "abi": [
    {
      "constant": true,
      "inputs": [
        {
          "name": "",
          "type": "address"
        }
      ],
      "name": "permissions",
      "outputs": [
        {
          "name": "",
          "type": "uint256"
        }
      ],
      "payable": false,
      "stateMutability": "view",
      "type": "function",
      "signature": "0x01e88208"
    },
    {
      "constant": true,
      "inputs": [],
      "name": "POLICY_FLOW",
      "outputs": [
        {
          "name": "",
          "type": "bytes32"
        }
      ],
      "payable": false,
      "stateMutability": "view",
      "type": "function",
      "signature": "0x09128d83"
    },
    {
      "constant": true,
      "inputs": [],
      "name": "maintenanceMode",
      "outputs": [
        {
          "name": "",
          "type": "bool"
        }
      ],
      "payable": false,
      "stateMutability": "view",
      "type": "function",
      "signature": "0x25dce0a6"
    },
    {
      "constant": true,
      "inputs": [],
      "name": "CHECK_OFFSET",
      "outputs": [
        {
          "name": "",
          "type": "uint256"
        }
      ],
      "payable": false,
      "stateMutability": "view",
      "type": "function",
      "signature": "0x2c41284a"
    },
    {
      "constant": true,
      "inputs": [
        {
          "name": "",
          "type": "uint256"
        }
      ],
      "name": "rolesKeys",
      "outputs": [
        {
          "name": "",
          "type": "bytes32"
        }
      ],
      "payable": false,
      "stateMutability": "view",
      "type": "function",
      "signature": "0x2cf88d9e"
    },
    {
      "constant": true,
      "inputs": [],
      "name": "MIN_OBSERVATIONS",
      "outputs": [
        {
          "name": "",
          "type": "uint256"
        }
      ],
      "payable": false,
      "stateMutability": "view",
      "type": "function",
      "signature": "0x39cee407"
    },
    {
      "constant": true,
      "inputs": [],
      "name": "MAX_PAYOUT",
      "outputs": [
        {
          "name": "",
          "type": "uint256"
        }
      ],
      "payable": false,
      "stateMutability": "view",
      "type": "function",
      "signature": "0x4b9ddafe"
    },
    {
      "constant": true,
      "inputs": [],
      "name": "MAX_PREMIUM",
      "outputs": [
        {
          "name": "",
          "type": "uint256"
        }
      ],
      "payable": false,
      "stateMutability": "view",
      "type": "function",
      "signature": "0x4cdabb16"
    },
    {
      "constant": true,
      "inputs": [
        {
          "name": "",
          "type": "uint256"
        }
      ],
      "name": "requests",
      "outputs": [
        {
          "name": "applicationId",
          "type": "uint256"
        },
        {
          "name": "policyId",
          "type": "uint256"
        },
        {
          "name": "riskId",
          "type": "bytes32"
        }
      ],
      "payable": false,
      "stateMutability": "view",
      "type": "function",
      "signature": "0x81d12c58"
    },
    {
      "constant": true,
      "inputs": [
        {
          "name": "",
          "type": "bytes32"
        }
      ],
      "name": "risks",
      "outputs": [
        {
          "name": "carrierFlightNumber",
          "type": "bytes32"
        },
        {
          "name": "departureYearMonthDay",
          "type": "bytes32"
        },
        {
          "name": "departureTime",
          "type": "uint256"
        },
        {
          "name": "arrivalTime",
          "type": "uint256"
        },
        {
          "name": "delayInMinutes",
          "type": "uint256"
        },
        {
          "name": "delay",
          "type": "uint8"
        },
        {
          "name": "cumulatedWeightedPremium",
          "type": "uint256"
        },
        {
          "name": "premiumMultiplier",
          "type": "uint256"
        },
        {
          "name": "weight",
          "type": "uint256"
        }
      ],
      "payable": false,
      "stateMutability": "view",
      "type": "function",
      "signature": "0x8993021b"
    },
    {
      "constant": true,
      "inputs": [
        {
          "name": "",
          "type": "bytes32"
        }
      ],
      "name": "roles",
      "outputs": [
        {
          "name": "",
          "type": "uint256"
        }
      ],
      "payable": false,
      "stateMutability": "view",
      "type": "function",
      "signature": "0x95356651"
    },
    {
      "constant": true,
      "inputs": [],
      "name": "MAX_FLIGHT_DURATION",
      "outputs": [
        {
          "name": "",
          "type": "uint256"
        }
      ],
      "payable": false,
      "stateMutability": "view",
      "type": "function",
      "signature": "0x972e22eb"
    },
    {
      "constant": true,
      "inputs": [],
      "name": "NAME",
      "outputs": [
        {
          "name": "",
          "type": "bytes32"
        }
      ],
      "payable": false,
      "stateMutability": "view",
      "type": "function",
      "signature": "0xa3f4df7e"
    },
    {
      "constant": true,
      "inputs": [
        {
          "name": "_address",
          "type": "address"
        },
        {
          "name": "_role",
          "type": "bytes32"
        }
      ],
      "name": "hasRole",
      "outputs": [
        {
          "name": "_hasRole",
          "type": "bool"
        }
      ],
      "payable": false,
      "stateMutability": "view",
      "type": "function",
      "signature": "0xac4ab3fb"
    },
    {
      "constant": true,
      "inputs": [],
      "name": "MIN_TIME_BEFORE_DEPARTURE",
      "outputs": [
        {
          "name": "",
          "type": "uint256"
        }
      ],
      "payable": false,
      "stateMutability": "view",
      "type": "function",
      "signature": "0xb7b357ac"
    },
    {
      "constant": true,
      "inputs": [],
      "name": "MIN_PREMIUM",
      "outputs": [
        {
          "name": "",
          "type": "uint256"
        }
      ],
      "payable": false,
      "stateMutability": "view",
      "type": "function",
      "signature": "0xbe5c8f44"
    },
    {
      "constant": false,
      "inputs": [
        {
          "name": "_address",
          "type": "address"
        },
        {
          "name": "_role",
          "type": "bytes32"
        }
      ],
      "name": "addRoleToAccount",
      "outputs": [],
      "payable": false,
      "stateMutability": "nonpayable",
      "type": "function",
      "signature": "0xc2e86735"
    },
    {
      "constant": true,
      "inputs": [],
      "name": "productService",
      "outputs": [
        {
          "name": "",
          "type": "address"
        }
      ],
      "payable": false,
      "stateMutability": "view",
      "type": "function",
      "signature": "0xc37d45bf"
    },
    {
      "constant": false,
      "inputs": [
        {
          "name": "_role",
          "type": "bytes32"
        }
      ],
      "name": "createRole",
      "outputs": [],
      "payable": false,
      "stateMutability": "nonpayable",
      "type": "function",
      "signature": "0xc42994a2"
    },
    {
      "constant": true,
      "inputs": [],
      "name": "developmentMode",
      "outputs": [
        {
          "name": "",
          "type": "bool"
        }
      ],
      "payable": false,
      "stateMutability": "view",
      "type": "function",
      "signature": "0xd6fcaf40"
    },
    {
      "constant": true,
      "inputs": [
        {
          "name": "",
          "type": "uint256"
        }
      ],
      "name": "weightPattern",
      "outputs": [
        {
          "name": "",
          "type": "uint8"
        }
      ],
      "payable": false,
      "stateMutability": "view",
      "type": "function",
      "signature": "0xe32bdf08"
    },
    {
      "constant": false,
      "inputs": [
        {
          "name": "_address",
          "type": "address"
        }
      ],
      "name": "cleanRolesForAccount",
      "outputs": [],
      "payable": false,
      "stateMutability": "nonpayable",
      "type": "function",
      "signature": "0xf566e10e"
    },
    {
      "constant": true,
      "inputs": [
        {
          "name": "",
          "type": "uint256"
        }
      ],
      "name": "currencies",
      "outputs": [
        {
          "name": "",
          "type": "bytes32"
        }
      ],
      "payable": false,
      "stateMutability": "view",
      "type": "function",
      "signature": "0xf6d1c271"
    },
    {
      "inputs": [
        {
          "name": "_productController",
          "type": "address"
        }
      ],
      "payable": false,
      "stateMutability": "nonpayable",
      "type": "constructor",
      "signature": "constructor"
    },
    {
      "anonymous": false,
      "inputs": [
        {
          "indexed": false,
          "name": "requestId",
          "type": "uint256"
        },
        {
          "indexed": false,
          "name": "carrierFlightNumber",
          "type": "bytes32"
        },
        {
          "indexed": false,
          "name": "departureTime",
          "type": "uint256"
        },
        {
          "indexed": false,
          "name": "arrivalTime",
          "type": "uint256"
        }
      ],
      "name": "LogRequestFlightStatistics",
      "type": "event",
      "signature": "0xe857bff72dd2ed1b8242b825b28a9647d6c9128ca89f6e2f8261ed87ffecd914"
    },
    {
      "anonymous": false,
      "inputs": [
        {
          "indexed": false,
          "name": "requestId",
          "type": "uint256"
        },
        {
          "indexed": false,
          "name": "carrierFlightNumber",
          "type": "bytes32"
        },
        {
          "indexed": false,
          "name": "arrivalTime",
          "type": "uint256"
        }
      ],
      "name": "LogRequestFlightStatus",
      "type": "event",
      "signature": "0x9e0191c34cbc564aac9868f50a4cce5db2f167b44d26c02f50e12298b94407ef"
    },
    {
      "anonymous": false,
      "inputs": [
        {
          "indexed": false,
          "name": "policyId",
          "type": "uint256"
        },
        {
          "indexed": false,
          "name": "claimId",
          "type": "uint256"
        },
        {
          "indexed": false,
          "name": "payoutId",
          "type": "uint256"
        },
        {
          "indexed": false,
          "name": "amount",
          "type": "uint256"
        }
      ],
      "name": "LogRequestPayout",
      "type": "event",
      "signature": "0xa03388de5ed101344e2b409e4dc7e74b90fcaa1fa5295d6dab4d209160c39881"
    },
    {
      "anonymous": false,
      "inputs": [
        {
          "indexed": false,
          "name": "error",
          "type": "string"
        }
      ],
      "name": "LogError",
      "type": "event",
      "signature": "0xc35a0ec6603ff0b5966d7ca053a5f0984a70aad58a9a0ecb1349308815a4151a"
    },
    {
      "anonymous": false,
      "inputs": [
        {
          "indexed": false,
          "name": "requestId",
          "type": "uint256"
        },
        {
          "indexed": false,
          "name": "policyId",
          "type": "uint256"
        }
      ],
      "name": "LogUnprocessableStatus",
      "type": "event",
      "signature": "0xc3b7d47dc0fb0f47f9c9c1df52beba60d745510a2949f6d3ad249fe8b7f1b89b"
    },
    {
      "anonymous": false,
      "inputs": [
        {
          "indexed": false,
          "name": "policyId",
          "type": "uint256"
        }
      ],
      "name": "LogPolicyExpired",
      "type": "event",
      "signature": "0x08b74d3cccbcb3894ccc99c3a75f6a6890f71ea4c039fe60eabd7bee40b1231c"
    },
    {
      "constant": false,
      "inputs": [
        {
          "name": "_carrierFlightNumber",
          "type": "bytes32"
        },
        {
          "name": "_departureYearMonthDay",
          "type": "bytes32"
        },
        {
          "name": "_departureTime",
          "type": "uint256"
        },
        {
          "name": "_arrivalTime",
          "type": "uint256"
        },
        {
          "name": "_premium",
          "type": "uint256"
        },
        {
          "name": "_currency",
          "type": "bytes32"
        },
        {
          "name": "_payoutOptions",
          "type": "uint256[]"
        },
        {
          "name": "_customerExternalId",
          "type": "bytes32"
        }
      ],
      "name": "applyForPolicy",
      "outputs": [],
      "payable": false,
      "stateMutability": "nonpayable",
      "type": "function",
      "signature": "0x26735338"
    },
    {
      "constant": false,
      "inputs": [
        {
          "name": "_requestId",
          "type": "uint256"
        },
        {
          "name": "_response",
          "type": "bytes"
        }
      ],
      "name": "flightStatisticsCallback",
      "outputs": [],
      "payable": false,
      "stateMutability": "nonpayable",
      "type": "function",
      "signature": "0xda65b880"
    },
    {
      "constant": false,
      "inputs": [
        {
          "name": "_requestId",
          "type": "uint256"
        },
        {
          "name": "_response",
          "type": "bytes"
        }
      ],
      "name": "flightStatusCallback",
      "outputs": [],
      "payable": false,
      "stateMutability": "nonpayable",
      "type": "function",
      "signature": "0xac5465a1"
    },
    {
      "constant": false,
      "inputs": [
        {
          "name": "_payoutId",
          "type": "uint256"
        },
        {
          "name": "_amount",
          "type": "uint256"
        }
      ],
      "name": "confirmPayout",
      "outputs": [],
      "payable": false,
      "stateMutability": "nonpayable",
      "type": "function",
      "signature": "0x7f66ae95"
    },
    {
      "constant": true,
      "inputs": [
        {
          "name": "_premium",
          "type": "uint256"
        },
        {
          "name": "_statistics",
          "type": "uint256[6]"
        }
      ],
      "name": "calculatePayouts",
      "outputs": [
        {
          "name": "_weight",
          "type": "uint256"
        },
        {
          "name": "_payoutOptions",
          "type": "uint256[5]"
        }
      ],
      "payable": false,
      "stateMutability": "view",
      "type": "function",
      "signature": "0xc9821073"
    }
  ],
  "bytecode": "0x6003805461ffff1916905560a06040527f4555520000000000000000000000000000000000000000000000000000000000608090815262000045906004906001620001f0565b506040805160c08101825260008082526020820181905291810191909152601e606082015260326080820181905260a08201526200008890600590600662000233565b503480156200009657600080fd5b506040516020806200224a83398101806040526020811015620000b857600080fd5b5051600380546201000060b060020a03191662010000600160a060020a03841602179055807f466c6967687444656c61794f7261636c697a65000000000000000000000000007f506f6c696379466c6f7744656661756c740000000000000000000000000000006200013482826401000000006200013e810204565b505050506200030a565b600360029054906101000a9004600160a060020a0316600160a060020a0316632f92673283836040518363ffffffff167c01000000000000000000000000000000000000000000000000000000000281526004018083815260200182815260200192505050602060405180830381600087803b158015620001be57600080fd5b505af1158015620001d3573d6000803e3d6000fd5b505050506040513d6020811015620001ea57600080fd5b50505050565b826001810192821562000221579160200282015b828111156200022157825182559160200191906001019062000204565b506200022f929150620002c9565b5090565b600183019183908215620002bb5791602002820160005b838211156200028a57835183826101000a81548160ff021916908360ff16021790555092602001926001016020816000010492830192600103026200024a565b8015620002b95782816101000a81549060ff02191690556001016020816000010492830192600103026200028a565b505b506200022f929150620002e9565b620002e691905b808211156200022f5760008155600101620002d0565b90565b620002e691905b808211156200022f57805460ff19168155600101620002f0565b611f30806200031a6000396000f3fe608060405234801561001057600080fd5b50600436106101c85760003560e060020a90048063a3f4df7e116100fd578063c42994a21161009b578063da65b88011610075578063da65b880146105ac578063e32bdf0814610623578063f566e10e14610656578063f6d1c2711461067c576101c8565b8063c42994a2146104f2578063c98210731461050f578063d6fcaf40146105a4576101c8565b8063b7b357ac116100d7578063b7b357ac14610492578063be5c8f441461049a578063c2e86735146104a2578063c37d45bf146104ce576101c8565b8063a3f4df7e146103e7578063ac4ab3fb146103ef578063ac5465a11461041b576101c8565b80634b9ddafe1161016a57806381d12c581161014457806381d12c58146103205780638993021b1461035b57806395356651146103c2578063972e22eb146103df576101c8565b80634b9ddafe146102ed5780634cdabb16146102f55780637f66ae95146102fd576101c8565b806326735338116101a657806326735338146102295780632c41284a146102c05780632cf88d9e146102c857806339cee407146102e5576101c8565b806301e88208146101cd57806309128d831461020557806325dce0a61461020d575b600080fd5b6101f3600480360360208110156101e357600080fd5b5035600160a060020a0316610699565b60408051918252519081900360200190f35b6101f36106ab565b6102156106cf565b604080519115158252519081900360200190f35b6102be600480360361010081101561024057600080fd5b81359160208101359160408201359160608101359160808201359160a08101359181019060e0810160c082013564010000000081111561027f57600080fd5b82018360208201111561029157600080fd5b803590602001918460208302840111640100000000831117156102b357600080fd5b9193509150356106dd565b005b6101f3610ae9565b6101f3600480360360208110156102de57600080fd5b5035610aef565b6101f3610b0e565b6101f3610b13565b6101f3610b1a565b6102be6004803603604081101561031357600080fd5b5080359060200135610b20565b61033d6004803603602081101561033657600080fd5b5035610b2f565b60408051938452602084019290925282820152519081900360600190f35b6103786004803603602081101561037157600080fd5b5035610b60565b60408051998a5260208a0198909852888801969096526060880194909452608087019290925260ff1660a086015260c085015260e084015261010083015251908190036101200190f35b6101f3600480360360208110156103d857600080fd5b5035610bb1565b6101f3610bc3565b6101f3610bca565b6102156004803603604081101561040557600080fd5b50600160a060020a038135169060200135610bee565b6102be6004803603604081101561043157600080fd5b8135919081019060408101602082013564010000000081111561045357600080fd5b82018360208201111561046557600080fd5b8035906020019184600183028401116401000000008311171561048757600080fd5b509092509050610c1a565b6101f3610f11565b6101f3610f18565b6102be600480360360408110156104b857600080fd5b50600160a060020a038135169060200135610f1e565b6104d6610f65565b60408051600160a060020a039092168252519081900360200190f35b6102be6004803603602081101561050857600080fd5b5035610f7a565b610565600480360360e081101561052557600080fd5b6040805160c0818101909252833593928301929160e08301919060208401906006908390839080828437600092019190915250919450610fdd9350505050565b604051828152602081018260a080838360005b83811015610590578181015183820152602001610578565b505050509050019250505060405180910390f35b6102156111e4565b6102be600480360360408110156105c257600080fd5b813591908101906040810160208201356401000000008111156105e457600080fd5b8201836020820111156105f657600080fd5b8035906020019184600183028401116401000000008311171561061857600080fd5b5090925090506111ed565b6106406004803603602081101561063957600080fd5b503561163b565b6040805160ff9092168252519081900360200190f35b6102be6004803603602081101561066c57600080fd5b5035600160a060020a0316611662565b6101f36004803603602081101561069257600080fd5b503561167c565b60026020526000908152604090205481565b7f506f6c696379466c6f7744656661756c7400000000000000000000000000000081565b600354610100900460ff1681565b6105dc851015610725576040805160e560020a62461bcd0281526020600482015260166024820152600080516020611ea2833981519152604482015290519081900360640190fd5b61714885111561076d576040805160e560020a62461bcd0281526020600482015260166024820152600080516020611ea2833981519152604482015290519081900360640190fd5b60045484146107c6576040805160e560020a62461bcd02815260206004820152601660248201527f4552524f523a494e56414c49445f43555252454e435900000000000000000000604482015290519081900360640190fd5b8686116108075760405160e560020a62461bcd028152600401808060200182810382526025815260200180611e7d6025913960400191505060405180910390fd5b6202a300870187111561084e5760405160e560020a62461bcd028152600401808060200182810382526025815260200180611e7d6025913960400191505060405180910390fd5b4262015180018710156108955760405160e560020a62461bcd028152600401808060200182810382526025815260200180611e7d6025913960400191505060405180910390fd5b6040805160208082018c90528183018a905260608083018a9052835180840390910181526080909201835281519181019190912060008181526006909252919020805415156108f7578a8155600181018a905560028101899055600381018890555b625b8d8081600601548260070154890201101515610964576040805160208082526013908201527f4552524f523a3a434c55535445525f5249534b00000000000000000000000000818301529051600080516020611ec28339815191529181900360600190a15050610ade565b6006810154151561097957625b8d8060068201555b60006109ba84898989898080602002602001604051908101604052809392919081815260200183836020028082843760009201919091525061169092505050565b90506000600780548091906001016109d29190611de4565b905060006007828154811015156109e557fe5b90600052602060002090600302019050828160000181905550848160020181905550610a888e604051602001808281526020019150506040516020818303038152906040526040805190810160405280601881526020017f666c696768745374617469737469637343616c6c6261636b00000000000000008152507f466c69676874526174696e677300000000000000000000000000000000000000600061177b565b507fe857bff72dd2ed1b8242b825b28a9647d6c9128ca89f6e2f8261ed87ffecd914828f8e8e6040518085815260200184815260200183815260200182815260200194505050505060405180910390a150505050505b505050505050505050565b61038481565b6001805482908110610afd57fe5b600091825260209091200154905081565b600a81565b620249f081565b61714881565b610b2a82826118ce565b505050565b6007805482908110610b3d57fe5b600091825260209091206003909102018054600182015460029092015490925083565b60066020819052600091825260409091208054600182015460028301546003840154600485015460058601549686015460078701546008909701549597949693959294919360ff9092169290919089565b60006020819052908152604090205481565b6202a30081565b7f466c6967687444656c61794f7261636c697a650000000000000000000000000081565b60009081526020818152604080832054600160a060020a03909416835260029091528120549091161190565b60008083836040811015610c2d57600080fd5b5060078054600160f860020a03198335169450602090920135925060009187908110610c5557fe5b90600052602060002090600302016001015490506000600787815481101515610c7a57fe5b90600052602060002090600302016000015490506060610c9982611974565b90507f4c00000000000000000000000000000000000000000000000000000000000000600160f860020a0319861614801590610cff57507f4100000000000000000000000000000000000000000000000000000000000000600160f860020a0319861614155b8015610d3557507f4300000000000000000000000000000000000000000000000000000000000000600160f860020a0319861614155b8015610d6b57507f4400000000000000000000000000000000000000000000000000000000000000600160f860020a0319861614155b15610db557604080518981526020810185905281517fc3b7d47dc0fb0f47f9c9c1df52beba60d745510a2949f6d3ad249fe8b7f1b89b929181900390910190a15050505050610b2a565b7f4100000000000000000000000000000000000000000000000000000000000000600160f860020a031986161415610df1575050505050610b2a565b7f4300000000000000000000000000000000000000000000000000000000000000600160f860020a031986161415610e4a57610e4583826003815181101515610e3657fe5b90602001906020020151611a71565b610f07565b7f4400000000000000000000000000000000000000000000000000000000000000600160f860020a031986161415610e8f57610e4583826004815181101515610e3657fe5b600f8412158015610ea05750601e84125b15610eb857610e4583826000815181101515610e3657fe5b601e8412158015610ec95750602d84125b15610ee157610e4583826001815181101515610e3657fe5b602d8412610efc57610e4583826002815181101515610e3657fe5b610f07836000611a71565b5050505050505050565b6201518081565b6105dc81565b6000818152602081905260409020541515610f3857600080fd5b60009081526020818152604080832054600160a060020a0390941683526002909152902080549091179055565b600354620100009004600160a060020a031681565b60008181526020819052604090205415610f9357600080fd5b60018054600083815260208190526040812060029290920a909155815480830183559190527fb10e2d527612073b26eecdfd717e6a320cf44b4afac2b0732d9fcbe2b7fa0cf60155565b6000610fe7611e10565b6105dc84101561102f576040805160e560020a62461bcd0281526020600482015260166024820152600080516020611ea2833981519152604482015290519081900360640190fd5b617148841115611077576040805160e560020a62461bcd0281526020600482015260166024820152600080516020611ea2833981519152604482015290519081900360640190fd5b8251600a106110d0576040805160e560020a62461bcd02815260206004820152601760248201527f4552524f523a3a4c4f575f4f42534552564154494f4e53000000000000000000604482015290519081900360640190fd5b60015b60068110156111315783518482600681106110ea57fe5b6020020151600583600681106110fc57fe5b602091828204019190069054906101000a900460ff1660ff16026127100281151561112357fe5b0492909201916001016110d3565b5081151561114c578251620186a081151561114857fe5b0491505b60005b60058110156111dc57826005600183016006811061116957fe5b602091828204019190069054906101000a900460ff1660ff1686026127100281151561119157fe5b0482826005811061119e57fe5b6020020152620249f08282600581106111b357fe5b602002015111156111d457620249f08282600581106111ce57fe5b60200201525b60010161114f565b509250929050565b60035460ff1681565b6111f5611e2f565b828260c081101561120557600080fd5b810190808060c00190600680602002604051908101604052809291908260066020028082843760009201829052506007805494985090965094508993505050811061124c57fe5b60009182526020909120600390910201548251909150600a106112795761127281611b24565b5050610b2a565b600061128482611b9d565b9050606061129183611974565b9050600061129d611e10565b6112a78487610fdd565b845191935091506005146112f957600080516020611ec2833981519152604051808060200182810382526023815260200180611ee26023913960400191505060405180910390a1505050505050610b2a565b60005b60058110156114115781816005811061131157fe5b6020020151848281518110151561132457fe5b602090810290910101511461138d57604080516020808252601c908201527f4552524f523a3a494e56414c49445f5041594f55545f4f5054494f4e00000000818301529051600080516020611ec28339815191529181900360600190a150505050505050610b2a565b620249f0848281518110151561139f57fe5b90602001906020020151111561140957604080516020808252601c908201527f4552524f523a3a494e56414c49445f5041594f55545f4f5054494f4e00000000818301529051600080516020611ec28339815191529181900360600190a150505050505050610b2a565b6001016112fc565b50600060078a81548110151561142357fe5b90600052602060002090600302016002015490506006600082815260200190815260200160002060070154600014156114a8578285620186a00281151561146657fe5b60008381526006602081905260409091209290910491015582620186a081151561148c57fe5b60008381526006602052604090209190046007909101556114cb565b600081815260066020819052604090912060078101549101805491870290910190555b60008181526006602052604081206008018490556114e887611c3b565b90506000600780548091906001016115009190611de4565b9050600060078281548110151561151357fe5b6000918252602080832060039283020160018181018890558885526006835260409485902093840154845494820154865161038490920194820194909452808601949094526060808501939093528451808503909301835260c084019094526014608084019081527f666c6967687453746174757343616c6c6261636b00000000000000000000000060a09094019390935293506115d5929091907f466c6967687453746174757365730000000000000000000000000000000000009061177b565b5060008481526006602090815260409182902080546003909101548351868152928301919091528183015290517f9e0191c34cbc564aac9868f50a4cce5db2f167b44d26c02f50e12298b94407ef9181900360600190a150505050505050505050505050565b6005816006811061164857fe5b60209182820401919006915054906101000a900460ff1681565b600160a060020a0316600090815260026020526040812055565b6004816001811061168957fe5b0154905081565b6000600360029054906101000a9004600160a060020a0316600160a060020a031663dc3addf0868686866040518563ffffffff1660e060020a0281526004018085815260200184815260200183815260200180602001828103825283818151815260200191508051906020019060200280838360005b8381101561171e578181015183820152602001611706565b5050505090500195505050505050602060405180830381600087803b15801561174657600080fd5b505af115801561175a573d6000803e3d6000fd5b505050506040513d602081101561177057600080fd5b505195945050505050565b6000600360029054906101000a9004600160a060020a0316600160a060020a031663d643ece886863087876040518663ffffffff1660e060020a02815260040180806020018060200186600160a060020a0316600160a060020a03168152602001858152602001848152602001838103835288818151815260200191508051906020019080838360005b8381101561181d578181015183820152602001611805565b50505050905090810190601f16801561184a5780820380516001836020036101000a031916815260200191505b50838103825287518152875160209182019189019080838360005b8381101561187d578181015183820152602001611865565b50505050905090810190601f1680156118aa5780820380516001836020036101000a031916815260200191505b50975050505050505050602060405180830381600087803b15801561174657600080fd5b600354604080517f5aa6cf9700000000000000000000000000000000000000000000000000000000815260048101859052602481018490529051600092620100009004600160a060020a031691635aa6cf9791604480830192602092919082900301818787803b15801561194157600080fd5b505af1158015611955573d6000803e3d6000fd5b505050506040513d602081101561196b57600080fd5b50519392505050565b600354604080517f450d512e000000000000000000000000000000000000000000000000000000008152600481018490529051606092620100009004600160a060020a03169163450d512e91602480830192600092919082900301818387803b1580156119e057600080fd5b505af11580156119f4573d6000803e3d6000fd5b505050506040513d6000823e601f3d908101601f191682016040526020811015611a1d57600080fd5b810190808051640100000000811115611a3557600080fd5b82016020810184811115611a4857600080fd5b8151856020820283011164010000000082111715611a6557600080fd5b50909695505050505050565b801515611ab957611a8182611ca7565b6040805183815290517f08b74d3cccbcb3894ccc99c3a75f6a6890f71ea4c039fe60eabd7bee40b1231c9181900360200190a1611b20565b6000611ac483611d05565b90506000611ad28284611d71565b60408051868152602081018590528082018390526060810186905290519192507fa03388de5ed101344e2b409e4dc7e74b90fcaa1fa5295d6dab4d209160c39881919081900360800190a150505b5050565b600360029054906101000a9004600160a060020a0316600160a060020a031663a0355f4e826040518263ffffffff1660e060020a02815260040180828152602001915050600060405180830381600087803b158015611b8257600080fd5b505af1158015611b96573d6000803e3d6000fd5b5050505050565b600354604080517f1bf1fffb000000000000000000000000000000000000000000000000000000008152600481018490529051600092620100009004600160a060020a031691631bf1fffb91602480830192602092919082900301818787803b158015611c0957600080fd5b505af1158015611c1d573d6000803e3d6000fd5b505050506040513d6020811015611c3357600080fd5b505192915050565b600354604080517f6be60f8b000000000000000000000000000000000000000000000000000000008152600481018490529051600092620100009004600160a060020a031691636be60f8b91602480830192602092919082900301818787803b158015611c0957600080fd5b600360029054906101000a9004600160a060020a0316600160a060020a031663bf81bf43826040518263ffffffff1660e060020a02815260040180828152602001915050600060405180830381600087803b158015611b8257600080fd5b600354604080517f54f3a32c000000000000000000000000000000000000000000000000000000008152600481018490529051600092620100009004600160a060020a0316916354f3a32c91602480830192602092919082900301818787803b158015611c0957600080fd5b600354604080517f6afa434000000000000000000000000000000000000000000000000000000000815260048101859052602481018490529051600092620100009004600160a060020a031691636afa434091604480830192602092919082900301818787803b15801561194157600080fd5b815481835581811115610b2a57600302816003028360005260206000209182019101610b2a9190611e4e565b60a0604051908101604052806005906020820280388339509192915050565b60c0604051908101604052806006906020820280388339509192915050565b611e7991905b80821115611e75576000808255600182018190556002820155600301611e54565b5090565b9056fe4552524f523a3a494e56414c49445f4152524956414c2f4445504152545552455f54494d454552524f523a3a494e56414c49445f5052454d49554d00000000000000000000c35a0ec6603ff0b5966d7ca053a5f0984a70aad58a9a0ecb1349308815a4151a4552524f523a3a494e56414c49445f5041594f55545f4f5054494f4e535f434f554e54a165627a7a7230582005d49df3c5b47375a99c0901067cec170195782b5819b54f7b081a11d912981f0029",
  "source": "pragma solidity 0.5.2;\n\nimport \"../../Product.sol\";\n\ncontract FlightDelayOraclize is Product {\n    event LogRequestFlightStatistics(\n        uint256 requestId,\n        bytes32 carrierFlightNumber,\n        uint256 departureTime,\n        uint256 arrivalTime\n    );\n\n    event LogRequestFlightStatus(\n        uint256 requestId,\n        bytes32 carrierFlightNumber,\n        uint256 arrivalTime\n    );\n\n    event LogRequestPayout(\n        uint256 policyId,\n        uint256 claimId,\n        uint256 payoutId,\n        uint256 amount\n    );\n\n    event LogError(string error);\n\n    event LogUnprocessableStatus(uint256 requestId, uint256 policyId);\n\n    event LogPolicyExpired(uint256 policyId);\n\n    bytes32 public constant NAME = \"FlightDelayOraclize\";\n    bytes32 public constant POLICY_FLOW = \"PolicyFlowDefault\";\n\n    // Minimum observations for valid prediction\n    uint256 public constant MIN_OBSERVATIONS = 10;\n    // Minimum time before departure for applying\n    uint256 public constant MIN_TIME_BEFORE_DEPARTURE = 24 hours;\n    // Maximum duration of flight\n    uint256 public constant MAX_FLIGHT_DURATION = 2 days;\n    // Check for delay after .. minutes after scheduled arrival\n    uint256 public constant CHECK_OFFSET = 15 minutes;\n\n    // All amounts expected to be provided in a currencys smallest unit\n    // E.g. 10 EUR = 1000 (1000 cents)\n    uint256 public constant MIN_PREMIUM = 1500;\n    uint256 public constant MAX_PREMIUM = 29000;\n    uint256 public constant MAX_PAYOUT = 150000;\n\n    bytes32[1] public currencies = [bytes32(\"EUR\")];\n\n    // ['observations','late15','late30','late45','cancelled','diverted']\n    uint8[6] public weightPattern = [0, 0, 0, 30, 50, 50];\n\n    // Maximum cumulated weighted premium per risk\n    uint256 constant MAX_CUMULATED_WEIGHTED_PREMIUM = 6000000;\n\n    struct Risk {\n        bytes32 carrierFlightNumber;\n        bytes32 departureYearMonthDay;\n        uint256 departureTime;\n        uint256 arrivalTime;\n        uint delayInMinutes;\n        uint8 delay;\n        uint256 cumulatedWeightedPremium;\n        uint256 premiumMultiplier;\n        uint256 weight;\n    }\n\n    struct RequestMetadata {\n        uint256 applicationId;\n        uint256 policyId;\n        bytes32 riskId;\n    }\n\n    mapping(bytes32 => Risk) public risks;\n\n    RequestMetadata[] public requests;\n\n    constructor(address _productController)\n        public\n        Product(_productController, NAME, POLICY_FLOW)\n    {}\n\n    function applyForPolicy(\n        // domain specific\n        bytes32 _carrierFlightNumber,\n        bytes32 _departureYearMonthDay,\n        uint256 _departureTime,\n        uint256 _arrivalTime,\n        // premium\n        uint256 _premium,\n        bytes32 _currency,\n        uint256[] calldata _payoutOptions,\n        // customer\n        bytes32 _customerExternalId\n    ) external {\n        // Validate input parameters\n        require(_premium >= MIN_PREMIUM, \"ERROR::INVALID_PREMIUM\");\n        require(_premium <= MAX_PREMIUM, \"ERROR::INVALID_PREMIUM\");\n        require(_currency == currencies[0], \"ERROR:INVALID_CURRENCY\");\n        require(\n            _arrivalTime > _departureTime,\n            \"ERROR::INVALID_ARRIVAL/DEPARTURE_TIME\"\n        );\n        require(\n            _departureTime <= _departureTime + MAX_FLIGHT_DURATION,\n            \"ERROR::INVALID_ARRIVAL/DEPARTURE_TIME\"\n        );\n        require(\n            _departureTime >= block.timestamp + MIN_TIME_BEFORE_DEPARTURE,\n            \"ERROR::INVALID_ARRIVAL/DEPARTURE_TIME\"\n        );\n\n        // Create risk if not exists\n        bytes32 riskId = keccak256(\n            abi.encodePacked(_carrierFlightNumber, _departureTime, _arrivalTime)\n        );\n        Risk storage risk = risks[riskId];\n\n        if (risk.carrierFlightNumber == \"\") {\n            risk.carrierFlightNumber = _carrierFlightNumber;\n            risk.departureYearMonthDay = _departureYearMonthDay;\n            risk.departureTime = _departureTime;\n            risk.arrivalTime = _arrivalTime;\n        }\n\n        if (_premium * risk.premiumMultiplier + risk.cumulatedWeightedPremium >= MAX_CUMULATED_WEIGHTED_PREMIUM) {\n            emit LogError(\"ERROR::CLUSTER_RISK\");\n            return;\n        }\n\n        if (risk.cumulatedWeightedPremium == 0) {\n            risk.cumulatedWeightedPremium = MAX_CUMULATED_WEIGHTED_PREMIUM;\n        }\n\n        // Create new application\n        uint256 applicationId = newApplication(\n            _customerExternalId,\n            _premium,\n            _currency,\n            _payoutOptions\n        );\n\n        // New request\n        uint256 requestId = requests.length++;\n        RequestMetadata storage requestMetadata = requests[requestId];\n        requestMetadata.applicationId = applicationId;\n        requestMetadata.riskId = riskId;\n\n        request(\n            abi.encode(_carrierFlightNumber),\n            \"flightStatisticsCallback\",\n            \"FlightRatings\",\n            0\n        );\n\n        emit LogRequestFlightStatistics(\n            requestId,\n            _carrierFlightNumber,\n            _departureTime,\n            _arrivalTime\n        );\n    }\n\n    function flightStatisticsCallback(\n        uint256 _requestId,\n        bytes calldata _response\n    ) external {\n        // Statistics: ['observations','late15','late30','late45','cancelled','diverted']\n        uint256[6] memory _statistics = abi.decode(_response, (uint256[6]));\n\n        uint256 applicationId = requests[_requestId].applicationId;\n\n        if (_statistics[0] <= MIN_OBSERVATIONS) {\n            decline(applicationId);\n            return;\n        }\n\n        uint256 premium = getPremium(applicationId);\n        uint256[] memory payoutOptions = getPayoutOptions(applicationId);\n        (uint256 weight, uint256[5] memory calculatedPayouts) = calculatePayouts(\n            premium,\n            _statistics\n        );\n\n        if (payoutOptions.length != calculatedPayouts.length) {\n            emit LogError(\"ERROR::INVALID_PAYOUT_OPTIONS_COUNT\");\n            return;\n        }\n\n        for (uint256 i = 0; i < 5; i++) {\n            if (payoutOptions[i] != calculatedPayouts[i]) {\n                emit LogError(\"ERROR::INVALID_PAYOUT_OPTION\");\n                return;\n            }\n\n            if (payoutOptions[i] > MAX_PAYOUT) {\n                emit LogError(\"ERROR::INVALID_PAYOUT_OPTION\");\n                return;\n            }\n        }\n\n        bytes32 riskId = requests[_requestId].riskId;\n\n        if (risks[riskId].premiumMultiplier == 0) {\n            // It's the first policy for this risk, we accept any premium\n            risks[riskId].cumulatedWeightedPremium = premium * 100000 / weight;\n            risks[riskId].premiumMultiplier = 100000 / weight;\n        } else {\n            risks[riskId].cumulatedWeightedPremium = risks[riskId].cumulatedWeightedPremium + premium * risks[riskId].premiumMultiplier;\n        }\n\n        risks[riskId].weight = weight;\n\n        uint256 policyId = underwrite(applicationId);\n\n        // New request\n        uint256 newRequestId = requests.length++;\n        RequestMetadata storage requestMetadata = requests[newRequestId];\n        requestMetadata.policyId = policyId;\n\n        request(\n            abi.encode(\n                risks[riskId].arrivalTime + CHECK_OFFSET,\n                risks[riskId].carrierFlightNumber,\n                risks[riskId].departureYearMonthDay\n            ),\n            \"flightStatusCallback\",\n            \"FlightStatuses\",\n            1\n        );\n\n        emit LogRequestFlightStatus(\n            newRequestId,\n            risks[riskId].carrierFlightNumber,\n            risks[riskId].arrivalTime\n        );\n    }\n\n    function flightStatusCallback(uint256 _requestId, bytes calldata _response)\n        external\n    {\n        (bytes1 status, int256 delay) = abi.decode(_response, (bytes1, int256));\n\n        uint256 policyId = requests[_requestId].policyId;\n        uint256 applicationId = requests[_requestId].applicationId;\n        uint256[] memory payoutOptions = getPayoutOptions(applicationId);\n\n        if (status != \"L\" && status != \"A\" && status != \"C\" && status != \"D\") {\n            emit LogUnprocessableStatus(_requestId, policyId);\n            return;\n        }\n\n        if (status == \"A\") {\n            // todo: active, reschedule oracle call + 45 min\n            return;\n        }\n\n        if (status == \"C\") {\n            resolvePayout(policyId, payoutOptions[3]);\n        } else if (status == \"D\") {\n            resolvePayout(policyId, payoutOptions[4]);\n        } else if (delay >= 15 && delay < 30) {\n            resolvePayout(policyId, payoutOptions[0]);\n        } else if (delay >= 30 && delay < 45) {\n            resolvePayout(policyId, payoutOptions[1]);\n        } else if (delay >= 45) {\n            resolvePayout(policyId, payoutOptions[2]);\n        } else {\n            resolvePayout(policyId, 0);\n        }\n    }\n\n    function confirmPayout(uint256 _payoutId, uint256 _amount) external {\n        payout(_payoutId, _amount);\n    }\n\n    function calculatePayouts(uint256 _premium, uint256[6] memory _statistics)\n        public\n        view\n        returns (uint256 _weight, uint256[5] memory _payoutOptions)\n    {\n        require(_premium >= MIN_PREMIUM, \"ERROR::INVALID_PREMIUM\");\n        require(_premium <= MAX_PREMIUM, \"ERROR::INVALID_PREMIUM\");\n        require(_statistics[0] > MIN_OBSERVATIONS, \"ERROR::LOW_OBSERVATIONS\");\n\n        for (uint256 i = 1; i < 6; i++) {\n            _weight += weightPattern[i] * _statistics[i] * 10000 / _statistics[0];\n            // 1% = 100 / 100% = 10,000\n        }\n\n        // To avoid div0 in the payout section, we have to make a minimal assumption on weight\n        if (_weight == 0) {\n            _weight = 100000 / _statistics[0];\n        }\n\n        for (uint256 i = 0; i < 5; i++) {\n            _payoutOptions[i] = _premium * weightPattern[i + 1] * 10000 / _weight;\n\n            if (_payoutOptions[i] > MAX_PAYOUT) {\n                _payoutOptions[i] = MAX_PAYOUT;\n            }\n        }\n    }\n\n    function resolvePayout(uint256 _policyId, uint256 _payoutAmount) internal {\n        if (_payoutAmount == 0) {\n            expire(_policyId);\n\n            emit LogPolicyExpired(_policyId);\n        } else {\n            uint256 claimId = newClaim(_policyId);\n            uint256 payoutId = confirmClaim(claimId, _payoutAmount);\n\n            emit LogRequestPayout(_policyId, claimId, payoutId, _payoutAmount);\n        }\n    }\n}\n",
  "sourcePath": "/Users/ka/Projects/Altoros/Etherisc/dip-platform/core/gif-contracts/contracts/examples/FlightDelayOraclize/FlightDelayOraclize.sol",
  "compiler": {
    "name": "solc",
    "version": "0.5.2+commit.1df8f40c.Emscripten.clang"
  },
  "schemaVersion": "3.0.2",
  "updatedAt": "2019-02-18T10:29:17.360Z",
  "devdoc": {
    "methods": {}
  },
  "userdoc": {
    "methods": {}
  }
}