{
  "contractName": "FlightDelayRoleBasedOracle",
  "abi": [
    {
      "constant": true,
      "inputs": [],
      "name": "POLICY_FLOW",
      "outputs": [
        {
          "name": "",
          "type": "bytes32"
        }
      ],
      "payable": false,
      "stateMutability": "view",
      "type": "function"
    },
    {
      "constant": true,
      "inputs": [],
      "name": "NAME",
      "outputs": [
        {
          "name": "",
          "type": "bytes32"
        }
      ],
      "payable": false,
      "stateMutability": "view",
      "type": "function"
    }
  ],
  "bytecode": "0x608060405234801561001057600080fd5b5060e58061001f6000396000f3fe6080604052348015600f57600080fd5b5060043610604e577c0100000000000000000000000000000000000000000000000000000000600035046309128d8381146053578063a3f4df7e14606b575b600080fd5b60596071565b60408051918252519081900360200190f35b60596095565b7f506f6c696379466c6f7744656661756c7400000000000000000000000000000081565b7f466c6967687444656c6179526f6c6542617365644f7261636c650000000000008156fea165627a7a723058200f93e38e37be8860d281005c5d2b35ff4bf3d72a2e3f4536b6070356b5098b460029",
  "source": "pragma solidity 0.5.2;\n\ncontract FlightDelayRoleBasedOracle {\n    bytes32 public constant NAME = \"FlightDelayRoleBasedOracle\";\n    bytes32 public constant POLICY_FLOW = \"PolicyFlowDefault\";\n}\n",
  "sourcePath": "/Users/ka/Projects/Altoros/Etherisc/dip-platform/core/gif-contracts/contracts/examples/FlightDelayRoleBasedOracle/FlightDelayRoleBasedOracle.sol",
  "compiler": {
    "name": "solc",
    "version": "0.5.2+commit.1df8f40c.Emscripten.clang"
  },
  "schemaVersion": "3.0.2",
  "updatedAt": "2019-02-15T09:40:02.950Z",
  "devdoc": {
    "methods": {}
  },
  "userdoc": {
    "methods": {}
  }
}