{
  "contractName": "FlightDelayManual",
  "abi": [
    {
      "constant": true,
      "inputs": [
        {
          "name": "",
          "type": "address"
        }
      ],
      "name": "permissions",
      "outputs": [
        {
          "name": "",
          "type": "uint256"
        }
      ],
      "payable": false,
      "stateMutability": "view",
      "type": "function",
      "signature": "0x01e88208"
    },
    {
      "constant": true,
      "inputs": [],
      "name": "POLICY_FLOW",
      "outputs": [
        {
          "name": "",
          "type": "bytes32"
        }
      ],
      "payable": false,
      "stateMutability": "view",
      "type": "function",
      "signature": "0x09128d83"
    },
    {
      "constant": true,
      "inputs": [],
      "name": "maintenanceMode",
      "outputs": [
        {
          "name": "",
          "type": "bool"
        }
      ],
      "payable": false,
      "stateMutability": "view",
      "type": "function",
      "signature": "0x25dce0a6"
    },
    {
      "constant": true,
      "inputs": [
        {
          "name": "",
          "type": "uint256"
        }
      ],
      "name": "rolesKeys",
      "outputs": [
        {
          "name": "",
          "type": "bytes32"
        }
      ],
      "payable": false,
      "stateMutability": "view",
      "type": "function",
      "signature": "0x2cf88d9e"
    },
    {
      "constant": true,
      "inputs": [],
      "name": "MIN_OBSERVATIONS",
      "outputs": [
        {
          "name": "",
          "type": "uint256"
        }
      ],
      "payable": false,
      "stateMutability": "view",
      "type": "function",
      "signature": "0x39cee407"
    },
    {
      "constant": true,
      "inputs": [],
      "name": "MAX_PAYOUT",
      "outputs": [
        {
          "name": "",
          "type": "uint256"
        }
      ],
      "payable": false,
      "stateMutability": "view",
      "type": "function",
      "signature": "0x4b9ddafe"
    },
    {
      "constant": true,
      "inputs": [],
      "name": "MAX_PREMIUM",
      "outputs": [
        {
          "name": "",
          "type": "uint256"
        }
      ],
      "payable": false,
      "stateMutability": "view",
      "type": "function",
      "signature": "0x4cdabb16"
    },
    {
      "constant": true,
      "inputs": [
        {
          "name": "",
          "type": "uint256"
        }
      ],
      "name": "requests",
      "outputs": [
        {
          "name": "applicationId",
          "type": "uint256"
        },
        {
          "name": "policyId",
          "type": "uint256"
        },
        {
          "name": "riskId",
          "type": "bytes32"
        }
      ],
      "payable": false,
      "stateMutability": "view",
      "type": "function",
      "signature": "0x81d12c58"
    },
    {
      "constant": true,
      "inputs": [
        {
          "name": "",
          "type": "bytes32"
        }
      ],
      "name": "risks",
      "outputs": [
        {
          "name": "carrierFlightNumber",
          "type": "bytes32"
        },
        {
          "name": "departureYearMonthDay",
          "type": "bytes32"
        },
        {
          "name": "departureTime",
          "type": "uint256"
        },
        {
          "name": "arrivalTime",
          "type": "uint256"
        },
        {
          "name": "delayInMinutes",
          "type": "uint256"
        },
        {
          "name": "delay",
          "type": "uint8"
        },
        {
          "name": "cumulatedWeightedPremium",
          "type": "uint256"
        },
        {
          "name": "premiumMultiplier",
          "type": "uint256"
        },
        {
          "name": "weight",
          "type": "uint256"
        }
      ],
      "payable": false,
      "stateMutability": "view",
      "type": "function",
      "signature": "0x8993021b"
    },
    {
      "constant": true,
      "inputs": [
        {
          "name": "",
          "type": "bytes32"
        }
      ],
      "name": "roles",
      "outputs": [
        {
          "name": "",
          "type": "uint256"
        }
      ],
      "payable": false,
      "stateMutability": "view",
      "type": "function",
      "signature": "0x95356651"
    },
    {
      "constant": true,
      "inputs": [],
      "name": "MAX_FLIGHT_DURATION",
      "outputs": [
        {
          "name": "",
          "type": "uint256"
        }
      ],
      "payable": false,
      "stateMutability": "view",
      "type": "function",
      "signature": "0x972e22eb"
    },
    {
      "constant": true,
      "inputs": [],
      "name": "NAME",
      "outputs": [
        {
          "name": "",
          "type": "bytes32"
        }
      ],
      "payable": false,
      "stateMutability": "view",
      "type": "function",
      "signature": "0xa3f4df7e"
    },
    {
      "constant": true,
      "inputs": [
        {
          "name": "_address",
          "type": "address"
        },
        {
          "name": "_role",
          "type": "bytes32"
        }
      ],
      "name": "hasRole",
      "outputs": [
        {
          "name": "_hasRole",
          "type": "bool"
        }
      ],
      "payable": false,
      "stateMutability": "view",
      "type": "function",
      "signature": "0xac4ab3fb"
    },
    {
      "constant": true,
      "inputs": [],
      "name": "MIN_TIME_BEFORE_DEPARTURE",
      "outputs": [
        {
          "name": "",
          "type": "uint256"
        }
      ],
      "payable": false,
      "stateMutability": "view",
      "type": "function",
      "signature": "0xb7b357ac"
    },
    {
      "constant": true,
      "inputs": [],
      "name": "MIN_PREMIUM",
      "outputs": [
        {
          "name": "",
          "type": "uint256"
        }
      ],
      "payable": false,
      "stateMutability": "view",
      "type": "function",
      "signature": "0xbe5c8f44"
    },
    {
      "constant": false,
      "inputs": [
        {
          "name": "_address",
          "type": "address"
        },
        {
          "name": "_role",
          "type": "bytes32"
        }
      ],
      "name": "addRoleToAccount",
      "outputs": [],
      "payable": false,
      "stateMutability": "nonpayable",
      "type": "function",
      "signature": "0xc2e86735"
    },
    {
      "constant": true,
      "inputs": [],
      "name": "productService",
      "outputs": [
        {
          "name": "",
          "type": "address"
        }
      ],
      "payable": false,
      "stateMutability": "view",
      "type": "function",
      "signature": "0xc37d45bf"
    },
    {
      "constant": false,
      "inputs": [
        {
          "name": "_role",
          "type": "bytes32"
        }
      ],
      "name": "createRole",
      "outputs": [],
      "payable": false,
      "stateMutability": "nonpayable",
      "type": "function",
      "signature": "0xc42994a2"
    },
    {
      "constant": true,
      "inputs": [],
      "name": "developmentMode",
      "outputs": [
        {
          "name": "",
          "type": "bool"
        }
      ],
      "payable": false,
      "stateMutability": "view",
      "type": "function",
      "signature": "0xd6fcaf40"
    },
    {
      "constant": true,
      "inputs": [
        {
          "name": "",
          "type": "uint256"
        }
      ],
      "name": "weightPattern",
      "outputs": [
        {
          "name": "",
          "type": "uint8"
        }
      ],
      "payable": false,
      "stateMutability": "view",
      "type": "function",
      "signature": "0xe32bdf08"
    },
    {
      "constant": false,
      "inputs": [
        {
          "name": "_address",
          "type": "address"
        }
      ],
      "name": "cleanRolesForAccount",
      "outputs": [],
      "payable": false,
      "stateMutability": "nonpayable",
      "type": "function",
      "signature": "0xf566e10e"
    },
    {
      "constant": true,
      "inputs": [],
      "name": "CHECK_PAYOUT_OFFSET",
      "outputs": [
        {
          "name": "",
          "type": "uint256"
        }
      ],
      "payable": false,
      "stateMutability": "view",
      "type": "function",
      "signature": "0xf5fdfce9"
    },
    {
      "constant": true,
      "inputs": [
        {
          "name": "",
          "type": "uint256"
        }
      ],
      "name": "currencies",
      "outputs": [
        {
          "name": "",
          "type": "bytes32"
        }
      ],
      "payable": false,
      "stateMutability": "view",
      "type": "function",
      "signature": "0xf6d1c271"
    },
    {
      "inputs": [
        {
          "name": "_productController",
          "type": "address"
        }
      ],
      "payable": false,
      "stateMutability": "nonpayable",
      "type": "constructor",
      "signature": "constructor"
    },
    {
      "anonymous": false,
      "inputs": [
        {
          "indexed": false,
          "name": "requestId",
          "type": "uint256"
        },
        {
          "indexed": false,
          "name": "carrierFlightNumber",
          "type": "bytes32"
        },
        {
          "indexed": false,
          "name": "departureTime",
          "type": "uint256"
        },
        {
          "indexed": false,
          "name": "arrivalTime",
          "type": "uint256"
        }
      ],
      "name": "LogRequestFlightStatistics",
      "type": "event",
      "signature": "0xe857bff72dd2ed1b8242b825b28a9647d6c9128ca89f6e2f8261ed87ffecd914"
    },
    {
      "anonymous": false,
      "inputs": [
        {
          "indexed": false,
          "name": "requestId",
          "type": "uint256"
        },
        {
          "indexed": false,
          "name": "carrierFlightNumber",
          "type": "bytes32"
        },
        {
          "indexed": false,
          "name": "arrivalTime",
          "type": "uint256"
        }
      ],
      "name": "LogRequestFlightStatus",
      "type": "event",
      "signature": "0x9e0191c34cbc564aac9868f50a4cce5db2f167b44d26c02f50e12298b94407ef"
    },
    {
      "anonymous": false,
      "inputs": [
        {
          "indexed": false,
          "name": "claimId",
          "type": "uint256"
        },
        {
          "indexed": false,
          "name": "payoutId",
          "type": "uint256"
        },
        {
          "indexed": false,
          "name": "amount",
          "type": "uint256"
        }
      ],
      "name": "LogRequestPayout",
      "type": "event",
      "signature": "0x79dd0959b8266d381fe53d8d55bfc1b85a6c72f8e2f7739b7031fe7b2bce1a62"
    },
    {
      "constant": false,
      "inputs": [
        {
          "name": "_carrierFlightNumber",
          "type": "bytes32"
        },
        {
          "name": "_departureTime",
          "type": "uint256"
        },
        {
          "name": "_arrivalTime",
          "type": "uint256"
        },
        {
          "name": "_premium",
          "type": "uint256"
        },
        {
          "name": "_currency",
          "type": "bytes32"
        },
        {
          "name": "_payoutOptions",
          "type": "uint256[]"
        },
        {
          "name": "_customerExternalId",
          "type": "bytes32"
        }
      ],
      "name": "applyForPolicy",
      "outputs": [],
      "payable": false,
      "stateMutability": "nonpayable",
      "type": "function",
      "signature": "0xdd764024"
    },
    {
      "constant": false,
      "inputs": [
        {
          "name": "requestId",
          "type": "uint256"
        },
        {
          "name": "_statistics",
          "type": "uint256[6]"
        }
      ],
      "name": "flightStatisticsCallback",
      "outputs": [],
      "payable": false,
      "stateMutability": "nonpayable",
      "type": "function",
      "signature": "0xaaa07866"
    },
    {
      "constant": false,
      "inputs": [
        {
          "name": "requestId",
          "type": "uint256"
        },
        {
          "name": "_delay",
          "type": "uint256"
        },
        {
          "name": "_cancelled",
          "type": "bool"
        },
        {
          "name": "_diverted",
          "type": "bool"
        }
      ],
      "name": "flightStatusCallback",
      "outputs": [],
      "payable": false,
      "stateMutability": "nonpayable",
      "type": "function",
      "signature": "0x93b58e07"
    },
    {
      "constant": false,
      "inputs": [
        {
          "name": "_payoutId",
          "type": "uint256"
        },
        {
          "name": "_sum",
          "type": "uint256"
        }
      ],
      "name": "confirmPayout",
      "outputs": [],
      "payable": false,
      "stateMutability": "nonpayable",
      "type": "function",
      "signature": "0x7f66ae95"
    },
    {
      "constant": true,
      "inputs": [
        {
          "name": "_premium",
          "type": "uint256"
        },
        {
          "name": "_statistics",
          "type": "uint256[6]"
        }
      ],
      "name": "calculatePayouts",
      "outputs": [
        {
          "name": "_weight",
          "type": "uint256"
        },
        {
          "name": "_payoutOptions",
          "type": "uint256[5]"
        }
      ],
      "payable": false,
      "stateMutability": "view",
      "type": "function",
      "signature": "0xc9821073"
    }
  ],
  "bytecode": "0x60806040526000600360006101000a81548160ff0219169083151502179055506000600360016101000a81548160ff0219169083151502179055506020604051908101604052807f455552000000000000000000000000000000000000000000000000000000000081525060049060016200007c9291906200029b565b5060c060405190810160405280600060ff168152602001600060ff168152602001600060ff168152602001601e60ff168152602001603260ff168152602001603260ff168152506005906006620000d5929190620002e0565b50348015620000e357600080fd5b5060405160208062002656833981018060405260208110156200010557600080fd5b8101908080519060200190929190505050807f466c6967687444656c61794d616e75616c0000000000000000000000000000007f506f6c696379466c6f7744656661756c7400000000000000000000000000000082600360026101000a81548173ffffffffffffffffffffffffffffffffffffffff021916908373ffffffffffffffffffffffffffffffffffffffff160217905550620001b58282620001bf640100000000026401000000009004565b50505050620003dc565b600360029054906101000a900473ffffffffffffffffffffffffffffffffffffffff1673ffffffffffffffffffffffffffffffffffffffff16632f92673283836040518363ffffffff167c01000000000000000000000000000000000000000000000000000000000281526004018083815260200182815260200192505050602060405180830381600087803b1580156200025957600080fd5b505af11580156200026e573d6000803e3d6000fd5b505050506040513d60208110156200028557600080fd5b8101908080519060200190929190505050505050565b8260018101928215620002cd579160200282015b82811115620002cc578251825591602001919060010190620002af565b5b509050620002dc919062000381565b5090565b826006601f016020900481019282156200036e5791602002820160005b838211156200033d57835183826101000a81548160ff021916908360ff1602179055509260200192600101602081600001049283019260010302620002fd565b80156200036c5782816101000a81549060ff02191690556001016020816000010492830192600103026200033d565b505b5090506200037d9190620003a9565b5090565b620003a691905b80821115620003a257600081600090555060010162000388565b5090565b90565b620003d991905b80821115620003d557600081816101000a81549060ff021916905550600101620003b0565b5090565b90565b61226a80620003ec6000396000f3fe608060405234801561001057600080fd5b50600436106101e1576000357c010000000000000000000000000000000000000000000000000000000090048063aaa0786611610116578063c9821073116100b4578063e32bdf081161008e578063e32bdf0814610819578063f566e10e14610861578063f5fdfce9146108a5578063f6d1c271146108c3576101e1565b8063c982107314610690578063d6fcaf4014610742578063dd76402414610764576101e1565b8063be5c8f44116100f0578063be5c8f44146105ac578063c2e86735146105ca578063c37d45bf14610618578063c42994a214610662576101e1565b8063aaa07866146104f0578063ac4ab3fb14610528578063b7b357ac1461058e576101e1565b80637f66ae951161018357806393b58e071161015d57806393b58e07146104225780639535665114610472578063972e22eb146104b4578063a3f4df7e146104d2576101e1565b80637f66ae951461031a57806381d12c58146103525780638993021b146103a2576101e1565b80632cf88d9e116101bf5780632cf88d9e1461027e57806339cee407146102c05780634b9ddafe146102de5780634cdabb16146102fc576101e1565b806301e88208146101e657806309128d831461023e57806325dce0a61461025c575b600080fd5b610228600480360360208110156101fc57600080fd5b81019080803573ffffffffffffffffffffffffffffffffffffffff169060200190929190505050610905565b6040518082815260200191505060405180910390f35b61024661091d565b6040518082815260200191505060405180910390f35b610264610941565b604051808215151515815260200191505060405180910390f35b6102aa6004803603602081101561029457600080fd5b8101908080359060200190929190505050610954565b6040518082815260200191505060405180910390f35b6102c8610977565b6040518082815260200191505060405180910390f35b6102e661097c565b6040518082815260200191505060405180910390f35b610304610982565b6040518082815260200191505060405180910390f35b6103506004803603604081101561033057600080fd5b810190808035906020019092919080359060200190929190505050610988565b005b61037e6004803603602081101561036857600080fd5b8101908080359060200190929190505050610997565b60405180848152602001838152602001828152602001935050505060405180910390f35b6103ce600480360360208110156103b857600080fd5b81019080803590602001909291905050506109d0565b604051808a81526020018981526020018881526020018781526020018681526020018560ff1660ff168152602001848152602001838152602001828152602001995050505050505050505060405180910390f35b6104706004803603608081101561043857600080fd5b810190808035906020019092919080359060200190929190803515159060200190929190803515159060200190929190505050610a2b565b005b61049e6004803603602081101561048857600080fd5b8101908080359060200190929190505050610bd5565b6040518082815260200191505060405180910390f35b6104bc610bed565b6040518082815260200191505060405180910390f35b6104da610bf4565b6040518082815260200191505060405180910390f35b610526600480360360e081101561050657600080fd5b81019080803590602001909291908060c001909192919290505050610c18565b005b6105746004803603604081101561053e57600080fd5b81019080803573ffffffffffffffffffffffffffffffffffffffff16906020019092919080359060200190929190505050610f88565b604051808215151515815260200191505060405180910390f35b610596610fe8565b6040518082815260200191505060405180910390f35b6105b4610fef565b6040518082815260200191505060405180910390f35b610616600480360360408110156105e057600080fd5b81019080803573ffffffffffffffffffffffffffffffffffffffff16906020019092919080359060200190929190505050610ff5565b005b6106206110b2565b604051808273ffffffffffffffffffffffffffffffffffffffff1673ffffffffffffffffffffffffffffffffffffffff16815260200191505060405180910390f35b61068e6004803603602081101561067857600080fd5b81019080803590602001909291905050506110d8565b005b6106fd600480360360e08110156106a657600080fd5b81019080803590602001909291908060c001906006806020026040519081016040528092919082600660200280828437600081840152601f19601f820116905080830192505050505050919291929050505061114b565b6040518083815260200182600560200280838360005b8381101561072e578082015181840152602081019050610713565b505050509050019250505060405180910390f35b61074a611430565b604051808215151515815260200191505060405180910390f35b610817600480360360e081101561077a57600080fd5b810190808035906020019092919080359060200190929190803590602001909291908035906020019092919080359060200190929190803590602001906401000000008111156107c957600080fd5b8201836020820111156107db57600080fd5b803590602001918460208302840111640100000000831117156107fd57600080fd5b909192939192939080359060200190929190505050611443565b005b6108456004803603602081101561082f57600080fd5b81019080803590602001909291905050506118ec565b604051808260ff1660ff16815260200191505060405180910390f35b6108a36004803603602081101561087757600080fd5b81019080803573ffffffffffffffffffffffffffffffffffffffff169060200190929190505050611915565b005b6108ad61195b565b6040518082815260200191505060405180910390f35b6108ef600480360360208110156108d957600080fd5b8101908080359060200190929190505050611961565b6040518082815260200191505060405180910390f35b60026020528060005260406000206000915090505481565b7f506f6c696379466c6f7744656661756c7400000000000000000000000000000081565b600360019054906101000a900460ff1681565b60018181548110151561096357fe5b906000526020600020016000915090505481565b600a81565b61753081565b61714881565b610992828261197b565b505050565b6007818154811015156109a657fe5b90600052602060002090600302016000915090508060000154908060010154908060020154905083565b60066020528060005260406000206000915090508060000154908060010154908060020154908060030154908060040154908060050160009054906101000a900460ff16908060060154908060070154908060080154905089565b6000600785815481101515610a3c57fe5b90600052602060002090600302016001015490506000600786815481101515610a6157fe5b90600052602060002090600302016001015490506060610a8082611a59565b90506000600115158615151415610ab157816003815181101515610aa057fe5b906020019060200201519050610bcb565b600115158515151415610ade57816004815181101515610acd57fe5b906020019060200201519050610bca565b601e871115610bbf57602d871115610b1057816001815181101515610aff57fe5b906020019060200201519050610b56565b603c871115610b3957816002815181101515610b2857fe5b906020019060200201519050610b55565b816000815181101515610b4857fe5b9060200190602002015190505b5b6000610b6185611b84565b90506000610b6f8284611c59565b90507f79dd0959b8266d381fe53d8d55bfc1b85a6c72f8e2f7739b7031fe7b2bce1a6282828560405180848152602001838152602001828152602001935050505060405180910390a15050610bc9565b610bc884611d37565b5b5b5b5050505050505050565b60006020528060005260406000206000915090505481565b6202a30081565b7f466c6967687444656c61794d616e75616c00000000000000000000000000000081565b6000600783815481101515610c2957fe5b9060005260206000209060030201600001549050600a826000600681101515610c4e57fe5b6020020135111515610c6957610c6381611de3565b50610f84565b6000610c7482611e8f565b90506060610c8183611a59565b90506000610c8d61216a565b610cce84876006806020026040519081016040528092919082600660200280828437600081840152601f19601f82011690508083019250505050505061114b565b9150915060058351141515610d2e576040517f08c379a000000000000000000000000000000000000000000000000000000000815260040180806020018281038252602381526020018061221c6023913960400191505060405180910390fd5b60008090505b6005811015610e0f578181600581101515610d4b57fe5b60200201518482815181101515610d5e57fe5b90602001906020020151141515610ddd576040517f08c379a000000000000000000000000000000000000000000000000000000000815260040180806020018281038252601c8152602001807f4552524f523a3a494e56414c49445f5041594f55545f4f5054494f4e0000000081525060200191505060405180910390fd5b6175308482815181101515610dee57fe5b9060200190602002015111151515610e0257fe5b8080600101915050610d34565b506000600788815481101515610e2157fe5b9060005260206000209060030201600201549050600060066000838152602001908152602001600020600701541415610e9d576127108502600660008381526020019081526020016000206006018190555082620186a0811515610e8157fe5b0460066000838152602001908152602001600020600701819055505b8260066000838152602001908152602001600020600801819055506000610ec387611f64565b9050600060078054809190600101610edb919061218d565b90506000600782815481101515610eee57fe5b906000526020600020906003020190508281600101819055507f9e0191c34cbc564aac9868f50a4cce5db2f167b44d26c02f50e12298b94407ef826006600087815260200190815260200160002060000154600660008881526020019081526020016000206003015460405180848152602001838152602001828152602001935050505060405180910390a15050505050505050505b5050565b60008060008084815260200190815260200160002054600260008673ffffffffffffffffffffffffffffffffffffffff1673ffffffffffffffffffffffffffffffffffffffff168152602001908152602001600020541611905092915050565b6201518081565b6105dc81565b6000806000838152602001908152602001600020541415151561101757600080fd5b60008082815260200190815260200160002054600260008473ffffffffffffffffffffffffffffffffffffffff1673ffffffffffffffffffffffffffffffffffffffff1681526020019081526020016000205417600260008473ffffffffffffffffffffffffffffffffffffffff1673ffffffffffffffffffffffffffffffffffffffff168152602001908152602001600020819055505050565b600360029054906101000a900473ffffffffffffffffffffffffffffffffffffffff1681565b6000806000838152602001908152602001600020541415156110f957600080fd5b60018054905060019060020a0260008083815260200190815260200160002081905550600181908060018154018082558091505090600182039060005260206000200160009091929091909150555050565b600061115561216a565b6105dc84101515156111cf576040517f08c379a00000000000000000000000000000000000000000000000000000000081526004018080602001828103825260168152602001807f4552524f523a3a494e56414c49445f5052454d49554d0000000000000000000081525060200191505060405180910390fd5b6171488411151515611249576040517f08c379a00000000000000000000000000000000000000000000000000000000081526004018080602001828103825260168152602001807f4552524f523a3a494e56414c49445f5052454d49554d0000000000000000000081525060200191505060405180910390fd5b600a83600060068110151561125a57fe5b60200201511115156112d4576040517f08c379a00000000000000000000000000000000000000000000000000000000081526004018080602001828103825260178152602001807f4552524f523a3a4c4f575f4f42534552564154494f4e5300000000000000000081525060200191505060405180910390fd5b6000600190505b6006811015611353578360006006811015156112f357fe5b6020020151612710858360068110151561130957fe5b602002015160058460068110151561131d57fe5b602091828204019190069054906101000a900460ff1660ff16020281151561134157fe5b048301925080806001019150506112db565b5060008214156113825782600060068110151561136c57fe5b6020020151620186a081151561137e57fe5b0491505b60008090505b600581101561142857826127106005600184016006811015156113a757fe5b602091828204019190069054906101000a900460ff1660ff168702028115156113cc57fe5b0482826005811015156113db57fe5b60200201818152505061753082826005811015156113f557fe5b6020020151111561141b57617530828260058110151561141157fe5b6020020181815250505b8080600101915050611388565b509250929050565b600360009054906101000a900460ff1681565b6105dc85101515156114bd576040517f08c379a00000000000000000000000000000000000000000000000000000000081526004018080602001828103825260168152602001807f4552524f523a3a494e56414c49445f5052454d49554d0000000000000000000081525060200191505060405180910390fd5b6171488511151515611537576040517f08c379a00000000000000000000000000000000000000000000000000000000081526004018080602001828103825260168152602001807f4552524f523a3a494e56414c49445f5052454d49554d0000000000000000000081525060200191505060405180910390fd5b6004600060018110151561154757fe5b0154841415156115bf576040517f08c379a00000000000000000000000000000000000000000000000000000000081526004018080602001828103825260168152602001807f4552524f523a494e56414c49445f43555252454e43590000000000000000000081525060200191505060405180910390fd5b8687101515611619576040517f08c379a00000000000000000000000000000000000000000000000000000000081526004018080602001828103825260258152602001806121f76025913960400191505060405180910390fd5b6202a300870187111515611678576040517f08c379a00000000000000000000000000000000000000000000000000000000081526004018080602001828103825260258152602001806121f76025913960400191505060405180910390fd5b620151804201871015156116d7576040517f08c379a00000000000000000000000000000000000000000000000000000000081526004018080602001828103825260258152602001806121f76025913960400191505060405180910390fd5b60008888886040516020018084815260200183815260200182815260200193505050506040516020818303038152906040528051906020012090506000600660008381526020019081526020016000209050600081600001541415611752578981600001819055508881600201819055508781600301819055505b625b8d80816006015482600701548902011015156117d8576040517f08c379a00000000000000000000000000000000000000000000000000000000081526004018080602001828103825260138152602001807f4552524f523a3a434c55535445525f5249534b0000000000000000000000000081525060200191505060405180910390fd5b6000816006015414156117f257625b8d8081600601819055505b6000611841848989898980806020026020016040519081016040528093929190818152602001838360200280828437600081840152601f19601f82011690508083019250505050505050612039565b9050600060078054809190600101611859919061218d565b9050600060078281548110151561186c57fe5b906000526020600020906003020190508281600001819055508481600201819055507fe857bff72dd2ed1b8242b825b28a9647d6c9128ca89f6e2f8261ed87ffecd914828e8e8e6040518085815260200184815260200183815260200182815260200194505050505060405180910390a150505050505050505050505050565b6005816006811015156118fb57fe5b60209182820401919006915054906101000a900460ff1681565b600260008273ffffffffffffffffffffffffffffffffffffffff1673ffffffffffffffffffffffffffffffffffffffff1681526020019081526020016000206000905550565b61038481565b60048160018110151561197057fe5b016000915090505481565b6000600360029054906101000a900473ffffffffffffffffffffffffffffffffffffffff1673ffffffffffffffffffffffffffffffffffffffff16635aa6cf9784846040518363ffffffff167c01000000000000000000000000000000000000000000000000000000000281526004018083815260200182815260200192505050602060405180830381600087803b158015611a1657600080fd5b505af1158015611a2a573d6000803e3d6000fd5b505050506040513d6020811015611a4057600080fd5b8101908080519060200190929190505050905092915050565b6060600360029054906101000a900473ffffffffffffffffffffffffffffffffffffffff1673ffffffffffffffffffffffffffffffffffffffff1663450d512e836040518263ffffffff167c010000000000000000000000000000000000000000000000000000000002815260040180828152602001915050600060405180830381600087803b158015611aec57600080fd5b505af1158015611b00573d6000803e3d6000fd5b505050506040513d6000823e3d601f19601f820116820180604052506020811015611b2a57600080fd5b810190808051640100000000811115611b4257600080fd5b82810190506020810184811115611b5857600080fd5b8151856020820283011164010000000082111715611b7557600080fd5b50509291905050509050919050565b6000600360029054906101000a900473ffffffffffffffffffffffffffffffffffffffff1673ffffffffffffffffffffffffffffffffffffffff166354f3a32c836040518263ffffffff167c010000000000000000000000000000000000000000000000000000000002815260040180828152602001915050602060405180830381600087803b158015611c1757600080fd5b505af1158015611c2b573d6000803e3d6000fd5b505050506040513d6020811015611c4157600080fd5b81019080805190602001909291905050509050919050565b6000600360029054906101000a900473ffffffffffffffffffffffffffffffffffffffff1673ffffffffffffffffffffffffffffffffffffffff16636afa434084846040518363ffffffff167c01000000000000000000000000000000000000000000000000000000000281526004018083815260200182815260200192505050602060405180830381600087803b158015611cf457600080fd5b505af1158015611d08573d6000803e3d6000fd5b505050506040513d6020811015611d1e57600080fd5b8101908080519060200190929190505050905092915050565b600360029054906101000a900473ffffffffffffffffffffffffffffffffffffffff1673ffffffffffffffffffffffffffffffffffffffff1663bf81bf43826040518263ffffffff167c010000000000000000000000000000000000000000000000000000000002815260040180828152602001915050600060405180830381600087803b158015611dc857600080fd5b505af1158015611ddc573d6000803e3d6000fd5b5050505050565b600360029054906101000a900473ffffffffffffffffffffffffffffffffffffffff1673ffffffffffffffffffffffffffffffffffffffff1663a0355f4e826040518263ffffffff167c010000000000000000000000000000000000000000000000000000000002815260040180828152602001915050600060405180830381600087803b158015611e7457600080fd5b505af1158015611e88573d6000803e3d6000fd5b5050505050565b6000600360029054906101000a900473ffffffffffffffffffffffffffffffffffffffff1673ffffffffffffffffffffffffffffffffffffffff16631bf1fffb836040518263ffffffff167c010000000000000000000000000000000000000000000000000000000002815260040180828152602001915050602060405180830381600087803b158015611f2257600080fd5b505af1158015611f36573d6000803e3d6000fd5b505050506040513d6020811015611f4c57600080fd5b81019080805190602001909291905050509050919050565b6000600360029054906101000a900473ffffffffffffffffffffffffffffffffffffffff1673ffffffffffffffffffffffffffffffffffffffff16636be60f8b836040518263ffffffff167c010000000000000000000000000000000000000000000000000000000002815260040180828152602001915050602060405180830381600087803b158015611ff757600080fd5b505af115801561200b573d6000803e3d6000fd5b505050506040513d602081101561202157600080fd5b81019080805190602001909291905050509050919050565b6000600360029054906101000a900473ffffffffffffffffffffffffffffffffffffffff1673ffffffffffffffffffffffffffffffffffffffff1663dc3addf0868686866040518563ffffffff167c01000000000000000000000000000000000000000000000000000000000281526004018085815260200184815260200183815260200180602001828103825283818151815260200191508051906020019060200280838360005b838110156120fd5780820151818401526020810190506120e2565b5050505090500195505050505050602060405180830381600087803b15801561212557600080fd5b505af1158015612139573d6000803e3d6000fd5b505050506040513d602081101561214f57600080fd5b81019080805190602001909291905050509050949350505050565b60a060405190810160405280600590602082028038833980820191505090505090565b8154818355818111156121ba576003028160030283600052602060002091820191016121b991906121bf565b5b505050565b6121f391905b808211156121ef5760008082016000905560018201600090556002820160009055506003016121c5565b5090565b9056fe4552524f523a3a494e56414c49445f4152524956414c2f4445504152545552455f54494d454552524f523a3a494e56414c49445f5041594f55545f4f5054494f4e535f434f554e54a165627a7a72305820dafb27c3963c0ce5b242295208e8d10d5c0b9cf779cb878d3b2147357af175480029",
  "source": "pragma solidity 0.5.2;\n\nimport \"../../Product.sol\";\n\ncontract FlightDelayManual is Product {\n    event LogRequestFlightStatistics(\n        uint256 requestId,\n        bytes32 carrierFlightNumber,\n        uint256 departureTime,\n        uint256 arrivalTime\n    );\n\n    event LogRequestFlightStatus(\n        uint256 requestId,\n        bytes32 carrierFlightNumber,\n        uint256 arrivalTime\n    );\n\n    event LogRequestPayout(uint256 claimId, uint256 payoutId, uint256 amount);\n\n    bytes32 public constant NAME = \"FlightDelayManual\";\n    bytes32 public constant POLICY_FLOW = \"PolicyFlowDefault\";\n\n    // Minimum observations for valid prediction\n    uint256 public constant MIN_OBSERVATIONS = 10;\n    // Minimum time before departure for applying\n    uint256 public constant MIN_TIME_BEFORE_DEPARTURE = 24 hours;\n    // Maximum duration of flight\n    uint256 public constant MAX_FLIGHT_DURATION = 2 days;\n    // Check for delay after .. minutes after scheduled arrival\n    uint256 public constant CHECK_PAYOUT_OFFSET = 15 minutes;\n\n    // All amounts expected to be provided in a currencys smallest unit\n    // E.g. 10 EUR = 1000 (1000 cents)\n    uint256 public constant MIN_PREMIUM = 1500;\n    uint256 public constant MAX_PREMIUM = 29000;\n    uint256 public constant MAX_PAYOUT = 30000;\n\n    bytes32[1] public currencies = [bytes32(\"EUR\")];\n\n    // ['observations','late15','late30','late45','cancelled','diverted']\n    uint8[6] public weightPattern = [0, 0, 0, 30, 50, 50];\n\n    // Maximum cumulated weighted premium per risk\n    uint256 constant MAX_CUMULATED_WEIGHTED_PREMIUM = 6000000;\n\n    struct Risk {\n        bytes32 carrierFlightNumber;\n        bytes32 departureYearMonthDay;\n        uint256 departureTime;\n        uint256 arrivalTime;\n        uint delayInMinutes;\n        uint8 delay;\n        uint256 cumulatedWeightedPremium;\n        uint256 premiumMultiplier;\n        uint256 weight;\n    }\n\n    struct RequestMetadata {\n        uint256 applicationId;\n        uint256 policyId;\n        bytes32 riskId;\n    }\n\n    mapping(bytes32 => Risk) public risks;\n\n    RequestMetadata[] public requests;\n\n    constructor(address _productController)\n        public\n        Product(_productController, NAME, POLICY_FLOW)\n    {}\n\n    function applyForPolicy(\n        // domain specific\n        bytes32 _carrierFlightNumber,\n        uint256 _departureTime,\n        uint256 _arrivalTime,\n        // premium\n        uint256 _premium,\n        bytes32 _currency,\n        uint256[] calldata _payoutOptions,\n        // customer\n        bytes32 _customerExternalId\n    ) external {\n        // Validate input parameters\n        // Validate input parameters\n        require(_premium >= MIN_PREMIUM, \"ERROR::INVALID_PREMIUM\");\n        require(_premium <= MAX_PREMIUM, \"ERROR::INVALID_PREMIUM\");\n        require(_currency == currencies[0], \"ERROR:INVALID_CURRENCY\");\n        require(\n            _departureTime < _departureTime,\n            \"ERROR::INVALID_ARRIVAL/DEPARTURE_TIME\"\n        );\n        require(\n            _departureTime > _departureTime + MAX_FLIGHT_DURATION,\n            \"ERROR::INVALID_ARRIVAL/DEPARTURE_TIME\"\n        );\n        require(\n            _departureTime < block.timestamp + MIN_TIME_BEFORE_DEPARTURE,\n            \"ERROR::INVALID_ARRIVAL/DEPARTURE_TIME\"\n        );\n\n        // Create risk if not exists\n        bytes32 riskId = keccak256(\n            abi.encodePacked(_carrierFlightNumber, _departureTime, _arrivalTime)\n        );\n        Risk storage risk = risks[riskId];\n\n        if (risk.carrierFlightNumber == \"\") {\n            risk.carrierFlightNumber = _carrierFlightNumber;\n            risk.departureTime = _departureTime;\n            risk.arrivalTime = _arrivalTime;\n        }\n\n        require(\n            _premium * risk.premiumMultiplier + risk.cumulatedWeightedPremium < MAX_CUMULATED_WEIGHTED_PREMIUM,\n            \"ERROR::CLUSTER_RISK\"\n        );\n\n        if (risk.cumulatedWeightedPremium == 0) {\n            risk.cumulatedWeightedPremium = MAX_CUMULATED_WEIGHTED_PREMIUM;\n        }\n\n        // Create new application\n        uint256 applicationId = newApplication(\n            _customerExternalId,\n            _premium,\n            _currency,\n            _payoutOptions\n        );\n\n        // New request\n        uint256 requestId = requests.length++;\n        RequestMetadata storage requestMetadata = requests[requestId];\n        requestMetadata.applicationId = applicationId;\n        requestMetadata.riskId = riskId;\n\n        emit LogRequestFlightStatistics(\n            requestId,\n            _carrierFlightNumber,\n            _departureTime,\n            _arrivalTime\n        );\n    }\n\n    function flightStatisticsCallback(\n        uint256 requestId,\n        uint256[6] calldata _statistics\n    ) external {\n        // Statistics: ['observations','late15','late30','late45','cancelled','diverted']\n\n        uint256 applicationId = requests[requestId].applicationId;\n\n        if (_statistics[0] <= MIN_OBSERVATIONS) {\n            decline(applicationId);\n            return;\n        }\n\n        uint256 premium = getPremium(applicationId);\n        uint256[] memory payoutOptions = getPayoutOptions(applicationId);\n        (uint256 weight, uint256[5] memory calculatedPayouts) = calculatePayouts(\n            premium,\n            _statistics\n        );\n\n        require(\n            payoutOptions.length == calculatedPayouts.length,\n            \"ERROR::INVALID_PAYOUT_OPTIONS_COUNT\"\n        );\n\n        for (uint256 i = 0; i < 5; i++) {\n            require(\n                payoutOptions[i] == calculatedPayouts[i],\n                \"ERROR::INVALID_PAYOUT_OPTION\"\n            );\n            assert(payoutOptions[i] <= MAX_PAYOUT);\n        }\n\n        bytes32 riskId = requests[requestId].riskId;\n\n        if (risks[riskId].premiumMultiplier == 0) {\n            // it's the first policy for this risk, we accept any premium\n            risks[riskId].cumulatedWeightedPremium = premium * 10000;\n            risks[riskId].premiumMultiplier = 100000 / weight;\n        }\n\n        risks[riskId].weight = weight;\n\n        uint256 policyId = underwrite(applicationId);\n\n        // New request\n        uint256 newRequestId = requests.length++;\n        RequestMetadata storage requestMetadata = requests[newRequestId];\n        requestMetadata.policyId = policyId;\n\n        emit LogRequestFlightStatus(\n            newRequestId,\n            risks[riskId].carrierFlightNumber,\n            risks[riskId].arrivalTime\n        );\n    }\n\n    function flightStatusCallback(\n        uint256 requestId,\n        uint256 _delay,\n        bool _cancelled,\n        bool _diverted\n    ) external {\n        uint256 policyId = requests[requestId].policyId;\n        uint256 applicationId = requests[requestId].policyId;\n        uint256[] memory payoutOptions = getPayoutOptions(applicationId);\n\n        uint256 payoutAmount;\n\n        if (_cancelled == true) {\n            payoutAmount = payoutOptions[3];\n        } else if (_diverted == true) {\n            payoutAmount = payoutOptions[4];\n        } else if (_delay > 30) {\n            if (_delay > 45) {\n                payoutAmount = payoutOptions[1];\n            } else if (_delay > 60) {\n                payoutAmount = payoutOptions[2];\n            } else {\n                payoutAmount = payoutOptions[0];\n            }\n\n            uint256 claimId = newClaim(policyId);\n            uint256 payoutId = confirmClaim(claimId, payoutAmount);\n\n            emit LogRequestPayout(claimId, payoutId, payoutAmount);\n        } else {\n            expire(policyId);\n        }\n    }\n\n    function confirmPayout(uint256 _payoutId, uint256 _sum) external {\n        payout(_payoutId, _sum);\n    }\n\n    function calculatePayouts(uint256 _premium, uint256[6] memory _statistics)\n        public\n        view\n        returns (uint256 _weight, uint256[5] memory _payoutOptions)\n    {\n        require(_premium >= MIN_PREMIUM, \"ERROR::INVALID_PREMIUM\");\n        require(_premium <= MAX_PREMIUM, \"ERROR::INVALID_PREMIUM\");\n        require(_statistics[0] > MIN_OBSERVATIONS, \"ERROR::LOW_OBSERVATIONS\");\n\n        for (uint256 i = 1; i < 6; i++) {\n            _weight += weightPattern[i] * _statistics[i] * 10000 / _statistics[0];\n            // 1% = 100 / 100% = 10,000\n        }\n\n        // To avoid div0 in the payout section, we have to make a minimal assumption on weight\n        if (_weight == 0) {\n            _weight = 100000 / _statistics[0];\n        }\n\n        for (uint256 i = 0; i < 5; i++) {\n            _payoutOptions[i] = _premium * weightPattern[i + 1] * 10000 / _weight;\n\n            if (_payoutOptions[i] > MAX_PAYOUT) {\n                _payoutOptions[i] = MAX_PAYOUT;\n            }\n        }\n    }\n}\n",
  "sourcePath": "/Users/ka/Projects/Altoros/Etherisc/dip-platform/core/gif-contracts/contracts/examples/FlightDelayManual/FlightDelayManual.sol",
  "compiler": {
    "name": "solc",
    "version": "0.5.2+commit.1df8f40c.Emscripten.clang"
  },
  "schemaVersion": "3.0.1",
  "updatedAt": "2019-02-07T14:12:30.814Z",
  "devdoc": {
    "methods": {}
  },
  "userdoc": {
    "methods": {}
  }
}