{
  "contractName": "FlightStatusesOracle",
  "abi": [
    {
      "constant": true,
      "inputs": [
        {
          "name": "",
          "type": "address"
        }
      ],
      "name": "permissions",
      "outputs": [
        {
          "name": "",
          "type": "uint256"
        }
      ],
      "payable": false,
      "stateMutability": "view",
      "type": "function",
      "signature": "0x01e88208"
    },
    {
      "constant": true,
      "inputs": [
        {
          "name": "",
          "type": "uint256"
        }
      ],
      "name": "rolesKeys",
      "outputs": [
        {
          "name": "",
          "type": "bytes32"
        }
      ],
      "payable": false,
      "stateMutability": "view",
      "type": "function",
      "signature": "0x2cf88d9e"
    },
    {
      "constant": true,
      "inputs": [],
      "name": "oraclizeGas",
      "outputs": [
        {
          "name": "",
          "type": "uint256"
        }
      ],
      "payable": false,
      "stateMutability": "view",
      "type": "function",
      "signature": "0x3e9836c6"
    },
    {
      "constant": true,
      "inputs": [
        {
          "name": "",
          "type": "bytes32"
        }
      ],
      "name": "roles",
      "outputs": [
        {
          "name": "",
          "type": "uint256"
        }
      ],
      "payable": false,
      "stateMutability": "view",
      "type": "function",
      "signature": "0x95356651"
    },
    {
      "constant": true,
      "inputs": [
        {
          "name": "",
          "type": "bytes32"
        }
      ],
      "name": "requests",
      "outputs": [
        {
          "name": "",
          "type": "uint256"
        }
      ],
      "payable": false,
      "stateMutability": "view",
      "type": "function",
      "signature": "0x9d866985"
    },
    {
      "constant": true,
      "inputs": [
        {
          "name": "_address",
          "type": "address"
        },
        {
          "name": "_role",
          "type": "bytes32"
        }
      ],
      "name": "hasRole",
      "outputs": [
        {
          "name": "_hasRole",
          "type": "bool"
        }
      ],
      "payable": false,
      "stateMutability": "view",
      "type": "function",
      "signature": "0xac4ab3fb"
    },
    {
      "constant": false,
      "inputs": [
        {
          "name": "_address",
          "type": "address"
        },
        {
          "name": "_role",
          "type": "bytes32"
        }
      ],
      "name": "addRoleToAccount",
      "outputs": [],
      "payable": false,
      "stateMutability": "nonpayable",
      "type": "function",
      "signature": "0xc2e86735"
    },
    {
      "constant": false,
      "inputs": [
        {
          "name": "_role",
          "type": "bytes32"
        }
      ],
      "name": "createRole",
      "outputs": [],
      "payable": false,
      "stateMutability": "nonpayable",
      "type": "function",
      "signature": "0xc42994a2"
    },
    {
      "constant": true,
      "inputs": [],
      "name": "testMode",
      "outputs": [
        {
          "name": "",
          "type": "bool"
        }
      ],
      "payable": false,
      "stateMutability": "view",
      "type": "function",
      "signature": "0xcd9ea342"
    },
    {
      "constant": true,
      "inputs": [],
      "name": "oracleService",
      "outputs": [
        {
          "name": "",
          "type": "address"
        }
      ],
      "payable": false,
      "stateMutability": "view",
      "type": "function",
      "signature": "0xdaa64f95"
    },
    {
      "constant": false,
      "inputs": [
        {
          "name": "_address",
          "type": "address"
        }
      ],
      "name": "cleanRolesForAccount",
      "outputs": [],
      "payable": false,
      "stateMutability": "nonpayable",
      "type": "function",
      "signature": "0xf566e10e"
    },
    {
      "inputs": [
        {
          "name": "_oracleController",
          "type": "address"
        },
        {
          "name": "_encryptedQuery",
          "type": "string"
        }
      ],
      "payable": true,
      "stateMutability": "payable",
      "type": "constructor",
      "signature": "constructor"
    },
    {
      "anonymous": false,
      "inputs": [
        {
          "indexed": false,
          "name": "requestId",
          "type": "uint256"
        },
        {
          "indexed": false,
          "name": "queryId",
          "type": "bytes32"
        },
        {
          "indexed": false,
          "name": "time",
          "type": "uint256"
        },
        {
          "indexed": false,
          "name": "url",
          "type": "string"
        }
      ],
      "name": "OraclizeRequested",
      "type": "event",
      "signature": "0xcb3c531d1c570fbf13699173d47878820fd8b7f80fbbfd85b88f453695b24c72"
    },
    {
      "anonymous": false,
      "inputs": [
        {
          "indexed": false,
          "name": "requestId",
          "type": "uint256"
        },
        {
          "indexed": false,
          "name": "queryId",
          "type": "bytes32"
        },
        {
          "indexed": false,
          "name": "result",
          "type": "string"
        },
        {
          "indexed": false,
          "name": "proof",
          "type": "bytes"
        }
      ],
      "name": "OraclizeResponded",
      "type": "event",
      "signature": "0x583eba0eebad615e8dfe2e00bcd166c66097833240dc12faf1a1e1eabb6437f1"
    },
    {
      "constant": false,
      "inputs": [
        {
          "name": "_testMode",
          "type": "bool"
        }
      ],
      "name": "setTestMode",
      "outputs": [],
      "payable": false,
      "stateMutability": "nonpayable",
      "type": "function",
      "signature": "0x1ff1292f"
    },
    {
      "constant": false,
      "inputs": [
        {
          "name": "_oraclizeGas",
          "type": "uint256"
        }
      ],
      "name": "setOraclizeGas",
      "outputs": [],
      "payable": false,
      "stateMutability": "nonpayable",
      "type": "function",
      "signature": "0xfbf44a1b"
    },
    {
      "constant": false,
      "inputs": [
        {
          "name": "_requestId",
          "type": "uint256"
        },
        {
          "name": "_input",
          "type": "bytes"
        }
      ],
      "name": "request",
      "outputs": [],
      "payable": false,
      "stateMutability": "nonpayable",
      "type": "function",
      "signature": "0xffc79065"
    },
    {
      "constant": false,
      "inputs": [
        {
          "name": "_myid",
          "type": "bytes32"
        },
        {
          "name": "_result",
          "type": "string"
        }
      ],
      "name": "__callback",
      "outputs": [],
      "payable": false,
      "stateMutability": "nonpayable",
      "type": "function",
      "signature": "0x27dc297e"
    },
    {
      "constant": false,
      "inputs": [
        {
          "name": "_queryId",
          "type": "bytes32"
        },
        {
          "name": "_result",
          "type": "string"
        },
        {
          "name": "_proof",
          "type": "bytes"
        }
      ],
      "name": "__callback",
      "outputs": [],
      "payable": false,
      "stateMutability": "nonpayable",
      "type": "function",
      "signature": "0x38bbfa50"
    },
    {
      "constant": true,
      "inputs": [
        {
          "name": "_carrierFlightNumber",
          "type": "bytes32"
        },
        {
          "name": "_departureYearMonthDay",
          "type": "bytes32"
        }
      ],
      "name": "getOraclizeUrl",
      "outputs": [
        {
          "name": "_oraclizeUrl",
          "type": "string"
        }
      ],
      "payable": false,
      "stateMutability": "view",
      "type": "function",
      "signature": "0x6614517d"
    }
  ],
  "bytecode": "0x608060408190526009805460ff191690556216e360600b55620028bc38819003908190833981018060405260408110156200003957600080fd5b8151602083018051919392830192916401000000008111156200005b57600080fd5b820160208101848111156200006f57600080fd5b81516401000000008111828201871017156200008a57600080fd5b505060038054600160a060020a031916600160a060020a0387161790558051909350620000c19250600a91506020840190620000ca565b5050506200016f565b828054600181600116156101000203166002900490600052602060002090601f016020900481019282601f106200010d57805160ff19168380011785556200013d565b828001600101855582156200013d579182015b828111156200013d57825182559160200191906001019062000120565b506200014b9291506200014f565b5090565b6200016c91905b808211156200014b576000815560010162000156565b90565b61273d806200017f6000396000f3fe608060405234801561001057600080fd5b506004361061010f5760003560e060020a900480639d866985116100a6578063cd9ea34211610075578063cd9ea342146104ce578063daa64f95146104d6578063f566e10e146104fa578063fbf44a1b14610520578063ffc790651461053d5761010f565b80639d86698514610428578063ac4ab3fb14610445578063c2e8673514610485578063c42994a2146104b15761010f565b806338bbfa50116100e257806338bbfa50146102375780633e9836c61461036b5780636614517d14610373578063953566511461040b5761010f565b806301e88208146101145780631ff1292f1461014c57806327dc297e1461016d5780632cf88d9e1461021a575b600080fd5b61013a6004803603602081101561012a57600080fd5b5035600160a060020a03166105b4565b60408051918252519081900360200190f35b61016b6004803603602081101561016257600080fd5b503515156105c6565b005b61016b6004803603604081101561018357600080fd5b813591908101906040810160208201356401000000008111156101a557600080fd5b8201836020820111156101b757600080fd5b803590602001918460018302840111640100000000831117156101d957600080fd5b91908080601f0160208091040260200160405190810160405280939291908181526020018383808284376000920191909152509295506105d9945050505050565b61013a6004803603602081101561023057600080fd5b50356105f9565b61016b6004803603606081101561024d57600080fd5b8135919081019060408101602082013564010000000081111561026f57600080fd5b82018360208201111561028157600080fd5b803590602001918460018302840111640100000000831117156102a357600080fd5b91908080601f01602080910402602001604051908101604052809392919081815260200183838082843760009201919091525092959493602081019350359150506401000000008111156102f657600080fd5b82018360208201111561030857600080fd5b8035906020019184600183028401116401000000008311171561032a57600080fd5b91908080601f016020809104026020016040519081016040528093929190818152602001838380828437600092019190915250929550610618945050505050565b61013a610d8e565b6103966004803603604081101561038957600080fd5b5080359060200135610d94565b6040805160208082528351818301528351919283929083019185019080838360005b838110156103d05781810151838201526020016103b8565b50505050905090810190601f1680156103fd5780820380516001836020036101000a031916815260200191505b509250505060405180910390f35b61013a6004803603602081101561042157600080fd5b5035611000565b61013a6004803603602081101561043e57600080fd5b5035611012565b6104716004803603604081101561045b57600080fd5b50600160a060020a038135169060200135611024565b604080519115158252519081900360200190f35b61016b6004803603604081101561049b57600080fd5b50600160a060020a038135169060200135611050565b61016b600480360360208110156104c757600080fd5b5035611097565b6104716110fa565b6104de611103565b60408051600160a060020a039092168252519081900360200190f35b61016b6004803603602081101561051057600080fd5b5035600160a060020a0316611112565b61016b6004803603602081101561053657600080fd5b503561112c565b61016b6004803603604081101561055357600080fd5b8135919081019060408101602082013564010000000081111561057557600080fd5b82018360208201111561058757600080fd5b803590602001918460018302840111640100000000831117156105a957600080fd5b509092509050611131565b60026020526000908152604090205481565b6009805460ff1916911515919091179055565b6040805160008152602081019091526105f59083908390610618565b5050565b600180548290811061060757fe5b600091825260209091200154905081565b61062061129a565b600160a060020a0316331461063457600080fd5b6000838152600c602052604090205461064b612562565b61065484611498565b90506106bf61067e60408051908101604052806001815260200160f960020a601102815250611498565b6106b36106a660408051908101604052806001815260200160f960020a601102815250611498565b849063ffffffff6114bd16565b9063ffffffff6114fe16565b5061070d6107006106eb60408051908101604052806001815260200160f960020a601102815250611498565b6106f484611561565b9063ffffffff6114bd16565b829063ffffffff61158716565b506000610719826115e5565b8051600090811061072657fe5b016020015160f860020a908190040290507f4300000000000000000000000000000000000000000000000000000000000000600160f860020a0319821614156107a55760408051600160f860020a0319831660208201526000198183015281518082038301815260609091019091526107a090849061163c565b610c76565b7f4400000000000000000000000000000000000000000000000000000000000000600160f860020a03198216141561080e5760408051600160f860020a0319831660208201526000198183015281518082038301815260609091019091526107a090849061163c565b7f4c00000000000000000000000000000000000000000000000000000000000000600160f860020a031982161480159061087257507f4100000000000000000000000000000000000000000000000000000000000000600160f860020a0319821614155b80156108a857507f4300000000000000000000000000000000000000000000000000000000000000600160f860020a0319821614155b80156108de57507f4400000000000000000000000000000000000000000000000000000000000000600160f860020a0319821614155b1561091a5760408051600160f860020a0319831660208201526000198183015281518082038301815260609091019091526107a090849061163c565b61092385611498565b915060006109756109686040805190810160405280601181526020017f61637475616c476174654172726976616c000000000000000000000000000000815250611498565b849063ffffffff61173a16565b90507f4100000000000000000000000000000000000000000000000000000000000000600160f860020a0319831614806109e157507f4c00000000000000000000000000000000000000000000000000000000000000600160f860020a031983161480156109e1575080155b15610a3857604080517f41000000000000000000000000000000000000000000000000000000000000006020820152600019818301528151808203830181526060909101909152610a3390859061163c565b610c74565b7f4c00000000000000000000000000000000000000000000000000000000000000600160f860020a03198316148015610a6e5750805b15610c3d57610a7b612562565b610ab96040805190810160405280601b81526020017f226172726976616c4761746544656c61794d696e75746573223a200000000000815250611498565b90506000610acd858363ffffffff61173a16565b15610bfc57610ae6826106b3878263ffffffff6114bd16565b50610b50610b43610b1260408051908101604052806001815260200160f960020a601102815250611498565b6106b3610b3a60408051908101604052806001815260200160f960020a601102815250611498565b6106f48a611561565b869063ffffffff61158716565b50610b9e610b43610b956040805190810160405280600181526020017f7d00000000000000000000000000000000000000000000000000000000000000815250611498565b6106f488611561565b50610be3610b43610b956040805190810160405280600181526020017f2c00000000000000000000000000000000000000000000000000000000000000815250611498565b50610bf5610bf0866115e5565b611761565b9050610c00565b5060005b60408051600160f860020a0319861660208201528082018390528151808203830181526060909101909152610c3690879061163c565b5050610c74565b60408051600160f860020a031984166020820152600019818301528151808203830181526060909101909152610c7490859061163c565b505b7f583eba0eebad615e8dfe2e00bcd166c66097833240dc12faf1a1e1eabb6437f183878787604051808581526020018481526020018060200180602001838103835285818151815260200191508051906020019080838360005b83811015610ce8578181015183820152602001610cd0565b50505050905090810190601f168015610d155780820380516001836020036101000a031916815260200191505b50838103825284518152845160209182019186019080838360005b83811015610d48578181015183820152602001610d30565b50505050905090810190601f168015610d755780820380516001836020036101000a031916815260200191505b50965050505050505060405180910390a1505050505050565b600b5481565b600954606090819060ff16151560011415610e7257610e6b60a060405190810160405280606b8152602001612612606b9139610dcf8661176e565b610e166040805190810160405280600581526020017f2f6465702f000000000000000000000000000000000000000000000000000000815250610e118861176e565b611883565b6040805190810160405280600181526020017f3f00000000000000000000000000000000000000000000000000000000000000815250608060405190810160405280604181526020016126d1604191396118b4565b9050610ff9565b610ff66080604051908101604052806054815260200161267d60549139610e988661176e565b610eda6040805190810160405280600581526020017f2f6465702f000000000000000000000000000000000000000000000000000000815250610e118861176e565b604080518082018252600d81527f3f247b5b646563727970745d2000000000000000000000000000000000000000602080830191909152600a80548451601f60026000196101006001861615020190931692909204918201849004840281018401909552808552610fd79492830182828015610f975780601f10610f6c57610100808354040283529160200191610f97565b820191906000526020600020905b815481529060010190602001808311610f7a57829003601f168201915b50505050506040805190810160405280600281526020017f7d26000000000000000000000000000000000000000000000000000000000000815250611b09565b608060405190810160405280604181526020016126d1604191396118b4565b90505b9392505050565b60006020819052908152604090205481565b600c6020526000908152604090205481565b60009081526020818152604080832054600160a060020a03909416835260029091528120549091161190565b600081815260208190526040902054151561106a57600080fd5b60009081526020818152604080832054600160a060020a0390941683526002909152902080549091179055565b600081815260208190526040902054156110b057600080fd5b60018054600083815260208190526040812060029290920a909155815480830183559190527fb10e2d527612073b26eecdfd717e6a320cf44b4afac2b0732d9fcbe2b7fa0cf60155565b60095460ff1681565b600354600160a060020a031681565b600160a060020a0316600090815260026020526040812055565b600b55565b60008060008484606081101561114657600080fd5b50803593506020810135925060400135905060606111648383610d94565b6009549091506000906111c59060ff1615156001146111835785611186565b60005b6040805190810160405280600681526020017f6e6573746564000000000000000000000000000000000000000000000000000081525084600b54611b38565b905087600c6000838152602001908152602001600020819055507fcb3c531d1c570fbf13699173d47878820fd8b7f80fbbfd85b88f453695b24c72888287856040518085815260200184815260200183815260200180602001828103825283818151815260200191508051906020019080838360005b8381101561125357818101518382015260200161123b565b50505050905090810190601f1680156112805780820380516001836020036101000a031916815260200191505b509550505050505060405180910390a15050505050505050565b600554600090600160a060020a031615806112c757506005546112c590600160a060020a0316611f43565b155b156112d8576112d66000611f47565b505b600560009054906101000a9004600160a060020a0316600160a060020a03166338cc48316040518163ffffffff1660e060020a028152600401602060405180830381600087803b15801561132b57600080fd5b505af115801561133f573d6000803e3d6000fd5b505050506040513d602081101561135557600080fd5b5051600454600160a060020a0390811691161461140b57600560009054906101000a9004600160a060020a0316600160a060020a03166338cc48316040518163ffffffff1660e060020a028152600401602060405180830381600087803b1580156113bf57600080fd5b505af11580156113d3573d6000803e3d6000fd5b505050506040513d60208110156113e957600080fd5b505160048054600160a060020a031916600160a060020a039092169190911790555b60048054604080517fc281d19e0000000000000000000000000000000000000000000000000000000081529051600160a060020a039092169263c281d19e928282019260209290829003018186803b15801561146657600080fd5b505afa15801561147a573d6000803e3d6000fd5b505050506040513d602081101561149057600080fd5b505190505b90565b6114a0612562565b506040805180820190915281518152602082810190820152919050565b6114c5612562565b60006114e38460000151856020015185600001518660200151611f51565b60208501805186519083039003865252508290505b92915050565b611506612562565b8151835110156115175750816114f8565b602080830151908401516001911461153e5750815160208481015190840151829020919020145b80156115595782518451038452825160208501805190910190525b509192915050565b611569612562565b50604080518082019091528151815260208083015190820152919050565b61158f612562565b8151835110156115a05750816114f8565b81518351602080860151908501519101919091039060019082146115ce575082516020840151819020908220145b80156115dc57835185510385525b50929392505050565b60608082600001516040519080825280601f01601f191660200182016040528015611617576020820181803883390190505b5090506000602082019050611635818560200151866000015161200c565b5092915050565b600354604080517fe409534a0000000000000000000000000000000000000000000000000000000081526004810185815260248201928352845160448301528451600160a060020a039094169363e409534a938793879392606490910190602085019080838360005b838110156116bd5781810151838201526020016116a5565b50505050905090810190601f1680156116ea5780820380516001836020036101000a031916815260200191505b509350505050602060405180830381600087803b15801561170a57600080fd5b505af115801561171e573d6000803e3d6000fd5b505050506040513d602081101561173457600080fd5b50505050565b6020808301518351835192840151600093611758929184919061204a565b14159392505050565b60006114f88260006120fa565b6040805160208082528183019092526060918291906020820181803883390190505090506000805b60208110156117ef576008810260020a8502600160f860020a03198116156117e6578084848151811015156117c757fe5b906020010190600160f860020a031916908160001a9053506001909201915b50600101611796565b506060816040519080825280601f01601f19166020018201604052801561181d576020820181803883390190505b50905060005b8281101561187a57838181518110151561183957fe5b90602001015160f860020a900460f860020a02828281518110151561185a57fe5b906020010190600160f860020a031916908160001a905350600101611823565b50949350505050565b604080516020818101835260008083528351808301855281815284519283019094528152606092610ff99286928692905b6060808690506060869050606086905060608690506060869050606081518351855187518951010101016040519080825280601f01601f191660200182016040528015611908576020820181803883390190505b509050806000805b885181101561196e57888181518110151561192757fe5b90602001015160f860020a900460f860020a02838380600101945081518110151561194e57fe5b906020010190600160f860020a031916908160001a905350600101611910565b5060005b87518110156119d057878181518110151561198957fe5b90602001015160f860020a900460f860020a0283838060010194508151811015156119b057fe5b906020010190600160f860020a031916908160001a905350600101611972565b5060005b8651811015611a325786818151811015156119eb57fe5b90602001015160f860020a900460f860020a028383806001019450815181101515611a1257fe5b906020010190600160f860020a031916908160001a9053506001016119d4565b5060005b8551811015611a94578581815181101515611a4d57fe5b90602001015160f860020a900460f860020a028383806001019450815181101515611a7457fe5b906020010190600160f860020a031916908160001a905350600101611a36565b5060005b8451811015611af6578481815181101515611aaf57fe5b90602001015160f860020a900460f860020a028383806001019450815181101515611ad657fe5b906020010190600160f860020a031916908160001a905350600101611a98565b50909d9c50505050505050505050505050565b6060610ff6848484602060405190810160405280600081525060206040519081016040528060008152506118b4565b600554600090600160a060020a03161580611b655750600554611b6390600160a060020a0316611f43565b155b15611b7657611b746000611f47565b505b600560009054906101000a9004600160a060020a0316600160a060020a03166338cc48316040518163ffffffff1660e060020a028152600401602060405180830381600087803b158015611bc957600080fd5b505af1158015611bdd573d6000803e3d6000fd5b505050506040513d6020811015611bf357600080fd5b5051600454600160a060020a03908116911614611ca957600560009054906101000a9004600160a060020a0316600160a060020a03166338cc48316040518163ffffffff1660e060020a028152600401602060405180830381600087803b158015611c5d57600080fd5b505af1158015611c71573d6000803e3d6000fd5b505050506040513d6020811015611c8757600080fd5b505160048054600160a060020a031916600160a060020a039092169190911790555b60048054604080517f2ef3accc00000000000000000000000000000000000000000000000000000000815260248101869052928301908152865160448401528651600093600160a060020a0390931692632ef3accc9289928892829160649091019060208601908083838c5b83811015611d2d578181015183820152602001611d15565b50505050905090810190601f168015611d5a5780820380516001836020036101000a031916815260200191505b509350505050602060405180830381600087803b158015611d7a57600080fd5b505af1158015611d8e573d6000803e3d6000fd5b505050506040513d6020811015611da457600080fd5b50519050670de0b6b3a76400003a840201811115611dc6575060009050611f3b565b600480546040517fc51be90f00000000000000000000000000000000000000000000000000000000815291820188815260648301869052608060248401908152885160848501528851600160a060020a039093169363c51be90f9386938c938c938c938c939291604481019160a490910190602088019080838360005b83811015611e5b578181015183820152602001611e43565b50505050905090810190601f168015611e885780820380516001836020036101000a031916815260200191505b50838103825285518152855160209182019187019080838360005b83811015611ebb578181015183820152602001611ea3565b50505050905090810190601f168015611ee85780820380516001836020036101000a031916815260200191505b5096505050505050506020604051808303818588803b158015611f0a57600080fd5b505af1158015611f1e573d6000803e3d6000fd5b50505050506040513d6020811015611f3557600080fd5b50519150505b949350505050565b3b90565b60006114f8612227565b60008381868511611fff5760208511611fc45783518251600019600860208990030260020a011991821690888a018890039083165b808314611fb657818610611fa4578a8a019650505050505050611f3b565b50600190940180519094908316611f86565b859650505050505050611f3b565b508383206000905b8588038211611ffd5785832081811415611fec5783945050505050611f3b565b506001928301929190910190611fcc565b505b5050509290910192915050565b5b6020811061202c578151835260209283019290910190601f190161200d565b905182516020929092036101000a6000190180199091169116179052565b6000808584116120f057602084116120ba5750815184860184900380519091600019600860208890030260020a0119919082169082165b8082146120ae5787841161209b5787945050505050611f3b565b5060001990920180519092908216612081565b50505083019050611f3b565b508282208386038501905b8582106120ee57848220818114156120e257505083019050611f3b565b600183039250506120c5565b505b5092949350505050565b6000828180805b835181101561220c576030848281518110151561211a57fe5b90602001015160f860020a900460f860020a0260f860020a900460ff161015801561217057506039848281518110151561215057fe5b90602001015160f860020a900460f860020a0260f860020a900460ff1611155b156121cc57811561218f578515156121875761220c565b600019909501945b600a83029250603084828151811015156121a557fe5b90602001015160f860020a900460f860020a0260f860020a900460ff160383019250612204565b83818151811015156121da57fe5b90602001015160f860020a900460f860020a0260f860020a900460ff16602e141561220457600191505b600101612101565b50600085111561187a5784600a0a8202915050949350505050565b600080612247731d3b2638a7cc9f2cb3d298a3da7a90b67e5506ed611f43565b11156122b85760058054600160a060020a031916731d3b2638a7cc9f2cb3d298a3da7a90b67e5506ed17905560408051808201909152600b81527f6574685f6d61696e6e657400000000000000000000000000000000000000000060208201526122b09061254f565b506001611495565b60006122d773c03a2615d5efaf5f49f60b7bb6583eaec212fdf1611f43565b11156123405760058054600160a060020a03191673c03a2615d5efaf5f49f60b7bb6583eaec212fdf117905560408051808201909152600c81527f6574685f726f707374656e33000000000000000000000000000000000000000060208201526122b09061254f565b600061235f73b7a07bcf2ba2f2703b24c0691b5278999c59ac7e611f43565b11156123c85760058054600160a060020a03191673b7a07bcf2ba2f2703b24c0691b5278999c59ac7e17905560408051808201909152600981527f6574685f6b6f76616e000000000000000000000000000000000000000000000060208201526122b09061254f565b60006123e773146500cfd35b22e4a392fe0adc06de1a1368ed48611f43565b11156124505760058054600160a060020a03191673146500cfd35b22e4a392fe0adc06de1a1368ed4817905560408051808201909152600b81527f6574685f72696e6b65627900000000000000000000000000000000000000000060208201526122b09061254f565b600061246f736f485c8bf6fc43ea212e93bbf8ce046c7f1cb475611f43565b11156124a3575060058054600160a060020a031916736f485c8bf6fc43ea212e93bbf8ce046c7f1cb4751790556001611495565b60006124c27320e12a1f859b3feae5fb2a0a32c18f5a65555bbf611f43565b11156124f6575060058054600160a060020a0319167320e12a1f859b3feae5fb2a0a32c18f5a65555bbf1790556001611495565b60006125157351efaf4c8b3c9afbd5ab9f4bbc82784ab6ef8faa611f43565b1115612549575060058054600160a060020a0319167351efaf4c8b3c9afbd5ab9f4bbc82784ab6ef8faa1790556001611495565b50600090565b80516105f5906006906020840190612579565b604080518082019091526000808252602082015290565b828054600181600116156101000203166002900490600052602060002090601f016020900481019282601f106125ba57805160ff19168380011785556125e7565b828001600101855582156125e7579182015b828111156125e75782518255916020019190600101906125cc565b506125f39291506125f7565b5090565b61149591905b808211156125f357600081556001016125fd56fe5b55524c5d206a736f6e2868747470733a2f2f666c696768742d64656c61792d74657374696e672d6170692d7a7878747573757274622e6e6f772e73682f666c65782f666c696768747374617475732f726573742f76322f6a736f6e2f666c696768742f7374617475732f5b55524c5d206a736f6e2868747470733a2f2f6170692e666c6967687473746174732e636f6d2f666c65782f666c696768747374617475732f726573742f76322f6a736f6e2f666c696768742f7374617475732f7574633d74727565292e666c6967687453746174757365735b305d5b27737461747573272c2764656c617973272c276f7065726174696f6e616c54696d6573275da165627a7a72305820a21f4cebf5e8ba7c193d2c418f0bc13c59eb4c247cc8a89c0151e4069d142e450029",
  "source": "pragma solidity 0.5.2;\n\nimport \"../../Oracle.sol\";\nimport \"./oraclizeAPI.sol\";\nimport \"./strings.sol\";\n\ncontract FlightStatusesOracle is Oracle, usingOraclize {\n    using strings for *;\n\n    modifier onlyOraclize {\n        require(msg.sender == oraclize_cbAddress());\n        _;\n    }\n\n    event OraclizeRequested(\n        uint256 requestId,\n        bytes32 queryId,\n        uint256 time,\n        string url\n    );\n\n    event OraclizeResponded(\n        uint256 requestId,\n        bytes32 queryId,\n        string result,\n        bytes proof\n    );\n\n    bool public testMode = false;\n\n    string private encryptedQuery;\n\n    // flight status api is v2, see https://developer.flightstats.com/api-docs/flightstatus/v2/flight\n    string constant ORACLIZE_STATUS_BASE_URL_TEST = \"[URL] json(https://flight-delay-testing-api-zxxtusurtb.now.sh/flex/flightstatus/rest/v2/json/flight/status/\";\n    string constant ORACLIZE_STATUS_BASE_URL = \"[URL] json(https://api.flightstats.com/flex/flightstatus/rest/v2/json/flight/status/\";\n    string constant ORACLIZE_STATUS_QUERY = \"utc=true).flightStatuses[0]['status','delays','operationalTimes']\";\n\n    uint256 public oraclizeGas = 1500000;\n\n    mapping(bytes32 => uint256) public requests;\n\n    constructor(address _oracleController, string memory _encryptedQuery)\n        public\n        payable\n        Oracle(_oracleController)\n    {\n        encryptedQuery = _encryptedQuery;\n    }\n\n    function setTestMode(bool _testMode) external {\n        // todo: set permissions\n        testMode = _testMode;\n    }\n\n    function setOraclizeGas(uint256 _oraclizeGas) external {\n        // todo: set permissions\n        oraclizeGas = _oraclizeGas;\n    }\n\n    function request(uint256 _requestId, bytes calldata _input) external {\n        // todo: set permissions\n\n        (uint256 oraclizeTime, bytes32 carrierFlightNumber, bytes32 departureYearMonthDay) = abi.decode(\n            _input,\n            (uint256, bytes32, bytes32)\n        );\n\n        string memory oraclizeUrl = getOraclizeUrl(\n            carrierFlightNumber,\n            departureYearMonthDay\n        );\n\n        bytes32 queryId = oraclize_query(\n            testMode == true ? 0 : oraclizeTime,\n            \"nested\",\n            oraclizeUrl,\n            oraclizeGas\n        );\n\n        requests[queryId] = _requestId;\n\n        emit OraclizeRequested(_requestId, queryId, oraclizeTime, oraclizeUrl);\n    }\n\n    function __callback(\n        bytes32 _queryId,\n        string memory _result,\n        bytes memory _proof\n    ) public onlyOraclize {\n        uint256 requestId = requests[_queryId];\n\n        strings.slice memory slResult = _result.toSlice();\n\n        // todo: add implementation\n        slResult.find(\"\\\"\".toSlice()).beyond(\"\\\"\".toSlice());\n        slResult.until(slResult.copy().find(\"\\\"\".toSlice()));\n        bytes1 status = bytes(slResult.toString())[0]; // s = L\n\n        if (status == \"C\") {\n            // flight cancelled\n            respond(requestId, abi.encode(status, -1));\n        } else if (status == \"D\") {\n            // flight diverted\n            respond(requestId, abi.encode(status, -1));\n        } else if (status != \"L\" && status != \"A\" && status != \"C\" && status != \"D\") {\n            // Unprocessable status;\n            respond(requestId, abi.encode(status, -1));\n        } else {\n            slResult = _result.toSlice();\n            bool arrived = slResult.contains(\"actualGateArrival\".toSlice());\n\n            if (status == \"A\" || (status == \"L\" && !arrived)) {\n                // flight still active or not at gate\n                respond(requestId, abi.encode(bytes1(\"A\"), -1));\n            } else if (status == \"L\" && arrived) {\n                strings.slice memory aG = \"\\\"arrivalGateDelayMinutes\\\": \".toSlice(\n\n                );\n\n                uint256 delayInMinutes;\n\n                if (slResult.contains(aG)) {\n                    slResult.find(aG).beyond(aG);\n                    slResult.until(\n                        slResult.copy().find(\"\\\"\".toSlice()).beyond(\n                            \"\\\"\".toSlice()\n                        )\n                    );\n                    // truffle bug, replace by \"}\" as soon as it is fixed.\n                    slResult.until(slResult.copy().find(\"\\x7D\".toSlice()));\n                    slResult.until(slResult.copy().find(\",\".toSlice()));\n                    delayInMinutes = parseInt(slResult.toString());\n                } else {\n                    delayInMinutes = 0;\n                }\n\n                respond(requestId, abi.encode(status, delayInMinutes));\n            } else {\n                // no delay info\n                respond(requestId, abi.encode(status, -1));\n            }\n\n        }\n\n        emit OraclizeResponded(requestId, _queryId, _result, _proof);\n    }\n\n    function getOraclizeUrl(\n        bytes32 _carrierFlightNumber,\n        bytes32 _departureYearMonthDay\n    ) public view returns (string memory _oraclizeUrl) {\n        string memory url;\n\n        if (testMode == true) {\n            url = strConcat(\n                ORACLIZE_STATUS_BASE_URL_TEST,\n                b32toString(_carrierFlightNumber),\n                strConcat(\"/dep/\", b32toString(_departureYearMonthDay)),\n                \"?\",\n                ORACLIZE_STATUS_QUERY\n            );\n        } else {\n            url = strConcat(\n                ORACLIZE_STATUS_BASE_URL,\n                b32toString(_carrierFlightNumber),\n                strConcat(\"/dep/\", b32toString(_departureYearMonthDay)),\n                strConcat(\"?${[decrypt] \", encryptedQuery, \"}&\"),\n                ORACLIZE_STATUS_QUERY\n            );\n        }\n\n        _oraclizeUrl = url;\n    }\n\n    function b32toString(bytes32 x) internal pure returns (string memory) {\n        // gas usage: about 1K gas per char.\n        bytes memory bytesString = new bytes(32);\n        uint256 charCount = 0;\n\n        for (uint256 j = 0; j < 32; j++) {\n            byte char = byte(bytes32(uint(x) * 2 ** (8 * j)));\n            if (char != 0) {\n                bytesString[charCount] = char;\n                charCount++;\n            }\n        }\n\n        bytes memory bytesStringTrimmed = new bytes(charCount);\n\n        for (uint256 j = 0; j < charCount; j++) {\n            bytesStringTrimmed[j] = bytesString[j];\n        }\n\n        return string(bytesStringTrimmed);\n    }\n}\n",
  "sourcePath": "/Users/ka/Projects/Altoros/Etherisc/dip-platform/core/gif-contracts/contracts/examples/OraclizeBridgeOracles/FlightStatusesOracle.sol",
  "compiler": {
    "name": "solc",
    "version": "0.5.2+commit.1df8f40c.Emscripten.clang"
  },
  "schemaVersion": "3.0.1",
  "updatedAt": "2019-02-12T15:42:52.809Z",
  "devdoc": {
    "methods": {}
  },
  "userdoc": {
    "methods": {}
  }
}