{
  "contractName": "FlightRatingsOracle",
  "abi": [
    {
      "constant": true,
      "inputs": [
        {
          "name": "",
          "type": "address"
        }
      ],
      "name": "permissions",
      "outputs": [
        {
          "name": "",
          "type": "uint256"
        }
      ],
      "payable": false,
      "stateMutability": "view",
      "type": "function",
      "signature": "0x01e88208"
    },
    {
      "constant": true,
      "inputs": [
        {
          "name": "",
          "type": "uint256"
        }
      ],
      "name": "rolesKeys",
      "outputs": [
        {
          "name": "",
          "type": "bytes32"
        }
      ],
      "payable": false,
      "stateMutability": "view",
      "type": "function",
      "signature": "0x2cf88d9e"
    },
    {
      "constant": true,
      "inputs": [],
      "name": "oraclizeGas",
      "outputs": [
        {
          "name": "",
          "type": "uint256"
        }
      ],
      "payable": false,
      "stateMutability": "view",
      "type": "function",
      "signature": "0x3e9836c6"
    },
    {
      "constant": true,
      "inputs": [
        {
          "name": "",
          "type": "bytes32"
        }
      ],
      "name": "roles",
      "outputs": [
        {
          "name": "",
          "type": "uint256"
        }
      ],
      "payable": false,
      "stateMutability": "view",
      "type": "function",
      "signature": "0x95356651"
    },
    {
      "constant": true,
      "inputs": [
        {
          "name": "",
          "type": "bytes32"
        }
      ],
      "name": "requests",
      "outputs": [
        {
          "name": "",
          "type": "uint256"
        }
      ],
      "payable": false,
      "stateMutability": "view",
      "type": "function",
      "signature": "0x9d866985"
    },
    {
      "constant": true,
      "inputs": [
        {
          "name": "_address",
          "type": "address"
        },
        {
          "name": "_role",
          "type": "bytes32"
        }
      ],
      "name": "hasRole",
      "outputs": [
        {
          "name": "_hasRole",
          "type": "bool"
        }
      ],
      "payable": false,
      "stateMutability": "view",
      "type": "function",
      "signature": "0xac4ab3fb"
    },
    {
      "constant": false,
      "inputs": [
        {
          "name": "_address",
          "type": "address"
        },
        {
          "name": "_role",
          "type": "bytes32"
        }
      ],
      "name": "addRoleToAccount",
      "outputs": [],
      "payable": false,
      "stateMutability": "nonpayable",
      "type": "function",
      "signature": "0xc2e86735"
    },
    {
      "constant": false,
      "inputs": [
        {
          "name": "_role",
          "type": "bytes32"
        }
      ],
      "name": "createRole",
      "outputs": [],
      "payable": false,
      "stateMutability": "nonpayable",
      "type": "function",
      "signature": "0xc42994a2"
    },
    {
      "constant": true,
      "inputs": [],
      "name": "testMode",
      "outputs": [
        {
          "name": "",
          "type": "bool"
        }
      ],
      "payable": false,
      "stateMutability": "view",
      "type": "function",
      "signature": "0xcd9ea342"
    },
    {
      "constant": true,
      "inputs": [],
      "name": "oracleService",
      "outputs": [
        {
          "name": "",
          "type": "address"
        }
      ],
      "payable": false,
      "stateMutability": "view",
      "type": "function",
      "signature": "0xdaa64f95"
    },
    {
      "constant": false,
      "inputs": [
        {
          "name": "_address",
          "type": "address"
        }
      ],
      "name": "cleanRolesForAccount",
      "outputs": [],
      "payable": false,
      "stateMutability": "nonpayable",
      "type": "function",
      "signature": "0xf566e10e"
    },
    {
      "inputs": [
        {
          "name": "_oracleController",
          "type": "address"
        },
        {
          "name": "_encryptedQuery",
          "type": "string"
        }
      ],
      "payable": true,
      "stateMutability": "payable",
      "type": "constructor",
      "signature": "constructor"
    },
    {
      "anonymous": false,
      "inputs": [
        {
          "indexed": false,
          "name": "requestId",
          "type": "uint256"
        },
        {
          "indexed": false,
          "name": "queryId",
          "type": "bytes32"
        },
        {
          "indexed": false,
          "name": "url",
          "type": "string"
        }
      ],
      "name": "OraclizeRequested",
      "type": "event",
      "signature": "0x4b5f60378154b1fdee96be3db9d4c709d5a6637003d11b0efcc09ff5c635f459"
    },
    {
      "anonymous": false,
      "inputs": [
        {
          "indexed": false,
          "name": "requestId",
          "type": "uint256"
        },
        {
          "indexed": false,
          "name": "queryId",
          "type": "bytes32"
        },
        {
          "indexed": false,
          "name": "result",
          "type": "string"
        },
        {
          "indexed": false,
          "name": "proof",
          "type": "bytes"
        }
      ],
      "name": "OraclizeResponded",
      "type": "event",
      "signature": "0x583eba0eebad615e8dfe2e00bcd166c66097833240dc12faf1a1e1eabb6437f1"
    },
    {
      "constant": false,
      "inputs": [
        {
          "name": "_testMode",
          "type": "bool"
        }
      ],
      "name": "setTestMode",
      "outputs": [],
      "payable": false,
      "stateMutability": "nonpayable",
      "type": "function",
      "signature": "0x1ff1292f"
    },
    {
      "constant": false,
      "inputs": [
        {
          "name": "_oraclizeGas",
          "type": "uint256"
        }
      ],
      "name": "setOraclizeGas",
      "outputs": [],
      "payable": false,
      "stateMutability": "nonpayable",
      "type": "function",
      "signature": "0xfbf44a1b"
    },
    {
      "constant": false,
      "inputs": [
        {
          "name": "_requestId",
          "type": "uint256"
        },
        {
          "name": "_input",
          "type": "bytes"
        }
      ],
      "name": "request",
      "outputs": [],
      "payable": false,
      "stateMutability": "nonpayable",
      "type": "function",
      "signature": "0xffc79065"
    },
    {
      "constant": false,
      "inputs": [
        {
          "name": "_myid",
          "type": "bytes32"
        },
        {
          "name": "_result",
          "type": "string"
        }
      ],
      "name": "__callback",
      "outputs": [],
      "payable": false,
      "stateMutability": "nonpayable",
      "type": "function",
      "signature": "0x27dc297e"
    },
    {
      "constant": false,
      "inputs": [
        {
          "name": "_queryId",
          "type": "bytes32"
        },
        {
          "name": "_result",
          "type": "string"
        },
        {
          "name": "_proof",
          "type": "bytes"
        }
      ],
      "name": "__callback",
      "outputs": [],
      "payable": false,
      "stateMutability": "nonpayable",
      "type": "function",
      "signature": "0x38bbfa50"
    },
    {
      "constant": true,
      "inputs": [
        {
          "name": "_carrierFlightNumber",
          "type": "bytes32"
        }
      ],
      "name": "getOraclizeUrl",
      "outputs": [
        {
          "name": "_oraclizeUrl",
          "type": "string"
        }
      ],
      "payable": false,
      "stateMutability": "view",
      "type": "function",
      "signature": "0x956649f4"
    }
  ],
  "bytecode": "0x60806040526000600960006101000a81548160ff0219169083151502179055506216e360600b556040516200322e3803806200322e833981018060405260408110156200004b57600080fd5b810190808051906020019092919080516401000000008111156200006e57600080fd5b828101905060208101848111156200008557600080fd5b8151856001820283011164010000000082111715620000a357600080fd5b50509291905050508180600360006101000a81548173ffffffffffffffffffffffffffffffffffffffff021916908373ffffffffffffffffffffffffffffffffffffffff1602179055505080600a9080519060200190620001069291906200010f565b505050620001be565b828054600181600116156101000203166002900490600052602060002090601f016020900481019282601f106200015257805160ff191683800117855562000183565b8280016001018555821562000183579182015b828111156200018257825182559160200191906001019062000165565b5b50905062000192919062000196565b5090565b620001bb91905b80821115620001b75760008160009055506001016200019d565b5090565b90565b61306080620001ce6000396000f3fe608060405234801561001057600080fd5b5060043610610128576000357c0100000000000000000000000000000000000000000000000000000000900480639d866985116100bf578063cd9ea3421161008e578063cd9ea34214610643578063daa64f9514610665578063f566e10e146106af578063fbf44a1b146106f3578063ffc790651461072157610128565b80639d8669851461051f578063ac4ab3fb14610561578063c2e86735146105c7578063c42994a21461061557610128565b806338bbfa50116100fb57806338bbfa50146102bc5780633e9836c6146104185780639535665114610436578063956649f41461047857610128565b806301e882081461012d5780631ff1292f1461018557806327dc297e146101b55780632cf88d9e1461027a575b600080fd5b61016f6004803603602081101561014357600080fd5b81019080803573ffffffffffffffffffffffffffffffffffffffff1690602001909291905050506107a4565b6040518082815260200191505060405180910390f35b6101b36004803603602081101561019b57600080fd5b810190808035151590602001909291905050506107bc565b005b610278600480360360408110156101cb57600080fd5b8101908080359060200190929190803590602001906401000000008111156101f257600080fd5b82018360208201111561020457600080fd5b8035906020019184600183028401116401000000008311171561022657600080fd5b91908080601f016020809104026020016040519081016040528093929190818152602001838380828437600081840152601f19601f8201169050808301925050505050505091929192905050506107d9565b005b6102a66004803603602081101561029057600080fd5b810190808035906020019092919050505061081c565b6040518082815260200191505060405180910390f35b610416600480360360608110156102d257600080fd5b8101908080359060200190929190803590602001906401000000008111156102f957600080fd5b82018360208201111561030b57600080fd5b8035906020019184600183028401116401000000008311171561032d57600080fd5b91908080601f016020809104026020016040519081016040528093929190818152602001838380828437600081840152601f19601f8201169050808301925050505050505091929192908035906020019064010000000081111561039057600080fd5b8201836020820111156103a257600080fd5b803590602001918460018302840111640100000000831117156103c457600080fd5b91908080601f016020809104026020016040519081016040528093929190818152602001838380828437600081840152601f19601f82011690508083019250505050505050919291929050505061083f565b005b610420610c99565b6040518082815260200191505060405180910390f35b6104626004803603602081101561044c57600080fd5b8101908080359060200190929190505050610c9f565b6040518082815260200191505060405180910390f35b6104a46004803603602081101561048e57600080fd5b8101908080359060200190929190505050610cb7565b6040518080602001828103825283818151815260200191508051906020019080838360005b838110156104e45780820151818401526020810190506104c9565b50505050905090810190601f1680156105115780820380516001836020036101000a031916815260200191505b509250505060405180910390f35b61054b6004803603602081101561053557600080fd5b8101908080359060200190929190505050610e82565b6040518082815260200191505060405180910390f35b6105ad6004803603604081101561057757600080fd5b81019080803573ffffffffffffffffffffffffffffffffffffffff16906020019092919080359060200190929190505050610e9a565b604051808215151515815260200191505060405180910390f35b610613600480360360408110156105dd57600080fd5b81019080803573ffffffffffffffffffffffffffffffffffffffff16906020019092919080359060200190929190505050610efa565b005b6106416004803603602081101561062b57600080fd5b8101908080359060200190929190505050610fb7565b005b61064b61102a565b604051808215151515815260200191505060405180910390f35b61066d61103d565b604051808273ffffffffffffffffffffffffffffffffffffffff1673ffffffffffffffffffffffffffffffffffffffff16815260200191505060405180910390f35b6106f1600480360360208110156106c557600080fd5b81019080803573ffffffffffffffffffffffffffffffffffffffff169060200190929190505050611063565b005b61071f6004803603602081101561070957600080fd5b81019080803590602001909291905050506110a9565b005b6107a26004803603604081101561073757600080fd5b81019080803590602001909291908035906020019064010000000081111561075e57600080fd5b82018360208201111561077057600080fd5b8035906020019184600183028401116401000000008311171561079257600080fd5b90919293919293905050506110b3565b005b60026020528060005260406000206000915090505481565b80600960006101000a81548160ff02191690831515021790555050565b610818828260006040519080825280601f01601f1916602001820160405280156108125781602001600182028038833980820191505090505b5061083f565b5050565b60018181548110151561082b57fe5b906000526020600020016000915090505481565b6108476111f7565b73ffffffffffffffffffffffffffffffffffffffff163373ffffffffffffffffffffffffffffffffffffffff1614151561088057600080fd5b6000600c60008581526020019081526020016000205490506108a0612e65565b6108a98461156d565b9050600084511415610923576040517f08c379a00000000000000000000000000000000000000000000000000000000081526004018080602001828103825260178152602001807f4465636c696e65642028656d70747920726573756c742900000000000000000081525060200191505060405180910390fd5b60056109756109666040805190810160405280600281526020017f2c2000000000000000000000000000000000000000000000000000000000000081525061156d565b8361159b90919063ffffffff16565b1415156109ea576040517f08c379a00000000000000000000000000000000000000000000000000000000081526004018080602001828103825260198152602001807f4465636c696e65642028696e76616c696420726573756c74290000000000000081525060200191505060405180910390fd5b610a89610a2b6040805190810160405280600181526020017f5d0000000000000000000000000000000000000000000000000000000000000081525061156d565b610a7b610a6c6040805190810160405280600181526020017f5b0000000000000000000000000000000000000000000000000000000000000081525061156d565b8461161290919063ffffffff16565b61169c90919063ffffffff16565b50610a92612e7f565b60008090505b600581111515610b2657610b02610afd610af8610ae96040805190810160405280600281526020017f2c2000000000000000000000000000000000000000000000000000000000000081525061156d565b8661171e90919063ffffffff16565b611738565b61179a565b8282600681101515610b1057fe5b6020020181815250508080600101915050610a98565b50610b7883826040516020018082600660200280838360005b83811015610b5a578082015181840152602081019050610b3f565b505050509050019150506040516020818303038152906040526117ae565b507f583eba0eebad615e8dfe2e00bcd166c66097833240dc12faf1a1e1eabb6437f182868686604051808581526020018481526020018060200180602001838103835285818151815260200191508051906020019080838360005b83811015610bee578082015181840152602081019050610bd3565b50505050905090810190601f168015610c1b5780820380516001836020036101000a031916815260200191505b50838103825284818151815260200191508051906020019080838360005b83811015610c54578082015181840152602081019050610c39565b50505050905090810190601f168015610c815780820380516001836020036101000a031916815260200191505b50965050505050505060405180910390a15050505050565b600b5481565b60006020528060005260406000206000915090505481565b60608060011515600960009054906101000a900460ff1615151415610d2257610d1b60806040519081016040528060578152602001612f4860579139610cfc856118ec565b608060405190810160405280604e8152602001612fe7604e9139611ae9565b9050610e79565b610e7660806040519081016040528060488152602001612f9f60489139610d48856118ec565b610e576040805190810160405280600d81526020017f3f247b5b646563727970745d2000000000000000000000000000000000000000815250600a8054600181600116156101000203166002900480601f016020809104026020016040519081016040528092919081815260200182805460018160011615610100020316600290048015610e175780601f10610dec57610100808354040283529160200191610e17565b820191906000526020600020905b815481529060010190602001808311610dfa57829003601f168201915b50505050506040805190810160405280600181526020017f7d00000000000000000000000000000000000000000000000000000000000000815250611ae9565b608060405190810160405280604e8152602001612fe7604e9139611b21565b90505b80915050919050565b600c6020528060005260406000206000915090505481565b60008060008084815260200190815260200160002054600260008673ffffffffffffffffffffffffffffffffffffffff1673ffffffffffffffffffffffffffffffffffffffff168152602001908152602001600020541611905092915050565b60008060008381526020019081526020016000205414151515610f1c57600080fd5b60008082815260200190815260200160002054600260008473ffffffffffffffffffffffffffffffffffffffff1673ffffffffffffffffffffffffffffffffffffffff1681526020019081526020016000205417600260008473ffffffffffffffffffffffffffffffffffffffff1673ffffffffffffffffffffffffffffffffffffffff168152602001908152602001600020819055505050565b600080600083815260200190815260200160002054141515610fd857600080fd5b60018054905060019060020a0260008083815260200190815260200160002081905550600181908060018154018082558091505090600182039060005260206000200160009091929091909150555050565b600960009054906101000a900460ff1681565b600360009054906101000a900473ffffffffffffffffffffffffffffffffffffffff1681565b600260008273ffffffffffffffffffffffffffffffffffffffff1673ffffffffffffffffffffffffffffffffffffffff1681526020019081526020016000206000905550565b80600b8190555050565b6000828260208110156110c557600080fd5b8101908080359060200190929190505050905060606110e382610cb7565b905060006111296040805190810160405280600681526020017f6e6573746564000000000000000000000000000000000000000000000000000081525083600b54611b4a565b905085600c6000838152602001908152602001600020819055507f4b5f60378154b1fdee96be3db9d4c709d5a6637003d11b0efcc09ff5c635f4598682846040518084815260200183815260200180602001828103825283818151815260200191508051906020019080838360005b838110156111b3578082015181840152602081019050611198565b50505050905090810190601f1680156111e05780820380516001836020036101000a031916815260200191505b5094505050505060405180910390a1505050505050565b60008073ffffffffffffffffffffffffffffffffffffffff16600560009054906101000a900473ffffffffffffffffffffffffffffffffffffffff1673ffffffffffffffffffffffffffffffffffffffff16148061127f5750600061127d600560009054906101000a900473ffffffffffffffffffffffffffffffffffffffff16612115565b145b156112905761128e6000612120565b505b600560009054906101000a900473ffffffffffffffffffffffffffffffffffffffff1673ffffffffffffffffffffffffffffffffffffffff166338cc48316040518163ffffffff167c0100000000000000000000000000000000000000000000000000000000028152600401602060405180830381600087803b15801561131657600080fd5b505af115801561132a573d6000803e3d6000fd5b505050506040513d602081101561134057600080fd5b810190808051906020019092919050505073ffffffffffffffffffffffffffffffffffffffff16600460009054906101000a900473ffffffffffffffffffffffffffffffffffffffff1673ffffffffffffffffffffffffffffffffffffffff161415156114a957600560009054906101000a900473ffffffffffffffffffffffffffffffffffffffff1673ffffffffffffffffffffffffffffffffffffffff166338cc48316040518163ffffffff167c0100000000000000000000000000000000000000000000000000000000028152600401602060405180830381600087803b15801561142d57600080fd5b505af1158015611441573d6000803e3d6000fd5b505050506040513d602081101561145757600080fd5b8101908080519060200190929190505050600460006101000a81548173ffffffffffffffffffffffffffffffffffffffff021916908373ffffffffffffffffffffffffffffffffffffffff1602179055505b600460009054906101000a900473ffffffffffffffffffffffffffffffffffffffff1673ffffffffffffffffffffffffffffffffffffffff1663c281d19e6040518163ffffffff167c010000000000000000000000000000000000000000000000000000000002815260040160206040518083038186803b15801561152d57600080fd5b505afa158015611541573d6000803e3d6000fd5b505050506040513d602081101561155757600080fd5b8101908080519060200190929190505050905090565b611575612e65565b600060208301905060408051908101604052808451815260200182815250915050919050565b60008082600001516115bf8560000151866020015186600001518760200151612131565b0190505b83600001518460200151018111151561160b5781806001019250508260000151611603856020015183038660000151038386600001518760200151612131565b0190506115c3565b5092915050565b61161a612e65565b81600001518360000151101561163257829050611696565b60006001905082602001518460200151141515611662578251602085015160208501518281208383201493505050505b801561169157826000015184600001818151039150818152505082600001518460200181815101915081815250505b839150505b92915050565b6116a4612e65565b8160000151836000015110156116bc57829050611718565b6000826000015184600001518560200151010390506000600190508360200151821415156116f7578351602085015181812082852014925050505b80156117125783600001518560000181815103915081815250505b84925050505b92915050565b611726612e65565b611731838383612216565b5092915050565b60608082600001516040519080825280601f01601f1916602001820160405280156117725781602001600182028038833980820191505090505b509050600060208201905061179081856020015186600001516122b4565b8192505050919050565b60006117a78260006122ff565b9050919050565b600360009054906101000a900473ffffffffffffffffffffffffffffffffffffffff1673ffffffffffffffffffffffffffffffffffffffff1663e409534a83836040518363ffffffff167c01000000000000000000000000000000000000000000000000000000000281526004018083815260200180602001828103825283818151815260200191508051906020019080838360005b8381101561185f578082015181840152602081019050611844565b50505050905090810190601f16801561188c5780820380516001836020036101000a031916815260200191505b509350505050602060405180830381600087803b1580156118ac57600080fd5b505af11580156118c0573d6000803e3d6000fd5b505050506040513d60208110156118d657600080fd5b8101908080519060200190929190505050505050565b60608060206040519080825280601f01601f1916602001820160405280156119235781602001600182028038833980820191505090505b509050600080905060008090505b60208110156119f25760008160080260020a866001900402600102905060007f010000000000000000000000000000000000000000000000000000000000000002817effffffffffffffffffffffffffffffffffffffffffffffffffffffffffffff19161415156119e4578084848151811015156119ab57fe5b9060200101907effffffffffffffffffffffffffffffffffffffffffffffffffffffffffffff1916908160001a90535082806001019350505b508080600101915050611931565b506060816040519080825280601f01601f191660200182016040528015611a285781602001600182028038833980820191505090505b50905060008090505b82811015611add578381815181101515611a4757fe5b9060200101517f010000000000000000000000000000000000000000000000000000000000000090047f0100000000000000000000000000000000000000000000000000000000000000028282815181101515611aa057fe5b9060200101907effffffffffffffffffffffffffffffffffffffffffffffffffffffffffffff1916908160001a9053508080600101915050611a31565b50809350505050919050565b6060611b188484846020604051908101604052806000815250602060405190810160405280600081525061259a565b90509392505050565b6060611b4085858585602060405190810160405280600081525061259a565b9050949350505050565b60008073ffffffffffffffffffffffffffffffffffffffff16600560009054906101000a900473ffffffffffffffffffffffffffffffffffffffff1673ffffffffffffffffffffffffffffffffffffffff161480611bd257506000611bd0600560009054906101000a900473ffffffffffffffffffffffffffffffffffffffff16612115565b145b15611be357611be16000612120565b505b600560009054906101000a900473ffffffffffffffffffffffffffffffffffffffff1673ffffffffffffffffffffffffffffffffffffffff166338cc48316040518163ffffffff167c0100000000000000000000000000000000000000000000000000000000028152600401602060405180830381600087803b158015611c6957600080fd5b505af1158015611c7d573d6000803e3d6000fd5b505050506040513d6020811015611c9357600080fd5b810190808051906020019092919050505073ffffffffffffffffffffffffffffffffffffffff16600460009054906101000a900473ffffffffffffffffffffffffffffffffffffffff1673ffffffffffffffffffffffffffffffffffffffff16141515611dfc57600560009054906101000a900473ffffffffffffffffffffffffffffffffffffffff1673ffffffffffffffffffffffffffffffffffffffff166338cc48316040518163ffffffff167c0100000000000000000000000000000000000000000000000000000000028152600401602060405180830381600087803b158015611d8057600080fd5b505af1158015611d94573d6000803e3d6000fd5b505050506040513d6020811015611daa57600080fd5b8101908080519060200190929190505050600460006101000a81548173ffffffffffffffffffffffffffffffffffffffff021916908373ffffffffffffffffffffffffffffffffffffffff1602179055505b6000600460009054906101000a900473ffffffffffffffffffffffffffffffffffffffff1673ffffffffffffffffffffffffffffffffffffffff16632ef3accc86856040518363ffffffff167c01000000000000000000000000000000000000000000000000000000000281526004018080602001838152602001828103825284818151815260200191508051906020019080838360005b83811015611eaf578082015181840152602081019050611e94565b50505050905090810190601f168015611edc5780820380516001836020036101000a031916815260200191505b509350505050602060405180830381600087803b158015611efc57600080fd5b505af1158015611f10573d6000803e3d6000fd5b505050506040513d6020811015611f2657600080fd5b81019080805190602001909291905050509050823a02670de0b6b3a764000001811115611f5a57600060010291505061210e565b600460009054906101000a900473ffffffffffffffffffffffffffffffffffffffff1673ffffffffffffffffffffffffffffffffffffffff1663c51be90f8260008888886040518663ffffffff167c0100000000000000000000000000000000000000000000000000000000028152600401808581526020018060200180602001848152602001838103835286818151815260200191508051906020019080838360005b83811015612019578082015181840152602081019050611ffe565b50505050905090810190601f1680156120465780820380516001836020036101000a031916815260200191505b50838103825285818151815260200191508051906020019080838360005b8381101561207f578082015181840152602081019050612064565b50505050905090810190601f1680156120ac5780820380516001836020036101000a031916815260200191505b5096505050505050506020604051808303818588803b1580156120ce57600080fd5b505af11580156120e2573d6000803e3d6000fd5b50505050506040513d60208110156120f957600080fd5b81019080805190602001909291905050509150505b9392505050565b6000813b9050919050565b600061212a6129b5565b9050919050565b60008084905060008685111515612206576020851115156121be57600060018660200360080260020a0319600102905060008186511690506000878a8a0103905060008386511690505b82811415156121b057818610151561219d578a8a01965050505050505061220e565b858060010196505083865116905061217b565b85965050505050505061220e565b60008585209050600091505b858803821115156122045760008684209050808214156121f0578394505050505061220e565b6001840193505081806001019250506121ca565b505b868601925050505b949350505050565b61221e612e65565b600061223c8560000151866020015186600001518760200151612131565b9050846020015183602001818152505084602001518103836000018181525050846000015185602001510181141561227e5760008560000181815250506122a9565b8360000151836000015101856000018181510391508181525050836000015181018560200181815250505b829150509392505050565b5b6020811015156122da57815183526020830192506020820191506020810390506122b5565b60006001826020036101000a0390508019835116818551168181178652505050505050565b600060608390506000809050600080905060008090505b835181101561257b576030848281518110151561232f57fe5b9060200101517f010000000000000000000000000000000000000000000000000000000000000090047f0100000000000000000000000000000000000000000000000000000000000000027f0100000000000000000000000000000000000000000000000000000000000000900460ff161015801561242d5750603984828151811015156123b957fe5b9060200101517f010000000000000000000000000000000000000000000000000000000000000090047f0100000000000000000000000000000000000000000000000000000000000000027f0100000000000000000000000000000000000000000000000000000000000000900460ff1611155b156124e15781156124505760008614156124465761257b565b8580600190039650505b600a830292506030848281518110151561246657fe5b9060200101517f010000000000000000000000000000000000000000000000000000000000000090047f0100000000000000000000000000000000000000000000000000000000000000027f0100000000000000000000000000000000000000000000000000000000000000900460ff16038301925061256e565b602e84828151811015156124f157fe5b9060200101517f010000000000000000000000000000000000000000000000000000000000000090047f0100000000000000000000000000000000000000000000000000000000000000027f0100000000000000000000000000000000000000000000000000000000000000900460ff16141561256d57600191505b5b8080600101915050612316565b50600085111561258e5784600a0a820291505b81935050505092915050565b6060808690506060869050606086905060608690506060869050606081518351855187518951010101016040519080825280601f01601f1916602001820160405280156125f65781602001600182028038833980820191505090505b509050606081905060008090506000809050600090505b88518110156126c057888181518110151561262457fe5b9060200101517f010000000000000000000000000000000000000000000000000000000000000090047f010000000000000000000000000000000000000000000000000000000000000002838380600101945081518110151561268357fe5b9060200101907effffffffffffffffffffffffffffffffffffffffffffffffffffffffffffff1916908160001a905350808060010191505061260d565b600090505b87518110156127785787818151811015156126dc57fe5b9060200101517f010000000000000000000000000000000000000000000000000000000000000090047f010000000000000000000000000000000000000000000000000000000000000002838380600101945081518110151561273b57fe5b9060200101907effffffffffffffffffffffffffffffffffffffffffffffffffffffffffffff1916908160001a90535080806001019150506126c5565b600090505b865181101561283057868181518110151561279457fe5b9060200101517f010000000000000000000000000000000000000000000000000000000000000090047f01000000000000000000000000000000000000000000000000000000000000000283838060010194508151811015156127f357fe5b9060200101907effffffffffffffffffffffffffffffffffffffffffffffffffffffffffffff1916908160001a905350808060010191505061277d565b600090505b85518110156128e857858181518110151561284c57fe5b9060200101517f010000000000000000000000000000000000000000000000000000000000000090047f01000000000000000000000000000000000000000000000000000000000000000283838060010194508151811015156128ab57fe5b9060200101907effffffffffffffffffffffffffffffffffffffffffffffffffffffffffffff1916908160001a9053508080600101915050612835565b600090505b84518110156129a057848181518110151561290457fe5b9060200101517f010000000000000000000000000000000000000000000000000000000000000090047f010000000000000000000000000000000000000000000000000000000000000002838380600101945081518110151561296357fe5b9060200101907effffffffffffffffffffffffffffffffffffffffffffffffffffffffffffff1916908160001a90535080806001019150506128ed565b82995050505050505050505095945050505050565b6000806129d5731d3b2638a7cc9f2cb3d298a3da7a90b67e5506ed612115565b1115612a7757731d3b2638a7cc9f2cb3d298a3da7a90b67e5506ed600560006101000a81548173ffffffffffffffffffffffffffffffffffffffff021916908373ffffffffffffffffffffffffffffffffffffffff160217905550612a6e6040805190810160405280600b81526020017f6574685f6d61696e6e6574000000000000000000000000000000000000000000815250612e4b565b60019050612e48565b6000612a9673c03a2615d5efaf5f49f60b7bb6583eaec212fdf1612115565b1115612b385773c03a2615d5efaf5f49f60b7bb6583eaec212fdf1600560006101000a81548173ffffffffffffffffffffffffffffffffffffffff021916908373ffffffffffffffffffffffffffffffffffffffff160217905550612b2f6040805190810160405280600c81526020017f6574685f726f707374656e330000000000000000000000000000000000000000815250612e4b565b60019050612e48565b6000612b5773b7a07bcf2ba2f2703b24c0691b5278999c59ac7e612115565b1115612bf95773b7a07bcf2ba2f2703b24c0691b5278999c59ac7e600560006101000a81548173ffffffffffffffffffffffffffffffffffffffff021916908373ffffffffffffffffffffffffffffffffffffffff160217905550612bf06040805190810160405280600981526020017f6574685f6b6f76616e0000000000000000000000000000000000000000000000815250612e4b565b60019050612e48565b6000612c1873146500cfd35b22e4a392fe0adc06de1a1368ed48612115565b1115612cba5773146500cfd35b22e4a392fe0adc06de1a1368ed48600560006101000a81548173ffffffffffffffffffffffffffffffffffffffff021916908373ffffffffffffffffffffffffffffffffffffffff160217905550612cb16040805190810160405280600b81526020017f6574685f72696e6b656279000000000000000000000000000000000000000000815250612e4b565b60019050612e48565b6000612cd9736f485c8bf6fc43ea212e93bbf8ce046c7f1cb475612115565b1115612d3d57736f485c8bf6fc43ea212e93bbf8ce046c7f1cb475600560006101000a81548173ffffffffffffffffffffffffffffffffffffffff021916908373ffffffffffffffffffffffffffffffffffffffff16021790555060019050612e48565b6000612d5c7320e12a1f859b3feae5fb2a0a32c18f5a65555bbf612115565b1115612dc0577320e12a1f859b3feae5fb2a0a32c18f5a65555bbf600560006101000a81548173ffffffffffffffffffffffffffffffffffffffff021916908373ffffffffffffffffffffffffffffffffffffffff16021790555060019050612e48565b6000612ddf7351efaf4c8b3c9afbd5ab9f4bbc82784ab6ef8faa612115565b1115612e43577351efaf4c8b3c9afbd5ab9f4bbc82784ab6ef8faa600560006101000a81548173ffffffffffffffffffffffffffffffffffffffff021916908373ffffffffffffffffffffffffffffffffffffffff16021790555060019050612e48565b600090505b90565b8060069080519060200190612e61929190612ea2565b5050565b604080519081016040528060008152602001600081525090565b60c060405190810160405280600690602082028038833980820191505090505090565b828054600181600116156101000203166002900490600052602060002090601f016020900481019282601f10612ee357805160ff1916838001178555612f11565b82800160010185558215612f11579182015b82811115612f10578251825591602001919060010190612ef5565b5b509050612f1e9190612f22565b5090565b612f4491905b80821115612f40576000816000905550600101612f28565b5090565b9056fe5b55524c5d206a736f6e2868747470733a2f2f666c6967687473746174732d746573742d636467776f72707365732e6e6f772e73682f666c65782f726174696e67732f726573742f76312f6a736f6e2f666c696768742f5b55524c5d206a736f6e2868747470733a2f2f6170692e666c6967687473746174732e636f6d2f666c65782f726174696e67732f726573742f76312f6a736f6e2f666c696768742f292e726174696e67735b305d5b276f62736572766174696f6e73272c276c6174653135272c276c6174653330272c276c6174653435272c2763616e63656c6c6564272c276469766572746564275da165627a7a72305820e0d6aeb3b4991dd7468beb19a82ad2dcbc43a4e5088ab3a6ff7bb4a8159596670029",
  "source": "pragma solidity 0.5.2;\n\nimport \"./oraclizeAPI.sol\";\nimport \"./strings.sol\";\nimport \"../../Oracle.sol\";\n\ncontract FlightRatingsOracle is Oracle, usingOraclize {\n    using strings for *;\n\n    modifier onlyOraclize {\n        require(msg.sender == oraclize_cbAddress());\n        _;\n    }\n\n    event OraclizeRequested(uint256 requestId, bytes32 queryId, string url);\n\n    event OraclizeResponded(\n        uint256 requestId,\n        bytes32 queryId,\n        string result,\n        bytes proof\n    );\n\n    bool public testMode = false;\n\n    string private encryptedQuery;\n\n    // Ratings api: https://developer.flightstats.com/api-docs/ratings/v1\n    string constant ORACLIZE_RATINGS_BASE_URL_TEST = \"[URL] json(https://flightstats-test-cdgworpses.now.sh/flex/ratings/rest/v1/json/flight/\";\n    string constant ORACLIZE_RATINGS_BASE_URL = \"[URL] json(https://api.flightstats.com/flex/ratings/rest/v1/json/flight/\";\n    string constant ORACLIZE_RATINGS_QUERY = \").ratings[0]['observations','late15','late30','late45','cancelled','diverted']\";\n\n    uint256 public oraclizeGas = 1500000;\n\n    mapping(bytes32 => uint256) public requests;\n\n    constructor(address _oracleController, string memory _encryptedQuery)\n        public\n        payable\n        Oracle(_oracleController)\n    {\n        encryptedQuery = _encryptedQuery;\n    }\n\n    function setTestMode(bool _testMode) external {\n        // todo: set permissions\n        testMode = _testMode;\n    }\n\n    function setOraclizeGas(uint256 _oraclizeGas) external {\n        // todo: set permissions\n        oraclizeGas = _oraclizeGas;\n    }\n\n    function request(uint256 _requestId, bytes calldata _input) external {\n        // todo: set permissions\n        bytes32 carrierFlightNumber = abi.decode(_input, (bytes32));\n\n        string memory oraclizeUrl = getOraclizeUrl(carrierFlightNumber);\n\n        bytes32 queryId = oraclize_query(\"nested\", oraclizeUrl, oraclizeGas);\n\n        requests[queryId] = _requestId;\n\n        emit OraclizeRequested(_requestId, queryId, oraclizeUrl);\n    }\n\n    function __callback(\n        bytes32 _queryId,\n        string memory _result,\n        bytes memory _proof\n    ) public onlyOraclize {\n        uint256 requestId = requests[_queryId];\n\n        strings.slice memory slResult = _result.toSlice();\n\n        if (bytes(_result).length == 0) {\n            revert(\"Declined (empty result)\");\n        } else {\n            if (slResult.count(\", \".toSlice()) != 5) {\n                revert(\"Declined (invalid result)\");\n            } else {\n                slResult.beyond(\"[\".toSlice()).until(\"]\".toSlice());\n\n                uint[6] memory statistics;\n\n                for (uint i = 0; i <= 5; i++) {\n                    statistics[i] = parseInt(\n                        slResult.split(\", \".toSlice()).toString()\n                    );\n                }\n\n                respond(requestId, abi.encode(statistics));\n            }\n        }\n\n        emit OraclizeResponded(requestId, _queryId, _result, _proof);\n    }\n\n    function getOraclizeUrl(bytes32 _carrierFlightNumber)\n        public\n        view\n        returns (string memory _oraclizeUrl)\n    {\n        string memory url;\n\n        if (testMode == true) {\n            url = strConcat(\n                ORACLIZE_RATINGS_BASE_URL_TEST,\n                b32toString(_carrierFlightNumber),\n                ORACLIZE_RATINGS_QUERY\n            );\n        } else {\n            url = strConcat(\n                ORACLIZE_RATINGS_BASE_URL,\n                b32toString(_carrierFlightNumber),\n                strConcat(\"?${[decrypt] \", encryptedQuery, \"}\"),\n                ORACLIZE_RATINGS_QUERY\n            );\n        }\n\n        _oraclizeUrl = url;\n    }\n\n    function b32toString(bytes32 x) internal pure returns (string memory) {\n        // gas usage: about 1K gas per char.\n        bytes memory bytesString = new bytes(32);\n        uint256 charCount = 0;\n\n        for (uint256 j = 0; j < 32; j++) {\n            byte char = byte(bytes32(uint(x) * 2 ** (8 * j)));\n            if (char != 0) {\n                bytesString[charCount] = char;\n                charCount++;\n            }\n        }\n\n        bytes memory bytesStringTrimmed = new bytes(charCount);\n\n        for (uint256 j = 0; j < charCount; j++) {\n            bytesStringTrimmed[j] = bytesString[j];\n        }\n\n        return string(bytesStringTrimmed);\n    }\n}\n",
  "sourcePath": "/Users/ka/Projects/Altoros/Etherisc/dip-platform/core/gif-contracts/contracts/examples/OraclizeBridgeOracles/FlightRatingsOracle.sol",
  "compiler": {
    "name": "solc",
    "version": "0.5.2+commit.1df8f40c.Emscripten.clang"
  },
  "schemaVersion": "3.0.1",
  "updatedAt": "2019-02-08T13:30:48.866Z",
  "devdoc": {
    "methods": {}
  },
  "userdoc": {
    "methods": {}
  }
}