{
  "contractName": "FlightRatingsOracle",
  "abi": [
    {
      "constant": true,
      "inputs": [
        {
          "name": "",
          "type": "address"
        }
      ],
      "name": "permissions",
      "outputs": [
        {
          "name": "",
          "type": "uint256"
        }
      ],
      "payable": false,
      "stateMutability": "view",
      "type": "function",
      "signature": "0x01e88208"
    },
    {
      "constant": true,
      "inputs": [
        {
          "name": "",
          "type": "uint256"
        }
      ],
      "name": "rolesKeys",
      "outputs": [
        {
          "name": "",
          "type": "bytes32"
        }
      ],
      "payable": false,
      "stateMutability": "view",
      "type": "function",
      "signature": "0x2cf88d9e"
    },
    {
      "constant": true,
      "inputs": [],
      "name": "oraclizeGas",
      "outputs": [
        {
          "name": "",
          "type": "uint256"
        }
      ],
      "payable": false,
      "stateMutability": "view",
      "type": "function",
      "signature": "0x3e9836c6"
    },
    {
      "constant": true,
      "inputs": [
        {
          "name": "",
          "type": "bytes32"
        }
      ],
      "name": "roles",
      "outputs": [
        {
          "name": "",
          "type": "uint256"
        }
      ],
      "payable": false,
      "stateMutability": "view",
      "type": "function",
      "signature": "0x95356651"
    },
    {
      "constant": true,
      "inputs": [
        {
          "name": "",
          "type": "bytes32"
        }
      ],
      "name": "requests",
      "outputs": [
        {
          "name": "",
          "type": "uint256"
        }
      ],
      "payable": false,
      "stateMutability": "view",
      "type": "function",
      "signature": "0x9d866985"
    },
    {
      "constant": true,
      "inputs": [
        {
          "name": "_address",
          "type": "address"
        },
        {
          "name": "_role",
          "type": "bytes32"
        }
      ],
      "name": "hasRole",
      "outputs": [
        {
          "name": "_hasRole",
          "type": "bool"
        }
      ],
      "payable": false,
      "stateMutability": "view",
      "type": "function",
      "signature": "0xac4ab3fb"
    },
    {
      "constant": false,
      "inputs": [
        {
          "name": "_address",
          "type": "address"
        },
        {
          "name": "_role",
          "type": "bytes32"
        }
      ],
      "name": "addRoleToAccount",
      "outputs": [],
      "payable": false,
      "stateMutability": "nonpayable",
      "type": "function",
      "signature": "0xc2e86735"
    },
    {
      "constant": false,
      "inputs": [
        {
          "name": "_role",
          "type": "bytes32"
        }
      ],
      "name": "createRole",
      "outputs": [],
      "payable": false,
      "stateMutability": "nonpayable",
      "type": "function",
      "signature": "0xc42994a2"
    },
    {
      "constant": true,
      "inputs": [],
      "name": "testMode",
      "outputs": [
        {
          "name": "",
          "type": "bool"
        }
      ],
      "payable": false,
      "stateMutability": "view",
      "type": "function",
      "signature": "0xcd9ea342"
    },
    {
      "constant": true,
      "inputs": [],
      "name": "oracleService",
      "outputs": [
        {
          "name": "",
          "type": "address"
        }
      ],
      "payable": false,
      "stateMutability": "view",
      "type": "function",
      "signature": "0xdaa64f95"
    },
    {
      "constant": false,
      "inputs": [
        {
          "name": "_address",
          "type": "address"
        }
      ],
      "name": "cleanRolesForAccount",
      "outputs": [],
      "payable": false,
      "stateMutability": "nonpayable",
      "type": "function",
      "signature": "0xf566e10e"
    },
    {
      "inputs": [
        {
          "name": "_oracleController",
          "type": "address"
        },
        {
          "name": "_encryptedQuery",
          "type": "string"
        }
      ],
      "payable": true,
      "stateMutability": "payable",
      "type": "constructor",
      "signature": "constructor"
    },
    {
      "anonymous": false,
      "inputs": [
        {
          "indexed": false,
          "name": "requestId",
          "type": "uint256"
        },
        {
          "indexed": false,
          "name": "queryId",
          "type": "bytes32"
        },
        {
          "indexed": false,
          "name": "url",
          "type": "string"
        }
      ],
      "name": "OraclizeRequested",
      "type": "event",
      "signature": "0x4b5f60378154b1fdee96be3db9d4c709d5a6637003d11b0efcc09ff5c635f459"
    },
    {
      "anonymous": false,
      "inputs": [
        {
          "indexed": false,
          "name": "requestId",
          "type": "uint256"
        },
        {
          "indexed": false,
          "name": "queryId",
          "type": "bytes32"
        },
        {
          "indexed": false,
          "name": "result",
          "type": "string"
        },
        {
          "indexed": false,
          "name": "proof",
          "type": "bytes"
        }
      ],
      "name": "OraclizeResponded",
      "type": "event",
      "signature": "0x583eba0eebad615e8dfe2e00bcd166c66097833240dc12faf1a1e1eabb6437f1"
    },
    {
      "constant": false,
      "inputs": [
        {
          "name": "_testMode",
          "type": "bool"
        }
      ],
      "name": "setTestMode",
      "outputs": [],
      "payable": false,
      "stateMutability": "nonpayable",
      "type": "function",
      "signature": "0x1ff1292f"
    },
    {
      "constant": false,
      "inputs": [
        {
          "name": "_oraclizeGas",
          "type": "uint256"
        }
      ],
      "name": "setOraclizeGas",
      "outputs": [],
      "payable": false,
      "stateMutability": "nonpayable",
      "type": "function",
      "signature": "0xfbf44a1b"
    },
    {
      "constant": false,
      "inputs": [
        {
          "name": "_requestId",
          "type": "uint256"
        },
        {
          "name": "_input",
          "type": "bytes"
        }
      ],
      "name": "request",
      "outputs": [],
      "payable": false,
      "stateMutability": "nonpayable",
      "type": "function",
      "signature": "0xffc79065"
    },
    {
      "constant": false,
      "inputs": [
        {
          "name": "_myid",
          "type": "bytes32"
        },
        {
          "name": "_result",
          "type": "string"
        }
      ],
      "name": "__callback",
      "outputs": [],
      "payable": false,
      "stateMutability": "nonpayable",
      "type": "function",
      "signature": "0x27dc297e"
    },
    {
      "constant": false,
      "inputs": [
        {
          "name": "_queryId",
          "type": "bytes32"
        },
        {
          "name": "_result",
          "type": "string"
        },
        {
          "name": "_proof",
          "type": "bytes"
        }
      ],
      "name": "__callback",
      "outputs": [],
      "payable": false,
      "stateMutability": "nonpayable",
      "type": "function",
      "signature": "0x38bbfa50"
    },
    {
      "constant": true,
      "inputs": [
        {
          "name": "_carrierFlightNumber",
          "type": "bytes32"
        }
      ],
      "name": "getOraclizeUrl",
      "outputs": [
        {
          "name": "_oraclizeUrl",
          "type": "string"
        }
      ],
      "payable": false,
      "stateMutability": "view",
      "type": "function",
      "signature": "0x956649f4"
    }
  ],
  "bytecode": "0x608060408190526009805460ff191690556216e360600b556200241638819003908190833981018060405260408110156200003957600080fd5b8151602083018051919392830192916401000000008111156200005b57600080fd5b820160208101848111156200006f57600080fd5b81516401000000008111828201871017156200008a57600080fd5b505060038054600160a060020a031916600160a060020a0387161790558051909350620000c19250600a91506020840190620000ca565b5050506200016f565b828054600181600116156101000203166002900490600052602060002090601f016020900481019282601f106200010d57805160ff19168380011785556200013d565b828001600101855582156200013d579182015b828111156200013d57825182559160200191906001019062000120565b506200014b9291506200014f565b5090565b6200016c91905b808211156200014b576000815560010162000156565b90565b612297806200017f6000396000f3fe608060405234801561001057600080fd5b506004361061010f5760003560e060020a900480639d866985116100a6578063cd9ea34211610075578063cd9ea342146104c8578063daa64f95146104d0578063f566e10e146104f4578063fbf44a1b1461051a578063ffc79065146105375761010f565b80639d86698514610422578063ac4ab3fb1461043f578063c2e867351461047f578063c42994a2146104ab5761010f565b806338bbfa50116100e257806338bbfa50146102375780633e9836c61461036b5780639535665114610373578063956649f4146103905761010f565b806301e88208146101145780631ff1292f1461014c57806327dc297e1461016d5780632cf88d9e1461021a575b600080fd5b61013a6004803603602081101561012a57600080fd5b5035600160a060020a03166105ae565b60408051918252519081900360200190f35b61016b6004803603602081101561016257600080fd5b503515156105c0565b005b61016b6004803603604081101561018357600080fd5b813591908101906040810160208201356401000000008111156101a557600080fd5b8201836020820111156101b757600080fd5b803590602001918460018302840111640100000000831117156101d957600080fd5b91908080601f0160208091040260200160405190810160405280939291908181526020018383808284376000920191909152509295506105d3945050505050565b61013a6004803603602081101561023057600080fd5b50356105f3565b61016b6004803603606081101561024d57600080fd5b8135919081019060408101602082013564010000000081111561026f57600080fd5b82018360208201111561028157600080fd5b803590602001918460018302840111640100000000831117156102a357600080fd5b91908080601f01602080910402602001604051908101604052809392919081815260200183838082843760009201919091525092959493602081019350359150506401000000008111156102f657600080fd5b82018360208201111561030857600080fd5b8035906020019184600183028401116401000000008311171561032a57600080fd5b91908080601f016020809104026020016040519081016040528093929190818152602001838380828437600092019190915250929550610612945050505050565b61013a610a0a565b61013a6004803603602081101561038957600080fd5b5035610a10565b6103ad600480360360208110156103a657600080fd5b5035610a22565b6040805160208082528351818301528351919283929083019185019080838360005b838110156103e75781810151838201526020016103cf565b50505050905090810190601f1680156104145780820380516001836020036101000a031916815260200191505b509250505060405180910390f35b61013a6004803603602081101561043857600080fd5b5035610bce565b61046b6004803603604081101561045557600080fd5b50600160a060020a038135169060200135610be0565b604080519115158252519081900360200190f35b61016b6004803603604081101561049557600080fd5b50600160a060020a038135169060200135610c0c565b61016b600480360360208110156104c157600080fd5b5035610c53565b61046b610cb6565b6104d8610cbf565b60408051600160a060020a039092168252519081900360200190f35b61016b6004803603602081101561050a57600080fd5b5035600160a060020a0316610cce565b61016b6004803603602081101561053057600080fd5b5035610ce8565b61016b6004803603604081101561054d57600080fd5b8135919081019060408101602082013564010000000081111561056f57600080fd5b82018360208201111561058157600080fd5b803590602001918460018302840111640100000000831117156105a357600080fd5b509092509050610ced565b60026020526000908152604090205481565b6009805460ff1916911515919091179055565b6040805160008152602081019091526105ef9083908390610612565b5050565b600180548290811061060157fe5b600091825260209091200154905081565b61061a610e1f565b600160a060020a0316331461062e57600080fd5b6000838152600c60205260409020546106456120a8565b61064e8461101d565b90508351600014156106c157604080517f08c379a000000000000000000000000000000000000000000000000000000000815260206004820152601760248201527f4465636c696e65642028656d70747920726573756c7429000000000000000000604482015290519081900360640190fd5b61070f6107026040805190810160405280600281526020017f2c2000000000000000000000000000000000000000000000000000000000000081525061101d565b829063ffffffff61104216565b60051461077d57604080517f08c379a000000000000000000000000000000000000000000000000000000000815260206004820152601960248201527f4465636c696e65642028696e76616c696420726573756c742900000000000000604482015290519081900360640190fd5b6108186107be6040805190810160405280600181526020017f5d0000000000000000000000000000000000000000000000000000000000000081525061101d565b61080c6107ff6040805190810160405280600181526020017f5b0000000000000000000000000000000000000000000000000000000000000081525061101d565b849063ffffffff6110af16565b9063ffffffff61111216565b506108216120bf565b60005b600581116108a35761088a6108856108806108736040805190810160405280600281526020017f2c2000000000000000000000000000000000000000000000000000000000000081525061101d565b869063ffffffff61117016565b611183565b6111d3565b82826006811061089657fe5b6020020152600101610824565b506108f283826040516020018082600660200280838360005b838110156108d45781810151838201526020016108bc565b505050509050019150506040516020818303038152906040526111e0565b507f583eba0eebad615e8dfe2e00bcd166c66097833240dc12faf1a1e1eabb6437f182868686604051808581526020018481526020018060200180602001838103835285818151815260200191508051906020019080838360005b8381101561096557818101518382015260200161094d565b50505050905090810190601f1680156109925780820380516001836020036101000a031916815260200191505b50838103825284518152845160209182019186019080838360005b838110156109c55781810151838201526020016109ad565b50505050905090810190601f1680156109f25780820380516001836020036101000a031916815260200191505b50965050505050505060405180910390a15050505050565b600b5481565b60006020819052908152604090205481565b600954606090819060ff16151560011415610a8357610a7c608060405190810160405280605f815260200161220d605f9139610a5d856112de565b608060405190810160405280604e81526020016121bf604e913961140b565b9050610bc8565b610bc56080604051908101604052806048815260200161217760489139610aa9856112de565b604080518082018252600d81527f3f247b5b646563727970745d2000000000000000000000000000000000000000602080830191909152600a80548451601f60026000196101006001861615020190931692909204918201849004840281018401909552808552610ba69492830182828015610b665780601f10610b3b57610100808354040283529160200191610b66565b820191906000526020600020905b815481529060010190602001808311610b4957829003601f168201915b50505050506040805190810160405280600181526020017f7d0000000000000000000000000000000000000000000000000000000000000081525061140b565b608060405190810160405280604e81526020016121bf604e9139611444565b90505b92915050565b600c6020526000908152604090205481565b60009081526020818152604080832054600160a060020a03909416835260029091528120549091161190565b6000818152602081905260409020541515610c2657600080fd5b60009081526020818152604080832054600160a060020a0390941683526002909152902080549091179055565b60008181526020819052604090205415610c6c57600080fd5b60018054600083815260208190526040812060029290920a909155815480830183559190527fb10e2d527612073b26eecdfd717e6a320cf44b4afac2b0732d9fcbe2b7fa0cf60155565b60095460ff1681565b600354600160a060020a031681565b600160a060020a0316600090815260026020526040812055565b600b55565b600082826020811015610cff57600080fd5b503590506060610d0e82610a22565b90506000610d546040805190810160405280600681526020017f6e6573746564000000000000000000000000000000000000000000000000000081525083600b5461146e565b905085600c6000838152602001908152602001600020819055507f4b5f60378154b1fdee96be3db9d4c709d5a6637003d11b0efcc09ff5c635f4598682846040518084815260200183815260200180602001828103825283818151815260200191508051906020019080838360005b83811015610ddb578181015183820152602001610dc3565b50505050905090810190601f168015610e085780820380516001836020036101000a031916815260200191505b5094505050505060405180910390a1505050505050565b600554600090600160a060020a03161580610e4c5750600554610e4a90600160a060020a0316611873565b155b15610e5d57610e5b6000611877565b505b600560009054906101000a9004600160a060020a0316600160a060020a03166338cc48316040518163ffffffff1660e060020a028152600401602060405180830381600087803b158015610eb057600080fd5b505af1158015610ec4573d6000803e3d6000fd5b505050506040513d6020811015610eda57600080fd5b5051600454600160a060020a03908116911614610f9057600560009054906101000a9004600160a060020a0316600160a060020a03166338cc48316040518163ffffffff1660e060020a028152600401602060405180830381600087803b158015610f4457600080fd5b505af1158015610f58573d6000803e3d6000fd5b505050506040513d6020811015610f6e57600080fd5b505160048054600160a060020a031916600160a060020a039092169190911790555b60048054604080517fc281d19e0000000000000000000000000000000000000000000000000000000081529051600160a060020a039092169263c281d19e928282019260209290829003018186803b158015610feb57600080fd5b505afa158015610fff573d6000803e3d6000fd5b505050506040513d602081101561101557600080fd5b505190505b90565b6110256120a8565b506040805180820190915281518152602082810190820152919050565b60008082600001516110668560000151866020015186600001518760200151611881565b0190505b835160208501510181116110a85782516020808601518651918601516001909501946110a0929185039091039084908490611881565b01905061106a565b5092915050565b6110b76120a8565b8151835110156110c8575081610bc8565b60208083015190840151600191146110ef5750815160208481015190840151829020919020145b801561110a5782518451038452825160208501805190910190525b509192915050565b61111a6120a8565b81518351101561112b575081610bc8565b8151835160208086015190850151910191909103906001908214611159575082516020840151819020908220145b801561116757835185510385525b50929392505050565b6111786120a8565b6110a883838361193c565b60608082600001516040519080825280601f01601f1916602001820160405280156111b5576020820181803883390190505b50905060006020820190506110a881856020015186600001516119ad565b6000610bc88260006119eb565b600354604080517fe409534a0000000000000000000000000000000000000000000000000000000081526004810185815260248201928352845160448301528451600160a060020a039094169363e409534a938793879392606490910190602085019080838360005b83811015611261578181015183820152602001611249565b50505050905090810190601f16801561128e5780820380516001836020036101000a031916815260200191505b509350505050602060405180830381600087803b1580156112ae57600080fd5b505af11580156112c2573d6000803e3d6000fd5b505050506040513d60208110156112d857600080fd5b50505050565b6040805160208082528183019092526060918291906020820181803883390190505090506000805b6020811015611377576008810260020a85027fff0000000000000000000000000000000000000000000000000000000000000081161561136e5780848481518110151561134f57fe5b906020010190600160f860020a031916908160001a9053506001909201915b50600101611306565b506060816040519080825280601f01601f1916602001820160405280156113a5576020820181803883390190505b50905060005b828110156114025783818151811015156113c157fe5b90602001015160f860020a900460f860020a0282828151811015156113e257fe5b906020010190600160f860020a031916908160001a9053506001016113ab565b50949350505050565b606061143a84848460206040519081016040528060008152506020604051908101604052806000815250611b18565b90505b9392505050565b6060611463858585856020604051908101604052806000815250611b18565b90505b949350505050565b600554600090600160a060020a0316158061149b575060055461149990600160a060020a0316611873565b155b156114ac576114aa6000611877565b505b600560009054906101000a9004600160a060020a0316600160a060020a03166338cc48316040518163ffffffff1660e060020a028152600401602060405180830381600087803b1580156114ff57600080fd5b505af1158015611513573d6000803e3d6000fd5b505050506040513d602081101561152957600080fd5b5051600454600160a060020a039081169116146115df57600560009054906101000a9004600160a060020a0316600160a060020a03166338cc48316040518163ffffffff1660e060020a028152600401602060405180830381600087803b15801561159357600080fd5b505af11580156115a7573d6000803e3d6000fd5b505050506040513d60208110156115bd57600080fd5b505160048054600160a060020a031916600160a060020a039092169190911790555b60048054604080517f2ef3accc00000000000000000000000000000000000000000000000000000000815260248101869052928301908152865160448401528651600093600160a060020a0390931692632ef3accc9289928892829160649091019060208601908083838c5b8381101561166357818101518382015260200161164b565b50505050905090810190601f1680156116905780820380516001836020036101000a031916815260200191505b509350505050602060405180830381600087803b1580156116b057600080fd5b505af11580156116c4573d6000803e3d6000fd5b505050506040513d60208110156116da57600080fd5b50519050670de0b6b3a76400003a8402018111156116fc57506000905061143d565b600480546040517fc51be90f000000000000000000000000000000000000000000000000000000008152600092810183815260648201879052608060248301908152895160848401528951600160a060020a039094169463c51be90f94879491938c938c938c93604482019160a4019060208801908083838c5b8381101561178e578181015183820152602001611776565b50505050905090810190601f1680156117bb5780820380516001836020036101000a031916815260200191505b50838103825285518152855160209182019187019080838360005b838110156117ee5781810151838201526020016117d6565b50505050905090810190601f16801561181b5780820380516001836020036101000a031916815260200191505b5096505050505050506020604051808303818588803b15801561183d57600080fd5b505af1158015611851573d6000803e3d6000fd5b50505050506040513d602081101561186857600080fd5b505195945050505050565b3b90565b6000610bc8611d6d565b6000838186851161192f57602085116118f45783518251600019600860208990030260020a011991821690888a018890039083165b8083146118e6578186106118d4578a8a019650505050505050611466565b506001909401805190949083166118b6565b859650505050505050611466565b508383206000905b858803821161192d578583208181141561191c5783945050505050611466565b5060019283019291909101906118fc565b505b5050509290910192915050565b6119446120a8565b60006119628560000151866020015186600001518760200151611881565b6020808701805191860191909152805182038552865190519192500181141561198e57600085526119a4565b8351835186519101900385528351810160208601525b50909392505050565b5b602081106119cd578151835260209283019290910190601f19016119ae565b905182516020929092036101000a6000190180199091169116179052565b6000828180805b8351811015611afd5760308482815181101515611a0b57fe5b90602001015160f860020a900460f860020a0260f860020a900460ff1610158015611a61575060398482815181101515611a4157fe5b90602001015160f860020a900460f860020a0260f860020a900460ff1611155b15611abd578115611a8057851515611a7857611afd565b600019909501945b600a8302925060308482815181101515611a9657fe5b90602001015160f860020a900460f860020a0260f860020a900460ff160383019250611af5565b8381815181101515611acb57fe5b90602001015160f860020a900460f860020a0260f860020a900460ff16602e1415611af557600191505b6001016119f2565b5060008511156114025784600a0a8202915050949350505050565b6060808690506060869050606086905060608690506060869050606081518351855187518951010101016040519080825280601f01601f191660200182016040528015611b6c576020820181803883390190505b509050806000805b8851811015611bd2578881815181101515611b8b57fe5b90602001015160f860020a900460f860020a028383806001019450815181101515611bb257fe5b906020010190600160f860020a031916908160001a905350600101611b74565b5060005b8751811015611c34578781815181101515611bed57fe5b90602001015160f860020a900460f860020a028383806001019450815181101515611c1457fe5b906020010190600160f860020a031916908160001a905350600101611bd6565b5060005b8651811015611c96578681815181101515611c4f57fe5b90602001015160f860020a900460f860020a028383806001019450815181101515611c7657fe5b906020010190600160f860020a031916908160001a905350600101611c38565b5060005b8551811015611cf8578581815181101515611cb157fe5b90602001015160f860020a900460f860020a028383806001019450815181101515611cd857fe5b906020010190600160f860020a031916908160001a905350600101611c9a565b5060005b8451811015611d5a578481815181101515611d1357fe5b90602001015160f860020a900460f860020a028383806001019450815181101515611d3a57fe5b906020010190600160f860020a031916908160001a905350600101611cfc565b50909d9c50505050505050505050505050565b600080611d8d731d3b2638a7cc9f2cb3d298a3da7a90b67e5506ed611873565b1115611dfe5760058054600160a060020a031916731d3b2638a7cc9f2cb3d298a3da7a90b67e5506ed17905560408051808201909152600b81527f6574685f6d61696e6e65740000000000000000000000000000000000000000006020820152611df690612095565b50600161101a565b6000611e1d73c03a2615d5efaf5f49f60b7bb6583eaec212fdf1611873565b1115611e865760058054600160a060020a03191673c03a2615d5efaf5f49f60b7bb6583eaec212fdf117905560408051808201909152600c81527f6574685f726f707374656e3300000000000000000000000000000000000000006020820152611df690612095565b6000611ea573b7a07bcf2ba2f2703b24c0691b5278999c59ac7e611873565b1115611f0e5760058054600160a060020a03191673b7a07bcf2ba2f2703b24c0691b5278999c59ac7e17905560408051808201909152600981527f6574685f6b6f76616e00000000000000000000000000000000000000000000006020820152611df690612095565b6000611f2d73146500cfd35b22e4a392fe0adc06de1a1368ed48611873565b1115611f965760058054600160a060020a03191673146500cfd35b22e4a392fe0adc06de1a1368ed4817905560408051808201909152600b81527f6574685f72696e6b6562790000000000000000000000000000000000000000006020820152611df690612095565b6000611fb5736f485c8bf6fc43ea212e93bbf8ce046c7f1cb475611873565b1115611fe9575060058054600160a060020a031916736f485c8bf6fc43ea212e93bbf8ce046c7f1cb475179055600161101a565b60006120087320e12a1f859b3feae5fb2a0a32c18f5a65555bbf611873565b111561203c575060058054600160a060020a0319167320e12a1f859b3feae5fb2a0a32c18f5a65555bbf179055600161101a565b600061205b7351efaf4c8b3c9afbd5ab9f4bbc82784ab6ef8faa611873565b111561208f575060058054600160a060020a0319167351efaf4c8b3c9afbd5ab9f4bbc82784ab6ef8faa179055600161101a565b50600090565b80516105ef9060069060208401906120de565b604080518082019091526000808252602082015290565b60c0604051908101604052806006906020820280388339509192915050565b828054600181600116156101000203166002900490600052602060002090601f016020900481019282601f1061211f57805160ff191683800117855561214c565b8280016001018555821561214c579182015b8281111561214c578251825591602001919060010190612131565b5061215892915061215c565b5090565b61101a91905b80821115612158576000815560010161216256fe5b55524c5d206a736f6e2868747470733a2f2f6170692e666c6967687473746174732e636f6d2f666c65782f726174696e67732f726573742f76312f6a736f6e2f666c696768742f292e726174696e67735b305d5b276f62736572766174696f6e73272c276c6174653135272c276c6174653330272c276c6174653435272c2763616e63656c6c6564272c276469766572746564275d5b55524c5d206a736f6e2868747470733a2f2f666c696768742d64656c61792d74657374696e672d6170692d7a7878747573757274622e6e6f772e73682f666c65782f726174696e67732f726573742f76312f6a736f6e2f666c696768742fa165627a7a723058209a48e56efad084ffdc66dfdecfca812460aa09e9b17ee076e82bc9c634de638d0029",
  "source": "pragma solidity 0.5.2;\n\nimport \"./oraclizeAPI.sol\";\nimport \"./strings.sol\";\nimport \"../../Oracle.sol\";\n\ncontract FlightRatingsOracle is Oracle, usingOraclize {\n    using strings for *;\n\n    modifier onlyOraclize {\n        require(msg.sender == oraclize_cbAddress());\n        _;\n    }\n\n    event OraclizeRequested(uint256 requestId, bytes32 queryId, string url);\n\n    event OraclizeResponded(\n        uint256 requestId,\n        bytes32 queryId,\n        string result,\n        bytes proof\n    );\n\n    bool public testMode = false;\n\n    string private encryptedQuery;\n\n    // Ratings api: https://developer.flightstats.com/api-docs/ratings/v1\n    string constant ORACLIZE_RATINGS_BASE_URL_TEST = \"[URL] json(https://flight-delay-testing-api-zxxtusurtb.now.sh/flex/ratings/rest/v1/json/flight/\";\n    string constant ORACLIZE_RATINGS_BASE_URL = \"[URL] json(https://api.flightstats.com/flex/ratings/rest/v1/json/flight/\";\n    string constant ORACLIZE_RATINGS_QUERY = \").ratings[0]['observations','late15','late30','late45','cancelled','diverted']\";\n\n    uint256 public oraclizeGas = 1500000;\n\n    mapping(bytes32 => uint256) public requests;\n\n    constructor(address _oracleController, string memory _encryptedQuery)\n        public\n        payable\n        Oracle(_oracleController)\n    {\n        encryptedQuery = _encryptedQuery;\n    }\n\n    function setTestMode(bool _testMode) external {\n        // todo: set permissions\n        testMode = _testMode;\n    }\n\n    function setOraclizeGas(uint256 _oraclizeGas) external {\n        // todo: set permissions\n        oraclizeGas = _oraclizeGas;\n    }\n\n    function request(uint256 _requestId, bytes calldata _input) external {\n        // todo: set permissions\n        bytes32 carrierFlightNumber = abi.decode(_input, (bytes32));\n\n        string memory oraclizeUrl = getOraclizeUrl(carrierFlightNumber);\n\n        bytes32 queryId = oraclize_query(\"nested\", oraclizeUrl, oraclizeGas);\n\n        requests[queryId] = _requestId;\n\n        emit OraclizeRequested(_requestId, queryId, oraclizeUrl);\n    }\n\n    function __callback(\n        bytes32 _queryId,\n        string memory _result,\n        bytes memory _proof\n    ) public onlyOraclize {\n        uint256 requestId = requests[_queryId];\n\n        strings.slice memory slResult = _result.toSlice();\n\n        if (bytes(_result).length == 0) {\n            revert(\"Declined (empty result)\");\n        } else {\n            if (slResult.count(\", \".toSlice()) != 5) {\n                revert(\"Declined (invalid result)\");\n            } else {\n                slResult.beyond(\"[\".toSlice()).until(\"]\".toSlice());\n\n                uint[6] memory statistics;\n\n                for (uint i = 0; i <= 5; i++) {\n                    statistics[i] = parseInt(\n                        slResult.split(\", \".toSlice()).toString()\n                    );\n                }\n\n                respond(requestId, abi.encode(statistics));\n            }\n        }\n\n        emit OraclizeResponded(requestId, _queryId, _result, _proof);\n    }\n\n    function getOraclizeUrl(bytes32 _carrierFlightNumber)\n        public\n        view\n        returns (string memory _oraclizeUrl)\n    {\n        string memory url;\n\n        if (testMode == true) {\n            url = strConcat(\n                ORACLIZE_RATINGS_BASE_URL_TEST,\n                b32toString(_carrierFlightNumber),\n                ORACLIZE_RATINGS_QUERY\n            );\n        } else {\n            url = strConcat(\n                ORACLIZE_RATINGS_BASE_URL,\n                b32toString(_carrierFlightNumber),\n                strConcat(\"?${[decrypt] \", encryptedQuery, \"}\"),\n                ORACLIZE_RATINGS_QUERY\n            );\n        }\n\n        _oraclizeUrl = url;\n    }\n\n    function b32toString(bytes32 x) internal pure returns (string memory) {\n        // gas usage: about 1K gas per char.\n        bytes memory bytesString = new bytes(32);\n        uint256 charCount = 0;\n\n        for (uint256 j = 0; j < 32; j++) {\n            byte char = byte(bytes32(uint(x) * 2 ** (8 * j)));\n            if (char != 0) {\n                bytesString[charCount] = char;\n                charCount++;\n            }\n        }\n\n        bytes memory bytesStringTrimmed = new bytes(charCount);\n\n        for (uint256 j = 0; j < charCount; j++) {\n            bytesStringTrimmed[j] = bytesString[j];\n        }\n\n        return string(bytesStringTrimmed);\n    }\n}\n",
  "sourcePath": "/Users/ka/Projects/Altoros/Etherisc/dip-platform/core/gif-contracts/contracts/examples/OraclizeBridgeOracles/FlightRatingsOracle.sol",
  "compiler": {
    "name": "solc",
    "version": "0.5.2+commit.1df8f40c.Emscripten.clang"
  },
  "schemaVersion": "3.0.1",
  "updatedAt": "2019-02-13T15:25:07.757Z",
  "devdoc": {
    "methods": {}
  },
  "userdoc": {
    "methods": {}
  }
}