{
  "contractName": "FlightDelayOraclize",
  "abi": [
    {
      "constant": true,
      "inputs": [
        {
          "name": "",
          "type": "address"
        }
      ],
      "name": "permissions",
      "outputs": [
        {
          "name": "",
          "type": "uint256"
        }
      ],
      "payable": false,
      "stateMutability": "view",
      "type": "function",
      "signature": "0x01e88208"
    },
    {
      "constant": true,
      "inputs": [],
      "name": "POLICY_FLOW",
      "outputs": [
        {
          "name": "",
          "type": "bytes32"
        }
      ],
      "payable": false,
      "stateMutability": "view",
      "type": "function",
      "signature": "0x09128d83"
    },
    {
      "constant": true,
      "inputs": [],
      "name": "maintenanceMode",
      "outputs": [
        {
          "name": "",
          "type": "bool"
        }
      ],
      "payable": false,
      "stateMutability": "view",
      "type": "function",
      "signature": "0x25dce0a6"
    },
    {
      "constant": true,
      "inputs": [],
      "name": "CHECK_OFFSET",
      "outputs": [
        {
          "name": "",
          "type": "uint256"
        }
      ],
      "payable": false,
      "stateMutability": "view",
      "type": "function",
      "signature": "0x2c41284a"
    },
    {
      "constant": true,
      "inputs": [
        {
          "name": "",
          "type": "uint256"
        }
      ],
      "name": "rolesKeys",
      "outputs": [
        {
          "name": "",
          "type": "bytes32"
        }
      ],
      "payable": false,
      "stateMutability": "view",
      "type": "function",
      "signature": "0x2cf88d9e"
    },
    {
      "constant": true,
      "inputs": [],
      "name": "MIN_OBSERVATIONS",
      "outputs": [
        {
          "name": "",
          "type": "uint256"
        }
      ],
      "payable": false,
      "stateMutability": "view",
      "type": "function",
      "signature": "0x39cee407"
    },
    {
      "constant": true,
      "inputs": [],
      "name": "MAX_PAYOUT",
      "outputs": [
        {
          "name": "",
          "type": "uint256"
        }
      ],
      "payable": false,
      "stateMutability": "view",
      "type": "function",
      "signature": "0x4b9ddafe"
    },
    {
      "constant": true,
      "inputs": [],
      "name": "MAX_PREMIUM",
      "outputs": [
        {
          "name": "",
          "type": "uint256"
        }
      ],
      "payable": false,
      "stateMutability": "view",
      "type": "function",
      "signature": "0x4cdabb16"
    },
    {
      "constant": true,
      "inputs": [
        {
          "name": "",
          "type": "uint256"
        }
      ],
      "name": "requests",
      "outputs": [
        {
          "name": "applicationId",
          "type": "uint256"
        },
        {
          "name": "policyId",
          "type": "uint256"
        },
        {
          "name": "riskId",
          "type": "bytes32"
        }
      ],
      "payable": false,
      "stateMutability": "view",
      "type": "function",
      "signature": "0x81d12c58"
    },
    {
      "constant": true,
      "inputs": [
        {
          "name": "",
          "type": "bytes32"
        }
      ],
      "name": "risks",
      "outputs": [
        {
          "name": "carrierFlightNumber",
          "type": "bytes32"
        },
        {
          "name": "departureYearMonthDay",
          "type": "bytes32"
        },
        {
          "name": "departureTime",
          "type": "uint256"
        },
        {
          "name": "arrivalTime",
          "type": "uint256"
        },
        {
          "name": "delayInMinutes",
          "type": "uint256"
        },
        {
          "name": "delay",
          "type": "uint8"
        },
        {
          "name": "cumulatedWeightedPremium",
          "type": "uint256"
        },
        {
          "name": "premiumMultiplier",
          "type": "uint256"
        },
        {
          "name": "weight",
          "type": "uint256"
        }
      ],
      "payable": false,
      "stateMutability": "view",
      "type": "function",
      "signature": "0x8993021b"
    },
    {
      "constant": true,
      "inputs": [
        {
          "name": "",
          "type": "bytes32"
        }
      ],
      "name": "roles",
      "outputs": [
        {
          "name": "",
          "type": "uint256"
        }
      ],
      "payable": false,
      "stateMutability": "view",
      "type": "function",
      "signature": "0x95356651"
    },
    {
      "constant": true,
      "inputs": [],
      "name": "MAX_FLIGHT_DURATION",
      "outputs": [
        {
          "name": "",
          "type": "uint256"
        }
      ],
      "payable": false,
      "stateMutability": "view",
      "type": "function",
      "signature": "0x972e22eb"
    },
    {
      "constant": true,
      "inputs": [],
      "name": "NAME",
      "outputs": [
        {
          "name": "",
          "type": "bytes32"
        }
      ],
      "payable": false,
      "stateMutability": "view",
      "type": "function",
      "signature": "0xa3f4df7e"
    },
    {
      "constant": true,
      "inputs": [
        {
          "name": "_address",
          "type": "address"
        },
        {
          "name": "_role",
          "type": "bytes32"
        }
      ],
      "name": "hasRole",
      "outputs": [
        {
          "name": "_hasRole",
          "type": "bool"
        }
      ],
      "payable": false,
      "stateMutability": "view",
      "type": "function",
      "signature": "0xac4ab3fb"
    },
    {
      "constant": true,
      "inputs": [],
      "name": "MIN_TIME_BEFORE_DEPARTURE",
      "outputs": [
        {
          "name": "",
          "type": "uint256"
        }
      ],
      "payable": false,
      "stateMutability": "view",
      "type": "function",
      "signature": "0xb7b357ac"
    },
    {
      "constant": true,
      "inputs": [],
      "name": "MIN_PREMIUM",
      "outputs": [
        {
          "name": "",
          "type": "uint256"
        }
      ],
      "payable": false,
      "stateMutability": "view",
      "type": "function",
      "signature": "0xbe5c8f44"
    },
    {
      "constant": false,
      "inputs": [
        {
          "name": "_address",
          "type": "address"
        },
        {
          "name": "_role",
          "type": "bytes32"
        }
      ],
      "name": "addRoleToAccount",
      "outputs": [],
      "payable": false,
      "stateMutability": "nonpayable",
      "type": "function",
      "signature": "0xc2e86735"
    },
    {
      "constant": true,
      "inputs": [],
      "name": "productService",
      "outputs": [
        {
          "name": "",
          "type": "address"
        }
      ],
      "payable": false,
      "stateMutability": "view",
      "type": "function",
      "signature": "0xc37d45bf"
    },
    {
      "constant": false,
      "inputs": [
        {
          "name": "_role",
          "type": "bytes32"
        }
      ],
      "name": "createRole",
      "outputs": [],
      "payable": false,
      "stateMutability": "nonpayable",
      "type": "function",
      "signature": "0xc42994a2"
    },
    {
      "constant": true,
      "inputs": [],
      "name": "developmentMode",
      "outputs": [
        {
          "name": "",
          "type": "bool"
        }
      ],
      "payable": false,
      "stateMutability": "view",
      "type": "function",
      "signature": "0xd6fcaf40"
    },
    {
      "constant": true,
      "inputs": [
        {
          "name": "",
          "type": "uint256"
        }
      ],
      "name": "weightPattern",
      "outputs": [
        {
          "name": "",
          "type": "uint8"
        }
      ],
      "payable": false,
      "stateMutability": "view",
      "type": "function",
      "signature": "0xe32bdf08"
    },
    {
      "constant": false,
      "inputs": [
        {
          "name": "_address",
          "type": "address"
        }
      ],
      "name": "cleanRolesForAccount",
      "outputs": [],
      "payable": false,
      "stateMutability": "nonpayable",
      "type": "function",
      "signature": "0xf566e10e"
    },
    {
      "constant": true,
      "inputs": [
        {
          "name": "",
          "type": "uint256"
        }
      ],
      "name": "currencies",
      "outputs": [
        {
          "name": "",
          "type": "bytes32"
        }
      ],
      "payable": false,
      "stateMutability": "view",
      "type": "function",
      "signature": "0xf6d1c271"
    },
    {
      "inputs": [
        {
          "name": "_productController",
          "type": "address"
        }
      ],
      "payable": false,
      "stateMutability": "nonpayable",
      "type": "constructor",
      "signature": "constructor"
    },
    {
      "anonymous": false,
      "inputs": [
        {
          "indexed": false,
          "name": "requestId",
          "type": "uint256"
        },
        {
          "indexed": false,
          "name": "carrierFlightNumber",
          "type": "bytes32"
        },
        {
          "indexed": false,
          "name": "departureTime",
          "type": "uint256"
        },
        {
          "indexed": false,
          "name": "arrivalTime",
          "type": "uint256"
        }
      ],
      "name": "LogRequestFlightStatistics",
      "type": "event",
      "signature": "0xe857bff72dd2ed1b8242b825b28a9647d6c9128ca89f6e2f8261ed87ffecd914"
    },
    {
      "anonymous": false,
      "inputs": [
        {
          "indexed": false,
          "name": "requestId",
          "type": "uint256"
        },
        {
          "indexed": false,
          "name": "carrierFlightNumber",
          "type": "bytes32"
        },
        {
          "indexed": false,
          "name": "arrivalTime",
          "type": "uint256"
        }
      ],
      "name": "LogRequestFlightStatus",
      "type": "event",
      "signature": "0x9e0191c34cbc564aac9868f50a4cce5db2f167b44d26c02f50e12298b94407ef"
    },
    {
      "anonymous": false,
      "inputs": [
        {
          "indexed": false,
          "name": "policyId",
          "type": "uint256"
        },
        {
          "indexed": false,
          "name": "claimId",
          "type": "uint256"
        },
        {
          "indexed": false,
          "name": "payoutId",
          "type": "uint256"
        },
        {
          "indexed": false,
          "name": "amount",
          "type": "uint256"
        }
      ],
      "name": "LogRequestPayout",
      "type": "event",
      "signature": "0xa03388de5ed101344e2b409e4dc7e74b90fcaa1fa5295d6dab4d209160c39881"
    },
    {
      "anonymous": false,
      "inputs": [
        {
          "indexed": false,
          "name": "requestId",
          "type": "uint256"
        },
        {
          "indexed": false,
          "name": "policyId",
          "type": "uint256"
        }
      ],
      "name": "LogUnprocessableStatus",
      "type": "event",
      "signature": "0xc3b7d47dc0fb0f47f9c9c1df52beba60d745510a2949f6d3ad249fe8b7f1b89b"
    },
    {
      "anonymous": false,
      "inputs": [
        {
          "indexed": false,
          "name": "policyId",
          "type": "uint256"
        }
      ],
      "name": "LogPolicyExpired",
      "type": "event",
      "signature": "0x08b74d3cccbcb3894ccc99c3a75f6a6890f71ea4c039fe60eabd7bee40b1231c"
    },
    {
      "constant": false,
      "inputs": [
        {
          "name": "_carrierFlightNumber",
          "type": "bytes32"
        },
        {
          "name": "_departureYearMonthDay",
          "type": "bytes32"
        },
        {
          "name": "_departureTime",
          "type": "uint256"
        },
        {
          "name": "_arrivalTime",
          "type": "uint256"
        },
        {
          "name": "_premium",
          "type": "uint256"
        },
        {
          "name": "_currency",
          "type": "bytes32"
        },
        {
          "name": "_payoutOptions",
          "type": "uint256[]"
        },
        {
          "name": "_customerExternalId",
          "type": "bytes32"
        }
      ],
      "name": "applyForPolicy",
      "outputs": [],
      "payable": false,
      "stateMutability": "nonpayable",
      "type": "function",
      "signature": "0x26735338"
    },
    {
      "constant": false,
      "inputs": [
        {
          "name": "_requestId",
          "type": "uint256"
        },
        {
          "name": "_response",
          "type": "bytes"
        }
      ],
      "name": "flightStatisticsCallback",
      "outputs": [],
      "payable": false,
      "stateMutability": "nonpayable",
      "type": "function",
      "signature": "0xda65b880"
    },
    {
      "constant": false,
      "inputs": [
        {
          "name": "_requestId",
          "type": "uint256"
        },
        {
          "name": "_response",
          "type": "bytes"
        }
      ],
      "name": "flightStatusCallback",
      "outputs": [],
      "payable": false,
      "stateMutability": "nonpayable",
      "type": "function",
      "signature": "0xac5465a1"
    },
    {
      "constant": false,
      "inputs": [
        {
          "name": "_payoutId",
          "type": "uint256"
        },
        {
          "name": "_sum",
          "type": "uint256"
        }
      ],
      "name": "confirmPayout",
      "outputs": [],
      "payable": false,
      "stateMutability": "nonpayable",
      "type": "function",
      "signature": "0x7f66ae95"
    },
    {
      "constant": true,
      "inputs": [
        {
          "name": "_premium",
          "type": "uint256"
        },
        {
          "name": "_statistics",
          "type": "uint256[6]"
        }
      ],
      "name": "calculatePayouts",
      "outputs": [
        {
          "name": "_weight",
          "type": "uint256"
        },
        {
          "name": "_payoutOptions",
          "type": "uint256[5]"
        }
      ],
      "payable": false,
      "stateMutability": "view",
      "type": "function",
      "signature": "0xc9821073"
    }
  ],
  "bytecode": "0x60806040526000600360006101000a81548160ff0219169083151502179055506000600360016101000a81548160ff0219169083151502179055506020604051908101604052807f455552000000000000000000000000000000000000000000000000000000000081525060049060016200007c9291906200029b565b5060c060405190810160405280600060ff168152602001600060ff168152602001600060ff168152602001601e60ff168152602001603260ff168152602001603260ff168152506005906006620000d5929190620002e0565b50348015620000e357600080fd5b5060405160208062002dbe833981018060405260208110156200010557600080fd5b8101908080519060200190929190505050807f466c6967687444656c61794f7261636c697a65000000000000000000000000007f506f6c696379466c6f7744656661756c7400000000000000000000000000000082600360026101000a81548173ffffffffffffffffffffffffffffffffffffffff021916908373ffffffffffffffffffffffffffffffffffffffff160217905550620001b58282620001bf640100000000026401000000009004565b50505050620003dc565b600360029054906101000a900473ffffffffffffffffffffffffffffffffffffffff1673ffffffffffffffffffffffffffffffffffffffff16632f92673283836040518363ffffffff167c01000000000000000000000000000000000000000000000000000000000281526004018083815260200182815260200192505050602060405180830381600087803b1580156200025957600080fd5b505af11580156200026e573d6000803e3d6000fd5b505050506040513d60208110156200028557600080fd5b8101908080519060200190929190505050505050565b8260018101928215620002cd579160200282015b82811115620002cc578251825591602001919060010190620002af565b5b509050620002dc919062000381565b5090565b826006601f016020900481019282156200036e5791602002820160005b838211156200033d57835183826101000a81548160ff021916908360ff1602179055509260200192600101602081600001049283019260010302620002fd565b80156200036c5782816101000a81549060ff02191690556001016020816000010492830192600103026200033d565b505b5090506200037d9190620003a9565b5090565b620003a691905b80821115620003a257600081600090555060010162000388565b5090565b90565b620003d991905b80821115620003d557600081816101000a81549060ff021916905550600101620003b0565b5090565b90565b6129d280620003ec6000396000f3fe608060405234801561001057600080fd5b50600436106101e1576000357c010000000000000000000000000000000000000000000000000000000090048063a3f4df7e11610116578063c42994a2116100b4578063da65b8801161008e578063da65b8801461083d578063e32bdf08146108c0578063f566e10e14610908578063f6d1c2711461094c576101e1565b8063c42994a21461073b578063c982107314610769578063d6fcaf401461081b576101e1565b8063b7b357ac116100f0578063b7b357ac14610667578063be5c8f4414610685578063c2e86735146106a3578063c37d45bf146106f1576101e1565b8063a3f4df7e14610560578063ac4ab3fb1461057e578063ac5465a1146105e4576101e1565b80634b9ddafe1161018357806381d12c581161015d57806381d12c58146104305780638993021b146104805780639535665114610500578063972e22eb14610542576101e1565b80634b9ddafe146103bc5780634cdabb16146103da5780637f66ae95146103f8576101e1565b806326735338116101bf578063267353381461027e5780632c41284a1461033e5780632cf88d9e1461035c57806339cee4071461039e576101e1565b806301e88208146101e657806309128d831461023e57806325dce0a61461025c575b600080fd5b610228600480360360208110156101fc57600080fd5b81019080803573ffffffffffffffffffffffffffffffffffffffff16906020019092919050505061098e565b6040518082815260200191505060405180910390f35b6102466109a6565b6040518082815260200191505060405180910390f35b6102646109ca565b604051808215151515815260200191505060405180910390f35b61033c600480360361010081101561029557600080fd5b81019080803590602001909291908035906020019092919080359060200190929190803590602001909291908035906020019092919080359060200190929190803590602001906401000000008111156102ee57600080fd5b82018360208201111561030057600080fd5b8035906020019184602083028401116401000000008311171561032257600080fd5b9091929391929390803590602001909291905050506109dd565b005b610346610f14565b6040518082815260200191505060405180910390f35b6103886004803603602081101561037257600080fd5b8101908080359060200190929190505050610f1a565b6040518082815260200191505060405180910390f35b6103a6610f3d565b6040518082815260200191505060405180910390f35b6103c4610f42565b6040518082815260200191505060405180910390f35b6103e2610f48565b6040518082815260200191505060405180910390f35b61042e6004803603604081101561040e57600080fd5b810190808035906020019092919080359060200190929190505050610f4e565b005b61045c6004803603602081101561044657600080fd5b8101908080359060200190929190505050610f5d565b60405180848152602001838152602001828152602001935050505060405180910390f35b6104ac6004803603602081101561049657600080fd5b8101908080359060200190929190505050610f96565b604051808a81526020018981526020018881526020018781526020018681526020018560ff1660ff168152602001848152602001838152602001828152602001995050505050505050505060405180910390f35b61052c6004803603602081101561051657600080fd5b8101908080359060200190929190505050610ff1565b6040518082815260200191505060405180910390f35b61054a611009565b6040518082815260200191505060405180910390f35b610568611010565b6040518082815260200191505060405180910390f35b6105ca6004803603604081101561059457600080fd5b81019080803573ffffffffffffffffffffffffffffffffffffffff16906020019092919080359060200190929190505050611034565b604051808215151515815260200191505060405180910390f35b610665600480360360408110156105fa57600080fd5b81019080803590602001909291908035906020019064010000000081111561062157600080fd5b82018360208201111561063357600080fd5b8035906020019184600183028401116401000000008311171561065557600080fd5b9091929391929390505050611094565b005b61066f6114b9565b6040518082815260200191505060405180910390f35b61068d6114c0565b6040518082815260200191505060405180910390f35b6106ef600480360360408110156106b957600080fd5b81019080803573ffffffffffffffffffffffffffffffffffffffff169060200190929190803590602001909291905050506114c6565b005b6106f9611583565b604051808273ffffffffffffffffffffffffffffffffffffffff1673ffffffffffffffffffffffffffffffffffffffff16815260200191505060405180910390f35b6107676004803603602081101561075157600080fd5b81019080803590602001909291905050506115a9565b005b6107d6600480360360e081101561077f57600080fd5b81019080803590602001909291908060c001906006806020026040519081016040528092919082600660200280828437600081840152601f19601f820116905080830192505050505050919291929050505061161c565b6040518083815260200182600560200280838360005b838110156108075780820151818401526020810190506107ec565b505050509050019250505060405180910390f35b610823611901565b604051808215151515815260200191505060405180910390f35b6108be6004803603604081101561085357600080fd5b81019080803590602001909291908035906020019064010000000081111561087a57600080fd5b82018360208201111561088c57600080fd5b803590602001918460018302840111640100000000831117156108ae57600080fd5b9091929391929390505050611914565b005b6108ec600480360360208110156108d657600080fd5b8101908080359060200190929190505050611d8a565b604051808260ff1660ff16815260200191505060405180910390f35b61094a6004803603602081101561091e57600080fd5b81019080803573ffffffffffffffffffffffffffffffffffffffff169060200190929190505050611db3565b005b6109786004803603602081101561096257600080fd5b8101908080359060200190929190505050611df9565b6040518082815260200191505060405180910390f35b60026020528060005260406000206000915090505481565b7f506f6c696379466c6f7744656661756c7400000000000000000000000000000081565b600360019054906101000a900460ff1681565b6105dc8510151515610a57576040517f08c379a00000000000000000000000000000000000000000000000000000000081526004018080602001828103825260168152602001807f4552524f523a3a494e56414c49445f5052454d49554d0000000000000000000081525060200191505060405180910390fd5b6171488511151515610ad1576040517f08c379a00000000000000000000000000000000000000000000000000000000081526004018080602001828103825260168152602001807f4552524f523a3a494e56414c49445f5052454d49554d0000000000000000000081525060200191505060405180910390fd5b60046000600181101515610ae157fe5b015484141515610b59576040517f08c379a00000000000000000000000000000000000000000000000000000000081526004018080602001828103825260168152602001807f4552524f523a494e56414c49445f43555252454e43590000000000000000000081525060200191505060405180910390fd5b8686111515610bb3576040517f08c379a000000000000000000000000000000000000000000000000000000000815260040180806020018281038252602581526020018061295f6025913960400191505060405180910390fd5b6202a30087018711151515610c13576040517f08c379a000000000000000000000000000000000000000000000000000000000815260040180806020018281038252602581526020018061295f6025913960400191505060405180910390fd5b6201518042018710151515610c73576040517f08c379a000000000000000000000000000000000000000000000000000000000815260040180806020018281038252602581526020018061295f6025913960400191505060405180910390fd5b60008988886040516020018084815260200183815260200182815260200193505050506040516020818303038152906040528051906020012090506000600660008381526020019081526020016000209050600081600001541415610cf7578a81600001819055508981600101819055508881600201819055508781600301819055505b625b8d8081600601548260070154890201101515610d7d576040517f08c379a00000000000000000000000000000000000000000000000000000000081526004018080602001828103825260138152602001807f4552524f523a3a434c55535445525f5249534b0000000000000000000000000081525060200191505060405180910390fd5b600081600601541415610d9757625b8d8081600601819055505b6000610de6848989898980806020026020016040519081016040528093929190818152602001838360200280828437600081840152601f19601f82011690508083019250505050505050611e13565b9050600060078054809190600101610dfe91906128af565b90506000600782815481101515610e1157fe5b90600052602060002090600302019050828160000181905550848160020181905550610eb48e604051602001808281526020019150506040516020818303038152906040526040805190810160405280601881526020017f666c696768745374617469737469637343616c6c6261636b00000000000000008152507f466c69676874526174696e6773000000000000000000000000000000000000006000611f44565b507fe857bff72dd2ed1b8242b825b28a9647d6c9128ca89f6e2f8261ed87ffecd914828f8e8e6040518085815260200184815260200183815260200182815260200194505050505060405180910390a15050505050505050505050505050565b61038481565b600181815481101515610f2957fe5b906000526020600020016000915090505481565b600a81565b61753081565b61714881565b610f588282612132565b505050565b600781815481101515610f6c57fe5b90600052602060002090600302016000915090508060000154908060010154908060020154905083565b60066020528060005260406000206000915090508060000154908060010154908060020154908060030154908060040154908060050160009054906101000a900460ff16908060060154908060070154908060080154905089565b60006020528060005260406000206000915090505481565b6202a30081565b7f466c6967687444656c61794f7261636c697a650000000000000000000000000081565b60008060008084815260200190815260200160002054600260008673ffffffffffffffffffffffffffffffffffffffff1673ffffffffffffffffffffffffffffffffffffffff168152602001908152602001600020541611905092915050565b600080838360408110156110a757600080fd5b8101908080357effffffffffffffffffffffffffffffffffffffffffffffffffffffffffffff19169060200190929190803590602001909291905050509150915060006007868154811015156110f957fe5b9060005260206000209060030201600101549050600060078781548110151561111e57fe5b9060005260206000209060030201600001549050606061113d82612210565b90507f4c00000000000000000000000000000000000000000000000000000000000000857effffffffffffffffffffffffffffffffffffffffffffffffffffffffffffff1916141580156111d357507f4100000000000000000000000000000000000000000000000000000000000000857effffffffffffffffffffffffffffffffffffffffffffffffffffffffffffff191614155b801561122157507f4300000000000000000000000000000000000000000000000000000000000000857effffffffffffffffffffffffffffffffffffffffffffffffffffffffffffff191614155b801561126f57507f4400000000000000000000000000000000000000000000000000000000000000857effffffffffffffffffffffffffffffffffffffffffffffffffffffffffffff191614155b156112bd577fc3b7d47dc0fb0f47f9c9c1df52beba60d745510a2949f6d3ad249fe8b7f1b89b8884604051808381526020018281526020019250505060405180910390a150505050506114b4565b7f4100000000000000000000000000000000000000000000000000000000000000857effffffffffffffffffffffffffffffffffffffffffffffffffffffffffffff191614156113115750505050506114b4565b7f4300000000000000000000000000000000000000000000000000000000000000857effffffffffffffffffffffffffffffffffffffffffffffffffffffffffffff191614156113825761137d8382600381518110151561136e57fe5b9060200190602002015161233b565b6114ae565b7f4400000000000000000000000000000000000000000000000000000000000000857effffffffffffffffffffffffffffffffffffffffffffffffffffffffffffff191614156113f3576113ee838260048151811015156113df57fe5b9060200190602002015161233b565b6114ad565b600f84121580156114045750601e84125b156114305761142b8382600081518110151561141c57fe5b9060200190602002015161233b565b6114ac565b601e84121580156114415750602d84125b1561146d576114688382600181518110151561145957fe5b9060200190602002015161233b565b6114ab565b602d8412151561149e576114998382600281518110151561148a57fe5b9060200190602002015161233b565b6114aa565b6114a983600061233b565b5b5b5b5b5b50505050505b505050565b6201518081565b6105dc81565b600080600083815260200190815260200160002054141515156114e857600080fd5b60008082815260200190815260200160002054600260008473ffffffffffffffffffffffffffffffffffffffff1673ffffffffffffffffffffffffffffffffffffffff1681526020019081526020016000205417600260008473ffffffffffffffffffffffffffffffffffffffff1673ffffffffffffffffffffffffffffffffffffffff168152602001908152602001600020819055505050565b600360029054906101000a900473ffffffffffffffffffffffffffffffffffffffff1681565b6000806000838152602001908152602001600020541415156115ca57600080fd5b60018054905060019060020a0260008083815260200190815260200160002081905550600181908060018154018082558091505090600182039060005260206000200160009091929091909150555050565b60006116266128e1565b6105dc84101515156116a0576040517f08c379a00000000000000000000000000000000000000000000000000000000081526004018080602001828103825260168152602001807f4552524f523a3a494e56414c49445f5052454d49554d0000000000000000000081525060200191505060405180910390fd5b617148841115151561171a576040517f08c379a00000000000000000000000000000000000000000000000000000000081526004018080602001828103825260168152602001807f4552524f523a3a494e56414c49445f5052454d49554d0000000000000000000081525060200191505060405180910390fd5b600a83600060068110151561172b57fe5b60200201511115156117a5576040517f08c379a00000000000000000000000000000000000000000000000000000000081526004018080602001828103825260178152602001807f4552524f523a3a4c4f575f4f42534552564154494f4e5300000000000000000081525060200191505060405180910390fd5b6000600190505b6006811015611824578360006006811015156117c457fe5b602002015161271085836006811015156117da57fe5b60200201516005846006811015156117ee57fe5b602091828204019190069054906101000a900460ff1660ff16020281151561181257fe5b048301925080806001019150506117ac565b5060008214156118535782600060068110151561183d57fe5b6020020151620186a081151561184f57fe5b0491505b60008090505b60058110156118f9578261271060056001840160068110151561187857fe5b602091828204019190069054906101000a900460ff1660ff1687020281151561189d57fe5b0482826005811015156118ac57fe5b60200201818152505061753082826005811015156118c657fe5b602002015111156118ec5761753082826005811015156118e257fe5b6020020181815250505b8080600101915050611859565b509250929050565b600360009054906101000a900460ff1681565b61191c612904565b828260c081101561192c57600080fd5b810190808060c001906006806020026040519081016040528092919082600660200280828437600081840152601f19601f82011690508083019250505050505091929192905050509050600060078581548110151561198757fe5b9060005260206000209060030201600001549050600a8260006006811015156119ac57fe5b60200201511115156119c8576119c1816123fa565b5050611d85565b60006119d3826124a6565b905060606119e083612210565b905060006119ec6128e1565b6119f6848761161c565b9150915060058351141515611a56576040517f08c379a00000000000000000000000000000000000000000000000000000000081526004018080602001828103825260238152602001806129846023913960400191505060405180910390fd5b60008090505b6005811015611b37578181600581101515611a7357fe5b60200201518482815181101515611a8657fe5b90602001906020020151141515611b05576040517f08c379a000000000000000000000000000000000000000000000000000000000815260040180806020018281038252601c8152602001807f4552524f523a3a494e56414c49445f5041594f55545f4f5054494f4e0000000081525060200191505060405180910390fd5b6175308482815181101515611b1657fe5b9060200190602002015111151515611b2a57fe5b8080600101915050611a5c565b50600060078a815481101515611b4957fe5b9060005260206000209060030201600201549050600060066000838152602001908152602001600020600701541415611bc5576127108502600660008381526020019081526020016000206006018190555082620186a0811515611ba957fe5b0460066000838152602001908152602001600020600701819055505b8260066000838152602001908152602001600020600801819055506000611beb8761257b565b9050600060078054809190600101611c0391906128af565b90506000600782815481101515611c1657fe5b90600052602060002090600302019050828160010181905550611d06610384600660008781526020019081526020016000206003015401600660008781526020019081526020016000206000015460066000888152602001908152602001600020600101546040516020018084815260200183815260200182815260200193505050506040516020818303038152906040526040805190810160405280601481526020017f666c6967687453746174757343616c6c6261636b0000000000000000000000008152507f466c6967687453746174757365730000000000000000000000000000000000006001611f44565b507f9e0191c34cbc564aac9868f50a4cce5db2f167b44d26c02f50e12298b94407ef826006600087815260200190815260200160002060000154600660008881526020019081526020016000206003015460405180848152602001838152602001828152602001935050505060405180910390a1505050505050505050505b505050565b600581600681101515611d9957fe5b60209182820401919006915054906101000a900460ff1681565b600260008273ffffffffffffffffffffffffffffffffffffffff1673ffffffffffffffffffffffffffffffffffffffff1681526020019081526020016000206000905550565b600481600181101515611e0857fe5b016000915090505481565b6000600360029054906101000a900473ffffffffffffffffffffffffffffffffffffffff1673ffffffffffffffffffffffffffffffffffffffff1663dc3addf0868686866040518563ffffffff167c01000000000000000000000000000000000000000000000000000000000281526004018085815260200184815260200183815260200180602001828103825283818151815260200191508051906020019060200280838360005b83811015611ed7578082015181840152602081019050611ebc565b5050505090500195505050505050602060405180830381600087803b158015611eff57600080fd5b505af1158015611f13573d6000803e3d6000fd5b505050506040513d6020811015611f2957600080fd5b81019080805190602001909291905050509050949350505050565b6000600360029054906101000a900473ffffffffffffffffffffffffffffffffffffffff1673ffffffffffffffffffffffffffffffffffffffff1663d643ece886863087876040518663ffffffff167c01000000000000000000000000000000000000000000000000000000000281526004018080602001806020018673ffffffffffffffffffffffffffffffffffffffff1673ffffffffffffffffffffffffffffffffffffffff168152602001858152602001848152602001838103835288818151815260200191508051906020019080838360005b8381101561203657808201518184015260208101905061201b565b50505050905090810190601f1680156120635780820380516001836020036101000a031916815260200191505b50838103825287818151815260200191508051906020019080838360005b8381101561209c578082015181840152602081019050612081565b50505050905090810190601f1680156120c95780820380516001836020036101000a031916815260200191505b50975050505050505050602060405180830381600087803b1580156120ed57600080fd5b505af1158015612101573d6000803e3d6000fd5b505050506040513d602081101561211757600080fd5b81019080805190602001909291905050509050949350505050565b6000600360029054906101000a900473ffffffffffffffffffffffffffffffffffffffff1673ffffffffffffffffffffffffffffffffffffffff16635aa6cf9784846040518363ffffffff167c01000000000000000000000000000000000000000000000000000000000281526004018083815260200182815260200192505050602060405180830381600087803b1580156121cd57600080fd5b505af11580156121e1573d6000803e3d6000fd5b505050506040513d60208110156121f757600080fd5b8101908080519060200190929190505050905092915050565b6060600360029054906101000a900473ffffffffffffffffffffffffffffffffffffffff1673ffffffffffffffffffffffffffffffffffffffff1663450d512e836040518263ffffffff167c010000000000000000000000000000000000000000000000000000000002815260040180828152602001915050600060405180830381600087803b1580156122a357600080fd5b505af11580156122b7573d6000803e3d6000fd5b505050506040513d6000823e3d601f19601f8201168201806040525060208110156122e157600080fd5b8101908080516401000000008111156122f957600080fd5b8281019050602081018481111561230f57600080fd5b815185602082028301116401000000008211171561232c57600080fd5b50509291905050509050919050565b60008114156123895761234d82612650565b7f08b74d3cccbcb3894ccc99c3a75f6a6890f71ea4c039fe60eabd7bee40b1231c826040518082815260200191505060405180910390a16123f6565b6000612394836126fc565b905060006123a282846127d1565b90507fa03388de5ed101344e2b409e4dc7e74b90fcaa1fa5295d6dab4d209160c39881848383866040518085815260200184815260200183815260200182815260200194505050505060405180910390a150505b5050565b600360029054906101000a900473ffffffffffffffffffffffffffffffffffffffff1673ffffffffffffffffffffffffffffffffffffffff1663a0355f4e826040518263ffffffff167c010000000000000000000000000000000000000000000000000000000002815260040180828152602001915050600060405180830381600087803b15801561248b57600080fd5b505af115801561249f573d6000803e3d6000fd5b5050505050565b6000600360029054906101000a900473ffffffffffffffffffffffffffffffffffffffff1673ffffffffffffffffffffffffffffffffffffffff16631bf1fffb836040518263ffffffff167c010000000000000000000000000000000000000000000000000000000002815260040180828152602001915050602060405180830381600087803b15801561253957600080fd5b505af115801561254d573d6000803e3d6000fd5b505050506040513d602081101561256357600080fd5b81019080805190602001909291905050509050919050565b6000600360029054906101000a900473ffffffffffffffffffffffffffffffffffffffff1673ffffffffffffffffffffffffffffffffffffffff16636be60f8b836040518263ffffffff167c010000000000000000000000000000000000000000000000000000000002815260040180828152602001915050602060405180830381600087803b15801561260e57600080fd5b505af1158015612622573d6000803e3d6000fd5b505050506040513d602081101561263857600080fd5b81019080805190602001909291905050509050919050565b600360029054906101000a900473ffffffffffffffffffffffffffffffffffffffff1673ffffffffffffffffffffffffffffffffffffffff1663bf81bf43826040518263ffffffff167c010000000000000000000000000000000000000000000000000000000002815260040180828152602001915050600060405180830381600087803b1580156126e157600080fd5b505af11580156126f5573d6000803e3d6000fd5b5050505050565b6000600360029054906101000a900473ffffffffffffffffffffffffffffffffffffffff1673ffffffffffffffffffffffffffffffffffffffff166354f3a32c836040518263ffffffff167c010000000000000000000000000000000000000000000000000000000002815260040180828152602001915050602060405180830381600087803b15801561278f57600080fd5b505af11580156127a3573d6000803e3d6000fd5b505050506040513d60208110156127b957600080fd5b81019080805190602001909291905050509050919050565b6000600360029054906101000a900473ffffffffffffffffffffffffffffffffffffffff1673ffffffffffffffffffffffffffffffffffffffff16636afa434084846040518363ffffffff167c01000000000000000000000000000000000000000000000000000000000281526004018083815260200182815260200192505050602060405180830381600087803b15801561286c57600080fd5b505af1158015612880573d6000803e3d6000fd5b505050506040513d602081101561289657600080fd5b8101908080519060200190929190505050905092915050565b8154818355818111156128dc576003028160030283600052602060002091820191016128db9190612927565b5b505050565b60a060405190810160405280600590602082028038833980820191505090505090565b60c060405190810160405280600690602082028038833980820191505090505090565b61295b91905b8082111561295757600080820160009055600182016000905560028201600090555060030161292d565b5090565b9056fe4552524f523a3a494e56414c49445f4152524956414c2f4445504152545552455f54494d454552524f523a3a494e56414c49445f5041594f55545f4f5054494f4e535f434f554e54a165627a7a72305820629539af750b7347089955806be413be5a1d44ac4d7a4fd8f21a68a17f866b7f0029",
  "source": "pragma solidity 0.5.2;\n\nimport \"../../Product.sol\";\n\ncontract FlightDelayOraclize is Product {\n    event LogRequestFlightStatistics(\n        uint256 requestId,\n        bytes32 carrierFlightNumber,\n        uint256 departureTime,\n        uint256 arrivalTime\n    );\n\n    event LogRequestFlightStatus(\n        uint256 requestId,\n        bytes32 carrierFlightNumber,\n        uint256 arrivalTime\n    );\n\n    event LogRequestPayout(uint256 policyId, uint256 claimId, uint256 payoutId, uint256 amount);\n\n    event LogUnprocessableStatus(uint256 requestId, uint256 policyId);\n\n    event LogPolicyExpired(uint256 policyId);\n\n    bytes32 public constant NAME = \"FlightDelayOraclize\";\n    bytes32 public constant POLICY_FLOW = \"PolicyFlowDefault\";\n\n    // Minimum observations for valid prediction\n    uint256 public constant MIN_OBSERVATIONS = 10;\n    // Minimum time before departure for applying\n    uint256 public constant MIN_TIME_BEFORE_DEPARTURE = 24 hours;\n    // Maximum duration of flight\n    uint256 public constant MAX_FLIGHT_DURATION = 2 days;\n    // Check for delay after .. minutes after scheduled arrival\n    uint256 public constant CHECK_OFFSET = 15 minutes;\n\n    // All amounts expected to be provided in a currencys smallest unit\n    // E.g. 10 EUR = 1000 (1000 cents)\n    uint256 public constant MIN_PREMIUM = 1500;\n    uint256 public constant MAX_PREMIUM = 29000;\n    uint256 public constant MAX_PAYOUT = 30000;\n\n    bytes32[1] public currencies = [bytes32(\"EUR\")];\n\n    // ['observations','late15','late30','late45','cancelled','diverted']\n    uint8[6] public weightPattern = [0, 0, 0, 30, 50, 50];\n\n    // Maximum cumulated weighted premium per risk\n    uint256 constant MAX_CUMULATED_WEIGHTED_PREMIUM = 6000000;\n\n    struct Risk {\n        bytes32 carrierFlightNumber;\n        bytes32 departureYearMonthDay;\n        uint256 departureTime;\n        uint256 arrivalTime;\n        uint delayInMinutes;\n        uint8 delay;\n        uint256 cumulatedWeightedPremium;\n        uint256 premiumMultiplier;\n        uint256 weight;\n    }\n\n    struct RequestMetadata {\n        uint256 applicationId;\n        uint256 policyId;\n        bytes32 riskId;\n    }\n\n    mapping(bytes32 => Risk) public risks;\n\n    RequestMetadata[] public requests;\n\n    constructor(address _productController)\n        public\n        Product(_productController, NAME, POLICY_FLOW)\n    {}\n\n    function applyForPolicy(\n        // domain specific\n        bytes32 _carrierFlightNumber,\n        bytes32 _departureYearMonthDay,\n        uint256 _departureTime,\n        uint256 _arrivalTime,\n        // premium\n        uint256 _premium,\n        bytes32 _currency,\n        uint256[] calldata _payoutOptions,\n        // customer\n        bytes32 _customerExternalId\n    ) external {\n        // Validate input parameters\n        require(_premium >= MIN_PREMIUM, \"ERROR::INVALID_PREMIUM\");\n        require(_premium <= MAX_PREMIUM, \"ERROR::INVALID_PREMIUM\");\n        require(_currency == currencies[0], \"ERROR:INVALID_CURRENCY\");\n        require(\n            _arrivalTime > _departureTime,\n            \"ERROR::INVALID_ARRIVAL/DEPARTURE_TIME\"\n        );\n        require(\n            _departureTime <= _departureTime + MAX_FLIGHT_DURATION,\n            \"ERROR::INVALID_ARRIVAL/DEPARTURE_TIME\"\n        );\n        require(\n            _departureTime >= block.timestamp + MIN_TIME_BEFORE_DEPARTURE,\n            \"ERROR::INVALID_ARRIVAL/DEPARTURE_TIME\"\n        );\n\n        // Create risk if not exists\n        bytes32 riskId = keccak256(\n            abi.encodePacked(_carrierFlightNumber, _departureTime, _arrivalTime)\n        );\n        Risk storage risk = risks[riskId];\n\n        if (risk.carrierFlightNumber == \"\") {\n            risk.carrierFlightNumber = _carrierFlightNumber;\n            risk.departureYearMonthDay = _departureYearMonthDay;\n            risk.departureTime = _departureTime;\n            risk.arrivalTime = _arrivalTime;\n        }\n\n        require(\n            _premium * risk.premiumMultiplier + risk.cumulatedWeightedPremium < MAX_CUMULATED_WEIGHTED_PREMIUM,\n            \"ERROR::CLUSTER_RISK\"\n        );\n\n        if (risk.cumulatedWeightedPremium == 0) {\n            risk.cumulatedWeightedPremium = MAX_CUMULATED_WEIGHTED_PREMIUM;\n        }\n\n        // Create new application\n        uint256 applicationId = newApplication(\n            _customerExternalId,\n            _premium,\n            _currency,\n            _payoutOptions\n        );\n\n        // New request\n        uint256 requestId = requests.length++;\n        RequestMetadata storage requestMetadata = requests[requestId];\n        requestMetadata.applicationId = applicationId;\n        requestMetadata.riskId = riskId;\n\n        request(\n            abi.encode(_carrierFlightNumber),\n            \"flightStatisticsCallback\",\n            \"FlightRatings\",\n            0\n        );\n\n        emit LogRequestFlightStatistics(\n            requestId,\n            _carrierFlightNumber,\n            _departureTime,\n            _arrivalTime\n        );\n    }\n\n    function flightStatisticsCallback(\n        uint256 _requestId,\n        bytes calldata _response\n    ) external {\n        // Statistics: ['observations','late15','late30','late45','cancelled','diverted']\n        uint256[6] memory _statistics = abi.decode(_response, (uint256[6]));\n\n        uint256 applicationId = requests[_requestId].applicationId;\n\n        if (_statistics[0] <= MIN_OBSERVATIONS) {\n            decline(applicationId);\n            return;\n        }\n\n        uint256 premium = getPremium(applicationId);\n        uint256[] memory payoutOptions = getPayoutOptions(applicationId);\n        (uint256 weight, uint256[5] memory calculatedPayouts) = calculatePayouts(\n            premium,\n            _statistics\n        );\n\n        require(\n            payoutOptions.length == calculatedPayouts.length,\n            \"ERROR::INVALID_PAYOUT_OPTIONS_COUNT\"\n        );\n\n        for (uint256 i = 0; i < 5; i++) {\n            require(\n                payoutOptions[i] == calculatedPayouts[i],\n                \"ERROR::INVALID_PAYOUT_OPTION\"\n            );\n            assert(payoutOptions[i] <= MAX_PAYOUT);\n        }\n\n        bytes32 riskId = requests[_requestId].riskId;\n\n        if (risks[riskId].premiumMultiplier == 0) {\n            // It's the first policy for this risk, we accept any premium\n            risks[riskId].cumulatedWeightedPremium = premium * 10000;\n            risks[riskId].premiumMultiplier = 100000 / weight;\n        }\n\n        risks[riskId].weight = weight;\n\n        uint256 policyId = underwrite(applicationId);\n\n        // New request\n        uint256 newRequestId = requests.length++;\n        RequestMetadata storage requestMetadata = requests[newRequestId];\n        requestMetadata.policyId = policyId;\n\n        request(\n            abi.encode(\n                risks[riskId].arrivalTime + CHECK_OFFSET,\n                risks[riskId].carrierFlightNumber,\n                risks[riskId].departureYearMonthDay\n            ),\n            \"flightStatusCallback\",\n            \"FlightStatuses\",\n            1\n        );\n\n        emit LogRequestFlightStatus(\n            newRequestId,\n            risks[riskId].carrierFlightNumber,\n            risks[riskId].arrivalTime\n        );\n    }\n\n    function flightStatusCallback(uint256 _requestId, bytes calldata _response)\n        external\n    {\n        (bytes1 status, int256 delay) = abi.decode(_response, (bytes1, int256));\n\n        uint256 policyId = requests[_requestId].policyId;\n        uint256 applicationId = requests[_requestId].applicationId;\n        uint256[] memory payoutOptions = getPayoutOptions(applicationId);\n\n\n        if (status != \"L\" && status != \"A\" && status != \"C\" && status != \"D\") {\n            emit LogUnprocessableStatus(_requestId, policyId);\n            return;\n        }\n\n        if (status == \"A\") {\n            // todo: active, reschedule oracle call + 45 min\n            return;\n        }\n\n        if (status == \"C\") {\n            resolvePayout(policyId, payoutOptions[3]);\n        } else if (status == \"D\") {\n            resolvePayout(policyId, payoutOptions[4]);\n        } else if (delay >= 15 && delay < 30) {\n            resolvePayout(policyId, payoutOptions[0]);\n        } else if (delay >= 30 && delay < 45) {\n            resolvePayout(policyId, payoutOptions[1]);\n        } else if (delay >= 45) {\n            resolvePayout(policyId, payoutOptions[2]);\n        } else {\n            resolvePayout(policyId, 0);\n        }\n    }\n\n    function confirmPayout(uint256 _payoutId, uint256 _sum) external {\n        payout(_payoutId, _sum);\n    }\n\n    function calculatePayouts(uint256 _premium, uint256[6] memory _statistics)\n        public\n        view\n        returns (uint256 _weight, uint256[5] memory _payoutOptions)\n    {\n        require(_premium >= MIN_PREMIUM, \"ERROR::INVALID_PREMIUM\");\n        require(_premium <= MAX_PREMIUM, \"ERROR::INVALID_PREMIUM\");\n        require(_statistics[0] > MIN_OBSERVATIONS, \"ERROR::LOW_OBSERVATIONS\");\n\n        for (uint256 i = 1; i < 6; i++) {\n            _weight += weightPattern[i] * _statistics[i] * 10000 / _statistics[0];\n            // 1% = 100 / 100% = 10,000\n        }\n\n        // To avoid div0 in the payout section, we have to make a minimal assumption on weight\n        if (_weight == 0) {\n            _weight = 100000 / _statistics[0];\n        }\n\n        for (uint256 i = 0; i < 5; i++) {\n            _payoutOptions[i] = _premium * weightPattern[i + 1] * 10000 / _weight;\n\n            if (_payoutOptions[i] > MAX_PAYOUT) {\n                _payoutOptions[i] = MAX_PAYOUT;\n            }\n        }\n    }\n\n    function resolvePayout(uint256 _policyId, uint256 _payoutAmount) internal {\n        if (_payoutAmount == 0) {\n            expire(_policyId);\n\n            emit LogPolicyExpired(_policyId);\n        } else {\n            uint256 claimId = newClaim(_policyId);\n            uint256 payoutId = confirmClaim(claimId, _payoutAmount);\n\n            emit LogRequestPayout(_policyId, claimId, payoutId, _payoutAmount);\n        }\n    }\n}\n",
  "sourcePath": "/Users/ka/Projects/Altoros/Etherisc/dip-platform/core/gif-contracts/contracts/examples/FlightDelayOraclize/FlightDelayOraclize.sol",
  "compiler": {
    "name": "solc",
    "version": "0.5.2+commit.1df8f40c.Emscripten.clang"
  },
  "schemaVersion": "3.0.1",
  "updatedAt": "2019-02-08T13:28:33.529Z",
  "devdoc": {
    "methods": {}
  },
  "userdoc": {
    "methods": {}
  }
}