{
  "contractName": "Ledger",
  "abi": [
    {
      "constant": true,
      "inputs": [
        {
          "name": "",
          "type": "uint256"
        }
      ],
      "name": "currencyIndexes",
      "outputs": [
        {
          "name": "",
          "type": "bytes32"
        }
      ],
      "payable": false,
      "stateMutability": "view",
      "type": "function"
    },
    {
      "constant": true,
      "inputs": [
        {
          "name": "",
          "type": "bytes32"
        }
      ],
      "name": "currencies",
      "outputs": [
        {
          "name": "code",
          "type": "bytes32"
        },
        {
          "name": "token",
          "type": "address"
        },
        {
          "name": "erc20",
          "type": "bool"
        },
        {
          "name": "erc721",
          "type": "bool"
        },
        {
          "name": "enabled",
          "type": "bool"
        }
      ],
      "payable": false,
      "stateMutability": "view",
      "type": "function"
    },
    {
      "constant": false,
      "inputs": [
        {
          "name": "_registry",
          "type": "address"
        }
      ],
      "name": "assignRegistry",
      "outputs": [],
      "payable": false,
      "stateMutability": "nonpayable",
      "type": "function"
    },
    {
      "constant": true,
      "inputs": [
        {
          "name": "",
          "type": "uint256"
        },
        {
          "name": "",
          "type": "uint256"
        }
      ],
      "name": "ledgerIndexes",
      "outputs": [
        {
          "name": "",
          "type": "bytes32"
        }
      ],
      "payable": false,
      "stateMutability": "view",
      "type": "function"
    },
    {
      "constant": true,
      "inputs": [
        {
          "name": "",
          "type": "uint256"
        },
        {
          "name": "",
          "type": "bytes32"
        }
      ],
      "name": "ledgers",
      "outputs": [
        {
          "name": "premium",
          "type": "int256"
        },
        {
          "name": "riskFund",
          "type": "int256"
        },
        {
          "name": "payout",
          "type": "int256"
        },
        {
          "name": "reward",
          "type": "int256"
        },
        {
          "name": "oracleCosts",
          "type": "int256"
        },
        {
          "name": "balance",
          "type": "int256"
        },
        {
          "name": "enabled",
          "type": "bool"
        }
      ],
      "payable": false,
      "stateMutability": "view",
      "type": "function"
    },
    {
      "constant": true,
      "inputs": [],
      "name": "registry",
      "outputs": [
        {
          "name": "",
          "type": "address"
        }
      ],
      "payable": false,
      "stateMutability": "view",
      "type": "function"
    },
    {
      "constant": true,
      "inputs": [
        {
          "name": "_contractName",
          "type": "bytes32"
        }
      ],
      "name": "getService",
      "outputs": [
        {
          "name": "_addr",
          "type": "address"
        }
      ],
      "payable": false,
      "stateMutability": "view",
      "type": "function"
    },
    {
      "constant": true,
      "inputs": [
        {
          "name": "_contractName",
          "type": "bytes32"
        }
      ],
      "name": "getContract",
      "outputs": [
        {
          "name": "_addr",
          "type": "address"
        }
      ],
      "payable": false,
      "stateMutability": "view",
      "type": "function"
    },
    {
      "constant": false,
      "inputs": [
        {
          "name": "_controller",
          "type": "address"
        }
      ],
      "name": "assignController",
      "outputs": [],
      "payable": false,
      "stateMutability": "nonpayable",
      "type": "function"
    },
    {
      "constant": true,
      "inputs": [],
      "name": "controller",
      "outputs": [
        {
          "name": "",
          "type": "address"
        }
      ],
      "payable": false,
      "stateMutability": "view",
      "type": "function"
    },
    {
      "inputs": [
        {
          "name": "_registry",
          "type": "address"
        }
      ],
      "payable": false,
      "stateMutability": "nonpayable",
      "type": "constructor"
    },
    {
      "payable": false,
      "stateMutability": "nonpayable",
      "type": "fallback"
    }
  ],
  "bytecode": "0x608060405234801561001057600080fd5b506040516020806107c18339810180604052602081101561003057600080fd5b505160008054600160a060020a03909216600160a060020a031990921691909117905561075f806100626000396000f3fe608060405234801561001057600080fd5b50600436106100bb576000357c0100000000000000000000000000000000000000000000000000000000900480637b103999116100835780637b103999146101fb578063da47d8561461021f578063e16c7d981461023c578063ec1bc1ac14610259578063f77c47911461027f576100bb565b8063022f9aba146100d2578063370adc951461010157806351b68ee4146101555780635e07271a1461017b5780636e57e8711461019e575b6005546100d090600160a060020a0316610287565b005b6100ef600480360360208110156100e857600080fd5b503561035e565b60408051918252519081900360200190f35b61011e6004803603602081101561011757600080fd5b503561037d565b60408051958652600160a060020a039094166020860152911515848401521515606084015215156080830152519081900360a00190f35b6100d06004803603602081101561016b57600080fd5b5035600160a060020a03166103f6565b6100ef6004803603604081101561019157600080fd5b50803590602001356104c4565b6101c1600480360360408110156101b457600080fd5b50803590602001356104f4565b604080519788526020880196909652868601949094526060860192909252608085015260a0840152151560c0830152519081900360e00190f35b61020361053d565b60408051600160a060020a039092168252519081900360200190f35b6102036004803603602081101561023557600080fd5b503561054c565b6102036004803603602081101561025257600080fd5b50356105e4565b6100d06004803603602081101561026f57600080fd5b5035600160a060020a031661064a565b6102036106f5565b600160a060020a03811615156102fe57604080517f08c379a000000000000000000000000000000000000000000000000000000000815260206004820152601d60248201527f4552524f523a3a554e4b4e4f574e5f494d504c454d454e544154494f4e000000604482015290519081900360640190fd5b60606000368080601f016020809104026020016040519081016040528093929190818152602001838380828437600092018290525084519495509384935091505060208401855af43d604051816000823e82801561035a578282f35b8282fd5b600280548290811061036c57fe5b600091825260209091200154905081565b60016020819052600091825260409091208054910154600160a060020a0381169060ff740100000000000000000000000000000000000000008204811691750100000000000000000000000000000000000000000081048216917601000000000000000000000000000000000000000000009091041685565b61041f7f44414f000000000000000000000000000000000000000000000000000000000061054c565b600160a060020a0316331461049557604080517f08c379a000000000000000000000000000000000000000000000000000000000815260206004820152601660248201527f4552524f523a3a4e4f545f44414f5f5345525649434500000000000000000000604482015290519081900360640190fd5b6000805473ffffffffffffffffffffffffffffffffffffffff1916600160a060020a0392909216919091179055565b6004602052816000526040600020818154811015156104df57fe5b90600052602060002001600091509150505481565b6003602081815260009384526040808520909152918352912080546001820154600283015493830154600484015460058501546006909501549395929492939192909160ff1687565b600054600160a060020a031681565b60008054604080517fda47d856000000000000000000000000000000000000000000000000000000008152600481018590529051600160a060020a039092169163da47d85691602480820192602092909190829003018186803b1580156105b257600080fd5b505afa1580156105c6573d6000803e3d6000fd5b505050506040513d60208110156105dc57600080fd5b505192915050565b60008054604080517fe16c7d98000000000000000000000000000000000000000000000000000000008152600481018590529051600160a060020a039092169163e16c7d9891602480820192602092909190829003018186803b1580156105b257600080fd5b6106737f44414f000000000000000000000000000000000000000000000000000000000061054c565b600160a060020a031633146106e957604080517f08c379a000000000000000000000000000000000000000000000000000000000815260206004820152601660248201527f4552524f523a3a4e4f545f44414f5f5345525649434500000000000000000000604482015290519081900360640190fd5b6106f281610704565b50565b600554600160a060020a031681565b6005805473ffffffffffffffffffffffffffffffffffffffff1916600160a060020a039290921691909117905556fea165627a7a723058200cbe0be26f6c714ba71b3f3e0afa3939a09c31c9e18cfccb1afd3070ae3388680029",
  "source": "pragma solidity 0.5.2;\n\nimport \"./LedgerStorageModel.sol\";\nimport \"../../shared/WithRegistry.sol\";\nimport \"../../shared/ModuleStorage.sol\";\n\ncontract Ledger is WithRegistry, LedgerStorageModel, ModuleStorage {\n    constructor(address _registry) public WithRegistry(_registry) {}\n}\n",
  "sourcePath": "/Users/ka/Projects/Altoros/Etherisc/dip-platform/core/gif-contracts/contracts/modules/ledger/Ledger.sol",
  "compiler": {
    "name": "solc",
    "version": "0.5.2+commit.1df8f40c.Emscripten.clang"
  },
  "schemaVersion": "3.0.2",
  "updatedAt": "2019-02-15T09:40:03.274Z",
  "devdoc": {
    "methods": {}
  },
  "userdoc": {
    "methods": {}
  }
}