{
  "contractName": "LedgerStorageModel",
  "abi": [
    {
      "constant": true,
      "inputs": [
        {
          "name": "",
          "type": "uint256"
        }
      ],
      "name": "currencyIndexes",
      "outputs": [
        {
          "name": "",
          "type": "bytes32"
        }
      ],
      "payable": false,
      "stateMutability": "view",
      "type": "function"
    },
    {
      "constant": true,
      "inputs": [
        {
          "name": "",
          "type": "bytes32"
        }
      ],
      "name": "currencies",
      "outputs": [
        {
          "name": "code",
          "type": "bytes32"
        },
        {
          "name": "token",
          "type": "address"
        },
        {
          "name": "erc20",
          "type": "bool"
        },
        {
          "name": "erc721",
          "type": "bool"
        },
        {
          "name": "enabled",
          "type": "bool"
        }
      ],
      "payable": false,
      "stateMutability": "view",
      "type": "function"
    },
    {
      "constant": true,
      "inputs": [
        {
          "name": "",
          "type": "uint256"
        },
        {
          "name": "",
          "type": "uint256"
        }
      ],
      "name": "ledgerIndexes",
      "outputs": [
        {
          "name": "",
          "type": "bytes32"
        }
      ],
      "payable": false,
      "stateMutability": "view",
      "type": "function"
    },
    {
      "constant": true,
      "inputs": [
        {
          "name": "",
          "type": "uint256"
        },
        {
          "name": "",
          "type": "bytes32"
        }
      ],
      "name": "ledgers",
      "outputs": [
        {
          "name": "premium",
          "type": "int256"
        },
        {
          "name": "riskFund",
          "type": "int256"
        },
        {
          "name": "payout",
          "type": "int256"
        },
        {
          "name": "reward",
          "type": "int256"
        },
        {
          "name": "oracleCosts",
          "type": "int256"
        },
        {
          "name": "balance",
          "type": "int256"
        },
        {
          "name": "enabled",
          "type": "bool"
        }
      ],
      "payable": false,
      "stateMutability": "view",
      "type": "function"
    }
  ],
  "bytecode": "0x608060405234801561001057600080fd5b50610364806100206000396000f3fe608060405234801561001057600080fd5b5060043610610069576000357c010000000000000000000000000000000000000000000000000000000090048063022f9aba1461006e578063370adc95146100b05780635e07271a146101465780636e57e87114610192575b600080fd5b61009a6004803603602081101561008457600080fd5b810190808035906020019092919050505061020c565b6040518082815260200191505060405180910390f35b6100dc600480360360208110156100c657600080fd5b810190808035906020019092919050505061022f565b604051808681526020018573ffffffffffffffffffffffffffffffffffffffff1673ffffffffffffffffffffffffffffffffffffffff1681526020018415151515815260200183151515158152602001821515151581526020019550505050505060405180910390f35b61017c6004803603604081101561015c57600080fd5b8101908080359060200190929190803590602001909291905050506102ac565b6040518082815260200191505060405180910390f35b6101c8600480360360408110156101a857600080fd5b8101908080359060200190929190803590602001909291905050506102dc565b604051808881526020018781526020018681526020018581526020018481526020018381526020018215151515815260200197505050505050505060405180910390f35b60018181548110151561021b57fe5b906000526020600020016000915090505481565b60006020528060005260406000206000915090508060000154908060010160009054906101000a900473ffffffffffffffffffffffffffffffffffffffff16908060010160149054906101000a900460ff16908060010160159054906101000a900460ff16908060010160169054906101000a900460ff16905085565b6003602052816000526040600020818154811015156102c757fe5b90600052602060002001600091509150505481565b6002602052816000526040600020602052806000526040600020600091509150508060000154908060010154908060020154908060030154908060040154908060050154908060060160009054906101000a900460ff1690508756fea165627a7a72305820334650a5cda7864376c3c8916130fc97c4bb4f7e81a1271e5c2410b4d6bc29290029",
  "source": "pragma solidity 0.5.2;\n\nimport \"./ILedger.sol\";\n\ncontract LedgerStorageModel is ILedger {\n    mapping(bytes32 => Currency) public currencies;\n    bytes32[] public currencyIndexes;\n\n    mapping(uint256 => mapping(bytes32 => Ledger)) public ledgers;\n    mapping(uint256 => bytes32[]) public ledgerIndexes;\n}\n",
  "sourcePath": "/Users/ka/Projects/Altoros/Etherisc/dip-platform/core/gif-contracts/contracts/modules/ledger/LedgerStorageModel.sol",
  "compiler": {
    "name": "solc",
    "version": "0.5.2+commit.1df8f40c.Emscripten.clang"
  },
  "schemaVersion": "3.0.1",
  "updatedAt": "2019-02-07T14:02:02.345Z",
  "devdoc": {
    "methods": {}
  },
  "userdoc": {
    "methods": {}
  }
}