{
  "contractName": "LicenseStorageModel",
  "abi": [
    {
      "constant": true,
      "inputs": [
        {
          "name": "",
          "type": "address"
        }
      ],
      "name": "productIdByAddress",
      "outputs": [
        {
          "name": "",
          "type": "uint256"
        }
      ],
      "payable": false,
      "stateMutability": "view",
      "type": "function"
    },
    {
      "constant": true,
      "inputs": [
        {
          "name": "",
          "type": "uint256"
        }
      ],
      "name": "products",
      "outputs": [
        {
          "name": "name",
          "type": "bytes32"
        },
        {
          "name": "addr",
          "type": "address"
        },
        {
          "name": "policyFlow",
          "type": "bytes32"
        },
        {
          "name": "release",
          "type": "uint256"
        },
        {
          "name": "policyToken",
          "type": "address"
        },
        {
          "name": "approved",
          "type": "bool"
        },
        {
          "name": "paused",
          "type": "bool"
        }
      ],
      "payable": false,
      "stateMutability": "view",
      "type": "function"
    },
    {
      "constant": true,
      "inputs": [
        {
          "name": "",
          "type": "uint256"
        }
      ],
      "name": "registrations",
      "outputs": [
        {
          "name": "name",
          "type": "bytes32"
        },
        {
          "name": "addr",
          "type": "address"
        },
        {
          "name": "policyFlow",
          "type": "bytes32"
        },
        {
          "name": "release",
          "type": "uint256"
        },
        {
          "name": "declined",
          "type": "bool"
        }
      ],
      "payable": false,
      "stateMutability": "view",
      "type": "function"
    },
    {
      "anonymous": false,
      "inputs": [
        {
          "indexed": false,
          "name": "registrationId",
          "type": "uint256"
        },
        {
          "indexed": false,
          "name": "name",
          "type": "bytes32"
        },
        {
          "indexed": false,
          "name": "addr",
          "type": "address"
        }
      ],
      "name": "LogNewRegistration",
      "type": "event"
    },
    {
      "anonymous": false,
      "inputs": [
        {
          "indexed": false,
          "name": "registrationId",
          "type": "uint256"
        }
      ],
      "name": "LogRegistrationDeclined",
      "type": "event"
    },
    {
      "anonymous": false,
      "inputs": [
        {
          "indexed": false,
          "name": "name",
          "type": "bytes32"
        },
        {
          "indexed": false,
          "name": "addr",
          "type": "address"
        },
        {
          "indexed": false,
          "name": "id",
          "type": "uint256"
        }
      ],
      "name": "LogNewProductApproved",
      "type": "event"
    },
    {
      "anonymous": false,
      "inputs": [
        {
          "indexed": false,
          "name": "name",
          "type": "bytes32"
        },
        {
          "indexed": false,
          "name": "addr",
          "type": "address"
        },
        {
          "indexed": false,
          "name": "id",
          "type": "uint256"
        }
      ],
      "name": "LogProductDisapproved",
      "type": "event"
    },
    {
      "anonymous": false,
      "inputs": [
        {
          "indexed": false,
          "name": "name",
          "type": "bytes32"
        },
        {
          "indexed": false,
          "name": "addr",
          "type": "address"
        },
        {
          "indexed": false,
          "name": "id",
          "type": "uint256"
        }
      ],
      "name": "LogProductReapproved",
      "type": "event"
    },
    {
      "anonymous": false,
      "inputs": [
        {
          "indexed": false,
          "name": "name",
          "type": "bytes32"
        },
        {
          "indexed": false,
          "name": "addr",
          "type": "address"
        },
        {
          "indexed": false,
          "name": "id",
          "type": "uint256"
        }
      ],
      "name": "LogProductPaused",
      "type": "event"
    },
    {
      "anonymous": false,
      "inputs": [
        {
          "indexed": false,
          "name": "name",
          "type": "bytes32"
        },
        {
          "indexed": false,
          "name": "addr",
          "type": "address"
        },
        {
          "indexed": false,
          "name": "id",
          "type": "uint256"
        }
      ],
      "name": "LogProductUnpaused",
      "type": "event"
    }
  ],
  "bytecode": "0x608060405234801561001057600080fd5b50610376806100206000396000f3fe608060405234801561001057600080fd5b506004361061005e576000357c010000000000000000000000000000000000000000000000000000000090048063317349f2146100635780637acc0b20146100bb578063f4ddb5be14610187575b600080fd5b6100a56004803603602081101561007957600080fd5b81019080803573ffffffffffffffffffffffffffffffffffffffff169060200190929190505050610215565b6040518082815260200191505060405180910390f35b6100e7600480360360208110156100d157600080fd5b810190808035906020019092919050505061022d565b604051808881526020018773ffffffffffffffffffffffffffffffffffffffff1673ffffffffffffffffffffffffffffffffffffffff1681526020018681526020018581526020018473ffffffffffffffffffffffffffffffffffffffff1673ffffffffffffffffffffffffffffffffffffffff168152602001831515151581526020018215151515815260200197505050505050505060405180910390f35b6101b36004803603602081101561019d57600080fd5b81019080803590602001909291905050506102d8565b604051808681526020018573ffffffffffffffffffffffffffffffffffffffff1673ffffffffffffffffffffffffffffffffffffffff168152602001848152602001838152602001821515151581526020019550505050505060405180910390f35b60026020528060005260406000206000915090505481565b60018181548110151561023c57fe5b90600052602060002090600502016000915090508060000154908060010160009054906101000a900473ffffffffffffffffffffffffffffffffffffffff16908060020154908060030154908060040160009054906101000a900473ffffffffffffffffffffffffffffffffffffffff16908060040160149054906101000a900460ff16908060040160159054906101000a900460ff16905087565b6000818154811015156102e757fe5b90600052602060002090600502016000915090508060000154908060010160009054906101000a900473ffffffffffffffffffffffffffffffffffffffff16908060020154908060030154908060040160009054906101000a900460ff1690508556fea165627a7a723058208e416f7aca4fd7f85b5fe1152a3063d8f7b8c5a6ce183403acf9136b6e1e8e080029",
  "source": "pragma solidity 0.5.2;\n\ncontract LicenseStorageModel {\n    event LogNewRegistration(\n        uint256 registrationId,\n        bytes32 name,\n        address addr\n    );\n\n    event LogRegistrationDeclined(uint256 registrationId);\n\n    event LogNewProductApproved(\n        bytes32 name,\n        address addr,\n        uint256 id\n    );\n\n    event LogProductDisapproved(\n        bytes32 name,\n        address addr,\n        uint256 id\n    );\n\n    event LogProductReapproved(bytes32 name, address addr, uint256 id);\n\n    event LogProductPaused(bytes32 name, address addr, uint256 id);\n\n    event LogProductUnpaused(bytes32 name, address addr, uint256 id);\n\n    struct Registration {\n        bytes32 name;\n        address addr;\n        bytes32 policyFlow;\n        uint256 release;\n        bool declined;\n    }\n\n    struct Product {\n        bytes32 name;\n        address addr;\n        bytes32 policyFlow;\n        uint256 release; // core\n        // uint256 applicationRelease\n        address policyToken;\n        bool approved;\n        bool paused;\n    }\n\n    /**\n     * @dev Registration array\n     */\n    Registration[] public registrations;\n\n    /**\n     * @dev Products\n     */\n    Product[] public products;\n\n    /**\n     * @dev Get product id by contract's address\n     */\n    mapping(address => uint256) public productIdByAddress;\n}\n",
  "sourcePath": "/Users/ka/Projects/Altoros/Etherisc/dip-platform/core/gif-contracts/contracts/modules/license/LicenseStorageModel.sol",
  "compiler": {
    "name": "solc",
    "version": "0.5.2+commit.1df8f40c.Emscripten.clang"
  },
  "schemaVersion": "3.0.1",
  "updatedAt": "2019-02-07T14:02:02.353Z",
  "devdoc": {
    "methods": {}
  },
  "userdoc": {
    "methods": {}
  }
}