{
  "contractName": "LicenseController",
  "abi": [
    {
      "constant": true,
      "inputs": [
        {
          "name": "",
          "type": "address"
        }
      ],
      "name": "productIdByAddress",
      "outputs": [
        {
          "name": "",
          "type": "uint256"
        }
      ],
      "payable": false,
      "stateMutability": "view",
      "type": "function",
      "signature": "0x317349f2"
    },
    {
      "constant": false,
      "inputs": [
        {
          "name": "_registry",
          "type": "address"
        }
      ],
      "name": "assignRegistry",
      "outputs": [],
      "payable": false,
      "stateMutability": "nonpayable",
      "type": "function",
      "signature": "0x51b68ee4"
    },
    {
      "constant": true,
      "inputs": [
        {
          "name": "",
          "type": "uint256"
        }
      ],
      "name": "products",
      "outputs": [
        {
          "name": "name",
          "type": "bytes32"
        },
        {
          "name": "addr",
          "type": "address"
        },
        {
          "name": "policyFlow",
          "type": "bytes32"
        },
        {
          "name": "release",
          "type": "uint256"
        },
        {
          "name": "policyToken",
          "type": "address"
        },
        {
          "name": "approved",
          "type": "bool"
        },
        {
          "name": "paused",
          "type": "bool"
        }
      ],
      "payable": false,
      "stateMutability": "view",
      "type": "function",
      "signature": "0x7acc0b20"
    },
    {
      "constant": true,
      "inputs": [],
      "name": "registry",
      "outputs": [
        {
          "name": "",
          "type": "address"
        }
      ],
      "payable": false,
      "stateMutability": "view",
      "type": "function",
      "signature": "0x7b103999"
    },
    {
      "constant": true,
      "inputs": [],
      "name": "NAME",
      "outputs": [
        {
          "name": "",
          "type": "bytes32"
        }
      ],
      "payable": false,
      "stateMutability": "view",
      "type": "function",
      "signature": "0xa3f4df7e"
    },
    {
      "constant": true,
      "inputs": [],
      "name": "delegator",
      "outputs": [
        {
          "name": "",
          "type": "address"
        }
      ],
      "payable": false,
      "stateMutability": "view",
      "type": "function",
      "signature": "0xce9b7930"
    },
    {
      "constant": true,
      "inputs": [
        {
          "name": "_contractName",
          "type": "bytes32"
        }
      ],
      "name": "getService",
      "outputs": [
        {
          "name": "_addr",
          "type": "address"
        }
      ],
      "payable": false,
      "stateMutability": "view",
      "type": "function",
      "signature": "0xda47d856"
    },
    {
      "constant": true,
      "inputs": [
        {
          "name": "_contractName",
          "type": "bytes32"
        }
      ],
      "name": "getContract",
      "outputs": [
        {
          "name": "_addr",
          "type": "address"
        }
      ],
      "payable": false,
      "stateMutability": "view",
      "type": "function",
      "signature": "0xe16c7d98"
    },
    {
      "constant": false,
      "inputs": [
        {
          "name": "_storage",
          "type": "address"
        }
      ],
      "name": "assignStorage",
      "outputs": [],
      "payable": false,
      "stateMutability": "nonpayable",
      "type": "function",
      "signature": "0xe71359bf"
    },
    {
      "constant": true,
      "inputs": [
        {
          "name": "",
          "type": "uint256"
        }
      ],
      "name": "registrations",
      "outputs": [
        {
          "name": "name",
          "type": "bytes32"
        },
        {
          "name": "addr",
          "type": "address"
        },
        {
          "name": "policyFlow",
          "type": "bytes32"
        },
        {
          "name": "release",
          "type": "uint256"
        },
        {
          "name": "declined",
          "type": "bool"
        }
      ],
      "payable": false,
      "stateMutability": "view",
      "type": "function",
      "signature": "0xf4ddb5be"
    },
    {
      "inputs": [
        {
          "name": "_registry",
          "type": "address"
        }
      ],
      "payable": false,
      "stateMutability": "nonpayable",
      "type": "constructor",
      "signature": "constructor"
    },
    {
      "payable": false,
      "stateMutability": "nonpayable",
      "type": "fallback"
    },
    {
      "anonymous": false,
      "inputs": [
        {
          "indexed": false,
          "name": "registrationId",
          "type": "uint256"
        },
        {
          "indexed": false,
          "name": "name",
          "type": "bytes32"
        },
        {
          "indexed": false,
          "name": "addr",
          "type": "address"
        }
      ],
      "name": "LogNewRegistration",
      "type": "event",
      "signature": "0x03cde8818115ee60db6b27042242f795a8518f099adb9d91ef01977311b502b6"
    },
    {
      "anonymous": false,
      "inputs": [
        {
          "indexed": false,
          "name": "registrationId",
          "type": "uint256"
        }
      ],
      "name": "LogRegistrationDeclined",
      "type": "event",
      "signature": "0x3017cd98b49fcf7c79be07301972429fd12a57efa87f051717007990004edf8f"
    },
    {
      "anonymous": false,
      "inputs": [
        {
          "indexed": false,
          "name": "name",
          "type": "bytes32"
        },
        {
          "indexed": false,
          "name": "addr",
          "type": "address"
        },
        {
          "indexed": false,
          "name": "id",
          "type": "uint256"
        }
      ],
      "name": "LogNewProductApproved",
      "type": "event",
      "signature": "0x08fc0a08e833d49125d8102815da38619a88cc55b305f37b3fff034a02797298"
    },
    {
      "anonymous": false,
      "inputs": [
        {
          "indexed": false,
          "name": "name",
          "type": "bytes32"
        },
        {
          "indexed": false,
          "name": "addr",
          "type": "address"
        },
        {
          "indexed": false,
          "name": "id",
          "type": "uint256"
        }
      ],
      "name": "LogProductDisapproved",
      "type": "event",
      "signature": "0xdf4966c5cb22e75d7b7f7b6c7f6e4b27d3f296506bb096c7c1b791d8d89f2eb0"
    },
    {
      "anonymous": false,
      "inputs": [
        {
          "indexed": false,
          "name": "name",
          "type": "bytes32"
        },
        {
          "indexed": false,
          "name": "addr",
          "type": "address"
        },
        {
          "indexed": false,
          "name": "id",
          "type": "uint256"
        }
      ],
      "name": "LogProductReapproved",
      "type": "event",
      "signature": "0x95146a03c304885127aaec4ef4596a650b64d6d497c946b0bf3be110683d4551"
    },
    {
      "anonymous": false,
      "inputs": [
        {
          "indexed": false,
          "name": "name",
          "type": "bytes32"
        },
        {
          "indexed": false,
          "name": "addr",
          "type": "address"
        },
        {
          "indexed": false,
          "name": "id",
          "type": "uint256"
        }
      ],
      "name": "LogProductPaused",
      "type": "event",
      "signature": "0x0df317d0d880bcb36747c617834e11e45cc8522d95f9818b61ee2039af9e0a87"
    },
    {
      "anonymous": false,
      "inputs": [
        {
          "indexed": false,
          "name": "name",
          "type": "bytes32"
        },
        {
          "indexed": false,
          "name": "addr",
          "type": "address"
        },
        {
          "indexed": false,
          "name": "id",
          "type": "uint256"
        }
      ],
      "name": "LogProductUnpaused",
      "type": "event",
      "signature": "0x28bc9631065e3acee19f8e7186ca452066eedc02d3eb42990f77e320f69eb71e"
    },
    {
      "constant": false,
      "inputs": [
        {
          "name": "_name",
          "type": "bytes32"
        },
        {
          "name": "_addr",
          "type": "address"
        },
        {
          "name": "_policyFlow",
          "type": "bytes32"
        }
      ],
      "name": "register",
      "outputs": [
        {
          "name": "_registrationId",
          "type": "uint256"
        }
      ],
      "payable": false,
      "stateMutability": "nonpayable",
      "type": "function",
      "signature": "0x17ac8902"
    },
    {
      "constant": false,
      "inputs": [
        {
          "name": "_registrationId",
          "type": "uint256"
        }
      ],
      "name": "declineRegistration",
      "outputs": [],
      "payable": false,
      "stateMutability": "nonpayable",
      "type": "function",
      "signature": "0x18b3df9d"
    },
    {
      "constant": false,
      "inputs": [
        {
          "name": "_registrationId",
          "type": "uint256"
        }
      ],
      "name": "approveRegistration",
      "outputs": [
        {
          "name": "_productId",
          "type": "uint256"
        }
      ],
      "payable": false,
      "stateMutability": "nonpayable",
      "type": "function",
      "signature": "0x23fafbe8"
    },
    {
      "constant": false,
      "inputs": [
        {
          "name": "_productId",
          "type": "uint256"
        }
      ],
      "name": "disapproveProduct",
      "outputs": [],
      "payable": false,
      "stateMutability": "nonpayable",
      "type": "function",
      "signature": "0xb4ec459d"
    },
    {
      "constant": false,
      "inputs": [
        {
          "name": "_productId",
          "type": "uint256"
        }
      ],
      "name": "reapproveProduct",
      "outputs": [],
      "payable": false,
      "stateMutability": "nonpayable",
      "type": "function",
      "signature": "0xa8798cc4"
    },
    {
      "constant": false,
      "inputs": [
        {
          "name": "_productId",
          "type": "uint256"
        }
      ],
      "name": "pauseProduct",
      "outputs": [],
      "payable": false,
      "stateMutability": "nonpayable",
      "type": "function",
      "signature": "0xf2272a79"
    },
    {
      "constant": false,
      "inputs": [
        {
          "name": "_productId",
          "type": "uint256"
        }
      ],
      "name": "unpauseProduct",
      "outputs": [],
      "payable": false,
      "stateMutability": "nonpayable",
      "type": "function",
      "signature": "0x1b164987"
    },
    {
      "constant": true,
      "inputs": [
        {
          "name": "_addr",
          "type": "address"
        }
      ],
      "name": "isApprovedProduct",
      "outputs": [
        {
          "name": "_approved",
          "type": "bool"
        }
      ],
      "payable": false,
      "stateMutability": "view",
      "type": "function",
      "signature": "0x02f01e52"
    },
    {
      "constant": true,
      "inputs": [
        {
          "name": "_addr",
          "type": "address"
        }
      ],
      "name": "isPausedProduct",
      "outputs": [
        {
          "name": "_paused",
          "type": "bool"
        }
      ],
      "payable": false,
      "stateMutability": "view",
      "type": "function",
      "signature": "0x8521f79b"
    },
    {
      "constant": true,
      "inputs": [
        {
          "name": "_addr",
          "type": "address"
        }
      ],
      "name": "isValidCall",
      "outputs": [
        {
          "name": "_valid",
          "type": "bool"
        }
      ],
      "payable": false,
      "stateMutability": "view",
      "type": "function",
      "signature": "0xa8ef6228"
    },
    {
      "constant": true,
      "inputs": [
        {
          "name": "_sender",
          "type": "address"
        }
      ],
      "name": "authorize",
      "outputs": [
        {
          "name": "_authorized",
          "type": "bool"
        },
        {
          "name": "_policyFlow",
          "type": "address"
        }
      ],
      "payable": false,
      "stateMutability": "view",
      "type": "function",
      "signature": "0xb6a5d7de"
    },
    {
      "constant": true,
      "inputs": [
        {
          "name": "_addr",
          "type": "address"
        }
      ],
      "name": "getProductId",
      "outputs": [
        {
          "name": "_productId",
          "type": "uint256"
        }
      ],
      "payable": false,
      "stateMutability": "view",
      "type": "function",
      "signature": "0xe91a34fc"
    }
  ],
  "bytecode": "0x608060405234801561001057600080fd5b5060405160208061170f8339810180604052602081101561003057600080fd5b505160038054600160a060020a031916600160a060020a039092169190911790556116af806100606000396000f3fe608060405234801561001057600080fd5b506004361061015f576000357c010000000000000000000000000000000000000000000000000000000090048063a8798cc4116100d5578063da47d85611610099578063da47d85614610424578063e16c7d9814610441578063e71359bf1461045e578063e91a34fc14610484578063f2272a79146104aa578063f4ddb5be146104c75761015f565b8063a8798cc414610373578063a8ef622814610390578063b4ec459d146103b6578063b6a5d7de146103d3578063ce9b79301461041c5761015f565b8063317349f211610127578063317349f21461027057806351b68ee4146102965780637acc0b20146102bc5780637b103999146103215780638521f79b14610345578063a3f4df7e1461036b5761015f565b806302f01e521461019957806317ac8902146101d357806318b3df9d146102175780631b1649871461023657806323fafbe814610253575b60405160e560020a62461bcd0281526004018080602001828103825260248152602001806116406024913960400191505060405180910390fd5b6101bf600480360360208110156101af57600080fd5b5035600160a060020a0316610519565b604080519115158252519081900360200190f35b610205600480360360608110156101e957600080fd5b50803590600160a060020a03602082013516906040013561056e565b60408051918252519081900360200190f35b6102346004803603602081101561022d57600080fd5b5035610643565b005b6102346004803603602081101561024c57600080fd5b5035610765565b6102056004803603602081101561026957600080fd5b50356108c8565b6102056004803603602081101561028657600080fd5b5035600160a060020a0316610b10565b610234600480360360208110156102ac57600080fd5b5035600160a060020a0316610b22565b6102d9600480360360208110156102d257600080fd5b5035610bb0565b60408051978852600160a060020a0396871660208901528781019590955260608701939093529316608085015291151560a084015290151560c0830152519081900360e00190f35b610329610c35565b60408051600160a060020a039092168252519081900360200190f35b6101bf6004803603602081101561035b57600080fd5b5035600160a060020a0316610c44565b610205610c99565b6102346004803603602081101561038957600080fd5b5035610cbd565b6101bf600480360360208110156103a657600080fd5b5035600160a060020a0316610e3f565b610234600480360360208110156103cc57600080fd5b5035610e62565b6103f9600480360360208110156103e957600080fd5b5035600160a060020a0316610fc4565b604080519215158352600160a060020a0390911660208301528051918290030190f35b610329611063565b6103296004803603602081101561043a57600080fd5b5035611072565b6103296004803603602081101561045757600080fd5b5035611109565b6102346004803603602081101561047457600080fd5b5035600160a060020a031661116e565b6102056004803603602081101561049a57600080fd5b5035600160a060020a03166111d9565b610234600480360360208110156104c057600080fd5b50356111f4565b6104e4600480360360208110156104dd57600080fd5b5035611379565b60408051958652600160a060020a03909416602086015284840192909252606084015215156080830152519081900360a00190f35b600160a060020a03811660009081526002602052604081205460018054909190811061054157fe5b906000526020600020906005020160040160149054906101000a900460ff16151560011515149050919050565b6000805461057f8260018301611522565b90506000808281548110151561059157fe5b6000918252602090912060059091020185815560018101805473ffffffffffffffffffffffffffffffffffffffff1916600160a060020a0387161790556002810184905590506105df6113c5565b600382015560048101805460ff191660011790556040805183815260208101879052600160a060020a0386168183015290517f03cde8818115ee60db6b27042242f795a8518f099adb9d91ef01977311b502b69181900360600190a1509392505050565b61065560e860020a6244414f02611072565b600160a060020a031633146106a2576040805160e560020a62461bcd0281526020600482015260166024820152600080516020611664833981519152604482015290519081900360640190fd5b60005481106106fb576040805160e560020a62461bcd02815260206004820152601d60248201527f4552524f525f494e56414c49445f524547495354524154494f4e5f4944000000604482015290519081900360640190fd5b6000808281548110151561070b57fe5b60009182526020918290206004600590920201908101805460ff191660011790556040805185815290519193507f3017cd98b49fcf7c79be07301972429fd12a57efa87f051717007990004edf8f92908290030190a15050565b61077760e860020a6244414f02611072565b600160a060020a031633146107c4576040805160e560020a62461bcd0281526020600482015260166024820152600080516020611664833981519152604482015290519081900360640190fd5b60006001828154811015156107d557fe5b906000526020600020906005020190508060040160159054906101000a900460ff16151560011515141515610854576040805160e560020a62461bcd02815260206004820152601b60248201527f4552524f525f494e56414c49445f5041555345445f5354415455530000000000604482015290519081900360640190fd5b60048101805475ff000000000000000000000000000000000000000000191690558054600182015460408051928352600160a060020a039091166020830152818101849052517f28bc9631065e3acee19f8e7186ca452066eedc02d3eb42990f77e320f69eb71e9181900360600190a15050565b60006108dc60e860020a6244414f02611072565b600160a060020a03163314610929576040805160e560020a62461bcd0281526020600482015260166024820152600080516020611664833981519152604482015290519081900360640190fd5b6000548210610982576040805160e560020a62461bcd02815260206004820152601d60248201527f4552524f525f494e56414c49445f524547495354524154494f4e5f4944000000604482015290519081900360640190fd5b600180549061099390828101611553565b905060006001828154811015156109a657fe5b906000526020600020906005020190506000838154811015156109c557fe5b6000918252602082206005909102015482558054849081106109e357fe5b6000918252602082206001600590920201810154908301805473ffffffffffffffffffffffffffffffffffffffff1916600160a060020a03909216919091179055805484908110610a3057fe5b600091825260208220600260059092020181015490830155805484908110610a5457fe5b6000918252602080832060036005909302018201549184019190915560048301805474ff0000000000000000000000000000000000000000191674010000000000000000000000000000000000000000179055600183018054600160a060020a03908116845260028352604093849020869055845491548451928352169181019190915280820184905290517f08fc0a08e833d49125d8102815da38619a88cc55b305f37b3fff034a027972989181900360600190a150919050565b60026020526000908152604090205481565b610b3460e860020a6244414f02611072565b600160a060020a03163314610b81576040805160e560020a62461bcd0281526020600482015260166024820152600080516020611664833981519152604482015290519081900360640190fd5b6003805473ffffffffffffffffffffffffffffffffffffffff1916600160a060020a0392909216919091179055565b6001805482908110610bbe57fe5b600091825260209091206005909102018054600182015460028301546003840154600490940154929450600160a060020a03918216939092909181169060ff740100000000000000000000000000000000000000008204811691750100000000000000000000000000000000000000000090041687565b600354600160a060020a031681565b600160a060020a038116600090815260026020526040812054600180549091908110610c6c57fe5b906000526020600020906005020160040160159054906101000a900460ff16151560011515149050919050565b7f4c6963656e7365436f6e74726f6c6c657200000000000000000000000000000081565b610ccf60e860020a6244414f02611072565b600160a060020a03163314610d1c576040805160e560020a62461bcd0281526020600482015260166024820152600080516020611664833981519152604482015290519081900360640190fd5b6000600182815481101515610d2d57fe5b60009182526020909120600590910201600481015490915074010000000000000000000000000000000000000000900460ff1615610db5576040805160e560020a62461bcd02815260206004820152601c60248201527f4552524f525f494e56414c49445f415050524f56455f53544154555300000000604482015290519081900360640190fd5b60048101805474ff00000000000000000000000000000000000000001916740100000000000000000000000000000000000000001790558054600182015460408051928352600160a060020a039091166020830152818101849052517f95146a03c304885127aaec4ef4596a650b64d6d497c946b0bf3be110683d45519181900360600190a15050565b6000610e4a82610519565b8015610e5c5750610e5a82610c44565b155b92915050565b610e7460e860020a6244414f02611072565b600160a060020a03163314610ec1576040805160e560020a62461bcd0281526020600482015260166024820152600080516020611664833981519152604482015290519081900360640190fd5b6000600182815481101515610ed257fe5b906000526020600020906005020190508060040160149054906101000a900460ff16151560011515141515610f51576040805160e560020a62461bcd02815260206004820152601c60248201527f4552524f525f494e56414c49445f415050524f56455f53544154555300000000604482015290519081900360640190fd5b60048101805474ff0000000000000000000000000000000000000000191690558054600182015460408051928352600160a060020a039091166020830152818101849052517fdf4966c5cb22e75d7b7f7b6c7f6e4b27d3f296506bb096c7c1b791d8d89f2eb09181900360600190a15050565b600080610fd083610e3f565b600160a060020a0384166000908152600260205260409020546001805492945061105c929091908110610fff57fe5b90600052602060002090600502016003015460016002600087600160a060020a0316600160a060020a031681526020019081526020016000205481548110151561104557fe5b906000526020600020906005020160020154611454565b9050915091565b600454600160a060020a031681565b600354604080517fda47d856000000000000000000000000000000000000000000000000000000008152600481018490529051600092600160a060020a03169163da47d856916024808301926020929190829003018186803b1580156110d757600080fd5b505afa1580156110eb573d6000803e3d6000fd5b505050506040513d602081101561110157600080fd5b505192915050565b600354604080517fe16c7d98000000000000000000000000000000000000000000000000000000008152600481018490529051600092600160a060020a03169163e16c7d98916024808301926020929190829003018186803b1580156110d757600080fd5b61118060e860020a6244414f02611072565b600160a060020a031633146111cd576040805160e560020a62461bcd0281526020600482015260166024820152600080516020611664833981519152604482015290519081900360640190fd5b6111d6816114f3565b50565b600160a060020a031660009081526002602052604090205490565b61120660e860020a6244414f02611072565b600160a060020a03163314611253576040805160e560020a62461bcd0281526020600482015260166024820152600080516020611664833981519152604482015290519081900360640190fd5b600060018281548110151561126457fe5b6000918252602090912060059091020160048101549091507501000000000000000000000000000000000000000000900460ff16156112ed576040805160e560020a62461bcd02815260206004820152601b60248201527f4552524f525f494e56414c49445f5041555345445f5354415455530000000000604482015290519081900360640190fd5b60048101805475ff000000000000000000000000000000000000000000191675010000000000000000000000000000000000000000001790558054600182015460408051928352600160a060020a039091166020830152818101849052517f0df317d0d880bcb36747c617834e11e45cc8522d95f9818b61ee2039af9e0a879181900360600190a15050565b600080548290811061138757fe5b600091825260209091206005909102018054600182015460028301546003840154600490940154929450600160a060020a0390911692909160ff1685565b600354604080517f76b707b70000000000000000000000000000000000000000000000000000000081529051600092600160a060020a0316916376b707b7916004808301926020929190829003018186803b15801561142357600080fd5b505afa158015611437573d6000803e3d6000fd5b505050506040513d602081101561144d57600080fd5b5051919050565b600354604080517fda70cc0300000000000000000000000000000000000000000000000000000000815260048101859052602481018490529051600092600160a060020a03169163da70cc03916044808301926020929190829003018186803b1580156114c057600080fd5b505afa1580156114d4573d6000803e3d6000fd5b505050506040513d60208110156114ea57600080fd5b50519392505050565b6004805473ffffffffffffffffffffffffffffffffffffffff1916600160a060020a0392909216919091179055565b81548183558181111561154e5760050281600502836000526020600020918201910161154e919061157f565b505050565b81548183558181111561154e5760050281600502836000526020600020918201910161154e91906115d8565b6115d591905b808211156115d157600080825560018201805473ffffffffffffffffffffffffffffffffffffffff1916905560028201819055600382015560048101805460ff19169055600501611585565b5090565b90565b6115d591905b808211156115d157600080825560018201805473ffffffffffffffffffffffffffffffffffffffff1916905560028201819055600382015560048101805475ffffffffffffffffffffffffffffffffffffffffffff191690556005016115de56fe4552524f523a3a46414c4c4241434b5f46554e4354494f4e5f4e4f575f414c4c4f5745444552524f523a3a4e4f545f44414f5f5345525649434500000000000000000000a165627a7a72305820443fab43e9f104b1199eb4eb763a7904c46f82d61eaefccd581aeed3fa522ae80029",
  "source": "pragma solidity 0.5.2;\n\nimport \"./LicenseStorageModel.sol\";\nimport \"../../shared/ModuleController.sol\";\n\ncontract LicenseController is LicenseStorageModel, ModuleController {\n    bytes32 public constant NAME = \"LicenseController\";\n\n    constructor(address _registry) public WithRegistry(_registry) {}\n\n    /**\n     * @dev Register new product\n     */\n    function register(bytes32 _name, address _addr, bytes32 _policyFlow)\n        external\n        returns (uint256 _registrationId)\n    {\n        _registrationId = registrations.length++;\n\n        Registration storage newRegistration = registrations[_registrationId];\n        newRegistration.name = _name;\n        newRegistration.addr = _addr;\n        newRegistration.policyFlow = _policyFlow;\n        newRegistration.release = getRelease();\n        newRegistration.declined = true;\n\n        emit LogNewRegistration(_registrationId, _name, _addr);\n    }\n\n    /**\n     * @dev Decline new product registration\n     */\n    function declineRegistration(uint256 _registrationId) external onlyDAO {\n        require(\n            registrations.length > _registrationId,\n            \"ERROR_INVALID_REGISTRATION_ID\"\n        ); // todo: check overflow\n\n        Registration storage registration = registrations[_registrationId];\n        registration.declined = true;\n\n        emit LogRegistrationDeclined(_registrationId);\n    }\n\n    /**\n     * @dev Approve registration and create new product\n     */\n    function approveRegistration(uint256 _registrationId)\n        external\n        onlyDAO\n        returns (uint256 _productId)\n    {\n        require(\n            registrations.length > _registrationId,\n            \"ERROR_INVALID_REGISTRATION_ID\"\n        ); // todo: check overflow\n\n        _productId = products.length++;\n\n        Product storage newProduct = products[_productId];\n        newProduct.name = registrations[_registrationId].name;\n        newProduct.addr = registrations[_registrationId].addr;\n        newProduct.policyFlow = registrations[_registrationId].policyFlow;\n        newProduct.release = registrations[_registrationId].release;\n        newProduct.approved = true;\n\n        productIdByAddress[newProduct.addr] = _productId;\n\n        // create new erc721 token\n\n        emit LogNewProductApproved(\n            newProduct.name,\n            newProduct.addr,\n            _productId\n        );\n    }\n\n    /**\n     * @dev Disapprove product once it was approved\n     */\n    function disapproveProduct(uint256 _productId) external onlyDAO {\n        Product storage product = products[_productId];\n\n        require(product.approved == true, \"ERROR_INVALID_APPROVE_STATUS\");\n\n        product.approved = false;\n\n        emit LogProductDisapproved(product.name, product.addr, _productId);\n    }\n\n    /**\n     * @dev Reapprove product once it was disapproved\n     */\n    function reapproveProduct(uint256 _productId) external onlyDAO {\n        Product storage product = products[_productId];\n\n        require(product.approved == false, \"ERROR_INVALID_APPROVE_STATUS\");\n\n        product.approved = true;\n\n        emit LogProductReapproved(product.name, product.addr, _productId);\n    }\n\n    /**\n     * @dev Pause product\n     */\n    function pauseProduct(uint256 _productId) external onlyDAO {\n        Product storage product = products[_productId];\n\n        require(product.paused == false, \"ERROR_INVALID_PAUSED_STATUS\");\n\n        product.paused = true;\n\n        emit LogProductPaused(product.name, product.addr, _productId);\n    }\n\n    /**\n     * @dev Unpause product\n     */\n    function unpauseProduct(uint256 _productId) external onlyDAO {\n        Product storage product = products[_productId];\n\n        require(product.paused == true, \"ERROR_INVALID_PAUSED_STATUS\");\n\n        product.paused = false;\n\n        emit LogProductUnpaused(product.name, product.addr, _productId);\n    }\n\n    /**\n     * @dev Check if contract is approved product\n     */\n    function isApprovedProduct(address _addr)\n        public\n        view\n        returns (bool _approved)\n    {\n        _approved = products[productIdByAddress[_addr]].approved == true;\n    }\n\n    /**\n     * @dev Check if contract is paused product\n     */\n    function isPausedProduct(address _addr) public view returns (bool _paused) {\n        _paused = products[productIdByAddress[_addr]].paused == true;\n    }\n\n    function isValidCall(address _addr) public view returns (bool _valid) {\n        _valid = isApprovedProduct(_addr) && !isPausedProduct(_addr);\n    }\n\n    function authorize(address _sender)\n        public\n        view\n        returns (bool _authorized, address _policyFlow)\n    {\n        _authorized = isValidCall(_sender);\n        _policyFlow = getContractInRelease(\n            products[productIdByAddress[_sender]].release,\n            products[productIdByAddress[_sender]].policyFlow\n        );\n    }\n\n    function getProductId(address _addr)\n        public\n        view\n        returns (uint256 _productId)\n    {\n        _productId = productIdByAddress[_addr];\n    }\n}\n",
  "sourcePath": "/Users/ka/Projects/Altoros/Etherisc/dip-platform/core/gif-contracts/contracts/modules/license/LicenseController.sol",
  "compiler": {
    "name": "solc",
    "version": "0.5.2+commit.1df8f40c.Emscripten.clang"
  },
  "schemaVersion": "3.0.1",
  "updatedAt": "2019-02-11T09:40:07.267Z",
  "devdoc": {
    "methods": {
      "approveRegistration(uint256)": {
        "details": "Approve registration and create new product"
      },
      "declineRegistration(uint256)": {
        "details": "Decline new product registration"
      },
      "disapproveProduct(uint256)": {
        "details": "Disapprove product once it was approved"
      },
      "isApprovedProduct(address)": {
        "details": "Check if contract is approved product"
      },
      "isPausedProduct(address)": {
        "details": "Check if contract is paused product"
      },
      "pauseProduct(uint256)": {
        "details": "Pause product"
      },
      "reapproveProduct(uint256)": {
        "details": "Reapprove product once it was disapproved"
      },
      "register(bytes32,address,bytes32)": {
        "details": "Register new product"
      },
      "unpauseProduct(uint256)": {
        "details": "Unpause product"
      }
    }
  },
  "userdoc": {
    "methods": {}
  }
}