{
  "contractName": "LicenseController",
  "abi": [
    {
      "constant": true,
      "inputs": [
        {
          "name": "",
          "type": "address"
        }
      ],
      "name": "productIdByAddress",
      "outputs": [
        {
          "name": "",
          "type": "uint256"
        }
      ],
      "payable": false,
      "stateMutability": "view",
      "type": "function",
      "signature": "0x317349f2"
    },
    {
      "constant": false,
      "inputs": [
        {
          "name": "_registry",
          "type": "address"
        }
      ],
      "name": "assignRegistry",
      "outputs": [],
      "payable": false,
      "stateMutability": "nonpayable",
      "type": "function",
      "signature": "0x51b68ee4"
    },
    {
      "constant": true,
      "inputs": [
        {
          "name": "",
          "type": "uint256"
        }
      ],
      "name": "products",
      "outputs": [
        {
          "name": "name",
          "type": "bytes32"
        },
        {
          "name": "addr",
          "type": "address"
        },
        {
          "name": "policyFlow",
          "type": "bytes32"
        },
        {
          "name": "release",
          "type": "uint256"
        },
        {
          "name": "policyToken",
          "type": "address"
        },
        {
          "name": "approved",
          "type": "bool"
        },
        {
          "name": "paused",
          "type": "bool"
        }
      ],
      "payable": false,
      "stateMutability": "view",
      "type": "function",
      "signature": "0x7acc0b20"
    },
    {
      "constant": true,
      "inputs": [],
      "name": "registry",
      "outputs": [
        {
          "name": "",
          "type": "address"
        }
      ],
      "payable": false,
      "stateMutability": "view",
      "type": "function",
      "signature": "0x7b103999"
    },
    {
      "constant": true,
      "inputs": [],
      "name": "NAME",
      "outputs": [
        {
          "name": "",
          "type": "bytes32"
        }
      ],
      "payable": false,
      "stateMutability": "view",
      "type": "function",
      "signature": "0xa3f4df7e"
    },
    {
      "constant": true,
      "inputs": [],
      "name": "delegator",
      "outputs": [
        {
          "name": "",
          "type": "address"
        }
      ],
      "payable": false,
      "stateMutability": "view",
      "type": "function",
      "signature": "0xce9b7930"
    },
    {
      "constant": true,
      "inputs": [
        {
          "name": "_contractName",
          "type": "bytes32"
        }
      ],
      "name": "getService",
      "outputs": [
        {
          "name": "_addr",
          "type": "address"
        }
      ],
      "payable": false,
      "stateMutability": "view",
      "type": "function",
      "signature": "0xda47d856"
    },
    {
      "constant": true,
      "inputs": [
        {
          "name": "_contractName",
          "type": "bytes32"
        }
      ],
      "name": "getContract",
      "outputs": [
        {
          "name": "_addr",
          "type": "address"
        }
      ],
      "payable": false,
      "stateMutability": "view",
      "type": "function",
      "signature": "0xe16c7d98"
    },
    {
      "constant": false,
      "inputs": [
        {
          "name": "_storage",
          "type": "address"
        }
      ],
      "name": "assignStorage",
      "outputs": [],
      "payable": false,
      "stateMutability": "nonpayable",
      "type": "function",
      "signature": "0xe71359bf"
    },
    {
      "constant": true,
      "inputs": [
        {
          "name": "",
          "type": "uint256"
        }
      ],
      "name": "registrations",
      "outputs": [
        {
          "name": "name",
          "type": "bytes32"
        },
        {
          "name": "addr",
          "type": "address"
        },
        {
          "name": "policyFlow",
          "type": "bytes32"
        },
        {
          "name": "release",
          "type": "uint256"
        },
        {
          "name": "declined",
          "type": "bool"
        }
      ],
      "payable": false,
      "stateMutability": "view",
      "type": "function",
      "signature": "0xf4ddb5be"
    },
    {
      "inputs": [
        {
          "name": "_registry",
          "type": "address"
        }
      ],
      "payable": false,
      "stateMutability": "nonpayable",
      "type": "constructor",
      "signature": "constructor"
    },
    {
      "payable": false,
      "stateMutability": "nonpayable",
      "type": "fallback"
    },
    {
      "anonymous": false,
      "inputs": [
        {
          "indexed": false,
          "name": "registrationId",
          "type": "uint256"
        },
        {
          "indexed": false,
          "name": "name",
          "type": "bytes32"
        },
        {
          "indexed": false,
          "name": "addr",
          "type": "address"
        }
      ],
      "name": "LogNewRegistration",
      "type": "event",
      "signature": "0x03cde8818115ee60db6b27042242f795a8518f099adb9d91ef01977311b502b6"
    },
    {
      "anonymous": false,
      "inputs": [
        {
          "indexed": false,
          "name": "registrationId",
          "type": "uint256"
        }
      ],
      "name": "LogRegistrationDeclined",
      "type": "event",
      "signature": "0x3017cd98b49fcf7c79be07301972429fd12a57efa87f051717007990004edf8f"
    },
    {
      "anonymous": false,
      "inputs": [
        {
          "indexed": false,
          "name": "name",
          "type": "bytes32"
        },
        {
          "indexed": false,
          "name": "addr",
          "type": "address"
        },
        {
          "indexed": false,
          "name": "id",
          "type": "uint256"
        }
      ],
      "name": "LogNewProductApproved",
      "type": "event",
      "signature": "0x08fc0a08e833d49125d8102815da38619a88cc55b305f37b3fff034a02797298"
    },
    {
      "anonymous": false,
      "inputs": [
        {
          "indexed": false,
          "name": "name",
          "type": "bytes32"
        },
        {
          "indexed": false,
          "name": "addr",
          "type": "address"
        },
        {
          "indexed": false,
          "name": "id",
          "type": "uint256"
        }
      ],
      "name": "LogProductDisapproved",
      "type": "event",
      "signature": "0xdf4966c5cb22e75d7b7f7b6c7f6e4b27d3f296506bb096c7c1b791d8d89f2eb0"
    },
    {
      "anonymous": false,
      "inputs": [
        {
          "indexed": false,
          "name": "name",
          "type": "bytes32"
        },
        {
          "indexed": false,
          "name": "addr",
          "type": "address"
        },
        {
          "indexed": false,
          "name": "id",
          "type": "uint256"
        }
      ],
      "name": "LogProductReapproved",
      "type": "event",
      "signature": "0x95146a03c304885127aaec4ef4596a650b64d6d497c946b0bf3be110683d4551"
    },
    {
      "anonymous": false,
      "inputs": [
        {
          "indexed": false,
          "name": "name",
          "type": "bytes32"
        },
        {
          "indexed": false,
          "name": "addr",
          "type": "address"
        },
        {
          "indexed": false,
          "name": "id",
          "type": "uint256"
        }
      ],
      "name": "LogProductPaused",
      "type": "event",
      "signature": "0x0df317d0d880bcb36747c617834e11e45cc8522d95f9818b61ee2039af9e0a87"
    },
    {
      "anonymous": false,
      "inputs": [
        {
          "indexed": false,
          "name": "name",
          "type": "bytes32"
        },
        {
          "indexed": false,
          "name": "addr",
          "type": "address"
        },
        {
          "indexed": false,
          "name": "id",
          "type": "uint256"
        }
      ],
      "name": "LogProductUnpaused",
      "type": "event",
      "signature": "0x28bc9631065e3acee19f8e7186ca452066eedc02d3eb42990f77e320f69eb71e"
    },
    {
      "constant": false,
      "inputs": [
        {
          "name": "_name",
          "type": "bytes32"
        },
        {
          "name": "_addr",
          "type": "address"
        },
        {
          "name": "_policyFlow",
          "type": "bytes32"
        }
      ],
      "name": "register",
      "outputs": [
        {
          "name": "_registrationId",
          "type": "uint256"
        }
      ],
      "payable": false,
      "stateMutability": "nonpayable",
      "type": "function",
      "signature": "0x17ac8902"
    },
    {
      "constant": false,
      "inputs": [
        {
          "name": "_registrationId",
          "type": "uint256"
        }
      ],
      "name": "declineRegistration",
      "outputs": [],
      "payable": false,
      "stateMutability": "nonpayable",
      "type": "function",
      "signature": "0x18b3df9d"
    },
    {
      "constant": false,
      "inputs": [
        {
          "name": "_registrationId",
          "type": "uint256"
        }
      ],
      "name": "approveRegistration",
      "outputs": [
        {
          "name": "_productId",
          "type": "uint256"
        }
      ],
      "payable": false,
      "stateMutability": "nonpayable",
      "type": "function",
      "signature": "0x23fafbe8"
    },
    {
      "constant": false,
      "inputs": [
        {
          "name": "_productId",
          "type": "uint256"
        }
      ],
      "name": "disapproveProduct",
      "outputs": [],
      "payable": false,
      "stateMutability": "nonpayable",
      "type": "function",
      "signature": "0xb4ec459d"
    },
    {
      "constant": false,
      "inputs": [
        {
          "name": "_productId",
          "type": "uint256"
        }
      ],
      "name": "reapproveProduct",
      "outputs": [],
      "payable": false,
      "stateMutability": "nonpayable",
      "type": "function",
      "signature": "0xa8798cc4"
    },
    {
      "constant": false,
      "inputs": [
        {
          "name": "_productId",
          "type": "uint256"
        }
      ],
      "name": "pauseProduct",
      "outputs": [],
      "payable": false,
      "stateMutability": "nonpayable",
      "type": "function",
      "signature": "0xf2272a79"
    },
    {
      "constant": false,
      "inputs": [
        {
          "name": "_productId",
          "type": "uint256"
        }
      ],
      "name": "unpauseProduct",
      "outputs": [],
      "payable": false,
      "stateMutability": "nonpayable",
      "type": "function",
      "signature": "0x1b164987"
    },
    {
      "constant": true,
      "inputs": [
        {
          "name": "_addr",
          "type": "address"
        }
      ],
      "name": "isApprovedProduct",
      "outputs": [
        {
          "name": "_approved",
          "type": "bool"
        }
      ],
      "payable": false,
      "stateMutability": "view",
      "type": "function",
      "signature": "0x02f01e52"
    },
    {
      "constant": true,
      "inputs": [
        {
          "name": "_addr",
          "type": "address"
        }
      ],
      "name": "isPausedProduct",
      "outputs": [
        {
          "name": "_paused",
          "type": "bool"
        }
      ],
      "payable": false,
      "stateMutability": "view",
      "type": "function",
      "signature": "0x8521f79b"
    },
    {
      "constant": true,
      "inputs": [
        {
          "name": "_addr",
          "type": "address"
        }
      ],
      "name": "isValidCall",
      "outputs": [
        {
          "name": "_valid",
          "type": "bool"
        }
      ],
      "payable": false,
      "stateMutability": "view",
      "type": "function",
      "signature": "0xa8ef6228"
    },
    {
      "constant": true,
      "inputs": [
        {
          "name": "_sender",
          "type": "address"
        }
      ],
      "name": "authorize",
      "outputs": [
        {
          "name": "_authorized",
          "type": "bool"
        },
        {
          "name": "_policyFlow",
          "type": "address"
        }
      ],
      "payable": false,
      "stateMutability": "view",
      "type": "function",
      "signature": "0xb6a5d7de"
    },
    {
      "constant": true,
      "inputs": [
        {
          "name": "_addr",
          "type": "address"
        }
      ],
      "name": "getProductId",
      "outputs": [
        {
          "name": "_productId",
          "type": "uint256"
        }
      ],
      "payable": false,
      "stateMutability": "view",
      "type": "function",
      "signature": "0xe91a34fc"
    }
  ],
  "bytecode": "0x608060405234801561001057600080fd5b506040516020806124348339810180604052602081101561003057600080fd5b81019080805190602001909291905050508080600360006101000a81548173ffffffffffffffffffffffffffffffffffffffff021916908373ffffffffffffffffffffffffffffffffffffffff16021790555050506123a0806100946000396000f3fe608060405234801561001057600080fd5b506004361061015f576000357c010000000000000000000000000000000000000000000000000000000090048063a8798cc4116100d5578063da47d85611610099578063da47d856146106d3578063e16c7d9814610741578063e71359bf146107af578063e91a34fc146107f3578063f2272a791461084b578063f4ddb5be146108795761015f565b8063a8798cc414610542578063a8ef622814610570578063b4ec459d146105cc578063b6a5d7de146105fa578063ce9b7930146106895761015f565b8063317349f211610127578063317349f21461031657806351b68ee41461036e5780637acc0b20146103b25780637b1039991461047e5780638521f79b146104c8578063a3f4df7e146105245761015f565b806302f01e52146101b057806317ac89021461020c57806318b3df9d146102785780631b164987146102a657806323fafbe8146102d4575b6040517f08c379a00000000000000000000000000000000000000000000000000000000081526004018080602001828103825260248152602001806123516024913960400191505060405180910390fd5b6101f2600480360360208110156101c657600080fd5b81019080803573ffffffffffffffffffffffffffffffffffffffff169060200190929190505050610907565b604051808215151515815260200191505060405180910390f35b6102626004803603606081101561022257600080fd5b8101908080359060200190929190803573ffffffffffffffffffffffffffffffffffffffff16906020019092919080359060200190929190505050610984565b6040518082815260200191505060405180910390f35b6102a46004803603602081101561028e57600080fd5b8101908080359060200190929190505050610ab8565b005b6102d2600480360360208110156102bc57600080fd5b8101908080359060200190929190505050610c77565b005b610300600480360360208110156102ea57600080fd5b8101908080359060200190929190505050610eac565b6040518082815260200191505060405180910390f35b6103586004803603602081101561032c57600080fd5b81019080803573ffffffffffffffffffffffffffffffffffffffff169060200190929190505050611250565b6040518082815260200191505060405180910390f35b6103b06004803603602081101561038457600080fd5b81019080803573ffffffffffffffffffffffffffffffffffffffff169060200190929190505050611268565b005b6103de600480360360208110156103c857600080fd5b8101908080359060200190929190505050611377565b604051808881526020018773ffffffffffffffffffffffffffffffffffffffff1673ffffffffffffffffffffffffffffffffffffffff1681526020018681526020018581526020018473ffffffffffffffffffffffffffffffffffffffff1673ffffffffffffffffffffffffffffffffffffffff168152602001831515151581526020018215151515815260200197505050505050505060405180910390f35b610486611422565b604051808273ffffffffffffffffffffffffffffffffffffffff1673ffffffffffffffffffffffffffffffffffffffff16815260200191505060405180910390f35b61050a600480360360208110156104de57600080fd5b81019080803573ffffffffffffffffffffffffffffffffffffffff169060200190929190505050611448565b604051808215151515815260200191505060405180910390f35b61052c6114c5565b6040518082815260200191505060405180910390f35b61056e6004803603602081101561055857600080fd5b81019080803590602001909291905050506114e9565b005b6105b26004803603602081101561058657600080fd5b81019080803573ffffffffffffffffffffffffffffffffffffffff16906020019092919050505061171e565b604051808215151515815260200191505060405180910390f35b6105f8600480360360208110156105e257600080fd5b8101908080359060200190929190505050611742565b005b61063c6004803603602081101561061057600080fd5b81019080803573ffffffffffffffffffffffffffffffffffffffff169060200190929190505050611977565b60405180831515151581526020018273ffffffffffffffffffffffffffffffffffffffff1673ffffffffffffffffffffffffffffffffffffffff1681526020019250505060405180910390f35b610691611a54565b604051808273ffffffffffffffffffffffffffffffffffffffff1673ffffffffffffffffffffffffffffffffffffffff16815260200191505060405180910390f35b6106ff600480360360208110156106e957600080fd5b8101908080359060200190929190505050611a7a565b604051808273ffffffffffffffffffffffffffffffffffffffff1673ffffffffffffffffffffffffffffffffffffffff16815260200191505060405180910390f35b61076d6004803603602081101561075757600080fd5b8101908080359060200190929190505050611b4d565b604051808273ffffffffffffffffffffffffffffffffffffffff1673ffffffffffffffffffffffffffffffffffffffff16815260200191505060405180910390f35b6107f1600480360360208110156107c557600080fd5b81019080803573ffffffffffffffffffffffffffffffffffffffff169060200190929190505050611c20565b005b6108356004803603602081101561080957600080fd5b81019080803573ffffffffffffffffffffffffffffffffffffffff169060200190929190505050611cf7565b6040518082815260200191505060405180910390f35b6108776004803603602081101561086157600080fd5b8101908080359060200190929190505050611d40565b005b6108a56004803603602081101561088f57600080fd5b8101908080359060200190929190505050611f75565b604051808681526020018573ffffffffffffffffffffffffffffffffffffffff1673ffffffffffffffffffffffffffffffffffffffff168152602001848152602001838152602001821515151581526020019550505050505060405180910390f35b6000600115156001600260008573ffffffffffffffffffffffffffffffffffffffff1673ffffffffffffffffffffffffffffffffffffffff1681526020019081526020016000205481548110151561095b57fe5b906000526020600020906005020160040160149054906101000a900460ff161515149050919050565b600080805480919060010161099991906121cd565b9050600080828154811015156109ab57fe5b90600052602060002090600502019050848160000181905550838160010160006101000a81548173ffffffffffffffffffffffffffffffffffffffff021916908373ffffffffffffffffffffffffffffffffffffffff160217905550828160020181905550610a18611fe7565b816003018190555060018160040160006101000a81548160ff0219169083151502179055507f03cde8818115ee60db6b27042242f795a8518f099adb9d91ef01977311b502b6828686604051808481526020018381526020018273ffffffffffffffffffffffffffffffffffffffff1673ffffffffffffffffffffffffffffffffffffffff168152602001935050505060405180910390a1509392505050565b610ae17f44414f0000000000000000000000000000000000000000000000000000000000611a7a565b73ffffffffffffffffffffffffffffffffffffffff163373ffffffffffffffffffffffffffffffffffffffff16141515610b83576040517f08c379a00000000000000000000000000000000000000000000000000000000081526004018080602001828103825260168152602001807f4552524f523a3a4e4f545f44414f5f534552564943450000000000000000000081525060200191505060405180910390fd5b80600080549050111515610bff576040517f08c379a000000000000000000000000000000000000000000000000000000000815260040180806020018281038252601d8152602001807f4552524f525f494e56414c49445f524547495354524154494f4e5f494400000081525060200191505060405180910390fd5b60008082815481101515610c0f57fe5b9060005260206000209060050201905060018160040160006101000a81548160ff0219169083151502179055507f3017cd98b49fcf7c79be07301972429fd12a57efa87f051717007990004edf8f826040518082815260200191505060405180910390a15050565b610ca07f44414f0000000000000000000000000000000000000000000000000000000000611a7a565b73ffffffffffffffffffffffffffffffffffffffff163373ffffffffffffffffffffffffffffffffffffffff16141515610d42576040517f08c379a00000000000000000000000000000000000000000000000000000000081526004018080602001828103825260168152602001807f4552524f523a3a4e4f545f44414f5f534552564943450000000000000000000081525060200191505060405180910390fd5b6000600182815481101515610d5357fe5b90600052602060002090600502019050600115158160040160159054906101000a900460ff161515141515610df0576040517f08c379a000000000000000000000000000000000000000000000000000000000815260040180806020018281038252601b8152602001807f4552524f525f494e56414c49445f5041555345445f535441545553000000000081525060200191505060405180910390fd5b60008160040160156101000a81548160ff0219169083151502179055507f28bc9631065e3acee19f8e7186ca452066eedc02d3eb42990f77e320f69eb71e81600001548260010160009054906101000a900473ffffffffffffffffffffffffffffffffffffffff1684604051808481526020018373ffffffffffffffffffffffffffffffffffffffff1673ffffffffffffffffffffffffffffffffffffffff168152602001828152602001935050505060405180910390a15050565b6000610ed77f44414f0000000000000000000000000000000000000000000000000000000000611a7a565b73ffffffffffffffffffffffffffffffffffffffff163373ffffffffffffffffffffffffffffffffffffffff16141515610f79576040517f08c379a00000000000000000000000000000000000000000000000000000000081526004018080602001828103825260168152602001807f4552524f523a3a4e4f545f44414f5f534552564943450000000000000000000081525060200191505060405180910390fd5b81600080549050111515610ff5576040517f08c379a000000000000000000000000000000000000000000000000000000000815260040180806020018281038252601d8152602001807f4552524f525f494e56414c49445f524547495354524154494f4e5f494400000081525060200191505060405180910390fd5b6001805480919060010161100991906121ff565b9050600060018281548110151561101c57fe5b9060005260206000209060050201905060008381548110151561103b57fe5b906000526020600020906005020160000154816000018190555060008381548110151561106457fe5b906000526020600020906005020160010160009054906101000a900473ffffffffffffffffffffffffffffffffffffffff168160010160006101000a81548173ffffffffffffffffffffffffffffffffffffffff021916908373ffffffffffffffffffffffffffffffffffffffff1602179055506000838154811015156110e757fe5b906000526020600020906005020160020154816002018190555060008381548110151561111057fe5b906000526020600020906005020160030154816003018190555060018160040160146101000a81548160ff02191690831515021790555081600260008360010160009054906101000a900473ffffffffffffffffffffffffffffffffffffffff1673ffffffffffffffffffffffffffffffffffffffff1673ffffffffffffffffffffffffffffffffffffffff168152602001908152602001600020819055507f08fc0a08e833d49125d8102815da38619a88cc55b305f37b3fff034a0279729881600001548260010160009054906101000a900473ffffffffffffffffffffffffffffffffffffffff1684604051808481526020018373ffffffffffffffffffffffffffffffffffffffff1673ffffffffffffffffffffffffffffffffffffffff168152602001828152602001935050505060405180910390a150919050565b60026020528060005260406000206000915090505481565b6112917f44414f0000000000000000000000000000000000000000000000000000000000611a7a565b73ffffffffffffffffffffffffffffffffffffffff163373ffffffffffffffffffffffffffffffffffffffff16141515611333576040517f08c379a00000000000000000000000000000000000000000000000000000000081526004018080602001828103825260168152602001807f4552524f523a3a4e4f545f44414f5f534552564943450000000000000000000081525060200191505060405180910390fd5b80600360006101000a81548173ffffffffffffffffffffffffffffffffffffffff021916908373ffffffffffffffffffffffffffffffffffffffff16021790555050565b60018181548110151561138657fe5b90600052602060002090600502016000915090508060000154908060010160009054906101000a900473ffffffffffffffffffffffffffffffffffffffff16908060020154908060030154908060040160009054906101000a900473ffffffffffffffffffffffffffffffffffffffff16908060040160149054906101000a900460ff16908060040160159054906101000a900460ff16905087565b600360009054906101000a900473ffffffffffffffffffffffffffffffffffffffff1681565b6000600115156001600260008573ffffffffffffffffffffffffffffffffffffffff1673ffffffffffffffffffffffffffffffffffffffff1681526020019081526020016000205481548110151561149c57fe5b906000526020600020906005020160040160159054906101000a900460ff161515149050919050565b7f4c6963656e7365436f6e74726f6c6c657200000000000000000000000000000081565b6115127f44414f0000000000000000000000000000000000000000000000000000000000611a7a565b73ffffffffffffffffffffffffffffffffffffffff163373ffffffffffffffffffffffffffffffffffffffff161415156115b4576040517f08c379a00000000000000000000000000000000000000000000000000000000081526004018080602001828103825260168152602001807f4552524f523a3a4e4f545f44414f5f534552564943450000000000000000000081525060200191505060405180910390fd5b60006001828154811015156115c557fe5b90600052602060002090600502019050600015158160040160149054906101000a900460ff161515141515611662576040517f08c379a000000000000000000000000000000000000000000000000000000000815260040180806020018281038252601c8152602001807f4552524f525f494e56414c49445f415050524f56455f5354415455530000000081525060200191505060405180910390fd5b60018160040160146101000a81548160ff0219169083151502179055507f95146a03c304885127aaec4ef4596a650b64d6d497c946b0bf3be110683d455181600001548260010160009054906101000a900473ffffffffffffffffffffffffffffffffffffffff1684604051808481526020018373ffffffffffffffffffffffffffffffffffffffff1673ffffffffffffffffffffffffffffffffffffffff168152602001828152602001935050505060405180910390a15050565b600061172982610907565b801561173b575061173982611448565b155b9050919050565b61176b7f44414f0000000000000000000000000000000000000000000000000000000000611a7a565b73ffffffffffffffffffffffffffffffffffffffff163373ffffffffffffffffffffffffffffffffffffffff1614151561180d576040517f08c379a00000000000000000000000000000000000000000000000000000000081526004018080602001828103825260168152602001807f4552524f523a3a4e4f545f44414f5f534552564943450000000000000000000081525060200191505060405180910390fd5b600060018281548110151561181e57fe5b90600052602060002090600502019050600115158160040160149054906101000a900460ff1615151415156118bb576040517f08c379a000000000000000000000000000000000000000000000000000000000815260040180806020018281038252601c8152602001807f4552524f525f494e56414c49445f415050524f56455f5354415455530000000081525060200191505060405180910390fd5b60008160040160146101000a81548160ff0219169083151502179055507fdf4966c5cb22e75d7b7f7b6c7f6e4b27d3f296506bb096c7c1b791d8d89f2eb081600001548260010160009054906101000a900473ffffffffffffffffffffffffffffffffffffffff1684604051808481526020018373ffffffffffffffffffffffffffffffffffffffff1673ffffffffffffffffffffffffffffffffffffffff168152602001828152602001935050505060405180910390a15050565b6000806119838361171e565b9150611a4d6001600260008673ffffffffffffffffffffffffffffffffffffffff1673ffffffffffffffffffffffffffffffffffffffff168152602001908152602001600020548154811015156119d657fe5b9060005260206000209060050201600301546001600260008773ffffffffffffffffffffffffffffffffffffffff1673ffffffffffffffffffffffffffffffffffffffff16815260200190815260200160002054815481101515611a3657fe5b9060005260206000209060050201600201546120ad565b9050915091565b600460009054906101000a900473ffffffffffffffffffffffffffffffffffffffff1681565b6000600360009054906101000a900473ffffffffffffffffffffffffffffffffffffffff1673ffffffffffffffffffffffffffffffffffffffff1663da47d856836040518263ffffffff167c01000000000000000000000000000000000000000000000000000000000281526004018082815260200191505060206040518083038186803b158015611b0b57600080fd5b505afa158015611b1f573d6000803e3d6000fd5b505050506040513d6020811015611b3557600080fd5b81019080805190602001909291905050509050919050565b6000600360009054906101000a900473ffffffffffffffffffffffffffffffffffffffff1673ffffffffffffffffffffffffffffffffffffffff1663e16c7d98836040518263ffffffff167c01000000000000000000000000000000000000000000000000000000000281526004018082815260200191505060206040518083038186803b158015611bde57600080fd5b505afa158015611bf2573d6000803e3d6000fd5b505050506040513d6020811015611c0857600080fd5b81019080805190602001909291905050509050919050565b611c497f44414f0000000000000000000000000000000000000000000000000000000000611a7a565b73ffffffffffffffffffffffffffffffffffffffff163373ffffffffffffffffffffffffffffffffffffffff16141515611ceb576040517f08c379a00000000000000000000000000000000000000000000000000000000081526004018080602001828103825260168152602001807f4552524f523a3a4e4f545f44414f5f534552564943450000000000000000000081525060200191505060405180910390fd5b611cf481612189565b50565b6000600260008373ffffffffffffffffffffffffffffffffffffffff1673ffffffffffffffffffffffffffffffffffffffff168152602001908152602001600020549050919050565b611d697f44414f0000000000000000000000000000000000000000000000000000000000611a7a565b73ffffffffffffffffffffffffffffffffffffffff163373ffffffffffffffffffffffffffffffffffffffff16141515611e0b576040517f08c379a00000000000000000000000000000000000000000000000000000000081526004018080602001828103825260168152602001807f4552524f523a3a4e4f545f44414f5f534552564943450000000000000000000081525060200191505060405180910390fd5b6000600182815481101515611e1c57fe5b90600052602060002090600502019050600015158160040160159054906101000a900460ff161515141515611eb9576040517f08c379a000000000000000000000000000000000000000000000000000000000815260040180806020018281038252601b8152602001807f4552524f525f494e56414c49445f5041555345445f535441545553000000000081525060200191505060405180910390fd5b60018160040160156101000a81548160ff0219169083151502179055507f0df317d0d880bcb36747c617834e11e45cc8522d95f9818b61ee2039af9e0a8781600001548260010160009054906101000a900473ffffffffffffffffffffffffffffffffffffffff1684604051808481526020018373ffffffffffffffffffffffffffffffffffffffff1673ffffffffffffffffffffffffffffffffffffffff168152602001828152602001935050505060405180910390a15050565b600081815481101515611f8457fe5b90600052602060002090600502016000915090508060000154908060010160009054906101000a900473ffffffffffffffffffffffffffffffffffffffff16908060020154908060030154908060040160009054906101000a900460ff16905085565b6000600360009054906101000a900473ffffffffffffffffffffffffffffffffffffffff1673ffffffffffffffffffffffffffffffffffffffff166376b707b76040518163ffffffff167c010000000000000000000000000000000000000000000000000000000002815260040160206040518083038186803b15801561206d57600080fd5b505afa158015612081573d6000803e3d6000fd5b505050506040513d602081101561209757600080fd5b8101908080519060200190929190505050905090565b6000600360009054906101000a900473ffffffffffffffffffffffffffffffffffffffff1673ffffffffffffffffffffffffffffffffffffffff1663da70cc0384846040518363ffffffff167c0100000000000000000000000000000000000000000000000000000000028152600401808381526020018281526020019250505060206040518083038186803b15801561214657600080fd5b505afa15801561215a573d6000803e3d6000fd5b505050506040513d602081101561217057600080fd5b8101908080519060200190929190505050905092915050565b80600460006101000a81548173ffffffffffffffffffffffffffffffffffffffff021916908373ffffffffffffffffffffffffffffffffffffffff16021790555050565b8154818355818111156121fa576005028160050283600052602060002091820191016121f99190612231565b5b505050565b81548183558181111561222c5760050281600502836000526020600020918201910161222b91906122a3565b5b505050565b6122a091905b8082111561229c576000808201600090556001820160006101000a81549073ffffffffffffffffffffffffffffffffffffffff0219169055600282016000905560038201600090556004820160006101000a81549060ff021916905550600501612237565b5090565b90565b61234d91905b80821115612349576000808201600090556001820160006101000a81549073ffffffffffffffffffffffffffffffffffffffff0219169055600282016000905560038201600090556004820160006101000a81549073ffffffffffffffffffffffffffffffffffffffff02191690556004820160146101000a81549060ff02191690556004820160156101000a81549060ff0219169055506005016122a9565b5090565b9056fe4552524f523a3a46414c4c4241434b5f46554e4354494f4e5f4e4f575f414c4c4f574544a165627a7a72305820a8c26a543f9539864c165d01617e3854a9143a0707178991a19f69bb19edb6c60029",
  "source": "pragma solidity 0.5.2;\n\nimport \"./LicenseStorageModel.sol\";\nimport \"../../shared/ModuleController.sol\";\n\ncontract LicenseController is LicenseStorageModel, ModuleController {\n    bytes32 public constant NAME = \"LicenseController\";\n\n    constructor(address _registry) public WithRegistry(_registry) {}\n\n    /**\n     * @dev Register new product\n     */\n    function register(bytes32 _name, address _addr, bytes32 _policyFlow)\n        external\n        returns (uint256 _registrationId)\n    {\n        _registrationId = registrations.length++;\n\n        Registration storage newRegistration = registrations[_registrationId];\n        newRegistration.name = _name;\n        newRegistration.addr = _addr;\n        newRegistration.policyFlow = _policyFlow;\n        newRegistration.release = getRelease();\n        newRegistration.declined = true;\n\n        emit LogNewRegistration(_registrationId, _name, _addr);\n    }\n\n    /**\n     * @dev Decline new product registration\n     */\n    function declineRegistration(uint256 _registrationId) external onlyDAO {\n        require(\n            registrations.length > _registrationId,\n            \"ERROR_INVALID_REGISTRATION_ID\"\n        ); // todo: check overflow\n\n        Registration storage registration = registrations[_registrationId];\n        registration.declined = true;\n\n        emit LogRegistrationDeclined(_registrationId);\n    }\n\n    /**\n     * @dev Approve registration and create new product\n     */\n    function approveRegistration(uint256 _registrationId)\n        external\n        onlyDAO\n        returns (uint256 _productId)\n    {\n        require(\n            registrations.length > _registrationId,\n            \"ERROR_INVALID_REGISTRATION_ID\"\n        ); // todo: check overflow\n\n        _productId = products.length++;\n\n        Product storage newProduct = products[_productId];\n        newProduct.name = registrations[_registrationId].name;\n        newProduct.addr = registrations[_registrationId].addr;\n        newProduct.policyFlow = registrations[_registrationId].policyFlow;\n        newProduct.release = registrations[_registrationId].release;\n        newProduct.approved = true;\n\n        productIdByAddress[newProduct.addr] = _productId;\n\n        // create new erc721 token\n\n        emit LogNewProductApproved(\n            newProduct.name,\n            newProduct.addr,\n            _productId\n        );\n    }\n\n    /**\n     * @dev Disapprove product once it was approved\n     */\n    function disapproveProduct(uint256 _productId)\n        external\n        onlyDAO\n    {\n        Product storage product = products[_productId];\n\n        require(product.approved == true, \"ERROR_INVALID_APPROVE_STATUS\");\n\n        product.approved = false;\n\n        emit LogProductDisapproved(\n            product.name,\n            product.addr,\n            _productId\n        );\n    }\n\n    /**\n     * @dev Reapprove product once it was disapproved\n     */\n    function reapproveProduct(uint256 _productId)\n        external\n        onlyDAO\n    {\n        Product storage product = products[_productId];\n\n        require(product.approved == false, \"ERROR_INVALID_APPROVE_STATUS\");\n\n        product.approved = true;\n\n        emit LogProductReapproved(\n            product.name,\n            product.addr,\n            _productId\n        );\n    }\n\n    /**\n     * @dev Pause product\n     */\n    function pauseProduct(uint256 _productId)\n        external\n        onlyDAO\n    {\n        Product storage product = products[_productId];\n\n        require(product.paused == false, \"ERROR_INVALID_PAUSED_STATUS\");\n\n        product.paused = true;\n\n        emit LogProductPaused(\n            product.name,\n            product.addr,\n            _productId\n        );\n    }\n\n    /**\n     * @dev Unpause product\n     */\n    function unpauseProduct(uint256 _productId)\n        external\n        onlyDAO\n    {\n        Product storage product = products[_productId];\n\n        require(product.paused == true, \"ERROR_INVALID_PAUSED_STATUS\");\n\n        product.paused = false;\n\n        emit LogProductUnpaused(\n            product.name,\n            product.addr,\n            _productId\n        );\n    }\n\n    /**\n     * @dev Check if contract is approved product\n     */\n    function isApprovedProduct(address _addr)\n        public\n        view\n        returns (bool _approved)\n    {\n        _approved = products[productIdByAddress[_addr]].approved == true;\n    }\n\n    /**\n     * @dev Check if contract is paused product\n     */\n    function isPausedProduct(address _addr)\n        public\n        view\n        returns (bool _paused)\n    {\n        _paused = products[productIdByAddress[_addr]].paused == true;\n    }\n\n    function isValidCall(address _addr) public view returns (bool _valid) {\n        _valid = isApprovedProduct(_addr) && !isPausedProduct(\n            _addr\n        );\n    }\n\n    function authorize(address _sender)\n        public\n        view\n        returns (bool _authorized, address _policyFlow)\n    {\n        _authorized = isValidCall(_sender);\n        _policyFlow = getContractInRelease(\n            products[productIdByAddress[_sender]].release,\n            products[productIdByAddress[_sender]].policyFlow\n        );\n    }\n\n    function getProductId(address _addr)\n        public\n        view\n        returns (uint256 _productId)\n    {\n        _productId = productIdByAddress[_addr];\n    }\n}\n",
  "sourcePath": "/Users/ka/Projects/Altoros/Etherisc/dip-platform/core/gif-contracts/contracts/modules/license/LicenseController.sol",
  "compiler": {
    "name": "solc",
    "version": "0.5.2+commit.1df8f40c.Emscripten.clang"
  },
  "schemaVersion": "3.0.1",
  "updatedAt": "2019-02-08T13:20:04.156Z",
  "devdoc": {
    "methods": {
      "approveRegistration(uint256)": {
        "details": "Approve registration and create new product"
      },
      "declineRegistration(uint256)": {
        "details": "Decline new product registration"
      },
      "disapproveProduct(uint256)": {
        "details": "Disapprove product once it was approved"
      },
      "isApprovedProduct(address)": {
        "details": "Check if contract is approved product"
      },
      "isPausedProduct(address)": {
        "details": "Check if contract is paused product"
      },
      "pauseProduct(uint256)": {
        "details": "Pause product"
      },
      "reapproveProduct(uint256)": {
        "details": "Reapprove product once it was disapproved"
      },
      "register(bytes32,address,bytes32)": {
        "details": "Register new product"
      },
      "unpauseProduct(uint256)": {
        "details": "Unpause product"
      }
    }
  },
  "userdoc": {
    "methods": {}
  }
}