{
  "contractName": "LicenseStorageModel",
  "abi": [
    {
      "constant": true,
      "inputs": [
        {
          "name": "",
          "type": "address"
        }
      ],
      "name": "productIdByAddress",
      "outputs": [
        {
          "name": "",
          "type": "uint256"
        }
      ],
      "payable": false,
      "stateMutability": "view",
      "type": "function"
    },
    {
      "constant": true,
      "inputs": [
        {
          "name": "",
          "type": "uint256"
        }
      ],
      "name": "products",
      "outputs": [
        {
          "name": "name",
          "type": "bytes32"
        },
        {
          "name": "addr",
          "type": "address"
        },
        {
          "name": "policyFlow",
          "type": "bytes32"
        },
        {
          "name": "release",
          "type": "uint256"
        },
        {
          "name": "policyToken",
          "type": "address"
        },
        {
          "name": "approved",
          "type": "bool"
        },
        {
          "name": "paused",
          "type": "bool"
        }
      ],
      "payable": false,
      "stateMutability": "view",
      "type": "function"
    },
    {
      "constant": true,
      "inputs": [
        {
          "name": "",
          "type": "uint256"
        }
      ],
      "name": "registrations",
      "outputs": [
        {
          "name": "name",
          "type": "bytes32"
        },
        {
          "name": "addr",
          "type": "address"
        },
        {
          "name": "policyFlow",
          "type": "bytes32"
        },
        {
          "name": "release",
          "type": "uint256"
        },
        {
          "name": "declined",
          "type": "bool"
        }
      ],
      "payable": false,
      "stateMutability": "view",
      "type": "function"
    },
    {
      "anonymous": false,
      "inputs": [
        {
          "indexed": false,
          "name": "registrationId",
          "type": "uint256"
        },
        {
          "indexed": false,
          "name": "name",
          "type": "bytes32"
        },
        {
          "indexed": false,
          "name": "addr",
          "type": "address"
        }
      ],
      "name": "LogNewRegistration",
      "type": "event"
    },
    {
      "anonymous": false,
      "inputs": [
        {
          "indexed": false,
          "name": "registrationId",
          "type": "uint256"
        }
      ],
      "name": "LogRegistrationDeclined",
      "type": "event"
    },
    {
      "anonymous": false,
      "inputs": [
        {
          "indexed": false,
          "name": "name",
          "type": "bytes32"
        },
        {
          "indexed": false,
          "name": "addr",
          "type": "address"
        },
        {
          "indexed": false,
          "name": "id",
          "type": "uint256"
        }
      ],
      "name": "LogNewProductApproved",
      "type": "event"
    },
    {
      "anonymous": false,
      "inputs": [
        {
          "indexed": false,
          "name": "name",
          "type": "bytes32"
        },
        {
          "indexed": false,
          "name": "addr",
          "type": "address"
        },
        {
          "indexed": false,
          "name": "id",
          "type": "uint256"
        }
      ],
      "name": "LogProductDisapproved",
      "type": "event"
    },
    {
      "anonymous": false,
      "inputs": [
        {
          "indexed": false,
          "name": "name",
          "type": "bytes32"
        },
        {
          "indexed": false,
          "name": "addr",
          "type": "address"
        },
        {
          "indexed": false,
          "name": "id",
          "type": "uint256"
        }
      ],
      "name": "LogProductReapproved",
      "type": "event"
    },
    {
      "anonymous": false,
      "inputs": [
        {
          "indexed": false,
          "name": "name",
          "type": "bytes32"
        },
        {
          "indexed": false,
          "name": "addr",
          "type": "address"
        },
        {
          "indexed": false,
          "name": "id",
          "type": "uint256"
        }
      ],
      "name": "LogProductPaused",
      "type": "event"
    },
    {
      "anonymous": false,
      "inputs": [
        {
          "indexed": false,
          "name": "name",
          "type": "bytes32"
        },
        {
          "indexed": false,
          "name": "addr",
          "type": "address"
        },
        {
          "indexed": false,
          "name": "id",
          "type": "uint256"
        }
      ],
      "name": "LogProductUnpaused",
      "type": "event"
    }
  ],
  "bytecode": "0x608060405234801561001057600080fd5b506102a1806100206000396000f3fe608060405234801561001057600080fd5b506004361061005d577c01000000000000000000000000000000000000000000000000000000006000350463317349f281146100625780637acc0b20146100a7578063f4ddb5be14610119575b600080fd5b6100956004803603602081101561007857600080fd5b503573ffffffffffffffffffffffffffffffffffffffff16610178565b60408051918252519081900360200190f35b6100c4600480360360208110156100bd57600080fd5b503561018a565b6040805197885273ffffffffffffffffffffffffffffffffffffffff96871660208901528781019590955260608701939093529316608085015291151560a084015290151560c0830152519081900360e00190f35b6101366004803603602081101561012f57600080fd5b503561021c565b6040805195865273ffffffffffffffffffffffffffffffffffffffff909416602086015284840192909252606084015215156080830152519081900360a00190f35b60026020526000908152604090205481565b600180548290811061019857fe5b60009182526020909120600590910201805460018201546002830154600384015460049094015492945073ffffffffffffffffffffffffffffffffffffffff918216939092909181169060ff740100000000000000000000000000000000000000008204811691750100000000000000000000000000000000000000000090041687565b600080548290811061022a57fe5b60009182526020909120600590910201805460018201546002830154600384015460049094015492945073ffffffffffffffffffffffffffffffffffffffff90911692909160ff168556fea165627a7a72305820779e298be95af8a8dbb31949ca86027feadd89ebcf38d9ce5b44e0fc06e648c70029",
  "source": "pragma solidity 0.5.2;\n\ncontract LicenseStorageModel {\n    event LogNewRegistration(\n        uint256 registrationId,\n        bytes32 name,\n        address addr\n    );\n\n    event LogRegistrationDeclined(uint256 registrationId);\n\n    event LogNewProductApproved(bytes32 name, address addr, uint256 id);\n\n    event LogProductDisapproved(bytes32 name, address addr, uint256 id);\n\n    event LogProductReapproved(bytes32 name, address addr, uint256 id);\n\n    event LogProductPaused(bytes32 name, address addr, uint256 id);\n\n    event LogProductUnpaused(bytes32 name, address addr, uint256 id);\n\n    struct Registration {\n        bytes32 name;\n        address addr;\n        bytes32 policyFlow;\n        uint256 release;\n        bool declined;\n    }\n\n    struct Product {\n        bytes32 name;\n        address addr;\n        bytes32 policyFlow;\n        uint256 release; // core\n        // uint256 applicationRelease\n        address policyToken;\n        bool approved;\n        bool paused;\n    }\n\n    /**\n     * @dev Registration array\n     */\n    Registration[] public registrations;\n\n    /**\n     * @dev Products\n     */\n    Product[] public products;\n\n    /**\n     * @dev Get product id by contract's address\n     */\n    mapping(address => uint256) public productIdByAddress;\n\n    //    event LogNewProduct(uint256 productId, bytes32 name, address addr);\n    //\n    //    event LogProductApproved(bytes32 name, address addr, uint256 id);\n    //\n    //    event LogProductDisapproved(bytes32 name, address addr, uint256 id);\n    //\n    //    event LogProductPaused(bytes32 name, address addr, uint256 id);\n    //\n    //    event LogProductUnpaused(bytes32 name, address addr, uint256 id);\n    //\n    //    struct Product {\n    //        bytes32 name;\n    //        address addr;\n    //        bytes32 policyFlow;\n    //        uint256 release; // core release\n    //        // uint256 product release\n    //        address policyToken;\n    //        bool approved;\n    //        bool paused;\n    //    }\n    //\n    //    mapping(uint256 => Product) public products;\n    //    mapping(address => uint256) public productIdByAddress;\n    //    uint256 public productIdIncrement;\n\n}\n",
  "sourcePath": "/Users/ka/Projects/Altoros/Etherisc/dip-platform/core/gif-contracts/contracts/modules/license/LicenseStorageModel.sol",
  "compiler": {
    "name": "solc",
    "version": "0.5.2+commit.1df8f40c.Emscripten.clang"
  },
  "schemaVersion": "3.0.2",
  "updatedAt": "2019-02-15T09:40:03.277Z",
  "devdoc": {
    "methods": {}
  },
  "userdoc": {
    "methods": {}
  }
}