{
  "contractName": "OracleService",
  "abi": [
    {
      "constant": false,
      "inputs": [
        {
          "name": "_registry",
          "type": "address"
        }
      ],
      "name": "assignRegistry",
      "outputs": [],
      "payable": false,
      "stateMutability": "nonpayable",
      "type": "function",
      "signature": "0x51b68ee4"
    },
    {
      "constant": true,
      "inputs": [],
      "name": "registry",
      "outputs": [
        {
          "name": "",
          "type": "address"
        }
      ],
      "payable": false,
      "stateMutability": "view",
      "type": "function",
      "signature": "0x7b103999"
    },
    {
      "constant": true,
      "inputs": [],
      "name": "NAME",
      "outputs": [
        {
          "name": "",
          "type": "bytes32"
        }
      ],
      "payable": false,
      "stateMutability": "view",
      "type": "function",
      "signature": "0xa3f4df7e"
    },
    {
      "constant": true,
      "inputs": [
        {
          "name": "_contractName",
          "type": "bytes32"
        }
      ],
      "name": "getService",
      "outputs": [
        {
          "name": "_addr",
          "type": "address"
        }
      ],
      "payable": false,
      "stateMutability": "view",
      "type": "function",
      "signature": "0xda47d856"
    },
    {
      "constant": true,
      "inputs": [
        {
          "name": "_contractName",
          "type": "bytes32"
        }
      ],
      "name": "getContract",
      "outputs": [
        {
          "name": "_addr",
          "type": "address"
        }
      ],
      "payable": false,
      "stateMutability": "view",
      "type": "function",
      "signature": "0xe16c7d98"
    },
    {
      "inputs": [
        {
          "name": "_registry",
          "type": "address"
        }
      ],
      "payable": false,
      "stateMutability": "nonpayable",
      "type": "constructor",
      "signature": "constructor"
    },
    {
      "constant": false,
      "inputs": [
        {
          "name": "_requestId",
          "type": "uint256"
        },
        {
          "name": "_data",
          "type": "bytes"
        }
      ],
      "name": "respond",
      "outputs": [
        {
          "name": "_responseId",
          "type": "uint256"
        }
      ],
      "payable": false,
      "stateMutability": "nonpayable",
      "type": "function",
      "signature": "0xe409534a"
    }
  ],
  "bytecode": "0x608060405234801561001057600080fd5b506040516020806105ba8339810180604052602081101561003057600080fd5b505160008054600160a060020a03909216600160a060020a0319909216919091179055610558806100626000396000f3fe608060405234801561001057600080fd5b506004361061007e577c0100000000000000000000000000000000000000000000000000000000600035046351b68ee481146100835780637b103999146100ab578063a3f4df7e146100cf578063da47d856146100e9578063e16c7d9814610106578063e409534a14610123575b600080fd5b6100a96004803603602081101561009957600080fd5b5035600160a060020a031661019a565b005b6100b3610268565b60408051600160a060020a039092168252519081900360200190f35b6100d7610277565b60408051918252519081900360200190f35b6100b3600480360360208110156100ff57600080fd5b503561029b565b6100b36004803603602081101561011c57600080fd5b5035610333565b6100d76004803603604081101561013957600080fd5b8135919081019060408101602082013564010000000081111561015b57600080fd5b82018360208201111561016d57600080fd5b8035906020019184600183028401116401000000008311171561018f57600080fd5b509092509050610399565b6101c37f44414f000000000000000000000000000000000000000000000000000000000061029b565b600160a060020a0316331461023957604080517f08c379a000000000000000000000000000000000000000000000000000000000815260206004820152601660248201527f4552524f523a3a4e4f545f44414f5f5345525649434500000000000000000000604482015290519081900360640190fd5b6000805473ffffffffffffffffffffffffffffffffffffffff1916600160a060020a0392909216919091179055565b600054600160a060020a031681565b7f4f7261636c65536572766963650000000000000000000000000000000000000081565b60008054604080517fda47d856000000000000000000000000000000000000000000000000000000008152600481018590529051600160a060020a039092169163da47d85691602480820192602092909190829003018186803b15801561030157600080fd5b505afa158015610315573d6000803e3d6000fd5b505050506040513d602081101561032b57600080fd5b505192915050565b60008054604080517fe16c7d98000000000000000000000000000000000000000000000000000000008152600481018590529051600160a060020a039092169163e16c7d9891602480820192602092909190829003018186803b15801561030157600080fd5b60006103a3610476565b6040517f9af8c4ba00000000000000000000000000000000000000000000000000000000815260048101868152336024830181905260606044840190815260648401879052600160a060020a039490941693639af8c4ba93899389928992608401848480828437600081840152601f19601f82011690508083019250505095505050505050602060405180830381600087803b15801561044257600080fd5b505af1158015610456573d6000803e3d6000fd5b505050506040513d602081101561046c57600080fd5b5051949350505050565b60008054604080517fe16c7d980000000000000000000000000000000000000000000000000000000081527f517565727900000000000000000000000000000000000000000000000000000060048201529051600160a060020a039092169163e16c7d9891602480820192602092909190829003018186803b1580156104fb57600080fd5b505afa15801561050f573d6000803e3d6000fd5b505050506040513d602081101561052557600080fd5b505190509056fea165627a7a72305820612e47ae78d360937b5f06fb003c8db10dbd994db4bbdaebddb6569d95c9bd790029",
  "source": "pragma solidity 0.5.2;\n\nimport \"../shared/WithRegistry.sol\";\nimport \"../modules/query/IQueryController.sol\";\n\ncontract OracleService is WithRegistry {\n    bytes32 public constant NAME = \"OracleService\";\n\n    constructor(address _registry) public WithRegistry(_registry) {}\n\n    function respond(uint256 _requestId, bytes calldata _data)\n        external\n        returns (uint256 _responseId)\n    {\n        // todo: oracle contract should be approved\n        _responseId = query().respond(_requestId, msg.sender, _data);\n    }\n\n    /* Lookup */\n    function query() internal view returns (IQueryController) {\n        return IQueryController(registry.getContract(\"Query\"));\n    }\n}\n",
  "sourcePath": "/Users/ka/Projects/Altoros/Etherisc/dip-platform/core/gif-contracts/contracts/services/OracleService.sol",
  "compiler": {
    "name": "solc",
    "version": "0.5.2+commit.1df8f40c.Emscripten.clang"
  },
  "schemaVersion": "3.0.1",
  "updatedAt": "2019-02-13T15:27:22.336Z",
  "devdoc": {
    "methods": {}
  },
  "userdoc": {
    "methods": {}
  }
}