{
  "contractName": "OracleOwnerService",
  "abi": [
    {
      "constant": false,
      "inputs": [
        {
          "name": "_registry",
          "type": "address"
        }
      ],
      "name": "assignRegistry",
      "outputs": [],
      "payable": false,
      "stateMutability": "nonpayable",
      "type": "function",
      "signature": "0x51b68ee4"
    },
    {
      "constant": true,
      "inputs": [],
      "name": "registry",
      "outputs": [
        {
          "name": "",
          "type": "address"
        }
      ],
      "payable": false,
      "stateMutability": "view",
      "type": "function",
      "signature": "0x7b103999"
    },
    {
      "constant": true,
      "inputs": [],
      "name": "NAME",
      "outputs": [
        {
          "name": "",
          "type": "bytes32"
        }
      ],
      "payable": false,
      "stateMutability": "view",
      "type": "function",
      "signature": "0xa3f4df7e"
    },
    {
      "constant": true,
      "inputs": [
        {
          "name": "_contractName",
          "type": "bytes32"
        }
      ],
      "name": "getService",
      "outputs": [
        {
          "name": "_addr",
          "type": "address"
        }
      ],
      "payable": false,
      "stateMutability": "view",
      "type": "function",
      "signature": "0xda47d856"
    },
    {
      "constant": true,
      "inputs": [
        {
          "name": "_contractName",
          "type": "bytes32"
        }
      ],
      "name": "getContract",
      "outputs": [
        {
          "name": "_addr",
          "type": "address"
        }
      ],
      "payable": false,
      "stateMutability": "view",
      "type": "function",
      "signature": "0xe16c7d98"
    },
    {
      "inputs": [
        {
          "name": "_registry",
          "type": "address"
        }
      ],
      "payable": false,
      "stateMutability": "nonpayable",
      "type": "constructor",
      "signature": "constructor"
    },
    {
      "constant": false,
      "inputs": [
        {
          "name": "_oracleTypeName",
          "type": "bytes32"
        },
        {
          "name": "_inputFormat",
          "type": "string"
        },
        {
          "name": "_callbackFormat",
          "type": "string"
        },
        {
          "name": "_description",
          "type": "string"
        }
      ],
      "name": "proposeOracleType",
      "outputs": [],
      "payable": false,
      "stateMutability": "nonpayable",
      "type": "function",
      "signature": "0x26b85393"
    },
    {
      "constant": false,
      "inputs": [
        {
          "name": "_oracleContract",
          "type": "address"
        },
        {
          "name": "_description",
          "type": "string"
        }
      ],
      "name": "proposeOracle",
      "outputs": [
        {
          "name": "_oracleId",
          "type": "uint256"
        }
      ],
      "payable": false,
      "stateMutability": "nonpayable",
      "type": "function",
      "signature": "0xdba98c56"
    },
    {
      "constant": false,
      "inputs": [
        {
          "name": "_oracleTypeName",
          "type": "bytes32"
        },
        {
          "name": "_oracleId",
          "type": "uint256"
        }
      ],
      "name": "proposeOracleToType",
      "outputs": [
        {
          "name": "_proposalId",
          "type": "uint256"
        }
      ],
      "payable": false,
      "stateMutability": "nonpayable",
      "type": "function",
      "signature": "0x2e55b2cf"
    }
  ],
  "bytecode": "0x608060405234801561001057600080fd5b50604051602080610c7c8339810180604052602081101561003057600080fd5b810190808051906020019092919050505080806000806101000a81548173ffffffffffffffffffffffffffffffffffffffff021916908373ffffffffffffffffffffffffffffffffffffffff1602179055505050610be9806100936000396000f3fe608060405234801561001057600080fd5b50600436106100a5576000357c010000000000000000000000000000000000000000000000000000000090048063a3f4df7e11610078578063a3f4df7e146102b1578063da47d856146102cf578063dba98c561461033d578063e16c7d98146103ea576100a5565b806326b85393146100aa5780632e55b2cf146101d757806351b68ee4146102235780637b10399914610267575b600080fd5b6101d5600480360360808110156100c057600080fd5b8101908080359060200190929190803590602001906401000000008111156100e757600080fd5b8201836020820111156100f957600080fd5b8035906020019184600183028401116401000000008311171561011b57600080fd5b90919293919293908035906020019064010000000081111561013c57600080fd5b82018360208201111561014e57600080fd5b8035906020019184600183028401116401000000008311171561017057600080fd5b90919293919293908035906020019064010000000081111561019157600080fd5b8201836020820111156101a357600080fd5b803590602001918460018302840111640100000000831117156101c557600080fd5b9091929391929390505050610458565b005b61020d600480360360408110156101ed57600080fd5b81019080803590602001909291908035906020019092919050505061058b565b6040518082815260200191505060405180910390f35b6102656004803603602081101561023957600080fd5b81019080803573ffffffffffffffffffffffffffffffffffffffff169060200190929190505050610682565b005b61026f610790565b604051808273ffffffffffffffffffffffffffffffffffffffff1673ffffffffffffffffffffffffffffffffffffffff16815260200191505060405180910390f35b6102b96107b5565b6040518082815260200191505060405180910390f35b6102fb600480360360208110156102e557600080fd5b81019080803590602001909291905050506107d9565b604051808273ffffffffffffffffffffffffffffffffffffffff1673ffffffffffffffffffffffffffffffffffffffff16815260200191505060405180910390f35b6103d46004803603604081101561035357600080fd5b81019080803573ffffffffffffffffffffffffffffffffffffffff1690602001909291908035906020019064010000000081111561039057600080fd5b8201836020820111156103a257600080fd5b803590602001918460018302840111640100000000831117156103c457600080fd5b90919293919293905050506108ab565b6040518082815260200191505060405180910390f35b6104166004803603602081101561040057600080fd5b81019080803590602001909291905050506109fb565b604051808273ffffffffffffffffffffffffffffffffffffffff1673ffffffffffffffffffffffffffffffffffffffff16815260200191505060405180910390f35b610460610acd565b73ffffffffffffffffffffffffffffffffffffffff166326b85393888888888888886040518863ffffffff167c01000000000000000000000000000000000000000000000000000000000281526004018088815260200180602001806020018060200184810384528a8a82818152602001925080828437600081840152601f19601f8201169050808301925050508481038352888882818152602001925080828437600081840152601f19601f8201169050808301925050508481038252868682818152602001925080828437600081840152601f19601f8201169050808301925050509a5050505050505050505050600060405180830381600087803b15801561056a57600080fd5b505af115801561057e573d6000803e3d6000fd5b5050505050505050505050565b6000610595610acd565b73ffffffffffffffffffffffffffffffffffffffff1663a82e44023385856040518463ffffffff167c0100000000000000000000000000000000000000000000000000000000028152600401808473ffffffffffffffffffffffffffffffffffffffff1673ffffffffffffffffffffffffffffffffffffffff1681526020018381526020018281526020019350505050602060405180830381600087803b15801561063f57600080fd5b505af1158015610653573d6000803e3d6000fd5b505050506040513d602081101561066957600080fd5b8101908080519060200190929190505050905092915050565b6106ab7f44414f00000000000000000000000000000000000000000000000000000000006107d9565b73ffffffffffffffffffffffffffffffffffffffff163373ffffffffffffffffffffffffffffffffffffffff1614151561074d576040517f08c379a00000000000000000000000000000000000000000000000000000000081526004018080602001828103825260168152602001807f4552524f523a3a4e4f545f44414f5f534552564943450000000000000000000081525060200191505060405180910390fd5b806000806101000a81548173ffffffffffffffffffffffffffffffffffffffff021916908373ffffffffffffffffffffffffffffffffffffffff16021790555050565b6000809054906101000a900473ffffffffffffffffffffffffffffffffffffffff1681565b7f4f7261636c654f776e657253657276696365000000000000000000000000000081565b60008060009054906101000a900473ffffffffffffffffffffffffffffffffffffffff1673ffffffffffffffffffffffffffffffffffffffff1663da47d856836040518263ffffffff167c01000000000000000000000000000000000000000000000000000000000281526004018082815260200191505060206040518083038186803b15801561086957600080fd5b505afa15801561087d573d6000803e3d6000fd5b505050506040513d602081101561089357600080fd5b81019080805190602001909291905050509050919050565b60006108b5610acd565b73ffffffffffffffffffffffffffffffffffffffff1663d0378d69338686866040518563ffffffff167c0100000000000000000000000000000000000000000000000000000000028152600401808573ffffffffffffffffffffffffffffffffffffffff1673ffffffffffffffffffffffffffffffffffffffff1681526020018473ffffffffffffffffffffffffffffffffffffffff1673ffffffffffffffffffffffffffffffffffffffff168152602001806020018281038252848482818152602001925080828437600081840152601f19601f82011690508083019250505095505050505050602060405180830381600087803b1580156109b757600080fd5b505af11580156109cb573d6000803e3d6000fd5b505050506040513d60208110156109e157600080fd5b810190808051906020019092919050505090509392505050565b60008060009054906101000a900473ffffffffffffffffffffffffffffffffffffffff1673ffffffffffffffffffffffffffffffffffffffff1663e16c7d98836040518263ffffffff167c01000000000000000000000000000000000000000000000000000000000281526004018082815260200191505060206040518083038186803b158015610a8b57600080fd5b505afa158015610a9f573d6000803e3d6000fd5b505050506040513d6020811015610ab557600080fd5b81019080805190602001909291905050509050919050565b60008060009054906101000a900473ffffffffffffffffffffffffffffffffffffffff1673ffffffffffffffffffffffffffffffffffffffff1663e16c7d986040518163ffffffff167c010000000000000000000000000000000000000000000000000000000002815260040180807f5175657279000000000000000000000000000000000000000000000000000000815250602001905060206040518083038186803b158015610b7d57600080fd5b505afa158015610b91573d6000803e3d6000fd5b505050506040513d6020811015610ba757600080fd5b810190808051906020019092919050505090509056fea165627a7a723058205df9ca76fecaf40aa3e5b9e97df0ba17cf6fe9899eaaf5e0dac11a908b607ccd0029",
  "source": "pragma solidity 0.5.2;\n\nimport \"../modules/query/IQuery.sol\";\nimport \"../modules/query/IQueryController.sol\";\nimport \"../shared/WithRegistry.sol\";\n\ncontract OracleOwnerService is WithRegistry {\n    bytes32 public constant NAME = \"OracleOwnerService\";\n\n    constructor(address _registry) public WithRegistry(_registry) {}\n\n    function proposeOracleType(\n        bytes32 _oracleTypeName,\n        string calldata _inputFormat,\n        string calldata _callbackFormat,\n        string calldata _description\n    ) external {\n        // todo: oracle owner should be approved\n        query().proposeOracleType(\n            _oracleTypeName,\n            _inputFormat,\n            _callbackFormat,\n            _description\n        );\n    }\n\n    function proposeOracle(\n        address _oracleContract,\n        string calldata _description\n    ) external returns (uint256 _oracleId) {\n        // todo: oracle owner should be approved\n        _oracleId = query().proposeOracle(\n            msg.sender,\n            _oracleContract,\n            _description\n        );\n    }\n\n    function proposeOracleToType(bytes32 _oracleTypeName, uint256 _oracleId)\n        external\n        returns (uint256 _proposalId)\n    {\n        // todo: oracle owner should be approved\n        _proposalId = query().proposeOracleToType(\n            msg.sender,\n            _oracleTypeName,\n            _oracleId\n        );\n    }\n\n    /* Lookup */\n    function query() internal view returns (IQueryController) {\n        return IQueryController(registry.getContract(\"Query\"));\n    }\n}\n",
  "sourcePath": "/Users/ka/Projects/Altoros/Etherisc/dip-platform/core/gif-contracts/contracts/services/OracleOwnerService.sol",
  "compiler": {
    "name": "solc",
    "version": "0.5.2+commit.1df8f40c.Emscripten.clang"
  },
  "schemaVersion": "3.0.1",
  "updatedAt": "2019-02-08T13:33:03.841Z",
  "devdoc": {
    "methods": {}
  },
  "userdoc": {
    "methods": {}
  }
}