{
  "contractName": "PolicyController",
  "abi": [
    {
      "constant": true,
      "inputs": [
        {
          "name": "",
          "type": "uint256"
        },
        {
          "name": "",
          "type": "uint256"
        }
      ],
      "name": "payouts",
      "outputs": [
        {
          "name": "metadataId",
          "type": "uint256"
        },
        {
          "name": "claimId",
          "type": "uint256"
        },
        {
          "name": "expectedAmount",
          "type": "uint256"
        },
        {
          "name": "actualAmount",
          "type": "uint256"
        },
        {
          "name": "state",
          "type": "uint8"
        },
        {
          "name": "stateMessage",
          "type": "bytes32"
        },
        {
          "name": "createdAt",
          "type": "uint256"
        },
        {
          "name": "updatedAt",
          "type": "uint256"
        }
      ],
      "payable": false,
      "stateMutability": "view",
      "type": "function",
      "signature": "0x304de873"
    },
    {
      "constant": false,
      "inputs": [
        {
          "name": "_registry",
          "type": "address"
        }
      ],
      "name": "assignRegistry",
      "outputs": [],
      "payable": false,
      "stateMutability": "nonpayable",
      "type": "function",
      "signature": "0x51b68ee4"
    },
    {
      "constant": true,
      "inputs": [
        {
          "name": "",
          "type": "uint256"
        },
        {
          "name": "",
          "type": "uint256"
        }
      ],
      "name": "applications",
      "outputs": [
        {
          "name": "metadataId",
          "type": "uint256"
        },
        {
          "name": "customerExternalId",
          "type": "bytes32"
        },
        {
          "name": "premium",
          "type": "uint256"
        },
        {
          "name": "currency",
          "type": "bytes32"
        },
        {
          "name": "state",
          "type": "uint8"
        },
        {
          "name": "stateMessage",
          "type": "bytes32"
        },
        {
          "name": "createdAt",
          "type": "uint256"
        },
        {
          "name": "updatedAt",
          "type": "uint256"
        }
      ],
      "payable": false,
      "stateMutability": "view",
      "type": "function",
      "signature": "0x7a870b63"
    },
    {
      "constant": true,
      "inputs": [],
      "name": "registry",
      "outputs": [
        {
          "name": "",
          "type": "address"
        }
      ],
      "payable": false,
      "stateMutability": "view",
      "type": "function",
      "signature": "0x7b103999"
    },
    {
      "constant": true,
      "inputs": [
        {
          "name": "",
          "type": "uint256"
        },
        {
          "name": "",
          "type": "uint256"
        }
      ],
      "name": "metadata",
      "outputs": [
        {
          "name": "applicationId",
          "type": "uint256"
        },
        {
          "name": "policyId",
          "type": "uint256"
        },
        {
          "name": "hasPolicy",
          "type": "bool"
        },
        {
          "name": "hasApplication",
          "type": "bool"
        },
        {
          "name": "tokenContract",
          "type": "address"
        },
        {
          "name": "tokenId",
          "type": "uint256"
        },
        {
          "name": "registryContract",
          "type": "uint256"
        },
        {
          "name": "release",
          "type": "uint256"
        },
        {
          "name": "state",
          "type": "uint8"
        },
        {
          "name": "stateMessage",
          "type": "bytes32"
        },
        {
          "name": "createdAt",
          "type": "uint256"
        },
        {
          "name": "updatedAt",
          "type": "uint256"
        }
      ],
      "payable": false,
      "stateMutability": "view",
      "type": "function",
      "signature": "0xa0b7992b"
    },
    {
      "constant": true,
      "inputs": [
        {
          "name": "",
          "type": "uint256"
        },
        {
          "name": "",
          "type": "uint256"
        }
      ],
      "name": "policies",
      "outputs": [
        {
          "name": "metadataId",
          "type": "uint256"
        },
        {
          "name": "state",
          "type": "uint8"
        },
        {
          "name": "stateMessage",
          "type": "bytes32"
        },
        {
          "name": "createdAt",
          "type": "uint256"
        },
        {
          "name": "updatedAt",
          "type": "uint256"
        }
      ],
      "payable": false,
      "stateMutability": "view",
      "type": "function",
      "signature": "0xc2a0fa48"
    },
    {
      "constant": true,
      "inputs": [],
      "name": "delegator",
      "outputs": [
        {
          "name": "",
          "type": "address"
        }
      ],
      "payable": false,
      "stateMutability": "view",
      "type": "function",
      "signature": "0xce9b7930"
    },
    {
      "constant": true,
      "inputs": [
        {
          "name": "_contractName",
          "type": "bytes32"
        }
      ],
      "name": "getService",
      "outputs": [
        {
          "name": "_addr",
          "type": "address"
        }
      ],
      "payable": false,
      "stateMutability": "view",
      "type": "function",
      "signature": "0xda47d856"
    },
    {
      "constant": true,
      "inputs": [
        {
          "name": "_contractName",
          "type": "bytes32"
        }
      ],
      "name": "getContract",
      "outputs": [
        {
          "name": "_addr",
          "type": "address"
        }
      ],
      "payable": false,
      "stateMutability": "view",
      "type": "function",
      "signature": "0xe16c7d98"
    },
    {
      "constant": false,
      "inputs": [
        {
          "name": "_storage",
          "type": "address"
        }
      ],
      "name": "assignStorage",
      "outputs": [],
      "payable": false,
      "stateMutability": "nonpayable",
      "type": "function",
      "signature": "0xe71359bf"
    },
    {
      "constant": true,
      "inputs": [
        {
          "name": "",
          "type": "uint256"
        },
        {
          "name": "",
          "type": "uint256"
        }
      ],
      "name": "claims",
      "outputs": [
        {
          "name": "metadataId",
          "type": "uint256"
        },
        {
          "name": "data",
          "type": "bytes32"
        },
        {
          "name": "state",
          "type": "uint8"
        },
        {
          "name": "stateMessage",
          "type": "bytes32"
        },
        {
          "name": "createdAt",
          "type": "uint256"
        },
        {
          "name": "updatedAt",
          "type": "uint256"
        }
      ],
      "payable": false,
      "stateMutability": "view",
      "type": "function",
      "signature": "0xf894160e"
    },
    {
      "inputs": [
        {
          "name": "_registry",
          "type": "address"
        }
      ],
      "payable": false,
      "stateMutability": "nonpayable",
      "type": "constructor",
      "signature": "constructor"
    },
    {
      "payable": false,
      "stateMutability": "nonpayable",
      "type": "fallback"
    },
    {
      "anonymous": false,
      "inputs": [
        {
          "indexed": false,
          "name": "productId",
          "type": "uint256"
        },
        {
          "indexed": false,
          "name": "metadataId",
          "type": "uint256"
        },
        {
          "indexed": false,
          "name": "state",
          "type": "uint8"
        }
      ],
      "name": "LogNewMetadata",
      "type": "event",
      "signature": "0x56e10a65574d410cf29046d336f4e0b6756a82e88b976b823706a5cc4f37c470"
    },
    {
      "anonymous": false,
      "inputs": [
        {
          "indexed": false,
          "name": "productId",
          "type": "uint256"
        },
        {
          "indexed": false,
          "name": "metadataId",
          "type": "uint256"
        },
        {
          "indexed": false,
          "name": "state",
          "type": "uint8"
        }
      ],
      "name": "LogMetadataStateChanged",
      "type": "event",
      "signature": "0xb8ecaa7e65a5563c3056a6912ad98a31fff22865db39c1d532246718626b2454"
    },
    {
      "anonymous": false,
      "inputs": [
        {
          "indexed": false,
          "name": "productId",
          "type": "uint256"
        },
        {
          "indexed": false,
          "name": "metadataId",
          "type": "uint256"
        },
        {
          "indexed": false,
          "name": "applicationId",
          "type": "uint256"
        }
      ],
      "name": "LogNewApplication",
      "type": "event",
      "signature": "0x08cbae34439f6e42b3c0d22f309ee991b7a1aa31c27b09d0511634c5b7b4555c"
    },
    {
      "anonymous": false,
      "inputs": [
        {
          "indexed": false,
          "name": "productId",
          "type": "uint256"
        },
        {
          "indexed": false,
          "name": "metadataId",
          "type": "uint256"
        },
        {
          "indexed": false,
          "name": "applicationId",
          "type": "uint256"
        },
        {
          "indexed": false,
          "name": "state",
          "type": "uint8"
        }
      ],
      "name": "LogApplicationStateChanged",
      "type": "event",
      "signature": "0x72662cc8f3e4669125918fcdb8424c41e93f69bf15b435c1095772960df92445"
    },
    {
      "anonymous": false,
      "inputs": [
        {
          "indexed": false,
          "name": "productId",
          "type": "uint256"
        },
        {
          "indexed": false,
          "name": "metadataId",
          "type": "uint256"
        },
        {
          "indexed": false,
          "name": "policyId",
          "type": "uint256"
        },
        {
          "indexed": false,
          "name": "applicationId",
          "type": "uint256"
        }
      ],
      "name": "LogNewPolicy",
      "type": "event",
      "signature": "0x393a2454e004de3e3f426713018a5da2237da49f1079720cdf1450c81e0078c1"
    },
    {
      "anonymous": false,
      "inputs": [
        {
          "indexed": false,
          "name": "productId",
          "type": "uint256"
        },
        {
          "indexed": false,
          "name": "metadataId",
          "type": "uint256"
        },
        {
          "indexed": false,
          "name": "policyId",
          "type": "uint256"
        },
        {
          "indexed": false,
          "name": "state",
          "type": "uint8"
        }
      ],
      "name": "LogPolicyStateChanged",
      "type": "event",
      "signature": "0x8b0d1b9c9389302c8ab61b5f5ad51b9cbae5f3330693804a9f3d9aa00e9d1fde"
    },
    {
      "anonymous": false,
      "inputs": [
        {
          "indexed": false,
          "name": "productId",
          "type": "uint256"
        },
        {
          "indexed": false,
          "name": "metadataId",
          "type": "uint256"
        },
        {
          "indexed": false,
          "name": "policyId",
          "type": "uint256"
        },
        {
          "indexed": false,
          "name": "state",
          "type": "uint8"
        }
      ],
      "name": "LogNewClaim",
      "type": "event",
      "signature": "0xf32c53a0badbaf439caef780833859e2aa2f472f3a0f6149f5b384c8ae348faf"
    },
    {
      "anonymous": false,
      "inputs": [
        {
          "indexed": false,
          "name": "productId",
          "type": "uint256"
        },
        {
          "indexed": false,
          "name": "metadataId",
          "type": "uint256"
        },
        {
          "indexed": false,
          "name": "policyId",
          "type": "uint256"
        },
        {
          "indexed": false,
          "name": "state",
          "type": "uint8"
        }
      ],
      "name": "LogClaimStateChanged",
      "type": "event",
      "signature": "0x93ce95a18916f55295a7d528231262dc7e487c6e0b2360f3f3da9aaf0e8fb114"
    },
    {
      "anonymous": false,
      "inputs": [
        {
          "indexed": false,
          "name": "productId",
          "type": "uint256"
        },
        {
          "indexed": false,
          "name": "metadataId",
          "type": "uint256"
        },
        {
          "indexed": false,
          "name": "policyId",
          "type": "uint256"
        },
        {
          "indexed": false,
          "name": "claimId",
          "type": "uint256"
        },
        {
          "indexed": false,
          "name": "amount",
          "type": "uint256"
        },
        {
          "indexed": false,
          "name": "state",
          "type": "uint8"
        }
      ],
      "name": "LogNewPayout",
      "type": "event",
      "signature": "0x6e647ba49b5e26492ef18835ee170122eb75dfda7c45b388546312412246f38d"
    },
    {
      "anonymous": false,
      "inputs": [
        {
          "indexed": false,
          "name": "productId",
          "type": "uint256"
        },
        {
          "indexed": false,
          "name": "metadataId",
          "type": "uint256"
        },
        {
          "indexed": false,
          "name": "policyId",
          "type": "uint256"
        },
        {
          "indexed": false,
          "name": "claimId",
          "type": "uint256"
        },
        {
          "indexed": false,
          "name": "state",
          "type": "uint8"
        }
      ],
      "name": "LogPayoutStateChanged",
      "type": "event",
      "signature": "0x37081c5c4ed46e00a7a4425e5eb205d695291de1fbdaa37a5ab5fb247831c2d8"
    },
    {
      "constant": false,
      "inputs": [
        {
          "name": "_productId",
          "type": "uint256"
        }
      ],
      "name": "createPolicyFlow",
      "outputs": [
        {
          "name": "_metadataId",
          "type": "uint256"
        }
      ],
      "payable": false,
      "stateMutability": "nonpayable",
      "type": "function",
      "signature": "0x679ffb80"
    },
    {
      "constant": false,
      "inputs": [
        {
          "name": "_productId",
          "type": "uint256"
        },
        {
          "name": "_metadataId",
          "type": "uint256"
        },
        {
          "name": "_state",
          "type": "uint8"
        }
      ],
      "name": "setPolicyFlowState",
      "outputs": [],
      "payable": false,
      "stateMutability": "nonpayable",
      "type": "function",
      "signature": "0xe5274292"
    },
    {
      "constant": false,
      "inputs": [
        {
          "name": "_productId",
          "type": "uint256"
        },
        {
          "name": "_metadataId",
          "type": "uint256"
        },
        {
          "name": "_customerExternalId",
          "type": "bytes32"
        },
        {
          "name": "_premium",
          "type": "uint256"
        },
        {
          "name": "_currency",
          "type": "bytes32"
        },
        {
          "name": "_payoutOptions",
          "type": "uint256[]"
        }
      ],
      "name": "createApplication",
      "outputs": [
        {
          "name": "_applicationId",
          "type": "uint256"
        }
      ],
      "payable": false,
      "stateMutability": "nonpayable",
      "type": "function",
      "signature": "0xd007967a"
    },
    {
      "constant": false,
      "inputs": [
        {
          "name": "_productId",
          "type": "uint256"
        },
        {
          "name": "_applicationId",
          "type": "uint256"
        },
        {
          "name": "_state",
          "type": "uint8"
        }
      ],
      "name": "setApplicationState",
      "outputs": [],
      "payable": false,
      "stateMutability": "nonpayable",
      "type": "function",
      "signature": "0x5fde26f4"
    },
    {
      "constant": false,
      "inputs": [
        {
          "name": "_productId",
          "type": "uint256"
        },
        {
          "name": "_metadataId",
          "type": "uint256"
        }
      ],
      "name": "createPolicy",
      "outputs": [
        {
          "name": "_policyId",
          "type": "uint256"
        }
      ],
      "payable": false,
      "stateMutability": "nonpayable",
      "type": "function",
      "signature": "0xc7e2f28e"
    },
    {
      "constant": false,
      "inputs": [
        {
          "name": "_productId",
          "type": "uint256"
        },
        {
          "name": "_policyId",
          "type": "uint256"
        },
        {
          "name": "_state",
          "type": "uint8"
        }
      ],
      "name": "setPolicyState",
      "outputs": [],
      "payable": false,
      "stateMutability": "nonpayable",
      "type": "function",
      "signature": "0xd4d6e444"
    },
    {
      "constant": false,
      "inputs": [
        {
          "name": "_productId",
          "type": "uint256"
        },
        {
          "name": "_policyId",
          "type": "uint256"
        },
        {
          "name": "_data",
          "type": "bytes32"
        }
      ],
      "name": "createClaim",
      "outputs": [
        {
          "name": "_claimId",
          "type": "uint256"
        }
      ],
      "payable": false,
      "stateMutability": "nonpayable",
      "type": "function",
      "signature": "0xf6499f79"
    },
    {
      "constant": false,
      "inputs": [
        {
          "name": "_productId",
          "type": "uint256"
        },
        {
          "name": "_claimId",
          "type": "uint256"
        },
        {
          "name": "_state",
          "type": "uint8"
        }
      ],
      "name": "setClaimState",
      "outputs": [],
      "payable": false,
      "stateMutability": "nonpayable",
      "type": "function",
      "signature": "0x24e48c4a"
    },
    {
      "constant": false,
      "inputs": [
        {
          "name": "_productId",
          "type": "uint256"
        },
        {
          "name": "_claimId",
          "type": "uint256"
        },
        {
          "name": "_amount",
          "type": "uint256"
        }
      ],
      "name": "createPayout",
      "outputs": [
        {
          "name": "_payoutId",
          "type": "uint256"
        }
      ],
      "payable": false,
      "stateMutability": "nonpayable",
      "type": "function",
      "signature": "0x9171d040"
    },
    {
      "constant": false,
      "inputs": [
        {
          "name": "_productId",
          "type": "uint256"
        },
        {
          "name": "_payoutId",
          "type": "uint256"
        },
        {
          "name": "_amount",
          "type": "uint256"
        }
      ],
      "name": "payOut",
      "outputs": [
        {
          "name": "_remainder",
          "type": "uint256"
        }
      ],
      "payable": false,
      "stateMutability": "nonpayable",
      "type": "function",
      "signature": "0x2f5ab23b"
    },
    {
      "constant": false,
      "inputs": [
        {
          "name": "_productId",
          "type": "uint256"
        },
        {
          "name": "_payoutId",
          "type": "uint256"
        },
        {
          "name": "_state",
          "type": "uint8"
        }
      ],
      "name": "setPayoutState",
      "outputs": [],
      "payable": false,
      "stateMutability": "nonpayable",
      "type": "function",
      "signature": "0xae4b8ae1"
    },
    {
      "constant": true,
      "inputs": [
        {
          "name": "_productId",
          "type": "uint256"
        },
        {
          "name": "_applicationId",
          "type": "uint256"
        }
      ],
      "name": "getApplicationData",
      "outputs": [
        {
          "name": "_metadataId",
          "type": "uint256"
        },
        {
          "name": "_customerExternalId",
          "type": "bytes32"
        },
        {
          "name": "_premium",
          "type": "uint256"
        },
        {
          "name": "_currency",
          "type": "bytes32"
        },
        {
          "name": "_state",
          "type": "uint8"
        }
      ],
      "payable": false,
      "stateMutability": "view",
      "type": "function",
      "signature": "0x9c671820"
    },
    {
      "constant": true,
      "inputs": [
        {
          "name": "_productId",
          "type": "uint256"
        },
        {
          "name": "_applicationId",
          "type": "uint256"
        }
      ],
      "name": "getPayoutOptions",
      "outputs": [
        {
          "name": "_payoutOptions",
          "type": "uint256[]"
        }
      ],
      "payable": false,
      "stateMutability": "view",
      "type": "function",
      "signature": "0x51d7c4cc"
    },
    {
      "constant": true,
      "inputs": [
        {
          "name": "_productId",
          "type": "uint256"
        },
        {
          "name": "_applicationId",
          "type": "uint256"
        }
      ],
      "name": "getPremium",
      "outputs": [
        {
          "name": "_premium",
          "type": "uint256"
        }
      ],
      "payable": false,
      "stateMutability": "view",
      "type": "function",
      "signature": "0x82275208"
    }
  ],
  "bytecode": "0x60806040523480156200001157600080fd5b5060405160208062003b63833981018060405262000033919081019062000093565b8080600560006101000a81548173ffffffffffffffffffffffffffffffffffffffff021916908373ffffffffffffffffffffffffffffffffffffffff1602179055505050620000f3565b60006200008b8251620000df565b905092915050565b600060208284031215620000a657600080fd5b6000620000b6848285016200007d565b91505092915050565b600073ffffffffffffffffffffffffffffffffffffffff82169050919050565b6000620000ec82620000bf565b9050919050565b613a6080620001036000396000f3fe608060405234801561001057600080fd5b5060043610610190576000357c010000000000000000000000000000000000000000000000000000000090048063a0b7992b116100fb578063d4d6e444116100b4578063e52742921161008e578063e527429214610554578063e71359bf14610570578063f6499f791461058c578063f894160e146105bc57610190565b8063d4d6e444146104d8578063da47d856146104f4578063e16c7d981461052457610190565b8063a0b7992b146103cf578063ae4b8ae11461040a578063c2a0fa4814610426578063c7e2f28e1461045a578063ce9b79301461048a578063d007967a146104a857610190565b8063679ffb801161014d578063679ffb80146102b65780637a870b63146102e65780637b1039991461031d578063822752081461033b5780639171d0401461036b5780639c6718201461039b57610190565b806324e48c4a146101cb5780632f5ab23b146101e7578063304de8731461021757806351b68ee41461024e57806351d7c4cc1461026a5780635fde26f41461029a575b6040517f08c379a00000000000000000000000000000000000000000000000000000000081526004016101c2906132b2565b60405180910390fd5b6101e560048036036101e09190810190612e24565b6105f1565b005b61020160048036036101fc9190810190612f60565b610804565b60405161020e9190613312565b60405180910390f35b610231600480360361022c9190810190612ca3565b610a5e565b604051610245989796959493929190613741565b60405180910390f35b61026860048036036102639190810190612bff565b610acf565b005b610284600480360361027f9190810190612ca3565b610bab565b604051610291919061321a565b60405180910390f35b6102b460048036036102af9190810190612dd5565b610c35565b005b6102d060048036036102cb9190810190612c7a565b610e0e565b6040516102dd9190613312565b60405180910390f35b61030060048036036102fb9190810190612ca3565b611013565b6040516103149897969594939291906133e1565b60405180910390f35b610325611084565b6040516103329190613257565b60405180910390f35b61035560048036036103509190810190612ca3565b6110aa565b6040516103629190613312565b60405180910390f35b61038560048036036103809190810190612f60565b6110e6565b6040516103929190613312565b60405180910390f35b6103b560048036036103b09190810190612ca3565b6113bc565b6040516103c695949392919061338e565b60405180910390f35b6103e960048036036103e49190810190612ca3565b6114df565b6040516104019c9b9a999897969594939291906134b2565b60405180910390f35b610424600480360361041f9190810190612e73565b6115a2565b005b610440600480360361043b9190810190612ca3565b6117bb565b60405161045195949392919061345f565b60405180910390f35b610474600480360361046f9190810190612ca3565b61181a565b6040516104819190613312565b60405180910390f35b610492611a91565b60405161049f91906131ff565b60405180910390f35b6104c260048036036104bd9190810190612d2e565b611ab7565b6040516104cf9190613312565b60405180910390f35b6104f260048036036104ed9190810190612f11565b611d5c565b005b61050e60048036036105099190810190612c51565b611f35565b60405161051b91906131ff565b60405180910390f35b61053e60048036036105399190810190612c51565b612005565b60405161054b91906131ff565b60405180910390f35b61056e60048036036105699190810190612ec2565b6120d5565b005b61058a60048036036105859190810190612bff565b6122a7565b005b6105a660048036036105a19190810190612cdf565b61234b565b6040516105b39190613312565b60405180910390f35b6105d660048036036105d19190810190612ca3565b612610565b6040516105e89695949392919061332d565b60405180910390f35b7f506f6c696379000000000000000000000000000000000000000000000000000061061b81612005565b73ffffffffffffffffffffffffffffffffffffffff163073ffffffffffffffffffffffffffffffffffffffff1614151561068a576040517f08c379a0000000000000000000000000000000000000000000000000000000008152600401610681906132f2565b60405180910390fd5b6106b37f50726f6475637453657276696365000000000000000000000000000000000000612005565b73ffffffffffffffffffffffffffffffffffffffff163373ffffffffffffffffffffffffffffffffffffffff16141515610722576040517f08c379a0000000000000000000000000000000000000000000000000000000008152600401610719906132d2565b60405180910390fd5b6000600360008681526020019081526020016000208481548110151561074457fe5b90600052602060002090600602019050828160020160006101000a81548160ff0219169083600281111561077457fe5b0217905550428160050181905550600080600087815260200190815260200160002082600001548154811015156107a757fe5b90600052602060002090600c020190507f93ce95a18916f55295a7d528231262dc7e487c6e0b2360f3f3da9aaf0e8fb1148683600001548360010154876040516107f4949392919061361f565b60405180910390a1505050505050565b60007f506f6c696379000000000000000000000000000000000000000000000000000061083081612005565b73ffffffffffffffffffffffffffffffffffffffff163073ffffffffffffffffffffffffffffffffffffffff1614151561089f576040517f08c379a0000000000000000000000000000000000000000000000000000000008152600401610896906132f2565b60405180910390fd5b6108c87f50726f6475637453657276696365000000000000000000000000000000000000612005565b73ffffffffffffffffffffffffffffffffffffffff163373ffffffffffffffffffffffffffffffffffffffff16141515610937576040517f08c379a000000000000000000000000000000000000000000000000000000000815260040161092e906132d2565b60405180910390fd5b6000600460008781526020019081526020016000208581548110151561095957fe5b90600052602060002090600802019050600061098285836003015461267590919063ffffffff16565b9050808260020154101515156109cd576040517f08c379a00000000000000000000000000000000000000000000000000000000081526004016109c490613292565b60405180910390fd5b8082600201541415610a24576000826002018190555080826003018190555060018260040160006101000a81548160ff02191690836001811115610a0d57fe5b021790555042826007018190555060009350610a54565b808260030181905550428260070181905550610a518260030154836002015461269690919063ffffffff16565b93505b5050509392505050565b600460205281600052604060002081815481101515610a7957fe5b9060005260206000209060080201600091509150508060000154908060010154908060020154908060030154908060040160009054906101000a900460ff16908060050154908060060154908060070154905088565b610af87f44414f0000000000000000000000000000000000000000000000000000000000611f35565b73ffffffffffffffffffffffffffffffffffffffff163373ffffffffffffffffffffffffffffffffffffffff16141515610b67576040517f08c379a0000000000000000000000000000000000000000000000000000000008152600401610b5e90613272565b60405180910390fd5b80600560006101000a81548173ffffffffffffffffffffffffffffffffffffffff021916908373ffffffffffffffffffffffffffffffffffffffff16021790555050565b60606001600084815260200190815260200160002082815481101515610bcd57fe5b9060005260206000209060090201600401805480602002602001604051908101604052809291908181526020018280548015610c2857602002820191906000526020600020905b815481526020019060010190808311610c14575b5050505050905092915050565b7f506f6c6963790000000000000000000000000000000000000000000000000000610c5f81612005565b73ffffffffffffffffffffffffffffffffffffffff163073ffffffffffffffffffffffffffffffffffffffff16141515610cce576040517f08c379a0000000000000000000000000000000000000000000000000000000008152600401610cc5906132f2565b60405180910390fd5b610cf77f50726f6475637453657276696365000000000000000000000000000000000000612005565b73ffffffffffffffffffffffffffffffffffffffff163373ffffffffffffffffffffffffffffffffffffffff16141515610d66576040517f08c379a0000000000000000000000000000000000000000000000000000000008152600401610d5d906132d2565b60405180910390fd5b60006001600086815260200190815260200160002084815481101515610d8857fe5b90600052602060002090600902019050828160050160006101000a81548160ff02191690836003811115610db857fe5b02179055504281600801819055507f72662cc8f3e4669125918fcdb8424c41e93f69bf15b435c1095772960df924458582600001548686604051610dff94939291906135da565b60405180910390a15050505050565b60007f506f6c6963790000000000000000000000000000000000000000000000000000610e3a81612005565b73ffffffffffffffffffffffffffffffffffffffff163073ffffffffffffffffffffffffffffffffffffffff16141515610ea9576040517f08c379a0000000000000000000000000000000000000000000000000000000008152600401610ea0906132f2565b60405180910390fd5b610ed27f50726f6475637453657276696365000000000000000000000000000000000000612005565b73ffffffffffffffffffffffffffffffffffffffff163373ffffffffffffffffffffffffffffffffffffffff16141515610f41576040517f08c379a0000000000000000000000000000000000000000000000000000000008152600401610f38906132d2565b60405180910390fd5b6000808481526020019081526020016000208054809190600101610f6591906126fc565b9150600080600085815260200190815260200160002083815481101515610f8857fe5b90600052602060002090600c0201905060008160080160006101000a81548160ff02191690836002811115610fb957fe5b02179055504281600a01819055504281600b01819055507f56e10a65574d410cf29046d336f4e0b6756a82e88b976b823706a5cc4f37c470848460006040516110049392919061356c565b60405180910390a15050919050565b60016020528160005260406000208181548110151561102e57fe5b9060005260206000209060090201600091509150508060000154908060010154908060020154908060030154908060050160009054906101000a900460ff16908060060154908060070154908060080154905088565b600560009054906101000a900473ffffffffffffffffffffffffffffffffffffffff1681565b600060016000848152602001908152602001600020828154811015156110cc57fe5b906000526020600020906009020160020154905092915050565b60007f506f6c696379000000000000000000000000000000000000000000000000000061111281612005565b73ffffffffffffffffffffffffffffffffffffffff163073ffffffffffffffffffffffffffffffffffffffff16141515611181576040517f08c379a0000000000000000000000000000000000000000000000000000000008152600401611178906132f2565b60405180910390fd5b6111aa7f50726f6475637453657276696365000000000000000000000000000000000000612005565b73ffffffffffffffffffffffffffffffffffffffff163373ffffffffffffffffffffffffffffffffffffffff16141515611219576040517f08c379a0000000000000000000000000000000000000000000000000000000008152600401611210906132d2565b60405180910390fd5b6000600360008781526020019081526020016000208581548110151561123b57fe5b90600052602060002090600602019050600460008781526020019081526020016000208054809190600101611270919061272e565b92506000600460008881526020019081526020016000208481548110151561129457fe5b906000526020600020906008020190508160000154816000018190555085816001018190555060008160040160006101000a81548160ff021916908360018111156112db57fe5b02179055508481600201819055504281600601819055504281600701819055506000806000898152602001908152602001600020836000015481548110151561132057fe5b90600052602060002090600c02019050806003018590806001815401808255809150509060018203906000526020600020016000909192909190915055504281600b01819055507f6e647ba49b5e26492ef18835ee170122eb75dfda7c45b388546312412246f38d88846000015483600101548a8a60006040516113a9969594939291906137bf565b60405180910390a1505050509392505050565b600080600080600060016000888152602001908152602001600020868154811015156113e457fe5b9060005260206000209060090201600001549450600160008881526020019081526020016000208681548110151561141857fe5b9060005260206000209060090201600101549350600160008881526020019081526020016000208681548110151561144c57fe5b9060005260206000209060090201600201549250600160008881526020019081526020016000208681548110151561148057fe5b906000526020600020906009020160030154915060016000888152602001908152602001600020868154811015156114b457fe5b906000526020600020906009020160050160009054906101000a900460ff1690509295509295909350565b6000602052816000526040600020818154811015156114fa57fe5b90600052602060002090600c0201600091509150508060000154908060010154908060040160009054906101000a900460ff16908060040160019054906101000a900460ff16908060040160029054906101000a900473ffffffffffffffffffffffffffffffffffffffff16908060050154908060060154908060070154908060080160009054906101000a900460ff169080600901549080600a01549080600b015490508c565b7f506f6c69637900000000000000000000000000000000000000000000000000006115cc81612005565b73ffffffffffffffffffffffffffffffffffffffff163073ffffffffffffffffffffffffffffffffffffffff1614151561163b576040517f08c379a0000000000000000000000000000000000000000000000000000000008152600401611632906132f2565b60405180910390fd5b6116647f50726f6475637453657276696365000000000000000000000000000000000000612005565b73ffffffffffffffffffffffffffffffffffffffff163373ffffffffffffffffffffffffffffffffffffffff161415156116d3576040517f08c379a00000000000000000000000000000000000000000000000000000000081526004016116ca906132d2565b60405180910390fd5b600060046000868152602001908152602001600020848154811015156116f557fe5b90600052602060002090600802019050828160040160006101000a81548160ff0219169083600181111561172557fe5b02179055504281600701819055506000806000878152602001908152602001600020826000015481548110151561175857fe5b90600052602060002090600c020190507f37081c5c4ed46e00a7a4425e5eb205d695291de1fbdaa37a5ab5fb247831c2d886836000015483600101548560010154886040516117ab9594939291906136ee565b60405180910390a1505050505050565b6002602052816000526040600020818154811015156117d657fe5b9060005260206000209060050201600091509150508060000154908060010160009054906101000a900460ff16908060020154908060030154908060040154905085565b60007f506f6c696379000000000000000000000000000000000000000000000000000061184681612005565b73ffffffffffffffffffffffffffffffffffffffff163073ffffffffffffffffffffffffffffffffffffffff161415156118b5576040517f08c379a00000000000000000000000000000000000000000000000000000000081526004016118ac906132f2565b60405180910390fd5b6118de7f50726f6475637453657276696365000000000000000000000000000000000000612005565b73ffffffffffffffffffffffffffffffffffffffff163373ffffffffffffffffffffffffffffffffffffffff1614151561194d576040517f08c379a0000000000000000000000000000000000000000000000000000000008152600401611944906132d2565b60405180910390fd5b6002600085815260200190815260200160002080548091906001016119729190612760565b91506000600260008681526020019081526020016000208381548110151561199657fe5b9060005260206000209060050201905083816000018190555060008160010160006101000a81548160ff021916908360018111156119d057fe5b0217905550428160030181905550428160040181905550600080600087815260200190815260200160002085815481101515611a0857fe5b90600052602060002090600c0201905083816001018190555060018160040160006101000a81548160ff0219169083151502179055504281600b01819055507f393a2454e004de3e3f426713018a5da2237da49f1079720cdf1450c81e0078c18686868460000154604051611a8094939291906136a9565b60405180910390a150505092915050565b600660009054906101000a900473ffffffffffffffffffffffffffffffffffffffff1681565b60007f506f6c6963790000000000000000000000000000000000000000000000000000611ae381612005565b73ffffffffffffffffffffffffffffffffffffffff163073ffffffffffffffffffffffffffffffffffffffff16141515611b52576040517f08c379a0000000000000000000000000000000000000000000000000000000008152600401611b49906132f2565b60405180910390fd5b611b7b7f50726f6475637453657276696365000000000000000000000000000000000000612005565b73ffffffffffffffffffffffffffffffffffffffff163373ffffffffffffffffffffffffffffffffffffffff16141515611bea576040517f08c379a0000000000000000000000000000000000000000000000000000000008152600401611be1906132d2565b60405180910390fd5b600160008a81526020019081526020016000208054809190600101611c0f9190612792565b91506000600160008b815260200190815260200160002083815481101515611c3357fe5b906000526020600020906009020190508881600001819055508781600101819055508681600201819055508581600301819055508484826004019190611c7a9291906127c4565b5060008160050160006101000a81548160ff02191690836003811115611c9c57fe5b021790555042816007018190555042816008018190555060008060008c81526020019081526020016000208a815481101515611cd457fe5b90600052602060002090600c0201905083816000018190555060018160040160016101000a81548160ff0219169083151502179055504281600b01819055507f08cbae34439f6e42b3c0d22f309ee991b7a1aa31c27b09d0511634c5b7b4555c8b8b86604051611d46939291906135a3565b60405180910390a1505050979650505050505050565b7f506f6c6963790000000000000000000000000000000000000000000000000000611d8681612005565b73ffffffffffffffffffffffffffffffffffffffff163073ffffffffffffffffffffffffffffffffffffffff16141515611df5576040517f08c379a0000000000000000000000000000000000000000000000000000000008152600401611dec906132f2565b60405180910390fd5b611e1e7f50726f6475637453657276696365000000000000000000000000000000000000612005565b73ffffffffffffffffffffffffffffffffffffffff163373ffffffffffffffffffffffffffffffffffffffff16141515611e8d576040517f08c379a0000000000000000000000000000000000000000000000000000000008152600401611e84906132d2565b60405180910390fd5b60006002600086815260200190815260200160002084815481101515611eaf57fe5b90600052602060002090600502019050828160010160006101000a81548160ff02191690836001811115611edf57fe5b02179055504281600401819055507f8b0d1b9c9389302c8ab61b5f5ad51b9cbae5f3330693804a9f3d9aa00e9d1fde8582600001548686604051611f269493929190613664565b60405180910390a15050505050565b6000600560009054906101000a900473ffffffffffffffffffffffffffffffffffffffff1673ffffffffffffffffffffffffffffffffffffffff1663da47d856836040518263ffffffff167c0100000000000000000000000000000000000000000000000000000000028152600401611fae919061323c565b60206040518083038186803b158015611fc657600080fd5b505afa158015611fda573d6000803e3d6000fd5b505050506040513d601f19601f82011682018060405250611ffe9190810190612c28565b9050919050565b6000600560009054906101000a900473ffffffffffffffffffffffffffffffffffffffff1673ffffffffffffffffffffffffffffffffffffffff1663e16c7d98836040518263ffffffff167c010000000000000000000000000000000000000000000000000000000002815260040161207e919061323c565b60206040518083038186803b15801561209657600080fd5b505afa1580156120aa573d6000803e3d6000fd5b505050506040513d601f19601f820116820180604052506120ce9190810190612c28565b9050919050565b7f506f6c69637900000000000000000000000000000000000000000000000000006120ff81612005565b73ffffffffffffffffffffffffffffffffffffffff163073ffffffffffffffffffffffffffffffffffffffff1614151561216e576040517f08c379a0000000000000000000000000000000000000000000000000000000008152600401612165906132f2565b60405180910390fd5b6121977f50726f6475637453657276696365000000000000000000000000000000000000612005565b73ffffffffffffffffffffffffffffffffffffffff163373ffffffffffffffffffffffffffffffffffffffff16141515612206576040517f08c379a00000000000000000000000000000000000000000000000000000000081526004016121fd906132d2565b60405180910390fd5b60008060008681526020019081526020016000208481548110151561222757fe5b90600052602060002090600c02019050828160080160006101000a81548160ff0219169083600281111561225757fe5b02179055504281600b01819055507fb8ecaa7e65a5563c3056a6912ad98a31fff22865db39c1d532246718626b24548585856040516122989392919061356c565b60405180910390a15050505050565b6122d07f44414f0000000000000000000000000000000000000000000000000000000000611f35565b73ffffffffffffffffffffffffffffffffffffffff163373ffffffffffffffffffffffffffffffffffffffff1614151561233f576040517f08c379a000000000000000000000000000000000000000000000000000000000815260040161233690613272565b60405180910390fd5b612348816126b8565b50565b60007f506f6c696379000000000000000000000000000000000000000000000000000061237781612005565b73ffffffffffffffffffffffffffffffffffffffff163073ffffffffffffffffffffffffffffffffffffffff161415156123e6576040517f08c379a00000000000000000000000000000000000000000000000000000000081526004016123dd906132f2565b60405180910390fd5b61240f7f50726f6475637453657276696365000000000000000000000000000000000000612005565b73ffffffffffffffffffffffffffffffffffffffff163373ffffffffffffffffffffffffffffffffffffffff1614151561247e576040517f08c379a0000000000000000000000000000000000000000000000000000000008152600401612475906132d2565b60405180910390fd5b600060026000878152602001908152602001600020858154811015156124a057fe5b906000526020600020906005020190506003600087815260200190815260200160002080548091906001016124d59190612811565b9250600060036000888152602001908152602001600020848154811015156124f957fe5b906000526020600020906006020190508160000154816000018190555060008160020160006101000a81548160ff0219169083600281111561253757fe5b02179055508481600101819055504281600401819055504281600501819055506000806000898152602001908152602001600020836000015481548110151561257c57fe5b90600052602060002090600c02019050806002018590806001815401808255809150509060018203906000526020600020016000909192909190915055504281600b01819055507f93ce95a18916f55295a7d528231262dc7e487c6e0b2360f3f3da9aaf0e8fb1148884600001548960006040516125fd949392919061361f565b60405180910390a1505050509392505050565b60036020528160005260406000208181548110151561262b57fe5b9060005260206000209060060201600091509150508060000154908060010154908060020160009054906101000a900460ff16908060030154908060040154908060050154905086565b600080828401905083811015151561268c57600080fd5b8091505092915050565b60008282111515156126a757600080fd5b600082840390508091505092915050565b80600660006101000a81548173ffffffffffffffffffffffffffffffffffffffff021916908373ffffffffffffffffffffffffffffffffffffffff16021790555050565b81548183558181111561272957600c0281600c0283600052602060002091820191016127289190612843565b5b505050565b81548183558181111561275b5760080281600802836000526020600020918201910161275a9190612925565b5b505050565b81548183558181111561278d5760050281600502836000526020600020918201910161278c9190612990565b5b505050565b8154818355818111156127bf576009028160090283600052602060002091820191016127be91906129e3565b5b505050565b828054828255906000526020600020908101928215612800579160200282015b828111156127ff5782358255916020019190600101906127e4565b5b50905061280d9190612a5e565b5090565b81548183558181111561283e5760060281600602836000526020600020918201910161283d9190612a83565b5b505050565b61292291905b8082111561291e5760008082016000905560018201600090556002820160006128729190612ade565b6003820160006128829190612ade565b6004820160006101000a81549060ff02191690556004820160016101000a81549060ff02191690556004820160026101000a81549073ffffffffffffffffffffffffffffffffffffffff02191690556005820160009055600682016000905560078201600090556008820160006101000a81549060ff02191690556009820160009055600a820160009055600b82016000905550600c01612849565b5090565b90565b61298d91905b80821115612989576000808201600090556001820160009055600282016000905560038201600090556004820160006101000a81549060ff02191690556005820160009055600682016000905560078201600090555060080161292b565b5090565b90565b6129e091905b808211156129dc576000808201600090556001820160006101000a81549060ff021916905560028201600090556003820160009055600482016000905550600501612996565b5090565b90565b612a5b91905b80821115612a5757600080820160009055600182016000905560028201600090556003820160009055600482016000612a229190612ade565b6005820160006101000a81549060ff0219169055600682016000905560078201600090556008820160009055506009016129e9565b5090565b90565b612a8091905b80821115612a7c576000816000905550600101612a64565b5090565b90565b612adb91905b80821115612ad75760008082016000905560018201600090556002820160006101000a81549060ff021916905560038201600090556004820160009055600582016000905550600601612a89565b5090565b90565b5080546000825590600052602060002090810190612afc9190612a5e565b50565b6000612b0b8235613905565b905092915050565b6000612b1f8251613905565b905092915050565b60008083601f8401121515612b3b57600080fd5b8235905067ffffffffffffffff811115612b5457600080fd5b602083019150836020820283011115612b6c57600080fd5b9250929050565b6000612b7f8235613917565b905092915050565b6000612b938235613921565b905092915050565b6000612ba7823561393a565b905092915050565b6000612bbb8235613953565b905092915050565b6000612bcf823561396c565b905092915050565b6000612be38235613985565b905092915050565b6000612bf7823561399e565b905092915050565b600060208284031215612c1157600080fd5b6000612c1f84828501612aff565b91505092915050565b600060208284031215612c3a57600080fd5b6000612c4884828501612b13565b91505092915050565b600060208284031215612c6357600080fd5b6000612c7184828501612b73565b91505092915050565b600060208284031215612c8c57600080fd5b6000612c9a84828501612beb565b91505092915050565b60008060408385031215612cb657600080fd5b6000612cc485828601612beb565b9250506020612cd585828601612beb565b9150509250929050565b600080600060608486031215612cf457600080fd5b6000612d0286828701612beb565b9350506020612d1386828701612beb565b9250506040612d2486828701612b73565b9150509250925092565b600080600080600080600060c0888a031215612d4957600080fd5b6000612d578a828b01612beb565b9750506020612d688a828b01612beb565b9650506040612d798a828b01612b73565b9550506060612d8a8a828b01612beb565b9450506080612d9b8a828b01612b73565b93505060a088013567ffffffffffffffff811115612db857600080fd5b612dc48a828b01612b27565b925092505092959891949750929550565b600080600060608486031215612dea57600080fd5b6000612df886828701612beb565b9350506020612e0986828701612beb565b9250506040612e1a86828701612b87565b9150509250925092565b600080600060608486031215612e3957600080fd5b6000612e4786828701612beb565b9350506020612e5886828701612beb565b9250506040612e6986828701612b9b565b9150509250925092565b600080600060608486031215612e8857600080fd5b6000612e9686828701612beb565b9350506020612ea786828701612beb565b9250506040612eb886828701612baf565b9150509250925092565b600080600060608486031215612ed757600080fd5b6000612ee586828701612beb565b9350506020612ef686828701612beb565b9250506040612f0786828701612bc3565b9150509250925092565b600080600060608486031215612f2657600080fd5b6000612f3486828701612beb565b9350506020612f4586828701612beb565b9250506040612f5686828701612bd7565b9150509250925092565b600080600060608486031215612f7557600080fd5b6000612f8386828701612beb565b9350506020612f9486828701612beb565b9250506040612fa586828701612beb565b9150509250925092565b612fb881613845565b82525050565b6000612fc98261382d565b808452602084019350612fdb83613820565b60005b8281101561300d57612ff18683516131f0565b612ffa82613838565b9150602086019550600181019050612fde565b50849250505092915050565b61302281613857565b82525050565b61303181613863565b82525050565b613040816139a8565b82525050565b61304f816139cc565b82525050565b61305e816139de565b82525050565b61306d816139f0565b82525050565b61307c81613a02565b82525050565b61308b81613a14565b82525050565b6000601682527f4552524f523a3a4e4f545f44414f5f53455256494345000000000000000000006020830152604082019050919050565b6000602382527f4552524f523a3a416d6f756e74206973206d6f7265207468616e20657870656360208301527f74656400000000000000000000000000000000000000000000000000000000006040830152606082019050919050565b6000602482527f4552524f523a3a46414c4c4241434b5f46554e4354494f4e5f4e4f575f414c4c60208301527f4f574544000000000000000000000000000000000000000000000000000000006040830152606082019050919050565b6000601a82527f4552524f523a3a4e4f545f50524f445543545f534552564943450000000000006020830152604082019050919050565b6000601582527f4552524f523a3a4e4f545f4f4e5f53544f5241474500000000000000000000006020830152604082019050919050565b6131f9816138fb565b82525050565b60006020820190506132146000830184612faf565b92915050565b600060208201905081810360008301526132348184612fbe565b905092915050565b60006020820190506132516000830184613028565b92915050565b600060208201905061326c6000830184613037565b92915050565b6000602082019050818103600083015261328b81613091565b9050919050565b600060208201905081810360008301526132ab816130c8565b9050919050565b600060208201905081810360008301526132cb81613125565b9050919050565b600060208201905081810360008301526132eb81613182565b9050919050565b6000602082019050818103600083015261330b816131b9565b9050919050565b600060208201905061332760008301846131f0565b92915050565b600060c08201905061334260008301896131f0565b61334f6020830188613028565b61335c6040830187613055565b6133696060830186613028565b61337660808301856131f0565b61338360a08301846131f0565b979650505050505050565b600060a0820190506133a360008301886131f0565b6133b06020830187613028565b6133bd60408301866131f0565b6133ca6060830185613028565b6133d76080830184613046565b9695505050505050565b6000610100820190506133f7600083018b6131f0565b613404602083018a613028565b61341160408301896131f0565b61341e6060830188613028565b61342b6080830187613046565b61343860a0830186613028565b61344560c08301856131f0565b61345260e08301846131f0565b9998505050505050505050565b600060a08201905061347460008301886131f0565b6134816020830187613082565b61348e6040830186613028565b61349b60608301856131f0565b6134a860808301846131f0565b9695505050505050565b6000610180820190506134c8600083018f6131f0565b6134d5602083018e6131f0565b6134e2604083018d613019565b6134ef606083018c613019565b6134fc608083018b612faf565b61350960a083018a6131f0565b61351660c08301896131f0565b61352360e08301886131f0565b613531610100830187613073565b61353f610120830186613028565b61354d6101408301856131f0565b61355b6101608301846131f0565b9d9c50505050505050505050505050565b600060608201905061358160008301866131f0565b61358e60208301856131f0565b61359b6040830184613073565b949350505050565b60006060820190506135b860008301866131f0565b6135c560208301856131f0565b6135d260408301846131f0565b949350505050565b60006080820190506135ef60008301876131f0565b6135fc60208301866131f0565b61360960408301856131f0565b6136166060830184613046565b95945050505050565b600060808201905061363460008301876131f0565b61364160208301866131f0565b61364e60408301856131f0565b61365b6060830184613055565b95945050505050565b600060808201905061367960008301876131f0565b61368660208301866131f0565b61369360408301856131f0565b6136a06060830184613082565b95945050505050565b60006080820190506136be60008301876131f0565b6136cb60208301866131f0565b6136d860408301856131f0565b6136e560608301846131f0565b95945050505050565b600060a08201905061370360008301886131f0565b61371060208301876131f0565b61371d60408301866131f0565b61372a60608301856131f0565b6137376080830184613064565b9695505050505050565b600061010082019050613757600083018b6131f0565b613764602083018a6131f0565b61377160408301896131f0565b61377e60608301886131f0565b61378b6080830187613064565b61379860a0830186613028565b6137a560c08301856131f0565b6137b260e08301846131f0565b9998505050505050505050565b600060c0820190506137d460008301896131f0565b6137e160208301886131f0565b6137ee60408301876131f0565b6137fb60608301866131f0565b61380860808301856131f0565b61381560a0830184613064565b979650505050505050565b6000602082019050919050565b600081519050919050565b6000602082019050919050565b6000613850826138db565b9050919050565b60008115159050919050565b6000819050919050565b600060048210151561387b57fe5b819050919050565b600060038210151561389157fe5b819050919050565b60006002821015156138a757fe5b819050919050565b60006003821015156138bd57fe5b819050919050565b60006002821015156138d357fe5b819050919050565b600073ffffffffffffffffffffffffffffffffffffffff82169050919050565b6000819050919050565b6000613910826138db565b9050919050565b6000819050919050565b600060048210151561393257600080fd5b819050919050565b600060038210151561394b57600080fd5b819050919050565b600060028210151561396457600080fd5b819050919050565b600060038210151561397d57600080fd5b819050919050565b600060028210151561399657600080fd5b819050919050565b6000819050919050565b60006139b3826139ba565b9050919050565b60006139c5826138db565b9050919050565b60006139d78261386d565b9050919050565b60006139e982613883565b9050919050565b60006139fb82613899565b9050919050565b6000613a0d826138af565b9050919050565b6000613a1f826138c5565b905091905056fea265627a7a72305820e28ac6eee23496a90bd76be4851093c726418df56869b5d86525b3c89673f15f6c6578706572696d656e74616cf50037",
  "source": "pragma solidity 0.5.2;\npragma experimental ABIEncoderV2;\n\nimport \"openzeppelin-solidity/contracts/math/SafeMath.sol\";\nimport \"./PolicyStorageModel.sol\";\nimport \"../../shared/ModuleController.sol\";\n\ncontract PolicyController is PolicyStorageModel, ModuleController {\n    using SafeMath for *;\n\n    constructor(address _registry) public WithRegistry(_registry) {}\n\n    /* Metadata */\n    function createPolicyFlow(uint256 _productId)\n        external\n        onlyPolicyFlow(\"Policy\")\n        returns (uint256 _metadataId)\n    {\n        _metadataId = metadata[_productId].length++;\n\n        Metadata storage metadatum = metadata[_productId][_metadataId];\n        metadatum.state = PolicyFlowState.Started;\n        metadatum.createdAt = block.timestamp;\n        metadatum.updatedAt = block.timestamp;\n\n        emit LogNewMetadata(\n            _productId,\n            _metadataId,\n            PolicyFlowState.Started\n        );\n    }\n\n    function setPolicyFlowState(\n        uint256 _productId,\n        uint256 _metadataId,\n        PolicyFlowState _state\n    ) external onlyPolicyFlow(\"Policy\") {\n        Metadata storage metadatum = metadata[_productId][_metadataId];\n        metadatum.state = _state;\n        metadatum.updatedAt = block.timestamp;\n\n        emit LogMetadataStateChanged(_productId, _metadataId, _state);\n    }\n\n    /* Application */\n    function createApplication(\n        uint256 _productId,\n        uint256 _metadataId,\n        bytes32 _customerExternalId,\n        uint256 _premium,\n        bytes32 _currency,\n        uint256[] calldata _payoutOptions\n    ) external onlyPolicyFlow(\"Policy\") returns (uint256 _applicationId) {\n        _applicationId = applications[_productId].length++;\n\n        Application storage application = applications[_productId][_applicationId];\n        application.metadataId = _metadataId;\n        application.customerExternalId = _customerExternalId;\n        application.premium = _premium;\n        application.currency = _currency;\n        // todo: check payoutOptions values\n        application.payoutOptions = _payoutOptions;\n        application.state = ApplicationState.Applied;\n        application.createdAt = block.timestamp;\n        application.updatedAt = block.timestamp;\n\n        Metadata storage metadatum = metadata[_productId][_metadataId];\n        metadatum.applicationId = _applicationId;\n        metadatum.hasApplication = true;\n        metadatum.updatedAt = block.timestamp;\n\n        emit LogNewApplication(\n            _productId,\n            _metadataId,\n            _applicationId\n        );\n    }\n\n    function setApplicationState(\n        uint256 _productId,\n        uint256 _applicationId,\n        ApplicationState _state\n    ) external onlyPolicyFlow(\"Policy\") {\n        Application storage application = applications[_productId][_applicationId];\n        application.state = _state;\n        application.updatedAt = block.timestamp;\n\n        emit LogApplicationStateChanged(\n            _productId,\n            application.metadataId,\n            _applicationId,\n            _state\n        );\n    }\n\n    /* Policy */\n    function createPolicy(uint256 _productId, uint256 _metadataId)\n        external\n        onlyPolicyFlow(\"Policy\")\n        returns (uint256 _policyId)\n    {\n        _policyId = policies[_productId].length++;\n\n        Policy storage policy = policies[_productId][_policyId];\n        policy.metadataId = _metadataId;\n        policy.state = PolicyState.Active;\n        policy.createdAt = block.timestamp;\n        policy.updatedAt = block.timestamp;\n\n        Metadata storage metadatum = metadata[_productId][_metadataId];\n        metadatum.policyId = _policyId;\n        metadatum.hasPolicy = true;\n        metadatum.updatedAt = block.timestamp;\n\n        emit LogNewPolicy(_productId, _metadataId, _policyId, metadatum.applicationId);\n    }\n\n    function setPolicyState(\n        uint256 _productId,\n        uint256 _policyId,\n        PolicyState _state\n    ) external onlyPolicyFlow(\"Policy\") {\n        Policy storage policy = policies[_productId][_policyId];\n        policy.state = _state;\n        policy.updatedAt = block.timestamp;\n\n        emit LogPolicyStateChanged(\n            _productId,\n            policy.metadataId,\n            _policyId,\n            _state\n        );\n    }\n\n    /* Claim */\n    function createClaim(\n        uint256 _productId,\n        uint256 _policyId,\n        bytes32 _data\n    ) external onlyPolicyFlow(\"Policy\") returns (uint256 _claimId) {\n        Policy storage policy = policies[_productId][_policyId];\n\n        _claimId = claims[_productId].length++;\n\n        Claim storage claim = claims[_productId][_claimId];\n        claim.metadataId = policy.metadataId;\n        claim.state = ClaimState.Applied;\n        claim.data = _data;\n        claim.createdAt = block.timestamp;\n        claim.updatedAt = block.timestamp;\n\n        Metadata storage metadatum = metadata[_productId][policy.metadataId];\n        metadatum.claimIds.push(_claimId);\n        metadatum.updatedAt = block.timestamp;\n\n        emit LogClaimStateChanged(\n            _productId,\n            policy.metadataId,\n            _policyId,\n            ClaimState.Applied\n        );\n    }\n\n    function setClaimState(\n        uint256 _productId,\n        uint256 _claimId,\n        ClaimState _state\n    ) external onlyPolicyFlow(\"Policy\") {\n        Claim storage claim = claims[_productId][_claimId];\n        claim.state = _state;\n        claim.updatedAt = block.timestamp;\n\n        Metadata storage metadatum = metadata[_productId][claim.metadataId];\n\n        emit LogClaimStateChanged(\n            _productId,\n            claim.metadataId,\n            metadatum.policyId,\n            _state\n        );\n    }\n\n    /* Payout */\n    function createPayout(\n        uint256 _productId,\n        uint256 _claimId,\n        uint256 _amount\n    ) external onlyPolicyFlow(\"Policy\") returns (uint256 _payoutId) {\n        Claim storage claim = claims[_productId][_claimId];\n\n        _payoutId = payouts[_productId].length++;\n\n        Payout storage payout = payouts[_productId][_payoutId];\n        payout.metadataId = claim.metadataId;\n        payout.claimId = _claimId;\n        payout.state = PayoutState.Expected;\n        payout.expectedAmount = _amount;\n        payout.createdAt = block.timestamp;\n        payout.updatedAt = block.timestamp;\n\n        Metadata storage metadatum = metadata[_productId][claim.metadataId];\n        metadatum.payoutIds.push(_payoutId);\n        metadatum.updatedAt = block.timestamp;\n\n        emit LogNewPayout(\n            _productId,\n            claim.metadataId,\n            metadatum.policyId,\n            _claimId,\n            _amount,\n            PayoutState.Expected\n        );\n    }\n\n    function payOut(\n        uint256 _productId,\n        uint256 _payoutId,\n        uint256 _amount\n    ) external onlyPolicyFlow(\"Policy\") returns (uint256 _remainder) {\n        Payout storage payout = payouts[_productId][_payoutId];\n\n        uint256 actualAmount = payout.actualAmount.add(_amount);\n\n        // Check if actual payout amount is no more than expected\n        require(\n            payout.expectedAmount >= actualAmount,\n            \"ERROR::Amount is more than expected\"\n        );\n\n        if (payout.expectedAmount == actualAmount) {\n            // Full\n            payout.expectedAmount = 0;\n            payout.actualAmount = actualAmount;\n            payout.state = PayoutState.PaidOut;\n            payout.updatedAt = block.timestamp;\n\n            _remainder = 0;\n        } else {\n            // Partial\n            payout.actualAmount = actualAmount;\n            payout.updatedAt = block.timestamp;\n\n            _remainder = payout.expectedAmount.sub(payout.actualAmount);\n        }\n    }\n\n    function setPayoutState(\n        uint256 _productId,\n        uint256 _payoutId,\n        PayoutState _state\n    ) external onlyPolicyFlow(\"Policy\") {\n        Payout storage payout = payouts[_productId][_payoutId];\n        payout.state = _state;\n        payout.updatedAt = block.timestamp;\n\n        Metadata storage metadatum = metadata[_productId][payout.metadataId];\n\n        emit LogPayoutStateChanged(\n            _productId,\n            payout.metadataId,\n            metadatum.policyId,\n            payout.claimId,\n            _state\n        );\n    }\n\n    /* Views */\n    function getApplicationData(\n        uint256 _productId,\n        uint256 _applicationId\n    )\n        external\n        view\n        returns (\n        uint256 _metadataId,\n        bytes32 _customerExternalId,\n        uint256 _premium,\n        bytes32 _currency,\n        ApplicationState _state\n    )\n    {\n        _metadataId = applications[_productId][_applicationId].metadataId;\n        _customerExternalId = applications[_productId][_applicationId].customerExternalId;\n        _premium = applications[_productId][_applicationId].premium;\n        _currency = applications[_productId][_applicationId].currency;\n        _state = applications[_productId][_applicationId].state;\n    }\n\n    function getPayoutOptions(\n        uint256 _productId,\n        uint256 _applicationId\n    ) external view returns (uint256[] memory _payoutOptions) {\n        _payoutOptions = applications[_productId][_applicationId].payoutOptions;\n    }\n\n    function getPremium(uint256 _productId, uint256 _applicationId)\n        external\n        view\n        returns (uint256 _premium)\n    {\n        _premium = applications[_productId][_applicationId].premium;\n    }\n}\n",
  "sourcePath": "/Users/ka/Projects/Altoros/Etherisc/dip-platform/core/gif-contracts/contracts/modules/policy/PolicyController.v1.sol",
  "compiler": {
    "name": "solc",
    "version": "0.5.2+commit.1df8f40c.Emscripten.clang"
  },
  "schemaVersion": "3.0.1",
  "updatedAt": "2019-02-07T14:06:30.667Z",
  "devdoc": {
    "methods": {}
  },
  "userdoc": {
    "methods": {}
  }
}