{
  "contractName": "PolicyFlowDefault",
  "abi": [
    {
      "constant": false,
      "inputs": [
        {
          "name": "_registry",
          "type": "address"
        }
      ],
      "name": "assignRegistry",
      "outputs": [],
      "payable": false,
      "stateMutability": "nonpayable",
      "type": "function",
      "signature": "0x51b68ee4"
    },
    {
      "constant": true,
      "inputs": [],
      "name": "registry",
      "outputs": [
        {
          "name": "",
          "type": "address"
        }
      ],
      "payable": false,
      "stateMutability": "view",
      "type": "function",
      "signature": "0x7b103999"
    },
    {
      "constant": true,
      "inputs": [],
      "name": "NAME",
      "outputs": [
        {
          "name": "",
          "type": "bytes32"
        }
      ],
      "payable": false,
      "stateMutability": "view",
      "type": "function",
      "signature": "0xa3f4df7e"
    },
    {
      "constant": true,
      "inputs": [
        {
          "name": "_contractName",
          "type": "bytes32"
        }
      ],
      "name": "getService",
      "outputs": [
        {
          "name": "_addr",
          "type": "address"
        }
      ],
      "payable": false,
      "stateMutability": "view",
      "type": "function",
      "signature": "0xda47d856"
    },
    {
      "constant": true,
      "inputs": [
        {
          "name": "_contractName",
          "type": "bytes32"
        }
      ],
      "name": "getContract",
      "outputs": [
        {
          "name": "_addr",
          "type": "address"
        }
      ],
      "payable": false,
      "stateMutability": "view",
      "type": "function",
      "signature": "0xe16c7d98"
    },
    {
      "inputs": [
        {
          "name": "_registry",
          "type": "address"
        }
      ],
      "payable": false,
      "stateMutability": "nonpayable",
      "type": "constructor",
      "signature": "constructor"
    },
    {
      "constant": false,
      "inputs": [
        {
          "name": "_customerExternalId",
          "type": "bytes32"
        },
        {
          "name": "_premium",
          "type": "uint256"
        },
        {
          "name": "_currency",
          "type": "bytes32"
        },
        {
          "name": "_payoutOptions",
          "type": "uint256[]"
        }
      ],
      "name": "newApplication",
      "outputs": [
        {
          "name": "_applicationId",
          "type": "uint256"
        }
      ],
      "payable": false,
      "stateMutability": "nonpayable",
      "type": "function",
      "signature": "0xdc3addf0"
    },
    {
      "constant": false,
      "inputs": [
        {
          "name": "_policyId",
          "type": "uint256"
        }
      ],
      "name": "newClaim",
      "outputs": [
        {
          "name": "_claimId",
          "type": "uint256"
        }
      ],
      "payable": false,
      "stateMutability": "nonpayable",
      "type": "function",
      "signature": "0x54f3a32c"
    },
    {
      "constant": false,
      "inputs": [
        {
          "name": "_claimId",
          "type": "uint256"
        },
        {
          "name": "_sum",
          "type": "uint256"
        }
      ],
      "name": "confirmClaim",
      "outputs": [
        {
          "name": "_payoutId",
          "type": "uint256"
        }
      ],
      "payable": false,
      "stateMutability": "nonpayable",
      "type": "function",
      "signature": "0x6afa4340"
    },
    {
      "constant": false,
      "inputs": [
        {
          "name": "_claimId",
          "type": "uint256"
        }
      ],
      "name": "declineClaim",
      "outputs": [],
      "payable": false,
      "stateMutability": "nonpayable",
      "type": "function",
      "signature": "0xf119c463"
    },
    {
      "constant": false,
      "inputs": [
        {
          "name": "_applicationId",
          "type": "uint256"
        }
      ],
      "name": "decline",
      "outputs": [],
      "payable": false,
      "stateMutability": "nonpayable",
      "type": "function",
      "signature": "0xa0355f4e"
    },
    {
      "constant": false,
      "inputs": [
        {
          "name": "_policyId",
          "type": "uint256"
        }
      ],
      "name": "expire",
      "outputs": [],
      "payable": false,
      "stateMutability": "nonpayable",
      "type": "function",
      "signature": "0xbf81bf43"
    },
    {
      "constant": false,
      "inputs": [
        {
          "name": "_payoutId",
          "type": "uint256"
        },
        {
          "name": "_amount",
          "type": "uint256"
        }
      ],
      "name": "payout",
      "outputs": [
        {
          "name": "_remainder",
          "type": "uint256"
        }
      ],
      "payable": false,
      "stateMutability": "nonpayable",
      "type": "function",
      "signature": "0x5aa6cf97"
    },
    {
      "constant": false,
      "inputs": [
        {
          "name": "_productName",
          "type": "bytes32"
        },
        {
          "name": "_policyFlow",
          "type": "bytes32"
        }
      ],
      "name": "register",
      "outputs": [],
      "payable": false,
      "stateMutability": "nonpayable",
      "type": "function",
      "signature": "0x2f926732"
    },
    {
      "constant": false,
      "inputs": [
        {
          "name": "_applicationId",
          "type": "uint256"
        }
      ],
      "name": "underwrite",
      "outputs": [
        {
          "name": "_policyId",
          "type": "uint256"
        }
      ],
      "payable": false,
      "stateMutability": "nonpayable",
      "type": "function",
      "signature": "0x6be60f8b"
    },
    {
      "constant": false,
      "inputs": [
        {
          "name": "_input",
          "type": "bytes"
        },
        {
          "name": "_callbackMethodName",
          "type": "string"
        },
        {
          "name": "_callabackContractAddress",
          "type": "address"
        },
        {
          "name": "_oracleTypeName",
          "type": "bytes32"
        },
        {
          "name": "_responsibleOracleId",
          "type": "uint256"
        }
      ],
      "name": "request",
      "outputs": [
        {
          "name": "_requestId",
          "type": "uint256"
        }
      ],
      "payable": false,
      "stateMutability": "nonpayable",
      "type": "function",
      "signature": "0xd643ece8"
    },
    {
      "constant": true,
      "inputs": [
        {
          "name": "_applicationId",
          "type": "uint256"
        }
      ],
      "name": "getPayoutOptions",
      "outputs": [
        {
          "name": "_payoutOptions",
          "type": "uint256[]"
        }
      ],
      "payable": false,
      "stateMutability": "view",
      "type": "function",
      "signature": "0x450d512e"
    },
    {
      "constant": true,
      "inputs": [
        {
          "name": "_applicationId",
          "type": "uint256"
        }
      ],
      "name": "getPremium",
      "outputs": [
        {
          "name": "_premium",
          "type": "uint256"
        }
      ],
      "payable": false,
      "stateMutability": "view",
      "type": "function",
      "signature": "0x1bf1fffb"
    }
  ],
  "bytecode": "0x608060405234801561001057600080fd5b5060405160208061219b8339810180604052602081101561003057600080fd5b810190808051906020019092919050505080806000806101000a81548173ffffffffffffffffffffffffffffffffffffffff021916908373ffffffffffffffffffffffffffffffffffffffff1602179055505050612108806100936000396000f3fe608060405234801561001057600080fd5b5060043610610128576000357c0100000000000000000000000000000000000000000000000000000000900480637b103999116100bf578063d643ece81161008e578063d643ece81461044e578063da47d85614610564578063dc3addf0146105d2578063e16c7d981461067d578063f119c463146106eb57610128565b80637b1039991461038a578063a0355f4e146103d4578063a3f4df7e14610402578063bf81bf431461042057610128565b806354f3a32c116100fb57806354f3a32c1461026e5780635aa6cf97146102b05780636afa4340146102fc5780636be60f8b1461034857610128565b80631bf1fffb1461012d5780632f9267321461016f578063450d512e146101a757806351b68ee41461022a575b600080fd5b6101596004803603602081101561014357600080fd5b8101908080359060200190929190505050610719565b6040518082815260200191505060405180910390f35b6101a56004803603604081101561018557600080fd5b8101908080359060200190929190803590602001909291905050506108b8565b005b6101d3600480360360208110156101bd57600080fd5b81019080803590602001909291905050506109aa565b6040518080602001828103825283818151815260200191508051906020019060200280838360005b838110156102165780820151818401526020810190506101fb565b505050509050019250505060405180910390f35b61026c6004803603602081101561024057600080fd5b81019080803573ffffffffffffffffffffffffffffffffffffffff169060200190929190505050610ba0565b005b61029a6004803603602081101561028457600080fd5b8101908080359060200190929190505050610cae565b6040518082815260200191505060405180910390f35b6102e6600480360360408110156102c657600080fd5b810190808035906020019092919080359060200190929190505050610e58565b6040518082815260200191505060405180910390f35b6103326004803603604081101561031257600080fd5b810190808035906020019092919080359060200190929190505050611002565b6040518082815260200191505060405180910390f35b6103746004803603602081101561035e57600080fd5b810190808035906020019092919050505061125f565b6040518082815260200191505060405180910390f35b61039261159b565b604051808273ffffffffffffffffffffffffffffffffffffffff1673ffffffffffffffffffffffffffffffffffffffff16815260200191505060405180910390f35b610400600480360360208110156103ea57600080fd5b81019080803590602001909291905050506115c0565b005b61040a611750565b6040518082815260200191505060405180910390f35b61044c6004803603602081101561043657600080fd5b8101908080359060200190929190505050611774565b005b61054e600480360360a081101561046457600080fd5b810190808035906020019064010000000081111561048157600080fd5b82018360208201111561049357600080fd5b803590602001918460018302840111640100000000831117156104b557600080fd5b9091929391929390803590602001906401000000008111156104d657600080fd5b8201836020820111156104e857600080fd5b8035906020019184600183028401116401000000008311171561050a57600080fd5b9091929391929390803573ffffffffffffffffffffffffffffffffffffffff1690602001909291908035906020019092919080359060200190929190505050611904565b6040518082815260200191505060405180910390f35b6105906004803603602081101561057a57600080fd5b8101908080359060200190929190505050611a68565b604051808273ffffffffffffffffffffffffffffffffffffffff1673ffffffffffffffffffffffffffffffffffffffff16815260200191505060405180910390f35b610667600480360360808110156105e857600080fd5b810190808035906020019092919080359060200190929190803590602001909291908035906020019064010000000081111561062357600080fd5b82018360208201111561063557600080fd5b8035906020019184602083028401116401000000008311171561065757600080fd5b9091929391929390505050611b3a565b6040518082815260200191505060405180910390f35b6106a96004803603602081101561069357600080fd5b8101908080359060200190929190505050611dea565b604051808273ffffffffffffffffffffffffffffffffffffffff1673ffffffffffffffffffffffffffffffffffffffff16815260200191505060405180910390f35b6107176004803603602081101561070157600080fd5b8101908080359060200190929190505050611ebc565b005b60008061072461204c565b73ffffffffffffffffffffffffffffffffffffffff1663e91a34fc336040518263ffffffff167c0100000000000000000000000000000000000000000000000000000000028152600401808273ffffffffffffffffffffffffffffffffffffffff1673ffffffffffffffffffffffffffffffffffffffff16815260200191505060206040518083038186803b1580156107bc57600080fd5b505afa1580156107d0573d6000803e3d6000fd5b505050506040513d60208110156107e657600080fd5b8101908080519060200190929190505050905061080161207c565b73ffffffffffffffffffffffffffffffffffffffff16638227520882856040518363ffffffff167c0100000000000000000000000000000000000000000000000000000000028152600401808381526020018281526020019250505060206040518083038186803b15801561087557600080fd5b505afa158015610889573d6000803e3d6000fd5b505050506040513d602081101561089f57600080fd5b8101908080519060200190929190505050915050919050565b6108c061204c565b73ffffffffffffffffffffffffffffffffffffffff166317ac89028333846040518463ffffffff167c0100000000000000000000000000000000000000000000000000000000028152600401808481526020018373ffffffffffffffffffffffffffffffffffffffff1673ffffffffffffffffffffffffffffffffffffffff1681526020018281526020019350505050602060405180830381600087803b15801561096a57600080fd5b505af115801561097e573d6000803e3d6000fd5b505050506040513d602081101561099457600080fd5b8101908080519060200190929190505050505050565b606060006109b661204c565b73ffffffffffffffffffffffffffffffffffffffff1663e91a34fc336040518263ffffffff167c0100000000000000000000000000000000000000000000000000000000028152600401808273ffffffffffffffffffffffffffffffffffffffff1673ffffffffffffffffffffffffffffffffffffffff16815260200191505060206040518083038186803b158015610a4e57600080fd5b505afa158015610a62573d6000803e3d6000fd5b505050506040513d6020811015610a7857600080fd5b81019080805190602001909291905050509050610a9361207c565b73ffffffffffffffffffffffffffffffffffffffff166351d7c4cc82856040518363ffffffff167c0100000000000000000000000000000000000000000000000000000000028152600401808381526020018281526020019250505060006040518083038186803b158015610b0757600080fd5b505afa158015610b1b573d6000803e3d6000fd5b505050506040513d6000823e3d601f19601f820116820180604052506020811015610b4557600080fd5b810190808051640100000000811115610b5d57600080fd5b82810190506020810184811115610b7357600080fd5b8151856020820283011164010000000082111715610b9057600080fd5b5050929190505050915050919050565b610bc97f44414f0000000000000000000000000000000000000000000000000000000000611a68565b73ffffffffffffffffffffffffffffffffffffffff163373ffffffffffffffffffffffffffffffffffffffff16141515610c6b576040517f08c379a00000000000000000000000000000000000000000000000000000000081526004018080602001828103825260168152602001807f4552524f523a3a4e4f545f44414f5f534552564943450000000000000000000081525060200191505060405180910390fd5b806000806101000a81548173ffffffffffffffffffffffffffffffffffffffff021916908373ffffffffffffffffffffffffffffffffffffffff16021790555050565b600080610cb961204c565b73ffffffffffffffffffffffffffffffffffffffff1663e91a34fc336040518263ffffffff167c0100000000000000000000000000000000000000000000000000000000028152600401808273ffffffffffffffffffffffffffffffffffffffff1673ffffffffffffffffffffffffffffffffffffffff16815260200191505060206040518083038186803b158015610d5157600080fd5b505afa158015610d65573d6000803e3d6000fd5b505050506040513d6020811015610d7b57600080fd5b810190808051906020019092919050505090506000610d9861207c565b73ffffffffffffffffffffffffffffffffffffffff1663f6499f7983866040518363ffffffff167c01000000000000000000000000000000000000000000000000000000000281526004018083815260200182815260200160200192505050602060405180830381600087803b158015610e1157600080fd5b505af1158015610e25573d6000803e3d6000fd5b505050506040513d6020811015610e3b57600080fd5b810190808051906020019092919050505090508092505050919050565b600080610e6361204c565b73ffffffffffffffffffffffffffffffffffffffff1663e91a34fc336040518263ffffffff167c0100000000000000000000000000000000000000000000000000000000028152600401808273ffffffffffffffffffffffffffffffffffffffff1673ffffffffffffffffffffffffffffffffffffffff16815260200191505060206040518083038186803b158015610efb57600080fd5b505afa158015610f0f573d6000803e3d6000fd5b505050506040513d6020811015610f2557600080fd5b81019080805190602001909291905050509050610f4061207c565b73ffffffffffffffffffffffffffffffffffffffff16632f5ab23b8286866040518463ffffffff167c0100000000000000000000000000000000000000000000000000000000028152600401808481526020018381526020018281526020019350505050602060405180830381600087803b158015610fbe57600080fd5b505af1158015610fd2573d6000803e3d6000fd5b505050506040513d6020811015610fe857600080fd5b810190808051906020019092919050505091505092915050565b60008061100d61204c565b73ffffffffffffffffffffffffffffffffffffffff1663e91a34fc336040518263ffffffff167c0100000000000000000000000000000000000000000000000000000000028152600401808273ffffffffffffffffffffffffffffffffffffffff1673ffffffffffffffffffffffffffffffffffffffff16815260200191505060206040518083038186803b1580156110a557600080fd5b505afa1580156110b9573d6000803e3d6000fd5b505050506040513d60208110156110cf57600080fd5b810190808051906020019092919050505090506110ea61207c565b73ffffffffffffffffffffffffffffffffffffffff166324e48c4a828660016040518463ffffffff167c01000000000000000000000000000000000000000000000000000000000281526004018084815260200183815260200182600281111561115057fe5b60ff1681526020019350505050600060405180830381600087803b15801561117757600080fd5b505af115801561118b573d6000803e3d6000fd5b50505050600061119961207c565b73ffffffffffffffffffffffffffffffffffffffff16639171d0408387876040518463ffffffff167c0100000000000000000000000000000000000000000000000000000000028152600401808481526020018381526020018281526020019350505050602060405180830381600087803b15801561121757600080fd5b505af115801561122b573d6000803e3d6000fd5b505050506040513d602081101561124157600080fd5b81019080805190602001909291905050509050809250505092915050565b60008061126a61204c565b73ffffffffffffffffffffffffffffffffffffffff1663e91a34fc336040518263ffffffff167c0100000000000000000000000000000000000000000000000000000000028152600401808273ffffffffffffffffffffffffffffffffffffffff1673ffffffffffffffffffffffffffffffffffffffff16815260200191505060206040518083038186803b15801561130257600080fd5b505afa158015611316573d6000803e3d6000fd5b505050506040513d602081101561132c57600080fd5b8101908080519060200190929190505050905061134761207c565b73ffffffffffffffffffffffffffffffffffffffff16635fde26f4828560026040518463ffffffff167c0100000000000000000000000000000000000000000000000000000000028152600401808481526020018381526020018260038111156113ad57fe5b60ff1681526020019350505050600060405180830381600087803b1580156113d457600080fd5b505af11580156113e8573d6000803e3d6000fd5b5050505060006113f661207c565b73ffffffffffffffffffffffffffffffffffffffff16639c67182083866040518363ffffffff167c0100000000000000000000000000000000000000000000000000000000028152600401808381526020018281526020019250505060a06040518083038186803b15801561146a57600080fd5b505afa15801561147e573d6000803e3d6000fd5b505050506040513d60a081101561149457600080fd5b81019080805190602001909291908051906020019092919080519060200190929190805190602001909291908051906020019092919050505050505050905060006114dd61207c565b73ffffffffffffffffffffffffffffffffffffffff1663c7e2f28e84846040518363ffffffff167c01000000000000000000000000000000000000000000000000000000000281526004018083815260200182815260200192505050602060405180830381600087803b15801561155357600080fd5b505af1158015611567573d6000803e3d6000fd5b505050506040513d602081101561157d57600080fd5b81019080805190602001909291905050509050809350505050919050565b6000809054906101000a900473ffffffffffffffffffffffffffffffffffffffff1681565b60006115ca61204c565b73ffffffffffffffffffffffffffffffffffffffff1663e91a34fc336040518263ffffffff167c0100000000000000000000000000000000000000000000000000000000028152600401808273ffffffffffffffffffffffffffffffffffffffff1673ffffffffffffffffffffffffffffffffffffffff16815260200191505060206040518083038186803b15801561166257600080fd5b505afa158015611676573d6000803e3d6000fd5b505050506040513d602081101561168c57600080fd5b810190808051906020019092919050505090506116a761207c565b73ffffffffffffffffffffffffffffffffffffffff16635fde26f4828460036040518463ffffffff167c01000000000000000000000000000000000000000000000000000000000281526004018084815260200183815260200182600381111561170d57fe5b60ff1681526020019350505050600060405180830381600087803b15801561173457600080fd5b505af1158015611748573d6000803e3d6000fd5b505050505050565b7f506f6c696379466c6f7744656661756c7400000000000000000000000000000081565b600061177e61204c565b73ffffffffffffffffffffffffffffffffffffffff1663e91a34fc336040518263ffffffff167c0100000000000000000000000000000000000000000000000000000000028152600401808273ffffffffffffffffffffffffffffffffffffffff1673ffffffffffffffffffffffffffffffffffffffff16815260200191505060206040518083038186803b15801561181657600080fd5b505afa15801561182a573d6000803e3d6000fd5b505050506040513d602081101561184057600080fd5b8101908080519060200190929190505050905061185b61207c565b73ffffffffffffffffffffffffffffffffffffffff1663d4d6e444828460016040518463ffffffff167c0100000000000000000000000000000000000000000000000000000000028152600401808481526020018381526020018260018111156118c157fe5b60ff1681526020019350505050600060405180830381600087803b1580156118e857600080fd5b505af11580156118fc573d6000803e3d6000fd5b505050505050565b600061190e6120ac565b73ffffffffffffffffffffffffffffffffffffffff1663d643ece8898989898989896040518863ffffffff167c01000000000000000000000000000000000000000000000000000000000281526004018080602001806020018673ffffffffffffffffffffffffffffffffffffffff1673ffffffffffffffffffffffffffffffffffffffff16815260200185815260200184815260200183810383528a8a82818152602001925080828437600081840152601f19601f8201169050808301925050508381038252888882818152602001925080828437600081840152601f19601f8201169050808301925050509950505050505050505050602060405180830381600087803b158015611a2057600080fd5b505af1158015611a34573d6000803e3d6000fd5b505050506040513d6020811015611a4a57600080fd5b81019080805190602001909291905050509050979650505050505050565b60008060009054906101000a900473ffffffffffffffffffffffffffffffffffffffff1673ffffffffffffffffffffffffffffffffffffffff1663da47d856836040518263ffffffff167c01000000000000000000000000000000000000000000000000000000000281526004018082815260200191505060206040518083038186803b158015611af857600080fd5b505afa158015611b0c573d6000803e3d6000fd5b505050506040513d6020811015611b2257600080fd5b81019080805190602001909291905050509050919050565b600080611b4561204c565b73ffffffffffffffffffffffffffffffffffffffff1663e91a34fc336040518263ffffffff167c0100000000000000000000000000000000000000000000000000000000028152600401808273ffffffffffffffffffffffffffffffffffffffff1673ffffffffffffffffffffffffffffffffffffffff16815260200191505060206040518083038186803b158015611bdd57600080fd5b505afa158015611bf1573d6000803e3d6000fd5b505050506040513d6020811015611c0757600080fd5b810190808051906020019092919050505090506000611c2461207c565b73ffffffffffffffffffffffffffffffffffffffff1663679ffb80836040518263ffffffff167c010000000000000000000000000000000000000000000000000000000002815260040180828152602001915050602060405180830381600087803b158015611c9257600080fd5b505af1158015611ca6573d6000803e3d6000fd5b505050506040513d6020811015611cbc57600080fd5b810190808051906020019092919050505090506000611cd961207c565b73ffffffffffffffffffffffffffffffffffffffff1663d007967a84848c8c8c8c8c6040518863ffffffff167c010000000000000000000000000000000000000000000000000000000002815260040180888152602001878152602001868152602001858152602001848152602001806020018281038252848482818152602001925060200280828437600081840152601f19601f82011690508083019250505098505050505050505050602060405180830381600087803b158015611d9e57600080fd5b505af1158015611db2573d6000803e3d6000fd5b505050506040513d6020811015611dc857600080fd5b8101908080519060200190929190505050905080935050505095945050505050565b60008060009054906101000a900473ffffffffffffffffffffffffffffffffffffffff1673ffffffffffffffffffffffffffffffffffffffff1663e16c7d98836040518263ffffffff167c01000000000000000000000000000000000000000000000000000000000281526004018082815260200191505060206040518083038186803b158015611e7a57600080fd5b505afa158015611e8e573d6000803e3d6000fd5b505050506040513d6020811015611ea457600080fd5b81019080805190602001909291905050509050919050565b6000611ec661204c565b73ffffffffffffffffffffffffffffffffffffffff1663e91a34fc336040518263ffffffff167c0100000000000000000000000000000000000000000000000000000000028152600401808273ffffffffffffffffffffffffffffffffffffffff1673ffffffffffffffffffffffffffffffffffffffff16815260200191505060206040518083038186803b158015611f5e57600080fd5b505afa158015611f72573d6000803e3d6000fd5b505050506040513d6020811015611f8857600080fd5b81019080805190602001909291905050509050611fa361207c565b73ffffffffffffffffffffffffffffffffffffffff166324e48c4a828460026040518463ffffffff167c01000000000000000000000000000000000000000000000000000000000281526004018084815260200183815260200182600281111561200957fe5b60ff1681526020019350505050600060405180830381600087803b15801561203057600080fd5b505af1158015612044573d6000803e3d6000fd5b505050505050565b60006120777f4c6963656e736500000000000000000000000000000000000000000000000000611dea565b905090565b60006120a77f506f6c6963790000000000000000000000000000000000000000000000000000611dea565b905090565b60006120d77f5175657279000000000000000000000000000000000000000000000000000000611dea565b90509056fea165627a7a72305820e253279a4e4153ab8a54f03a8054fb94a346f9d7e2d6ce530769b945448e51170029",
  "source": "pragma solidity 0.5.2;\n\nimport \"../shared/WithRegistry.sol\";\nimport \"../modules/policy/IPolicy.sol\";\nimport \"../modules/policy/IPolicyController.v1.sol\";\nimport \"../modules/license/ILicenseController.sol\";\nimport \"../modules/query/IQueryController.sol\";\n\ncontract PolicyFlowDefault is WithRegistry {\n    bytes32 public constant NAME = \"PolicyFlowDefault\";\n\n    constructor(address _registry) public WithRegistry(_registry) {}\n\n    function newApplication(\n        bytes32 _customerExternalId,\n        uint256 _premium,\n        bytes32 _currency,\n        uint256[] calldata _payoutOptions\n    ) external returns (uint256 _applicationId) {\n        uint256 productId = license().getProductId(msg.sender);\n\n        uint256 metadataId = policy().createPolicyFlow(productId);\n\n        uint256 applicationId = policy().createApplication(\n            productId,\n            metadataId,\n            _customerExternalId,\n            _premium,\n            _currency,\n            _payoutOptions\n        );\n\n        _applicationId = applicationId;\n    }\n\n    function newClaim(uint256 _policyId) external returns (uint256 _claimId) {\n        uint256 productId = license().getProductId(msg.sender);\n\n        uint256 claimId = policy().createClaim(productId, _policyId, \"\");\n\n        _claimId = claimId;\n    }\n\n    function confirmClaim(uint256 _claimId, uint256 _sum)\n        external\n        returns (uint256 _payoutId)\n    {\n        uint256 productId = license().getProductId(msg.sender);\n\n        policy().setClaimState(\n            productId,\n            _claimId,\n            IPolicy.ClaimState.Confirmed\n        );\n\n        uint256 payoutId = policy().createPayout(productId, _claimId, _sum);\n\n        _payoutId = payoutId;\n    }\n\n    function declineClaim(uint256 _claimId) external {\n        uint256 productId = license().getProductId(msg.sender);\n\n        policy().setClaimState(\n            productId,\n            _claimId,\n            IPolicy.ClaimState.Declined\n        );\n    }\n\n    function decline(uint256 _applicationId) external {\n        uint256 productId = license().getProductId(msg.sender);\n\n        policy().setApplicationState(\n            productId,\n            _applicationId,\n            IPolicy.ApplicationState.Declined\n        );\n    }\n\n    function expire(uint256 _policyId) external {\n        uint256 productId = license().getProductId(msg.sender);\n\n        policy().setPolicyState(\n            productId,\n            _policyId,\n            IPolicy.PolicyState.Expired\n        );\n    }\n\n    function payout(uint256 _payoutId, uint256 _amount)\n        external\n        returns (uint256 _remainder)\n    {\n        uint256 productId = license().getProductId(msg.sender);\n\n        _remainder = policy().payOut(productId, _payoutId, _amount);\n    }\n\n    function register(bytes32 _productName, bytes32 _policyFlow) external {\n        license().register(_productName, msg.sender, _policyFlow);\n    }\n\n    function underwrite(uint256 _applicationId)\n        external\n        returns (uint256 _policyId)\n    {\n        uint256 productId = license().getProductId(msg.sender);\n\n        policy().setApplicationState(\n            productId,\n            _applicationId,\n            IPolicy.ApplicationState.Underwritten\n        );\n\n        (uint256 metadataId, , , , ) = policy().getApplicationData(\n            productId,\n            _applicationId\n        );\n\n        uint256 policyId = policy().createPolicy(productId, metadataId);\n\n        _policyId = policyId;\n    }\n\n    function request(\n        bytes calldata _input,\n        string calldata _callbackMethodName,\n        address _callabackContractAddress,\n        bytes32 _oracleTypeName,\n        uint256 _responsibleOracleId\n    ) external returns (uint256 _requestId) {\n        _requestId = query().request(\n            _input,\n            _callbackMethodName,\n            _callabackContractAddress,\n            _oracleTypeName,\n            _responsibleOracleId\n        );\n    }\n\n    function getPayoutOptions(uint256 _applicationId)\n        external\n        view\n        returns (uint256[] memory _payoutOptions)\n    {\n        uint256 productId = license().getProductId(msg.sender);\n\n        _payoutOptions = policy().getPayoutOptions(productId, _applicationId);\n    }\n\n    function getPremium(uint256 _applicationId)\n        external\n        view\n        returns (uint256 _premium)\n    {\n        uint256 productId = license().getProductId(msg.sender);\n\n        _premium = policy().getPremium(productId, _applicationId);\n    }\n\n    function license() internal view returns (ILicenseController) {\n        return ILicenseController(getContract(\"License\"));\n    }\n\n    function policy() internal view returns (IPolicyController) {\n        return IPolicyController(getContract(\"Policy\"));\n    }\n\n    function query() internal view returns (IQueryController) {\n        return IQueryController(getContract(\"Query\"));\n    }\n}\n",
  "sourcePath": "/Users/ka/Projects/Altoros/Etherisc/dip-platform/core/gif-contracts/contracts/policyFlows/PolicyFlowDefault.v1.sol",
  "compiler": {
    "name": "solc",
    "version": "0.5.2+commit.1df8f40c.Emscripten.clang"
  },
  "schemaVersion": "3.0.1",
  "updatedAt": "2019-02-08T13:26:18.992Z",
  "devdoc": {
    "methods": {}
  },
  "userdoc": {
    "methods": {}
  }
}