{
  "contractName": "PolicyFlowDefault",
  "abi": [
    {
      "constant": false,
      "inputs": [
        {
          "name": "_registry",
          "type": "address"
        }
      ],
      "name": "assignRegistry",
      "outputs": [],
      "payable": false,
      "stateMutability": "nonpayable",
      "type": "function",
      "signature": "0x51b68ee4"
    },
    {
      "constant": true,
      "inputs": [],
      "name": "registry",
      "outputs": [
        {
          "name": "",
          "type": "address"
        }
      ],
      "payable": false,
      "stateMutability": "view",
      "type": "function",
      "signature": "0x7b103999"
    },
    {
      "constant": true,
      "inputs": [],
      "name": "NAME",
      "outputs": [
        {
          "name": "",
          "type": "bytes32"
        }
      ],
      "payable": false,
      "stateMutability": "view",
      "type": "function",
      "signature": "0xa3f4df7e"
    },
    {
      "constant": true,
      "inputs": [
        {
          "name": "_contractName",
          "type": "bytes32"
        }
      ],
      "name": "getService",
      "outputs": [
        {
          "name": "_addr",
          "type": "address"
        }
      ],
      "payable": false,
      "stateMutability": "view",
      "type": "function",
      "signature": "0xda47d856"
    },
    {
      "constant": true,
      "inputs": [
        {
          "name": "_contractName",
          "type": "bytes32"
        }
      ],
      "name": "getContract",
      "outputs": [
        {
          "name": "_addr",
          "type": "address"
        }
      ],
      "payable": false,
      "stateMutability": "view",
      "type": "function",
      "signature": "0xe16c7d98"
    },
    {
      "inputs": [
        {
          "name": "_registry",
          "type": "address"
        }
      ],
      "payable": false,
      "stateMutability": "nonpayable",
      "type": "constructor",
      "signature": "constructor"
    },
    {
      "constant": false,
      "inputs": [
        {
          "name": "_customerExternalId",
          "type": "bytes32"
        },
        {
          "name": "_premium",
          "type": "uint256"
        },
        {
          "name": "_currency",
          "type": "bytes32"
        },
        {
          "name": "_payoutOptions",
          "type": "uint256[]"
        }
      ],
      "name": "newApplication",
      "outputs": [
        {
          "name": "_applicationId",
          "type": "uint256"
        }
      ],
      "payable": false,
      "stateMutability": "nonpayable",
      "type": "function",
      "signature": "0xdc3addf0"
    },
    {
      "constant": false,
      "inputs": [
        {
          "name": "_applicationId",
          "type": "uint256"
        }
      ],
      "name": "underwrite",
      "outputs": [
        {
          "name": "_policyId",
          "type": "uint256"
        }
      ],
      "payable": false,
      "stateMutability": "nonpayable",
      "type": "function",
      "signature": "0x6be60f8b"
    },
    {
      "constant": false,
      "inputs": [
        {
          "name": "_applicationId",
          "type": "uint256"
        }
      ],
      "name": "decline",
      "outputs": [],
      "payable": false,
      "stateMutability": "nonpayable",
      "type": "function",
      "signature": "0xa0355f4e"
    },
    {
      "constant": false,
      "inputs": [
        {
          "name": "_policyId",
          "type": "uint256"
        }
      ],
      "name": "newClaim",
      "outputs": [
        {
          "name": "_claimId",
          "type": "uint256"
        }
      ],
      "payable": false,
      "stateMutability": "nonpayable",
      "type": "function",
      "signature": "0x54f3a32c"
    },
    {
      "constant": false,
      "inputs": [
        {
          "name": "_claimId",
          "type": "uint256"
        },
        {
          "name": "_sum",
          "type": "uint256"
        }
      ],
      "name": "confirmClaim",
      "outputs": [
        {
          "name": "_payoutId",
          "type": "uint256"
        }
      ],
      "payable": false,
      "stateMutability": "nonpayable",
      "type": "function",
      "signature": "0x6afa4340"
    },
    {
      "constant": false,
      "inputs": [
        {
          "name": "_claimId",
          "type": "uint256"
        }
      ],
      "name": "declineClaim",
      "outputs": [],
      "payable": false,
      "stateMutability": "nonpayable",
      "type": "function",
      "signature": "0xf119c463"
    },
    {
      "constant": false,
      "inputs": [
        {
          "name": "_policyId",
          "type": "uint256"
        }
      ],
      "name": "expire",
      "outputs": [],
      "payable": false,
      "stateMutability": "nonpayable",
      "type": "function",
      "signature": "0xbf81bf43"
    },
    {
      "constant": false,
      "inputs": [
        {
          "name": "_payoutId",
          "type": "uint256"
        },
        {
          "name": "_amount",
          "type": "uint256"
        }
      ],
      "name": "payout",
      "outputs": [
        {
          "name": "_remainder",
          "type": "uint256"
        }
      ],
      "payable": false,
      "stateMutability": "nonpayable",
      "type": "function",
      "signature": "0x5aa6cf97"
    },
    {
      "constant": false,
      "inputs": [
        {
          "name": "_productName",
          "type": "bytes32"
        },
        {
          "name": "_policyFlow",
          "type": "bytes32"
        }
      ],
      "name": "register",
      "outputs": [],
      "payable": false,
      "stateMutability": "nonpayable",
      "type": "function",
      "signature": "0x2f926732"
    },
    {
      "constant": false,
      "inputs": [
        {
          "name": "_input",
          "type": "bytes"
        },
        {
          "name": "_callbackMethodName",
          "type": "string"
        },
        {
          "name": "_callabackContractAddress",
          "type": "address"
        },
        {
          "name": "_oracleTypeName",
          "type": "bytes32"
        },
        {
          "name": "_responsibleOracleId",
          "type": "uint256"
        }
      ],
      "name": "request",
      "outputs": [
        {
          "name": "_requestId",
          "type": "uint256"
        }
      ],
      "payable": false,
      "stateMutability": "nonpayable",
      "type": "function",
      "signature": "0xd643ece8"
    },
    {
      "constant": true,
      "inputs": [
        {
          "name": "_applicationId",
          "type": "uint256"
        }
      ],
      "name": "getPayoutOptions",
      "outputs": [
        {
          "name": "_payoutOptions",
          "type": "uint256[]"
        }
      ],
      "payable": false,
      "stateMutability": "view",
      "type": "function",
      "signature": "0x450d512e"
    },
    {
      "constant": true,
      "inputs": [
        {
          "name": "_applicationId",
          "type": "uint256"
        }
      ],
      "name": "getPremium",
      "outputs": [
        {
          "name": "_premium",
          "type": "uint256"
        }
      ],
      "payable": false,
      "stateMutability": "view",
      "type": "function",
      "signature": "0x1bf1fffb"
    }
  ],
  "bytecode": "0x608060405234801561001057600080fd5b50604051602080611ac48339810180604052602081101561003057600080fd5b505160008054600160a060020a03909216600160a060020a0319909216919091179055611a62806100626000396000f3fe608060405234801561001057600080fd5b506004361061010f5760003560e060020a900480637b103999116100a6578063d643ece811610075578063d643ece8146102e1578063da47d856146103b8578063dc3addf0146103d5578063e16c7d9814610458578063f119c463146104755761010f565b80637b1039991461027b578063a0355f4e1461029f578063a3f4df7e146102bc578063bf81bf43146102c45761010f565b806354f3a32c116100e257806354f3a32c146101fb5780635aa6cf97146102185780636afa43401461023b5780636be60f8b1461025e5761010f565b80631bf1fffb146101145780632f92673214610143578063450d512e1461016857806351b68ee4146101d5575b600080fd5b6101316004803603602081101561012a57600080fd5b5035610492565b60408051918252519081900360200190f35b6101666004803603604081101561015957600080fd5b50803590602001356105ac565b005b6101856004803603602081101561017e57600080fd5b5035610656565b60408051602080825283518183015283519192839290830191858101910280838360005b838110156101c15781810151838201526020016101a9565b505050509050019250505060405180910390f35b610166600480360360208110156101eb57600080fd5b5035600160a060020a03166107d0565b6101316004803603602081101561021157600080fd5b5035610887565b6101316004803603604081101561022e57600080fd5b50803590602001356109a9565b6101316004803603604081101561025157600080fd5b5080359060200135610a9a565b6101316004803603602081101561027457600080fd5b5035610d2d565b610283611009565b60408051600160a060020a039092168252519081900360200190f35b610166600480360360208110156102b557600080fd5b5035611018565b610131611217565b610166600480360360208110156102da57600080fd5b503561123b565b610131600480360360a08110156102f757600080fd5b81019060208101813564010000000081111561031257600080fd5b82018360208201111561032457600080fd5b8035906020019184600183028401116401000000008311171561034657600080fd5b91939092909160208101903564010000000081111561036457600080fd5b82018360208201111561037657600080fd5b8035906020019184600183028401116401000000008311171561039857600080fd5b9193509150600160a060020a0381351690602081013590604001356113f7565b610283600480360360208110156103ce57600080fd5b5035611503565b610131600480360360808110156103eb57600080fd5b8135916020810135916040820135919081019060808101606082013564010000000081111561041957600080fd5b82018360208201111561042b57600080fd5b8035906020019184602083028401116401000000008311171561044d57600080fd5b50909250905061159b565b6102836004803603602081101561046e57600080fd5b503561178e565b6101666004803603602081101561048b57600080fd5b50356117f4565b60008061049d6119b0565b600160a060020a031663e91a34fc336040518263ffffffff1660e060020a0281526004018082600160a060020a0316600160a060020a0316815260200191505060206040518083038186803b1580156104f557600080fd5b505afa158015610509573d6000803e3d6000fd5b505050506040513d602081101561051f57600080fd5b5051905061052b6119e0565b600160a060020a0316638227520882856040518363ffffffff1660e060020a028152600401808381526020018281526020019250505060206040518083038186803b15801561057957600080fd5b505afa15801561058d573d6000803e3d6000fd5b505050506040513d60208110156105a357600080fd5b50519392505050565b6105b46119b0565b604080517f17ac890200000000000000000000000000000000000000000000000000000000815260048101859052336024820152604481018490529051600160a060020a0392909216916317ac8902916064808201926020929091908290030181600087803b15801561062657600080fd5b505af115801561063a573d6000803e3d6000fd5b505050506040513d602081101561065057600080fd5b50505050565b606060006106626119b0565b600160a060020a031663e91a34fc336040518263ffffffff1660e060020a0281526004018082600160a060020a0316600160a060020a0316815260200191505060206040518083038186803b1580156106ba57600080fd5b505afa1580156106ce573d6000803e3d6000fd5b505050506040513d60208110156106e457600080fd5b505190506106f06119e0565b600160a060020a03166351d7c4cc82856040518363ffffffff1660e060020a028152600401808381526020018281526020019250505060006040518083038186803b15801561073e57600080fd5b505afa158015610752573d6000803e3d6000fd5b505050506040513d6000823e601f3d908101601f19168201604052602081101561077b57600080fd5b81019080805164010000000081111561079357600080fd5b820160208101848111156107a657600080fd5b81518560208202830111640100000000821117156107c357600080fd5b5090979650505050505050565b6107f97f44414f0000000000000000000000000000000000000000000000000000000000611503565b600160a060020a03163314610858576040805160e560020a62461bcd02815260206004820152601660248201527f4552524f523a3a4e4f545f44414f5f5345525649434500000000000000000000604482015290519081900360640190fd5b6000805473ffffffffffffffffffffffffffffffffffffffff1916600160a060020a0392909216919091179055565b6000806108926119b0565b600160a060020a031663e91a34fc336040518263ffffffff1660e060020a0281526004018082600160a060020a0316600160a060020a0316815260200191505060206040518083038186803b1580156108ea57600080fd5b505afa1580156108fe573d6000803e3d6000fd5b505050506040513d602081101561091457600080fd5b5051905060006109226119e0565b600160a060020a031663f6499f7983866040518363ffffffff1660e060020a0281526004018083815260200182815260200160200192505050602060405180830381600087803b15801561097557600080fd5b505af1158015610989573d6000803e3d6000fd5b505050506040513d602081101561099f57600080fd5b5051949350505050565b6000806109b46119b0565b600160a060020a031663e91a34fc336040518263ffffffff1660e060020a0281526004018082600160a060020a0316600160a060020a0316815260200191505060206040518083038186803b158015610a0c57600080fd5b505afa158015610a20573d6000803e3d6000fd5b505050506040513d6020811015610a3657600080fd5b50519050610a426119e0565b600160a060020a0316632f5ab23b8286866040518463ffffffff1660e060020a028152600401808481526020018381526020018281526020019350505050602060405180830381600087803b15801561097557600080fd5b600080610aa56119b0565b600160a060020a031663e91a34fc336040518263ffffffff1660e060020a0281526004018082600160a060020a0316600160a060020a0316815260200191505060206040518083038186803b158015610afd57600080fd5b505afa158015610b11573d6000803e3d6000fd5b505050506040513d6020811015610b2757600080fd5b505190506000610b356119e0565b600160a060020a031663e90d41d383876040518363ffffffff1660e060020a028152600401808381526020018281526020019250505060206040518083038186803b158015610b8357600080fd5b505afa158015610b97573d6000803e3d6000fd5b505050506040513d6020811015610bad57600080fd5b50516002811115610bba57fe5b14610c0f576040805160e560020a62461bcd02815260206004820152601a60248201527f4552524f523a3a494e56414c49445f434c41494d5f5354415445000000000000604482015290519081900360640190fd5b610c176119e0565b600160a060020a03166324e48c4a828660016040518463ffffffff1660e060020a02815260040180848152602001838152602001826002811115610c5757fe5b60ff1681526020019350505050600060405180830381600087803b158015610c7e57600080fd5b505af1158015610c92573d6000803e3d6000fd5b505050506000610ca06119e0565b600160a060020a0316639171d0408387876040518463ffffffff1660e060020a028152600401808481526020018381526020018281526020019350505050602060405180830381600087803b158015610cf857600080fd5b505af1158015610d0c573d6000803e3d6000fd5b505050506040513d6020811015610d2257600080fd5b505195945050505050565b600080610d386119b0565b600160a060020a031663e91a34fc336040518263ffffffff1660e060020a0281526004018082600160a060020a0316600160a060020a0316815260200191505060206040518083038186803b158015610d9057600080fd5b505afa158015610da4573d6000803e3d6000fd5b505050506040513d6020811015610dba57600080fd5b505190506000610dc86119e0565b600160a060020a03166304fd5f6f83866040518363ffffffff1660e060020a028152600401808381526020018281526020019250505060206040518083038186803b158015610e1657600080fd5b505afa158015610e2a573d6000803e3d6000fd5b505050506040513d6020811015610e4057600080fd5b50516003811115610e4d57fe5b14610ea2576040805160e560020a62461bcd02815260206004820181905260248201527f4552524f523a3a494e56414c49445f4150504c49434154494f4e5f5354415445604482015290519081900360640190fd5b610eaa6119e0565b600160a060020a0316635fde26f4828560026040518463ffffffff1660e060020a02815260040180848152602001838152602001826003811115610eea57fe5b60ff1681526020019350505050600060405180830381600087803b158015610f1157600080fd5b505af1158015610f25573d6000803e3d6000fd5b505050506000610f336119e0565b600160a060020a0316639c67182083866040518363ffffffff1660e060020a028152600401808381526020018281526020019250505060a06040518083038186803b158015610f8157600080fd5b505afa158015610f95573d6000803e3d6000fd5b505050506040513d60a0811015610fab57600080fd5b505190506000610fb96119e0565b600160a060020a031663c7e2f28e84846040518363ffffffff1660e060020a0281526004018083815260200182815260200192505050602060405180830381600087803b158015610cf857600080fd5b600054600160a060020a031681565b60006110226119b0565b600160a060020a031663e91a34fc336040518263ffffffff1660e060020a0281526004018082600160a060020a0316600160a060020a0316815260200191505060206040518083038186803b15801561107a57600080fd5b505afa15801561108e573d6000803e3d6000fd5b505050506040513d60208110156110a457600080fd5b5051905060006110b26119e0565b600160a060020a03166304fd5f6f83856040518363ffffffff1660e060020a028152600401808381526020018281526020019250505060206040518083038186803b15801561110057600080fd5b505afa158015611114573d6000803e3d6000fd5b505050506040513d602081101561112a57600080fd5b5051600381111561113757fe5b1461118c576040805160e560020a62461bcd02815260206004820181905260248201527f4552524f523a3a494e56414c49445f4150504c49434154494f4e5f5354415445604482015290519081900360640190fd5b6111946119e0565b600160a060020a0316635fde26f4828460036040518463ffffffff1660e060020a028152600401808481526020018381526020018260038111156111d457fe5b60ff1681526020019350505050600060405180830381600087803b1580156111fb57600080fd5b505af115801561120f573d6000803e3d6000fd5b505050505050565b7f506f6c696379466c6f7744656661756c7400000000000000000000000000000081565b60006112456119b0565b600160a060020a031663e91a34fc336040518263ffffffff1660e060020a0281526004018082600160a060020a0316600160a060020a0316815260200191505060206040518083038186803b15801561129d57600080fd5b505afa1580156112b1573d6000803e3d6000fd5b505050506040513d60208110156112c757600080fd5b5051905060006112d56119e0565b600160a060020a031663a72a880583856040518363ffffffff1660e060020a028152600401808381526020018281526020019250505060206040518083038186803b15801561132357600080fd5b505afa158015611337573d6000803e3d6000fd5b505050506040513d602081101561134d57600080fd5b5051600181111561135a57fe5b146113af576040805160e560020a62461bcd02815260206004820152601b60248201527f4552524f523a3a494e56414c49445f504f4c4943595f53544154450000000000604482015290519081900360640190fd5b6113b76119e0565b600160a060020a031663d4d6e444828460016040518463ffffffff1660e060020a028152600401808481526020018381526020018260018111156111d457fe5b6000611401611a0b565b600160a060020a031663d643ece8898989898989896040518863ffffffff1660e060020a02815260040180806020018060200186600160a060020a0316600160a060020a0316815260200185815260200184815260200183810383528a8a82818152602001925080828437600083820152601f01601f191690910184810383528881526020019050888880828437600081840152601f19601f8201169050808301925050509950505050505050505050602060405180830381600087803b1580156114cb57600080fd5b505af11580156114df573d6000803e3d6000fd5b505050506040513d60208110156114f557600080fd5b505198975050505050505050565b60008054604080517fda47d856000000000000000000000000000000000000000000000000000000008152600481018590529051600160a060020a039092169163da47d85691602480820192602092909190829003018186803b15801561156957600080fd5b505afa15801561157d573d6000803e3d6000fd5b505050506040513d602081101561159357600080fd5b505192915050565b6000806115a66119b0565b600160a060020a031663e91a34fc336040518263ffffffff1660e060020a0281526004018082600160a060020a0316600160a060020a0316815260200191505060206040518083038186803b1580156115fe57600080fd5b505afa158015611612573d6000803e3d6000fd5b505050506040513d602081101561162857600080fd5b5051905060006116366119e0565b600160a060020a031663679ffb80836040518263ffffffff1660e060020a02815260040180828152602001915050602060405180830381600087803b15801561167e57600080fd5b505af1158015611692573d6000803e3d6000fd5b505050506040513d60208110156116a857600080fd5b5051905060006116b66119e0565b600160a060020a031663d007967a84848c8c8c8c8c6040518863ffffffff1660e060020a02815260040180888152602001878152602001868152602001858152602001848152602001806020018281038252848482818152602001925060200280828437600081840152601f19601f82011690508083019250505098505050505050505050602060405180830381600087803b15801561175557600080fd5b505af1158015611769573d6000803e3d6000fd5b505050506040513d602081101561177f57600080fd5b50519998505050505050505050565b60008054604080517fe16c7d98000000000000000000000000000000000000000000000000000000008152600481018590529051600160a060020a039092169163e16c7d9891602480820192602092909190829003018186803b15801561156957600080fd5b60006117fe6119b0565b600160a060020a031663e91a34fc336040518263ffffffff1660e060020a0281526004018082600160a060020a0316600160a060020a0316815260200191505060206040518083038186803b15801561185657600080fd5b505afa15801561186a573d6000803e3d6000fd5b505050506040513d602081101561188057600080fd5b50519050600061188e6119e0565b600160a060020a031663e90d41d383856040518363ffffffff1660e060020a028152600401808381526020018281526020019250505060206040518083038186803b1580156118dc57600080fd5b505afa1580156118f0573d6000803e3d6000fd5b505050506040513d602081101561190657600080fd5b5051600281111561191357fe5b14611968576040805160e560020a62461bcd02815260206004820152601a60248201527f4552524f523a3a494e56414c49445f434c41494d5f5354415445000000000000604482015290519081900360640190fd5b6119706119e0565b600160a060020a03166324e48c4a828460026040518463ffffffff1660e060020a028152600401808481526020018381526020018260028111156111d457fe5b60006119db7f4c6963656e73650000000000000000000000000000000000000000000000000061178e565b905090565b60006119db7f506f6c696379000000000000000000000000000000000000000000000000000061178e565b60006119db7f517565727900000000000000000000000000000000000000000000000000000061178e56fea165627a7a72305820668e41fc41f4ee63d5180627d8004fe09c36e04e72956200ae361672a4cd69630029",
  "source": "pragma solidity 0.5.2;\n\nimport \"../shared/WithRegistry.sol\";\nimport \"../modules/policy/IPolicy.sol\";\nimport \"../modules/policy/IPolicyController.sol\";\nimport \"../modules/license/ILicenseController.sol\";\nimport \"../modules/query/IQueryController.sol\";\n\ncontract PolicyFlowDefault is WithRegistry {\n    bytes32 public constant NAME = \"PolicyFlowDefault\";\n\n    constructor(address _registry) public WithRegistry(_registry) {}\n\n    function newApplication(\n        bytes32 _customerExternalId,\n        uint256 _premium,\n        bytes32 _currency,\n        uint256[] calldata _payoutOptions\n    ) external returns (uint256 _applicationId) {\n        uint256 productId = license().getProductId(msg.sender);\n\n        uint256 metadataId = policy().createPolicyFlow(productId);\n\n        uint256 applicationId = policy().createApplication(\n            productId,\n            metadataId,\n            _customerExternalId,\n            _premium,\n            _currency,\n            _payoutOptions\n        );\n\n        _applicationId = applicationId;\n    }\n\n    function underwrite(uint256 _applicationId)\n        external\n        returns (uint256 _policyId)\n    {\n        uint256 productId = license().getProductId(msg.sender);\n\n        require(\n            policy().getApplicationState(\n                productId,\n                _applicationId\n            ) == IPolicy.ApplicationState.Applied,\n            \"ERROR::INVALID_APPLICATION_STATE\"\n        );\n\n        policy().setApplicationState(\n            productId,\n            _applicationId,\n            IPolicy.ApplicationState.Underwritten\n        );\n\n        (uint256 metadataId, , , , ) = policy().getApplicationData(\n            productId,\n            _applicationId\n        );\n\n        uint256 policyId = policy().createPolicy(productId, metadataId);\n\n        _policyId = policyId;\n    }\n\n    function decline(uint256 _applicationId) external {\n        uint256 productId = license().getProductId(msg.sender);\n\n        require(\n            policy().getApplicationState(\n                productId,\n                _applicationId\n            ) == IPolicy.ApplicationState.Applied,\n            \"ERROR::INVALID_APPLICATION_STATE\"\n        );\n\n        policy().setApplicationState(\n            productId,\n            _applicationId,\n            IPolicy.ApplicationState.Declined\n        );\n    }\n\n    function newClaim(uint256 _policyId) external returns (uint256 _claimId) {\n        uint256 productId = license().getProductId(msg.sender);\n\n        uint256 claimId = policy().createClaim(productId, _policyId, \"\");\n\n        _claimId = claimId;\n    }\n\n    function confirmClaim(uint256 _claimId, uint256 _sum)\n        external\n        returns (uint256 _payoutId)\n    {\n        uint256 productId = license().getProductId(msg.sender);\n\n        require(\n            policy().getClaimState(\n                productId,\n                _claimId\n            ) == IPolicy.ClaimState.Applied,\n            \"ERROR::INVALID_CLAIM_STATE\"\n        );\n\n        policy().setClaimState(\n            productId,\n            _claimId,\n            IPolicy.ClaimState.Confirmed\n        );\n\n        uint256 payoutId = policy().createPayout(productId, _claimId, _sum);\n\n        _payoutId = payoutId;\n    }\n\n    function declineClaim(uint256 _claimId) external {\n        uint256 productId = license().getProductId(msg.sender);\n\n        require(\n            policy().getClaimState(\n                productId,\n                _claimId\n            ) == IPolicy.ClaimState.Applied,\n            \"ERROR::INVALID_CLAIM_STATE\"\n        );\n\n        policy().setClaimState(\n            productId,\n            _claimId,\n            IPolicy.ClaimState.Declined\n        );\n    }\n\n    function expire(uint256 _policyId) external {\n        uint256 productId = license().getProductId(msg.sender);\n\n        require(\n            policy().getPolicyState(\n                productId,\n                _policyId\n            ) == IPolicy.PolicyState.Active,\n            \"ERROR::INVALID_POLICY_STATE\"\n        );\n\n        policy().setPolicyState(\n            productId,\n            _policyId,\n            IPolicy.PolicyState.Expired\n        );\n    }\n\n    function payout(uint256 _payoutId, uint256 _amount)\n        external\n        returns (uint256 _remainder)\n    {\n        uint256 productId = license().getProductId(msg.sender);\n\n        _remainder = policy().payOut(productId, _payoutId, _amount);\n    }\n\n    function register(bytes32 _productName, bytes32 _policyFlow) external {\n        license().register(_productName, msg.sender, _policyFlow);\n    }\n\n    function request(\n        bytes calldata _input,\n        string calldata _callbackMethodName,\n        address _callabackContractAddress,\n        bytes32 _oracleTypeName,\n        uint256 _responsibleOracleId\n    ) external returns (uint256 _requestId) {\n        _requestId = query().request(\n            _input,\n            _callbackMethodName,\n            _callabackContractAddress,\n            _oracleTypeName,\n            _responsibleOracleId\n        );\n    }\n\n    function getPayoutOptions(uint256 _applicationId)\n        external\n        view\n        returns (uint256[] memory _payoutOptions)\n    {\n        uint256 productId = license().getProductId(msg.sender);\n\n        _payoutOptions = policy().getPayoutOptions(productId, _applicationId);\n    }\n\n    function getPremium(uint256 _applicationId)\n        external\n        view\n        returns (uint256 _premium)\n    {\n        uint256 productId = license().getProductId(msg.sender);\n\n        _premium = policy().getPremium(productId, _applicationId);\n    }\n\n    function license() internal view returns (ILicenseController) {\n        return ILicenseController(getContract(\"License\"));\n    }\n\n    function policy() internal view returns (IPolicyController) {\n        return IPolicyController(getContract(\"Policy\"));\n    }\n\n    function query() internal view returns (IQueryController) {\n        return IQueryController(getContract(\"Query\"));\n    }\n}\n",
  "sourcePath": "/Users/ka/Projects/Altoros/Etherisc/dip-platform/core/gif-contracts/contracts/policyFlows/PolicyFlowDefault.sol",
  "compiler": {
    "name": "solc",
    "version": "0.5.2+commit.1df8f40c.Emscripten.clang"
  },
  "schemaVersion": "3.0.2",
  "updatedAt": "2019-02-18T10:26:32.415Z",
  "devdoc": {
    "methods": {}
  },
  "userdoc": {
    "methods": {}
  }
}