{
  "contractName": "Policy",
  "abi": [
    {
      "constant": true,
      "inputs": [
        {
          "name": "",
          "type": "uint256"
        },
        {
          "name": "",
          "type": "uint256"
        }
      ],
      "name": "payouts",
      "outputs": [
        {
          "name": "metadataId",
          "type": "uint256"
        },
        {
          "name": "claimId",
          "type": "uint256"
        },
        {
          "name": "expectedAmount",
          "type": "uint256"
        },
        {
          "name": "actualAmount",
          "type": "uint256"
        },
        {
          "name": "state",
          "type": "uint8"
        },
        {
          "name": "stateMessage",
          "type": "bytes32"
        },
        {
          "name": "createdAt",
          "type": "uint256"
        },
        {
          "name": "updatedAt",
          "type": "uint256"
        }
      ],
      "payable": false,
      "stateMutability": "view",
      "type": "function",
      "signature": "0x304de873"
    },
    {
      "constant": false,
      "inputs": [
        {
          "name": "_registry",
          "type": "address"
        }
      ],
      "name": "assignRegistry",
      "outputs": [],
      "payable": false,
      "stateMutability": "nonpayable",
      "type": "function",
      "signature": "0x51b68ee4"
    },
    {
      "constant": true,
      "inputs": [
        {
          "name": "",
          "type": "uint256"
        },
        {
          "name": "",
          "type": "uint256"
        }
      ],
      "name": "applications",
      "outputs": [
        {
          "name": "metadataId",
          "type": "uint256"
        },
        {
          "name": "customerExternalId",
          "type": "bytes32"
        },
        {
          "name": "premium",
          "type": "uint256"
        },
        {
          "name": "currency",
          "type": "bytes32"
        },
        {
          "name": "state",
          "type": "uint8"
        },
        {
          "name": "stateMessage",
          "type": "bytes32"
        },
        {
          "name": "createdAt",
          "type": "uint256"
        },
        {
          "name": "updatedAt",
          "type": "uint256"
        }
      ],
      "payable": false,
      "stateMutability": "view",
      "type": "function",
      "signature": "0x7a870b63"
    },
    {
      "constant": true,
      "inputs": [],
      "name": "registry",
      "outputs": [
        {
          "name": "",
          "type": "address"
        }
      ],
      "payable": false,
      "stateMutability": "view",
      "type": "function",
      "signature": "0x7b103999"
    },
    {
      "constant": true,
      "inputs": [
        {
          "name": "",
          "type": "uint256"
        },
        {
          "name": "",
          "type": "uint256"
        }
      ],
      "name": "metadata",
      "outputs": [
        {
          "name": "applicationId",
          "type": "uint256"
        },
        {
          "name": "policyId",
          "type": "uint256"
        },
        {
          "name": "hasPolicy",
          "type": "bool"
        },
        {
          "name": "hasApplication",
          "type": "bool"
        },
        {
          "name": "tokenContract",
          "type": "address"
        },
        {
          "name": "tokenId",
          "type": "uint256"
        },
        {
          "name": "registryContract",
          "type": "uint256"
        },
        {
          "name": "release",
          "type": "uint256"
        },
        {
          "name": "state",
          "type": "uint8"
        },
        {
          "name": "stateMessage",
          "type": "bytes32"
        },
        {
          "name": "createdAt",
          "type": "uint256"
        },
        {
          "name": "updatedAt",
          "type": "uint256"
        }
      ],
      "payable": false,
      "stateMutability": "view",
      "type": "function",
      "signature": "0xa0b7992b"
    },
    {
      "constant": true,
      "inputs": [],
      "name": "NAME",
      "outputs": [
        {
          "name": "",
          "type": "bytes32"
        }
      ],
      "payable": false,
      "stateMutability": "view",
      "type": "function",
      "signature": "0xa3f4df7e"
    },
    {
      "constant": true,
      "inputs": [
        {
          "name": "",
          "type": "uint256"
        },
        {
          "name": "",
          "type": "uint256"
        }
      ],
      "name": "policies",
      "outputs": [
        {
          "name": "metadataId",
          "type": "uint256"
        },
        {
          "name": "state",
          "type": "uint8"
        },
        {
          "name": "stateMessage",
          "type": "bytes32"
        },
        {
          "name": "createdAt",
          "type": "uint256"
        },
        {
          "name": "updatedAt",
          "type": "uint256"
        }
      ],
      "payable": false,
      "stateMutability": "view",
      "type": "function",
      "signature": "0xc2a0fa48"
    },
    {
      "constant": true,
      "inputs": [
        {
          "name": "_contractName",
          "type": "bytes32"
        }
      ],
      "name": "getService",
      "outputs": [
        {
          "name": "_addr",
          "type": "address"
        }
      ],
      "payable": false,
      "stateMutability": "view",
      "type": "function",
      "signature": "0xda47d856"
    },
    {
      "constant": true,
      "inputs": [
        {
          "name": "_contractName",
          "type": "bytes32"
        }
      ],
      "name": "getContract",
      "outputs": [
        {
          "name": "_addr",
          "type": "address"
        }
      ],
      "payable": false,
      "stateMutability": "view",
      "type": "function",
      "signature": "0xe16c7d98"
    },
    {
      "constant": false,
      "inputs": [
        {
          "name": "_controller",
          "type": "address"
        }
      ],
      "name": "assignController",
      "outputs": [],
      "payable": false,
      "stateMutability": "nonpayable",
      "type": "function",
      "signature": "0xec1bc1ac"
    },
    {
      "constant": true,
      "inputs": [],
      "name": "controller",
      "outputs": [
        {
          "name": "",
          "type": "address"
        }
      ],
      "payable": false,
      "stateMutability": "view",
      "type": "function",
      "signature": "0xf77c4791"
    },
    {
      "constant": true,
      "inputs": [
        {
          "name": "",
          "type": "uint256"
        },
        {
          "name": "",
          "type": "uint256"
        }
      ],
      "name": "claims",
      "outputs": [
        {
          "name": "metadataId",
          "type": "uint256"
        },
        {
          "name": "data",
          "type": "bytes32"
        },
        {
          "name": "state",
          "type": "uint8"
        },
        {
          "name": "stateMessage",
          "type": "bytes32"
        },
        {
          "name": "createdAt",
          "type": "uint256"
        },
        {
          "name": "updatedAt",
          "type": "uint256"
        }
      ],
      "payable": false,
      "stateMutability": "view",
      "type": "function",
      "signature": "0xf894160e"
    },
    {
      "inputs": [
        {
          "name": "_registry",
          "type": "address"
        }
      ],
      "payable": false,
      "stateMutability": "nonpayable",
      "type": "constructor",
      "signature": "constructor"
    },
    {
      "payable": false,
      "stateMutability": "nonpayable",
      "type": "fallback"
    },
    {
      "anonymous": false,
      "inputs": [
        {
          "indexed": false,
          "name": "productId",
          "type": "uint256"
        },
        {
          "indexed": false,
          "name": "metadataId",
          "type": "uint256"
        },
        {
          "indexed": false,
          "name": "state",
          "type": "uint8"
        }
      ],
      "name": "LogNewMetadata",
      "type": "event",
      "signature": "0x56e10a65574d410cf29046d336f4e0b6756a82e88b976b823706a5cc4f37c470"
    },
    {
      "anonymous": false,
      "inputs": [
        {
          "indexed": false,
          "name": "productId",
          "type": "uint256"
        },
        {
          "indexed": false,
          "name": "metadataId",
          "type": "uint256"
        },
        {
          "indexed": false,
          "name": "state",
          "type": "uint8"
        }
      ],
      "name": "LogMetadataStateChanged",
      "type": "event",
      "signature": "0xb8ecaa7e65a5563c3056a6912ad98a31fff22865db39c1d532246718626b2454"
    },
    {
      "anonymous": false,
      "inputs": [
        {
          "indexed": false,
          "name": "productId",
          "type": "uint256"
        },
        {
          "indexed": false,
          "name": "metadataId",
          "type": "uint256"
        },
        {
          "indexed": false,
          "name": "applicationId",
          "type": "uint256"
        }
      ],
      "name": "LogNewApplication",
      "type": "event",
      "signature": "0x08cbae34439f6e42b3c0d22f309ee991b7a1aa31c27b09d0511634c5b7b4555c"
    },
    {
      "anonymous": false,
      "inputs": [
        {
          "indexed": false,
          "name": "productId",
          "type": "uint256"
        },
        {
          "indexed": false,
          "name": "metadataId",
          "type": "uint256"
        },
        {
          "indexed": false,
          "name": "applicationId",
          "type": "uint256"
        },
        {
          "indexed": false,
          "name": "state",
          "type": "uint8"
        }
      ],
      "name": "LogApplicationStateChanged",
      "type": "event",
      "signature": "0x72662cc8f3e4669125918fcdb8424c41e93f69bf15b435c1095772960df92445"
    },
    {
      "anonymous": false,
      "inputs": [
        {
          "indexed": false,
          "name": "productId",
          "type": "uint256"
        },
        {
          "indexed": false,
          "name": "metadataId",
          "type": "uint256"
        },
        {
          "indexed": false,
          "name": "policyId",
          "type": "uint256"
        },
        {
          "indexed": false,
          "name": "applicationId",
          "type": "uint256"
        }
      ],
      "name": "LogNewPolicy",
      "type": "event",
      "signature": "0x393a2454e004de3e3f426713018a5da2237da49f1079720cdf1450c81e0078c1"
    },
    {
      "anonymous": false,
      "inputs": [
        {
          "indexed": false,
          "name": "productId",
          "type": "uint256"
        },
        {
          "indexed": false,
          "name": "metadataId",
          "type": "uint256"
        },
        {
          "indexed": false,
          "name": "policyId",
          "type": "uint256"
        },
        {
          "indexed": false,
          "name": "state",
          "type": "uint8"
        }
      ],
      "name": "LogPolicyStateChanged",
      "type": "event",
      "signature": "0x8b0d1b9c9389302c8ab61b5f5ad51b9cbae5f3330693804a9f3d9aa00e9d1fde"
    },
    {
      "anonymous": false,
      "inputs": [
        {
          "indexed": false,
          "name": "productId",
          "type": "uint256"
        },
        {
          "indexed": false,
          "name": "metadataId",
          "type": "uint256"
        },
        {
          "indexed": false,
          "name": "policyId",
          "type": "uint256"
        },
        {
          "indexed": false,
          "name": "state",
          "type": "uint8"
        }
      ],
      "name": "LogNewClaim",
      "type": "event",
      "signature": "0xf32c53a0badbaf439caef780833859e2aa2f472f3a0f6149f5b384c8ae348faf"
    },
    {
      "anonymous": false,
      "inputs": [
        {
          "indexed": false,
          "name": "productId",
          "type": "uint256"
        },
        {
          "indexed": false,
          "name": "metadataId",
          "type": "uint256"
        },
        {
          "indexed": false,
          "name": "policyId",
          "type": "uint256"
        },
        {
          "indexed": false,
          "name": "state",
          "type": "uint8"
        }
      ],
      "name": "LogClaimStateChanged",
      "type": "event",
      "signature": "0x93ce95a18916f55295a7d528231262dc7e487c6e0b2360f3f3da9aaf0e8fb114"
    },
    {
      "anonymous": false,
      "inputs": [
        {
          "indexed": false,
          "name": "productId",
          "type": "uint256"
        },
        {
          "indexed": false,
          "name": "payoutId",
          "type": "uint256"
        },
        {
          "indexed": false,
          "name": "metadataId",
          "type": "uint256"
        },
        {
          "indexed": false,
          "name": "policyId",
          "type": "uint256"
        },
        {
          "indexed": false,
          "name": "claimId",
          "type": "uint256"
        },
        {
          "indexed": false,
          "name": "amount",
          "type": "uint256"
        },
        {
          "indexed": false,
          "name": "state",
          "type": "uint8"
        }
      ],
      "name": "LogNewPayout",
      "type": "event",
      "signature": "0xda3e9155077a479feba19bf813c11fe009119bb8374d902862b97174364d4f2c"
    },
    {
      "anonymous": false,
      "inputs": [
        {
          "indexed": false,
          "name": "productId",
          "type": "uint256"
        },
        {
          "indexed": false,
          "name": "metadataId",
          "type": "uint256"
        },
        {
          "indexed": false,
          "name": "policyId",
          "type": "uint256"
        },
        {
          "indexed": false,
          "name": "claimId",
          "type": "uint256"
        },
        {
          "indexed": false,
          "name": "state",
          "type": "uint8"
        }
      ],
      "name": "LogPayoutStateChanged",
      "type": "event",
      "signature": "0x37081c5c4ed46e00a7a4425e5eb205d695291de1fbdaa37a5ab5fb247831c2d8"
    },
    {
      "anonymous": false,
      "inputs": [
        {
          "indexed": false,
          "name": "productId",
          "type": "uint256"
        },
        {
          "indexed": false,
          "name": "policyId",
          "type": "uint256"
        },
        {
          "indexed": false,
          "name": "payoutId",
          "type": "uint256"
        },
        {
          "indexed": false,
          "name": "amount",
          "type": "uint256"
        },
        {
          "indexed": false,
          "name": "state",
          "type": "uint8"
        }
      ],
      "name": "LogPayoutCompleted",
      "type": "event",
      "signature": "0xc30f97faf368d03f2f6ac81cc1402b7d4aeca7d7bd43aeb061080b6b5c0c3cd6"
    },
    {
      "anonymous": false,
      "inputs": [
        {
          "indexed": false,
          "name": "productId",
          "type": "uint256"
        },
        {
          "indexed": false,
          "name": "policyId",
          "type": "uint256"
        },
        {
          "indexed": false,
          "name": "payoutId",
          "type": "uint256"
        },
        {
          "indexed": false,
          "name": "amount",
          "type": "uint256"
        },
        {
          "indexed": false,
          "name": "remainder",
          "type": "uint256"
        },
        {
          "indexed": false,
          "name": "state",
          "type": "uint8"
        }
      ],
      "name": "LogPartialPayout",
      "type": "event",
      "signature": "0x38dd802e8f7783a31657d40dc978a7c176f95b9038863ff49f42dca0f8ccba36"
    }
  ],
  "bytecode": "0x608060405234801561001057600080fd5b50604051602080610a3c8339810180604052602081101561003057600080fd5b505160058054600160a060020a031916600160a060020a039092169190911790556109dc806100606000396000f3fe608060405234801561001057600080fd5b50600436106100d1576000357c010000000000000000000000000000000000000000000000000000000090048063c2a0fa481161008e578063c2a0fa48146102bd578063da47d85614610320578063e16c7d981461033d578063ec1bc1ac1461035a578063f77c479114610380578063f894160e14610388576100d1565b8063304de873146100e857806351b68ee4146101605780637a870b63146101865780637b103999146101d1578063a0b7992b146101f5578063a3f4df7e146102a3575b6006546100e690600160a060020a03166103f2565b005b61010b600480360360408110156100fe57600080fd5b50803590602001356104c9565b6040518089815260200188815260200187815260200186815260200185600181111561013357fe5b60ff1681526020018481526020018381526020018281526020019850505050505050505060405180910390f35b6100e66004803603602081101561017657600080fd5b5035600160a060020a031661052e565b6101a96004803603604081101561019c57600080fd5b50803590602001356105fc565b6040518089815260200188815260200187815260200186815260200185600381111561013357fe5b6101d9610661565b60408051600160a060020a039092168252519081900360200190f35b6102186004803603604081101561020b57600080fd5b5080359060200135610670565b604051808d81526020018c81526020018b1515151581526020018a15151515815260200189600160a060020a0316600160a060020a0316815260200188815260200187815260200186815260200185600281111561027257fe5b60ff1681526020018481526020018381526020018281526020019c5050505050505050505050505060405180910390f35b6102ab610700565b60408051918252519081900360200190f35b6102e0600480360360408110156102d357600080fd5b5080359060200135610724565b604051808681526020018560018111156102f657fe5b60ff1681526020018481526020018381526020018281526020019550505050505060405180910390f35b6101d96004803603602081101561033657600080fd5b5035610775565b6101d96004803603602081101561035357600080fd5b503561080c565b6100e66004803603602081101561037057600080fd5b5035600160a060020a0316610871565b6101d961091c565b6103ab6004803603604081101561039e57600080fd5b508035906020013561092b565b604051808781526020018681526020018560028111156103c757fe5b60ff168152602001848152602001838152602001828152602001965050505050505060405180910390f35b600160a060020a038116151561046957604080517f08c379a000000000000000000000000000000000000000000000000000000000815260206004820152601d60248201527f4552524f523a3a554e4b4e4f574e5f494d504c454d454e544154494f4e000000604482015290519081900360640190fd5b60606000368080601f016020809104026020016040519081016040528093929190818152602001838380828437600092018290525084519495509384935091505060208401855af43d604051816000823e8280156104c5578282f35b8282fd5b6004602052816000526040600020818154811015156104e457fe5b6000918252602090912060089091020180546001820154600283015460038401546004850154600586015460068701546007909701549598509396509194909360ff909216929188565b6105577f44414f0000000000000000000000000000000000000000000000000000000000610775565b600160a060020a031633146105cd57604080517f08c379a000000000000000000000000000000000000000000000000000000000815260206004820152601660248201527f4552524f523a3a4e4f545f44414f5f5345525649434500000000000000000000604482015290519081900360640190fd5b6005805473ffffffffffffffffffffffffffffffffffffffff1916600160a060020a0392909216919091179055565b60016020528160005260406000208181548110151561061757fe5b6000918252602090912060099091020180546001820154600283015460038401546005850154600686015460078701546008909701549598509396509194909360ff909216929188565b600554600160a060020a031681565b60006020528160005260406000208181548110151561068b57fe5b60009182526020909120600c9091020180546001820154600483015460058401546006850154600786015460088701546009880154600a890154600b90990154979a5095985060ff80861698610100870482169862010000909704600160a060020a031697959694959394919092169291908c565b7f506f6c696379000000000000000000000000000000000000000000000000000081565b60026020528160005260406000208181548110151561073f57fe5b60009182526020909120600590910201805460018201546002830154600384015460049094015492955060ff9091169350919085565b600554604080517fda47d856000000000000000000000000000000000000000000000000000000008152600481018490529051600092600160a060020a03169163da47d856916024808301926020929190829003018186803b1580156107da57600080fd5b505afa1580156107ee573d6000803e3d6000fd5b505050506040513d602081101561080457600080fd5b505192915050565b600554604080517fe16c7d98000000000000000000000000000000000000000000000000000000008152600481018490529051600092600160a060020a03169163e16c7d98916024808301926020929190829003018186803b1580156107da57600080fd5b61089a7f44414f0000000000000000000000000000000000000000000000000000000000610775565b600160a060020a0316331461091057604080517f08c379a000000000000000000000000000000000000000000000000000000000815260206004820152601660248201527f4552524f523a3a4e4f545f44414f5f5345525649434500000000000000000000604482015290519081900360640190fd5b61091981610981565b50565b600654600160a060020a031681565b60036020528160005260406000208181548110151561094657fe5b600091825260209091206006909102018054600182015460028301546003840154600485015460059095015493965091945060ff1692909186565b6006805473ffffffffffffffffffffffffffffffffffffffff1916600160a060020a039290921691909117905556fea165627a7a72305820bab7619ad669457b7dc8a2d2217a830e45b9f20d91beb065d3e7c1b92aca74270029",
  "source": "pragma solidity 0.5.2;\n\nimport \"./PolicyStorageModel.sol\";\nimport \"../../shared/ModuleStorage.sol\";\n\ncontract Policy is PolicyStorageModel, ModuleStorage {\n    bytes32 public constant NAME = \"Policy\";\n\n    constructor(address _registry) public WithRegistry(_registry) {}\n}\n",
  "sourcePath": "/Users/ka/Projects/Altoros/Etherisc/dip-platform/core/gif-contracts/contracts/modules/policy/Policy.sol",
  "compiler": {
    "name": "solc",
    "version": "0.5.2+commit.1df8f40c.Emscripten.clang"
  },
  "schemaVersion": "3.0.1",
  "updatedAt": "2019-02-12T10:29:52.932Z",
  "devdoc": {
    "methods": {}
  },
  "userdoc": {
    "methods": {}
  }
}