{
  "contractName": "ProductMock",
  "abi": [
    {
      "constant": true,
      "inputs": [
        {
          "name": "",
          "type": "address"
        }
      ],
      "name": "permissions",
      "outputs": [
        {
          "name": "",
          "type": "uint256"
        }
      ],
      "payable": false,
      "stateMutability": "view",
      "type": "function"
    },
    {
      "constant": true,
      "inputs": [],
      "name": "POLICY_FLOW",
      "outputs": [
        {
          "name": "",
          "type": "bytes32"
        }
      ],
      "payable": false,
      "stateMutability": "view",
      "type": "function"
    },
    {
      "constant": true,
      "inputs": [],
      "name": "maintenanceMode",
      "outputs": [
        {
          "name": "",
          "type": "bool"
        }
      ],
      "payable": false,
      "stateMutability": "view",
      "type": "function"
    },
    {
      "constant": true,
      "inputs": [
        {
          "name": "",
          "type": "uint256"
        }
      ],
      "name": "rolesKeys",
      "outputs": [
        {
          "name": "",
          "type": "bytes32"
        }
      ],
      "payable": false,
      "stateMutability": "view",
      "type": "function"
    },
    {
      "constant": true,
      "inputs": [
        {
          "name": "",
          "type": "bytes32"
        }
      ],
      "name": "roles",
      "outputs": [
        {
          "name": "",
          "type": "uint256"
        }
      ],
      "payable": false,
      "stateMutability": "view",
      "type": "function"
    },
    {
      "constant": true,
      "inputs": [],
      "name": "NAME",
      "outputs": [
        {
          "name": "",
          "type": "bytes32"
        }
      ],
      "payable": false,
      "stateMutability": "view",
      "type": "function"
    },
    {
      "constant": true,
      "inputs": [
        {
          "name": "_address",
          "type": "address"
        },
        {
          "name": "_role",
          "type": "bytes32"
        }
      ],
      "name": "hasRole",
      "outputs": [
        {
          "name": "_hasRole",
          "type": "bool"
        }
      ],
      "payable": false,
      "stateMutability": "view",
      "type": "function"
    },
    {
      "constant": false,
      "inputs": [
        {
          "name": "_address",
          "type": "address"
        },
        {
          "name": "_role",
          "type": "bytes32"
        }
      ],
      "name": "addRoleToAccount",
      "outputs": [],
      "payable": false,
      "stateMutability": "nonpayable",
      "type": "function"
    },
    {
      "constant": true,
      "inputs": [],
      "name": "productService",
      "outputs": [
        {
          "name": "",
          "type": "address"
        }
      ],
      "payable": false,
      "stateMutability": "view",
      "type": "function"
    },
    {
      "constant": false,
      "inputs": [
        {
          "name": "_role",
          "type": "bytes32"
        }
      ],
      "name": "createRole",
      "outputs": [],
      "payable": false,
      "stateMutability": "nonpayable",
      "type": "function"
    },
    {
      "constant": true,
      "inputs": [],
      "name": "developmentMode",
      "outputs": [
        {
          "name": "",
          "type": "bool"
        }
      ],
      "payable": false,
      "stateMutability": "view",
      "type": "function"
    },
    {
      "constant": false,
      "inputs": [
        {
          "name": "_address",
          "type": "address"
        }
      ],
      "name": "cleanRolesForAccount",
      "outputs": [],
      "payable": false,
      "stateMutability": "nonpayable",
      "type": "function"
    },
    {
      "inputs": [
        {
          "name": "_productController",
          "type": "address"
        }
      ],
      "payable": false,
      "stateMutability": "nonpayable",
      "type": "constructor"
    },
    {
      "constant": false,
      "inputs": [
        {
          "name": "_premium",
          "type": "uint256"
        },
        {
          "name": "_currency",
          "type": "bytes32"
        },
        {
          "name": "_payoutOptions",
          "type": "uint256[]"
        },
        {
          "name": "_customerExternalId",
          "type": "bytes32"
        }
      ],
      "name": "applyForPolicy",
      "outputs": [],
      "payable": false,
      "stateMutability": "nonpayable",
      "type": "function"
    },
    {
      "constant": false,
      "inputs": [
        {
          "name": "_applicationId",
          "type": "uint256"
        }
      ],
      "name": "underwriteApplication",
      "outputs": [],
      "payable": false,
      "stateMutability": "nonpayable",
      "type": "function"
    },
    {
      "constant": false,
      "inputs": [
        {
          "name": "_applicationId",
          "type": "uint256"
        }
      ],
      "name": "delcineApplication",
      "outputs": [],
      "payable": false,
      "stateMutability": "nonpayable",
      "type": "function"
    },
    {
      "constant": false,
      "inputs": [
        {
          "name": "_policyId",
          "type": "uint256"
        }
      ],
      "name": "newClaimTx",
      "outputs": [],
      "payable": false,
      "stateMutability": "nonpayable",
      "type": "function"
    },
    {
      "constant": false,
      "inputs": [
        {
          "name": "_policyId",
          "type": "uint256"
        }
      ],
      "name": "confirmClaimTx",
      "outputs": [],
      "payable": false,
      "stateMutability": "nonpayable",
      "type": "function"
    },
    {
      "constant": false,
      "inputs": [
        {
          "name": "_policyId",
          "type": "uint256"
        }
      ],
      "name": "expireTx",
      "outputs": [],
      "payable": false,
      "stateMutability": "nonpayable",
      "type": "function"
    },
    {
      "constant": false,
      "inputs": [
        {
          "name": "_payoutId",
          "type": "uint256"
        },
        {
          "name": "_amount",
          "type": "uint256"
        }
      ],
      "name": "payoutTx",
      "outputs": [],
      "payable": false,
      "stateMutability": "nonpayable",
      "type": "function"
    }
  ],
  "bytecode": "0x60806040526003805461ffff1916905534801561001b57600080fd5b5060405160208061093b8339810180604052602081101561003b57600080fd5b5051600380546201000060b060020a03191662010000600160a060020a03841602179055807f50726f647563744d6f636b0000000000000000000000000000000000000000007f506f6c696379466c6f7744656661756c740000000000000000000000000000006100b582826401000000006100be810204565b5050505061016d565b600360029054906101000a9004600160a060020a0316600160a060020a0316632f92673283836040518363ffffffff167c01000000000000000000000000000000000000000000000000000000000281526004018083815260200182815260200192505050602060405180830381600087803b15801561013d57600080fd5b505af1158015610151573d6000803e3d6000fd5b505050506040513d602081101561016757600080fd5b50505050565b6107bf8061017c6000396000f3fe608060405234801561001057600080fd5b50600436106101255760003560e060020a9004806395356651116100b1578063c37d45bf11610075578063c37d45bf14610318578063c42994a21461033c578063d6fcaf4014610359578063f566e10e14610361578063fbbb3bdd1461020257610125565b8063953566511461021f578063a2949bdc1461023c578063a3f4df7e146102b8578063ac4ab3fb146102c0578063c2e86735146102ec57610125565b80632cf88d9e116100f85780632cf88d9e146101ab5780635ecdaffb146101c857806363074b4b146101e55780637bf11fdd146102025780638d35fe2f1461020257610125565b806301e882081461012a57806309128d831461016257806314f573301461016a57806325dce0a61461018f575b600080fd5b6101506004803603602081101561014057600080fd5b5035600160a060020a0316610387565b60408051918252519081900360200190f35b610150610399565b61018d6004803603604081101561018057600080fd5b50803590602001356103bd565b005b6101976103c1565b604080519115158252519081900360200190f35b610150600480360360208110156101c157600080fd5b50356103cf565b61018d600480360360208110156101de57600080fd5b50356103ee565b61018d600480360360208110156101fb57600080fd5b50356103f7565b61018d6004803603602081101561021857600080fd5b5035610400565b6101506004803603602081101561023557600080fd5b5035610403565b61018d6004803603608081101561025257600080fd5b81359160208101359181019060608101604082013564010000000081111561027957600080fd5b82018360208201111561028b57600080fd5b803590602001918460208302840111640100000000831117156102ad57600080fd5b919350915035610415565b61015061045f565b610197600480360360408110156102d657600080fd5b50600160a060020a038135169060200135610483565b61018d6004803603604081101561030257600080fd5b50600160a060020a0381351690602001356104af565b6103206104f6565b60408051600160a060020a039092168252519081900360200190f35b61018d6004803603602081101561035257600080fd5b503561050b565b61019761056e565b61018d6004803603602081101561037757600080fd5b5035600160a060020a0316610577565b60026020526000908152604090205481565b7f506f6c696379466c6f7744656661756c7400000000000000000000000000000081565b5050565b600354610100900460ff1681565b60018054829081106103dd57fe5b600091825260209091200154905081565b6103bd81610591565b6104008161062f565b50565b60006020819052908152604090205481565b60006104568287878787808060200260200160405190810160405280939291908181526020018383602002808284376000920191909152506106a892505050565b50505050505050565b7f50726f647563744d6f636b00000000000000000000000000000000000000000081565b60009081526020818152604080832054600160a060020a03909416835260029091528120549091161190565b60008181526020819052604090205415156104c957600080fd5b60009081526020818152604080832054600160a060020a0390941683526002909152902080549091179055565b600354620100009004600160a060020a031681565b6000818152602081905260409020541561052457600080fd5b60018054600083815260208190526040812060029290920a909155815480830183559190527fb10e2d527612073b26eecdfd717e6a320cf44b4afac2b0732d9fcbe2b7fa0cf60155565b60035460ff1681565b600160a060020a0316600090815260026020526040812055565b600354604080517f6be60f8b000000000000000000000000000000000000000000000000000000008152600481018490529051600092620100009004600160a060020a031691636be60f8b91602480830192602092919082900301818787803b1580156105fd57600080fd5b505af1158015610611573d6000803e3d6000fd5b505050506040513d602081101561062757600080fd5b505192915050565b600360029054906101000a9004600160a060020a0316600160a060020a031663a0355f4e826040518263ffffffff1660e060020a02815260040180828152602001915050600060405180830381600087803b15801561068d57600080fd5b505af11580156106a1573d6000803e3d6000fd5b5050505050565b6000600360029054906101000a9004600160a060020a0316600160a060020a031663dc3addf0868686866040518563ffffffff1660e060020a0281526004018085815260200184815260200183815260200180602001828103825283818151815260200191508051906020019060200280838360005b8381101561073657818101518382015260200161071e565b5050505090500195505050505050602060405180830381600087803b15801561075e57600080fd5b505af1158015610772573d6000803e3d6000fd5b505050506040513d602081101561078857600080fd5b50519594505050505056fea165627a7a72305820af3598af0c4256647b083d7386ca13cfc8a0e998d7e4d744247cd88035ce3b590029",
  "source": "pragma solidity 0.5.2;\n\nimport \"../Product.sol\";\n\ncontract ProductMock is Product {\n    bytes32 public constant NAME = \"ProductMock\";\n    bytes32 public constant POLICY_FLOW = \"PolicyFlowDefault\";\n\n    constructor(address _productController)\n        public\n        Product(_productController, NAME, POLICY_FLOW)\n    {}\n\n    function applyForPolicy(\n        // domain specific\n        // premium\n        uint256 _premium,\n        bytes32 _currency,\n        uint256[] calldata _payoutOptions,\n        // customer\n        bytes32 _customerExternalId\n    ) external {\n        uint256 applicationId = newApplication(\n            _customerExternalId,\n            _premium,\n            _currency,\n            _payoutOptions\n        );\n    }\n\n    function underwriteApplication(uint256 _applicationId) external {\n        underwrite(_applicationId);\n    }\n\n    function delcineApplication(uint256 _applicationId) external {\n        decline(_applicationId);\n    }\n\n    function newClaimTx(uint256 _policyId) external {}\n\n    function confirmClaimTx(uint256 _policyId) external {}\n\n    function expireTx(uint256 _policyId) external {}\n\n    function payoutTx(uint256 _payoutId, uint256 _amount) external {}\n}\n",
  "sourcePath": "/Users/ka/Projects/Altoros/Etherisc/dip-platform/core/gif-contracts/contracts/mocks/ProductMock.sol",
  "compiler": {
    "name": "solc",
    "version": "0.5.2+commit.1df8f40c.Emscripten.clang"
  },
  "schemaVersion": "3.0.1",
  "updatedAt": "2019-02-11T09:37:08.229Z",
  "devdoc": {
    "methods": {}
  },
  "userdoc": {
    "methods": {}
  }
}