{
  "contractName": "ProductOwnerService",
  "abi": [
    {
      "constant": true,
      "inputs": [],
      "name": "NAME",
      "outputs": [
        {
          "name": "",
          "type": "bytes32"
        }
      ],
      "payable": false,
      "stateMutability": "view",
      "type": "function"
    }
  ],
  "bytecode": "0x6080604052348015600f57600080fd5b5060b68061001e6000396000f3fe6080604052348015600f57600080fd5b50600436106045576000357c010000000000000000000000000000000000000000000000000000000090048063a3f4df7e14604a575b600080fd5b60506066565b6040518082815260200191505060405180910390f35b7f50726f647563744f776e657253657276696365000000000000000000000000008156fea165627a7a72305820b07cff37fb4a775095051fd42ae1e05e9c31fce0eb0f398bad4a3d6d87cb57630029",
  "source": "pragma solidity 0.5.2;\n\ncontract ProductOwnerService {\n    bytes32 public constant NAME = \"ProductOwnerService\";\n}\n",
  "sourcePath": "/Users/ka/Projects/Altoros/Etherisc/dip-platform/core/gif-contracts/contracts/services/ProductOwnerService.sol",
  "compiler": {
    "name": "solc",
    "version": "0.5.2+commit.1df8f40c.Emscripten.clang"
  },
  "schemaVersion": "3.0.1",
  "updatedAt": "2019-02-08T13:16:56.063Z",
  "devdoc": {
    "methods": {}
  },
  "userdoc": {
    "methods": {}
  }
}