{
  "contractName": "ProductMock",
  "abi": [
    {
      "constant": true,
      "inputs": [
        {
          "name": "",
          "type": "address"
        }
      ],
      "name": "permissions",
      "outputs": [
        {
          "name": "",
          "type": "uint256"
        }
      ],
      "payable": false,
      "stateMutability": "view",
      "type": "function"
    },
    {
      "constant": true,
      "inputs": [],
      "name": "POLICY_FLOW",
      "outputs": [
        {
          "name": "",
          "type": "bytes32"
        }
      ],
      "payable": false,
      "stateMutability": "view",
      "type": "function"
    },
    {
      "constant": true,
      "inputs": [],
      "name": "maintenanceMode",
      "outputs": [
        {
          "name": "",
          "type": "bool"
        }
      ],
      "payable": false,
      "stateMutability": "view",
      "type": "function"
    },
    {
      "constant": true,
      "inputs": [
        {
          "name": "",
          "type": "uint256"
        }
      ],
      "name": "rolesKeys",
      "outputs": [
        {
          "name": "",
          "type": "bytes32"
        }
      ],
      "payable": false,
      "stateMutability": "view",
      "type": "function"
    },
    {
      "constant": true,
      "inputs": [
        {
          "name": "",
          "type": "bytes32"
        }
      ],
      "name": "roles",
      "outputs": [
        {
          "name": "",
          "type": "uint256"
        }
      ],
      "payable": false,
      "stateMutability": "view",
      "type": "function"
    },
    {
      "constant": true,
      "inputs": [],
      "name": "NAME",
      "outputs": [
        {
          "name": "",
          "type": "bytes32"
        }
      ],
      "payable": false,
      "stateMutability": "view",
      "type": "function"
    },
    {
      "constant": true,
      "inputs": [
        {
          "name": "_address",
          "type": "address"
        },
        {
          "name": "_role",
          "type": "bytes32"
        }
      ],
      "name": "hasRole",
      "outputs": [
        {
          "name": "_hasRole",
          "type": "bool"
        }
      ],
      "payable": false,
      "stateMutability": "view",
      "type": "function"
    },
    {
      "constant": false,
      "inputs": [
        {
          "name": "_address",
          "type": "address"
        },
        {
          "name": "_role",
          "type": "bytes32"
        }
      ],
      "name": "addRoleToAccount",
      "outputs": [],
      "payable": false,
      "stateMutability": "nonpayable",
      "type": "function"
    },
    {
      "constant": true,
      "inputs": [],
      "name": "productService",
      "outputs": [
        {
          "name": "",
          "type": "address"
        }
      ],
      "payable": false,
      "stateMutability": "view",
      "type": "function"
    },
    {
      "constant": false,
      "inputs": [
        {
          "name": "_role",
          "type": "bytes32"
        }
      ],
      "name": "createRole",
      "outputs": [],
      "payable": false,
      "stateMutability": "nonpayable",
      "type": "function"
    },
    {
      "constant": true,
      "inputs": [],
      "name": "developmentMode",
      "outputs": [
        {
          "name": "",
          "type": "bool"
        }
      ],
      "payable": false,
      "stateMutability": "view",
      "type": "function"
    },
    {
      "constant": false,
      "inputs": [
        {
          "name": "_address",
          "type": "address"
        }
      ],
      "name": "cleanRolesForAccount",
      "outputs": [],
      "payable": false,
      "stateMutability": "nonpayable",
      "type": "function"
    },
    {
      "inputs": [
        {
          "name": "_productController",
          "type": "address"
        }
      ],
      "payable": false,
      "stateMutability": "nonpayable",
      "type": "constructor"
    },
    {
      "constant": false,
      "inputs": [
        {
          "name": "_premium",
          "type": "uint256"
        },
        {
          "name": "_currency",
          "type": "bytes32"
        },
        {
          "name": "_payoutOptions",
          "type": "uint256[]"
        },
        {
          "name": "_customerExternalId",
          "type": "bytes32"
        }
      ],
      "name": "applyForPolicy",
      "outputs": [],
      "payable": false,
      "stateMutability": "nonpayable",
      "type": "function"
    },
    {
      "constant": false,
      "inputs": [
        {
          "name": "_applicationId",
          "type": "uint256"
        }
      ],
      "name": "underwriteApplication",
      "outputs": [],
      "payable": false,
      "stateMutability": "nonpayable",
      "type": "function"
    },
    {
      "constant": false,
      "inputs": [
        {
          "name": "_applicationId",
          "type": "uint256"
        }
      ],
      "name": "delcineApplication",
      "outputs": [],
      "payable": false,
      "stateMutability": "nonpayable",
      "type": "function"
    },
    {
      "constant": false,
      "inputs": [
        {
          "name": "_policyId",
          "type": "uint256"
        }
      ],
      "name": "newClaimTx",
      "outputs": [],
      "payable": false,
      "stateMutability": "nonpayable",
      "type": "function"
    },
    {
      "constant": false,
      "inputs": [
        {
          "name": "_policyId",
          "type": "uint256"
        }
      ],
      "name": "confirmClaimTx",
      "outputs": [],
      "payable": false,
      "stateMutability": "nonpayable",
      "type": "function"
    },
    {
      "constant": false,
      "inputs": [
        {
          "name": "_policyId",
          "type": "uint256"
        }
      ],
      "name": "expireTx",
      "outputs": [],
      "payable": false,
      "stateMutability": "nonpayable",
      "type": "function"
    },
    {
      "constant": false,
      "inputs": [
        {
          "name": "_payoutId",
          "type": "uint256"
        },
        {
          "name": "_amount",
          "type": "uint256"
        }
      ],
      "name": "payoutTx",
      "outputs": [],
      "payable": false,
      "stateMutability": "nonpayable",
      "type": "function"
    }
  ],
  "bytecode": "0x60806040526000600360006101000a81548160ff0219169083151502179055506000600360016101000a81548160ff02191690831515021790555034801561004657600080fd5b50604051602080610de38339810180604052602081101561006657600080fd5b8101908080519060200190929190505050807f50726f647563744d6f636b0000000000000000000000000000000000000000007f506f6c696379466c6f7744656661756c7400000000000000000000000000000082600360026101000a81548173ffffffffffffffffffffffffffffffffffffffff021916908373ffffffffffffffffffffffffffffffffffffffff160217905550610114828261011d640100000000026401000000009004565b505050506101f6565b600360029054906101000a900473ffffffffffffffffffffffffffffffffffffffff1673ffffffffffffffffffffffffffffffffffffffff16632f92673283836040518363ffffffff167c01000000000000000000000000000000000000000000000000000000000281526004018083815260200182815260200192505050602060405180830381600087803b1580156101b657600080fd5b505af11580156101ca573d6000803e3d6000fd5b505050506040513d60208110156101e057600080fd5b8101908080519060200190929190505050505050565b610bde806102056000396000f3fe608060405234801561001057600080fd5b506004361061013e576000357c01000000000000000000000000000000000000000000000000000000009004806395356651116100ca578063c37d45bf1161008e578063c37d45bf146104b8578063c42994a214610502578063d6fcaf4014610530578063f566e10e14610552578063fbbb3bdd146105965761013e565b8063953566511461030d578063a2949bdc1461034f578063a3f4df7e146103e6578063ac4ab3fb14610404578063c2e867351461046a5761013e565b80632cf88d9e116101115780632cf88d9e146102135780635ecdaffb1461025557806363074b4b146102835780637bf11fdd146102b15780638d35fe2f146102df5761013e565b806301e882081461014357806309128d831461019b57806314f57330146101b957806325dce0a6146101f1575b600080fd5b6101856004803603602081101561015957600080fd5b81019080803573ffffffffffffffffffffffffffffffffffffffff1690602001909291905050506105c4565b6040518082815260200191505060405180910390f35b6101a36105dc565b6040518082815260200191505060405180910390f35b6101ef600480360360408110156101cf57600080fd5b810190808035906020019092919080359060200190929190505050610600565b005b6101f9610604565b604051808215151515815260200191505060405180910390f35b61023f6004803603602081101561022957600080fd5b8101908080359060200190929190505050610617565b6040518082815260200191505060405180910390f35b6102816004803603602081101561026b57600080fd5b810190808035906020019092919050505061063a565b005b6102af6004803603602081101561029957600080fd5b8101908080359060200190929190505050610647565b005b6102dd600480360360208110156102c757600080fd5b8101908080359060200190929190505050610653565b005b61030b600480360360208110156102f557600080fd5b8101908080359060200190929190505050610656565b005b6103396004803603602081101561032357600080fd5b8101908080359060200190929190505050610659565b6040518082815260200191505060405180910390f35b6103e46004803603608081101561036557600080fd5b8101908080359060200190929190803590602001909291908035906020019064010000000081111561039657600080fd5b8201836020820111156103a857600080fd5b803590602001918460208302840111640100000000831117156103ca57600080fd5b909192939192939080359060200190929190505050610671565b005b6103ee6106ca565b6040518082815260200191505060405180910390f35b6104506004803603604081101561041a57600080fd5b81019080803573ffffffffffffffffffffffffffffffffffffffff169060200190929190803590602001909291905050506106ee565b604051808215151515815260200191505060405180910390f35b6104b66004803603604081101561048057600080fd5b81019080803573ffffffffffffffffffffffffffffffffffffffff1690602001909291908035906020019092919050505061074e565b005b6104c061080b565b604051808273ffffffffffffffffffffffffffffffffffffffff1673ffffffffffffffffffffffffffffffffffffffff16815260200191505060405180910390f35b61052e6004803603602081101561051857600080fd5b8101908080359060200190929190505050610831565b005b6105386108a4565b604051808215151515815260200191505060405180910390f35b6105946004803603602081101561056857600080fd5b81019080803573ffffffffffffffffffffffffffffffffffffffff1690602001909291905050506108b7565b005b6105c2600480360360208110156105ac57600080fd5b81019080803590602001909291905050506108fd565b005b60026020528060005260406000206000915090505481565b7f506f6c696379466c6f7744656661756c7400000000000000000000000000000081565b5050565b600360019054906101000a900460ff1681565b60018181548110151561062657fe5b906000526020600020016000915090505481565b61064381610900565b5050565b610650816109d5565b50565b50565b50565b60006020528060005260406000206000915090505481565b60006106c0828787878780806020026020016040519081016040528093929190818152602001838360200280828437600081840152601f19601f82011690508083019250505050505050610a81565b9050505050505050565b7f50726f647563744d6f636b00000000000000000000000000000000000000000081565b60008060008084815260200190815260200160002054600260008673ffffffffffffffffffffffffffffffffffffffff1673ffffffffffffffffffffffffffffffffffffffff168152602001908152602001600020541611905092915050565b6000806000838152602001908152602001600020541415151561077057600080fd5b60008082815260200190815260200160002054600260008473ffffffffffffffffffffffffffffffffffffffff1673ffffffffffffffffffffffffffffffffffffffff1681526020019081526020016000205417600260008473ffffffffffffffffffffffffffffffffffffffff1673ffffffffffffffffffffffffffffffffffffffff168152602001908152602001600020819055505050565b600360029054906101000a900473ffffffffffffffffffffffffffffffffffffffff1681565b60008060008381526020019081526020016000205414151561085257600080fd5b60018054905060019060020a0260008083815260200190815260200160002081905550600181908060018154018082558091505090600182039060005260206000200160009091929091909150555050565b600360009054906101000a900460ff1681565b600260008273ffffffffffffffffffffffffffffffffffffffff1673ffffffffffffffffffffffffffffffffffffffff1681526020019081526020016000206000905550565b50565b6000600360029054906101000a900473ffffffffffffffffffffffffffffffffffffffff1673ffffffffffffffffffffffffffffffffffffffff16636be60f8b836040518263ffffffff167c010000000000000000000000000000000000000000000000000000000002815260040180828152602001915050602060405180830381600087803b15801561099357600080fd5b505af11580156109a7573d6000803e3d6000fd5b505050506040513d60208110156109bd57600080fd5b81019080805190602001909291905050509050919050565b600360029054906101000a900473ffffffffffffffffffffffffffffffffffffffff1673ffffffffffffffffffffffffffffffffffffffff1663a0355f4e826040518263ffffffff167c010000000000000000000000000000000000000000000000000000000002815260040180828152602001915050600060405180830381600087803b158015610a6657600080fd5b505af1158015610a7a573d6000803e3d6000fd5b5050505050565b6000600360029054906101000a900473ffffffffffffffffffffffffffffffffffffffff1673ffffffffffffffffffffffffffffffffffffffff1663dc3addf0868686866040518563ffffffff167c01000000000000000000000000000000000000000000000000000000000281526004018085815260200184815260200183815260200180602001828103825283818151815260200191508051906020019060200280838360005b83811015610b45578082015181840152602081019050610b2a565b5050505090500195505050505050602060405180830381600087803b158015610b6d57600080fd5b505af1158015610b81573d6000803e3d6000fd5b505050506040513d6020811015610b9757600080fd5b8101908080519060200190929190505050905094935050505056fea165627a7a72305820789f0fa16b2c25bb494558ad3a010685d2b9e7819425369899708aa8859e5cda0029",
  "source": "pragma solidity 0.5.2;\n\nimport \"../Product.sol\";\n\ncontract ProductMock is Product {\n\n    bytes32 constant public NAME = \"ProductMock\";\n    bytes32 constant public POLICY_FLOW = \"PolicyFlowDefault\";\n\n    constructor(address _productController)\n    public\n    Product(_productController, NAME, POLICY_FLOW)\n    {}\n\n    function applyForPolicy(\n        // domain specific\n        // premium\n        uint256 _premium,\n        bytes32 _currency,\n        uint256[] calldata _payoutOptions,\n        // customer\n        bytes32 _customerExternalId\n    ) external {\n        uint256 applicationId = newApplication(\n            _customerExternalId,\n            _premium,\n            _currency,\n            _payoutOptions\n        );\n    }\n\n    function underwriteApplication(uint256 _applicationId) external {\n        underwrite(_applicationId);\n    }\n\n    function delcineApplication(uint256 _applicationId) external {\n        decline(_applicationId);\n    }\n\n    function newClaimTx(uint256 _policyId) external {\n\n    }\n\n    function confirmClaimTx(uint256 _policyId) external {\n\n    }\n\n    function expireTx(uint256 _policyId) external {\n\n    }\n\n    function payoutTx(uint256 _payoutId, uint256 _amount) external {\n\n    }\n}\n\n",
  "sourcePath": "/Users/ka/Projects/Altoros/Etherisc/dip-platform/core/gif-contracts/contracts/mocks/ProductMock.sol",
  "compiler": {
    "name": "solc",
    "version": "0.5.2+commit.1df8f40c.Emscripten.clang"
  },
  "schemaVersion": "3.0.1",
  "updatedAt": "2019-02-08T13:16:56.028Z",
  "devdoc": {
    "methods": {}
  },
  "userdoc": {
    "methods": {}
  }
}