{
  "contractName": "QueryStorageModel",
  "abi": [
    {
      "constant": true,
      "inputs": [
        {
          "name": "",
          "type": "uint256"
        },
        {
          "name": "",
          "type": "uint256"
        }
      ],
      "name": "assignedOracleTypes",
      "outputs": [
        {
          "name": "",
          "type": "bytes32"
        }
      ],
      "payable": false,
      "stateMutability": "view",
      "type": "function"
    },
    {
      "constant": true,
      "inputs": [
        {
          "name": "",
          "type": "uint256"
        }
      ],
      "name": "oracles",
      "outputs": [
        {
          "name": "oracleOwner",
          "type": "address"
        },
        {
          "name": "oracleContract",
          "type": "address"
        },
        {
          "name": "description",
          "type": "string"
        },
        {
          "name": "state",
          "type": "uint8"
        }
      ],
      "payable": false,
      "stateMutability": "view",
      "type": "function"
    },
    {
      "constant": true,
      "inputs": [
        {
          "name": "",
          "type": "uint256"
        }
      ],
      "name": "oracleRequests",
      "outputs": [
        {
          "name": "data",
          "type": "bytes"
        },
        {
          "name": "callbackMethodName",
          "type": "string"
        },
        {
          "name": "callbackContractAddress",
          "type": "address"
        },
        {
          "name": "oracleTypeName",
          "type": "bytes32"
        },
        {
          "name": "responsibleOracleId",
          "type": "uint256"
        },
        {
          "name": "createdAt",
          "type": "uint256"
        }
      ],
      "payable": false,
      "stateMutability": "view",
      "type": "function"
    },
    {
      "constant": true,
      "inputs": [
        {
          "name": "",
          "type": "bytes32"
        },
        {
          "name": "",
          "type": "uint256"
        }
      ],
      "name": "proposedOracleIds",
      "outputs": [
        {
          "name": "",
          "type": "uint256"
        }
      ],
      "payable": false,
      "stateMutability": "view",
      "type": "function"
    },
    {
      "constant": true,
      "inputs": [],
      "name": "oracleIdIncrement",
      "outputs": [
        {
          "name": "",
          "type": "uint256"
        }
      ],
      "payable": false,
      "stateMutability": "view",
      "type": "function"
    },
    {
      "constant": true,
      "inputs": [
        {
          "name": "",
          "type": "bytes32"
        }
      ],
      "name": "oracleTypes",
      "outputs": [
        {
          "name": "inputFormat",
          "type": "string"
        },
        {
          "name": "callbackFormat",
          "type": "string"
        },
        {
          "name": "description",
          "type": "string"
        },
        {
          "name": "state",
          "type": "uint8"
        },
        {
          "name": "initialized",
          "type": "bool"
        }
      ],
      "payable": false,
      "stateMutability": "view",
      "type": "function"
    },
    {
      "constant": true,
      "inputs": [
        {
          "name": "",
          "type": "bytes32"
        },
        {
          "name": "",
          "type": "uint256"
        }
      ],
      "name": "assignedOracles",
      "outputs": [
        {
          "name": "",
          "type": "bool"
        }
      ],
      "payable": false,
      "stateMutability": "view",
      "type": "function"
    },
    {
      "constant": true,
      "inputs": [
        {
          "name": "",
          "type": "bytes32"
        },
        {
          "name": "",
          "type": "uint256"
        }
      ],
      "name": "assignedOraclesIds",
      "outputs": [
        {
          "name": "",
          "type": "uint256"
        }
      ],
      "payable": false,
      "stateMutability": "view",
      "type": "function"
    },
    {
      "constant": true,
      "inputs": [
        {
          "name": "",
          "type": "address"
        }
      ],
      "name": "oracleIdByAddress",
      "outputs": [
        {
          "name": "",
          "type": "uint256"
        }
      ],
      "payable": false,
      "stateMutability": "view",
      "type": "function"
    },
    {
      "constant": true,
      "inputs": [
        {
          "name": "",
          "type": "uint256"
        }
      ],
      "name": "oracleResponses",
      "outputs": [
        {
          "name": "requestId",
          "type": "uint256"
        },
        {
          "name": "responder",
          "type": "address"
        },
        {
          "name": "createdAt",
          "type": "uint256"
        },
        {
          "name": "status",
          "type": "bool"
        }
      ],
      "payable": false,
      "stateMutability": "view",
      "type": "function"
    },
    {
      "anonymous": false,
      "inputs": [
        {
          "indexed": false,
          "name": "oracleTypeName",
          "type": "bytes32"
        },
        {
          "indexed": false,
          "name": "inputFormat",
          "type": "string"
        },
        {
          "indexed": false,
          "name": "callbackFormat",
          "type": "string"
        },
        {
          "indexed": false,
          "name": "description",
          "type": "string"
        }
      ],
      "name": "LogOracleTypeProposed",
      "type": "event"
    },
    {
      "anonymous": false,
      "inputs": [
        {
          "indexed": false,
          "name": "oracleTypeName",
          "type": "bytes32"
        }
      ],
      "name": "LogOracleTypeActivated",
      "type": "event"
    },
    {
      "anonymous": false,
      "inputs": [
        {
          "indexed": false,
          "name": "oracleTypeName",
          "type": "bytes32"
        }
      ],
      "name": "LogOracleTypeDeactivated",
      "type": "event"
    },
    {
      "anonymous": false,
      "inputs": [
        {
          "indexed": false,
          "name": "oracleTypeName",
          "type": "bytes32"
        }
      ],
      "name": "LogOracleTypeRemoved",
      "type": "event"
    },
    {
      "anonymous": false,
      "inputs": [
        {
          "indexed": false,
          "name": "oracleContract",
          "type": "address"
        },
        {
          "indexed": false,
          "name": "description",
          "type": "string"
        }
      ],
      "name": "LogOracleProposed",
      "type": "event"
    },
    {
      "anonymous": false,
      "inputs": [
        {
          "indexed": false,
          "name": "oracleId",
          "type": "uint256"
        },
        {
          "indexed": false,
          "name": "prevContract",
          "type": "address"
        },
        {
          "indexed": false,
          "name": "nextContract",
          "type": "address"
        }
      ],
      "name": "LogOracleContractUpdated",
      "type": "event"
    },
    {
      "anonymous": false,
      "inputs": [
        {
          "indexed": false,
          "name": "oracleId",
          "type": "uint256"
        }
      ],
      "name": "LogOracleActivated",
      "type": "event"
    },
    {
      "anonymous": false,
      "inputs": [
        {
          "indexed": false,
          "name": "oracleId",
          "type": "uint256"
        }
      ],
      "name": "LogOracleDeactivated",
      "type": "event"
    },
    {
      "anonymous": false,
      "inputs": [
        {
          "indexed": false,
          "name": "oracleId",
          "type": "uint256"
        }
      ],
      "name": "LogOracleRemoved",
      "type": "event"
    },
    {
      "anonymous": false,
      "inputs": [
        {
          "indexed": false,
          "name": "oracleTypeName",
          "type": "bytes32"
        },
        {
          "indexed": false,
          "name": "oracleId",
          "type": "uint256"
        },
        {
          "indexed": false,
          "name": "proposalId",
          "type": "uint256"
        }
      ],
      "name": "LogOracleProposedToType",
      "type": "event"
    },
    {
      "anonymous": false,
      "inputs": [
        {
          "indexed": false,
          "name": "oracleId",
          "type": "uint256"
        },
        {
          "indexed": false,
          "name": "oracleTypeId",
          "type": "uint256"
        },
        {
          "indexed": false,
          "name": "price",
          "type": "uint256"
        }
      ],
      "name": "LogOraclePriceUpdatedInType",
      "type": "event"
    },
    {
      "anonymous": false,
      "inputs": [
        {
          "indexed": false,
          "name": "oracleTypeName",
          "type": "bytes32"
        },
        {
          "indexed": false,
          "name": "oracleId",
          "type": "uint256"
        },
        {
          "indexed": false,
          "name": "proposalId",
          "type": "uint256"
        }
      ],
      "name": "LogOracleToTypeProposalRevoked",
      "type": "event"
    },
    {
      "anonymous": false,
      "inputs": [
        {
          "indexed": false,
          "name": "oracleTypeName",
          "type": "bytes32"
        },
        {
          "indexed": false,
          "name": "oracleId",
          "type": "uint256"
        }
      ],
      "name": "LogOracleAssignedToOracleType",
      "type": "event"
    },
    {
      "anonymous": false,
      "inputs": [
        {
          "indexed": false,
          "name": "oracleTypeName",
          "type": "bytes32"
        },
        {
          "indexed": false,
          "name": "oracleId",
          "type": "uint256"
        }
      ],
      "name": "LogOracleRemovedFromOracleType",
      "type": "event"
    },
    {
      "anonymous": false,
      "inputs": [
        {
          "indexed": false,
          "name": "requestId",
          "type": "uint256"
        },
        {
          "indexed": false,
          "name": "responsibleOracleId",
          "type": "uint256"
        }
      ],
      "name": "LogOracleRequested",
      "type": "event"
    },
    {
      "anonymous": false,
      "inputs": [
        {
          "indexed": false,
          "name": "requestId",
          "type": "uint256"
        },
        {
          "indexed": false,
          "name": "responseId",
          "type": "uint256"
        },
        {
          "indexed": false,
          "name": "responder",
          "type": "address"
        },
        {
          "indexed": false,
          "name": "status",
          "type": "bool"
        }
      ],
      "name": "LogOracleResponded",
      "type": "event"
    }
  ],
  "bytecode": "0x608060405234801561001057600080fd5b50610d4a806100206000396000f3fe608060405234801561001057600080fd5b50600436106100bb576000357c010000000000000000000000000000000000000000000000000000000090048063ac867b3c11610083578063ac867b3c146103f3578063df5fd4ac14610592578063e12f32e6146105e2578063e27976061461062e578063e46d225014610686576100bb565b806301146351146100c05780635b69a7d81461010c5780635f5369e61461022e57806382df834d14610389578063a0eae17b146103d5575b600080fd5b6100f6600480360360408110156100d657600080fd5b81019080803590602001909291908035906020019092919050505061070d565b6040518082815260200191505060405180910390f35b6101386004803603602081101561012257600080fd5b810190808035906020019092919050505061073d565b604051808573ffffffffffffffffffffffffffffffffffffffff1673ffffffffffffffffffffffffffffffffffffffff1681526020018473ffffffffffffffffffffffffffffffffffffffff1673ffffffffffffffffffffffffffffffffffffffff168152602001806020018360018111156101b057fe5b60ff168152602001828103825284818151815260200191508051906020019080838360005b838110156101f05780820151818401526020810190506101d5565b50505050905090810190601f16801561021d5780820380516001836020036101000a031916815260200191505b509550505050505060405180910390f35b61025a6004803603602081101561024457600080fd5b8101908080359060200190929190505050610852565b6040518080602001806020018773ffffffffffffffffffffffffffffffffffffffff1673ffffffffffffffffffffffffffffffffffffffff168152602001868152602001858152602001848152602001838103835289818151815260200191508051906020019080838360005b838110156102e25780820151818401526020810190506102c7565b50505050905090810190601f16801561030f5780820380516001836020036101000a031916815260200191505b50838103825288818151815260200191508051906020019080838360005b8381101561034857808201518184015260208101905061032d565b50505050905090810190601f1680156103755780820380516001836020036101000a031916815260200191505b509850505050505050505060405180910390f35b6103bf6004803603604081101561039f57600080fd5b8101908080359060200190929190803590602001909291905050506109ed565b6040518082815260200191505060405180910390f35b6103dd610a1d565b6040518082815260200191505060405180910390f35b61041f6004803603602081101561040957600080fd5b8101908080359060200190929190505050610a23565b6040518080602001806020018060200186600181111561043b57fe5b60ff16815260200185151515158152602001848103845289818151815260200191508051906020019080838360005b8381101561048557808201518184015260208101905061046a565b50505050905090810190601f1680156104b25780820380516001836020036101000a031916815260200191505b50848103835288818151815260200191508051906020019080838360005b838110156104eb5780820151818401526020810190506104d0565b50505050905090810190601f1680156105185780820380516001836020036101000a031916815260200191505b50848103825287818151815260200191508051906020019080838360005b83811015610551578082015181840152602081019050610536565b50505050905090810190601f16801561057e5780820380516001836020036101000a031916815260200191505b509850505050505050505060405180910390f35b6105c8600480360360408110156105a857600080fd5b810190808035906020019092919080359060200190929190505050610c3b565b604051808215151515815260200191505060405180910390f35b610618600480360360408110156105f857600080fd5b810190808035906020019092919080359060200190929190505050610c6a565b6040518082815260200191505060405180910390f35b6106706004803603602081101561064457600080fd5b81019080803573ffffffffffffffffffffffffffffffffffffffff169060200190929190505050610c9a565b6040518082815260200191505060405180910390f35b6106b26004803603602081101561069c57600080fd5b8101908080359060200190929190505050610cb2565b604051808581526020018473ffffffffffffffffffffffffffffffffffffffff1673ffffffffffffffffffffffffffffffffffffffff1681526020018381526020018215151515815260200194505050505060405180910390f35b60066020528160005260406000208181548110151561072857fe5b90600052602060002001600091509150505481565b60046020528060005260406000206000915090508060000160009054906101000a900473ffffffffffffffffffffffffffffffffffffffff16908060010160009054906101000a900473ffffffffffffffffffffffffffffffffffffffff1690806002018054600181600116156101000203166002900480601f0160208091040260200160405190810160405280929190818152602001828054600181600116156101000203166002900480156108355780601f1061080a57610100808354040283529160200191610835565b820191906000526020600020905b81548152906001019060200180831161081857829003601f168201915b5050505050908060030160009054906101000a900460ff16905084565b60088181548110151561086157fe5b9060005260206000209060060201600091509050806000018054600181600116156101000203166002900480601f01602080910402602001604051908101604052809291908181526020018280546001816001161561010002031660029004801561090d5780601f106108e25761010080835404028352916020019161090d565b820191906000526020600020905b8154815290600101906020018083116108f057829003601f168201915b505050505090806001018054600181600116156101000203166002900480601f0160208091040260200160405190810160405280929190818152602001828054600181600116156101000203166002900480156109ab5780601f10610980576101008083540402835291602001916109ab565b820191906000526020600020905b81548152906001019060200180831161098e57829003601f168201915b5050505050908060020160009054906101000a900473ffffffffffffffffffffffffffffffffffffffff16908060030154908060040154908060050154905086565b600360205281600052604060002081815481101515610a0857fe5b90600052602060002001600091509150505481565b60075481565b6000602052806000526040600020600091509050806000018054600181600116156101000203166002900480601f016020809104026020016040519081016040528092919081815260200182805460018160011615610100020316600290048015610acf5780601f10610aa457610100808354040283529160200191610acf565b820191906000526020600020905b815481529060010190602001808311610ab257829003601f168201915b505050505090806001018054600181600116156101000203166002900480601f016020809104026020016040519081016040528092919081815260200182805460018160011615610100020316600290048015610b6d5780601f10610b4257610100808354040283529160200191610b6d565b820191906000526020600020905b815481529060010190602001808311610b5057829003601f168201915b505050505090806002018054600181600116156101000203166002900480601f016020809104026020016040519081016040528092919081815260200182805460018160011615610100020316600290048015610c0b5780601f10610be057610100808354040283529160200191610c0b565b820191906000526020600020905b815481529060010190602001808311610bee57829003601f168201915b5050505050908060030160009054906101000a900460ff16908060030160019054906101000a900460ff16905085565b60016020528160005260406000206020528060005260406000206000915091509054906101000a900460ff1681565b600260205281600052604060002081815481101515610c8557fe5b90600052602060002001600091509150505481565b60056020528060005260406000206000915090505481565b600981815481101515610cc157fe5b90600052602060002090600402016000915090508060000154908060010160009054906101000a900473ffffffffffffffffffffffffffffffffffffffff16908060020154908060030160009054906101000a900460ff1690508456fea165627a7a72305820d05d3b8c5b3c9baba614c677c2d78a34820760c163bf86c24983cbd0c1af502b0029",
  "source": "pragma solidity 0.5.2;\n\nimport \"./IQuery.sol\";\n\ncontract QueryStorageModel is IQuery {\n//    // Proposals\n//\n//    // Oracle types\n//    mapping(bytes32 => OracleType) public oracleTypes;\n//    mapping(bytes32 => OracleTypeMetadata) public oracleTypesMetadata;\n//    mapping(bytes32 => uint256[]) public assignedOracles;\n//\n//    // Oracles\n//    Oracle[] public oracles;\n//    mapping(uint256 => uint256[]) public assignedOracleTypes;\n//    mapping(address => uint256) public oraclesIndexes;\n//\n//    // Requests\n//    OracleRequest[] public oracleRequests;\n//\n//    // Respones\n//    OracleResponse[] public oracleResponses;\n\n\n    /////////////////////////////////////////\n\n//\n//    mapping(address => Oracle) public oracles;\n//    mapping(uint256 => address) public oracleIds;\n//    mapping(uint256 => uint256[]) public assignedOracleTypes;\n//    uint256 oracleIdCounter;\n\n    // Oracle types\n    mapping(bytes32 => OracleType) public oracleTypes;\n    mapping(bytes32 => mapping(uint256 => bool)) public assignedOracles;\n    mapping(bytes32 => uint256[]) public assignedOraclesIds;\n    mapping(bytes32 => uint256[]) public proposedOracleIds;\n\n    // Oracles\n    mapping(uint256 => Oracle) public oracles;\n    mapping(address => uint256) public oracleIdByAddress;\n    mapping(uint256 => bytes32[]) public assignedOracleTypes;\n    uint256 public oracleIdIncrement;\n\n    // Requests\n    OracleRequest[] public oracleRequests;\n\n    // Responses\n    OracleResponse[] public oracleResponses;\n}\n",
  "sourcePath": "/Users/ka/Projects/Altoros/Etherisc/dip-platform/core/gif-contracts/contracts/modules/query/QueryStorageModel.sol",
  "compiler": {
    "name": "solc",
    "version": "0.5.2+commit.1df8f40c.Emscripten.clang"
  },
  "schemaVersion": "3.0.1",
  "updatedAt": "2019-02-08T13:16:56.056Z",
  "devdoc": {
    "methods": {}
  },
  "userdoc": {
    "methods": {}
  }
}