{
  "contractName": "QueryController",
  "abi": [
    {
      "constant": true,
      "inputs": [
        {
          "name": "",
          "type": "uint256"
        },
        {
          "name": "",
          "type": "uint256"
        }
      ],
      "name": "assignedOracleTypes",
      "outputs": [
        {
          "name": "",
          "type": "bytes32"
        }
      ],
      "payable": false,
      "stateMutability": "view",
      "type": "function",
      "signature": "0x01146351"
    },
    {
      "constant": false,
      "inputs": [
        {
          "name": "_registry",
          "type": "address"
        }
      ],
      "name": "assignRegistry",
      "outputs": [],
      "payable": false,
      "stateMutability": "nonpayable",
      "type": "function",
      "signature": "0x51b68ee4"
    },
    {
      "constant": true,
      "inputs": [
        {
          "name": "",
          "type": "uint256"
        }
      ],
      "name": "oracles",
      "outputs": [
        {
          "name": "oracleOwner",
          "type": "address"
        },
        {
          "name": "oracleContract",
          "type": "address"
        },
        {
          "name": "description",
          "type": "string"
        },
        {
          "name": "state",
          "type": "uint8"
        }
      ],
      "payable": false,
      "stateMutability": "view",
      "type": "function",
      "signature": "0x5b69a7d8"
    },
    {
      "constant": true,
      "inputs": [
        {
          "name": "",
          "type": "uint256"
        }
      ],
      "name": "oracleRequests",
      "outputs": [
        {
          "name": "data",
          "type": "bytes"
        },
        {
          "name": "callbackMethodName",
          "type": "string"
        },
        {
          "name": "callbackContractAddress",
          "type": "address"
        },
        {
          "name": "oracleTypeName",
          "type": "bytes32"
        },
        {
          "name": "responsibleOracleId",
          "type": "uint256"
        },
        {
          "name": "createdAt",
          "type": "uint256"
        }
      ],
      "payable": false,
      "stateMutability": "view",
      "type": "function",
      "signature": "0x5f5369e6"
    },
    {
      "constant": true,
      "inputs": [],
      "name": "registry",
      "outputs": [
        {
          "name": "",
          "type": "address"
        }
      ],
      "payable": false,
      "stateMutability": "view",
      "type": "function",
      "signature": "0x7b103999"
    },
    {
      "constant": true,
      "inputs": [
        {
          "name": "",
          "type": "bytes32"
        },
        {
          "name": "",
          "type": "uint256"
        }
      ],
      "name": "proposedOracleIds",
      "outputs": [
        {
          "name": "",
          "type": "uint256"
        }
      ],
      "payable": false,
      "stateMutability": "view",
      "type": "function",
      "signature": "0x82df834d"
    },
    {
      "constant": true,
      "inputs": [],
      "name": "oracleIdIncrement",
      "outputs": [
        {
          "name": "",
          "type": "uint256"
        }
      ],
      "payable": false,
      "stateMutability": "view",
      "type": "function",
      "signature": "0xa0eae17b"
    },
    {
      "constant": true,
      "inputs": [
        {
          "name": "",
          "type": "bytes32"
        }
      ],
      "name": "oracleTypes",
      "outputs": [
        {
          "name": "inputFormat",
          "type": "string"
        },
        {
          "name": "callbackFormat",
          "type": "string"
        },
        {
          "name": "description",
          "type": "string"
        },
        {
          "name": "state",
          "type": "uint8"
        },
        {
          "name": "initialized",
          "type": "bool"
        }
      ],
      "payable": false,
      "stateMutability": "view",
      "type": "function",
      "signature": "0xac867b3c"
    },
    {
      "constant": true,
      "inputs": [],
      "name": "delegator",
      "outputs": [
        {
          "name": "",
          "type": "address"
        }
      ],
      "payable": false,
      "stateMutability": "view",
      "type": "function",
      "signature": "0xce9b7930"
    },
    {
      "constant": true,
      "inputs": [
        {
          "name": "_contractName",
          "type": "bytes32"
        }
      ],
      "name": "getService",
      "outputs": [
        {
          "name": "_addr",
          "type": "address"
        }
      ],
      "payable": false,
      "stateMutability": "view",
      "type": "function",
      "signature": "0xda47d856"
    },
    {
      "constant": true,
      "inputs": [
        {
          "name": "",
          "type": "bytes32"
        },
        {
          "name": "",
          "type": "uint256"
        }
      ],
      "name": "assignedOracles",
      "outputs": [
        {
          "name": "",
          "type": "bool"
        }
      ],
      "payable": false,
      "stateMutability": "view",
      "type": "function",
      "signature": "0xdf5fd4ac"
    },
    {
      "constant": true,
      "inputs": [
        {
          "name": "",
          "type": "bytes32"
        },
        {
          "name": "",
          "type": "uint256"
        }
      ],
      "name": "assignedOraclesIds",
      "outputs": [
        {
          "name": "",
          "type": "uint256"
        }
      ],
      "payable": false,
      "stateMutability": "view",
      "type": "function",
      "signature": "0xe12f32e6"
    },
    {
      "constant": true,
      "inputs": [
        {
          "name": "_contractName",
          "type": "bytes32"
        }
      ],
      "name": "getContract",
      "outputs": [
        {
          "name": "_addr",
          "type": "address"
        }
      ],
      "payable": false,
      "stateMutability": "view",
      "type": "function",
      "signature": "0xe16c7d98"
    },
    {
      "constant": true,
      "inputs": [
        {
          "name": "",
          "type": "address"
        }
      ],
      "name": "oracleIdByAddress",
      "outputs": [
        {
          "name": "",
          "type": "uint256"
        }
      ],
      "payable": false,
      "stateMutability": "view",
      "type": "function",
      "signature": "0xe2797606"
    },
    {
      "constant": true,
      "inputs": [
        {
          "name": "",
          "type": "uint256"
        }
      ],
      "name": "oracleResponses",
      "outputs": [
        {
          "name": "requestId",
          "type": "uint256"
        },
        {
          "name": "responder",
          "type": "address"
        },
        {
          "name": "createdAt",
          "type": "uint256"
        },
        {
          "name": "status",
          "type": "bool"
        }
      ],
      "payable": false,
      "stateMutability": "view",
      "type": "function",
      "signature": "0xe46d2250"
    },
    {
      "constant": false,
      "inputs": [
        {
          "name": "_storage",
          "type": "address"
        }
      ],
      "name": "assignStorage",
      "outputs": [],
      "payable": false,
      "stateMutability": "nonpayable",
      "type": "function",
      "signature": "0xe71359bf"
    },
    {
      "inputs": [
        {
          "name": "_registry",
          "type": "address"
        }
      ],
      "payable": false,
      "stateMutability": "nonpayable",
      "type": "constructor",
      "signature": "constructor"
    },
    {
      "payable": false,
      "stateMutability": "nonpayable",
      "type": "fallback"
    },
    {
      "anonymous": false,
      "inputs": [
        {
          "indexed": false,
          "name": "oracleTypeName",
          "type": "bytes32"
        },
        {
          "indexed": false,
          "name": "inputFormat",
          "type": "string"
        },
        {
          "indexed": false,
          "name": "callbackFormat",
          "type": "string"
        },
        {
          "indexed": false,
          "name": "description",
          "type": "string"
        }
      ],
      "name": "LogOracleTypeProposed",
      "type": "event",
      "signature": "0xf8f6a590e9dbba446d8a0df812c416b6ee2ae769a44d6ca77b6e0f1874392da3"
    },
    {
      "anonymous": false,
      "inputs": [
        {
          "indexed": false,
          "name": "oracleTypeName",
          "type": "bytes32"
        }
      ],
      "name": "LogOracleTypeActivated",
      "type": "event",
      "signature": "0x5ebe72de9c701722bbf81673ee9151676f1f0dca63bc59277f8552b2e7e94754"
    },
    {
      "anonymous": false,
      "inputs": [
        {
          "indexed": false,
          "name": "oracleTypeName",
          "type": "bytes32"
        }
      ],
      "name": "LogOracleTypeDeactivated",
      "type": "event",
      "signature": "0x382a65e68aad7f96cc3ccc10be93d92e5365de2424d3ee6ea4145e30b2e4d3d2"
    },
    {
      "anonymous": false,
      "inputs": [
        {
          "indexed": false,
          "name": "oracleTypeName",
          "type": "bytes32"
        }
      ],
      "name": "LogOracleTypeRemoved",
      "type": "event",
      "signature": "0x57a6ff63d4d6cb402a72f21517371a62f8f2870d525cf45508b63f6d268b2523"
    },
    {
      "anonymous": false,
      "inputs": [
        {
          "indexed": false,
          "name": "oracleContract",
          "type": "address"
        },
        {
          "indexed": false,
          "name": "description",
          "type": "string"
        }
      ],
      "name": "LogOracleProposed",
      "type": "event",
      "signature": "0xf01fac3e5259db92d8581b7be73ba122e7703bd52b2e314ac5b0723736ca0813"
    },
    {
      "anonymous": false,
      "inputs": [
        {
          "indexed": false,
          "name": "oracleId",
          "type": "uint256"
        },
        {
          "indexed": false,
          "name": "prevContract",
          "type": "address"
        },
        {
          "indexed": false,
          "name": "nextContract",
          "type": "address"
        }
      ],
      "name": "LogOracleContractUpdated",
      "type": "event",
      "signature": "0x2107244ad02f5e32f335e2ef35e54ff4b74a372d21d74c8c325ab0ed0e66d71b"
    },
    {
      "anonymous": false,
      "inputs": [
        {
          "indexed": false,
          "name": "oracleId",
          "type": "uint256"
        }
      ],
      "name": "LogOracleActivated",
      "type": "event",
      "signature": "0x54186fbf3d247a05d38a902303d64c1853e6f78ff005c85193eac4afca515db9"
    },
    {
      "anonymous": false,
      "inputs": [
        {
          "indexed": false,
          "name": "oracleId",
          "type": "uint256"
        }
      ],
      "name": "LogOracleDeactivated",
      "type": "event",
      "signature": "0x996c039bedf701514c424e0f61f6b851d9e2bbdd6c8b5f02b033dab30fcbb10f"
    },
    {
      "anonymous": false,
      "inputs": [
        {
          "indexed": false,
          "name": "oracleId",
          "type": "uint256"
        }
      ],
      "name": "LogOracleRemoved",
      "type": "event",
      "signature": "0x196c1adc3f9dd78b95b0f6359e17c4f459c527c2cac013248f6e50bd95f8ba75"
    },
    {
      "anonymous": false,
      "inputs": [
        {
          "indexed": false,
          "name": "oracleTypeName",
          "type": "bytes32"
        },
        {
          "indexed": false,
          "name": "oracleId",
          "type": "uint256"
        },
        {
          "indexed": false,
          "name": "proposalId",
          "type": "uint256"
        }
      ],
      "name": "LogOracleProposedToType",
      "type": "event",
      "signature": "0x4fba195ba876fa0be998a04b8f31ee930a7ae32a9b12ebfaac7bdd0e4d409df6"
    },
    {
      "anonymous": false,
      "inputs": [
        {
          "indexed": false,
          "name": "oracleId",
          "type": "uint256"
        },
        {
          "indexed": false,
          "name": "oracleTypeId",
          "type": "uint256"
        },
        {
          "indexed": false,
          "name": "price",
          "type": "uint256"
        }
      ],
      "name": "LogOraclePriceUpdatedInType",
      "type": "event",
      "signature": "0xc2ca8a47e137573b9c0833d7d18170d741f9c6325983664e48568f8c9e1897dd"
    },
    {
      "anonymous": false,
      "inputs": [
        {
          "indexed": false,
          "name": "oracleTypeName",
          "type": "bytes32"
        },
        {
          "indexed": false,
          "name": "oracleId",
          "type": "uint256"
        },
        {
          "indexed": false,
          "name": "proposalId",
          "type": "uint256"
        }
      ],
      "name": "LogOracleToTypeProposalRevoked",
      "type": "event",
      "signature": "0xdf9b1ac211f181b009e69a6ec4afd4d0df12e560c8bada7f095560a14d754495"
    },
    {
      "anonymous": false,
      "inputs": [
        {
          "indexed": false,
          "name": "oracleTypeName",
          "type": "bytes32"
        },
        {
          "indexed": false,
          "name": "oracleId",
          "type": "uint256"
        }
      ],
      "name": "LogOracleAssignedToOracleType",
      "type": "event",
      "signature": "0xf863b7442748e5fbb6bea1e42409c5136386fcf03e16baa87f23dbdc8bd96b15"
    },
    {
      "anonymous": false,
      "inputs": [
        {
          "indexed": false,
          "name": "oracleTypeName",
          "type": "bytes32"
        },
        {
          "indexed": false,
          "name": "oracleId",
          "type": "uint256"
        }
      ],
      "name": "LogOracleRemovedFromOracleType",
      "type": "event",
      "signature": "0xecea252b7705bf41fe7d3f297197525dc46c6d21738ea4ca4fcb1e806a13013f"
    },
    {
      "anonymous": false,
      "inputs": [
        {
          "indexed": false,
          "name": "requestId",
          "type": "uint256"
        },
        {
          "indexed": false,
          "name": "responsibleOracleId",
          "type": "uint256"
        }
      ],
      "name": "LogOracleRequested",
      "type": "event",
      "signature": "0x7d3e222ad278ef9ddbad6b11ef360423a9775011c7e0547e2b77a4dd7cbd692e"
    },
    {
      "anonymous": false,
      "inputs": [
        {
          "indexed": false,
          "name": "requestId",
          "type": "uint256"
        },
        {
          "indexed": false,
          "name": "responseId",
          "type": "uint256"
        },
        {
          "indexed": false,
          "name": "responder",
          "type": "address"
        },
        {
          "indexed": false,
          "name": "status",
          "type": "bool"
        }
      ],
      "name": "LogOracleResponded",
      "type": "event",
      "signature": "0x304a2e4f4608767be519c154b9dd5f3f67443f27721be49fe2f62fc6b405c087"
    },
    {
      "constant": false,
      "inputs": [
        {
          "name": "_oracleTypeName",
          "type": "bytes32"
        },
        {
          "name": "_inputFormat",
          "type": "string"
        },
        {
          "name": "_callbackFormat",
          "type": "string"
        },
        {
          "name": "_description",
          "type": "string"
        }
      ],
      "name": "proposeOracleType",
      "outputs": [],
      "payable": false,
      "stateMutability": "nonpayable",
      "type": "function",
      "signature": "0x26b85393"
    },
    {
      "constant": false,
      "inputs": [
        {
          "name": "_oracleTypeName",
          "type": "bytes32"
        }
      ],
      "name": "activateOracleType",
      "outputs": [],
      "payable": false,
      "stateMutability": "nonpayable",
      "type": "function",
      "signature": "0x4df83672"
    },
    {
      "constant": false,
      "inputs": [
        {
          "name": "_oracleTypeName",
          "type": "bytes32"
        }
      ],
      "name": "deactivateOracleType",
      "outputs": [],
      "payable": false,
      "stateMutability": "nonpayable",
      "type": "function",
      "signature": "0xa375b93d"
    },
    {
      "constant": false,
      "inputs": [
        {
          "name": "_oracleTypeName",
          "type": "bytes32"
        }
      ],
      "name": "removeOracleType",
      "outputs": [],
      "payable": false,
      "stateMutability": "nonpayable",
      "type": "function",
      "signature": "0x4a1da439"
    },
    {
      "constant": false,
      "inputs": [
        {
          "name": "_sender",
          "type": "address"
        },
        {
          "name": "_oracleContract",
          "type": "address"
        },
        {
          "name": "_description",
          "type": "string"
        }
      ],
      "name": "proposeOracle",
      "outputs": [
        {
          "name": "_oracleId",
          "type": "uint256"
        }
      ],
      "payable": false,
      "stateMutability": "nonpayable",
      "type": "function",
      "signature": "0xd0378d69"
    },
    {
      "constant": false,
      "inputs": [
        {
          "name": "_sender",
          "type": "address"
        },
        {
          "name": "_newOracleContract",
          "type": "address"
        },
        {
          "name": "_oracleId",
          "type": "uint256"
        }
      ],
      "name": "updateOracleContract",
      "outputs": [],
      "payable": false,
      "stateMutability": "nonpayable",
      "type": "function",
      "signature": "0x2014ab7b"
    },
    {
      "constant": false,
      "inputs": [
        {
          "name": "_oracleId",
          "type": "uint256"
        }
      ],
      "name": "activateOracle",
      "outputs": [],
      "payable": false,
      "stateMutability": "nonpayable",
      "type": "function",
      "signature": "0xd114d8a1"
    },
    {
      "constant": false,
      "inputs": [
        {
          "name": "_oracleId",
          "type": "uint256"
        }
      ],
      "name": "deactivateOracle",
      "outputs": [],
      "payable": false,
      "stateMutability": "nonpayable",
      "type": "function",
      "signature": "0xe67f54f8"
    },
    {
      "constant": false,
      "inputs": [
        {
          "name": "_oracleId",
          "type": "uint256"
        }
      ],
      "name": "removeOracle",
      "outputs": [],
      "payable": false,
      "stateMutability": "nonpayable",
      "type": "function",
      "signature": "0x80935dbf"
    },
    {
      "constant": false,
      "inputs": [
        {
          "name": "_sender",
          "type": "address"
        },
        {
          "name": "_oracleTypeName",
          "type": "bytes32"
        },
        {
          "name": "_oracleId",
          "type": "uint256"
        }
      ],
      "name": "proposeOracleToType",
      "outputs": [
        {
          "name": "_proposalId",
          "type": "uint256"
        }
      ],
      "payable": false,
      "stateMutability": "nonpayable",
      "type": "function",
      "signature": "0xa82e4402"
    },
    {
      "constant": false,
      "inputs": [
        {
          "name": "_sender",
          "type": "address"
        },
        {
          "name": "_oracleTypeName",
          "type": "bytes32"
        },
        {
          "name": "_proposalId",
          "type": "uint256"
        }
      ],
      "name": "revokeOracleToTypeProposal",
      "outputs": [],
      "payable": false,
      "stateMutability": "nonpayable",
      "type": "function",
      "signature": "0x1d1da9e8"
    },
    {
      "constant": false,
      "inputs": [
        {
          "name": "_oracleTypeName",
          "type": "bytes32"
        },
        {
          "name": "_proposalId",
          "type": "uint256"
        }
      ],
      "name": "assignOracleToOracleType",
      "outputs": [],
      "payable": false,
      "stateMutability": "nonpayable",
      "type": "function",
      "signature": "0xcd748de8"
    },
    {
      "constant": false,
      "inputs": [
        {
          "name": "_oracleTypeName",
          "type": "bytes32"
        },
        {
          "name": "_oracleId",
          "type": "uint256"
        }
      ],
      "name": "removeOracleFromOracleType",
      "outputs": [],
      "payable": false,
      "stateMutability": "nonpayable",
      "type": "function",
      "signature": "0x2d0c9f08"
    },
    {
      "constant": false,
      "inputs": [
        {
          "name": "_input",
          "type": "bytes"
        },
        {
          "name": "_callbackMethodName",
          "type": "string"
        },
        {
          "name": "_callabackContractAddress",
          "type": "address"
        },
        {
          "name": "_oracleTypeName",
          "type": "bytes32"
        },
        {
          "name": "_responsibleOracleId",
          "type": "uint256"
        }
      ],
      "name": "request",
      "outputs": [
        {
          "name": "_requestId",
          "type": "uint256"
        }
      ],
      "payable": false,
      "stateMutability": "nonpayable",
      "type": "function",
      "signature": "0xd643ece8"
    },
    {
      "constant": false,
      "inputs": [
        {
          "name": "_requestId",
          "type": "uint256"
        },
        {
          "name": "_responder",
          "type": "address"
        },
        {
          "name": "_data",
          "type": "bytes"
        }
      ],
      "name": "respond",
      "outputs": [
        {
          "name": "_responseId",
          "type": "uint256"
        }
      ],
      "payable": false,
      "stateMutability": "nonpayable",
      "type": "function",
      "signature": "0x9af8c4ba"
    }
  ],
  "bytecode": "0x608060405234801561001057600080fd5b506040516020806200555f8339810180604052602081101561003157600080fd5b81019080805190602001909291905050508080600a60006101000a81548173ffffffffffffffffffffffffffffffffffffffff021916908373ffffffffffffffffffffffffffffffffffffffff16021790555050506154c980620000966000396000f3fe608060405234801561001057600080fd5b5060043610610202576000357c010000000000000000000000000000000000000000000000000000000090048063a375b93d1161012c578063da47d856116100bf578063e27976061161008e578063e279760614610fc4578063e46d22501461101c578063e67f54f8146110a3578063e71359bf146110d157610202565b8063da47d85614610e4c578063df5fd4ac14610eba578063e12f32e614610f0a578063e16c7d9814610f5657610202565b8063ce9b7930116100fb578063ce9b793014610bf1578063d0378d6914610c3b578063d114d8a114610d08578063d643ece814610d3657610202565b8063a375b93d14610980578063a82e4402146109ae578063ac867b3c14610a1a578063cd748de814610bb957610202565b806351b68ee4116101a457806380935dbf1161017357806380935dbf1461083157806382df834d1461085f5780639af8c4ba146108ab578063a0eae17b1461096257610202565b806351b68ee4146105265780635b69a7d81461056a5780635f5369e61461068c5780637b103999146107e757610202565b806326b85393116101e057806326b85393146103655780632d0c9f08146104925780634a1da439146104ca5780634df83672146104f857610202565b806301146351146102535780631d1da9e81461029f5780632014ab7b146102f7575b6040517f08c379a00000000000000000000000000000000000000000000000000000000081526004018080602001828103825260248152602001806153e76024913960400191505060405180910390fd5b6102896004803603604081101561026957600080fd5b810190808035906020019092919080359060200190929190505050611115565b6040518082815260200191505060405180910390f35b6102f5600480360360608110156102b557600080fd5b81019080803573ffffffffffffffffffffffffffffffffffffffff1690602001909291908035906020019092919080359060200190929190505050611145565b005b6103636004803603606081101561030d57600080fd5b81019080803573ffffffffffffffffffffffffffffffffffffffff169060200190929190803573ffffffffffffffffffffffffffffffffffffffff169060200190929190803590602001909291905050506114c1565b005b6104906004803603608081101561037b57600080fd5b8101908080359060200190929190803590602001906401000000008111156103a257600080fd5b8201836020820111156103b457600080fd5b803590602001918460018302840111640100000000831117156103d657600080fd5b9091929391929390803590602001906401000000008111156103f757600080fd5b82018360208201111561040957600080fd5b8035906020019184600183028401116401000000008311171561042b57600080fd5b90919293919293908035906020019064010000000081111561044c57600080fd5b82018360208201111561045e57600080fd5b8035906020019184600183028401116401000000008311171561048057600080fd5b9091929391929390505050611910565b005b6104c8600480360360408110156104a857600080fd5b810190808035906020019092919080359060200190929190505050611cf0565b005b6104f6600480360360208110156104e057600080fd5b8101908080359060200190929190505050611ee8565b005b6105246004803603602081101561050e57600080fd5b81019080803590602001909291905050506121fb565b005b6105686004803603602081101561053c57600080fd5b81019080803573ffffffffffffffffffffffffffffffffffffffff169060200190929190505050612468565b005b6105966004803603602081101561058057600080fd5b8101908080359060200190929190505050612577565b604051808573ffffffffffffffffffffffffffffffffffffffff1673ffffffffffffffffffffffffffffffffffffffff1681526020018473ffffffffffffffffffffffffffffffffffffffff1673ffffffffffffffffffffffffffffffffffffffff1681526020018060200183600181111561060e57fe5b60ff168152602001828103825284818151815260200191508051906020019080838360005b8381101561064e578082015181840152602081019050610633565b50505050905090810190601f16801561067b5780820380516001836020036101000a031916815260200191505b509550505050505060405180910390f35b6106b8600480360360208110156106a257600080fd5b810190808035906020019092919050505061268c565b6040518080602001806020018773ffffffffffffffffffffffffffffffffffffffff1673ffffffffffffffffffffffffffffffffffffffff168152602001868152602001858152602001848152602001838103835289818151815260200191508051906020019080838360005b83811015610740578082015181840152602081019050610725565b50505050905090810190601f16801561076d5780820380516001836020036101000a031916815260200191505b50838103825288818151815260200191508051906020019080838360005b838110156107a657808201518184015260208101905061078b565b50505050905090810190601f1680156107d35780820380516001836020036101000a031916815260200191505b509850505050505050505060405180910390f35b6107ef612827565b604051808273ffffffffffffffffffffffffffffffffffffffff1673ffffffffffffffffffffffffffffffffffffffff16815260200191505060405180910390f35b61085d6004803603602081101561084757600080fd5b810190808035906020019092919050505061284d565b005b6108956004803603604081101561087557600080fd5b810190808035906020019092919080359060200190929190505050612c70565b6040518082815260200191505060405180910390f35b61094c600480360360608110156108c157600080fd5b8101908080359060200190929190803573ffffffffffffffffffffffffffffffffffffffff1690602001909291908035906020019064010000000081111561090857600080fd5b82018360208201111561091a57600080fd5b8035906020019184600183028401116401000000008311171561093c57600080fd5b9091929391929390505050612ca0565b6040518082815260200191505060405180910390f35b61096a613181565b6040518082815260200191505060405180910390f35b6109ac6004803603602081101561099657600080fd5b8101908080359060200190929190505050613187565b005b610a04600480360360608110156109c457600080fd5b81019080803573ffffffffffffffffffffffffffffffffffffffff1690602001909291908035906020019092919080359060200190929190505050613464565b6040518082815260200191505060405180910390f35b610a4660048036036020811015610a3057600080fd5b81019080803590602001909291905050506138b8565b60405180806020018060200180602001866001811115610a6257fe5b60ff16815260200185151515158152602001848103845289818151815260200191508051906020019080838360005b83811015610aac578082015181840152602081019050610a91565b50505050905090810190601f168015610ad95780820380516001836020036101000a031916815260200191505b50848103835288818151815260200191508051906020019080838360005b83811015610b12578082015181840152602081019050610af7565b50505050905090810190601f168015610b3f5780820380516001836020036101000a031916815260200191505b50848103825287818151815260200191508051906020019080838360005b83811015610b78578082015181840152602081019050610b5d565b50505050905090810190601f168015610ba55780820380516001836020036101000a031916815260200191505b509850505050505050505060405180910390f35b610bef60048036036040811015610bcf57600080fd5b810190808035906020019092919080359060200190929190505050613ad0565b005b610bf9613e91565b604051808273ffffffffffffffffffffffffffffffffffffffff1673ffffffffffffffffffffffffffffffffffffffff16815260200191505060405180910390f35b610cf260048036036060811015610c5157600080fd5b81019080803573ffffffffffffffffffffffffffffffffffffffff169060200190929190803573ffffffffffffffffffffffffffffffffffffffff16906020019092919080359060200190640100000000811115610cae57600080fd5b820183602082011115610cc057600080fd5b80359060200191846001830284011164010000000083111715610ce257600080fd5b9091929391929390505050613eb7565b6040518082815260200191505060405180910390f35b610d3460048036036020811015610d1e57600080fd5b81019080803590602001909291905050506142b9565b005b610e36600480360360a0811015610d4c57600080fd5b8101908080359060200190640100000000811115610d6957600080fd5b820183602082011115610d7b57600080fd5b80359060200191846001830284011164010000000083111715610d9d57600080fd5b909192939192939080359060200190640100000000811115610dbe57600080fd5b820183602082011115610dd057600080fd5b80359060200191846001830284011164010000000083111715610df257600080fd5b9091929391929390803573ffffffffffffffffffffffffffffffffffffffff1690602001909291908035906020019092919080359060200190929190505050614582565b6040518082815260200191505060405180910390f35b610e7860048036036020811015610e6257600080fd5b8101908080359060200190929190505050614915565b604051808273ffffffffffffffffffffffffffffffffffffffff1673ffffffffffffffffffffffffffffffffffffffff16815260200191505060405180910390f35b610ef060048036036040811015610ed057600080fd5b8101908080359060200190929190803590602001909291905050506149e8565b604051808215151515815260200191505060405180910390f35b610f4060048036036040811015610f2057600080fd5b810190808035906020019092919080359060200190929190505050614a17565b6040518082815260200191505060405180910390f35b610f8260048036036020811015610f6c57600080fd5b8101908080359060200190929190505050614a47565b604051808273ffffffffffffffffffffffffffffffffffffffff1673ffffffffffffffffffffffffffffffffffffffff16815260200191505060405180910390f35b61100660048036036020811015610fda57600080fd5b81019080803573ffffffffffffffffffffffffffffffffffffffff169060200190929190505050614b1a565b6040518082815260200191505060405180910390f35b6110486004803603602081101561103257600080fd5b8101908080359060200190929190505050614b32565b604051808581526020018473ffffffffffffffffffffffffffffffffffffffff1673ffffffffffffffffffffffffffffffffffffffff1681526020018381526020018215151515815260200194505050505060405180910390f35b6110cf600480360360208110156110b957600080fd5b8101908080359060200190929190505050614b9e565b005b611113600480360360208110156110e757600080fd5b81019080803573ffffffffffffffffffffffffffffffffffffffff169060200190929190505050614ed8565b005b60066020528160005260406000208181548110151561113057fe5b90600052602060002001600091509150505481565b61116e7f4f7261636c654f776e6572536572766963650000000000000000000000000000614915565b73ffffffffffffffffffffffffffffffffffffffff163373ffffffffffffffffffffffffffffffffffffffff16141515611210576040517f08c379a00000000000000000000000000000000000000000000000000000000081526004018080602001828103825260178152602001807f4552524f523a3a4e4f545f4f5241434c455f4f574e455200000000000000000081525060200191505060405180910390fd5b6000600360008481526020019081526020016000208281548110151561123257fe5b906000526020600020015490508373ffffffffffffffffffffffffffffffffffffffff166004600083815260200190815260200160002060000160009054906101000a900473ffffffffffffffffffffffffffffffffffffffff1673ffffffffffffffffffffffffffffffffffffffff16141515611318576040517f08c379a00000000000000000000000000000000000000000000000000000000081526004018080602001828103825260178152602001807f4552524f523a3a4e4f545f4f5241434c455f4f574e455200000000000000000081525060200191505060405180910390fd5b600073ffffffffffffffffffffffffffffffffffffffff166004600083815260200190815260200160002060010160009054906101000a900473ffffffffffffffffffffffffffffffffffffffff1673ffffffffffffffffffffffffffffffffffffffff16141515156113f3576040517f08c379a00000000000000000000000000000000000000000000000000000000081526004018080602001828103825260188152602001807f4552524f523a3a4f5241434c455f4e4f545f455849535453000000000000000081525060200191505060405180910390fd5b6001151560008085815260200190815260200160002060030160019054906101000a900460ff161515141515611474576040517f08c379a000000000000000000000000000000000000000000000000000000000815260040180806020018281038252602281526020018061547c6022913960400191505060405180910390fd5b7fdf9b1ac211f181b009e69a6ec4afd4d0df12e560c8bada7f095560a14d75449583828460405180848152602001838152602001828152602001935050505060405180910390a150505050565b6114ea7f4f7261636c654f776e6572536572766963650000000000000000000000000000614915565b73ffffffffffffffffffffffffffffffffffffffff163373ffffffffffffffffffffffffffffffffffffffff1614151561158c576040517f08c379a00000000000000000000000000000000000000000000000000000000081526004018080602001828103825260178152602001807f4552524f523a3a4e4f545f4f5241434c455f4f574e455200000000000000000081525060200191505060405180910390fd5b6000600560008473ffffffffffffffffffffffffffffffffffffffff1673ffffffffffffffffffffffffffffffffffffffff16815260200190815260200160002054141515611643576040517f08c379a00000000000000000000000000000000000000000000000000000000081526004018080602001828103825260148152602001807f4552524f523a3a4f5241434c455f45584953545300000000000000000000000081525060200191505060405180910390fd5b8273ffffffffffffffffffffffffffffffffffffffff166004600083815260200190815260200160002060000160009054906101000a900473ffffffffffffffffffffffffffffffffffffffff1673ffffffffffffffffffffffffffffffffffffffff1614151561171c576040517f08c379a00000000000000000000000000000000000000000000000000000000081526004018080602001828103825260178152602001807f4552524f523a3a4e4f545f4f5241434c455f4f574e455200000000000000000081525060200191505060405180910390fd5b60006004600083815260200190815260200160002060010160009054906101000a900473ffffffffffffffffffffffffffffffffffffffff1690506000600560006004600086815260200190815260200160002060010160009054906101000a900473ffffffffffffffffffffffffffffffffffffffff1673ffffffffffffffffffffffffffffffffffffffff1673ffffffffffffffffffffffffffffffffffffffff16815260200190815260200160002081905550826004600084815260200190815260200160002060010160006101000a81548173ffffffffffffffffffffffffffffffffffffffff021916908373ffffffffffffffffffffffffffffffffffffffff16021790555081600560008573ffffffffffffffffffffffffffffffffffffffff1673ffffffffffffffffffffffffffffffffffffffff168152602001908152602001600020819055507f2107244ad02f5e32f335e2ef35e54ff4b74a372d21d74c8c325ab0ed0e66d71b828285604051808481526020018373ffffffffffffffffffffffffffffffffffffffff1673ffffffffffffffffffffffffffffffffffffffff1681526020018273ffffffffffffffffffffffffffffffffffffffff1673ffffffffffffffffffffffffffffffffffffffff168152602001935050505060405180910390a150505050565b6119397f4f7261636c654f776e6572536572766963650000000000000000000000000000614915565b73ffffffffffffffffffffffffffffffffffffffff163373ffffffffffffffffffffffffffffffffffffffff161415156119db576040517f08c379a00000000000000000000000000000000000000000000000000000000081526004018080602001828103825260178152602001807f4552524f523a3a4e4f545f4f5241434c455f4f574e455200000000000000000081525060200191505060405180910390fd5b6000151560008089815260200190815260200160002060030160019054906101000a900460ff161515141515611a5c576040517f08c379a00000000000000000000000000000000000000000000000000000000081526004018080602001828103825260268152602001806154306026913960400191505060405180910390fd5b60a06040519081016040528087878080601f016020809104026020016040519081016040528093929190818152602001838380828437600081840152601f19601f82011690508083019250505050505050815260200185858080601f016020809104026020016040519081016040528093929190818152602001838380828437600081840152601f19601f82011690508083019250505050505050815260200183838080601f016020809104026020016040519081016040528093929190818152602001838380828437600081840152601f19601f82011690508083019250505050505050815260200160006001811115611b5357fe5b8152602001600115158152506000808981526020019081526020016000206000820151816000019080519060200190611b8d929190614ff3565b506020820151816001019080519060200190611baa929190614ff3565b506040820151816002019080519060200190611bc7929190614ff3565b5060608201518160030160006101000a81548160ff02191690836001811115611bec57fe5b021790555060808201518160030160016101000a81548160ff0219169083151502179055509050507ff8f6a590e9dbba446d8a0df812c416b6ee2ae769a44d6ca77b6e0f1874392da3878787878787876040518088815260200180602001806020018060200184810384528a8a82818152602001925080828437600081840152601f19601f8201169050808301925050508481038352888882818152602001925080828437600081840152601f19601f8201169050808301925050508481038252868682818152602001925080828437600081840152601f19601f8201169050808301925050509a505050505050505050505060405180910390a150505050505050565b611d197f44414f0000000000000000000000000000000000000000000000000000000000614915565b73ffffffffffffffffffffffffffffffffffffffff163373ffffffffffffffffffffffffffffffffffffffff16141515611dbb576040517f08c379a00000000000000000000000000000000000000000000000000000000081526004018080602001828103825260168152602001807f4552524f523a3a4e4f545f44414f5f534552564943450000000000000000000081525060200191505060405180910390fd5b6001151560016000848152602001908152602001600020600083815260200190815260200160002060009054906101000a900460ff161515141515611e68576040517f08c379a000000000000000000000000000000000000000000000000000000000815260040180806020018281038252601a8152602001807f4552524f523a3a4f5241434c455f4e4f545f41535349474e454400000000000081525060200191505060405180910390fd5b600060016000848152602001908152602001600020600083815260200190815260200160002060006101000a81548160ff0219169083151502179055507fecea252b7705bf41fe7d3f297197525dc46c6d21738ea4ca4fcb1e806a13013f8282604051808381526020018281526020019250505060405180910390a15050565b611f117f44414f0000000000000000000000000000000000000000000000000000000000614915565b73ffffffffffffffffffffffffffffffffffffffff163373ffffffffffffffffffffffffffffffffffffffff16141515611fb3576040517f08c379a00000000000000000000000000000000000000000000000000000000081526004018080602001828103825260168152602001807f4552524f523a3a4e4f545f44414f5f534552564943450000000000000000000081525060200191505060405180910390fd5b6001151560008083815260200190815260200160002060030160019054906101000a900460ff161515141515612034576040517f08c379a000000000000000000000000000000000000000000000000000000000815260040180806020018281038252602281526020018061547c6022913960400191505060405180910390fd5b60018081111561204057fe5b60008083815260200190815260200160002060030160009054906101000a900460ff16600181111561206e57fe5b1415156120e3576040517f08c379a000000000000000000000000000000000000000000000000000000000815260040180806020018281038252601d8152602001807f4552524f523a3a4f5241434c455f545950455f4e4f545f41435449564500000081525060200191505060405180910390fd5b60006002600083815260200190815260200160002080549050141515612154576040517f08c379a000000000000000000000000000000000000000000000000000000000815260040180806020018281038252602581526020018061540b6025913960400191505060405180910390fd5b600080828152602001908152602001600020600080820160006121779190615073565b6001820160006121879190615073565b6002820160006121979190615073565b6003820160006101000a81549060ff02191690556003820160016101000a81549060ff021916905550507f382a65e68aad7f96cc3ccc10be93d92e5365de2424d3ee6ea4145e30b2e4d3d2816040518082815260200191505060405180910390a150565b6122247f44414f0000000000000000000000000000000000000000000000000000000000614915565b73ffffffffffffffffffffffffffffffffffffffff163373ffffffffffffffffffffffffffffffffffffffff161415156122c6576040517f08c379a00000000000000000000000000000000000000000000000000000000081526004018080602001828103825260168152602001807f4552524f523a3a4e4f545f44414f5f534552564943450000000000000000000081525060200191505060405180910390fd5b6001151560008083815260200190815260200160002060030160019054906101000a900460ff161515141515612347576040517f08c379a000000000000000000000000000000000000000000000000000000000815260040180806020018281038252602281526020018061547c6022913960400191505060405180910390fd5b60018081111561235357fe5b60008083815260200190815260200160002060030160009054906101000a900460ff16600181111561238157fe5b141515156123f7576040517f08c379a00000000000000000000000000000000000000000000000000000000081526004018080602001828103825260198152602001807f4552524f523a3a4f5241434c455f545950455f4143544956450000000000000081525060200191505060405180910390fd5b600160008083815260200190815260200160002060030160006101000a81548160ff0219169083600181111561242957fe5b02179055507f5ebe72de9c701722bbf81673ee9151676f1f0dca63bc59277f8552b2e7e94754816040518082815260200191505060405180910390a150565b6124917f44414f0000000000000000000000000000000000000000000000000000000000614915565b73ffffffffffffffffffffffffffffffffffffffff163373ffffffffffffffffffffffffffffffffffffffff16141515612533576040517f08c379a00000000000000000000000000000000000000000000000000000000081526004018080602001828103825260168152602001807f4552524f523a3a4e4f545f44414f5f534552564943450000000000000000000081525060200191505060405180910390fd5b80600a60006101000a81548173ffffffffffffffffffffffffffffffffffffffff021916908373ffffffffffffffffffffffffffffffffffffffff16021790555050565b60046020528060005260406000206000915090508060000160009054906101000a900473ffffffffffffffffffffffffffffffffffffffff16908060010160009054906101000a900473ffffffffffffffffffffffffffffffffffffffff1690806002018054600181600116156101000203166002900480601f01602080910402602001604051908101604052809291908181526020018280546001816001161561010002031660029004801561266f5780601f106126445761010080835404028352916020019161266f565b820191906000526020600020905b81548152906001019060200180831161265257829003601f168201915b5050505050908060030160009054906101000a900460ff16905084565b60088181548110151561269b57fe5b9060005260206000209060060201600091509050806000018054600181600116156101000203166002900480601f0160208091040260200160405190810160405280929190818152602001828054600181600116156101000203166002900480156127475780601f1061271c57610100808354040283529160200191612747565b820191906000526020600020905b81548152906001019060200180831161272a57829003601f168201915b505050505090806001018054600181600116156101000203166002900480601f0160208091040260200160405190810160405280929190818152602001828054600181600116156101000203166002900480156127e55780601f106127ba576101008083540402835291602001916127e5565b820191906000526020600020905b8154815290600101906020018083116127c857829003601f168201915b5050505050908060020160009054906101000a900473ffffffffffffffffffffffffffffffffffffffff16908060030154908060040154908060050154905086565b600a60009054906101000a900473ffffffffffffffffffffffffffffffffffffffff1681565b6128767f44414f0000000000000000000000000000000000000000000000000000000000614915565b73ffffffffffffffffffffffffffffffffffffffff163373ffffffffffffffffffffffffffffffffffffffff16141515612918576040517f08c379a00000000000000000000000000000000000000000000000000000000081526004018080602001828103825260168152602001807f4552524f523a3a4e4f545f44414f5f534552564943450000000000000000000081525060200191505060405180910390fd5b600073ffffffffffffffffffffffffffffffffffffffff166004600083815260200190815260200160002060010160009054906101000a900473ffffffffffffffffffffffffffffffffffffffff1673ffffffffffffffffffffffffffffffffffffffff16141515156129f3576040517f08c379a00000000000000000000000000000000000000000000000000000000081526004018080602001828103825260188152602001807f4552524f523a3a4f5241434c455f4e4f545f455849535453000000000000000081525060200191505060405180910390fd5b6001808111156129ff57fe5b6004600083815260200190815260200160002060030160009054906101000a900460ff166001811115612a2e57fe5b14151515612aa4576040517f08c379a00000000000000000000000000000000000000000000000000000000081526004018080602001828103825260188152602001807f4552524f523a3a4f5241434c455f4e4f545f414354495645000000000000000081525060200191505060405180910390fd5b6000600660008381526020019081526020016000208054905014151515612b16576040517f08c379a00000000000000000000000000000000000000000000000000000000081526004018080602001828103825260268152602001806154566026913960400191505060405180910390fd5b600560006004600084815260200190815260200160002060010160009054906101000a900473ffffffffffffffffffffffffffffffffffffffff1673ffffffffffffffffffffffffffffffffffffffff1673ffffffffffffffffffffffffffffffffffffffff1681526020019081526020016000206000905560046000828152602001908152602001600020600080820160006101000a81549073ffffffffffffffffffffffffffffffffffffffff02191690556001820160006101000a81549073ffffffffffffffffffffffffffffffffffffffff0219169055600282016000612c019190615073565b6003820160006101000a81549060ff02191690555050600660008281526020019081526020016000206000612c3691906150bb565b7f196c1adc3f9dd78b95b0f6359e17c4f459c527c2cac013248f6e50bd95f8ba75816040518082815260200191505060405180910390a150565b600360205281600052604060002081815481101515612c8b57fe5b90600052602060002001600091509150505481565b6000612ccb7f4f7261636c655365727669636500000000000000000000000000000000000000614915565b73ffffffffffffffffffffffffffffffffffffffff163373ffffffffffffffffffffffffffffffffffffffff16141515612d6d576040517f08c379a00000000000000000000000000000000000000000000000000000000081526004018080602001828103825260118152602001807f4552524f523a3a4e4f545f4f5241434c4500000000000000000000000000000081525060200191505060405180910390fd5b6000600886815481101515612d7e57fe5b9060005260206000209060060201905060008160020160009054906101000a900473ffffffffffffffffffffffffffffffffffffffff1673ffffffffffffffffffffffffffffffffffffffff16826001016040516020018082805460018160011615610100020316600290048015612e2d5780601f10612e0b576101008083540402835291820191612e2d565b820191906000526020600020905b815481529060010190602001808311612e19575b5050807f2875696e743235362c6279746573290000000000000000000000000000000000815250600f0191505060405160208183030381529060405288878760405160240180848152602001806020018281038252848482818152602001925080828437600081840152601f19601f820116905080830192505050945050505050604051602081830303815290604052906040518082805190602001908083835b602083101515612ef35780518252602082019150602081019050602083039250612ece565b6001836020036101000a03801982511681845116808217855250505050505090500191505060405180910390207bffffffffffffffffffffffffffffffffffffffffffffffffffffffff19166020820180517bffffffffffffffffffffffffffffffffffffffffffffffffffffffff83818316178352505050506040518082805190602001908083835b602083101515612fa25780518252602082019150602081019050602083039250612f7d565b6001836020036101000a0380198251168184511680821785525050505050509050019150506000604051808303816000865af19150503d8060008114613004576040519150601f19603f3d011682016040523d82523d6000602084013e613009565b606091505b505090506009805480919060010161302191906150dc565b92506080604051908101604052808881526020018773ffffffffffffffffffffffffffffffffffffffff16815260200142815260200182151581525060098481548110151561306c57fe5b90600052602060002090600402016000820151816000015560208201518160010160006101000a81548173ffffffffffffffffffffffffffffffffffffffff021916908373ffffffffffffffffffffffffffffffffffffffff1602179055506040820151816002015560608201518160030160006101000a81548160ff0219169083151502179055509050507f304a2e4f4608767be519c154b9dd5f3f67443f27721be49fe2f62fc6b405c08787848884604051808581526020018481526020018373ffffffffffffffffffffffffffffffffffffffff1673ffffffffffffffffffffffffffffffffffffffff1681526020018215151515815260200194505050505060405180910390a15050949350505050565b60075481565b6131b07f44414f0000000000000000000000000000000000000000000000000000000000614915565b73ffffffffffffffffffffffffffffffffffffffff163373ffffffffffffffffffffffffffffffffffffffff16141515613252576040517f08c379a00000000000000000000000000000000000000000000000000000000081526004018080602001828103825260168152602001807f4552524f523a3a4e4f545f44414f5f534552564943450000000000000000000081525060200191505060405180910390fd5b6001151560008083815260200190815260200160002060030160019054906101000a900460ff1615151415156132d3576040517f08c379a000000000000000000000000000000000000000000000000000000000815260040180806020018281038252602281526020018061547c6022913960400191505060405180910390fd5b6001808111156132df57fe5b60008083815260200190815260200160002060030160009054906101000a900460ff16600181111561330d57fe5b141515613382576040517f08c379a000000000000000000000000000000000000000000000000000000000815260040180806020018281038252601d8152602001807f4552524f523a3a4f5241434c455f545950455f4e4f545f41435449564500000081525060200191505060405180910390fd5b600060026000838152602001908152602001600020805490501415156133f3576040517f08c379a000000000000000000000000000000000000000000000000000000000815260040180806020018281038252602581526020018061540b6025913960400191505060405180910390fd5b600080600083815260200190815260200160002060030160006101000a81548160ff0219169083600181111561342557fe5b02179055507f382a65e68aad7f96cc3ccc10be93d92e5365de2424d3ee6ea4145e30b2e4d3d2816040518082815260200191505060405180910390a150565b600061348f7f4f7261636c654f776e6572536572766963650000000000000000000000000000614915565b73ffffffffffffffffffffffffffffffffffffffff163373ffffffffffffffffffffffffffffffffffffffff16141515613531576040517f08c379a00000000000000000000000000000000000000000000000000000000081526004018080602001828103825260178152602001807f4552524f523a3a4e4f545f4f5241434c455f4f574e455200000000000000000081525060200191505060405180910390fd5b8373ffffffffffffffffffffffffffffffffffffffff166004600084815260200190815260200160002060000160009054906101000a900473ffffffffffffffffffffffffffffffffffffffff1673ffffffffffffffffffffffffffffffffffffffff1614151561360a576040517f08c379a00000000000000000000000000000000000000000000000000000000081526004018080602001828103825260178152602001807f4552524f523a3a4e4f545f4f5241434c455f4f574e455200000000000000000081525060200191505060405180910390fd5b600073ffffffffffffffffffffffffffffffffffffffff166004600084815260200190815260200160002060010160009054906101000a900473ffffffffffffffffffffffffffffffffffffffff1673ffffffffffffffffffffffffffffffffffffffff16141515156136e5576040517f08c379a00000000000000000000000000000000000000000000000000000000081526004018080602001828103825260188152602001807f4552524f523a3a4f5241434c455f4e4f545f455849535453000000000000000081525060200191505060405180910390fd5b6001151560008085815260200190815260200160002060030160019054906101000a900460ff161515141515613766576040517f08c379a000000000000000000000000000000000000000000000000000000000815260040180806020018281038252602281526020018061547c6022913960400191505060405180910390fd5b6001151560016000858152602001908152602001600020600084815260200190815260200160002060009054906101000a900460ff16151514151515613814576040517f08c379a00000000000000000000000000000000000000000000000000000000081526004018080602001828103825260168152602001807f4552524f523a3a4f5241434c455f41535349474e45440000000000000000000081525060200191505060405180910390fd5b600360008481526020019081526020016000208054809190600101613839919061510e565b905081600360008581526020019081526020016000208281548110151561385c57fe5b90600052602060002001819055507f4fba195ba876fa0be998a04b8f31ee930a7ae32a9b12ebfaac7bdd0e4d409df683838360405180848152602001838152602001828152602001935050505060405180910390a19392505050565b6000602052806000526040600020600091509050806000018054600181600116156101000203166002900480601f0160208091040260200160405190810160405280929190818152602001828054600181600116156101000203166002900480156139645780601f1061393957610100808354040283529160200191613964565b820191906000526020600020905b81548152906001019060200180831161394757829003601f168201915b505050505090806001018054600181600116156101000203166002900480601f016020809104026020016040519081016040528092919081815260200182805460018160011615610100020316600290048015613a025780601f106139d757610100808354040283529160200191613a02565b820191906000526020600020905b8154815290600101906020018083116139e557829003601f168201915b505050505090806002018054600181600116156101000203166002900480601f016020809104026020016040519081016040528092919081815260200182805460018160011615610100020316600290048015613aa05780601f10613a7557610100808354040283529160200191613aa0565b820191906000526020600020905b815481529060010190602001808311613a8357829003601f168201915b5050505050908060030160009054906101000a900460ff16908060030160019054906101000a900460ff16905085565b613af97f44414f0000000000000000000000000000000000000000000000000000000000614915565b73ffffffffffffffffffffffffffffffffffffffff163373ffffffffffffffffffffffffffffffffffffffff16141515613b9b576040517f08c379a00000000000000000000000000000000000000000000000000000000081526004018080602001828103825260168152602001807f4552524f523a3a4e4f545f44414f5f534552564943450000000000000000000081525060200191505060405180910390fd5b6001151560008084815260200190815260200160002060030160019054906101000a900460ff161515141515613c1c576040517f08c379a000000000000000000000000000000000000000000000000000000000815260040180806020018281038252602281526020018061547c6022913960400191505060405180910390fd5b60006003600084815260200190815260200160002082815481101515613c3e57fe5b90600052602060002001549050600073ffffffffffffffffffffffffffffffffffffffff166004600083815260200190815260200160002060010160009054906101000a900473ffffffffffffffffffffffffffffffffffffffff1673ffffffffffffffffffffffffffffffffffffffff1614151515613d26576040517f08c379a00000000000000000000000000000000000000000000000000000000081526004018080602001828103825260188152602001807f4552524f523a3a4f5241434c455f4e4f545f455849535453000000000000000081525060200191505060405180910390fd5b6001151560016000858152602001908152602001600020600083815260200190815260200160002060009054906101000a900460ff16151514151515613dd4576040517f08c379a00000000000000000000000000000000000000000000000000000000081526004018080602001828103825260168152602001807f4552524f523a3a4f5241434c455f41535349474e45440000000000000000000081525060200191505060405180910390fd5b6001806000858152602001908152602001600020600083815260200190815260200160002060006101000a81548160ff021916908315150217905550600260008481526020019081526020016000208190806001815401808255809150509060018203906000526020600020016000909192909190915055507ff863b7442748e5fbb6bea1e42409c5136386fcf03e16baa87f23dbdc8bd96b158382604051808381526020018281526020019250505060405180910390a1505050565b600b60009054906101000a900473ffffffffffffffffffffffffffffffffffffffff1681565b6000613ee27f4f7261636c654f776e6572536572766963650000000000000000000000000000614915565b73ffffffffffffffffffffffffffffffffffffffff163373ffffffffffffffffffffffffffffffffffffffff16141515613f84576040517f08c379a00000000000000000000000000000000000000000000000000000000081526004018080602001828103825260178152602001807f4552524f523a3a4e4f545f4f5241434c455f4f574e455200000000000000000081525060200191505060405180910390fd5b6000600560008673ffffffffffffffffffffffffffffffffffffffff1673ffffffffffffffffffffffffffffffffffffffff1681526020019081526020016000205414151561403b576040517f08c379a00000000000000000000000000000000000000000000000000000000081526004018080602001828103825260148152602001807f4552524f523a3a4f5241434c455f45584953545300000000000000000000000081525060200191505060405180910390fd5b600760008154809291906001019190505590506080604051908101604052808673ffffffffffffffffffffffffffffffffffffffff1681526020018573ffffffffffffffffffffffffffffffffffffffff16815260200184848080601f016020809104026020016040519081016040528093929190818152602001838380828437600081840152601f19601f820116905080830192505050505050508152602001600060018111156140e957fe5b8152506004600083815260200190815260200160002060008201518160000160006101000a81548173ffffffffffffffffffffffffffffffffffffffff021916908373ffffffffffffffffffffffffffffffffffffffff16021790555060208201518160010160006101000a81548173ffffffffffffffffffffffffffffffffffffffff021916908373ffffffffffffffffffffffffffffffffffffffff16021790555060408201518160020190805190602001906141a9929190614ff3565b5060608201518160030160006101000a81548160ff021916908360018111156141ce57fe5b021790555090505080600560008673ffffffffffffffffffffffffffffffffffffffff1673ffffffffffffffffffffffffffffffffffffffff168152602001908152602001600020819055507ff01fac3e5259db92d8581b7be73ba122e7703bd52b2e314ac5b0723736ca0813848484604051808473ffffffffffffffffffffffffffffffffffffffff1673ffffffffffffffffffffffffffffffffffffffff168152602001806020018281038252848482818152602001925080828437600081840152601f19601f82011690508083019250505094505050505060405180910390a1949350505050565b6142e27f44414f0000000000000000000000000000000000000000000000000000000000614915565b73ffffffffffffffffffffffffffffffffffffffff163373ffffffffffffffffffffffffffffffffffffffff16141515614384576040517f08c379a00000000000000000000000000000000000000000000000000000000081526004018080602001828103825260168152602001807f4552524f523a3a4e4f545f44414f5f534552564943450000000000000000000081525060200191505060405180910390fd5b600073ffffffffffffffffffffffffffffffffffffffff166004600083815260200190815260200160002060010160009054906101000a900473ffffffffffffffffffffffffffffffffffffffff1673ffffffffffffffffffffffffffffffffffffffff161415151561445f576040517f08c379a00000000000000000000000000000000000000000000000000000000081526004018080602001828103825260188152602001807f4552524f523a3a4f5241434c455f4e4f545f455849535453000000000000000081525060200191505060405180910390fd5b60018081111561446b57fe5b6004600083815260200190815260200160002060030160009054906101000a900460ff16600181111561449a57fe5b14151515614510576040517f08c379a00000000000000000000000000000000000000000000000000000000081526004018080602001828103825260178152602001807f4552524f523a3a4f5241434c455f49535f41435449564500000000000000000081525060200191505060405180910390fd5b60016004600083815260200190815260200160002060030160006101000a81548160ff0219169083600181111561454357fe5b02179055507f54186fbf3d247a05d38a902303d64c1853e6f78ff005c85193eac4afca515db9816040518082815260200191505060405180910390a150565b60007f51756572790000000000000000000000000000000000000000000000000000006145ae81614a47565b73ffffffffffffffffffffffffffffffffffffffff163073ffffffffffffffffffffffffffffffffffffffff16141515614650576040517f08c379a00000000000000000000000000000000000000000000000000000000081526004018080602001828103825260158152602001807f4552524f523a3a4e4f545f4f4e5f53544f52414745000000000000000000000081525060200191505060405180910390fd5b6146797f50726f6475637453657276696365000000000000000000000000000000000000614a47565b73ffffffffffffffffffffffffffffffffffffffff163373ffffffffffffffffffffffffffffffffffffffff1614151561471b576040517f08c379a000000000000000000000000000000000000000000000000000000000815260040180806020018281038252601a8152602001807f4552524f523a3a4e4f545f50524f445543545f5345525649434500000000000081525060200191505060405180910390fd5b6008805480919060010161472f919061513a565b9150600060088381548110151561474257fe5b90600052602060002090600602019050898982600001919061476592919061516c565b5087878260010191906147799291906151ec565b50858160020160006101000a81548173ffffffffffffffffffffffffffffffffffffffff021916908373ffffffffffffffffffffffffffffffffffffffff1602179055508481600301819055508381600401819055504281600501819055506004600085815260200190815260200160002060010160009054906101000a900473ffffffffffffffffffffffffffffffffffffffff1673ffffffffffffffffffffffffffffffffffffffff1663ffc79065848c8c6040518463ffffffff167c010000000000000000000000000000000000000000000000000000000002815260040180848152602001806020018281038252848482818152602001925080828437600081840152601f19601f820116905080830192505050945050505050600060405180830381600087803b1580156148b157600080fd5b505af11580156148c5573d6000803e3d6000fd5b505050507f7d3e222ad278ef9ddbad6b11ef360423a9775011c7e0547e2b77a4dd7cbd692e8385604051808381526020018281526020019250505060405180910390a15050979650505050505050565b6000600a60009054906101000a900473ffffffffffffffffffffffffffffffffffffffff1673ffffffffffffffffffffffffffffffffffffffff1663da47d856836040518263ffffffff167c01000000000000000000000000000000000000000000000000000000000281526004018082815260200191505060206040518083038186803b1580156149a657600080fd5b505afa1580156149ba573d6000803e3d6000fd5b505050506040513d60208110156149d057600080fd5b81019080805190602001909291905050509050919050565b60016020528160005260406000206020528060005260406000206000915091509054906101000a900460ff1681565b600260205281600052604060002081815481101515614a3257fe5b90600052602060002001600091509150505481565b6000600a60009054906101000a900473ffffffffffffffffffffffffffffffffffffffff1673ffffffffffffffffffffffffffffffffffffffff1663e16c7d98836040518263ffffffff167c01000000000000000000000000000000000000000000000000000000000281526004018082815260200191505060206040518083038186803b158015614ad857600080fd5b505afa158015614aec573d6000803e3d6000fd5b505050506040513d6020811015614b0257600080fd5b81019080805190602001909291905050509050919050565b60056020528060005260406000206000915090505481565b600981815481101515614b4157fe5b90600052602060002090600402016000915090508060000154908060010160009054906101000a900473ffffffffffffffffffffffffffffffffffffffff16908060020154908060030160009054906101000a900460ff16905084565b614bc77f44414f0000000000000000000000000000000000000000000000000000000000614915565b73ffffffffffffffffffffffffffffffffffffffff163373ffffffffffffffffffffffffffffffffffffffff16141515614c69576040517f08c379a00000000000000000000000000000000000000000000000000000000081526004018080602001828103825260168152602001807f4552524f523a3a4e4f545f44414f5f534552564943450000000000000000000081525060200191505060405180910390fd5b600073ffffffffffffffffffffffffffffffffffffffff166004600083815260200190815260200160002060010160009054906101000a900473ffffffffffffffffffffffffffffffffffffffff1673ffffffffffffffffffffffffffffffffffffffff1614151515614d44576040517f08c379a00000000000000000000000000000000000000000000000000000000081526004018080602001828103825260188152602001807f4552524f523a3a4f5241434c455f4e4f545f455849535453000000000000000081525060200191505060405180910390fd5b600180811115614d5057fe5b6004600083815260200190815260200160002060030160009054906101000a900460ff166001811115614d7f57fe5b141515614df4576040517f08c379a00000000000000000000000000000000000000000000000000000000081526004018080602001828103825260188152602001807f4552524f523a3a4f5241434c455f4e4f545f414354495645000000000000000081525060200191505060405180910390fd5b6000600660008381526020019081526020016000208054905014151515614e66576040517f08c379a00000000000000000000000000000000000000000000000000000000081526004018080602001828103825260268152602001806154566026913960400191505060405180910390fd5b60006004600083815260200190815260200160002060030160006101000a81548160ff02191690836001811115614e9957fe5b02179055507f996c039bedf701514c424e0f61f6b851d9e2bbdd6c8b5f02b033dab30fcbb10f816040518082815260200191505060405180910390a150565b614f017f44414f0000000000000000000000000000000000000000000000000000000000614915565b73ffffffffffffffffffffffffffffffffffffffff163373ffffffffffffffffffffffffffffffffffffffff16141515614fa3576040517f08c379a00000000000000000000000000000000000000000000000000000000081526004018080602001828103825260168152602001807f4552524f523a3a4e4f545f44414f5f534552564943450000000000000000000081525060200191505060405180910390fd5b614fac81614faf565b50565b80600b60006101000a81548173ffffffffffffffffffffffffffffffffffffffff021916908373ffffffffffffffffffffffffffffffffffffffff16021790555050565b828054600181600116156101000203166002900490600052602060002090601f016020900481019282601f1061503457805160ff1916838001178555615062565b82800160010185558215615062579182015b82811115615061578251825591602001919060010190615046565b5b50905061506f919061526c565b5090565b50805460018160011615610100020316600290046000825580601f1061509957506150b8565b601f0160209004906000526020600020908101906150b7919061526c565b5b50565b50805460008255906000526020600020908101906150d99190615291565b50565b8154818355818111156151095760040281600402836000526020600020918201910161510891906152b6565b5b505050565b81548183558181111561513557818360005260206000209182019101615134919061526c565b5b505050565b815481835581811115615167576006028160060283600052602060002091820191016151669190615320565b5b505050565b828054600181600116156101000203166002900490600052602060002090601f016020900481019282601f106151ad57803560ff19168380011785556151db565b828001600101855582156151db579182015b828111156151da5782358255916020019190600101906151bf565b5b5090506151e8919061526c565b5090565b828054600181600116156101000203166002900490600052602060002090601f016020900481019282601f1061522d57803560ff191683800117855561525b565b8280016001018555821561525b579182015b8281111561525a57823582559160200191906001019061523f565b5b509050615268919061526c565b5090565b61528e91905b8082111561528a576000816000905550600101615272565b5090565b90565b6152b391905b808211156152af576000816000905550600101615297565b5090565b90565b61531d91905b80821115615319576000808201600090556001820160006101000a81549073ffffffffffffffffffffffffffffffffffffffff021916905560028201600090556003820160006101000a81549060ff0219169055506004016152bc565b5090565b90565b61539b91905b80821115615397576000808201600061533f919061539e565b60018201600061534f9190615073565b6002820160006101000a81549073ffffffffffffffffffffffffffffffffffffffff021916905560038201600090556004820160009055600582016000905550600601615326565b5090565b90565b50805460018160011615610100020316600290046000825580601f106153c457506153e3565b601f0160209004906000526020600020908101906153e2919061526c565b5b5056fe4552524f523a3a46414c4c4241434b5f46554e4354494f4e5f4e4f575f414c4c4f5745444552524f523a3a4f5241434c455f545950455f4841535f4143544956455f4f5241434c45534552524f523a3a4f5241434c455f545950455f414c52454144595f494e495449414c495a45444552524f523a3a4f5241434c455f41535349474e45445f544f5f4f5241434c455f54595045534552524f523a3a4f5241434c455f545950455f4e4f545f494e495449414c495a4544a165627a7a7230582031f4b63a405cc0e0b0f97666349610d0dbc74ae4d1026189fdec75810979a5700029",
  "source": "pragma solidity 0.5.2;\n\nimport \"./QueryStorageModel.sol\";\nimport \"../../IOracle.sol\";\nimport \"../../shared/ModuleController.sol\";\n\ncontract QueryController is QueryStorageModel, ModuleController {\n    constructor(address _registry) public WithRegistry(_registry) {}\n\n    function proposeOracleType(\n        bytes32 _oracleTypeName,\n        string calldata _inputFormat,\n        string calldata _callbackFormat,\n        string calldata _description\n    ) external onlyOracleOwner {\n        require(\n            oracleTypes[_oracleTypeName].initialized == false,\n            \"ERROR::ORACLE_TYPE_ALREADY_INITIALIZED\"\n        );\n\n        oracleTypes[_oracleTypeName] = OracleType(\n            _inputFormat,\n            _callbackFormat,\n            _description,\n            OracleTypeState.Inactive,\n            true\n        );\n\n        emit LogOracleTypeProposed(_oracleTypeName, _inputFormat, _callbackFormat, _description);\n    }\n\n    function activateOracleType(bytes32 _oracleTypeName) external onlyDAO {\n        require(oracleTypes[_oracleTypeName].initialized == true, \"ERROR::ORACLE_TYPE_NOT_INITIALIZED\");\n        require(oracleTypes[_oracleTypeName].state != OracleTypeState.Active, \"ERROR::ORACLE_TYPE_ACTIVE\");\n\n        oracleTypes[_oracleTypeName].state = OracleTypeState.Active;\n\n        emit LogOracleTypeActivated(_oracleTypeName);\n    }\n\n    function deactivateOracleType(bytes32 _oracleTypeName) external onlyDAO {\n        require(oracleTypes[_oracleTypeName].initialized == true, \"ERROR::ORACLE_TYPE_NOT_INITIALIZED\");\n        require(oracleTypes[_oracleTypeName].state == OracleTypeState.Active, \"ERROR::ORACLE_TYPE_NOT_ACTIVE\");\n        require(assignedOraclesIds[_oracleTypeName].length == 0, \"ERROR::ORACLE_TYPE_HAS_ACTIVE_ORACLES\");\n\n        oracleTypes[_oracleTypeName].state = OracleTypeState.Inactive;\n\n        emit LogOracleTypeDeactivated(_oracleTypeName);\n    }\n\n    function removeOracleType(bytes32 _oracleTypeName) external onlyDAO {\n        require(oracleTypes[_oracleTypeName].initialized == true, \"ERROR::ORACLE_TYPE_NOT_INITIALIZED\");\n        require(oracleTypes[_oracleTypeName].state == OracleTypeState.Active, \"ERROR::ORACLE_TYPE_NOT_ACTIVE\");\n        require(assignedOraclesIds[_oracleTypeName].length == 0, \"ERROR::ORACLE_TYPE_HAS_ACTIVE_ORACLES\");\n\n        delete oracleTypes[_oracleTypeName];\n\n        emit LogOracleTypeDeactivated(_oracleTypeName);\n    }\n\n    function proposeOracle(address _sender, address _oracleContract, string calldata _description)\n    external onlyOracleOwner returns (uint256 _oracleId) {\n        require(oracleIdByAddress[_oracleContract] == 0, \"ERROR::ORACLE_EXISTS\");\n\n        _oracleId = oracleIdIncrement++;\n\n        oracles[_oracleId] = Oracle(_sender, _oracleContract, _description, OracleState.Inactive);\n        oracleIdByAddress[_oracleContract] = _oracleId;\n\n        emit LogOracleProposed(_oracleContract, _description);\n    }\n\n    function updateOracleContract(address _sender, address _newOracleContract, uint256 _oracleId)\n    external onlyOracleOwner {\n        require(oracleIdByAddress[_newOracleContract] == 0, \"ERROR::ORACLE_EXISTS\");\n        require(oracles[_oracleId].oracleOwner == _sender, \"ERROR::NOT_ORACLE_OWNER\");\n\n        address prevContract = oracles[_oracleId].oracleContract;\n\n        oracleIdByAddress[oracles[_oracleId].oracleContract] = 0;\n        oracles[_oracleId].oracleContract = _newOracleContract;\n        oracleIdByAddress[_newOracleContract] = _oracleId;\n\n        emit LogOracleContractUpdated(_oracleId, prevContract, _newOracleContract);\n    }\n\n    function activateOracle(uint256 _oracleId) external onlyDAO {\n        require(oracles[_oracleId].oracleContract != address(0), \"ERROR::ORACLE_NOT_EXISTS\");\n        require(oracles[_oracleId].state != OracleState.Active, \"ERROR::ORACLE_IS_ACTIVE\");\n\n        oracles[_oracleId].state = OracleState.Active;\n\n        emit LogOracleActivated(_oracleId);\n    }\n\n    function deactivateOracle(uint256 _oracleId) external onlyDAO {\n        require(oracles[_oracleId].oracleContract != address(0), \"ERROR::ORACLE_NOT_EXISTS\");\n        require(oracles[_oracleId].state == OracleState.Active, \"ERROR::ORACLE_NOT_ACTIVE\");\n        require(assignedOracleTypes[_oracleId].length != 0, \"ERROR::ORACLE_ASSIGNED_TO_ORACLE_TYPES\");\n\n        oracles[_oracleId].state = OracleState.Inactive;\n\n        emit LogOracleDeactivated(_oracleId);\n    }\n\n    function removeOracle(uint256 _oracleId) external onlyDAO {\n        require(oracles[_oracleId].oracleContract != address(0), \"ERROR::ORACLE_NOT_EXISTS\");\n        require(oracles[_oracleId].state != OracleState.Active, \"ERROR::ORACLE_NOT_ACTIVE\");\n        require(assignedOracleTypes[_oracleId].length != 0, \"ERROR::ORACLE_ASSIGNED_TO_ORACLE_TYPES\");\n\n        delete oracleIdByAddress[oracles[_oracleId].oracleContract];\n        delete oracles[_oracleId];\n        delete assignedOracleTypes[_oracleId];\n\n        emit LogOracleRemoved(_oracleId);\n    }\n\n    function proposeOracleToType(\n        address _sender,\n        bytes32 _oracleTypeName,\n        uint256 _oracleId\n    ) external onlyOracleOwner returns (uint256 _proposalId) {\n        require(oracles[_oracleId].oracleOwner == _sender, \"ERROR::NOT_ORACLE_OWNER\");\n        require(oracles[_oracleId].oracleContract != address(0), \"ERROR::ORACLE_NOT_EXISTS\");\n        require(oracleTypes[_oracleTypeName].initialized == true, \"ERROR::ORACLE_TYPE_NOT_INITIALIZED\");\n        require(assignedOracles[_oracleTypeName][_oracleId] != true, \"ERROR::ORACLE_ASSIGNED\");\n\n        _proposalId = proposedOracleIds[_oracleTypeName].length++;\n        proposedOracleIds[_oracleTypeName][_proposalId] = _oracleId;\n\n        emit LogOracleProposedToType(_oracleTypeName, _oracleId, _proposalId);\n    }\n\n    function revokeOracleToTypeProposal(address _sender, bytes32 _oracleTypeName, uint256 _proposalId)\n    external onlyOracleOwner {\n        uint256 oracleId = proposedOracleIds[_oracleTypeName][_proposalId];\n\n        require(oracles[oracleId].oracleOwner == _sender, \"ERROR::NOT_ORACLE_OWNER\");\n        require(oracles[oracleId].oracleContract != address(0), \"ERROR::ORACLE_NOT_EXISTS\");\n        require(oracleTypes[_oracleTypeName].initialized == true, \"ERROR::ORACLE_TYPE_NOT_INITIALIZED\");\n\n        emit LogOracleToTypeProposalRevoked(_oracleTypeName, oracleId, _proposalId);\n    }\n\n    function assignOracleToOracleType(bytes32 _oracleTypeName, uint256 _proposalId) external onlyDAO {\n        require(oracleTypes[_oracleTypeName].initialized == true, \"ERROR::ORACLE_TYPE_NOT_INITIALIZED\");\n\n        uint256 oracleId = proposedOracleIds[_oracleTypeName][_proposalId];\n\n        require(oracles[oracleId].oracleContract != address(0), \"ERROR::ORACLE_NOT_EXISTS\");\n        require(assignedOracles[_oracleTypeName][oracleId] != true, \"ERROR::ORACLE_ASSIGNED\");\n\n        assignedOracles[_oracleTypeName][oracleId] = true;\n        assignedOraclesIds[_oracleTypeName].push(oracleId);\n\n        emit LogOracleAssignedToOracleType(_oracleTypeName, oracleId);\n    }\n\n    function removeOracleFromOracleType(bytes32 _oracleTypeName, uint256 _oracleId) external onlyDAO {\n        require(assignedOracles[_oracleTypeName][_oracleId] == true, \"ERROR::ORACLE_NOT_ASSIGNED\");\n\n        assignedOracles[_oracleTypeName][_oracleId] = false;\n\n        emit LogOracleRemovedFromOracleType(_oracleTypeName, _oracleId);\n    }\n\n    /* Oracle Request */\n    // 1->1\n    function request(\n        bytes calldata _input,\n        string calldata _callbackMethodName,\n        address _callabackContractAddress,\n        bytes32 _oracleTypeName,\n        uint256 _responsibleOracleId\n    ) external onlyPolicyFlow(\"Query\") returns (uint256 _requestId) {\n        // todo: validate\n\n        _requestId = oracleRequests.length++;\n\n        OracleRequest storage req = oracleRequests[_requestId];\n        req.data = _input;\n        req.callbackMethodName = _callbackMethodName;\n        req.callbackContractAddress = _callabackContractAddress;\n        req.oracleTypeName = _oracleTypeName;\n        req.responsibleOracleId = _responsibleOracleId;\n        req.createdAt = block.timestamp;\n\n        IOracle(oracles[_responsibleOracleId].oracleContract).request(_requestId, _input);\n\n        emit LogOracleRequested(_requestId, _responsibleOracleId);\n    }\n\n    /* Oracle Response */\n    function respond(\n        uint256 _requestId,\n        address _responder,\n        bytes calldata _data\n    ) external onlyOracle returns (uint256 _responseId) {\n        OracleRequest storage req = oracleRequests[_requestId];\n\n        (bool status, ) = req.callbackContractAddress.call(\n            abi.encodeWithSignature(\n                string(\n                    abi.encodePacked(req.callbackMethodName, \"(uint256,bytes)\")\n                ),\n                _requestId,\n                _data\n            )\n        );\n\n        _responseId = oracleResponses.length++;\n        oracleResponses[_responseId] = OracleResponse(\n            _requestId,\n            _responder,\n            block.timestamp,\n            status\n        );\n\n        emit LogOracleResponded(_requestId, _responseId, _responder, status);\n    }\n\n}\n",
  "sourcePath": "/Users/ka/Projects/Altoros/Etherisc/dip-platform/core/gif-contracts/contracts/modules/query/QueryController.sol",
  "compiler": {
    "name": "solc",
    "version": "0.5.2+commit.1df8f40c.Emscripten.clang"
  },
  "schemaVersion": "3.0.1",
  "updatedAt": "2019-02-08T13:23:18.721Z",
  "devdoc": {
    "methods": {}
  },
  "userdoc": {
    "methods": {}
  }
}