{
  "contractName": "Query",
  "abi": [
    {
      "constant": true,
      "inputs": [
        {
          "name": "",
          "type": "uint256"
        },
        {
          "name": "",
          "type": "uint256"
        }
      ],
      "name": "assignedOracleTypes",
      "outputs": [
        {
          "name": "",
          "type": "bytes32"
        }
      ],
      "payable": false,
      "stateMutability": "view",
      "type": "function",
      "signature": "0x01146351"
    },
    {
      "constant": false,
      "inputs": [
        {
          "name": "_registry",
          "type": "address"
        }
      ],
      "name": "assignRegistry",
      "outputs": [],
      "payable": false,
      "stateMutability": "nonpayable",
      "type": "function",
      "signature": "0x51b68ee4"
    },
    {
      "constant": true,
      "inputs": [
        {
          "name": "",
          "type": "uint256"
        }
      ],
      "name": "oracles",
      "outputs": [
        {
          "name": "oracleOwner",
          "type": "address"
        },
        {
          "name": "oracleContract",
          "type": "address"
        },
        {
          "name": "description",
          "type": "string"
        },
        {
          "name": "state",
          "type": "uint8"
        }
      ],
      "payable": false,
      "stateMutability": "view",
      "type": "function",
      "signature": "0x5b69a7d8"
    },
    {
      "constant": true,
      "inputs": [
        {
          "name": "",
          "type": "uint256"
        }
      ],
      "name": "oracleRequests",
      "outputs": [
        {
          "name": "data",
          "type": "bytes"
        },
        {
          "name": "callbackMethodName",
          "type": "string"
        },
        {
          "name": "callbackContractAddress",
          "type": "address"
        },
        {
          "name": "oracleTypeName",
          "type": "bytes32"
        },
        {
          "name": "responsibleOracleId",
          "type": "uint256"
        },
        {
          "name": "createdAt",
          "type": "uint256"
        }
      ],
      "payable": false,
      "stateMutability": "view",
      "type": "function",
      "signature": "0x5f5369e6"
    },
    {
      "constant": true,
      "inputs": [],
      "name": "registry",
      "outputs": [
        {
          "name": "",
          "type": "address"
        }
      ],
      "payable": false,
      "stateMutability": "view",
      "type": "function",
      "signature": "0x7b103999"
    },
    {
      "constant": true,
      "inputs": [
        {
          "name": "",
          "type": "bytes32"
        },
        {
          "name": "",
          "type": "uint256"
        }
      ],
      "name": "proposedOracleIds",
      "outputs": [
        {
          "name": "",
          "type": "uint256"
        }
      ],
      "payable": false,
      "stateMutability": "view",
      "type": "function",
      "signature": "0x82df834d"
    },
    {
      "constant": true,
      "inputs": [],
      "name": "oracleIdIncrement",
      "outputs": [
        {
          "name": "",
          "type": "uint256"
        }
      ],
      "payable": false,
      "stateMutability": "view",
      "type": "function",
      "signature": "0xa0eae17b"
    },
    {
      "constant": true,
      "inputs": [],
      "name": "NAME",
      "outputs": [
        {
          "name": "",
          "type": "bytes32"
        }
      ],
      "payable": false,
      "stateMutability": "view",
      "type": "function",
      "signature": "0xa3f4df7e"
    },
    {
      "constant": true,
      "inputs": [
        {
          "name": "",
          "type": "bytes32"
        }
      ],
      "name": "oracleTypes",
      "outputs": [
        {
          "name": "inputFormat",
          "type": "string"
        },
        {
          "name": "callbackFormat",
          "type": "string"
        },
        {
          "name": "description",
          "type": "string"
        },
        {
          "name": "state",
          "type": "uint8"
        },
        {
          "name": "initialized",
          "type": "bool"
        }
      ],
      "payable": false,
      "stateMutability": "view",
      "type": "function",
      "signature": "0xac867b3c"
    },
    {
      "constant": true,
      "inputs": [
        {
          "name": "_contractName",
          "type": "bytes32"
        }
      ],
      "name": "getService",
      "outputs": [
        {
          "name": "_addr",
          "type": "address"
        }
      ],
      "payable": false,
      "stateMutability": "view",
      "type": "function",
      "signature": "0xda47d856"
    },
    {
      "constant": true,
      "inputs": [
        {
          "name": "",
          "type": "bytes32"
        },
        {
          "name": "",
          "type": "uint256"
        }
      ],
      "name": "assignedOracles",
      "outputs": [
        {
          "name": "",
          "type": "bool"
        }
      ],
      "payable": false,
      "stateMutability": "view",
      "type": "function",
      "signature": "0xdf5fd4ac"
    },
    {
      "constant": true,
      "inputs": [
        {
          "name": "",
          "type": "bytes32"
        },
        {
          "name": "",
          "type": "uint256"
        }
      ],
      "name": "assignedOraclesIds",
      "outputs": [
        {
          "name": "",
          "type": "uint256"
        }
      ],
      "payable": false,
      "stateMutability": "view",
      "type": "function",
      "signature": "0xe12f32e6"
    },
    {
      "constant": true,
      "inputs": [
        {
          "name": "_contractName",
          "type": "bytes32"
        }
      ],
      "name": "getContract",
      "outputs": [
        {
          "name": "_addr",
          "type": "address"
        }
      ],
      "payable": false,
      "stateMutability": "view",
      "type": "function",
      "signature": "0xe16c7d98"
    },
    {
      "constant": true,
      "inputs": [
        {
          "name": "",
          "type": "address"
        }
      ],
      "name": "oracleIdByAddress",
      "outputs": [
        {
          "name": "",
          "type": "uint256"
        }
      ],
      "payable": false,
      "stateMutability": "view",
      "type": "function",
      "signature": "0xe2797606"
    },
    {
      "constant": true,
      "inputs": [
        {
          "name": "",
          "type": "uint256"
        }
      ],
      "name": "oracleResponses",
      "outputs": [
        {
          "name": "requestId",
          "type": "uint256"
        },
        {
          "name": "responder",
          "type": "address"
        },
        {
          "name": "createdAt",
          "type": "uint256"
        },
        {
          "name": "status",
          "type": "bool"
        }
      ],
      "payable": false,
      "stateMutability": "view",
      "type": "function",
      "signature": "0xe46d2250"
    },
    {
      "constant": false,
      "inputs": [
        {
          "name": "_controller",
          "type": "address"
        }
      ],
      "name": "assignController",
      "outputs": [],
      "payable": false,
      "stateMutability": "nonpayable",
      "type": "function",
      "signature": "0xec1bc1ac"
    },
    {
      "constant": true,
      "inputs": [],
      "name": "controller",
      "outputs": [
        {
          "name": "",
          "type": "address"
        }
      ],
      "payable": false,
      "stateMutability": "view",
      "type": "function",
      "signature": "0xf77c4791"
    },
    {
      "inputs": [
        {
          "name": "_registry",
          "type": "address"
        }
      ],
      "payable": false,
      "stateMutability": "nonpayable",
      "type": "constructor",
      "signature": "constructor"
    },
    {
      "payable": false,
      "stateMutability": "nonpayable",
      "type": "fallback"
    },
    {
      "anonymous": false,
      "inputs": [
        {
          "indexed": false,
          "name": "oracleTypeName",
          "type": "bytes32"
        },
        {
          "indexed": false,
          "name": "inputFormat",
          "type": "string"
        },
        {
          "indexed": false,
          "name": "callbackFormat",
          "type": "string"
        },
        {
          "indexed": false,
          "name": "description",
          "type": "string"
        }
      ],
      "name": "LogOracleTypeProposed",
      "type": "event",
      "signature": "0xf8f6a590e9dbba446d8a0df812c416b6ee2ae769a44d6ca77b6e0f1874392da3"
    },
    {
      "anonymous": false,
      "inputs": [
        {
          "indexed": false,
          "name": "oracleTypeName",
          "type": "bytes32"
        }
      ],
      "name": "LogOracleTypeActivated",
      "type": "event",
      "signature": "0x5ebe72de9c701722bbf81673ee9151676f1f0dca63bc59277f8552b2e7e94754"
    },
    {
      "anonymous": false,
      "inputs": [
        {
          "indexed": false,
          "name": "oracleTypeName",
          "type": "bytes32"
        }
      ],
      "name": "LogOracleTypeDeactivated",
      "type": "event",
      "signature": "0x382a65e68aad7f96cc3ccc10be93d92e5365de2424d3ee6ea4145e30b2e4d3d2"
    },
    {
      "anonymous": false,
      "inputs": [
        {
          "indexed": false,
          "name": "oracleTypeName",
          "type": "bytes32"
        }
      ],
      "name": "LogOracleTypeRemoved",
      "type": "event",
      "signature": "0x57a6ff63d4d6cb402a72f21517371a62f8f2870d525cf45508b63f6d268b2523"
    },
    {
      "anonymous": false,
      "inputs": [
        {
          "indexed": false,
          "name": "oracleContract",
          "type": "address"
        },
        {
          "indexed": false,
          "name": "description",
          "type": "string"
        }
      ],
      "name": "LogOracleProposed",
      "type": "event",
      "signature": "0xf01fac3e5259db92d8581b7be73ba122e7703bd52b2e314ac5b0723736ca0813"
    },
    {
      "anonymous": false,
      "inputs": [
        {
          "indexed": false,
          "name": "oracleId",
          "type": "uint256"
        },
        {
          "indexed": false,
          "name": "prevContract",
          "type": "address"
        },
        {
          "indexed": false,
          "name": "nextContract",
          "type": "address"
        }
      ],
      "name": "LogOracleContractUpdated",
      "type": "event",
      "signature": "0x2107244ad02f5e32f335e2ef35e54ff4b74a372d21d74c8c325ab0ed0e66d71b"
    },
    {
      "anonymous": false,
      "inputs": [
        {
          "indexed": false,
          "name": "oracleId",
          "type": "uint256"
        }
      ],
      "name": "LogOracleActivated",
      "type": "event",
      "signature": "0x54186fbf3d247a05d38a902303d64c1853e6f78ff005c85193eac4afca515db9"
    },
    {
      "anonymous": false,
      "inputs": [
        {
          "indexed": false,
          "name": "oracleId",
          "type": "uint256"
        }
      ],
      "name": "LogOracleDeactivated",
      "type": "event",
      "signature": "0x996c039bedf701514c424e0f61f6b851d9e2bbdd6c8b5f02b033dab30fcbb10f"
    },
    {
      "anonymous": false,
      "inputs": [
        {
          "indexed": false,
          "name": "oracleId",
          "type": "uint256"
        }
      ],
      "name": "LogOracleRemoved",
      "type": "event",
      "signature": "0x196c1adc3f9dd78b95b0f6359e17c4f459c527c2cac013248f6e50bd95f8ba75"
    },
    {
      "anonymous": false,
      "inputs": [
        {
          "indexed": false,
          "name": "oracleTypeName",
          "type": "bytes32"
        },
        {
          "indexed": false,
          "name": "oracleId",
          "type": "uint256"
        },
        {
          "indexed": false,
          "name": "proposalId",
          "type": "uint256"
        }
      ],
      "name": "LogOracleProposedToType",
      "type": "event",
      "signature": "0x4fba195ba876fa0be998a04b8f31ee930a7ae32a9b12ebfaac7bdd0e4d409df6"
    },
    {
      "anonymous": false,
      "inputs": [
        {
          "indexed": false,
          "name": "oracleId",
          "type": "uint256"
        },
        {
          "indexed": false,
          "name": "oracleTypeId",
          "type": "uint256"
        },
        {
          "indexed": false,
          "name": "price",
          "type": "uint256"
        }
      ],
      "name": "LogOraclePriceUpdatedInType",
      "type": "event",
      "signature": "0xc2ca8a47e137573b9c0833d7d18170d741f9c6325983664e48568f8c9e1897dd"
    },
    {
      "anonymous": false,
      "inputs": [
        {
          "indexed": false,
          "name": "oracleTypeName",
          "type": "bytes32"
        },
        {
          "indexed": false,
          "name": "oracleId",
          "type": "uint256"
        },
        {
          "indexed": false,
          "name": "proposalId",
          "type": "uint256"
        }
      ],
      "name": "LogOracleToTypeProposalRevoked",
      "type": "event",
      "signature": "0xdf9b1ac211f181b009e69a6ec4afd4d0df12e560c8bada7f095560a14d754495"
    },
    {
      "anonymous": false,
      "inputs": [
        {
          "indexed": false,
          "name": "oracleTypeName",
          "type": "bytes32"
        },
        {
          "indexed": false,
          "name": "oracleId",
          "type": "uint256"
        }
      ],
      "name": "LogOracleAssignedToOracleType",
      "type": "event",
      "signature": "0xf863b7442748e5fbb6bea1e42409c5136386fcf03e16baa87f23dbdc8bd96b15"
    },
    {
      "anonymous": false,
      "inputs": [
        {
          "indexed": false,
          "name": "oracleTypeName",
          "type": "bytes32"
        },
        {
          "indexed": false,
          "name": "oracleId",
          "type": "uint256"
        }
      ],
      "name": "LogOracleRemovedFromOracleType",
      "type": "event",
      "signature": "0xecea252b7705bf41fe7d3f297197525dc46c6d21738ea4ca4fcb1e806a13013f"
    },
    {
      "anonymous": false,
      "inputs": [
        {
          "indexed": false,
          "name": "requestId",
          "type": "uint256"
        },
        {
          "indexed": false,
          "name": "responsibleOracleId",
          "type": "uint256"
        }
      ],
      "name": "LogOracleRequested",
      "type": "event",
      "signature": "0x7d3e222ad278ef9ddbad6b11ef360423a9775011c7e0547e2b77a4dd7cbd692e"
    },
    {
      "anonymous": false,
      "inputs": [
        {
          "indexed": false,
          "name": "requestId",
          "type": "uint256"
        },
        {
          "indexed": false,
          "name": "responseId",
          "type": "uint256"
        },
        {
          "indexed": false,
          "name": "responder",
          "type": "address"
        },
        {
          "indexed": false,
          "name": "status",
          "type": "bool"
        }
      ],
      "name": "LogOracleResponded",
      "type": "event",
      "signature": "0x304a2e4f4608767be519c154b9dd5f3f67443f27721be49fe2f62fc6b405c087"
    }
  ],
  "bytecode": "0x608060405234801561001057600080fd5b506040516020806115de8339810180604052602081101561003057600080fd5b81019080805190602001909291905050508080600a60006101000a81548173ffffffffffffffffffffffffffffffffffffffff021916908373ffffffffffffffffffffffffffffffffffffffff160217905550505061154a806100946000396000f3fe608060405234801561001057600080fd5b5060043610610128576000357c010000000000000000000000000000000000000000000000000000000090048063ac867b3c116100bf578063e16c7d981161008e578063e16c7d98146107dd578063e27976061461084b578063e46d2250146108a3578063ec1bc1ac1461092a578063f77c47911461096e57610128565b8063ac867b3c14610534578063da47d856146106d3578063df5fd4ac14610741578063e12f32e61461079157610128565b80637b103999116100fb5780637b1039991461046257806382df834d146104ac578063a0eae17b146104f8578063a3f4df7e1461051657610128565b8063011463511461015557806351b68ee4146101a15780635b69a7d8146101e55780635f5369e614610307575b610153600b60009054906101000a900473ffffffffffffffffffffffffffffffffffffffff166109b8565b005b61018b6004803603604081101561016b57600080fd5b810190808035906020019092919080359060200190929190505050610acd565b6040518082815260200191505060405180910390f35b6101e3600480360360208110156101b757600080fd5b81019080803573ffffffffffffffffffffffffffffffffffffffff169060200190929190505050610afd565b005b610211600480360360208110156101fb57600080fd5b8101908080359060200190929190505050610c0c565b604051808573ffffffffffffffffffffffffffffffffffffffff1673ffffffffffffffffffffffffffffffffffffffff1681526020018473ffffffffffffffffffffffffffffffffffffffff1673ffffffffffffffffffffffffffffffffffffffff1681526020018060200183600181111561028957fe5b60ff168152602001828103825284818151815260200191508051906020019080838360005b838110156102c95780820151818401526020810190506102ae565b50505050905090810190601f1680156102f65780820380516001836020036101000a031916815260200191505b509550505050505060405180910390f35b6103336004803603602081101561031d57600080fd5b8101908080359060200190929190505050610d21565b6040518080602001806020018773ffffffffffffffffffffffffffffffffffffffff1673ffffffffffffffffffffffffffffffffffffffff168152602001868152602001858152602001848152602001838103835289818151815260200191508051906020019080838360005b838110156103bb5780820151818401526020810190506103a0565b50505050905090810190601f1680156103e85780820380516001836020036101000a031916815260200191505b50838103825288818151815260200191508051906020019080838360005b83811015610421578082015181840152602081019050610406565b50505050905090810190601f16801561044e5780820380516001836020036101000a031916815260200191505b509850505050505050505060405180910390f35b61046a610ebc565b604051808273ffffffffffffffffffffffffffffffffffffffff1673ffffffffffffffffffffffffffffffffffffffff16815260200191505060405180910390f35b6104e2600480360360408110156104c257600080fd5b810190808035906020019092919080359060200190929190505050610ee2565b6040518082815260200191505060405180910390f35b610500610f12565b6040518082815260200191505060405180910390f35b61051e610f18565b6040518082815260200191505060405180910390f35b6105606004803603602081101561054a57600080fd5b8101908080359060200190929190505050610f3c565b6040518080602001806020018060200186600181111561057c57fe5b60ff16815260200185151515158152602001848103845289818151815260200191508051906020019080838360005b838110156105c65780820151818401526020810190506105ab565b50505050905090810190601f1680156105f35780820380516001836020036101000a031916815260200191505b50848103835288818151815260200191508051906020019080838360005b8381101561062c578082015181840152602081019050610611565b50505050905090810190601f1680156106595780820380516001836020036101000a031916815260200191505b50848103825287818151815260200191508051906020019080838360005b83811015610692578082015181840152602081019050610677565b50505050905090810190601f1680156106bf5780820380516001836020036101000a031916815260200191505b509850505050505050505060405180910390f35b6106ff600480360360208110156106e957600080fd5b8101908080359060200190929190505050611154565b604051808273ffffffffffffffffffffffffffffffffffffffff1673ffffffffffffffffffffffffffffffffffffffff16815260200191505060405180910390f35b6107776004803603604081101561075757600080fd5b810190808035906020019092919080359060200190929190505050611227565b604051808215151515815260200191505060405180910390f35b6107c7600480360360408110156107a757600080fd5b810190808035906020019092919080359060200190929190505050611256565b6040518082815260200191505060405180910390f35b610809600480360360208110156107f357600080fd5b8101908080359060200190929190505050611286565b604051808273ffffffffffffffffffffffffffffffffffffffff1673ffffffffffffffffffffffffffffffffffffffff16815260200191505060405180910390f35b61088d6004803603602081101561086157600080fd5b81019080803573ffffffffffffffffffffffffffffffffffffffff169060200190929190505050611359565b6040518082815260200191505060405180910390f35b6108cf600480360360208110156108b957600080fd5b8101908080359060200190929190505050611371565b604051808581526020018473ffffffffffffffffffffffffffffffffffffffff1673ffffffffffffffffffffffffffffffffffffffff1681526020018381526020018215151515815260200194505050505060405180910390f35b61096c6004803603602081101561094057600080fd5b81019080803573ffffffffffffffffffffffffffffffffffffffff1690602001909291905050506113dd565b005b6109766114b4565b604051808273ffffffffffffffffffffffffffffffffffffffff1673ffffffffffffffffffffffffffffffffffffffff16815260200191505060405180910390f35b600073ffffffffffffffffffffffffffffffffffffffff168173ffffffffffffffffffffffffffffffffffffffff1614151515610a5d576040517f08c379a000000000000000000000000000000000000000000000000000000000815260040180806020018281038252601d8152602001807f4552524f523a3a554e4b4e4f574e5f494d504c454d454e544154494f4e00000081525060200191505060405180910390fd5b60606000368080601f016020809104026020016040519081016040528093929190818152602001838380828437600081840152601f19601f820116905080830192505050505050509050600080825160208401855af43d604051816000823e8260008114610ac9578282f35b8282fd5b600660205281600052604060002081815481101515610ae857fe5b90600052602060002001600091509150505481565b610b267f44414f0000000000000000000000000000000000000000000000000000000000611154565b73ffffffffffffffffffffffffffffffffffffffff163373ffffffffffffffffffffffffffffffffffffffff16141515610bc8576040517f08c379a00000000000000000000000000000000000000000000000000000000081526004018080602001828103825260168152602001807f4552524f523a3a4e4f545f44414f5f534552564943450000000000000000000081525060200191505060405180910390fd5b80600a60006101000a81548173ffffffffffffffffffffffffffffffffffffffff021916908373ffffffffffffffffffffffffffffffffffffffff16021790555050565b60046020528060005260406000206000915090508060000160009054906101000a900473ffffffffffffffffffffffffffffffffffffffff16908060010160009054906101000a900473ffffffffffffffffffffffffffffffffffffffff1690806002018054600181600116156101000203166002900480601f016020809104026020016040519081016040528092919081815260200182805460018160011615610100020316600290048015610d045780601f10610cd957610100808354040283529160200191610d04565b820191906000526020600020905b815481529060010190602001808311610ce757829003601f168201915b5050505050908060030160009054906101000a900460ff16905084565b600881815481101515610d3057fe5b9060005260206000209060060201600091509050806000018054600181600116156101000203166002900480601f016020809104026020016040519081016040528092919081815260200182805460018160011615610100020316600290048015610ddc5780601f10610db157610100808354040283529160200191610ddc565b820191906000526020600020905b815481529060010190602001808311610dbf57829003601f168201915b505050505090806001018054600181600116156101000203166002900480601f016020809104026020016040519081016040528092919081815260200182805460018160011615610100020316600290048015610e7a5780601f10610e4f57610100808354040283529160200191610e7a565b820191906000526020600020905b815481529060010190602001808311610e5d57829003601f168201915b5050505050908060020160009054906101000a900473ffffffffffffffffffffffffffffffffffffffff16908060030154908060040154908060050154905086565b600a60009054906101000a900473ffffffffffffffffffffffffffffffffffffffff1681565b600360205281600052604060002081815481101515610efd57fe5b90600052602060002001600091509150505481565b60075481565b7f517565727900000000000000000000000000000000000000000000000000000081565b6000602052806000526040600020600091509050806000018054600181600116156101000203166002900480601f016020809104026020016040519081016040528092919081815260200182805460018160011615610100020316600290048015610fe85780601f10610fbd57610100808354040283529160200191610fe8565b820191906000526020600020905b815481529060010190602001808311610fcb57829003601f168201915b505050505090806001018054600181600116156101000203166002900480601f0160208091040260200160405190810160405280929190818152602001828054600181600116156101000203166002900480156110865780601f1061105b57610100808354040283529160200191611086565b820191906000526020600020905b81548152906001019060200180831161106957829003601f168201915b505050505090806002018054600181600116156101000203166002900480601f0160208091040260200160405190810160405280929190818152602001828054600181600116156101000203166002900480156111245780601f106110f957610100808354040283529160200191611124565b820191906000526020600020905b81548152906001019060200180831161110757829003601f168201915b5050505050908060030160009054906101000a900460ff16908060030160019054906101000a900460ff16905085565b6000600a60009054906101000a900473ffffffffffffffffffffffffffffffffffffffff1673ffffffffffffffffffffffffffffffffffffffff1663da47d856836040518263ffffffff167c01000000000000000000000000000000000000000000000000000000000281526004018082815260200191505060206040518083038186803b1580156111e557600080fd5b505afa1580156111f9573d6000803e3d6000fd5b505050506040513d602081101561120f57600080fd5b81019080805190602001909291905050509050919050565b60016020528160005260406000206020528060005260406000206000915091509054906101000a900460ff1681565b60026020528160005260406000208181548110151561127157fe5b90600052602060002001600091509150505481565b6000600a60009054906101000a900473ffffffffffffffffffffffffffffffffffffffff1673ffffffffffffffffffffffffffffffffffffffff1663e16c7d98836040518263ffffffff167c01000000000000000000000000000000000000000000000000000000000281526004018082815260200191505060206040518083038186803b15801561131757600080fd5b505afa15801561132b573d6000803e3d6000fd5b505050506040513d602081101561134157600080fd5b81019080805190602001909291905050509050919050565b60056020528060005260406000206000915090505481565b60098181548110151561138057fe5b90600052602060002090600402016000915090508060000154908060010160009054906101000a900473ffffffffffffffffffffffffffffffffffffffff16908060020154908060030160009054906101000a900460ff16905084565b6114067f44414f0000000000000000000000000000000000000000000000000000000000611154565b73ffffffffffffffffffffffffffffffffffffffff163373ffffffffffffffffffffffffffffffffffffffff161415156114a8576040517f08c379a00000000000000000000000000000000000000000000000000000000081526004018080602001828103825260168152602001807f4552524f523a3a4e4f545f44414f5f534552564943450000000000000000000081525060200191505060405180910390fd5b6114b1816114da565b50565b600b60009054906101000a900473ffffffffffffffffffffffffffffffffffffffff1681565b80600b60006101000a81548173ffffffffffffffffffffffffffffffffffffffff021916908373ffffffffffffffffffffffffffffffffffffffff1602179055505056fea165627a7a72305820b993a277d968777418d222cf7c5c65b8cf944b56b6c80a39a863db8a822124200029",
  "source": "pragma solidity 0.5.2;\n\nimport \"./QueryStorageModel.sol\";\nimport \"../../shared/ModuleStorage.sol\";\n\ncontract Query is QueryStorageModel, ModuleStorage {\n    bytes32 public constant NAME = \"Query\";\n\n    constructor(address _registry) public WithRegistry(_registry) {}\n}\n",
  "sourcePath": "/Users/ka/Projects/Altoros/Etherisc/dip-platform/core/gif-contracts/contracts/modules/query/Query.sol",
  "compiler": {
    "name": "solc",
    "version": "0.5.2+commit.1df8f40c.Emscripten.clang"
  },
  "schemaVersion": "3.0.1",
  "updatedAt": "2019-02-07T14:08:00.988Z",
  "devdoc": {
    "methods": {}
  },
  "userdoc": {
    "methods": {}
  }
}