{
  "contractName": "RBAC",
  "abi": [
    {
      "constant": true,
      "inputs": [
        {
          "name": "",
          "type": "address"
        }
      ],
      "name": "permissions",
      "outputs": [
        {
          "name": "",
          "type": "uint256"
        }
      ],
      "payable": false,
      "stateMutability": "view",
      "type": "function"
    },
    {
      "constant": true,
      "inputs": [
        {
          "name": "",
          "type": "uint256"
        }
      ],
      "name": "rolesKeys",
      "outputs": [
        {
          "name": "",
          "type": "bytes32"
        }
      ],
      "payable": false,
      "stateMutability": "view",
      "type": "function"
    },
    {
      "constant": true,
      "inputs": [
        {
          "name": "",
          "type": "bytes32"
        }
      ],
      "name": "roles",
      "outputs": [
        {
          "name": "",
          "type": "uint256"
        }
      ],
      "payable": false,
      "stateMutability": "view",
      "type": "function"
    },
    {
      "constant": false,
      "inputs": [
        {
          "name": "_role",
          "type": "bytes32"
        }
      ],
      "name": "createRole",
      "outputs": [],
      "payable": false,
      "stateMutability": "nonpayable",
      "type": "function"
    },
    {
      "constant": false,
      "inputs": [
        {
          "name": "_address",
          "type": "address"
        },
        {
          "name": "_role",
          "type": "bytes32"
        }
      ],
      "name": "addRoleToAccount",
      "outputs": [],
      "payable": false,
      "stateMutability": "nonpayable",
      "type": "function"
    },
    {
      "constant": false,
      "inputs": [
        {
          "name": "_address",
          "type": "address"
        }
      ],
      "name": "cleanRolesForAccount",
      "outputs": [],
      "payable": false,
      "stateMutability": "nonpayable",
      "type": "function"
    },
    {
      "constant": true,
      "inputs": [
        {
          "name": "_address",
          "type": "address"
        },
        {
          "name": "_role",
          "type": "bytes32"
        }
      ],
      "name": "hasRole",
      "outputs": [
        {
          "name": "_hasRole",
          "type": "bool"
        }
      ],
      "payable": false,
      "stateMutability": "view",
      "type": "function"
    }
  ],
  "bytecode": "0x608060405234801561001057600080fd5b506104f6806100206000396000f3fe608060405234801561001057600080fd5b506004361061009a576000357c010000000000000000000000000000000000000000000000000000000090048063ac4ab3fb11610078578063ac4ab3fb1461017b578063c2e86735146101e1578063c42994a21461022f578063f566e10e1461025d5761009a565b806301e882081461009f5780632cf88d9e146100f75780639535665114610139575b600080fd5b6100e1600480360360208110156100b557600080fd5b81019080803573ffffffffffffffffffffffffffffffffffffffff1690602001909291905050506102a1565b6040518082815260200191505060405180910390f35b6101236004803603602081101561010d57600080fd5b81019080803590602001909291905050506102b9565b6040518082815260200191505060405180910390f35b6101656004803603602081101561014f57600080fd5b81019080803590602001909291905050506102dc565b6040518082815260200191505060405180910390f35b6101c76004803603604081101561019157600080fd5b81019080803573ffffffffffffffffffffffffffffffffffffffff169060200190929190803590602001909291905050506102f4565b604051808215151515815260200191505060405180910390f35b61022d600480360360408110156101f757600080fd5b81019080803573ffffffffffffffffffffffffffffffffffffffff16906020019092919080359060200190929190505050610354565b005b61025b6004803603602081101561024557600080fd5b8101908080359060200190929190505050610411565b005b61029f6004803603602081101561027357600080fd5b81019080803573ffffffffffffffffffffffffffffffffffffffff169060200190929190505050610484565b005b60026020528060005260406000206000915090505481565b6001818154811015156102c857fe5b906000526020600020016000915090505481565b60006020528060005260406000206000915090505481565b60008060008084815260200190815260200160002054600260008673ffffffffffffffffffffffffffffffffffffffff1673ffffffffffffffffffffffffffffffffffffffff168152602001908152602001600020541611905092915050565b6000806000838152602001908152602001600020541415151561037657600080fd5b60008082815260200190815260200160002054600260008473ffffffffffffffffffffffffffffffffffffffff1673ffffffffffffffffffffffffffffffffffffffff1681526020019081526020016000205417600260008473ffffffffffffffffffffffffffffffffffffffff1673ffffffffffffffffffffffffffffffffffffffff168152602001908152602001600020819055505050565b60008060008381526020019081526020016000205414151561043257600080fd5b60018054905060019060020a0260008083815260200190815260200160002081905550600181908060018154018082558091505090600182039060005260206000200160009091929091909150555050565b600260008273ffffffffffffffffffffffffffffffffffffffff1673ffffffffffffffffffffffffffffffffffffffff168152602001908152602001600020600090555056fea165627a7a723058207de0df5c5f33f188dddf855ff2e95f2439703ffd1efcdc0dd2bd77039546063f0029",
  "source": "pragma solidity 0.5.2;\n\ncontract RBAC {\n    mapping(bytes32 => uint256) public roles;\n    bytes32[] public rolesKeys;\n\n    mapping(address => uint256) public permissions;\n\n    modifier onlyWithRole(bytes32 _role) {\n        require(hasRole(msg.sender, _role));\n        _;\n    }\n\n    function createRole(bytes32 _role) public {\n        require(roles[_role] == 0);\n        // todo: check overflow\n        roles[_role] = 1 << rolesKeys.length;\n        rolesKeys.push(_role);\n    }\n\n    function addRoleToAccount(address _address, bytes32 _role) public {\n        require(roles[_role] != 0);\n\n        permissions[_address] = permissions[_address] | roles[_role];\n    }\n\n    function cleanRolesForAccount(address _address) public {\n        delete permissions[_address];\n    }\n\n    function hasRole(address _address, bytes32 _role)\n        public\n        view\n        returns (bool _hasRole)\n    {\n        _hasRole = (permissions[_address] & roles[_role]) > 0;\n    }\n}\n",
  "sourcePath": "/Users/ka/Projects/Altoros/Etherisc/dip-platform/core/gif-contracts/contracts/shared/RBAC.sol",
  "compiler": {
    "name": "solc",
    "version": "0.5.2+commit.1df8f40c.Emscripten.clang"
  },
  "schemaVersion": "3.0.1",
  "updatedAt": "2019-02-08T13:16:56.064Z",
  "devdoc": {
    "methods": {}
  },
  "userdoc": {
    "methods": {}
  }
}