{
  "contractName": "RegistryController",
  "abi": [
    {
      "constant": true,
      "inputs": [
        {
          "name": "",
          "type": "uint256"
        },
        {
          "name": "",
          "type": "bytes32"
        }
      ],
      "name": "contracts",
      "outputs": [
        {
          "name": "",
          "type": "address"
        }
      ],
      "payable": false,
      "stateMutability": "view",
      "type": "function",
      "signature": "0x184c68be"
    },
    {
      "constant": true,
      "inputs": [],
      "name": "release",
      "outputs": [
        {
          "name": "",
          "type": "uint256"
        }
      ],
      "payable": false,
      "stateMutability": "view",
      "type": "function",
      "signature": "0x86d1a69f"
    },
    {
      "constant": true,
      "inputs": [
        {
          "name": "",
          "type": "uint256"
        },
        {
          "name": "",
          "type": "uint256"
        }
      ],
      "name": "contractNames",
      "outputs": [
        {
          "name": "",
          "type": "bytes32"
        }
      ],
      "payable": false,
      "stateMutability": "view",
      "type": "function",
      "signature": "0xaefed5d1"
    },
    {
      "constant": true,
      "inputs": [],
      "name": "maxContracts",
      "outputs": [
        {
          "name": "",
          "type": "uint256"
        }
      ],
      "payable": false,
      "stateMutability": "view",
      "type": "function",
      "signature": "0xb739fcba"
    },
    {
      "constant": true,
      "inputs": [],
      "name": "delegator",
      "outputs": [
        {
          "name": "",
          "type": "address"
        }
      ],
      "payable": false,
      "stateMutability": "view",
      "type": "function",
      "signature": "0xce9b7930"
    },
    {
      "constant": true,
      "inputs": [
        {
          "name": "",
          "type": "bytes32"
        }
      ],
      "name": "controllers",
      "outputs": [
        {
          "name": "",
          "type": "address"
        }
      ],
      "payable": false,
      "stateMutability": "view",
      "type": "function",
      "signature": "0xfbae406a"
    },
    {
      "inputs": [],
      "payable": false,
      "stateMutability": "nonpayable",
      "type": "constructor",
      "signature": "constructor"
    },
    {
      "anonymous": false,
      "inputs": [
        {
          "indexed": false,
          "name": "release",
          "type": "uint256"
        },
        {
          "indexed": false,
          "name": "contractName",
          "type": "bytes32"
        },
        {
          "indexed": false,
          "name": "contractAddress",
          "type": "address"
        }
      ],
      "name": "LogContractRegistered",
      "type": "event",
      "signature": "0x15e2e693a18919eb5481862f0ce3bc926a4d9c18df99ce27af43e77ee60aa5b1"
    },
    {
      "anonymous": false,
      "inputs": [
        {
          "indexed": false,
          "name": "release",
          "type": "uint256"
        },
        {
          "indexed": false,
          "name": "contractName",
          "type": "bytes32"
        }
      ],
      "name": "LogContractDeregistered",
      "type": "event",
      "signature": "0x597fc21dedcba8a42c130014d59c8f62ddb37b06d6b8b13f135572882fccde5b"
    },
    {
      "anonymous": false,
      "inputs": [
        {
          "indexed": false,
          "name": "interfaceId",
          "type": "bytes4"
        },
        {
          "indexed": false,
          "name": "contractName",
          "type": "bytes32"
        }
      ],
      "name": "LogInterfaceIdRegistered",
      "type": "event",
      "signature": "0x92cc6cb50e8b2529c11ac7ab82b32bfffd58e8a9f370d111a91a9d7f41969091"
    },
    {
      "anonymous": false,
      "inputs": [
        {
          "indexed": false,
          "name": "release",
          "type": "uint256"
        }
      ],
      "name": "LogReleasePrepared",
      "type": "event",
      "signature": "0x0993b2797ae1340d35a5fe67ea18c07b9c0f39269da7db9da65fa5c1becca419"
    },
    {
      "constant": false,
      "inputs": [
        {
          "name": "_storage",
          "type": "address"
        }
      ],
      "name": "assignStorage",
      "outputs": [],
      "payable": false,
      "stateMutability": "nonpayable",
      "type": "function",
      "signature": "0xe71359bf"
    },
    {
      "constant": false,
      "inputs": [
        {
          "name": "_name",
          "type": "bytes32"
        },
        {
          "name": "_addr",
          "type": "address"
        }
      ],
      "name": "registerService",
      "outputs": [],
      "payable": false,
      "stateMutability": "nonpayable",
      "type": "function",
      "signature": "0x72dd0ff8"
    },
    {
      "constant": true,
      "inputs": [],
      "name": "getRelease",
      "outputs": [
        {
          "name": "_release",
          "type": "uint256"
        }
      ],
      "payable": false,
      "stateMutability": "view",
      "type": "function",
      "signature": "0x76b707b7"
    },
    {
      "constant": false,
      "inputs": [
        {
          "name": "_release",
          "type": "uint256"
        },
        {
          "name": "_contractName",
          "type": "bytes32"
        },
        {
          "name": "_contractAddress",
          "type": "address"
        }
      ],
      "name": "registerInRelease",
      "outputs": [],
      "payable": false,
      "stateMutability": "nonpayable",
      "type": "function",
      "signature": "0xf253f403"
    },
    {
      "constant": false,
      "inputs": [
        {
          "name": "_contractName",
          "type": "bytes32"
        },
        {
          "name": "_contractAddress",
          "type": "address"
        }
      ],
      "name": "register",
      "outputs": [],
      "payable": false,
      "stateMutability": "nonpayable",
      "type": "function",
      "signature": "0xd22057a9"
    },
    {
      "constant": false,
      "inputs": [
        {
          "name": "_release",
          "type": "uint256"
        },
        {
          "name": "_contractName",
          "type": "bytes32"
        }
      ],
      "name": "deregisterInRelease",
      "outputs": [],
      "payable": false,
      "stateMutability": "nonpayable",
      "type": "function",
      "signature": "0xdee86bc2"
    },
    {
      "constant": false,
      "inputs": [
        {
          "name": "_contractName",
          "type": "bytes32"
        }
      ],
      "name": "deregister",
      "outputs": [],
      "payable": false,
      "stateMutability": "nonpayable",
      "type": "function",
      "signature": "0x20813154"
    },
    {
      "constant": false,
      "inputs": [],
      "name": "prepareRelease",
      "outputs": [
        {
          "name": "_release",
          "type": "uint256"
        }
      ],
      "payable": false,
      "stateMutability": "nonpayable",
      "type": "function",
      "signature": "0xdfba2a6c"
    },
    {
      "constant": true,
      "inputs": [
        {
          "name": "_release",
          "type": "uint256"
        },
        {
          "name": "_contractName",
          "type": "bytes32"
        }
      ],
      "name": "getContractInRelease",
      "outputs": [
        {
          "name": "_addr",
          "type": "address"
        }
      ],
      "payable": false,
      "stateMutability": "view",
      "type": "function",
      "signature": "0xda70cc03"
    },
    {
      "constant": true,
      "inputs": [
        {
          "name": "_contractName",
          "type": "bytes32"
        }
      ],
      "name": "getContract",
      "outputs": [
        {
          "name": "_addr",
          "type": "address"
        }
      ],
      "payable": false,
      "stateMutability": "view",
      "type": "function",
      "signature": "0xe16c7d98"
    },
    {
      "constant": true,
      "inputs": [
        {
          "name": "_contractName",
          "type": "bytes32"
        }
      ],
      "name": "getService",
      "outputs": [
        {
          "name": "_addr",
          "type": "address"
        }
      ],
      "payable": false,
      "stateMutability": "view",
      "type": "function",
      "signature": "0xda47d856"
    }
  ],
  "bytecode": "0x6080604052606460015534801561001557600080fd5b5033600460007f44414f0000000000000000000000000000000000000000000000000000000000815260200190815260200160002060006101000a81548173ffffffffffffffffffffffffffffffffffffffff021916908373ffffffffffffffffffffffffffffffffffffffff16021790555061139a806100976000396000f3fe608060405234801561001057600080fd5b5060043610610128576000357c010000000000000000000000000000000000000000000000000000000090048063d22057a9116100bf578063dfba2a6c1161008e578063dfba2a6c1461047d578063e16c7d981461049b578063e71359bf14610509578063f253f4031461054d578063fbae406a146105a557610128565b8063d22057a914610311578063da47d8561461035f578063da70cc03146103cd578063dee86bc21461044557610128565b806386d1a69f116100fb57806386d1a69f1461023f578063aefed5d11461025d578063b739fcba146102a9578063ce9b7930146102c757610128565b8063184c68be1461012d57806320813154146101a557806372dd0ff8146101d357806376b707b714610221575b600080fd5b6101636004803603604081101561014357600080fd5b810190808035906020019092919080359060200190929190505050610613565b604051808273ffffffffffffffffffffffffffffffffffffffff1673ffffffffffffffffffffffffffffffffffffffff16815260200191505060405180910390f35b6101d1600480360360208110156101bb57600080fd5b8101908080359060200190929190505050610655565b005b61021f600480360360408110156101e957600080fd5b8101908080359060200190929190803573ffffffffffffffffffffffffffffffffffffffff16906020019092919050505061072f565b005b610229610850565b6040518082815260200191505060405180910390f35b610247610859565b6040518082815260200191505060405180910390f35b6102936004803603604081101561027357600080fd5b81019080803590602001909291908035906020019092919050505061085f565b6040518082815260200191505060405180910390f35b6102b161088f565b6040518082815260200191505060405180910390f35b6102cf610895565b604051808273ffffffffffffffffffffffffffffffffffffffff1673ffffffffffffffffffffffffffffffffffffffff16815260200191505060405180910390f35b61035d6004803603604081101561032757600080fd5b8101908080359060200190929190803573ffffffffffffffffffffffffffffffffffffffff1690602001909291905050506108bb565b005b61038b6004803603602081101561037557600080fd5b8101908080359060200190929190505050610997565b604051808273ffffffffffffffffffffffffffffffffffffffff1673ffffffffffffffffffffffffffffffffffffffff16815260200191505060405180910390f35b610403600480360360408110156103e357600080fd5b8101908080359060200190929190803590602001909291905050506109d4565b604051808273ffffffffffffffffffffffffffffffffffffffff1673ffffffffffffffffffffffffffffffffffffffff16815260200191505060405180910390f35b61047b6004803603604081101561045b57600080fd5b810190808035906020019092919080359060200190929190505050610a23565b005b610485610c7b565b6040518082815260200191505060405180910390f35b6104c7600480360360208110156104b157600080fd5b8101908080359060200190929190505050610ecd565b604051808273ffffffffffffffffffffffffffffffffffffffff1673ffffffffffffffffffffffffffffffffffffffff16815260200191505060405180910390f35b61054b6004803603602081101561051f57600080fd5b81019080803573ffffffffffffffffffffffffffffffffffffffff169060200190929190505050610ee2565b005b6105a36004803603606081101561056357600080fd5b810190808035906020019092919080359060200190929190803573ffffffffffffffffffffffffffffffffffffffff169060200190929190505050610fb9565b005b6105d1600480360360208110156105bb57600080fd5b81019080803590602001909291905050506112a6565b604051808273ffffffffffffffffffffffffffffffffffffffff1673ffffffffffffffffffffffffffffffffffffffff16815260200191505060405180910390f35b60026020528160005260406000206020528060005260406000206000915091509054906101000a900473ffffffffffffffffffffffffffffffffffffffff1681565b61067e7f44414f0000000000000000000000000000000000000000000000000000000000610997565b73ffffffffffffffffffffffffffffffffffffffff163373ffffffffffffffffffffffffffffffffffffffff16141515610720576040517f08c379a00000000000000000000000000000000000000000000000000000000081526004018080602001828103825260168152602001807f4552524f523a3a4e4f545f44414f5f534552564943450000000000000000000081525060200191505060405180910390fd5b61072c60005482610a23565b50565b6107587f44414f0000000000000000000000000000000000000000000000000000000000610997565b73ffffffffffffffffffffffffffffffffffffffff163373ffffffffffffffffffffffffffffffffffffffff161415156107fa576040517f08c379a00000000000000000000000000000000000000000000000000000000081526004018080602001828103825260168152602001807f4552524f523a3a4e4f545f44414f5f534552564943450000000000000000000081525060200191505060405180910390fd5b806004600084815260200190815260200160002060006101000a81548173ffffffffffffffffffffffffffffffffffffffff021916908373ffffffffffffffffffffffffffffffffffffffff1602179055505050565b60008054905090565b60005481565b60036020528160005260406000208181548110151561087a57fe5b90600052602060002001600091509150505481565b60015481565b600560009054906101000a900473ffffffffffffffffffffffffffffffffffffffff1681565b6108e47f44414f0000000000000000000000000000000000000000000000000000000000610997565b73ffffffffffffffffffffffffffffffffffffffff163373ffffffffffffffffffffffffffffffffffffffff16141515610986576040517f08c379a00000000000000000000000000000000000000000000000000000000081526004018080602001828103825260168152602001807f4552524f523a3a4e4f545f44414f5f534552564943450000000000000000000081525060200191505060405180910390fd5b6109936000548383610fb9565b5050565b60006004600083815260200190815260200160002060009054906101000a900473ffffffffffffffffffffffffffffffffffffffff169050919050565b600060026000848152602001908152602001600020600083815260200190815260200160002060009054906101000a900473ffffffffffffffffffffffffffffffffffffffff16905092915050565b610a4c7f44414f0000000000000000000000000000000000000000000000000000000000610997565b73ffffffffffffffffffffffffffffffffffffffff163373ffffffffffffffffffffffffffffffffffffffff16141515610aee576040517f08c379a00000000000000000000000000000000000000000000000000000000081526004018080602001828103825260168152602001807f4552524f523a3a4e4f545f44414f5f534552564943450000000000000000000081525060200191505060405180910390fd5b6000806003600085815260200190815260200160002080549050905060008090505b81811015610b5f57836003600087815260200190815260200160002082815481101515610b3957fe5b90600052602060002001541415610b5257809250610b5f565b8080600101915050610b10565b5060018103821015610bc8576003600085815260200190815260200160002060018203815481101515610b8e57fe5b90600052602060002001546003600086815260200190815260200160002083815481101515610bb957fe5b90600052602060002001819055505b60036000858152602001908152602001600020805480919060019003610bee919061131d565b5060026000858152602001908152602001600020600084815260200190815260200160002060006101000a81549073ffffffffffffffffffffffffffffffffffffffff02191690557f597fc21dedcba8a42c130014d59c8f62ddb37b06d6b8b13f135572882fccde5b8484604051808381526020018281526020019250505060405180910390a150505050565b6000610ca67f44414f0000000000000000000000000000000000000000000000000000000000610997565b73ffffffffffffffffffffffffffffffffffffffff163373ffffffffffffffffffffffffffffffffffffffff16141515610d48576040517f08c379a00000000000000000000000000000000000000000000000000000000081526004018080602001828103825260168152602001807f4552524f523a3a4e4f545f44414f5f534552564943450000000000000000000081525060200191505060405180910390fd5b60006003600080548152602001908152602001600020805490509050600081111515610ddc576040517f08c379a00000000000000000000000000000000000000000000000000000000081526004018080602001828103825260148152602001807f4552524f523a3a454d5054595f52454c4541534500000000000000000000000081525060200191505060405180910390fd5b6000600160005401905060008090505b82811015610e82576000600360008054815260200190815260200160002082815481101515610e1757fe5b90600052602060002001549050610e7483826002600080548152602001908152602001600020600085815260200190815260200160002060009054906101000a900473ffffffffffffffffffffffffffffffffffffffff16610fb9565b508080600101915050610dec565b508060008190555060005492507f0993b2797ae1340d35a5fe67ea18c07b9c0f39269da7db9da65fa5c1becca4196000546040518082815260200191505060405180910390a1505090565b6000610edb600054836109d4565b9050919050565b610f0b7f44414f0000000000000000000000000000000000000000000000000000000000610997565b73ffffffffffffffffffffffffffffffffffffffff163373ffffffffffffffffffffffffffffffffffffffff16141515610fad576040517f08c379a00000000000000000000000000000000000000000000000000000000081526004018080602001828103825260168152602001807f4552524f523a3a4e4f545f44414f5f534552564943450000000000000000000081525060200191505060405180910390fd5b610fb6816112d9565b50565b610fe27f44414f0000000000000000000000000000000000000000000000000000000000610997565b73ffffffffffffffffffffffffffffffffffffffff163373ffffffffffffffffffffffffffffffffffffffff16141515611084576040517f08c379a00000000000000000000000000000000000000000000000000000000081526004018080602001828103825260168152602001807f4552524f523a3a4e4f545f44414f5f534552564943450000000000000000000081525060200191505060405180910390fd5b600154600360008581526020019081526020016000208054905011151515611114576040517f08c379a000000000000000000000000000000000000000000000000000000000815260040180806020018281038252601a8152602001807f4552524f523a3a4d41585f434f4e5452414354535f4c494d495400000000000081525060200191505060405180910390fd5b600073ffffffffffffffffffffffffffffffffffffffff1660026000858152602001908152602001600020600084815260200190815260200160002060009054906101000a900473ffffffffffffffffffffffffffffffffffffffff1673ffffffffffffffffffffffffffffffffffffffff1614156111cb57600360008481526020019081526020016000208290806001815401808255809150509060018203906000526020600020016000909192909190915055505b8060026000858152602001908152602001600020600084815260200190815260200160002060006101000a81548173ffffffffffffffffffffffffffffffffffffffff021916908373ffffffffffffffffffffffffffffffffffffffff1602179055507f15e2e693a18919eb5481862f0ce3bc926a4d9c18df99ce27af43e77ee60aa5b1838383604051808481526020018381526020018273ffffffffffffffffffffffffffffffffffffffff1673ffffffffffffffffffffffffffffffffffffffff168152602001935050505060405180910390a1505050565b60046020528060005260406000206000915054906101000a900473ffffffffffffffffffffffffffffffffffffffff1681565b80600560006101000a81548173ffffffffffffffffffffffffffffffffffffffff021916908373ffffffffffffffffffffffffffffffffffffffff16021790555050565b815481835581811115611344578183600052602060002091820191016113439190611349565b5b505050565b61136b91905b8082111561136757600081600090555060010161134f565b5090565b9056fea165627a7a72305820922167fef83bd7385c688205a63aeebbe4bb3891008ba91090c175bc1243c3770029",
  "source": "pragma solidity 0.5.2;\n\nimport \"./RegistryStorageModel.sol\";\nimport \"../../shared/BaseModuleController.sol\";\nimport \"../../shared/AccessModifiers.sol\";\n\ncontract RegistryController is RegistryStorageModel, BaseModuleController, AccessModifiers {\n    constructor() public {\n        // Init\n        controllers[\"DAO\"] = msg.sender;\n    }\n\n    function assignStorage(address _storage) external onlyDAO {\n        _assignStorage(_storage);\n    }\n\n    function registerService(bytes32 _name, address _addr) external onlyDAO {\n        controllers[_name] = _addr;\n    }\n\n    function getRelease() external view returns (uint256 _release) {\n        _release = release;\n    }\n\n    /**\n     * @dev Register contract in certain release\n     */\n    function registerInRelease(\n        uint256 _release,\n        bytes32 _contractName,\n        address _contractAddress\n    ) public onlyDAO {\n        require(\n            contractNames[_release].length <= maxContracts,\n            \"ERROR::MAX_CONTRACTS_LIMIT\"\n        );\n\n        if (contracts[_release][_contractName] == address(0)) {\n            contractNames[_release].push(_contractName);\n        }\n\n        contracts[_release][_contractName] = _contractAddress;\n\n        emit LogContractRegistered(_release, _contractName, _contractAddress);\n    }\n\n    /**\n     * @dev Register contract in the latest release\n     */\n    function register(bytes32 _contractName, address _contractAddress)\n        public\n        onlyDAO\n    {\n        registerInRelease(release, _contractName, _contractAddress);\n    }\n\n    /**\n     * @dev Deregister contract in certain release\n     */\n    function deregisterInRelease(uint256 _release, bytes32 _contractName)\n        public\n        onlyDAO\n    {\n        uint256 indexToDelete;\n        uint256 countContracts = contractNames[_release].length;\n\n        // todo: think about how to avoid this loop\n        for (uint256 i = 0; i < countContracts; i++) {\n            if (contractNames[_release][i] == _contractName) {\n                indexToDelete = i;\n                break;\n            }\n        }\n\n        if (indexToDelete < countContracts - 1) {\n            contractNames[_release][indexToDelete] = contractNames[_release][countContracts - 1];\n        }\n\n        contractNames[_release].length--;\n        delete contracts[_release][_contractName];\n\n        emit LogContractDeregistered(_release, _contractName);\n    }\n\n    /**\n     * @dev Deregister contract in the latest release\n     */\n    function deregister(bytes32 _contractName) public onlyDAO {\n        deregisterInRelease(release, _contractName);\n    }\n\n    /**\n     * @dev Create new release, copy contracts from previous release\n     */\n    function prepareRelease() public onlyDAO returns (uint256 _release) {\n        uint256 countContracts = contractNames[release].length;\n\n        require(countContracts > 0, \"ERROR::EMPTY_RELEASE\");\n\n        uint256 nextRelease = release + 1;\n\n        // todo: think about how to avoid this loop\n        for (uint256 i = 0; i < countContracts; i++) {\n            bytes32 contractName = contractNames[release][i];\n            registerInRelease(\n                nextRelease,\n                contractName,\n                contracts[release][contractName]\n            );\n        }\n\n        release = nextRelease;\n        _release = release;\n\n        emit LogReleasePrepared(release);\n    }\n\n    /**\n     * @dev Get contract's address in certain release\n     */\n    function getContractInRelease(uint256 _release, bytes32 _contractName)\n        public\n        view\n        returns (address _addr)\n    {\n        _addr = contracts[_release][_contractName];\n    }\n\n    /**\n     * @dev Get contract's address in the latest release\n     */\n    function getContract(bytes32 _contractName)\n        public\n        view\n        returns (address _addr)\n    {\n        _addr = getContractInRelease(release, _contractName);\n    }\n\n    function getService(bytes32 _contractName)\n        public\n        view\n        returns (address _addr)\n    {\n        _addr = controllers[_contractName];\n    }\n}\n",
  "sourcePath": "/Users/ka/Projects/Altoros/Etherisc/dip-platform/core/gif-contracts/contracts/modules/registry/RegistryController.v1.sol",
  "compiler": {
    "name": "solc",
    "version": "0.5.2+commit.1df8f40c.Emscripten.clang"
  },
  "schemaVersion": "3.0.1",
  "updatedAt": "2019-02-08T13:27:03.429Z",
  "devdoc": {
    "methods": {
      "deregister(bytes32)": {
        "details": "Deregister contract in the latest release"
      },
      "deregisterInRelease(uint256,bytes32)": {
        "details": "Deregister contract in certain release"
      },
      "getContract(bytes32)": {
        "details": "Get contract's address in the latest release"
      },
      "getContractInRelease(uint256,bytes32)": {
        "details": "Get contract's address in certain release"
      },
      "prepareRelease()": {
        "details": "Create new release, copy contracts from previous release"
      },
      "register(bytes32,address)": {
        "details": "Register contract in the latest release"
      },
      "registerInRelease(uint256,bytes32,address)": {
        "details": "Register contract in certain release"
      }
    }
  },
  "userdoc": {
    "methods": {}
  }
}