{
  "contractName": "RegistryStorageModel",
  "abi": [
    {
      "constant": true,
      "inputs": [
        {
          "name": "",
          "type": "uint256"
        },
        {
          "name": "",
          "type": "bytes32"
        }
      ],
      "name": "contracts",
      "outputs": [
        {
          "name": "",
          "type": "address"
        }
      ],
      "payable": false,
      "stateMutability": "view",
      "type": "function"
    },
    {
      "constant": true,
      "inputs": [],
      "name": "release",
      "outputs": [
        {
          "name": "",
          "type": "uint256"
        }
      ],
      "payable": false,
      "stateMutability": "view",
      "type": "function"
    },
    {
      "constant": true,
      "inputs": [
        {
          "name": "",
          "type": "uint256"
        },
        {
          "name": "",
          "type": "uint256"
        }
      ],
      "name": "contractNames",
      "outputs": [
        {
          "name": "",
          "type": "bytes32"
        }
      ],
      "payable": false,
      "stateMutability": "view",
      "type": "function"
    },
    {
      "constant": true,
      "inputs": [],
      "name": "maxContracts",
      "outputs": [
        {
          "name": "",
          "type": "uint256"
        }
      ],
      "payable": false,
      "stateMutability": "view",
      "type": "function"
    },
    {
      "constant": true,
      "inputs": [
        {
          "name": "",
          "type": "bytes32"
        }
      ],
      "name": "controllers",
      "outputs": [
        {
          "name": "",
          "type": "address"
        }
      ],
      "payable": false,
      "stateMutability": "view",
      "type": "function"
    },
    {
      "anonymous": false,
      "inputs": [
        {
          "indexed": false,
          "name": "release",
          "type": "uint256"
        },
        {
          "indexed": false,
          "name": "contractName",
          "type": "bytes32"
        },
        {
          "indexed": false,
          "name": "contractAddress",
          "type": "address"
        }
      ],
      "name": "LogContractRegistered",
      "type": "event"
    },
    {
      "anonymous": false,
      "inputs": [
        {
          "indexed": false,
          "name": "release",
          "type": "uint256"
        },
        {
          "indexed": false,
          "name": "contractName",
          "type": "bytes32"
        }
      ],
      "name": "LogContractDeregistered",
      "type": "event"
    },
    {
      "anonymous": false,
      "inputs": [
        {
          "indexed": false,
          "name": "interfaceId",
          "type": "bytes4"
        },
        {
          "indexed": false,
          "name": "contractName",
          "type": "bytes32"
        }
      ],
      "name": "LogInterfaceIdRegistered",
      "type": "event"
    },
    {
      "anonymous": false,
      "inputs": [
        {
          "indexed": false,
          "name": "release",
          "type": "uint256"
        }
      ],
      "name": "LogReleasePrepared",
      "type": "event"
    }
  ],
  "bytecode": "0x6080604052606460015534801561001557600080fd5b506101e9806100256000396000f3fe608060405234801561001057600080fd5b5060043610610073577c01000000000000000000000000000000000000000000000000000000006000350463184c68be811461007857806386d1a69f146100c4578063aefed5d1146100de578063b739fcba14610101578063fbae406a14610109575b600080fd5b61009b6004803603604081101561008e57600080fd5b5080359060200135610126565b6040805173ffffffffffffffffffffffffffffffffffffffff9092168252519081900360200190f35b6100cc610159565b60408051918252519081900360200190f35b6100cc600480360360408110156100f457600080fd5b508035906020013561015f565b6100cc61018f565b61009b6004803603602081101561011f57600080fd5b5035610195565b600260209081526000928352604080842090915290825290205473ffffffffffffffffffffffffffffffffffffffff1681565b60005481565b60036020528160005260406000208181548110151561017a57fe5b90600052602060002001600091509150505481565b60015481565b60046020526000908152604090205473ffffffffffffffffffffffffffffffffffffffff168156fea165627a7a7230582093e0739610991f73cbb58abe654e62d5834e1a11dff0eb9cabc31f3b4a4ad6370029",
  "source": "pragma solidity 0.5.2;\n\nimport \"./IRegistry.sol\";\n\ncontract RegistryStorageModel is IRegistry {\n    /**\n     * @dev Current release\n     */\n    uint256 public release;\n\n    /**\n     * @dev  Save number of items to iterate through\n     */\n    uint256 public maxContracts = 100;\n\n    // release => contract name => contract address\n    mapping(uint256 => mapping(bytes32 => address)) public contracts;\n    // release => contract name []\n    mapping(uint256 => bytes32[]) public contractNames;\n    // controller name => address\n    mapping(bytes32 => address) public controllers;\n}\n",
  "sourcePath": "/Users/ka/Projects/Altoros/Etherisc/dip-platform/core/gif-contracts/contracts/modules/registry/RegistryStorageModel.sol",
  "compiler": {
    "name": "solc",
    "version": "0.5.2+commit.1df8f40c.Emscripten.clang"
  },
  "schemaVersion": "3.0.2",
  "updatedAt": "2019-02-18T10:13:22.898Z",
  "devdoc": {
    "methods": {}
  },
  "userdoc": {
    "methods": {}
  }
}