{
  "contractName": "Registry",
  "abi": [
    {
      "constant": true,
      "inputs": [
        {
          "name": "",
          "type": "uint256"
        },
        {
          "name": "",
          "type": "bytes32"
        }
      ],
      "name": "contracts",
      "outputs": [
        {
          "name": "",
          "type": "address"
        }
      ],
      "payable": false,
      "stateMutability": "view",
      "type": "function",
      "signature": "0x184c68be"
    },
    {
      "constant": true,
      "inputs": [],
      "name": "release",
      "outputs": [
        {
          "name": "",
          "type": "uint256"
        }
      ],
      "payable": false,
      "stateMutability": "view",
      "type": "function",
      "signature": "0x86d1a69f"
    },
    {
      "constant": true,
      "inputs": [
        {
          "name": "",
          "type": "uint256"
        },
        {
          "name": "",
          "type": "uint256"
        }
      ],
      "name": "contractNames",
      "outputs": [
        {
          "name": "",
          "type": "bytes32"
        }
      ],
      "payable": false,
      "stateMutability": "view",
      "type": "function",
      "signature": "0xaefed5d1"
    },
    {
      "constant": true,
      "inputs": [],
      "name": "maxContracts",
      "outputs": [
        {
          "name": "",
          "type": "uint256"
        }
      ],
      "payable": false,
      "stateMutability": "view",
      "type": "function",
      "signature": "0xb739fcba"
    },
    {
      "constant": true,
      "inputs": [],
      "name": "controller",
      "outputs": [
        {
          "name": "",
          "type": "address"
        }
      ],
      "payable": false,
      "stateMutability": "view",
      "type": "function",
      "signature": "0xf77c4791"
    },
    {
      "constant": true,
      "inputs": [
        {
          "name": "",
          "type": "bytes32"
        }
      ],
      "name": "controllers",
      "outputs": [
        {
          "name": "",
          "type": "address"
        }
      ],
      "payable": false,
      "stateMutability": "view",
      "type": "function",
      "signature": "0xfbae406a"
    },
    {
      "inputs": [
        {
          "name": "_controller",
          "type": "address"
        }
      ],
      "payable": false,
      "stateMutability": "nonpayable",
      "type": "constructor",
      "signature": "constructor"
    },
    {
      "payable": false,
      "stateMutability": "nonpayable",
      "type": "fallback"
    },
    {
      "anonymous": false,
      "inputs": [
        {
          "indexed": false,
          "name": "release",
          "type": "uint256"
        },
        {
          "indexed": false,
          "name": "contractName",
          "type": "bytes32"
        },
        {
          "indexed": false,
          "name": "contractAddress",
          "type": "address"
        }
      ],
      "name": "LogContractRegistered",
      "type": "event",
      "signature": "0x15e2e693a18919eb5481862f0ce3bc926a4d9c18df99ce27af43e77ee60aa5b1"
    },
    {
      "anonymous": false,
      "inputs": [
        {
          "indexed": false,
          "name": "release",
          "type": "uint256"
        },
        {
          "indexed": false,
          "name": "contractName",
          "type": "bytes32"
        }
      ],
      "name": "LogContractDeregistered",
      "type": "event",
      "signature": "0x597fc21dedcba8a42c130014d59c8f62ddb37b06d6b8b13f135572882fccde5b"
    },
    {
      "anonymous": false,
      "inputs": [
        {
          "indexed": false,
          "name": "interfaceId",
          "type": "bytes4"
        },
        {
          "indexed": false,
          "name": "contractName",
          "type": "bytes32"
        }
      ],
      "name": "LogInterfaceIdRegistered",
      "type": "event",
      "signature": "0x92cc6cb50e8b2529c11ac7ab82b32bfffd58e8a9f370d111a91a9d7f41969091"
    },
    {
      "anonymous": false,
      "inputs": [
        {
          "indexed": false,
          "name": "release",
          "type": "uint256"
        }
      ],
      "name": "LogReleasePrepared",
      "type": "event",
      "signature": "0x0993b2797ae1340d35a5fe67ea18c07b9c0f39269da7db9da65fa5c1becca419"
    },
    {
      "constant": false,
      "inputs": [
        {
          "name": "_controller",
          "type": "address"
        }
      ],
      "name": "assignController",
      "outputs": [],
      "payable": false,
      "stateMutability": "nonpayable",
      "type": "function",
      "signature": "0xec1bc1ac"
    }
  ],
  "bytecode": "0x6080604052606460015534801561001557600080fd5b506040516020806104e58339810180604052602081101561003557600080fd5b50517f44414f000000000000000000000000000000000000000000000000000000000060005260046020527f0f29151ae2e0b82c1d6e736e8cf325225d0784778f30ebbe73948237e7468a388054600160a060020a031916331790556100a3816401000000006100a9810204565b506100cb565b60058054600160a060020a031916600160a060020a0392909216919091179055565b61040b806100da6000396000f3fe608060405234801561001057600080fd5b506004361061009a576000357c010000000000000000000000000000000000000000000000000000000090048063b739fcba11610078578063b739fcba1461012d578063ec1bc1ac14610135578063f77c47911461015b578063fbae406a146101635761009a565b8063184c68be146100b157806386d1a69f146100f0578063aefed5d11461010a575b6005546100af90600160a060020a0316610180565b005b6100d4600480360360408110156100c757600080fd5b5080359060200135610257565b60408051600160a060020a039092168252519081900360200190f35b6100f861027d565b60408051918252519081900360200190f35b6100f86004803603604081101561012057600080fd5b5080359060200135610283565b6100f86102b3565b6100af6004803603602081101561014b57600080fd5b5035600160a060020a03166102b9565b6100d4610386565b6100d46004803603602081101561017957600080fd5b5035610395565b600160a060020a03811615156101f757604080517f08c379a000000000000000000000000000000000000000000000000000000000815260206004820152601d60248201527f4552524f523a3a554e4b4e4f574e5f494d504c454d454e544154494f4e000000604482015290519081900360640190fd5b60606000368080601f016020809104026020016040519081016040528093929190818152602001838380828437600092018290525084519495509384935091505060208401855af43d604051816000823e828015610253578282f35b8282fd5b6002602090815260009283526040808420909152908252902054600160a060020a031681565b60005481565b60036020528160005260406000208181548110151561029e57fe5b90600052602060002001600091509150505481565b60015481565b7f44414f000000000000000000000000000000000000000000000000000000000060005260046020527f0f29151ae2e0b82c1d6e736e8cf325225d0784778f30ebbe73948237e7468a3854600160a060020a0316331461037a57604080517f08c379a000000000000000000000000000000000000000000000000000000000815260206004820152601560248201527f4552524f523a3a4e4f545f415554484f52495a45440000000000000000000000604482015290519081900360640190fd5b610383816103b0565b50565b600554600160a060020a031681565b600460205260009081526040902054600160a060020a031681565b6005805473ffffffffffffffffffffffffffffffffffffffff1916600160a060020a039290921691909117905556fea165627a7a723058206429c2494483525c336ae588d83605bdbf4f0871c1c7ba0ab9ba498e89e094260029",
  "source": "pragma solidity 0.5.2;\n\nimport \"./RegistryStorageModel.sol\";\nimport \"../../shared/BaseModuleStorage.sol\";\n\ncontract Registry is RegistryStorageModel, BaseModuleStorage {\n    constructor(address _controller) public {\n        // Init\n        controllers[\"DAO\"] = msg.sender;\n        _assignController(_controller);\n    }\n\n    function assignController(address _controller) external {\n        // todo: use onlyDAO modifier\n        require(msg.sender == controllers[\"DAO\"], \"ERROR::NOT_AUTHORIZED\");\n        _assignController(_controller);\n    }\n}\n",
  "sourcePath": "/Users/ka/Projects/Altoros/Etherisc/dip-platform/core/gif-contracts/contracts/modules/registry/Registry.sol",
  "compiler": {
    "name": "solc",
    "version": "0.5.2+commit.1df8f40c.Emscripten.clang"
  },
  "schemaVersion": "3.0.1",
  "updatedAt": "2019-02-13T15:21:07.898Z",
  "devdoc": {
    "methods": {}
  },
  "userdoc": {
    "methods": {}
  }
}