{
  "contractName": "AccessStorageModel",
  "abi": [
    {
      "constant": true,
      "inputs": [
        {
          "name": "",
          "type": "address"
        }
      ],
      "name": "permissions",
      "outputs": [
        {
          "name": "",
          "type": "uint256"
        }
      ],
      "payable": false,
      "stateMutability": "view",
      "type": "function"
    },
    {
      "constant": true,
      "inputs": [
        {
          "name": "",
          "type": "uint256"
        }
      ],
      "name": "rolesKeys",
      "outputs": [
        {
          "name": "",
          "type": "bytes32"
        }
      ],
      "payable": false,
      "stateMutability": "view",
      "type": "function"
    },
    {
      "constant": true,
      "inputs": [
        {
          "name": "",
          "type": "bytes32"
        }
      ],
      "name": "roles",
      "outputs": [
        {
          "name": "",
          "type": "uint256"
        }
      ],
      "payable": false,
      "stateMutability": "view",
      "type": "function"
    }
  ],
  "bytecode": "0x608060405234801561001057600080fd5b50610150806100206000396000f3fe608060405234801561001057600080fd5b506004361061005d577c0100000000000000000000000000000000000000000000000000000000600035046301e8820881146100625780632cf88d9e146100a757806395356651146100c4575b600080fd5b6100956004803603602081101561007857600080fd5b503573ffffffffffffffffffffffffffffffffffffffff166100e1565b60408051918252519081900360200190f35b610095600480360360208110156100bd57600080fd5b50356100f3565b610095600480360360208110156100da57600080fd5b5035610112565b60026020526000908152604090205481565b600180548290811061010157fe5b600091825260209091200154905081565b6000602081905290815260409020548156fea165627a7a723058207980a4b0ee8016a797d8daf7742893d38e6c3b2d38b304cfefcd86d5ca231a240029",
  "source": "pragma solidity 0.5.2;\n\nimport \"./IAccess.sol\";\n\ncontract AccessStorageModel is IAccess {\n    mapping(bytes32 => uint256) public roles;\n    bytes32[] public rolesKeys;\n\n    mapping(address => uint256) public permissions;\n}\n",
  "sourcePath": "/Users/ka/Projects/Altoros/Etherisc/dip-platform/core/gif-contracts/contracts/modules/access/AccessStorageModel.sol",
  "compiler": {
    "name": "solc",
    "version": "0.5.2+commit.1df8f40c.Emscripten.clang"
  },
  "schemaVersion": "3.0.2",
  "updatedAt": "2019-02-25T08:57:37.599Z",
  "devdoc": {
    "methods": {}
  },
  "userdoc": {
    "methods": {}
  }
}