{
  "contractName": "DAOService",
  "abi": [
    {
      "constant": false,
      "inputs": [
        {
          "name": "_registry",
          "type": "address"
        }
      ],
      "name": "assignRegistry",
      "outputs": [],
      "payable": false,
      "stateMutability": "nonpayable",
      "type": "function",
      "signature": "0x51b68ee4"
    },
    {
      "constant": true,
      "inputs": [],
      "name": "registry",
      "outputs": [
        {
          "name": "",
          "type": "address"
        }
      ],
      "payable": false,
      "stateMutability": "view",
      "type": "function",
      "signature": "0x7b103999"
    },
    {
      "constant": true,
      "inputs": [],
      "name": "NAME",
      "outputs": [
        {
          "name": "",
          "type": "bytes32"
        }
      ],
      "payable": false,
      "stateMutability": "view",
      "type": "function",
      "signature": "0xa3f4df7e"
    },
    {
      "constant": true,
      "inputs": [
        {
          "name": "_contractName",
          "type": "bytes32"
        }
      ],
      "name": "getService",
      "outputs": [
        {
          "name": "_addr",
          "type": "address"
        }
      ],
      "payable": false,
      "stateMutability": "view",
      "type": "function",
      "signature": "0xda47d856"
    },
    {
      "constant": true,
      "inputs": [
        {
          "name": "_contractName",
          "type": "bytes32"
        }
      ],
      "name": "getContract",
      "outputs": [
        {
          "name": "_addr",
          "type": "address"
        }
      ],
      "payable": false,
      "stateMutability": "view",
      "type": "function",
      "signature": "0xe16c7d98"
    },
    {
      "inputs": [
        {
          "name": "_registry",
          "type": "address"
        }
      ],
      "payable": false,
      "stateMutability": "nonpayable",
      "type": "constructor",
      "signature": "constructor"
    },
    {
      "constant": false,
      "inputs": [
        {
          "name": "_productId",
          "type": "uint256"
        }
      ],
      "name": "approveProduct",
      "outputs": [],
      "payable": false,
      "stateMutability": "nonpayable",
      "type": "function",
      "signature": "0x27d55495"
    },
    {
      "constant": false,
      "inputs": [
        {
          "name": "_productId",
          "type": "uint256"
        }
      ],
      "name": "disapproveProduct",
      "outputs": [],
      "payable": false,
      "stateMutability": "nonpayable",
      "type": "function",
      "signature": "0xb4ec459d"
    },
    {
      "constant": false,
      "inputs": [
        {
          "name": "_productId",
          "type": "uint256"
        }
      ],
      "name": "pauseProduct",
      "outputs": [],
      "payable": false,
      "stateMutability": "nonpayable",
      "type": "function",
      "signature": "0xf2272a79"
    },
    {
      "constant": false,
      "inputs": [
        {
          "name": "_productId",
          "type": "uint256"
        }
      ],
      "name": "unpauseProduct",
      "outputs": [],
      "payable": false,
      "stateMutability": "nonpayable",
      "type": "function",
      "signature": "0x1b164987"
    },
    {
      "constant": false,
      "inputs": [
        {
          "name": "_role",
          "type": "bytes32"
        }
      ],
      "name": "createRole",
      "outputs": [],
      "payable": false,
      "stateMutability": "nonpayable",
      "type": "function",
      "signature": "0xc42994a2"
    },
    {
      "constant": false,
      "inputs": [
        {
          "name": "_address",
          "type": "address"
        },
        {
          "name": "_role",
          "type": "bytes32"
        }
      ],
      "name": "addRoleToAccount",
      "outputs": [],
      "payable": false,
      "stateMutability": "nonpayable",
      "type": "function",
      "signature": "0xc2e86735"
    },
    {
      "constant": false,
      "inputs": [
        {
          "name": "_address",
          "type": "address"
        }
      ],
      "name": "cleanRolesForAccount",
      "outputs": [],
      "payable": false,
      "stateMutability": "nonpayable",
      "type": "function",
      "signature": "0xf566e10e"
    },
    {
      "constant": false,
      "inputs": [
        {
          "name": "_release",
          "type": "uint256"
        },
        {
          "name": "_contractName",
          "type": "bytes32"
        },
        {
          "name": "_contractAddress",
          "type": "address"
        }
      ],
      "name": "registerInRelease",
      "outputs": [],
      "payable": false,
      "stateMutability": "nonpayable",
      "type": "function",
      "signature": "0xf253f403"
    },
    {
      "constant": false,
      "inputs": [
        {
          "name": "_contractName",
          "type": "bytes32"
        },
        {
          "name": "_contractAddress",
          "type": "address"
        }
      ],
      "name": "register",
      "outputs": [],
      "payable": false,
      "stateMutability": "nonpayable",
      "type": "function",
      "signature": "0xd22057a9"
    },
    {
      "constant": false,
      "inputs": [
        {
          "name": "_release",
          "type": "uint256"
        },
        {
          "name": "_contractName",
          "type": "bytes32"
        }
      ],
      "name": "deregisterInRelease",
      "outputs": [],
      "payable": false,
      "stateMutability": "nonpayable",
      "type": "function",
      "signature": "0xdee86bc2"
    },
    {
      "constant": false,
      "inputs": [
        {
          "name": "_contractName",
          "type": "bytes32"
        }
      ],
      "name": "deregister",
      "outputs": [],
      "payable": false,
      "stateMutability": "nonpayable",
      "type": "function",
      "signature": "0x20813154"
    },
    {
      "constant": false,
      "inputs": [],
      "name": "prepareRelease",
      "outputs": [
        {
          "name": "_release",
          "type": "uint256"
        }
      ],
      "payable": false,
      "stateMutability": "nonpayable",
      "type": "function",
      "signature": "0xdfba2a6c"
    },
    {
      "constant": false,
      "inputs": [
        {
          "name": "_oracleTypeName",
          "type": "bytes32"
        }
      ],
      "name": "activateOracleType",
      "outputs": [],
      "payable": false,
      "stateMutability": "nonpayable",
      "type": "function",
      "signature": "0x4df83672"
    },
    {
      "constant": false,
      "inputs": [
        {
          "name": "_oracleId",
          "type": "uint256"
        }
      ],
      "name": "activateOracle",
      "outputs": [],
      "payable": false,
      "stateMutability": "nonpayable",
      "type": "function",
      "signature": "0xd114d8a1"
    },
    {
      "constant": false,
      "inputs": [
        {
          "name": "_oracleTypeName",
          "type": "bytes32"
        },
        {
          "name": "_oracleId",
          "type": "uint256"
        }
      ],
      "name": "assignOracleToOracleType",
      "outputs": [],
      "payable": false,
      "stateMutability": "nonpayable",
      "type": "function",
      "signature": "0xcd748de8"
    }
  ],
  "bytecode": "0x608060405234801561001057600080fd5b50604051602080610da68339810180604052602081101561003057600080fd5b505160008054600160a060020a03909216600160a060020a0319909216919091179055610d44806100626000396000f3fe608060405234801561001057600080fd5b50600436106101305760003560e060020a90048063cd748de8116100b1578063dfba2a6c11610075578063dfba2a6c14610321578063e16c7d9814610329578063f2272a7914610346578063f253f40314610363578063f566e10e1461039557610130565b8063cd748de814610275578063d114d8a114610298578063d22057a9146102b5578063da47d856146102e1578063dee86bc2146102fe57610130565b80637b103999116100f85780637b103999146101d1578063a3f4df7e146101f5578063b4ec459d1461020f578063c2e867351461022c578063c42994a21461025857610130565b80631b16498714610135578063208131541461015457806327d55495146101715780634df836721461018e57806351b68ee4146101ab575b600080fd5b6101526004803603602081101561014b57600080fd5b50356103bb565b005b6101526004803603602081101561016a57600080fd5b5035610426565b6101526004803603602081101561018757600080fd5b5035610476565b610152600480360360208110156101a457600080fd5b50356104c6565b610152600480360360208110156101c157600080fd5b5035600160a060020a0316610516565b6101d96105e4565b60408051600160a060020a039092168252519081900360200190f35b6101fd6105f3565b60408051918252519081900360200190f35b6101526004803603602081101561022557600080fd5b5035610617565b6101526004803603604081101561024257600080fd5b50600160a060020a038135169060200135610667565b6101526004803603602081101561026e57600080fd5b50356106ed565b6101526004803603604081101561028b57600080fd5b508035906020013561073d565b610152600480360360208110156102ae57600080fd5b5035610795565b610152600480360360408110156102cb57600080fd5b5080359060200135600160a060020a03166107e5565b6101d9600480360360208110156102f757600080fd5b503561084f565b6101526004803603604081101561031457600080fd5b50803590602001356108e7565b6101fd61093f565b6101d96004803603602081101561033f57600080fd5b50356109b7565b6101526004803603602081101561035c57600080fd5b5035610a07565b6101526004803603606081101561037957600080fd5b5080359060208101359060400135600160a060020a0316610a57565b610152600480360360208110156103ab57600080fd5b5035600160a060020a0316610ae6565b6103c3610b48565b600160a060020a0316631b164987826040518263ffffffff1660e060020a02815260040180828152602001915050600060405180830381600087803b15801561040b57600080fd5b505af115801561041f573d6000803e3d6000fd5b5050505050565b61042e610bcb565b600160a060020a03166320813154826040518263ffffffff1660e060020a02815260040180828152602001915050600060405180830381600087803b15801561040b57600080fd5b61047e610b48565b600160a060020a03166327d55495826040518263ffffffff1660e060020a02815260040180828152602001915050600060405180830381600087803b15801561040b57600080fd5b6104ce610c3a565b600160a060020a0316634df83672826040518263ffffffff1660e060020a02815260040180828152602001915050600060405180830381600087803b15801561040b57600080fd5b61053f7f44414f000000000000000000000000000000000000000000000000000000000061084f565b600160a060020a031633146105b557604080517f08c379a000000000000000000000000000000000000000000000000000000000815260206004820152601660248201527f4552524f523a3a4e4f545f44414f5f5345525649434500000000000000000000604482015290519081900360640190fd5b6000805473ffffffffffffffffffffffffffffffffffffffff1916600160a060020a0392909216919091179055565b600054600160a060020a031681565b7f44414f000000000000000000000000000000000000000000000000000000000081565b61061f610b48565b600160a060020a031663b4ec459d826040518263ffffffff1660e060020a02815260040180828152602001915050600060405180830381600087803b15801561040b57600080fd5b61066f610ca9565b600160a060020a031663c2e8673583836040518363ffffffff1660e060020a0281526004018083600160a060020a0316600160a060020a0316815260200182815260200192505050600060405180830381600087803b1580156106d157600080fd5b505af11580156106e5573d6000803e3d6000fd5b505050505050565b6106f5610ca9565b600160a060020a031663c42994a2826040518263ffffffff1660e060020a02815260040180828152602001915050600060405180830381600087803b15801561040b57600080fd5b610745610c3a565b600160a060020a031663cd748de883836040518363ffffffff1660e060020a0281526004018083815260200182815260200192505050600060405180830381600087803b1580156106d157600080fd5b61079d610c3a565b600160a060020a031663d114d8a1826040518263ffffffff1660e060020a02815260040180828152602001915050600060405180830381600087803b15801561040b57600080fd5b6107ed610bcb565b600160a060020a031663d22057a983836040518363ffffffff1660e060020a0281526004018083815260200182600160a060020a0316600160a060020a0316815260200192505050600060405180830381600087803b1580156106d157600080fd5b60008054604080517fda47d856000000000000000000000000000000000000000000000000000000008152600481018590529051600160a060020a039092169163da47d85691602480820192602092909190829003018186803b1580156108b557600080fd5b505afa1580156108c9573d6000803e3d6000fd5b505050506040513d60208110156108df57600080fd5b505192915050565b6108ef610bcb565b600160a060020a031663dee86bc283836040518363ffffffff1660e060020a0281526004018083815260200182815260200192505050600060405180830381600087803b1580156106d157600080fd5b6000610949610bcb565b600160a060020a031663dfba2a6c6040518163ffffffff1660e060020a028152600401602060405180830381600087803b15801561098657600080fd5b505af115801561099a573d6000803e3d6000fd5b505050506040513d60208110156109b057600080fd5b5051919050565b600080546040805160e360020a631c2d8fb3028152600481018590529051600160a060020a039092169163e16c7d9891602480820192602092909190829003018186803b1580156108b557600080fd5b610a0f610b48565b600160a060020a031663f2272a79826040518263ffffffff1660e060020a02815260040180828152602001915050600060405180830381600087803b15801561040b57600080fd5b610a5f610bcb565b600160a060020a031663f253f4038484846040518463ffffffff1660e060020a0281526004018084815260200183815260200182600160a060020a0316600160a060020a031681526020019350505050600060405180830381600087803b158015610ac957600080fd5b505af1158015610add573d6000803e3d6000fd5b50505050505050565b610aee610ca9565b600160a060020a031663f566e10e826040518263ffffffff1660e060020a0281526004018082600160a060020a0316600160a060020a03168152602001915050600060405180830381600087803b15801561040b57600080fd5b600080546040805160e360020a631c2d8fb30281527f4c6963656e73650000000000000000000000000000000000000000000000000060048201529051600160a060020a039092169163e16c7d9891602480820192602092909190829003018186803b158015610bb757600080fd5b505afa15801561099a573d6000803e3d6000fd5b600080546040805160e360020a631c2d8fb30281527f526567697374727900000000000000000000000000000000000000000000000060048201529051600160a060020a039092169163e16c7d9891602480820192602092909190829003018186803b158015610bb757600080fd5b600080546040805160e360020a631c2d8fb30281527f517565727900000000000000000000000000000000000000000000000000000060048201529051600160a060020a039092169163e16c7d9891602480820192602092909190829003018186803b158015610bb757600080fd5b600080546040805160e360020a631c2d8fb30281527f416363657373000000000000000000000000000000000000000000000000000060048201529051600160a060020a039092169163e16c7d9891602480820192602092909190829003018186803b158015610bb757600080fdfea165627a7a72305820457376d2849f12ef77ce8cbb31b9e577ced6dfbe5b47b37deb24dfd46975790c0029",
  "source": "pragma solidity 0.5.2;\n\nimport \"../modules/license/ILicenseController.sol\";\nimport \"../modules/access/IAccessController.sol\";\nimport \"../modules/registry/IRegistryController.sol\";\nimport \"../modules/query/IQueryController.sol\";\nimport \"../shared/WithRegistry.sol\";\n\ncontract DAOService is WithRegistry {\n    bytes32 public constant NAME = \"DAO\";\n\n    constructor(address _registry) public WithRegistry(_registry) {}\n\n    /* License */\n    function approveProduct(uint256 _productId) external {\n        license().approveProduct(_productId);\n    }\n\n    function disapproveProduct(uint256 _productId) external {\n        license().disapproveProduct(_productId);\n    }\n\n    function pauseProduct(uint256 _productId) external {\n        license().pauseProduct(_productId);\n    }\n\n    function unpauseProduct(uint256 _productId) external {\n        license().unpauseProduct(_productId);\n    }\n\n    /* Access */\n    function createRole(bytes32 _role) external {\n        access().createRole(_role);\n    }\n\n    function addRoleToAccount(address _address, bytes32 _role) external {\n        access().addRoleToAccount(_address, _role);\n    }\n\n    function cleanRolesForAccount(address _address) external {\n        access().cleanRolesForAccount(_address);\n    }\n\n    /* Registry */\n    function registerInRelease(\n        uint256 _release,\n        bytes32 _contractName,\n        address _contractAddress\n    ) external {\n        registryStorage().registerInRelease(\n            _release,\n            _contractName,\n            _contractAddress\n        );\n    }\n\n    function register(bytes32 _contractName, address _contractAddress)\n        external\n    {\n        registryStorage().register(_contractName, _contractAddress);\n    }\n\n    function deregisterInRelease(uint256 _release, bytes32 _contractName)\n        external\n    {\n        registryStorage().deregisterInRelease(_release, _contractName);\n    }\n\n    function deregister(bytes32 _contractName) external {\n        registryStorage().deregister(_contractName);\n    }\n\n    function prepareRelease() external returns (uint256 _release) {\n        _release = registryStorage().prepareRelease();\n    }\n\n    /* Query */\n    function activateOracleType(bytes32 _oracleTypeName) external {\n        query().activateOracleType(_oracleTypeName);\n    }\n\n    function activateOracle(uint256 _oracleId) external {\n        query().activateOracle(_oracleId);\n    }\n\n    function assignOracleToOracleType(\n        bytes32 _oracleTypeName,\n        uint256 _oracleId\n    ) external {\n        query().assignOracleToOracleType(_oracleTypeName, _oracleId);\n    }\n\n    /* Lookup */\n    function license() internal view returns (ILicenseController) {\n        return ILicenseController(registry.getContract(\"License\"));\n    }\n\n    function access() internal view returns (IAccessController) {\n        return IAccessController(registry.getContract(\"Access\"));\n    }\n\n    function registryStorage() internal view returns (IRegistryController) {\n        return IRegistryController(registry.getContract(\"Registry\"));\n    }\n\n    function query() internal view returns (IQueryController) {\n        return IQueryController(registry.getContract(\"Query\"));\n    }\n}\n",
  "sourcePath": "/Users/ka/Projects/Altoros/Etherisc/dip-platform/core/gif-contracts/contracts/services/DAOService.sol",
  "compiler": {
    "name": "solc",
    "version": "0.5.2+commit.1df8f40c.Emscripten.clang"
  },
  "schemaVersion": "3.0.2",
  "updatedAt": "2019-02-27T13:56:33.950Z",
  "devdoc": {
    "methods": {}
  },
  "userdoc": {
    "methods": {}
  }
}