{
  "contractName": "FlightDelayOraclize",
  "abi": [
    {
      "constant": true,
      "inputs": [
        {
          "name": "",
          "type": "address"
        }
      ],
      "name": "permissions",
      "outputs": [
        {
          "name": "",
          "type": "uint256"
        }
      ],
      "payable": false,
      "stateMutability": "view",
      "type": "function",
      "signature": "0x01e88208"
    },
    {
      "constant": true,
      "inputs": [],
      "name": "POLICY_FLOW",
      "outputs": [
        {
          "name": "",
          "type": "bytes32"
        }
      ],
      "payable": false,
      "stateMutability": "view",
      "type": "function",
      "signature": "0x09128d83"
    },
    {
      "constant": true,
      "inputs": [],
      "name": "maintenanceMode",
      "outputs": [
        {
          "name": "",
          "type": "bool"
        }
      ],
      "payable": false,
      "stateMutability": "view",
      "type": "function",
      "signature": "0x25dce0a6"
    },
    {
      "constant": true,
      "inputs": [],
      "name": "CHECK_OFFSET",
      "outputs": [
        {
          "name": "",
          "type": "uint256"
        }
      ],
      "payable": false,
      "stateMutability": "view",
      "type": "function",
      "signature": "0x2c41284a"
    },
    {
      "constant": true,
      "inputs": [
        {
          "name": "",
          "type": "uint256"
        }
      ],
      "name": "rolesKeys",
      "outputs": [
        {
          "name": "",
          "type": "bytes32"
        }
      ],
      "payable": false,
      "stateMutability": "view",
      "type": "function",
      "signature": "0x2cf88d9e"
    },
    {
      "constant": true,
      "inputs": [
        {
          "name": "",
          "type": "uint256"
        }
      ],
      "name": "actionRequests",
      "outputs": [
        {
          "name": "applicationId",
          "type": "uint256"
        },
        {
          "name": "policyId",
          "type": "uint256"
        },
        {
          "name": "riskId",
          "type": "bytes32"
        }
      ],
      "payable": false,
      "stateMutability": "view",
      "type": "function",
      "signature": "0x33616a99"
    },
    {
      "constant": true,
      "inputs": [],
      "name": "MIN_OBSERVATIONS",
      "outputs": [
        {
          "name": "",
          "type": "uint256"
        }
      ],
      "payable": false,
      "stateMutability": "view",
      "type": "function",
      "signature": "0x39cee407"
    },
    {
      "constant": true,
      "inputs": [],
      "name": "MAX_PAYOUT",
      "outputs": [
        {
          "name": "",
          "type": "uint256"
        }
      ],
      "payable": false,
      "stateMutability": "view",
      "type": "function",
      "signature": "0x4b9ddafe"
    },
    {
      "constant": true,
      "inputs": [],
      "name": "MAX_PREMIUM",
      "outputs": [
        {
          "name": "",
          "type": "uint256"
        }
      ],
      "payable": false,
      "stateMutability": "view",
      "type": "function",
      "signature": "0x4cdabb16"
    },
    {
      "constant": true,
      "inputs": [
        {
          "name": "",
          "type": "uint256"
        }
      ],
      "name": "oracleRequests",
      "outputs": [
        {
          "name": "applicationId",
          "type": "uint256"
        },
        {
          "name": "policyId",
          "type": "uint256"
        },
        {
          "name": "riskId",
          "type": "bytes32"
        }
      ],
      "payable": false,
      "stateMutability": "view",
      "type": "function",
      "signature": "0x5f5369e6"
    },
    {
      "constant": true,
      "inputs": [
        {
          "name": "",
          "type": "bytes32"
        }
      ],
      "name": "risks",
      "outputs": [
        {
          "name": "carrierFlightNumber",
          "type": "bytes32"
        },
        {
          "name": "departureYearMonthDay",
          "type": "bytes32"
        },
        {
          "name": "departureTime",
          "type": "uint256"
        },
        {
          "name": "arrivalTime",
          "type": "uint256"
        },
        {
          "name": "delayInMinutes",
          "type": "uint256"
        },
        {
          "name": "delay",
          "type": "uint8"
        },
        {
          "name": "cumulatedWeightedPremium",
          "type": "uint256"
        },
        {
          "name": "premiumMultiplier",
          "type": "uint256"
        },
        {
          "name": "weight",
          "type": "uint256"
        }
      ],
      "payable": false,
      "stateMutability": "view",
      "type": "function",
      "signature": "0x8993021b"
    },
    {
      "constant": true,
      "inputs": [
        {
          "name": "",
          "type": "bytes32"
        }
      ],
      "name": "roles",
      "outputs": [
        {
          "name": "",
          "type": "uint256"
        }
      ],
      "payable": false,
      "stateMutability": "view",
      "type": "function",
      "signature": "0x95356651"
    },
    {
      "constant": true,
      "inputs": [],
      "name": "MAX_FLIGHT_DURATION",
      "outputs": [
        {
          "name": "",
          "type": "uint256"
        }
      ],
      "payable": false,
      "stateMutability": "view",
      "type": "function",
      "signature": "0x972e22eb"
    },
    {
      "constant": true,
      "inputs": [],
      "name": "NAME",
      "outputs": [
        {
          "name": "",
          "type": "bytes32"
        }
      ],
      "payable": false,
      "stateMutability": "view",
      "type": "function",
      "signature": "0xa3f4df7e"
    },
    {
      "constant": true,
      "inputs": [
        {
          "name": "_address",
          "type": "address"
        },
        {
          "name": "_role",
          "type": "bytes32"
        }
      ],
      "name": "hasRole",
      "outputs": [
        {
          "name": "_hasRole",
          "type": "bool"
        }
      ],
      "payable": false,
      "stateMutability": "view",
      "type": "function",
      "signature": "0xac4ab3fb"
    },
    {
      "constant": true,
      "inputs": [],
      "name": "MIN_TIME_BEFORE_DEPARTURE",
      "outputs": [
        {
          "name": "",
          "type": "uint256"
        }
      ],
      "payable": false,
      "stateMutability": "view",
      "type": "function",
      "signature": "0xb7b357ac"
    },
    {
      "constant": true,
      "inputs": [],
      "name": "MIN_PREMIUM",
      "outputs": [
        {
          "name": "",
          "type": "uint256"
        }
      ],
      "payable": false,
      "stateMutability": "view",
      "type": "function",
      "signature": "0xbe5c8f44"
    },
    {
      "constant": false,
      "inputs": [
        {
          "name": "_address",
          "type": "address"
        },
        {
          "name": "_role",
          "type": "bytes32"
        }
      ],
      "name": "addRoleToAccount",
      "outputs": [],
      "payable": false,
      "stateMutability": "nonpayable",
      "type": "function",
      "signature": "0xc2e86735"
    },
    {
      "constant": true,
      "inputs": [],
      "name": "productService",
      "outputs": [
        {
          "name": "",
          "type": "address"
        }
      ],
      "payable": false,
      "stateMutability": "view",
      "type": "function",
      "signature": "0xc37d45bf"
    },
    {
      "constant": false,
      "inputs": [
        {
          "name": "_role",
          "type": "bytes32"
        }
      ],
      "name": "createRole",
      "outputs": [],
      "payable": false,
      "stateMutability": "nonpayable",
      "type": "function",
      "signature": "0xc42994a2"
    },
    {
      "constant": true,
      "inputs": [],
      "name": "developmentMode",
      "outputs": [
        {
          "name": "",
          "type": "bool"
        }
      ],
      "payable": false,
      "stateMutability": "view",
      "type": "function",
      "signature": "0xd6fcaf40"
    },
    {
      "constant": true,
      "inputs": [
        {
          "name": "",
          "type": "uint256"
        }
      ],
      "name": "weightPattern",
      "outputs": [
        {
          "name": "",
          "type": "uint8"
        }
      ],
      "payable": false,
      "stateMutability": "view",
      "type": "function",
      "signature": "0xe32bdf08"
    },
    {
      "constant": false,
      "inputs": [
        {
          "name": "_address",
          "type": "address"
        }
      ],
      "name": "cleanRolesForAccount",
      "outputs": [],
      "payable": false,
      "stateMutability": "nonpayable",
      "type": "function",
      "signature": "0xf566e10e"
    },
    {
      "constant": true,
      "inputs": [
        {
          "name": "",
          "type": "uint256"
        }
      ],
      "name": "currencies",
      "outputs": [
        {
          "name": "",
          "type": "bytes32"
        }
      ],
      "payable": false,
      "stateMutability": "view",
      "type": "function",
      "signature": "0xf6d1c271"
    },
    {
      "inputs": [
        {
          "name": "_productController",
          "type": "address"
        }
      ],
      "payable": false,
      "stateMutability": "nonpayable",
      "type": "constructor",
      "signature": "constructor"
    },
    {
      "anonymous": false,
      "inputs": [
        {
          "indexed": false,
          "name": "requestId",
          "type": "uint256"
        },
        {
          "indexed": false,
          "name": "carrierFlightNumber",
          "type": "bytes32"
        },
        {
          "indexed": false,
          "name": "departureTime",
          "type": "uint256"
        },
        {
          "indexed": false,
          "name": "arrivalTime",
          "type": "uint256"
        }
      ],
      "name": "LogRequestFlightStatistics",
      "type": "event",
      "signature": "0xe857bff72dd2ed1b8242b825b28a9647d6c9128ca89f6e2f8261ed87ffecd914"
    },
    {
      "anonymous": false,
      "inputs": [
        {
          "indexed": false,
          "name": "requestId",
          "type": "uint256"
        },
        {
          "indexed": false,
          "name": "carrierFlightNumber",
          "type": "bytes32"
        },
        {
          "indexed": false,
          "name": "arrivalTime",
          "type": "uint256"
        }
      ],
      "name": "LogRequestFlightStatus",
      "type": "event",
      "signature": "0x9e0191c34cbc564aac9868f50a4cce5db2f167b44d26c02f50e12298b94407ef"
    },
    {
      "anonymous": false,
      "inputs": [
        {
          "indexed": false,
          "name": "policyId",
          "type": "uint256"
        },
        {
          "indexed": false,
          "name": "claimId",
          "type": "uint256"
        },
        {
          "indexed": false,
          "name": "payoutId",
          "type": "uint256"
        },
        {
          "indexed": false,
          "name": "amount",
          "type": "uint256"
        }
      ],
      "name": "LogRequestPayout",
      "type": "event",
      "signature": "0xa03388de5ed101344e2b409e4dc7e74b90fcaa1fa5295d6dab4d209160c39881"
    },
    {
      "anonymous": false,
      "inputs": [
        {
          "indexed": false,
          "name": "error",
          "type": "string"
        }
      ],
      "name": "LogError",
      "type": "event",
      "signature": "0xc35a0ec6603ff0b5966d7ca053a5f0984a70aad58a9a0ecb1349308815a4151a"
    },
    {
      "anonymous": false,
      "inputs": [
        {
          "indexed": false,
          "name": "requestId",
          "type": "uint256"
        },
        {
          "indexed": false,
          "name": "policyId",
          "type": "uint256"
        }
      ],
      "name": "LogUnprocessableStatus",
      "type": "event",
      "signature": "0xc3b7d47dc0fb0f47f9c9c1df52beba60d745510a2949f6d3ad249fe8b7f1b89b"
    },
    {
      "anonymous": false,
      "inputs": [
        {
          "indexed": false,
          "name": "policyId",
          "type": "uint256"
        }
      ],
      "name": "LogPolicyExpired",
      "type": "event",
      "signature": "0x08b74d3cccbcb3894ccc99c3a75f6a6890f71ea4c039fe60eabd7bee40b1231c"
    },
    {
      "anonymous": false,
      "inputs": [
        {
          "indexed": false,
          "name": "requestId",
          "type": "uint256"
        },
        {
          "indexed": false,
          "name": "applicationId",
          "type": "uint256"
        }
      ],
      "name": "LogRequestPayment",
      "type": "event",
      "signature": "0x8ef27d1fb873d360d63df66f16a2c329eedd2646556aa468d67ac231ad227e15"
    },
    {
      "constant": false,
      "inputs": [
        {
          "name": "_carrierFlightNumber",
          "type": "bytes32"
        },
        {
          "name": "_departureYearMonthDay",
          "type": "bytes32"
        },
        {
          "name": "_departureTime",
          "type": "uint256"
        },
        {
          "name": "_arrivalTime",
          "type": "uint256"
        },
        {
          "name": "_premium",
          "type": "uint256"
        },
        {
          "name": "_currency",
          "type": "bytes32"
        },
        {
          "name": "_payoutOptions",
          "type": "uint256[]"
        },
        {
          "name": "_customerExternalId",
          "type": "bytes32"
        }
      ],
      "name": "applyForPolicy",
      "outputs": [],
      "payable": false,
      "stateMutability": "nonpayable",
      "type": "function",
      "signature": "0x26735338"
    },
    {
      "constant": false,
      "inputs": [
        {
          "name": "_requestId",
          "type": "uint256"
        },
        {
          "name": "_response",
          "type": "bytes"
        }
      ],
      "name": "flightStatisticsCallback",
      "outputs": [],
      "payable": false,
      "stateMutability": "nonpayable",
      "type": "function",
      "signature": "0xda65b880"
    },
    {
      "constant": false,
      "inputs": [
        {
          "name": "_requestId",
          "type": "uint256"
        }
      ],
      "name": "confirmPaymentSuccess",
      "outputs": [],
      "payable": false,
      "stateMutability": "nonpayable",
      "type": "function",
      "signature": "0x730196d6"
    },
    {
      "constant": false,
      "inputs": [
        {
          "name": "_requestId",
          "type": "uint256"
        }
      ],
      "name": "confirmPaymentFailure",
      "outputs": [],
      "payable": false,
      "stateMutability": "nonpayable",
      "type": "function",
      "signature": "0x907be7e8"
    },
    {
      "constant": false,
      "inputs": [
        {
          "name": "_requestId",
          "type": "uint256"
        },
        {
          "name": "_response",
          "type": "bytes"
        }
      ],
      "name": "flightStatusCallback",
      "outputs": [],
      "payable": false,
      "stateMutability": "nonpayable",
      "type": "function",
      "signature": "0xac5465a1"
    },
    {
      "constant": false,
      "inputs": [
        {
          "name": "_payoutId",
          "type": "uint256"
        },
        {
          "name": "_amount",
          "type": "uint256"
        }
      ],
      "name": "confirmPayout",
      "outputs": [],
      "payable": false,
      "stateMutability": "nonpayable",
      "type": "function",
      "signature": "0x7f66ae95"
    },
    {
      "constant": true,
      "inputs": [
        {
          "name": "_premium",
          "type": "uint256"
        },
        {
          "name": "_statistics",
          "type": "uint256[6]"
        }
      ],
      "name": "calculatePayouts",
      "outputs": [
        {
          "name": "_weight",
          "type": "uint256"
        },
        {
          "name": "_payoutOptions",
          "type": "uint256[5]"
        }
      ],
      "payable": false,
      "stateMutability": "view",
      "type": "function",
      "signature": "0xc9821073"
    }
  ],
  "bytecode": "0x6003805461ffff1916905560a06040527f4555520000000000000000000000000000000000000000000000000000000000608090815262000045906004906001620001f0565b506040805160c08101825260008082526020820181905291810191909152601e606082015260326080820181905260a08201526200008890600590600662000233565b503480156200009657600080fd5b50604051602080620023a683398101806040526020811015620000b857600080fd5b5051600380546201000060b060020a03191662010000600160a060020a03841602179055807f466c6967687444656c61794f7261636c697a65000000000000000000000000007f506f6c696379466c6f7744656661756c740000000000000000000000000000006200013482826401000000006200013e810204565b505050506200030a565b600360029054906101000a9004600160a060020a0316600160a060020a0316632f92673283836040518363ffffffff167c01000000000000000000000000000000000000000000000000000000000281526004018083815260200182815260200192505050602060405180830381600087803b158015620001be57600080fd5b505af1158015620001d3573d6000803e3d6000fd5b505050506040513d6020811015620001ea57600080fd5b50505050565b826001810192821562000221579160200282015b828111156200022157825182559160200191906001019062000204565b506200022f929150620002c9565b5090565b600183019183908215620002bb5791602002820160005b838211156200028a57835183826101000a81548160ff021916908360ff16021790555092602001926001016020816000010492830192600103026200024a565b8015620002b95782816101000a81549060ff02191690556001016020816000010492830192600103026200028a565b505b506200022f929150620002e9565b620002e691905b808211156200022f5760008155600101620002d0565b90565b620002e691905b808211156200022f57805460ff19168155600101620002f0565b61208c806200031a6000396000f3fe608060405234801561001057600080fd5b50600436106101e95760003560e060020a900480639535665111610113578063c37d45bf116100a6578063da65b88011610075578063da65b88014610624578063e32bdf081461069b578063f566e10e146106ce578063f6d1c271146106f4576101e9565b8063c37d45bf14610546578063c42994a21461056a578063c982107314610587578063d6fcaf401461061c576101e9565b8063ac5465a1116100e2578063ac5465a114610493578063b7b357ac1461050a578063be5c8f4414610512578063c2e867351461051a576101e9565b8063953566511461043a578063972e22eb14610457578063a3f4df7e1461045f578063ac4ab3fb14610467576101e9565b806339cee4071161018b578063730196d61161015a578063730196d6146103765780637f66ae95146103935780638993021b146103b6578063907be7e81461041d576101e9565b806339cee407146103415780634b9ddafe146103495780634cdabb16146103515780635f5369e614610359576101e9565b806326735338116101c7578063267353381461024a5780632c41284a146102e15780632cf88d9e146102e957806333616a9914610306576101e9565b806301e88208146101ee57806309128d831461022657806325dce0a61461022e575b600080fd5b6102146004803603602081101561020457600080fd5b5035600160a060020a0316610711565b60408051918252519081900360200190f35b610214610723565b610236610747565b604080519115158252519081900360200190f35b6102df600480360361010081101561026157600080fd5b81359160208101359160408201359160608101359160808201359160a08101359181019060e0810160c08201356401000000008111156102a057600080fd5b8201836020820111156102b257600080fd5b803590602001918460208302840111640100000000831117156102d457600080fd5b919350915035610755565b005b610214610b4e565b610214600480360360208110156102ff57600080fd5b5035610b54565b6103236004803603602081101561031c57600080fd5b5035610b73565b60408051938452602084019290925282820152519081900360600190f35b610214610ba4565b610214610ba9565b610214610bb0565b6103236004803603602081101561036f57600080fd5b5035610bb6565b6102df6004803603602081101561038c57600080fd5b5035610bd7565b6102df600480360360408110156103a957600080fd5b5080359060200135610d72565b6103d3600480360360208110156103cc57600080fd5b5035610d81565b60408051998a5260208a0198909852888801969096526060880194909452608087019290925260ff1660a086015260c085015260e084015261010083015251908190036101200190f35b6102df6004803603602081101561043357600080fd5b5035610dd2565b6102146004803603602081101561045057600080fd5b5035610dfe565b610214610e10565b610214610e17565b6102366004803603604081101561047d57600080fd5b50600160a060020a038135169060200135610e3b565b6102df600480360360408110156104a957600080fd5b813591908101906040810160208201356401000000008111156104cb57600080fd5b8201836020820111156104dd57600080fd5b803590602001918460018302840111640100000000831117156104ff57600080fd5b509092509050610e67565b61021461112b565b610214611132565b6102df6004803603604081101561053057600080fd5b50600160a060020a038135169060200135611138565b61054e61117f565b60408051600160a060020a039092168252519081900360200190f35b6102df6004803603602081101561058057600080fd5b5035611194565b6105dd600480360360e081101561059d57600080fd5b6040805160c0818101909252833593928301929160e083019190602084019060069083908390808284376000920191909152509194506111f79350505050565b604051828152602081018260a080838360005b838110156106085781810151838201526020016105f0565b505050509050019250505060405180910390f35b6102366113fe565b6102df6004803603604081101561063a57600080fd5b8135919081019060408101602082013564010000000081111561065c57600080fd5b82018360208201111561066e57600080fd5b8035906020019184600183028401116401000000008311171561069057600080fd5b509092509050611407565b6106b8600480360360208110156106b157600080fd5b503561179f565b6040805160ff9092168252519081900360200190f35b6102df600480360360208110156106e457600080fd5b5035600160a060020a03166117c6565b6102146004803603602081101561070a57600080fd5b50356117e0565b60026020526000908152604090205481565b7f506f6c696379466c6f7744656661756c7400000000000000000000000000000081565b600354610100900460ff1681565b6105dc85101561079d576040805160e560020a62461bcd0281526020600482015260166024820152600080516020611ffe833981519152604482015290519081900360640190fd5b6171488511156107e5576040805160e560020a62461bcd0281526020600482015260166024820152600080516020611ffe833981519152604482015290519081900360640190fd5b600454841461083e576040805160e560020a62461bcd02815260206004820152601660248201527f4552524f523a494e56414c49445f43555252454e435900000000000000000000604482015290519081900360640190fd5b86861161087f5760405160e560020a62461bcd028152600401808060200182810382526025815260200180611fd96025913960400191505060405180910390fd5b6202a30087018711156108c65760405160e560020a62461bcd028152600401808060200182810382526025815260200180611fd96025913960400191505060405180910390fd5b42620151800187101561090d5760405160e560020a62461bcd028152600401808060200182810382526025815260200180611fd96025913960400191505060405180910390fd5b6040805160208082018c90528183018a905260608083018a90528351808403909101815260809092018352815191810191909120600081815260069092529190208054151561096f578a8155600181018a905560028101899055600381018890555b625b8d80816006015482600701548902011015156109dc576040805160208082526013908201527f4552524f523a3a434c55535445525f5249534b0000000000000000000000000081830152905160008051602061201e8339815191529181900360600190a15050610b43565b600681015415156109f157625b8d8060068201555b6000610a328489898989808060200260200160405190810160405280939291908181526020018383602002808284376000920191909152506117f492505050565b90506000610ab78d604051602001808281526020019150506040516020818303038152906040526040805190810160405280601881526020017f666c696768745374617469737469637343616c6c6261636b00000000000000008152507f466c69676874526174696e67730000000000000000000000000000000000000060006118df565b90508160076000838152602001908152602001600020600001819055508360076000838152602001908152602001600020600201819055507fe857bff72dd2ed1b8242b825b28a9647d6c9128ca89f6e2f8261ed87ffecd914818e8d8d6040518085815260200184815260200183815260200182815260200194505050505060405180910390a1505050505b505050505050505050565b61038481565b6001805482908110610b6257fe5b600091825260209091200154905081565b6008805482908110610b8157fe5b600091825260209091206003909102018054600182015460029092015490925083565b600a81565b620249f081565b61714881565b60076020526000908152604090208054600182015460029092015490919083565b6000600882815481101515610be857fe5b90600052602060002090600302016000015490506000600883815481101515610c0d57fe5b90600052602060002090600302016002015490506000610c2c83611a32565b600083815260066020908152604080832060038101548154600192830154845161038490930195830195909552818401526060808201949094528251808203909401845260c081019092526014608083019081527f666c6967687453746174757343616c6c6261636b00000000000000000000000060a0909301929092529394509192610cdb92907f466c696768745374617475736573000000000000000000000000000000000000906118df565b60408051606081810183528782526020808301878152838501898152600087815260078452868120955186559151600186015551600290940193909355878352600681529183902080546003909101548451868152938401919091528284015291519293507f9e0191c34cbc564aac9868f50a4cce5db2f167b44d26c02f50e12298b94407ef929081900390910190a15050505050565b610d7c8282611ad0565b505050565b60066020819052600091825260409091208054600182015460028301546003840154600485015460058601549686015460078701546008909701549597949693959294919360ff9092169290919089565b610dfb600882815481101515610de457fe5b906000526020600020906003020160000154611b76565b50565b60006020819052908152604090205481565b6202a30081565b7f466c6967687444656c61794f7261636c697a650000000000000000000000000081565b60009081526020818152604080832054600160a060020a03909416835260029091528120549091161190565b60008083836040811015610e7a57600080fd5b50600086815260076020908152604090912060018101549054600160f860020a03198435169550919092013592506060610eb382611bef565b90507f4c00000000000000000000000000000000000000000000000000000000000000600160f860020a0319861614801590610f1957507f4100000000000000000000000000000000000000000000000000000000000000600160f860020a0319861614155b8015610f4f57507f4300000000000000000000000000000000000000000000000000000000000000600160f860020a0319861614155b8015610f8557507f4400000000000000000000000000000000000000000000000000000000000000600160f860020a0319861614155b15610fcf57604080518981526020810185905281517fc3b7d47dc0fb0f47f9c9c1df52beba60d745510a2949f6d3ad249fe8b7f1b89b929181900390910190a15050505050610d7c565b7f4100000000000000000000000000000000000000000000000000000000000000600160f860020a03198616141561100b575050505050610d7c565b7f4300000000000000000000000000000000000000000000000000000000000000600160f860020a0319861614156110645761105f8382600381518110151561105057fe5b90602001906020020151611cec565b611121565b7f4400000000000000000000000000000000000000000000000000000000000000600160f860020a0319861614156110a95761105f8382600481518110151561105057fe5b600f84121580156110ba5750601e84125b156110d25761105f8382600081518110151561105057fe5b601e84121580156110e35750602d84125b156110fb5761105f8382600181518110151561105057fe5b602d84126111165761105f8382600281518110151561105057fe5b611121836000611cec565b5050505050505050565b6201518081565b6105dc81565b600081815260208190526040902054151561115257600080fd5b60009081526020818152604080832054600160a060020a0390941683526002909152902080549091179055565b600354620100009004600160a060020a031681565b600081815260208190526040902054156111ad57600080fd5b60018054600083815260208190526040812060029290920a909155815480830183559190527fb10e2d527612073b26eecdfd717e6a320cf44b4afac2b0732d9fcbe2b7fa0cf60155565b6000611201611f48565b6105dc841015611249576040805160e560020a62461bcd0281526020600482015260166024820152600080516020611ffe833981519152604482015290519081900360640190fd5b617148841115611291576040805160e560020a62461bcd0281526020600482015260166024820152600080516020611ffe833981519152604482015290519081900360640190fd5b8251600a106112ea576040805160e560020a62461bcd02815260206004820152601760248201527f4552524f523a3a4c4f575f4f42534552564154494f4e53000000000000000000604482015290519081900360640190fd5b60015b600681101561134b57835184826006811061130457fe5b60200201516005836006811061131657fe5b602091828204019190069054906101000a900460ff1660ff16026127100281151561133d57fe5b0492909201916001016112ed565b50811515611366578251620186a081151561136257fe5b0491505b60005b60058110156113f657826005600183016006811061138357fe5b602091828204019190069054906101000a900460ff1660ff168602612710028115156113ab57fe5b048282600581106113b857fe5b6020020152620249f08282600581106113cd57fe5b602002015111156113ee57620249f08282600581106113e857fe5b60200201525b600101611369565b509250929050565b60035460ff1681565b61140f611f67565b828260c081101561141f57600080fd5b810190808060c00190600680602002604051908101604052809291908260066020028082843760009201829052508a815260076020526040812054939750929550600a945086935061146f915050565b6020020151116114895761148281611b76565b5050610d7c565b600061149482611d9f565b905060606114a183611bef565b905060006114ad611f48565b6114b784876111f7565b845191935091506005146115095760008051602061201e83398151915260405180806020018281038252602381526020018061203e6023913960400191505060405180910390a1505050505050610d7c565b60005b60058110156116215781816005811061152157fe5b6020020151848281518110151561153457fe5b602090810290910101511461159d57604080516020808252601c908201527f4552524f523a3a494e56414c49445f5041594f55545f4f5054494f4e0000000081830152905160008051602061201e8339815191529181900360600190a150505050505050610d7c565b620249f084828151811015156115af57fe5b90602001906020020151111561161957604080516020808252601c908201527f4552524f523a3a494e56414c49445f5041594f55545f4f5054494f4e0000000081830152905160008051602061201e8339815191529181900360600190a150505050505050610d7c565b60010161150c565b5060008981526007602081815260408084206002015480855260069092529092200154151561169c578285620186a00281151561165a57fe5b60008381526006602081905260409091209290910491015582620186a081151561168057fe5b60008381526006602052604090209190046007909101556116db565b6000818152600660205260409020600701548502620249f08111156116c15750620249f05b600082815260066020819052604090912001805490910190555b600081815260066020526040812060089081018590558054906117019060018301611f86565b9050606060405190810160405280888152602001600081526020018381525060088281548110151561172f57fe5b60009182526020918290208351600390920201908155828201516001820155604092830151600290910155815183815290810189905281517f8ef27d1fb873d360d63df66f16a2c329eedd2646556aa468d67ac231ad227e15929181900390910190a15050505050505050505050565b600581600681106117ac57fe5b60209182820401919006915054906101000a900460ff1681565b600160a060020a0316600090815260026020526040812055565b600481600181106117ed57fe5b0154905081565b6000600360029054906101000a9004600160a060020a0316600160a060020a031663dc3addf0868686866040518563ffffffff1660e060020a0281526004018085815260200184815260200183815260200180602001828103825283818151815260200191508051906020019060200280838360005b8381101561188257818101518382015260200161186a565b5050505090500195505050505050602060405180830381600087803b1580156118aa57600080fd5b505af11580156118be573d6000803e3d6000fd5b505050506040513d60208110156118d457600080fd5b505195945050505050565b6000600360029054906101000a9004600160a060020a0316600160a060020a031663d643ece886863087876040518663ffffffff1660e060020a02815260040180806020018060200186600160a060020a0316600160a060020a03168152602001858152602001848152602001838103835288818151815260200191508051906020019080838360005b83811015611981578181015183820152602001611969565b50505050905090810190601f1680156119ae5780820380516001836020036101000a031916815260200191505b50838103825287518152875160209182019189019080838360005b838110156119e15781810151838201526020016119c9565b50505050905090810190601f168015611a0e5780820380516001836020036101000a031916815260200191505b50975050505050505050602060405180830381600087803b1580156118aa57600080fd5b600354604080517f6be60f8b000000000000000000000000000000000000000000000000000000008152600481018490529051600092620100009004600160a060020a031691636be60f8b91602480830192602092919082900301818787803b158015611a9e57600080fd5b505af1158015611ab2573d6000803e3d6000fd5b505050506040513d6020811015611ac857600080fd5b505192915050565b600354604080517f5aa6cf9700000000000000000000000000000000000000000000000000000000815260048101859052602481018490529051600092620100009004600160a060020a031691635aa6cf9791604480830192602092919082900301818787803b158015611b4357600080fd5b505af1158015611b57573d6000803e3d6000fd5b505050506040513d6020811015611b6d57600080fd5b50519392505050565b600360029054906101000a9004600160a060020a0316600160a060020a031663a0355f4e826040518263ffffffff1660e060020a02815260040180828152602001915050600060405180830381600087803b158015611bd457600080fd5b505af1158015611be8573d6000803e3d6000fd5b5050505050565b600354604080517f450d512e000000000000000000000000000000000000000000000000000000008152600481018490529051606092620100009004600160a060020a03169163450d512e91602480830192600092919082900301818387803b158015611c5b57600080fd5b505af1158015611c6f573d6000803e3d6000fd5b505050506040513d6000823e601f3d908101601f191682016040526020811015611c9857600080fd5b810190808051640100000000811115611cb057600080fd5b82016020810184811115611cc357600080fd5b8151856020820283011164010000000082111715611ce057600080fd5b50909695505050505050565b801515611d3457611cfc82611e0b565b6040805183815290517f08b74d3cccbcb3894ccc99c3a75f6a6890f71ea4c039fe60eabd7bee40b1231c9181900360200190a1611d9b565b6000611d3f83611e69565b90506000611d4d8284611ed5565b60408051868152602081018590528082018390526060810186905290519192507fa03388de5ed101344e2b409e4dc7e74b90fcaa1fa5295d6dab4d209160c39881919081900360800190a150505b5050565b600354604080517f1bf1fffb000000000000000000000000000000000000000000000000000000008152600481018490529051600092620100009004600160a060020a031691631bf1fffb91602480830192602092919082900301818787803b158015611a9e57600080fd5b600360029054906101000a9004600160a060020a0316600160a060020a031663bf81bf43826040518263ffffffff1660e060020a02815260040180828152602001915050600060405180830381600087803b158015611bd457600080fd5b600354604080517f54f3a32c000000000000000000000000000000000000000000000000000000008152600481018490529051600092620100009004600160a060020a0316916354f3a32c91602480830192602092919082900301818787803b158015611a9e57600080fd5b600354604080517f6afa434000000000000000000000000000000000000000000000000000000000815260048101859052602481018490529051600092620100009004600160a060020a031691636afa434091604480830192602092919082900301818787803b158015611b4357600080fd5b60a0604051908101604052806005906020820280388339509192915050565b60c0604051908101604052806006906020820280388339509192915050565b815481835581811115610d7c57600083815260209020610d7c91611fd59160039182028101918502015b80821115611fd1576000808255600182018190556002820155600301611fb0565b5090565b9056fe4552524f523a3a494e56414c49445f4152524956414c2f4445504152545552455f54494d454552524f523a3a494e56414c49445f5052454d49554d00000000000000000000c35a0ec6603ff0b5966d7ca053a5f0984a70aad58a9a0ecb1349308815a4151a4552524f523a3a494e56414c49445f5041594f55545f4f5054494f4e535f434f554e54a165627a7a72305820f09f5b47793ab9e620e6639ad925be9e3bd534eeeb8786322cbdf433e17fd4040029",
  "source": "pragma solidity 0.5.2;\n\nimport \"../../Product.sol\";\n\ncontract FlightDelayOraclize is Product {\n    event LogRequestFlightStatistics(\n        uint256 requestId,\n        bytes32 carrierFlightNumber,\n        uint256 departureTime,\n        uint256 arrivalTime\n    );\n\n    event LogRequestFlightStatus(\n        uint256 requestId,\n        bytes32 carrierFlightNumber,\n        uint256 arrivalTime\n    );\n\n    event LogRequestPayout(\n        uint256 policyId,\n        uint256 claimId,\n        uint256 payoutId,\n        uint256 amount\n    );\n\n    event LogError(string error);\n\n    event LogUnprocessableStatus(uint256 requestId, uint256 policyId);\n\n    event LogPolicyExpired(uint256 policyId);\n\n    event LogRequestPayment(uint256 requestId, uint256 applicationId);\n\n    bytes32 public constant NAME = \"FlightDelayOraclize\";\n    bytes32 public constant POLICY_FLOW = \"PolicyFlowDefault\";\n\n    // Minimum observations for valid prediction\n    uint256 public constant MIN_OBSERVATIONS = 10;\n    // Minimum time before departure for applying\n    uint256 public constant MIN_TIME_BEFORE_DEPARTURE = 24 hours;\n    // Maximum duration of flight\n    uint256 public constant MAX_FLIGHT_DURATION = 2 days;\n    // Check for delay after .. minutes after scheduled arrival\n    uint256 public constant CHECK_OFFSET = 15 minutes;\n\n    // All amounts expected to be provided in a currencys smallest unit\n    // E.g. 10 EUR = 1000 (1000 cents)\n    uint256 public constant MIN_PREMIUM = 1500;\n    uint256 public constant MAX_PREMIUM = 29000;\n    uint256 public constant MAX_PAYOUT = 150000;\n\n    bytes32[1] public currencies = [bytes32(\"EUR\")];\n\n    // ['observations','late15','late30','late45','cancelled','diverted']\n    uint8[6] public weightPattern = [0, 0, 0, 30, 50, 50];\n\n    // Maximum cumulated weighted premium per risk\n    uint256 constant MAX_CUMULATED_WEIGHTED_PREMIUM = 6000000;\n\n    struct Risk {\n        bytes32 carrierFlightNumber;\n        bytes32 departureYearMonthDay;\n        uint256 departureTime;\n        uint256 arrivalTime;\n        uint delayInMinutes;\n        uint8 delay;\n        uint256 cumulatedWeightedPremium;\n        uint256 premiumMultiplier;\n        uint256 weight;\n    }\n\n    struct RequestMetadata {\n        uint256 applicationId;\n        uint256 policyId;\n        bytes32 riskId;\n    }\n\n    mapping(bytes32 => Risk) public risks;\n\n    mapping(uint256 => RequestMetadata) public oracleRequests;\n\n    RequestMetadata[] public actionRequests;\n\n    constructor(address _productController)\n        public\n        Product(_productController, NAME, POLICY_FLOW)\n    {}\n\n    function applyForPolicy(\n        // domain specific\n        bytes32 _carrierFlightNumber,\n        bytes32 _departureYearMonthDay,\n        uint256 _departureTime,\n        uint256 _arrivalTime,\n        // premium\n        uint256 _premium,\n        bytes32 _currency,\n        uint256[] calldata _payoutOptions,\n        // customer\n        bytes32 _customerExternalId\n    ) external {\n        // Validate input parameters\n        require(_premium >= MIN_PREMIUM, \"ERROR::INVALID_PREMIUM\");\n        require(_premium <= MAX_PREMIUM, \"ERROR::INVALID_PREMIUM\");\n        require(_currency == currencies[0], \"ERROR:INVALID_CURRENCY\");\n        require(\n            _arrivalTime > _departureTime,\n            \"ERROR::INVALID_ARRIVAL/DEPARTURE_TIME\"\n        );\n        require(\n            _departureTime <= _departureTime + MAX_FLIGHT_DURATION,\n            \"ERROR::INVALID_ARRIVAL/DEPARTURE_TIME\"\n        );\n        require(\n            _departureTime >= block.timestamp + MIN_TIME_BEFORE_DEPARTURE,\n            \"ERROR::INVALID_ARRIVAL/DEPARTURE_TIME\"\n        );\n\n        // Create risk if not exists\n        bytes32 riskId = keccak256(\n            abi.encodePacked(_carrierFlightNumber, _departureTime, _arrivalTime)\n        );\n        Risk storage risk = risks[riskId];\n\n        if (risk.carrierFlightNumber == \"\") {\n            risk.carrierFlightNumber = _carrierFlightNumber;\n            risk.departureYearMonthDay = _departureYearMonthDay;\n            risk.departureTime = _departureTime;\n            risk.arrivalTime = _arrivalTime;\n        }\n\n        if (_premium * risk.premiumMultiplier + risk.cumulatedWeightedPremium >= MAX_CUMULATED_WEIGHTED_PREMIUM) {\n            emit LogError(\"ERROR::CLUSTER_RISK\");\n            return;\n        }\n\n        if (risk.cumulatedWeightedPremium == 0) {\n            risk.cumulatedWeightedPremium = MAX_CUMULATED_WEIGHTED_PREMIUM;\n        }\n\n        // Create new application\n        uint256 applicationId = newApplication(\n            _customerExternalId,\n            _premium,\n            _currency,\n            _payoutOptions\n        );\n\n        // Request flight ratings\n        uint256 requestId = request(\n            abi.encode(_carrierFlightNumber),\n            \"flightStatisticsCallback\",\n            \"FlightRatings\",\n            0\n        );\n\n        oracleRequests[requestId].applicationId = applicationId;\n        oracleRequests[requestId].riskId = riskId;\n\n        emit LogRequestFlightStatistics(\n            requestId,\n            _carrierFlightNumber,\n            _departureTime,\n            _arrivalTime\n        );\n    }\n\n    function flightStatisticsCallback(\n        uint256 _requestId,\n        bytes calldata _response\n    ) external {\n        // Statistics: ['observations','late15','late30','late45','cancelled','diverted']\n        uint256[6] memory _statistics = abi.decode(_response, (uint256[6]));\n\n        uint256 applicationId = oracleRequests[_requestId].applicationId;\n\n        if (_statistics[0] <= MIN_OBSERVATIONS) {\n            decline(applicationId);\n            return;\n        }\n\n        uint256 premium = getPremium(applicationId);\n        uint256[] memory payoutOptions = getPayoutOptions(applicationId);\n        (uint256 weight, uint256[5] memory calculatedPayouts) = calculatePayouts(\n            premium,\n            _statistics\n        );\n\n        if (payoutOptions.length != calculatedPayouts.length) {\n            emit LogError(\"ERROR::INVALID_PAYOUT_OPTIONS_COUNT\");\n            return;\n        }\n\n        for (uint256 i = 0; i < 5; i++) {\n            if (payoutOptions[i] != calculatedPayouts[i]) {\n                emit LogError(\"ERROR::INVALID_PAYOUT_OPTION\");\n                return;\n            }\n\n            if (payoutOptions[i] > MAX_PAYOUT) {\n                emit LogError(\"ERROR::INVALID_PAYOUT_OPTION\");\n                return;\n            }\n        }\n\n        bytes32 riskId = oracleRequests[_requestId].riskId;\n\n        if (risks[riskId].premiumMultiplier == 0) {\n            // It's the first policy for this risk, we accept any premium\n            risks[riskId].cumulatedWeightedPremium = premium * 100000 / weight;\n            risks[riskId].premiumMultiplier = 100000 / weight;\n        } else {\n            uint256 cumulatedWeightedPremium = premium * risks[riskId].premiumMultiplier;\n\n            if (cumulatedWeightedPremium > MAX_PAYOUT) {\n                cumulatedWeightedPremium = MAX_PAYOUT;\n            }\n\n            risks[riskId].cumulatedWeightedPremium = risks[riskId].cumulatedWeightedPremium + cumulatedWeightedPremium;\n        }\n\n        risks[riskId].weight = weight;\n\n        // Request fiat payment\n        uint256 requestId = actionRequests.length++;\n        actionRequests[requestId] = RequestMetadata(applicationId, 0, riskId);\n\n        emit LogRequestPayment(requestId, applicationId);\n    }\n\n    function confirmPaymentSuccess(uint256 _requestId) external {\n        uint256 applicationId = actionRequests[_requestId].applicationId;\n        bytes32 riskId = actionRequests[_requestId].riskId;\n\n        uint256 policyId = underwrite(applicationId);\n\n        // Request flight statuses\n        uint256 requestId = request(\n            abi.encode(\n                risks[riskId].arrivalTime + CHECK_OFFSET,\n                risks[riskId].carrierFlightNumber,\n                risks[riskId].departureYearMonthDay\n            ),\n            \"flightStatusCallback\",\n            \"FlightStatuses\",\n            1\n        );\n\n        oracleRequests[requestId] = RequestMetadata(\n            applicationId,\n            policyId,\n            riskId\n        );\n\n        emit LogRequestFlightStatus(\n            requestId,\n            risks[riskId].carrierFlightNumber,\n            risks[riskId].arrivalTime\n        );\n    }\n\n    function confirmPaymentFailure(uint256 _requestId) external {\n        decline(actionRequests[_requestId].applicationId);\n    }\n\n    function flightStatusCallback(uint256 _requestId, bytes calldata _response)\n        external\n    {\n        (bytes1 status, int256 delay) = abi.decode(_response, (bytes1, int256));\n\n        uint256 policyId = oracleRequests[_requestId].policyId;\n        uint256 applicationId = oracleRequests[_requestId].applicationId;\n        uint256[] memory payoutOptions = getPayoutOptions(applicationId);\n\n        if (status != \"L\" && status != \"A\" && status != \"C\" && status != \"D\") {\n            emit LogUnprocessableStatus(_requestId, policyId);\n            return;\n        }\n\n        if (status == \"A\") {\n            // todo: active, reschedule oracle call + 45 min\n            return;\n        }\n\n        if (status == \"C\") {\n            resolvePayout(policyId, payoutOptions[3]);\n        } else if (status == \"D\") {\n            resolvePayout(policyId, payoutOptions[4]);\n        } else if (delay >= 15 && delay < 30) {\n            resolvePayout(policyId, payoutOptions[0]);\n        } else if (delay >= 30 && delay < 45) {\n            resolvePayout(policyId, payoutOptions[1]);\n        } else if (delay >= 45) {\n            resolvePayout(policyId, payoutOptions[2]);\n        } else {\n            resolvePayout(policyId, 0);\n        }\n    }\n\n    function confirmPayout(uint256 _payoutId, uint256 _amount) external {\n        payout(_payoutId, _amount);\n    }\n\n    function calculatePayouts(uint256 _premium, uint256[6] memory _statistics)\n        public\n        view\n        returns (uint256 _weight, uint256[5] memory _payoutOptions)\n    {\n        require(_premium >= MIN_PREMIUM, \"ERROR::INVALID_PREMIUM\");\n        require(_premium <= MAX_PREMIUM, \"ERROR::INVALID_PREMIUM\");\n        require(_statistics[0] > MIN_OBSERVATIONS, \"ERROR::LOW_OBSERVATIONS\");\n\n        for (uint256 i = 1; i < 6; i++) {\n            _weight += weightPattern[i] * _statistics[i] * 10000 / _statistics[0];\n            // 1% = 100 / 100% = 10,000\n        }\n\n        // To avoid div0 in the payout section, we have to make a minimal assumption on weight\n        if (_weight == 0) {\n            _weight = 100000 / _statistics[0];\n        }\n\n        for (uint256 i = 0; i < 5; i++) {\n            _payoutOptions[i] = _premium * weightPattern[i + 1] * 10000 / _weight;\n\n            if (_payoutOptions[i] > MAX_PAYOUT) {\n                _payoutOptions[i] = MAX_PAYOUT;\n            }\n        }\n    }\n\n    function resolvePayout(uint256 _policyId, uint256 _payoutAmount) internal {\n        if (_payoutAmount == 0) {\n            expire(_policyId);\n\n            emit LogPolicyExpired(_policyId);\n        } else {\n            uint256 claimId = newClaim(_policyId);\n            uint256 payoutId = confirmClaim(claimId, _payoutAmount);\n\n            emit LogRequestPayout(_policyId, claimId, payoutId, _payoutAmount);\n        }\n    }\n}\n",
  "sourcePath": "/Users/ka/Projects/Altoros/Etherisc/dip-platform/core/gif-contracts/contracts/examples/FlightDelayOraclize/FlightDelayOraclize.sol",
  "compiler": {
    "name": "solc",
    "version": "0.5.2+commit.1df8f40c.Emscripten.clang"
  },
  "schemaVersion": "3.0.2",
  "updatedAt": "2019-02-27T13:51:49.197Z",
  "devdoc": {
    "methods": {}
  },
  "userdoc": {
    "methods": {}
  }
}