{
  "contractName": "FlightStatusesOracle",
  "abi": [
    {
      "constant": true,
      "inputs": [
        {
          "name": "",
          "type": "address"
        }
      ],
      "name": "permissions",
      "outputs": [
        {
          "name": "",
          "type": "uint256"
        }
      ],
      "payable": false,
      "stateMutability": "view",
      "type": "function",
      "signature": "0x01e88208"
    },
    {
      "constant": true,
      "inputs": [
        {
          "name": "",
          "type": "uint256"
        }
      ],
      "name": "rolesKeys",
      "outputs": [
        {
          "name": "",
          "type": "bytes32"
        }
      ],
      "payable": false,
      "stateMutability": "view",
      "type": "function",
      "signature": "0x2cf88d9e"
    },
    {
      "constant": true,
      "inputs": [],
      "name": "oraclizeGas",
      "outputs": [
        {
          "name": "",
          "type": "uint256"
        }
      ],
      "payable": false,
      "stateMutability": "view",
      "type": "function",
      "signature": "0x3e9836c6"
    },
    {
      "constant": true,
      "inputs": [
        {
          "name": "",
          "type": "bytes32"
        }
      ],
      "name": "roles",
      "outputs": [
        {
          "name": "",
          "type": "uint256"
        }
      ],
      "payable": false,
      "stateMutability": "view",
      "type": "function",
      "signature": "0x95356651"
    },
    {
      "constant": true,
      "inputs": [
        {
          "name": "",
          "type": "bytes32"
        }
      ],
      "name": "requests",
      "outputs": [
        {
          "name": "",
          "type": "uint256"
        }
      ],
      "payable": false,
      "stateMutability": "view",
      "type": "function",
      "signature": "0x9d866985"
    },
    {
      "constant": true,
      "inputs": [
        {
          "name": "_address",
          "type": "address"
        },
        {
          "name": "_role",
          "type": "bytes32"
        }
      ],
      "name": "hasRole",
      "outputs": [
        {
          "name": "_hasRole",
          "type": "bool"
        }
      ],
      "payable": false,
      "stateMutability": "view",
      "type": "function",
      "signature": "0xac4ab3fb"
    },
    {
      "constant": false,
      "inputs": [
        {
          "name": "_address",
          "type": "address"
        },
        {
          "name": "_role",
          "type": "bytes32"
        }
      ],
      "name": "addRoleToAccount",
      "outputs": [],
      "payable": false,
      "stateMutability": "nonpayable",
      "type": "function",
      "signature": "0xc2e86735"
    },
    {
      "constant": false,
      "inputs": [
        {
          "name": "_role",
          "type": "bytes32"
        }
      ],
      "name": "createRole",
      "outputs": [],
      "payable": false,
      "stateMutability": "nonpayable",
      "type": "function",
      "signature": "0xc42994a2"
    },
    {
      "constant": true,
      "inputs": [],
      "name": "testMode",
      "outputs": [
        {
          "name": "",
          "type": "bool"
        }
      ],
      "payable": false,
      "stateMutability": "view",
      "type": "function",
      "signature": "0xcd9ea342"
    },
    {
      "constant": true,
      "inputs": [],
      "name": "oracleService",
      "outputs": [
        {
          "name": "",
          "type": "address"
        }
      ],
      "payable": false,
      "stateMutability": "view",
      "type": "function",
      "signature": "0xdaa64f95"
    },
    {
      "constant": false,
      "inputs": [
        {
          "name": "_address",
          "type": "address"
        }
      ],
      "name": "cleanRolesForAccount",
      "outputs": [],
      "payable": false,
      "stateMutability": "nonpayable",
      "type": "function",
      "signature": "0xf566e10e"
    },
    {
      "inputs": [
        {
          "name": "_oracleController",
          "type": "address"
        },
        {
          "name": "_encryptedQuery",
          "type": "string"
        }
      ],
      "payable": true,
      "stateMutability": "payable",
      "type": "constructor",
      "signature": "constructor"
    },
    {
      "payable": true,
      "stateMutability": "payable",
      "type": "fallback"
    },
    {
      "anonymous": false,
      "inputs": [
        {
          "indexed": false,
          "name": "requestId",
          "type": "uint256"
        },
        {
          "indexed": false,
          "name": "queryId",
          "type": "bytes32"
        },
        {
          "indexed": false,
          "name": "time",
          "type": "uint256"
        },
        {
          "indexed": false,
          "name": "url",
          "type": "string"
        }
      ],
      "name": "OraclizeRequested",
      "type": "event",
      "signature": "0xcb3c531d1c570fbf13699173d47878820fd8b7f80fbbfd85b88f453695b24c72"
    },
    {
      "anonymous": false,
      "inputs": [
        {
          "indexed": false,
          "name": "requestId",
          "type": "uint256"
        },
        {
          "indexed": false,
          "name": "queryId",
          "type": "bytes32"
        },
        {
          "indexed": false,
          "name": "result",
          "type": "string"
        },
        {
          "indexed": false,
          "name": "proof",
          "type": "bytes"
        }
      ],
      "name": "OraclizeResponded",
      "type": "event",
      "signature": "0x583eba0eebad615e8dfe2e00bcd166c66097833240dc12faf1a1e1eabb6437f1"
    },
    {
      "constant": false,
      "inputs": [
        {
          "name": "_testMode",
          "type": "bool"
        }
      ],
      "name": "setTestMode",
      "outputs": [],
      "payable": false,
      "stateMutability": "nonpayable",
      "type": "function",
      "signature": "0x1ff1292f"
    },
    {
      "constant": false,
      "inputs": [
        {
          "name": "_oraclizeGas",
          "type": "uint256"
        }
      ],
      "name": "setOraclizeGas",
      "outputs": [],
      "payable": false,
      "stateMutability": "nonpayable",
      "type": "function",
      "signature": "0xfbf44a1b"
    },
    {
      "constant": false,
      "inputs": [
        {
          "name": "_requestId",
          "type": "uint256"
        },
        {
          "name": "_input",
          "type": "bytes"
        }
      ],
      "name": "request",
      "outputs": [],
      "payable": false,
      "stateMutability": "nonpayable",
      "type": "function",
      "signature": "0xffc79065"
    },
    {
      "constant": false,
      "inputs": [
        {
          "name": "_myid",
          "type": "bytes32"
        },
        {
          "name": "_result",
          "type": "string"
        }
      ],
      "name": "__callback",
      "outputs": [],
      "payable": false,
      "stateMutability": "nonpayable",
      "type": "function",
      "signature": "0x27dc297e"
    },
    {
      "constant": false,
      "inputs": [
        {
          "name": "_queryId",
          "type": "bytes32"
        },
        {
          "name": "_result",
          "type": "string"
        },
        {
          "name": "_proof",
          "type": "bytes"
        }
      ],
      "name": "__callback",
      "outputs": [],
      "payable": false,
      "stateMutability": "nonpayable",
      "type": "function",
      "signature": "0x38bbfa50"
    },
    {
      "constant": true,
      "inputs": [
        {
          "name": "_carrierFlightNumber",
          "type": "bytes32"
        },
        {
          "name": "_departureYearMonthDay",
          "type": "bytes32"
        }
      ],
      "name": "getOraclizeUrl",
      "outputs": [
        {
          "name": "_oraclizeUrl",
          "type": "string"
        }
      ],
      "payable": false,
      "stateMutability": "view",
      "type": "function",
      "signature": "0x6614517d"
    }
  ],
  "bytecode": "0x608060408190526009805460ff191690556216e360600b556200298738819003908190833981018060405260408110156200003957600080fd5b8151602083018051919392830192916401000000008111156200005b57600080fd5b820160208101848111156200006f57600080fd5b81516401000000008111828201871017156200008a57600080fd5b505060038054600160a060020a031916600160a060020a0387161790558051909350620000c19250600a91506020840190620000ca565b5050506200016f565b828054600181600116156101000203166002900490600052602060002090601f016020900481019282601f106200010d57805160ff19168380011785556200013d565b828001600101855582156200013d579182015b828111156200013d57825182559160200191906001019062000120565b506200014b9291506200014f565b5090565b6200016c91905b808211156200014b576000815560010162000156565b90565b612808806200017f6000396000f3fe6080604052600436106101025760003560e060020a900480639d86698511610099578063cd9ea34211610068578063cd9ea34214610558578063daa64f951461056d578063f566e10e1461059e578063fbf44a1b146105d1578063ffc79065146105fb57610102565b80639d8669851461047e578063ac4ab3fb146104a8578063c2e86735146104f5578063c42994a21461052e57610102565b806338bbfa50116100d557806338bbfa50146102595780633e9836c61461039a5780636614517d146103af578063953566511461045457610102565b806301e88208146101045780631ff1292f1461014957806327dc297e146101755780632cf88d9e1461022f575b005b34801561011057600080fd5b506101376004803603602081101561012757600080fd5b5035600160a060020a031661067f565b60408051918252519081900360200190f35b34801561015557600080fd5b506101026004803603602081101561016c57600080fd5b50351515610691565b34801561018157600080fd5b506101026004803603604081101561019857600080fd5b813591908101906040810160208201356401000000008111156101ba57600080fd5b8201836020820111156101cc57600080fd5b803590602001918460018302840111640100000000831117156101ee57600080fd5b91908080601f0160208091040260200160405190810160405280939291908181526020018383808284376000920191909152509295506106a4945050505050565b34801561023b57600080fd5b506101376004803603602081101561025257600080fd5b50356106c4565b34801561026557600080fd5b506101026004803603606081101561027c57600080fd5b8135919081019060408101602082013564010000000081111561029e57600080fd5b8201836020820111156102b057600080fd5b803590602001918460018302840111640100000000831117156102d257600080fd5b91908080601f016020809104026020016040519081016040528093929190818152602001838380828437600092019190915250929594936020810193503591505064010000000081111561032557600080fd5b82018360208201111561033757600080fd5b8035906020019184600183028401116401000000008311171561035957600080fd5b91908080601f0160208091040260200160405190810160405280939291908181526020018383808284376000920191909152509295506106e3945050505050565b3480156103a657600080fd5b50610137610e59565b3480156103bb57600080fd5b506103df600480360360408110156103d257600080fd5b5080359060200135610e5f565b6040805160208082528351818301528351919283929083019185019080838360005b83811015610419578181015183820152602001610401565b50505050905090810190601f1680156104465780820380516001836020036101000a031916815260200191505b509250505060405180910390f35b34801561046057600080fd5b506101376004803603602081101561047757600080fd5b50356110cb565b34801561048a57600080fd5b50610137600480360360208110156104a157600080fd5b50356110dd565b3480156104b457600080fd5b506104e1600480360360408110156104cb57600080fd5b50600160a060020a0381351690602001356110ef565b604080519115158252519081900360200190f35b34801561050157600080fd5b506101026004803603604081101561051857600080fd5b50600160a060020a03813516906020013561111b565b34801561053a57600080fd5b506101026004803603602081101561055157600080fd5b5035611162565b34801561056457600080fd5b506104e16111c5565b34801561057957600080fd5b506105826111ce565b60408051600160a060020a039092168252519081900360200190f35b3480156105aa57600080fd5b50610102600480360360208110156105c157600080fd5b5035600160a060020a03166111dd565b3480156105dd57600080fd5b50610102600480360360208110156105f457600080fd5b50356111f7565b34801561060757600080fd5b506101026004803603604081101561061e57600080fd5b8135919081019060408101602082013564010000000081111561064057600080fd5b82018360208201111561065257600080fd5b8035906020019184600183028401116401000000008311171561067457600080fd5b5090925090506111fc565b60026020526000908152604090205481565b6009805460ff1916911515919091179055565b6040805160008152602081019091526106c090839083906106e3565b5050565b60018054829081106106d257fe5b600091825260209091200154905081565b6106eb611365565b600160a060020a031633146106ff57600080fd5b6000838152600c602052604090205461071661262d565b61071f84611563565b905061078a61074960408051908101604052806001815260200160f960020a601102815250611563565b61077e61077160408051908101604052806001815260200160f960020a601102815250611563565b849063ffffffff61158816565b9063ffffffff6115c916565b506107d86107cb6107b660408051908101604052806001815260200160f960020a601102815250611563565b6107bf8461162c565b9063ffffffff61158816565b829063ffffffff61165216565b5060006107e4826116b0565b805160009081106107f157fe5b016020015160f860020a908190040290507f4300000000000000000000000000000000000000000000000000000000000000600160f860020a0319821614156108705760408051600160f860020a03198316602082015260001981830152815180820383018152606090910190915261086b908490611707565b610d41565b7f4400000000000000000000000000000000000000000000000000000000000000600160f860020a0319821614156108d95760408051600160f860020a03198316602082015260001981830152815180820383018152606090910190915261086b908490611707565b7f4c00000000000000000000000000000000000000000000000000000000000000600160f860020a031982161480159061093d57507f4100000000000000000000000000000000000000000000000000000000000000600160f860020a0319821614155b801561097357507f4300000000000000000000000000000000000000000000000000000000000000600160f860020a0319821614155b80156109a957507f4400000000000000000000000000000000000000000000000000000000000000600160f860020a0319821614155b156109e55760408051600160f860020a03198316602082015260001981830152815180820383018152606090910190915261086b908490611707565b6109ee85611563565b91506000610a40610a336040805190810160405280601181526020017f61637475616c476174654172726976616c000000000000000000000000000000815250611563565b849063ffffffff61180516565b90507f4100000000000000000000000000000000000000000000000000000000000000600160f860020a031983161480610aac57507f4c00000000000000000000000000000000000000000000000000000000000000600160f860020a03198316148015610aac575080155b15610b0357604080517f41000000000000000000000000000000000000000000000000000000000000006020820152600019818301528151808203830181526060909101909152610afe908590611707565b610d3f565b7f4c00000000000000000000000000000000000000000000000000000000000000600160f860020a03198316148015610b395750805b15610d0857610b4661262d565b610b846040805190810160405280601b81526020017f226172726976616c4761746544656c61794d696e75746573223a200000000000815250611563565b90506000610b98858363ffffffff61180516565b15610cc757610bb18261077e878263ffffffff61158816565b50610c1b610c0e610bdd60408051908101604052806001815260200160f960020a601102815250611563565b61077e610c0560408051908101604052806001815260200160f960020a601102815250611563565b6107bf8a61162c565b869063ffffffff61165216565b50610c69610c0e610c606040805190810160405280600181526020017f7d00000000000000000000000000000000000000000000000000000000000000815250611563565b6107bf8861162c565b50610cae610c0e610c606040805190810160405280600181526020017f2c00000000000000000000000000000000000000000000000000000000000000815250611563565b50610cc0610cbb866116b0565b61182c565b9050610ccb565b5060005b60408051600160f860020a0319861660208201528082018390528151808203830181526060909101909152610d01908790611707565b5050610d3f565b60408051600160f860020a031984166020820152600019818301528151808203830181526060909101909152610d3f908590611707565b505b7f583eba0eebad615e8dfe2e00bcd166c66097833240dc12faf1a1e1eabb6437f183878787604051808581526020018481526020018060200180602001838103835285818151815260200191508051906020019080838360005b83811015610db3578181015183820152602001610d9b565b50505050905090810190601f168015610de05780820380516001836020036101000a031916815260200191505b50838103825284518152845160209182019186019080838360005b83811015610e13578181015183820152602001610dfb565b50505050905090810190601f168015610e405780820380516001836020036101000a031916815260200191505b50965050505050505060405180910390a1505050505050565b600b5481565b600954606090819060ff16151560011415610f3d57610f3660a060405190810160405280606b81526020016126dd606b9139610e9a86611839565b610ee16040805190810160405280600581526020017f2f6465702f000000000000000000000000000000000000000000000000000000815250610edc88611839565b61194e565b6040805190810160405280600181526020017f3f000000000000000000000000000000000000000000000000000000000000008152506080604051908101604052806041815260200161279c6041913961197f565b90506110c4565b6110c16080604051908101604052806054815260200161274860549139610f6386611839565b610fa56040805190810160405280600581526020017f2f6465702f000000000000000000000000000000000000000000000000000000815250610edc88611839565b604080518082018252600d81527f3f247b5b646563727970745d2000000000000000000000000000000000000000602080830191909152600a80548451601f600260001961010060018616150201909316929092049182018490048402810184019095528085526110a294928301828280156110625780601f1061103757610100808354040283529160200191611062565b820191906000526020600020905b81548152906001019060200180831161104557829003601f168201915b50505050506040805190810160405280600281526020017f7d26000000000000000000000000000000000000000000000000000000000000815250611bd4565b6080604051908101604052806041815260200161279c6041913961197f565b90505b9392505050565b60006020819052908152604090205481565b600c6020526000908152604090205481565b60009081526020818152604080832054600160a060020a03909416835260029091528120549091161190565b600081815260208190526040902054151561113557600080fd5b60009081526020818152604080832054600160a060020a0390941683526002909152902080549091179055565b6000818152602081905260409020541561117b57600080fd5b60018054600083815260208190526040812060029290920a909155815480830183559190527fb10e2d527612073b26eecdfd717e6a320cf44b4afac2b0732d9fcbe2b7fa0cf60155565b60095460ff1681565b600354600160a060020a031681565b600160a060020a0316600090815260026020526040812055565b600b55565b60008060008484606081101561121157600080fd5b508035935060208101359250604001359050606061122f8383610e5f565b6009549091506000906112909060ff16151560011461124e5785611251565b60005b6040805190810160405280600681526020017f6e6573746564000000000000000000000000000000000000000000000000000081525084600b54611c03565b905087600c6000838152602001908152602001600020819055507fcb3c531d1c570fbf13699173d47878820fd8b7f80fbbfd85b88f453695b24c72888287856040518085815260200184815260200183815260200180602001828103825283818151815260200191508051906020019080838360005b8381101561131e578181015183820152602001611306565b50505050905090810190601f16801561134b5780820380516001836020036101000a031916815260200191505b509550505050505060405180910390a15050505050505050565b600554600090600160a060020a03161580611392575060055461139090600160a060020a031661200e565b155b156113a3576113a16000612012565b505b600560009054906101000a9004600160a060020a0316600160a060020a03166338cc48316040518163ffffffff1660e060020a028152600401602060405180830381600087803b1580156113f657600080fd5b505af115801561140a573d6000803e3d6000fd5b505050506040513d602081101561142057600080fd5b5051600454600160a060020a039081169116146114d657600560009054906101000a9004600160a060020a0316600160a060020a03166338cc48316040518163ffffffff1660e060020a028152600401602060405180830381600087803b15801561148a57600080fd5b505af115801561149e573d6000803e3d6000fd5b505050506040513d60208110156114b457600080fd5b505160048054600160a060020a031916600160a060020a039092169190911790555b60048054604080517fc281d19e0000000000000000000000000000000000000000000000000000000081529051600160a060020a039092169263c281d19e928282019260209290829003018186803b15801561153157600080fd5b505afa158015611545573d6000803e3d6000fd5b505050506040513d602081101561155b57600080fd5b505190505b90565b61156b61262d565b506040805180820190915281518152602082810190820152919050565b61159061262d565b60006115ae846000015185602001518560000151866020015161201c565b60208501805186519083039003865252508290505b92915050565b6115d161262d565b8151835110156115e25750816115c3565b60208083015190840151600191146116095750815160208481015190840151829020919020145b80156116245782518451038452825160208501805190910190525b509192915050565b61163461262d565b50604080518082019091528151815260208083015190820152919050565b61165a61262d565b81518351101561166b5750816115c3565b8151835160208086015190850151910191909103906001908214611699575082516020840151819020908220145b80156116a757835185510385525b50929392505050565b60608082600001516040519080825280601f01601f1916602001820160405280156116e2576020820181803883390190505b509050600060208201905061170081856020015186600001516120d7565b5092915050565b600354604080517fe409534a0000000000000000000000000000000000000000000000000000000081526004810185815260248201928352845160448301528451600160a060020a039094169363e409534a938793879392606490910190602085019080838360005b83811015611788578181015183820152602001611770565b50505050905090810190601f1680156117b55780820380516001836020036101000a031916815260200191505b509350505050602060405180830381600087803b1580156117d557600080fd5b505af11580156117e9573d6000803e3d6000fd5b505050506040513d60208110156117ff57600080fd5b50505050565b60208083015183518351928401516000936118239291849190612115565b14159392505050565b60006115c38260006121c5565b6040805160208082528183019092526060918291906020820181803883390190505090506000805b60208110156118ba576008810260020a8502600160f860020a03198116156118b15780848481518110151561189257fe5b906020010190600160f860020a031916908160001a9053506001909201915b50600101611861565b506060816040519080825280601f01601f1916602001820160405280156118e8576020820181803883390190505b50905060005b8281101561194557838181518110151561190457fe5b90602001015160f860020a900460f860020a02828281518110151561192557fe5b906020010190600160f860020a031916908160001a9053506001016118ee565b50949350505050565b6040805160208181018352600080835283518083018552818152845192830190945281526060926110c49286928692905b6060808690506060869050606086905060608690506060869050606081518351855187518951010101016040519080825280601f01601f1916602001820160405280156119d3576020820181803883390190505b509050806000805b8851811015611a395788818151811015156119f257fe5b90602001015160f860020a900460f860020a028383806001019450815181101515611a1957fe5b906020010190600160f860020a031916908160001a9053506001016119db565b5060005b8751811015611a9b578781815181101515611a5457fe5b90602001015160f860020a900460f860020a028383806001019450815181101515611a7b57fe5b906020010190600160f860020a031916908160001a905350600101611a3d565b5060005b8651811015611afd578681815181101515611ab657fe5b90602001015160f860020a900460f860020a028383806001019450815181101515611add57fe5b906020010190600160f860020a031916908160001a905350600101611a9f565b5060005b8551811015611b5f578581815181101515611b1857fe5b90602001015160f860020a900460f860020a028383806001019450815181101515611b3f57fe5b906020010190600160f860020a031916908160001a905350600101611b01565b5060005b8451811015611bc1578481815181101515611b7a57fe5b90602001015160f860020a900460f860020a028383806001019450815181101515611ba157fe5b906020010190600160f860020a031916908160001a905350600101611b63565b50909d9c50505050505050505050505050565b60606110c18484846020604051908101604052806000815250602060405190810160405280600081525061197f565b600554600090600160a060020a03161580611c305750600554611c2e90600160a060020a031661200e565b155b15611c4157611c3f6000612012565b505b600560009054906101000a9004600160a060020a0316600160a060020a03166338cc48316040518163ffffffff1660e060020a028152600401602060405180830381600087803b158015611c9457600080fd5b505af1158015611ca8573d6000803e3d6000fd5b505050506040513d6020811015611cbe57600080fd5b5051600454600160a060020a03908116911614611d7457600560009054906101000a9004600160a060020a0316600160a060020a03166338cc48316040518163ffffffff1660e060020a028152600401602060405180830381600087803b158015611d2857600080fd5b505af1158015611d3c573d6000803e3d6000fd5b505050506040513d6020811015611d5257600080fd5b505160048054600160a060020a031916600160a060020a039092169190911790555b60048054604080517f2ef3accc00000000000000000000000000000000000000000000000000000000815260248101869052928301908152865160448401528651600093600160a060020a0390931692632ef3accc9289928892829160649091019060208601908083838c5b83811015611df8578181015183820152602001611de0565b50505050905090810190601f168015611e255780820380516001836020036101000a031916815260200191505b509350505050602060405180830381600087803b158015611e4557600080fd5b505af1158015611e59573d6000803e3d6000fd5b505050506040513d6020811015611e6f57600080fd5b50519050670de0b6b3a76400003a840201811115611e91575060009050612006565b600480546040517fc51be90f00000000000000000000000000000000000000000000000000000000815291820188815260648301869052608060248401908152885160848501528851600160a060020a039093169363c51be90f9386938c938c938c938c939291604481019160a490910190602088019080838360005b83811015611f26578181015183820152602001611f0e565b50505050905090810190601f168015611f535780820380516001836020036101000a031916815260200191505b50838103825285518152855160209182019187019080838360005b83811015611f86578181015183820152602001611f6e565b50505050905090810190601f168015611fb35780820380516001836020036101000a031916815260200191505b5096505050505050506020604051808303818588803b158015611fd557600080fd5b505af1158015611fe9573d6000803e3d6000fd5b50505050506040513d602081101561200057600080fd5b50519150505b949350505050565b3b90565b60006115c36122f2565b600083818685116120ca576020851161208f5783518251600019600860208990030260020a011991821690888a018890039083165b8083146120815781861061206f578a8a019650505050505050612006565b50600190940180519094908316612051565b859650505050505050612006565b508383206000905b85880382116120c857858320818114156120b75783945050505050612006565b506001928301929190910190612097565b505b5050509290910192915050565b5b602081106120f7578151835260209283019290910190601f19016120d8565b905182516020929092036101000a6000190180199091169116179052565b6000808584116121bb57602084116121855750815184860184900380519091600019600860208890030260020a0119919082169082165b808214612179578784116121665787945050505050612006565b506000199092018051909290821661214c565b50505083019050612006565b508282208386038501905b8582106121b957848220818114156121ad57505083019050612006565b60018303925050612190565b505b5092949350505050565b6000828180805b83518110156122d757603084828151811015156121e557fe5b90602001015160f860020a900460f860020a0260f860020a900460ff161015801561223b57506039848281518110151561221b57fe5b90602001015160f860020a900460f860020a0260f860020a900460ff1611155b1561229757811561225a57851515612252576122d7565b600019909501945b600a830292506030848281518110151561227057fe5b90602001015160f860020a900460f860020a0260f860020a900460ff1603830192506122cf565b83818151811015156122a557fe5b90602001015160f860020a900460f860020a0260f860020a900460ff16602e14156122cf57600191505b6001016121cc565b5060008511156119455784600a0a8202915050949350505050565b600080612312731d3b2638a7cc9f2cb3d298a3da7a90b67e5506ed61200e565b11156123835760058054600160a060020a031916731d3b2638a7cc9f2cb3d298a3da7a90b67e5506ed17905560408051808201909152600b81527f6574685f6d61696e6e6574000000000000000000000000000000000000000000602082015261237b9061261a565b506001611560565b60006123a273c03a2615d5efaf5f49f60b7bb6583eaec212fdf161200e565b111561240b5760058054600160a060020a03191673c03a2615d5efaf5f49f60b7bb6583eaec212fdf117905560408051808201909152600c81527f6574685f726f707374656e330000000000000000000000000000000000000000602082015261237b9061261a565b600061242a73b7a07bcf2ba2f2703b24c0691b5278999c59ac7e61200e565b11156124935760058054600160a060020a03191673b7a07bcf2ba2f2703b24c0691b5278999c59ac7e17905560408051808201909152600981527f6574685f6b6f76616e0000000000000000000000000000000000000000000000602082015261237b9061261a565b60006124b273146500cfd35b22e4a392fe0adc06de1a1368ed4861200e565b111561251b5760058054600160a060020a03191673146500cfd35b22e4a392fe0adc06de1a1368ed4817905560408051808201909152600b81527f6574685f72696e6b656279000000000000000000000000000000000000000000602082015261237b9061261a565b600061253a736f485c8bf6fc43ea212e93bbf8ce046c7f1cb47561200e565b111561256e575060058054600160a060020a031916736f485c8bf6fc43ea212e93bbf8ce046c7f1cb4751790556001611560565b600061258d7320e12a1f859b3feae5fb2a0a32c18f5a65555bbf61200e565b11156125c1575060058054600160a060020a0319167320e12a1f859b3feae5fb2a0a32c18f5a65555bbf1790556001611560565b60006125e07351efaf4c8b3c9afbd5ab9f4bbc82784ab6ef8faa61200e565b1115612614575060058054600160a060020a0319167351efaf4c8b3c9afbd5ab9f4bbc82784ab6ef8faa1790556001611560565b50600090565b80516106c0906006906020840190612644565b604080518082019091526000808252602082015290565b828054600181600116156101000203166002900490600052602060002090601f016020900481019282601f1061268557805160ff19168380011785556126b2565b828001600101855582156126b2579182015b828111156126b2578251825591602001919060010190612697565b506126be9291506126c2565b5090565b61156091905b808211156126be57600081556001016126c856fe5b55524c5d206a736f6e2868747470733a2f2f666c696768742d64656c61792d74657374696e672d6170692d7a7878747573757274622e6e6f772e73682f666c65782f666c696768747374617475732f726573742f76322f6a736f6e2f666c696768742f7374617475732f5b55524c5d206a736f6e2868747470733a2f2f6170692e666c6967687473746174732e636f6d2f666c65782f666c696768747374617475732f726573742f76322f6a736f6e2f666c696768742f7374617475732f7574633d74727565292e666c6967687453746174757365735b305d5b27737461747573272c2764656c617973272c276f7065726174696f6e616c54696d6573275da165627a7a72305820f58d3d5fc81fba05c71d05e5ac24814379fe2d49608cfbfe8bb390d3e6b76c180029",
  "source": "pragma solidity 0.5.2;\n\nimport \"../../Oracle.sol\";\nimport \"./oraclizeAPI.sol\";\nimport \"./strings.sol\";\n\ncontract FlightStatusesOracle is Oracle, usingOraclize {\n    using strings for *;\n\n    modifier onlyOraclize {\n        require(msg.sender == oraclize_cbAddress());\n        _;\n    }\n\n    event OraclizeRequested(\n        uint256 requestId,\n        bytes32 queryId,\n        uint256 time,\n        string url\n    );\n\n    event OraclizeResponded(\n        uint256 requestId,\n        bytes32 queryId,\n        string result,\n        bytes proof\n    );\n\n    bool public testMode = false;\n\n    string private encryptedQuery;\n\n    // flight status api is v2, see https://developer.flightstats.com/api-docs/flightstatus/v2/flight\n    string constant ORACLIZE_STATUS_BASE_URL_TEST = \"[URL] json(https://flight-delay-testing-api-zxxtusurtb.now.sh/flex/flightstatus/rest/v2/json/flight/status/\";\n    string constant ORACLIZE_STATUS_BASE_URL = \"[URL] json(https://api.flightstats.com/flex/flightstatus/rest/v2/json/flight/status/\";\n    string constant ORACLIZE_STATUS_QUERY = \"utc=true).flightStatuses[0]['status','delays','operationalTimes']\";\n\n    uint256 public oraclizeGas = 1500000;\n\n    mapping(bytes32 => uint256) public requests;\n\n    constructor(address _oracleController, string memory _encryptedQuery)\n        public\n        payable\n        Oracle(_oracleController)\n    {\n        encryptedQuery = _encryptedQuery;\n    }\n\n    function() external payable {}\n\n    function setTestMode(bool _testMode) external {\n        // todo: set permissions\n        testMode = _testMode;\n    }\n\n    function setOraclizeGas(uint256 _oraclizeGas) external {\n        // todo: set permissions\n        oraclizeGas = _oraclizeGas;\n    }\n\n    function request(uint256 _requestId, bytes calldata _input) external {\n        // todo: set permissions\n\n        (uint256 oraclizeTime, bytes32 carrierFlightNumber, bytes32 departureYearMonthDay) = abi.decode(\n            _input,\n            (uint256, bytes32, bytes32)\n        );\n\n        string memory oraclizeUrl = getOraclizeUrl(\n            carrierFlightNumber,\n            departureYearMonthDay\n        );\n\n        bytes32 queryId = oraclize_query(\n            testMode == true ? 0 : oraclizeTime,\n            \"nested\",\n            oraclizeUrl,\n            oraclizeGas\n        );\n\n        requests[queryId] = _requestId;\n\n        emit OraclizeRequested(_requestId, queryId, oraclizeTime, oraclizeUrl);\n    }\n\n    function __callback(\n        bytes32 _queryId,\n        string memory _result,\n        bytes memory _proof\n    ) public onlyOraclize {\n        uint256 requestId = requests[_queryId];\n\n        strings.slice memory slResult = _result.toSlice();\n\n        // todo: add implementation\n        slResult.find(\"\\\"\".toSlice()).beyond(\"\\\"\".toSlice());\n        slResult.until(slResult.copy().find(\"\\\"\".toSlice()));\n        bytes1 status = bytes(slResult.toString())[0]; // s = L\n\n        if (status == \"C\") {\n            // flight cancelled\n            respond(requestId, abi.encode(status, -1));\n        } else if (status == \"D\") {\n            // flight diverted\n            respond(requestId, abi.encode(status, -1));\n        } else if (status != \"L\" && status != \"A\" && status != \"C\" && status != \"D\") {\n            // Unprocessable status;\n            respond(requestId, abi.encode(status, -1));\n        } else {\n            slResult = _result.toSlice();\n            bool arrived = slResult.contains(\"actualGateArrival\".toSlice());\n\n            if (status == \"A\" || (status == \"L\" && !arrived)) {\n                // flight still active or not at gate\n                respond(requestId, abi.encode(bytes1(\"A\"), -1));\n            } else if (status == \"L\" && arrived) {\n                strings.slice memory aG = \"\\\"arrivalGateDelayMinutes\\\": \".toSlice(\n\n                );\n\n                uint256 delayInMinutes;\n\n                if (slResult.contains(aG)) {\n                    slResult.find(aG).beyond(aG);\n                    slResult.until(\n                        slResult.copy().find(\"\\\"\".toSlice()).beyond(\n                            \"\\\"\".toSlice()\n                        )\n                    );\n                    // truffle bug, replace by \"}\" as soon as it is fixed.\n                    slResult.until(slResult.copy().find(\"\\x7D\".toSlice()));\n                    slResult.until(slResult.copy().find(\",\".toSlice()));\n                    delayInMinutes = parseInt(slResult.toString());\n                } else {\n                    delayInMinutes = 0;\n                }\n\n                respond(requestId, abi.encode(status, delayInMinutes));\n            } else {\n                // no delay info\n                respond(requestId, abi.encode(status, -1));\n            }\n\n        }\n\n        emit OraclizeResponded(requestId, _queryId, _result, _proof);\n    }\n\n    function getOraclizeUrl(\n        bytes32 _carrierFlightNumber,\n        bytes32 _departureYearMonthDay\n    ) public view returns (string memory _oraclizeUrl) {\n        string memory url;\n\n        if (testMode == true) {\n            url = strConcat(\n                ORACLIZE_STATUS_BASE_URL_TEST,\n                b32toString(_carrierFlightNumber),\n                strConcat(\"/dep/\", b32toString(_departureYearMonthDay)),\n                \"?\",\n                ORACLIZE_STATUS_QUERY\n            );\n        } else {\n            url = strConcat(\n                ORACLIZE_STATUS_BASE_URL,\n                b32toString(_carrierFlightNumber),\n                strConcat(\"/dep/\", b32toString(_departureYearMonthDay)),\n                strConcat(\"?${[decrypt] \", encryptedQuery, \"}&\"),\n                ORACLIZE_STATUS_QUERY\n            );\n        }\n\n        _oraclizeUrl = url;\n    }\n\n    function b32toString(bytes32 x) internal pure returns (string memory) {\n        // gas usage: about 1K gas per char.\n        bytes memory bytesString = new bytes(32);\n        uint256 charCount = 0;\n\n        for (uint256 j = 0; j < 32; j++) {\n            byte char = byte(bytes32(uint(x) * 2 ** (8 * j)));\n            if (char != 0) {\n                bytesString[charCount] = char;\n                charCount++;\n            }\n        }\n\n        bytes memory bytesStringTrimmed = new bytes(charCount);\n\n        for (uint256 j = 0; j < charCount; j++) {\n            bytesStringTrimmed[j] = bytesString[j];\n        }\n\n        return string(bytesStringTrimmed);\n    }\n}\n",
  "sourcePath": "/Users/ka/Projects/Altoros/Etherisc/dip-platform/core/gif-contracts/contracts/examples/OraclizeBridgeOracles/FlightStatusesOracle.sol",
  "compiler": {
    "name": "solc",
    "version": "0.5.2+commit.1df8f40c.Emscripten.clang"
  },
  "schemaVersion": "3.0.2",
  "updatedAt": "2019-02-18T10:33:47.663Z",
  "devdoc": {
    "methods": {}
  },
  "userdoc": {
    "methods": {}
  }
}