{
  "contractName": "FlightDelayManual",
  "abi": [
    {
      "constant": true,
      "inputs": [
        {
          "name": "",
          "type": "address"
        }
      ],
      "name": "permissions",
      "outputs": [
        {
          "name": "",
          "type": "uint256"
        }
      ],
      "payable": false,
      "stateMutability": "view",
      "type": "function",
      "signature": "0x01e88208"
    },
    {
      "constant": true,
      "inputs": [],
      "name": "POLICY_FLOW",
      "outputs": [
        {
          "name": "",
          "type": "bytes32"
        }
      ],
      "payable": false,
      "stateMutability": "view",
      "type": "function",
      "signature": "0x09128d83"
    },
    {
      "constant": true,
      "inputs": [],
      "name": "maintenanceMode",
      "outputs": [
        {
          "name": "",
          "type": "bool"
        }
      ],
      "payable": false,
      "stateMutability": "view",
      "type": "function",
      "signature": "0x25dce0a6"
    },
    {
      "constant": true,
      "inputs": [
        {
          "name": "",
          "type": "uint256"
        }
      ],
      "name": "rolesKeys",
      "outputs": [
        {
          "name": "",
          "type": "bytes32"
        }
      ],
      "payable": false,
      "stateMutability": "view",
      "type": "function",
      "signature": "0x2cf88d9e"
    },
    {
      "constant": true,
      "inputs": [],
      "name": "MIN_OBSERVATIONS",
      "outputs": [
        {
          "name": "",
          "type": "uint256"
        }
      ],
      "payable": false,
      "stateMutability": "view",
      "type": "function",
      "signature": "0x39cee407"
    },
    {
      "constant": true,
      "inputs": [],
      "name": "MAX_PAYOUT",
      "outputs": [
        {
          "name": "",
          "type": "uint256"
        }
      ],
      "payable": false,
      "stateMutability": "view",
      "type": "function",
      "signature": "0x4b9ddafe"
    },
    {
      "constant": true,
      "inputs": [],
      "name": "MAX_PREMIUM",
      "outputs": [
        {
          "name": "",
          "type": "uint256"
        }
      ],
      "payable": false,
      "stateMutability": "view",
      "type": "function",
      "signature": "0x4cdabb16"
    },
    {
      "constant": true,
      "inputs": [
        {
          "name": "",
          "type": "uint256"
        }
      ],
      "name": "requests",
      "outputs": [
        {
          "name": "applicationId",
          "type": "uint256"
        },
        {
          "name": "policyId",
          "type": "uint256"
        },
        {
          "name": "riskId",
          "type": "bytes32"
        }
      ],
      "payable": false,
      "stateMutability": "view",
      "type": "function",
      "signature": "0x81d12c58"
    },
    {
      "constant": true,
      "inputs": [
        {
          "name": "",
          "type": "bytes32"
        }
      ],
      "name": "risks",
      "outputs": [
        {
          "name": "carrierFlightNumber",
          "type": "bytes32"
        },
        {
          "name": "departureYearMonthDay",
          "type": "bytes32"
        },
        {
          "name": "departureTime",
          "type": "uint256"
        },
        {
          "name": "arrivalTime",
          "type": "uint256"
        },
        {
          "name": "delayInMinutes",
          "type": "uint256"
        },
        {
          "name": "delay",
          "type": "uint8"
        },
        {
          "name": "cumulatedWeightedPremium",
          "type": "uint256"
        },
        {
          "name": "premiumMultiplier",
          "type": "uint256"
        },
        {
          "name": "weight",
          "type": "uint256"
        }
      ],
      "payable": false,
      "stateMutability": "view",
      "type": "function",
      "signature": "0x8993021b"
    },
    {
      "constant": true,
      "inputs": [
        {
          "name": "",
          "type": "bytes32"
        }
      ],
      "name": "roles",
      "outputs": [
        {
          "name": "",
          "type": "uint256"
        }
      ],
      "payable": false,
      "stateMutability": "view",
      "type": "function",
      "signature": "0x95356651"
    },
    {
      "constant": true,
      "inputs": [],
      "name": "MAX_FLIGHT_DURATION",
      "outputs": [
        {
          "name": "",
          "type": "uint256"
        }
      ],
      "payable": false,
      "stateMutability": "view",
      "type": "function",
      "signature": "0x972e22eb"
    },
    {
      "constant": true,
      "inputs": [],
      "name": "NAME",
      "outputs": [
        {
          "name": "",
          "type": "bytes32"
        }
      ],
      "payable": false,
      "stateMutability": "view",
      "type": "function",
      "signature": "0xa3f4df7e"
    },
    {
      "constant": true,
      "inputs": [
        {
          "name": "_address",
          "type": "address"
        },
        {
          "name": "_role",
          "type": "bytes32"
        }
      ],
      "name": "hasRole",
      "outputs": [
        {
          "name": "_hasRole",
          "type": "bool"
        }
      ],
      "payable": false,
      "stateMutability": "view",
      "type": "function",
      "signature": "0xac4ab3fb"
    },
    {
      "constant": true,
      "inputs": [],
      "name": "MIN_TIME_BEFORE_DEPARTURE",
      "outputs": [
        {
          "name": "",
          "type": "uint256"
        }
      ],
      "payable": false,
      "stateMutability": "view",
      "type": "function",
      "signature": "0xb7b357ac"
    },
    {
      "constant": true,
      "inputs": [],
      "name": "MIN_PREMIUM",
      "outputs": [
        {
          "name": "",
          "type": "uint256"
        }
      ],
      "payable": false,
      "stateMutability": "view",
      "type": "function",
      "signature": "0xbe5c8f44"
    },
    {
      "constant": false,
      "inputs": [
        {
          "name": "_address",
          "type": "address"
        },
        {
          "name": "_role",
          "type": "bytes32"
        }
      ],
      "name": "addRoleToAccount",
      "outputs": [],
      "payable": false,
      "stateMutability": "nonpayable",
      "type": "function",
      "signature": "0xc2e86735"
    },
    {
      "constant": true,
      "inputs": [],
      "name": "productService",
      "outputs": [
        {
          "name": "",
          "type": "address"
        }
      ],
      "payable": false,
      "stateMutability": "view",
      "type": "function",
      "signature": "0xc37d45bf"
    },
    {
      "constant": false,
      "inputs": [
        {
          "name": "_role",
          "type": "bytes32"
        }
      ],
      "name": "createRole",
      "outputs": [],
      "payable": false,
      "stateMutability": "nonpayable",
      "type": "function",
      "signature": "0xc42994a2"
    },
    {
      "constant": true,
      "inputs": [],
      "name": "developmentMode",
      "outputs": [
        {
          "name": "",
          "type": "bool"
        }
      ],
      "payable": false,
      "stateMutability": "view",
      "type": "function",
      "signature": "0xd6fcaf40"
    },
    {
      "constant": true,
      "inputs": [
        {
          "name": "",
          "type": "uint256"
        }
      ],
      "name": "weightPattern",
      "outputs": [
        {
          "name": "",
          "type": "uint8"
        }
      ],
      "payable": false,
      "stateMutability": "view",
      "type": "function",
      "signature": "0xe32bdf08"
    },
    {
      "constant": false,
      "inputs": [
        {
          "name": "_address",
          "type": "address"
        }
      ],
      "name": "cleanRolesForAccount",
      "outputs": [],
      "payable": false,
      "stateMutability": "nonpayable",
      "type": "function",
      "signature": "0xf566e10e"
    },
    {
      "constant": true,
      "inputs": [],
      "name": "CHECK_PAYOUT_OFFSET",
      "outputs": [
        {
          "name": "",
          "type": "uint256"
        }
      ],
      "payable": false,
      "stateMutability": "view",
      "type": "function",
      "signature": "0xf5fdfce9"
    },
    {
      "constant": true,
      "inputs": [
        {
          "name": "",
          "type": "uint256"
        }
      ],
      "name": "currencies",
      "outputs": [
        {
          "name": "",
          "type": "bytes32"
        }
      ],
      "payable": false,
      "stateMutability": "view",
      "type": "function",
      "signature": "0xf6d1c271"
    },
    {
      "inputs": [
        {
          "name": "_productController",
          "type": "address"
        }
      ],
      "payable": false,
      "stateMutability": "nonpayable",
      "type": "constructor",
      "signature": "constructor"
    },
    {
      "anonymous": false,
      "inputs": [
        {
          "indexed": false,
          "name": "requestId",
          "type": "uint256"
        },
        {
          "indexed": false,
          "name": "carrierFlightNumber",
          "type": "bytes32"
        },
        {
          "indexed": false,
          "name": "departureTime",
          "type": "uint256"
        },
        {
          "indexed": false,
          "name": "arrivalTime",
          "type": "uint256"
        }
      ],
      "name": "LogRequestFlightStatistics",
      "type": "event",
      "signature": "0xe857bff72dd2ed1b8242b825b28a9647d6c9128ca89f6e2f8261ed87ffecd914"
    },
    {
      "anonymous": false,
      "inputs": [
        {
          "indexed": false,
          "name": "requestId",
          "type": "uint256"
        },
        {
          "indexed": false,
          "name": "carrierFlightNumber",
          "type": "bytes32"
        },
        {
          "indexed": false,
          "name": "arrivalTime",
          "type": "uint256"
        }
      ],
      "name": "LogRequestFlightStatus",
      "type": "event",
      "signature": "0x9e0191c34cbc564aac9868f50a4cce5db2f167b44d26c02f50e12298b94407ef"
    },
    {
      "anonymous": false,
      "inputs": [
        {
          "indexed": false,
          "name": "claimId",
          "type": "uint256"
        },
        {
          "indexed": false,
          "name": "payoutId",
          "type": "uint256"
        },
        {
          "indexed": false,
          "name": "amount",
          "type": "uint256"
        }
      ],
      "name": "LogRequestPayout",
      "type": "event",
      "signature": "0x79dd0959b8266d381fe53d8d55bfc1b85a6c72f8e2f7739b7031fe7b2bce1a62"
    },
    {
      "constant": false,
      "inputs": [
        {
          "name": "_carrierFlightNumber",
          "type": "bytes32"
        },
        {
          "name": "_departureTime",
          "type": "uint256"
        },
        {
          "name": "_arrivalTime",
          "type": "uint256"
        },
        {
          "name": "_premium",
          "type": "uint256"
        },
        {
          "name": "_currency",
          "type": "bytes32"
        },
        {
          "name": "_payoutOptions",
          "type": "uint256[]"
        },
        {
          "name": "_customerExternalId",
          "type": "bytes32"
        }
      ],
      "name": "applyForPolicy",
      "outputs": [],
      "payable": false,
      "stateMutability": "nonpayable",
      "type": "function",
      "signature": "0xdd764024"
    },
    {
      "constant": false,
      "inputs": [
        {
          "name": "requestId",
          "type": "uint256"
        },
        {
          "name": "_statistics",
          "type": "uint256[6]"
        }
      ],
      "name": "flightStatisticsCallback",
      "outputs": [],
      "payable": false,
      "stateMutability": "nonpayable",
      "type": "function",
      "signature": "0xaaa07866"
    },
    {
      "constant": false,
      "inputs": [
        {
          "name": "requestId",
          "type": "uint256"
        },
        {
          "name": "_delay",
          "type": "uint256"
        },
        {
          "name": "_cancelled",
          "type": "bool"
        },
        {
          "name": "_diverted",
          "type": "bool"
        }
      ],
      "name": "flightStatusCallback",
      "outputs": [],
      "payable": false,
      "stateMutability": "nonpayable",
      "type": "function",
      "signature": "0x93b58e07"
    },
    {
      "constant": false,
      "inputs": [
        {
          "name": "_payoutId",
          "type": "uint256"
        },
        {
          "name": "_sum",
          "type": "uint256"
        }
      ],
      "name": "confirmPayout",
      "outputs": [],
      "payable": false,
      "stateMutability": "nonpayable",
      "type": "function",
      "signature": "0x7f66ae95"
    },
    {
      "constant": true,
      "inputs": [
        {
          "name": "_premium",
          "type": "uint256"
        },
        {
          "name": "_statistics",
          "type": "uint256[6]"
        }
      ],
      "name": "calculatePayouts",
      "outputs": [
        {
          "name": "_weight",
          "type": "uint256"
        },
        {
          "name": "_payoutOptions",
          "type": "uint256[5]"
        }
      ],
      "payable": false,
      "stateMutability": "view",
      "type": "function",
      "signature": "0xc9821073"
    }
  ],
  "bytecode": "0x6003805461ffff1916905560a06040527f4555520000000000000000000000000000000000000000000000000000000000608090815262000045906004906001620001f0565b506040805160c08101825260008082526020820181905291810191909152601e606082015260326080820181905260a08201526200008890600590600662000233565b503480156200009657600080fd5b506040516020806200193483398101806040526020811015620000b857600080fd5b5051600380546201000060b060020a03191662010000600160a060020a03841602179055807f466c6967687444656c61794d616e75616c0000000000000000000000000000007f506f6c696379466c6f7744656661756c740000000000000000000000000000006200013482826401000000006200013e810204565b505050506200030a565b600360029054906101000a9004600160a060020a0316600160a060020a0316632f92673283836040518363ffffffff167c01000000000000000000000000000000000000000000000000000000000281526004018083815260200182815260200192505050602060405180830381600087803b158015620001be57600080fd5b505af1158015620001d3573d6000803e3d6000fd5b505050506040513d6020811015620001ea57600080fd5b50505050565b826001810192821562000221579160200282015b828111156200022157825182559160200191906001019062000204565b506200022f929150620002c9565b5090565b600183019183908215620002bb5791602002820160005b838211156200028a57835183826101000a81548160ff021916908360ff16021790555092602001926001016020816000010492830192600103026200024a565b8015620002b95782816101000a81549060ff02191690556001016020816000010492830192600103026200028a565b505b506200022f929150620002e9565b620002e691905b808211156200022f5760008155600101620002d0565b90565b620002e691905b808211156200022f57805460ff19168155600101620002f0565b61161a806200031a6000396000f3fe608060405234801561001057600080fd5b50600436106101c85760003560e060020a90048063aaa07866116100fd578063c98210731161009b578063e32bdf0811610075578063e32bdf081461057c578063f566e10e146105af578063f5fdfce9146105d5578063f6d1c271146105dd576101c8565b8063c982107314610450578063d6fcaf40146104e5578063dd764024146104ed576101c8565b8063be5c8f44116100d7578063be5c8f44146103db578063c2e86735146103e3578063c37d45bf1461040f578063c42994a214610433576101c8565b8063aaa0786614610385578063ac4ab3fb146103a7578063b7b357ac146103d3576101c8565b80637f66ae951161016a57806393b58e071161014457806393b58e07146103255780639535665114610358578063972e22eb14610375578063a3f4df7e1461037d576101c8565b80637f66ae951461025e57806381d12c58146102835780638993021b146102be576101c8565b80632cf88d9e116101a65780632cf88d9e1461022957806339cee407146102465780634b9ddafe1461024e5780634cdabb1614610256576101c8565b806301e88208146101cd57806309128d831461020557806325dce0a61461020d575b600080fd5b6101f3600480360360208110156101e357600080fd5b5035600160a060020a03166105fa565b60408051918252519081900360200190f35b6101f361060c565b610215610630565b604080519115158252519081900360200190f35b6101f36004803603602081101561023f57600080fd5b503561063e565b6101f361065d565b6101f3610662565b6101f3610669565b6102816004803603604081101561027457600080fd5b508035906020013561066f565b005b6102a06004803603602081101561029957600080fd5b503561067e565b60408051938452602084019290925282820152519081900360600190f35b6102db600480360360208110156102d457600080fd5b50356106af565b60408051998a5260208a0198909852888801969096526060880194909452608087019290925260ff1660a086015260c085015260e084015261010083015251908190036101200190f35b6102816004803603608081101561033b57600080fd5b508035906020810135906040810135151590606001351515610700565b6101f36004803603602081101561036e57600080fd5b503561087b565b6101f361088d565b6101f3610894565b610281600480360360e081101561039b57600080fd5b508035906020016108b8565b610215600480360360408110156103bd57600080fd5b50600160a060020a038135169060200135610bb7565b6101f3610be3565b6101f3610bea565b610281600480360360408110156103f957600080fd5b50600160a060020a038135169060200135610bf0565b610417610c37565b60408051600160a060020a039092168252519081900360200190f35b6102816004803603602081101561044957600080fd5b5035610c4c565b6104a6600480360360e081101561046657600080fd5b6040805160c0818101909252833593928301929160e08301919060208401906006908390839080828437600092019190915250919450610caf9350505050565b604051828152602081018260a080838360005b838110156104d15781810151838201526020016104b9565b505050509050019250505060405180910390f35b610215610eb6565b610281600480360360e081101561050357600080fd5b8135916020810135916040820135916060810135916080820135919081019060c0810160a082013564010000000081111561053d57600080fd5b82018360208201111561054f57600080fd5b8035906020019184602083028401116401000000008311171561057157600080fd5b919350915035610ebf565b6105996004803603602081101561059257600080fd5b5035610fe2565b6040805160ff9092168252519081900360200190f35b610281600480360360208110156105c557600080fd5b5035600160a060020a0316611009565b6101f3611023565b6101f3600480360360208110156105f357600080fd5b5035611029565b60026020526000908152604090205481565b7f506f6c696379466c6f7744656661756c7400000000000000000000000000000081565b600354610100900460ff1681565b600180548290811061064c57fe5b600091825260209091200154905081565b600a81565b620249f081565b61714881565b610679828261103d565b505050565b600780548290811061068c57fe5b600091825260209091206003909102018054600182015460029092015490925083565b60066020819052600091825260409091208054600182015460028301546003840154600485015460058601549686015460078701546008909701549597949693959294919360ff9092169290919089565b600060078581548110151561071157fe5b9060005260206000209060030201600101549050600060078681548110151561073657fe5b90600052602060002090600302016001015490506060610755826110e3565b90506000600186151514156107845781600381518110151561077357fe5b906020019060200201519050610871565b6001851515141561079e5781600481518110151561077357fe5b601e87111561086857602d8711156107d0578160018151811015156107bf57fe5b906020019060200201519050610804565b603c8711156107e8578160028151811015156107bf57fe5b8160008151811015156107f757fe5b9060200190602002015190505b600061080f856111e0565b9050600061081d828461127e565b604080518481526020810183905280820186905290519192507f79dd0959b8266d381fe53d8d55bfc1b85a6c72f8e2f7739b7031fe7b2bce1a62919081900360600190a15050610871565b610871846112f1565b5050505050505050565b60006020819052908152604090205481565b6202a30081565b7f466c6967687444656c61794d616e75616c00000000000000000000000000000081565b60006007838154811015156108c957fe5b60009182526020909120600390910201549050600a8235116108f4576108ee8161136a565b50610bb3565b60006108ff826113c8565b9050606061090c836110e3565b90506000610918611515565b61094b84876006806020026040519081016040528092919082600660200280828437600092019190915250610caf915050565b845191935091506005146109935760405160e560020a62461bcd0281526004018080602001828103825260238152602001806115cc6023913960400191505060405180910390fd5b60005b6005811015610a49578181600581106109ab57fe5b602002015184828151811015156109be57fe5b6020908102909101015114610a1d576040805160e560020a62461bcd02815260206004820152601c60248201527f4552524f523a3a494e56414c49445f5041594f55545f4f5054494f4e00000000604482015290519081900360640190fd5b620249f08482815181101515610a2f57fe5b602090810290910101511115610a4157fe5b600101610996565b506000600788815481101515610a5b57fe5b9060005260206000209060030201600201549050600660008281526020019081526020016000206007015460001415610ad2576000818152600660208190526040909120620186a080880291909201558390811515610ab657fe5b6000838152600660205260409020919004600790910155610af5565b600081815260066020819052604090912060078101549101805491870290910190555b6000818152600660205260408120600801849055610b1287611434565b9050600060078054809190600101610b2a9190611534565b90506000600782815481101515610b3d57fe5b60009182526020808320600392830201600181018790558784526006825260409384902080549301548451878152928301939093528184019290925291519092507f9e0191c34cbc564aac9868f50a4cce5db2f167b44d26c02f50e12298b94407ef916060908290030190a15050505050505050505b5050565b60009081526020818152604080832054600160a060020a03909416835260029091528120549091161190565b6201518081565b6105dc81565b6000818152602081905260409020541515610c0a57600080fd5b60009081526020818152604080832054600160a060020a0390941683526002909152902080549091179055565b600354620100009004600160a060020a031681565b60008181526020819052604090205415610c6557600080fd5b60018054600083815260208190526040812060029290920a909155815480830183559190527fb10e2d527612073b26eecdfd717e6a320cf44b4afac2b0732d9fcbe2b7fa0cf60155565b6000610cb9611515565b6105dc841015610d01576040805160e560020a62461bcd02815260206004820152601660248201526000805160206115ac833981519152604482015290519081900360640190fd5b617148841115610d49576040805160e560020a62461bcd02815260206004820152601660248201526000805160206115ac833981519152604482015290519081900360640190fd5b8251600a10610da2576040805160e560020a62461bcd02815260206004820152601760248201527f4552524f523a3a4c4f575f4f42534552564154494f4e53000000000000000000604482015290519081900360640190fd5b60015b6006811015610e03578351848260068110610dbc57fe5b602002015160058360068110610dce57fe5b602091828204019190069054906101000a900460ff1660ff160261271002811515610df557fe5b049290920191600101610da5565b50811515610e1e578251620186a0811515610e1a57fe5b0491505b60005b6005811015610eae578260056001830160068110610e3b57fe5b602091828204019190069054906101000a900460ff1660ff16860261271002811515610e6357fe5b04828260058110610e7057fe5b6020020152620249f0828260058110610e8557fe5b60200201511115610ea657620249f0828260058110610ea057fe5b60200201525b600101610e21565b509250929050565b60035460ff1681565b6105dc851015610f07576040805160e560020a62461bcd02815260206004820152601660248201526000805160206115ac833981519152604482015290519081900360640190fd5b617148851115610f4f576040805160e560020a62461bcd02815260206004820152601660248201526000805160206115ac833981519152604482015290519081900360640190fd5b6004548414610fa8576040805160e560020a62461bcd02815260206004820152601660248201527f4552524f523a494e56414c49445f43555252454e435900000000000000000000604482015290519081900360640190fd5b60405160e560020a62461bcd0281526004018080602001828103825260258152602001806115876025913960400191505060405180910390fd5b60058160068110610fef57fe5b60209182820401919006915054906101000a900460ff1681565b600160a060020a0316600090815260026020526040812055565b61038481565b6004816001811061103657fe5b0154905081565b600354604080517f5aa6cf9700000000000000000000000000000000000000000000000000000000815260048101859052602481018490529051600092620100009004600160a060020a031691635aa6cf9791604480830192602092919082900301818787803b1580156110b057600080fd5b505af11580156110c4573d6000803e3d6000fd5b505050506040513d60208110156110da57600080fd5b50519392505050565b600354604080517f450d512e000000000000000000000000000000000000000000000000000000008152600481018490529051606092620100009004600160a060020a03169163450d512e91602480830192600092919082900301818387803b15801561114f57600080fd5b505af1158015611163573d6000803e3d6000fd5b505050506040513d6000823e601f3d908101601f19168201604052602081101561118c57600080fd5b8101908080516401000000008111156111a457600080fd5b820160208101848111156111b757600080fd5b81518560208202830111640100000000821117156111d457600080fd5b50909695505050505050565b600354604080517f54f3a32c000000000000000000000000000000000000000000000000000000008152600481018490529051600092620100009004600160a060020a0316916354f3a32c91602480830192602092919082900301818787803b15801561124c57600080fd5b505af1158015611260573d6000803e3d6000fd5b505050506040513d602081101561127657600080fd5b505192915050565b600354604080517f6afa434000000000000000000000000000000000000000000000000000000000815260048101859052602481018490529051600092620100009004600160a060020a031691636afa434091604480830192602092919082900301818787803b1580156110b057600080fd5b600360029054906101000a9004600160a060020a0316600160a060020a031663bf81bf43826040518263ffffffff1660e060020a02815260040180828152602001915050600060405180830381600087803b15801561134f57600080fd5b505af1158015611363573d6000803e3d6000fd5b5050505050565b600360029054906101000a9004600160a060020a0316600160a060020a031663a0355f4e826040518263ffffffff1660e060020a02815260040180828152602001915050600060405180830381600087803b15801561134f57600080fd5b600354604080517f1bf1fffb000000000000000000000000000000000000000000000000000000008152600481018490529051600092620100009004600160a060020a031691631bf1fffb91602480830192602092919082900301818787803b15801561124c57600080fd5b600354604080517f6be60f8b000000000000000000000000000000000000000000000000000000008152600481018490529051600092620100009004600160a060020a031691636be60f8b91602480830192602092919082900301818787803b15801561124c57600080fd5b838110156114b85781810151838201526020016114a0565b5050505090500195505050505050602060405180830381600087803b1580156114e057600080fd5b505af11580156114f4573d6000803e3d6000fd5b505050506040513d602081101561150a57600080fd5b505195945050505050565b60a0604051908101604052806005906020820280388339509192915050565b81548183558181111561067957600083815260209020610679916115839160039182028101918502015b8082111561157f57600080825560018201819055600282015560030161155e565b5090565b9056fe4552524f523a3a494e56414c49445f4152524956414c2f4445504152545552455f54494d454552524f523a3a494e56414c49445f5052454d49554d000000000000000000004552524f523a3a494e56414c49445f5041594f55545f4f5054494f4e535f434f554e54a165627a7a723058201e4c37af15f254d85acd5fdcaad7a060a45a076e4687a3976d359d0e659949070029",
  "source": "pragma solidity 0.5.2;\n\nimport \"../../Product.sol\";\n\ncontract FlightDelayManual is Product {\n    event LogRequestFlightStatistics(\n        uint256 requestId,\n        bytes32 carrierFlightNumber,\n        uint256 departureTime,\n        uint256 arrivalTime\n    );\n\n    event LogRequestFlightStatus(\n        uint256 requestId,\n        bytes32 carrierFlightNumber,\n        uint256 arrivalTime\n    );\n\n    event LogRequestPayout(uint256 claimId, uint256 payoutId, uint256 amount);\n\n    bytes32 public constant NAME = \"FlightDelayManual\";\n    bytes32 public constant POLICY_FLOW = \"PolicyFlowDefault\";\n\n    // Minimum observations for valid prediction\n    uint256 public constant MIN_OBSERVATIONS = 10;\n    // Minimum time before departure for applying\n    uint256 public constant MIN_TIME_BEFORE_DEPARTURE = 24 hours;\n    // Maximum duration of flight\n    uint256 public constant MAX_FLIGHT_DURATION = 2 days;\n    // Check for delay after .. minutes after scheduled arrival\n    uint256 public constant CHECK_PAYOUT_OFFSET = 15 minutes;\n\n    // All amounts expected to be provided in a currencys smallest unit\n    // E.g. 10 EUR = 1000 (1000 cents)\n    uint256 public constant MIN_PREMIUM = 1500;\n    uint256 public constant MAX_PREMIUM = 29000;\n    uint256 public constant MAX_PAYOUT = 150000;\n\n    bytes32[1] public currencies = [bytes32(\"EUR\")];\n\n    // ['observations','late15','late30','late45','cancelled','diverted']\n    uint8[6] public weightPattern = [0, 0, 0, 30, 50, 50];\n\n    // Maximum cumulated weighted premium per risk\n    uint256 constant MAX_CUMULATED_WEIGHTED_PREMIUM = 6000000;\n\n    struct Risk {\n        bytes32 carrierFlightNumber;\n        bytes32 departureYearMonthDay;\n        uint256 departureTime;\n        uint256 arrivalTime;\n        uint delayInMinutes;\n        uint8 delay;\n        uint256 cumulatedWeightedPremium;\n        uint256 premiumMultiplier;\n        uint256 weight;\n    }\n\n    struct RequestMetadata {\n        uint256 applicationId;\n        uint256 policyId;\n        bytes32 riskId;\n    }\n\n    mapping(bytes32 => Risk) public risks;\n\n    RequestMetadata[] public requests;\n\n    constructor(address _productController)\n        public\n        Product(_productController, NAME, POLICY_FLOW)\n    {}\n\n    function applyForPolicy(\n        // domain specific\n        bytes32 _carrierFlightNumber,\n        uint256 _departureTime,\n        uint256 _arrivalTime,\n        // premium\n        uint256 _premium,\n        bytes32 _currency,\n        uint256[] calldata _payoutOptions,\n        // customer\n        bytes32 _customerExternalId\n    ) external {\n        // Validate input parameters\n        // Validate input parameters\n        require(_premium >= MIN_PREMIUM, \"ERROR::INVALID_PREMIUM\");\n        require(_premium <= MAX_PREMIUM, \"ERROR::INVALID_PREMIUM\");\n        require(_currency == currencies[0], \"ERROR:INVALID_CURRENCY\");\n        require(\n            _departureTime < _departureTime,\n            \"ERROR::INVALID_ARRIVAL/DEPARTURE_TIME\"\n        );\n        require(\n            _departureTime > _departureTime + MAX_FLIGHT_DURATION,\n            \"ERROR::INVALID_ARRIVAL/DEPARTURE_TIME\"\n        );\n        require(\n            _departureTime < block.timestamp + MIN_TIME_BEFORE_DEPARTURE,\n            \"ERROR::INVALID_ARRIVAL/DEPARTURE_TIME\"\n        );\n\n        // Create risk if not exists\n        bytes32 riskId = keccak256(\n            abi.encodePacked(_carrierFlightNumber, _departureTime, _arrivalTime)\n        );\n        Risk storage risk = risks[riskId];\n\n        if (risk.carrierFlightNumber == \"\") {\n            risk.carrierFlightNumber = _carrierFlightNumber;\n            risk.departureTime = _departureTime;\n            risk.arrivalTime = _arrivalTime;\n        }\n\n        require(\n            _premium * risk.premiumMultiplier + risk.cumulatedWeightedPremium < MAX_CUMULATED_WEIGHTED_PREMIUM,\n            \"ERROR::CLUSTER_RISK\"\n        );\n\n        if (risk.cumulatedWeightedPremium == 0) {\n            risk.cumulatedWeightedPremium = MAX_CUMULATED_WEIGHTED_PREMIUM;\n        }\n\n        // Create new application\n        uint256 applicationId = newApplication(\n            _customerExternalId,\n            _premium,\n            _currency,\n            _payoutOptions\n        );\n\n        // New request\n        uint256 requestId = requests.length++;\n        RequestMetadata storage requestMetadata = requests[requestId];\n        requestMetadata.applicationId = applicationId;\n        requestMetadata.riskId = riskId;\n\n        emit LogRequestFlightStatistics(\n            requestId,\n            _carrierFlightNumber,\n            _departureTime,\n            _arrivalTime\n        );\n    }\n\n    function flightStatisticsCallback(\n        uint256 requestId,\n        uint256[6] calldata _statistics\n    ) external {\n        // Statistics: ['observations','late15','late30','late45','cancelled','diverted']\n\n        uint256 applicationId = requests[requestId].applicationId;\n\n        if (_statistics[0] <= MIN_OBSERVATIONS) {\n            decline(applicationId);\n            return;\n        }\n\n        uint256 premium = getPremium(applicationId);\n        uint256[] memory payoutOptions = getPayoutOptions(applicationId);\n        (uint256 weight, uint256[5] memory calculatedPayouts) = calculatePayouts(\n            premium,\n            _statistics\n        );\n\n        require(\n            payoutOptions.length == calculatedPayouts.length,\n            \"ERROR::INVALID_PAYOUT_OPTIONS_COUNT\"\n        );\n\n        for (uint256 i = 0; i < 5; i++) {\n            require(\n                payoutOptions[i] == calculatedPayouts[i],\n                \"ERROR::INVALID_PAYOUT_OPTION\"\n            );\n            assert(payoutOptions[i] <= MAX_PAYOUT);\n        }\n\n        bytes32 riskId = requests[requestId].riskId;\n\n        if (risks[riskId].premiumMultiplier == 0) {\n            // it's the first policy for this risk, we accept any premium\n            risks[riskId].cumulatedWeightedPremium = premium * 100000;\n            risks[riskId].premiumMultiplier = 100000 / weight;\n        } else {\n            risks[riskId].cumulatedWeightedPremium = risks[riskId].cumulatedWeightedPremium + premium * risks[riskId].premiumMultiplier;\n        }\n\n        risks[riskId].weight = weight;\n\n        uint256 policyId = underwrite(applicationId);\n\n        // New request\n        uint256 newRequestId = requests.length++;\n        RequestMetadata storage requestMetadata = requests[newRequestId];\n        requestMetadata.policyId = policyId;\n\n        emit LogRequestFlightStatus(\n            newRequestId,\n            risks[riskId].carrierFlightNumber,\n            risks[riskId].arrivalTime\n        );\n    }\n\n    function flightStatusCallback(\n        uint256 requestId,\n        uint256 _delay,\n        bool _cancelled,\n        bool _diverted\n    ) external {\n        uint256 policyId = requests[requestId].policyId;\n        uint256 applicationId = requests[requestId].policyId;\n        uint256[] memory payoutOptions = getPayoutOptions(applicationId);\n\n        uint256 payoutAmount;\n\n        if (_cancelled == true) {\n            payoutAmount = payoutOptions[3];\n        } else if (_diverted == true) {\n            payoutAmount = payoutOptions[4];\n        } else if (_delay > 30) {\n            if (_delay > 45) {\n                payoutAmount = payoutOptions[1];\n            } else if (_delay > 60) {\n                payoutAmount = payoutOptions[2];\n            } else {\n                payoutAmount = payoutOptions[0];\n            }\n\n            uint256 claimId = newClaim(policyId);\n            uint256 payoutId = confirmClaim(claimId, payoutAmount);\n\n            emit LogRequestPayout(claimId, payoutId, payoutAmount);\n        } else {\n            expire(policyId);\n        }\n    }\n\n    function confirmPayout(uint256 _payoutId, uint256 _sum) external {\n        payout(_payoutId, _sum);\n    }\n\n    function calculatePayouts(uint256 _premium, uint256[6] memory _statistics)\n        public\n        view\n        returns (uint256 _weight, uint256[5] memory _payoutOptions)\n    {\n        require(_premium >= MIN_PREMIUM, \"ERROR::INVALID_PREMIUM\");\n        require(_premium <= MAX_PREMIUM, \"ERROR::INVALID_PREMIUM\");\n        require(_statistics[0] > MIN_OBSERVATIONS, \"ERROR::LOW_OBSERVATIONS\");\n\n        for (uint256 i = 1; i < 6; i++) {\n            _weight += weightPattern[i] * _statistics[i] * 10000 / _statistics[0];\n            // 1% = 100 / 100% = 10,000\n        }\n\n        // To avoid div0 in the payout section, we have to make a minimal assumption on weight\n        if (_weight == 0) {\n            _weight = 100000 / _statistics[0];\n        }\n\n        for (uint256 i = 0; i < 5; i++) {\n            _payoutOptions[i] = _premium * weightPattern[i + 1] * 10000 / _weight;\n\n            if (_payoutOptions[i] > MAX_PAYOUT) {\n                _payoutOptions[i] = MAX_PAYOUT;\n            }\n        }\n    }\n}\n",
  "sourcePath": "/Users/ka/Projects/Altoros/Etherisc/dip-platform/core/gif-contracts/contracts/examples/FlightDelayManual/FlightDelayManual.sol",
  "compiler": {
    "name": "solc",
    "version": "0.5.2+commit.1df8f40c.Emscripten.clang"
  },
  "schemaVersion": "3.0.2",
  "updatedAt": "2019-02-27T13:50:50.200Z",
  "devdoc": {
    "methods": {}
  },
  "userdoc": {
    "methods": {}
  }
}