{
  "contractName": "LedgerStorageModel",
  "abi": [
    {
      "constant": true,
      "inputs": [
        {
          "name": "",
          "type": "uint256"
        }
      ],
      "name": "currencyIndexes",
      "outputs": [
        {
          "name": "",
          "type": "bytes32"
        }
      ],
      "payable": false,
      "stateMutability": "view",
      "type": "function"
    },
    {
      "constant": true,
      "inputs": [
        {
          "name": "",
          "type": "bytes32"
        }
      ],
      "name": "currencies",
      "outputs": [
        {
          "name": "code",
          "type": "bytes32"
        },
        {
          "name": "token",
          "type": "address"
        },
        {
          "name": "erc20",
          "type": "bool"
        },
        {
          "name": "erc721",
          "type": "bool"
        },
        {
          "name": "enabled",
          "type": "bool"
        }
      ],
      "payable": false,
      "stateMutability": "view",
      "type": "function"
    },
    {
      "constant": true,
      "inputs": [
        {
          "name": "",
          "type": "uint256"
        },
        {
          "name": "",
          "type": "uint256"
        }
      ],
      "name": "ledgerIndexes",
      "outputs": [
        {
          "name": "",
          "type": "bytes32"
        }
      ],
      "payable": false,
      "stateMutability": "view",
      "type": "function"
    },
    {
      "constant": true,
      "inputs": [
        {
          "name": "",
          "type": "uint256"
        },
        {
          "name": "",
          "type": "bytes32"
        }
      ],
      "name": "ledgers",
      "outputs": [
        {
          "name": "premium",
          "type": "int256"
        },
        {
          "name": "riskFund",
          "type": "int256"
        },
        {
          "name": "payout",
          "type": "int256"
        },
        {
          "name": "reward",
          "type": "int256"
        },
        {
          "name": "oracleCosts",
          "type": "int256"
        },
        {
          "name": "balance",
          "type": "int256"
        },
        {
          "name": "enabled",
          "type": "bool"
        }
      ],
      "payable": false,
      "stateMutability": "view",
      "type": "function"
    }
  ],
  "bytecode": "0x608060405234801561001057600080fd5b506102c6806100206000396000f3fe608060405234801561001057600080fd5b5060043610610068577c01000000000000000000000000000000000000000000000000000000006000350463022f9aba811461006d578063370adc951461009c5780635e07271a146100fd5780636e57e87114610120575b600080fd5b61008a6004803603602081101561008357600080fd5b503561017d565b60408051918252519081900360200190f35b6100b9600480360360208110156100b257600080fd5b503561019c565b6040805195865273ffffffffffffffffffffffffffffffffffffffff9094166020860152911515848401521515606084015215156080830152519081900360a00190f35b61008a6004803603604081101561011357600080fd5b5080359060200135610222565b6101436004803603604081101561013657600080fd5b5080359060200135610252565b604080519788526020880196909652868601949094526060860192909252608085015260a0840152151560c0830152519081900360e00190f35b600180548290811061018b57fe5b600091825260209091200154905081565b6000602081905290815260409020805460019091015473ffffffffffffffffffffffffffffffffffffffff81169060ff740100000000000000000000000000000000000000008204811691750100000000000000000000000000000000000000000081048216917601000000000000000000000000000000000000000000009091041685565b60036020528160005260406000208181548110151561023d57fe5b90600052602060002001600091509150505481565b60026020818152600093845260408085209091529183529120805460018201549282015460038301546004840154600585015460069095015493959492939192909160ff168756fea165627a7a7230582030ac77b34cc21785df9d02bdbf552af85eaed969d100b4e94e2c61d396e634cb0029",
  "source": "pragma solidity 0.5.2;\n\nimport \"./ILedger.sol\";\n\ncontract LedgerStorageModel is ILedger {\n    mapping(bytes32 => Currency) public currencies;\n    bytes32[] public currencyIndexes;\n\n    mapping(uint256 => mapping(bytes32 => Ledger)) public ledgers;\n    mapping(uint256 => bytes32[]) public ledgerIndexes;\n}\n",
  "sourcePath": "/Users/ka/Projects/Altoros/Etherisc/dip-platform/core/gif-contracts/contracts/modules/ledger/LedgerStorageModel.sol",
  "compiler": {
    "name": "solc",
    "version": "0.5.2+commit.1df8f40c.Emscripten.clang"
  },
  "schemaVersion": "3.0.2",
  "updatedAt": "2019-02-18T10:13:22.879Z",
  "devdoc": {
    "methods": {}
  },
  "userdoc": {
    "methods": {}
  }
}