{
  "contractName": "License",
  "abi": [
    {
      "constant": true,
      "inputs": [
        {
          "name": "",
          "type": "address"
        }
      ],
      "name": "productIdByAddress",
      "outputs": [
        {
          "name": "",
          "type": "uint256"
        }
      ],
      "payable": false,
      "stateMutability": "view",
      "type": "function",
      "signature": "0x317349f2"
    },
    {
      "constant": false,
      "inputs": [
        {
          "name": "_registry",
          "type": "address"
        }
      ],
      "name": "assignRegistry",
      "outputs": [],
      "payable": false,
      "stateMutability": "nonpayable",
      "type": "function",
      "signature": "0x51b68ee4"
    },
    {
      "constant": true,
      "inputs": [
        {
          "name": "",
          "type": "uint256"
        }
      ],
      "name": "products",
      "outputs": [
        {
          "name": "name",
          "type": "bytes32"
        },
        {
          "name": "addr",
          "type": "address"
        },
        {
          "name": "policyFlow",
          "type": "bytes32"
        },
        {
          "name": "release",
          "type": "uint256"
        },
        {
          "name": "policyToken",
          "type": "address"
        },
        {
          "name": "approved",
          "type": "bool"
        },
        {
          "name": "paused",
          "type": "bool"
        }
      ],
      "payable": false,
      "stateMutability": "view",
      "type": "function",
      "signature": "0x7acc0b20"
    },
    {
      "constant": true,
      "inputs": [],
      "name": "registry",
      "outputs": [
        {
          "name": "",
          "type": "address"
        }
      ],
      "payable": false,
      "stateMutability": "view",
      "type": "function",
      "signature": "0x7b103999"
    },
    {
      "constant": true,
      "inputs": [],
      "name": "NAME",
      "outputs": [
        {
          "name": "",
          "type": "bytes32"
        }
      ],
      "payable": false,
      "stateMutability": "view",
      "type": "function",
      "signature": "0xa3f4df7e"
    },
    {
      "constant": true,
      "inputs": [
        {
          "name": "_contractName",
          "type": "bytes32"
        }
      ],
      "name": "getService",
      "outputs": [
        {
          "name": "_addr",
          "type": "address"
        }
      ],
      "payable": false,
      "stateMutability": "view",
      "type": "function",
      "signature": "0xda47d856"
    },
    {
      "constant": true,
      "inputs": [
        {
          "name": "_contractName",
          "type": "bytes32"
        }
      ],
      "name": "getContract",
      "outputs": [
        {
          "name": "_addr",
          "type": "address"
        }
      ],
      "payable": false,
      "stateMutability": "view",
      "type": "function",
      "signature": "0xe16c7d98"
    },
    {
      "constant": false,
      "inputs": [
        {
          "name": "_controller",
          "type": "address"
        }
      ],
      "name": "assignController",
      "outputs": [],
      "payable": false,
      "stateMutability": "nonpayable",
      "type": "function",
      "signature": "0xec1bc1ac"
    },
    {
      "constant": true,
      "inputs": [],
      "name": "productIdIncrement",
      "outputs": [
        {
          "name": "",
          "type": "uint256"
        }
      ],
      "payable": false,
      "stateMutability": "view",
      "type": "function",
      "signature": "0xeff885cf"
    },
    {
      "constant": true,
      "inputs": [],
      "name": "controller",
      "outputs": [
        {
          "name": "",
          "type": "address"
        }
      ],
      "payable": false,
      "stateMutability": "view",
      "type": "function",
      "signature": "0xf77c4791"
    },
    {
      "inputs": [
        {
          "name": "_registry",
          "type": "address"
        }
      ],
      "payable": false,
      "stateMutability": "nonpayable",
      "type": "constructor",
      "signature": "constructor"
    },
    {
      "payable": false,
      "stateMutability": "nonpayable",
      "type": "fallback"
    },
    {
      "anonymous": false,
      "inputs": [
        {
          "indexed": false,
          "name": "productId",
          "type": "uint256"
        },
        {
          "indexed": false,
          "name": "name",
          "type": "bytes32"
        },
        {
          "indexed": false,
          "name": "addr",
          "type": "address"
        },
        {
          "indexed": false,
          "name": "policyFlow",
          "type": "bytes32"
        }
      ],
      "name": "LogNewProduct",
      "type": "event",
      "signature": "0x5eb7a6a0da59c1ef5ec5e4efc349eb389bc461fb343f88f9acfe0dfe12366428"
    },
    {
      "anonymous": false,
      "inputs": [
        {
          "indexed": false,
          "name": "id",
          "type": "uint256"
        },
        {
          "indexed": false,
          "name": "name",
          "type": "bytes32"
        },
        {
          "indexed": false,
          "name": "addr",
          "type": "address"
        }
      ],
      "name": "LogProductApproved",
      "type": "event",
      "signature": "0xc02417d4e28d573062f112c6f15bb9e775325620285ffbaba0f85b3224d988f5"
    },
    {
      "anonymous": false,
      "inputs": [
        {
          "indexed": false,
          "name": "id",
          "type": "uint256"
        },
        {
          "indexed": false,
          "name": "name",
          "type": "bytes32"
        },
        {
          "indexed": false,
          "name": "addr",
          "type": "address"
        }
      ],
      "name": "LogProductDisapproved",
      "type": "event",
      "signature": "0x1ac468a421b26e7d3c5546cdb1993cf89d99727f9a4b8abcb4d84a50c022e4f9"
    },
    {
      "anonymous": false,
      "inputs": [
        {
          "indexed": false,
          "name": "id",
          "type": "uint256"
        },
        {
          "indexed": false,
          "name": "name",
          "type": "bytes32"
        },
        {
          "indexed": false,
          "name": "addr",
          "type": "address"
        }
      ],
      "name": "LogProductPaused",
      "type": "event",
      "signature": "0x17f575c5fd027309a487484ea98a08697b9eb41ceb3229c05435bb333a7af8dc"
    },
    {
      "anonymous": false,
      "inputs": [
        {
          "indexed": false,
          "name": "id",
          "type": "uint256"
        },
        {
          "indexed": false,
          "name": "name",
          "type": "bytes32"
        },
        {
          "indexed": false,
          "name": "addr",
          "type": "address"
        }
      ],
      "name": "LogProductUnpaused",
      "type": "event",
      "signature": "0xeced7c3eaa8f32e72f6f19689a4dde7ca287e9263e6e9673794a88b5e5ca5597"
    }
  ],
  "bytecode": "0x608060405234801561001057600080fd5b506040516020806107078339810180604052602081101561003057600080fd5b505160038054600160a060020a031916600160a060020a039092169190911790556106a7806100606000396000f3fe608060405234801561001057600080fd5b50600436106100bb576000357c010000000000000000000000000000000000000000000000000000000090048063da47d85611610083578063da47d856146101c1578063e16c7d98146101de578063ec1bc1ac146101fb578063eff885cf14610221578063f77c479114610229576100bb565b8063317349f2146100d257806351b68ee41461010a5780637acc0b20146101305780637b10399914610195578063a3f4df7e146101b9575b6004546100d090600160a060020a0316610231565b005b6100f8600480360360208110156100e857600080fd5b5035600160a060020a0316610308565b60408051918252519081900360200190f35b6100d06004803603602081101561012057600080fd5b5035600160a060020a031661031a565b61014d6004803603602081101561014657600080fd5b50356103e8565b60408051978852600160a060020a0396871660208901528781019590955260608701939093529316608085015291151560a084015290151560c0830152519081900360e00190f35b61019d61045d565b60408051600160a060020a039092168252519081900360200190f35b6100f861046c565b61019d600480360360208110156101d757600080fd5b5035610490565b61019d600480360360208110156101f457600080fd5b5035610527565b6100d06004803603602081101561021157600080fd5b5035600160a060020a031661058c565b6100f8610637565b61019d61063d565b600160a060020a03811615156102a857604080517f08c379a000000000000000000000000000000000000000000000000000000000815260206004820152601d60248201527f4552524f523a3a554e4b4e4f574e5f494d504c454d454e544154494f4e000000604482015290519081900360640190fd5b60606000368080601f016020809104026020016040519081016040528093929190818152602001838380828437600092018290525084519495509384935091505060208401855af43d604051816000823e828015610304578282f35b8282fd5b60016020526000908152604090205481565b6103437f44414f0000000000000000000000000000000000000000000000000000000000610490565b600160a060020a031633146103b957604080517f08c379a000000000000000000000000000000000000000000000000000000000815260206004820152601660248201527f4552524f523a3a4e4f545f44414f5f5345525649434500000000000000000000604482015290519081900360640190fd5b6003805473ffffffffffffffffffffffffffffffffffffffff1916600160a060020a0392909216919091179055565b600060208190529081526040902080546001820154600283015460038401546004909401549293600160a060020a0392831693919290919081169060ff740100000000000000000000000000000000000000008204811691750100000000000000000000000000000000000000000090041687565b600354600160a060020a031681565b7f4c6963656e73650000000000000000000000000000000000000000000000000081565b600354604080517fda47d856000000000000000000000000000000000000000000000000000000008152600481018490529051600092600160a060020a03169163da47d856916024808301926020929190829003018186803b1580156104f557600080fd5b505afa158015610509573d6000803e3d6000fd5b505050506040513d602081101561051f57600080fd5b505192915050565b600354604080517fe16c7d98000000000000000000000000000000000000000000000000000000008152600481018490529051600092600160a060020a03169163e16c7d98916024808301926020929190829003018186803b1580156104f557600080fd5b6105b57f44414f0000000000000000000000000000000000000000000000000000000000610490565b600160a060020a0316331461062b57604080517f08c379a000000000000000000000000000000000000000000000000000000000815260206004820152601660248201527f4552524f523a3a4e4f545f44414f5f5345525649434500000000000000000000604482015290519081900360640190fd5b6106348161064c565b50565b60025481565b600454600160a060020a031681565b6004805473ffffffffffffffffffffffffffffffffffffffff1916600160a060020a039290921691909117905556fea165627a7a723058202ae4bbfeec0259fcb8b8a73bbc9029ac63379a718841fc05bafe9ae8e9b4c37b0029",
  "source": "pragma solidity 0.5.2;\n\nimport \"./LicenseStorageModel.sol\";\nimport \"../../shared/ModuleStorage.sol\";\n\ncontract License is LicenseStorageModel, ModuleStorage {\n    bytes32 public constant NAME = \"License\";\n\n    constructor(address _registry) public WithRegistry(_registry) {\n        // Empty\n    }\n}\n",
  "sourcePath": "/Users/ka/Projects/Altoros/Etherisc/dip-platform/core/gif-contracts/contracts/modules/license/License.sol",
  "compiler": {
    "name": "solc",
    "version": "0.5.2+commit.1df8f40c.Emscripten.clang"
  },
  "schemaVersion": "3.0.2",
  "updatedAt": "2019-02-25T09:01:23.222Z",
  "devdoc": {
    "methods": {}
  },
  "userdoc": {
    "methods": {}
  }
}