{
  "contractName": "LicenseController",
  "abi": [
    {
      "constant": true,
      "inputs": [
        {
          "name": "",
          "type": "address"
        }
      ],
      "name": "productIdByAddress",
      "outputs": [
        {
          "name": "",
          "type": "uint256"
        }
      ],
      "payable": false,
      "stateMutability": "view",
      "type": "function",
      "signature": "0x317349f2"
    },
    {
      "constant": false,
      "inputs": [
        {
          "name": "_registry",
          "type": "address"
        }
      ],
      "name": "assignRegistry",
      "outputs": [],
      "payable": false,
      "stateMutability": "nonpayable",
      "type": "function",
      "signature": "0x51b68ee4"
    },
    {
      "constant": true,
      "inputs": [
        {
          "name": "",
          "type": "uint256"
        }
      ],
      "name": "products",
      "outputs": [
        {
          "name": "name",
          "type": "bytes32"
        },
        {
          "name": "addr",
          "type": "address"
        },
        {
          "name": "policyFlow",
          "type": "bytes32"
        },
        {
          "name": "release",
          "type": "uint256"
        },
        {
          "name": "policyToken",
          "type": "address"
        },
        {
          "name": "approved",
          "type": "bool"
        },
        {
          "name": "paused",
          "type": "bool"
        }
      ],
      "payable": false,
      "stateMutability": "view",
      "type": "function",
      "signature": "0x7acc0b20"
    },
    {
      "constant": true,
      "inputs": [],
      "name": "registry",
      "outputs": [
        {
          "name": "",
          "type": "address"
        }
      ],
      "payable": false,
      "stateMutability": "view",
      "type": "function",
      "signature": "0x7b103999"
    },
    {
      "constant": true,
      "inputs": [],
      "name": "NAME",
      "outputs": [
        {
          "name": "",
          "type": "bytes32"
        }
      ],
      "payable": false,
      "stateMutability": "view",
      "type": "function",
      "signature": "0xa3f4df7e"
    },
    {
      "constant": true,
      "inputs": [],
      "name": "delegator",
      "outputs": [
        {
          "name": "",
          "type": "address"
        }
      ],
      "payable": false,
      "stateMutability": "view",
      "type": "function",
      "signature": "0xce9b7930"
    },
    {
      "constant": true,
      "inputs": [
        {
          "name": "_contractName",
          "type": "bytes32"
        }
      ],
      "name": "getService",
      "outputs": [
        {
          "name": "_addr",
          "type": "address"
        }
      ],
      "payable": false,
      "stateMutability": "view",
      "type": "function",
      "signature": "0xda47d856"
    },
    {
      "constant": true,
      "inputs": [
        {
          "name": "_contractName",
          "type": "bytes32"
        }
      ],
      "name": "getContract",
      "outputs": [
        {
          "name": "_addr",
          "type": "address"
        }
      ],
      "payable": false,
      "stateMutability": "view",
      "type": "function",
      "signature": "0xe16c7d98"
    },
    {
      "constant": false,
      "inputs": [
        {
          "name": "_storage",
          "type": "address"
        }
      ],
      "name": "assignStorage",
      "outputs": [],
      "payable": false,
      "stateMutability": "nonpayable",
      "type": "function",
      "signature": "0xe71359bf"
    },
    {
      "constant": true,
      "inputs": [],
      "name": "productIdIncrement",
      "outputs": [
        {
          "name": "",
          "type": "uint256"
        }
      ],
      "payable": false,
      "stateMutability": "view",
      "type": "function",
      "signature": "0xeff885cf"
    },
    {
      "inputs": [
        {
          "name": "_registry",
          "type": "address"
        },
        {
          "name": "_productIdIncrement",
          "type": "uint256"
        }
      ],
      "payable": false,
      "stateMutability": "nonpayable",
      "type": "constructor",
      "signature": "constructor"
    },
    {
      "payable": false,
      "stateMutability": "nonpayable",
      "type": "fallback"
    },
    {
      "anonymous": false,
      "inputs": [
        {
          "indexed": false,
          "name": "productId",
          "type": "uint256"
        },
        {
          "indexed": false,
          "name": "name",
          "type": "bytes32"
        },
        {
          "indexed": false,
          "name": "addr",
          "type": "address"
        },
        {
          "indexed": false,
          "name": "policyFlow",
          "type": "bytes32"
        }
      ],
      "name": "LogNewProduct",
      "type": "event",
      "signature": "0x5eb7a6a0da59c1ef5ec5e4efc349eb389bc461fb343f88f9acfe0dfe12366428"
    },
    {
      "anonymous": false,
      "inputs": [
        {
          "indexed": false,
          "name": "id",
          "type": "uint256"
        },
        {
          "indexed": false,
          "name": "name",
          "type": "bytes32"
        },
        {
          "indexed": false,
          "name": "addr",
          "type": "address"
        }
      ],
      "name": "LogProductApproved",
      "type": "event",
      "signature": "0xc02417d4e28d573062f112c6f15bb9e775325620285ffbaba0f85b3224d988f5"
    },
    {
      "anonymous": false,
      "inputs": [
        {
          "indexed": false,
          "name": "id",
          "type": "uint256"
        },
        {
          "indexed": false,
          "name": "name",
          "type": "bytes32"
        },
        {
          "indexed": false,
          "name": "addr",
          "type": "address"
        }
      ],
      "name": "LogProductDisapproved",
      "type": "event",
      "signature": "0x1ac468a421b26e7d3c5546cdb1993cf89d99727f9a4b8abcb4d84a50c022e4f9"
    },
    {
      "anonymous": false,
      "inputs": [
        {
          "indexed": false,
          "name": "id",
          "type": "uint256"
        },
        {
          "indexed": false,
          "name": "name",
          "type": "bytes32"
        },
        {
          "indexed": false,
          "name": "addr",
          "type": "address"
        }
      ],
      "name": "LogProductPaused",
      "type": "event",
      "signature": "0x17f575c5fd027309a487484ea98a08697b9eb41ceb3229c05435bb333a7af8dc"
    },
    {
      "anonymous": false,
      "inputs": [
        {
          "indexed": false,
          "name": "id",
          "type": "uint256"
        },
        {
          "indexed": false,
          "name": "name",
          "type": "bytes32"
        },
        {
          "indexed": false,
          "name": "addr",
          "type": "address"
        }
      ],
      "name": "LogProductUnpaused",
      "type": "event",
      "signature": "0xeced7c3eaa8f32e72f6f19689a4dde7ca287e9263e6e9673794a88b5e5ca5597"
    },
    {
      "constant": false,
      "inputs": [
        {
          "name": "_name",
          "type": "bytes32"
        },
        {
          "name": "_addr",
          "type": "address"
        },
        {
          "name": "_policyFlow",
          "type": "bytes32"
        }
      ],
      "name": "register",
      "outputs": [
        {
          "name": "_id",
          "type": "uint256"
        }
      ],
      "payable": false,
      "stateMutability": "nonpayable",
      "type": "function",
      "signature": "0x17ac8902"
    },
    {
      "constant": false,
      "inputs": [
        {
          "name": "_id",
          "type": "uint256"
        }
      ],
      "name": "approveProduct",
      "outputs": [],
      "payable": false,
      "stateMutability": "nonpayable",
      "type": "function",
      "signature": "0x27d55495"
    },
    {
      "constant": false,
      "inputs": [
        {
          "name": "_id",
          "type": "uint256"
        }
      ],
      "name": "disapproveProduct",
      "outputs": [],
      "payable": false,
      "stateMutability": "nonpayable",
      "type": "function",
      "signature": "0xb4ec459d"
    },
    {
      "constant": false,
      "inputs": [
        {
          "name": "_id",
          "type": "uint256"
        }
      ],
      "name": "pauseProduct",
      "outputs": [],
      "payable": false,
      "stateMutability": "nonpayable",
      "type": "function",
      "signature": "0xf2272a79"
    },
    {
      "constant": false,
      "inputs": [
        {
          "name": "_id",
          "type": "uint256"
        }
      ],
      "name": "unpauseProduct",
      "outputs": [],
      "payable": false,
      "stateMutability": "nonpayable",
      "type": "function",
      "signature": "0x1b164987"
    },
    {
      "constant": true,
      "inputs": [
        {
          "name": "_addr",
          "type": "address"
        }
      ],
      "name": "isApprovedProduct",
      "outputs": [
        {
          "name": "_approved",
          "type": "bool"
        }
      ],
      "payable": false,
      "stateMutability": "view",
      "type": "function",
      "signature": "0x02f01e52"
    },
    {
      "constant": true,
      "inputs": [
        {
          "name": "_addr",
          "type": "address"
        }
      ],
      "name": "isPausedProduct",
      "outputs": [
        {
          "name": "_paused",
          "type": "bool"
        }
      ],
      "payable": false,
      "stateMutability": "view",
      "type": "function",
      "signature": "0x8521f79b"
    },
    {
      "constant": true,
      "inputs": [
        {
          "name": "_addr",
          "type": "address"
        }
      ],
      "name": "isValidCall",
      "outputs": [
        {
          "name": "_valid",
          "type": "bool"
        }
      ],
      "payable": false,
      "stateMutability": "view",
      "type": "function",
      "signature": "0xa8ef6228"
    },
    {
      "constant": true,
      "inputs": [
        {
          "name": "_sender",
          "type": "address"
        }
      ],
      "name": "authorize",
      "outputs": [
        {
          "name": "_authorized",
          "type": "bool"
        },
        {
          "name": "_policyFlow",
          "type": "address"
        }
      ],
      "payable": false,
      "stateMutability": "view",
      "type": "function",
      "signature": "0xb6a5d7de"
    },
    {
      "constant": true,
      "inputs": [
        {
          "name": "_addr",
          "type": "address"
        }
      ],
      "name": "getProductId",
      "outputs": [
        {
          "name": "_productId",
          "type": "uint256"
        }
      ],
      "payable": false,
      "stateMutability": "view",
      "type": "function",
      "signature": "0xe91a34fc"
    }
  ],
  "bytecode": "0x608060405234801561001057600080fd5b506040516040806114d38339810180604052604081101561003057600080fd5b505160038054600160a060020a031916600160a060020a03909216919091179055611473806100606000396000f3fe608060405234801561001057600080fd5b5060043610610149576000357c010000000000000000000000000000000000000000000000000000000090048063a8ef6228116100ca578063e16c7d981161008e578063e16c7d98146103f1578063e71359bf1461040e578063e91a34fc14610434578063eff885cf1461045a578063f2272a791461046257610149565b8063a8ef622814610340578063b4ec459d14610366578063b6a5d7de14610383578063ce9b7930146103cc578063da47d856146103d457610149565b806351b68ee41161011157806351b68ee4146102635780637acc0b20146102895780637b103999146102ee5780638521f79b14610312578063a3f4df7e1461033857610149565b806302f01e521461018357806317ac8902146101bd5780631b1649871461020157806327d5549514610220578063317349f21461023d575b60405160e560020a62461bcd02815260040180806020018281038252602481526020018061139a6024913960400191505060405180910390fd5b6101a96004803603602081101561019957600080fd5b5035600160a060020a031661047f565b604080519115158252519081900360200190f35b6101ef600480360360608110156101d357600080fd5b50803590600160a060020a036020820135169060400135610510565b60408051918252519081900360200190f35b61021e6004803603602081101561021757600080fd5b503561063b565b005b61021e6004803603602081101561023657600080fd5b50356107f5565b6101ef6004803603602081101561025357600080fd5b5035600160a060020a0316610a2d565b61021e6004803603602081101561027957600080fd5b5035600160a060020a0316610a3f565b6102a66004803603602081101561029f57600080fd5b5035610acd565b60408051978852600160a060020a0396871660208901528781019590955260608701939093529316608085015291151560a084015290151560c0830152519081900360e00190f35b6102f6610b31565b60408051600160a060020a039092168252519081900360200190f35b6101a96004803603602081101561032857600080fd5b5035600160a060020a0316610b40565b6101ef610b8a565b6101a96004803603602081101561035657600080fd5b5035600160a060020a0316610bae565b61021e6004803603602081101561037c57600080fd5b5035610bd0565b6103a96004803603602081101561039957600080fd5b5035600160a060020a0316610e01565b604080519215158352600160a060020a0390911660208301528051918290030190f35b6102f6610e4f565b6102f6600480360360208110156103ea57600080fd5b5035610e5e565b6102f66004803603602081101561040757600080fd5b5035610ef5565b61021e6004803603602081101561042457600080fd5b5035600160a060020a0316610f5a565b6101ef6004803603602081101561044a57600080fd5b5035600160a060020a0316610fc5565b6101ef61103a565b61021e6004803603602081101561047857600080fd5b5035611040565b600160a060020a03811660009081526001602081815260408084205484529083905282206004015460a060020a900460ff1615151480156104d65750600160a060020a038216600090815260016020526040812054115b801561050a5750600160a060020a038083166000818152600160208181526040808420548452908390529091200154909116145b92915050565b600160a060020a0382166000908152600160205260408120541561057e576040805160e560020a62461bcd02815260206004820152601860248201527f4552524f523a3a50524f445543545f49535f4143544956450000000000000000604482015290519081900360640190fd5b506002805460019081018083556000818152602081905260409020868155918201805473ffffffffffffffffffffffffffffffffffffffff1916600160a060020a03871617905591018290556105d2611213565b60008281526020818152604091829020600301929092558051838152918201869052600160a060020a0385168282015260608201849052517f5eb7a6a0da59c1ef5ec5e4efc349eb389bc461fb343f88f9acfe0dfe123664289181900360800190a19392505050565b61064d60e860020a6244414f02610e5e565b600160a060020a0316331461069a576040805160e560020a62461bcd02815260206004820152601660248201526000805160206113e1833981519152604482015290519081900360640190fd5b600081815260208190526040902060010154600160a060020a031615156106f9576040805160e560020a62461bcd0281526020600482015260196024820152600080516020611428833981519152604482015290519081900360640190fd5b600081815260208181526040808320600190810154600160a060020a0316845290915281205411610774576040805160e560020a62461bcd02815260206004820152601960248201527f4552524f523a3a50524f445543545f4e4f545f41435449564500000000000000604482015290519081900360640190fd5b6000818152602081815260409182902060048101805475ff000000000000000000000000000000000000000000191690558054600190910154835185815292830191909152600160a060020a03168183015290517feced7c3eaa8f32e72f6f19689a4dde7ca287e9263e6e9673794a88b5e5ca55979181900360600190a150565b61080760e860020a6244414f02610e5e565b600160a060020a03163314610854576040805160e560020a62461bcd02815260206004820152601660248201526000805160206113e1833981519152604482015290519081900360640190fd5b600081815260208190526040902060010154600160a060020a031615156108b3576040805160e560020a62461bcd0281526020600482015260196024820152600080516020611428833981519152604482015290519081900360640190fd5b60008181526020819052604090206004015460a060020a900460ff16151560011415610929576040805160e560020a62461bcd02815260206004820152601f60248201527f4552524f523a3a50524f445543545f414c52454144595f415050524f56454400604482015290519081900360640190fd5b600081815260208181526040808320600190810154600160a060020a031684529091529020541561098e5760405160e560020a62461bcd0281526004018080602001828103825260278152602001806114016027913960400191505060405180910390fd5b60008181526020818152604080832060048101805474ff0000000000000000000000000000000000000000191660a060020a17905560018181018054600160a060020a03908116875291855283862087905586865294845290549354825186815293840194909452929092168183015290517fc02417d4e28d573062f112c6f15bb9e775325620285ffbaba0f85b3224d988f59181900360600190a150565b60016020526000908152604090205481565b610a5160e860020a6244414f02610e5e565b600160a060020a03163314610a9e576040805160e560020a62461bcd02815260206004820152601660248201526000805160206113e1833981519152604482015290519081900360640190fd5b6003805473ffffffffffffffffffffffffffffffffffffffff1916600160a060020a0392909216919091179055565b600060208190529081526040902080546001820154600283015460038401546004909401549293600160a060020a0392831693919290919081169060ff60a060020a8204811691750100000000000000000000000000000000000000000090041687565b600354600160a060020a031681565b600160a060020a0316600090815260016020818152604080842054845290839052909120600401547501000000000000000000000000000000000000000000900460ff1615151490565b7f4c6963656e7365436f6e74726f6c6c657200000000000000000000000000000081565b6000610bb98261047f565b801561050a5750610bc982610b40565b1592915050565b610be260e860020a6244414f02610e5e565b600160a060020a03163314610c2f576040805160e560020a62461bcd02815260206004820152601660248201526000805160206113e1833981519152604482015290519081900360640190fd5b600081815260208190526040902060010154600160a060020a03161515610c8e576040805160e560020a62461bcd0281526020600482015260196024820152600080516020611428833981519152604482015290519081900360640190fd5b60008181526020819052604090206004015460a060020a900460ff161515600114610d03576040805160e560020a62461bcd02815260206004820152601b60248201527f4552524f523a3a50524f445543545f4e4f545f415050524f5645440000000000604482015290519081900360640190fd5b600081815260208181526040808320600190810154600160a060020a0316845290915281205411610d685760405160e560020a62461bcd0281526004018080602001828103825260238152602001806113be6023913960400191505060405180910390fd5b60008181526020818152604080832060048101805474ff00000000000000000000000000000000000000001916905560018082018054600160a060020a03908116875291855283862086905586865294845290549354825186815293840194909452929092168183015290517f1ac468a421b26e7d3c5546cdb1993cf89d99727f9a4b8abcb4d84a50c022e4f99181900360600190a150565b600080610e0d83610bae565b600160a060020a03841660009081526001602090815260408083205483529082905290206003810154600290910154919350610e48916112a2565b9050915091565b600454600160a060020a031681565b600354604080517fda47d856000000000000000000000000000000000000000000000000000000008152600481018490529051600092600160a060020a03169163da47d856916024808301926020929190829003018186803b158015610ec357600080fd5b505afa158015610ed7573d6000803e3d6000fd5b505050506040513d6020811015610eed57600080fd5b505192915050565b600354604080517fe16c7d98000000000000000000000000000000000000000000000000000000008152600481018490529051600092600160a060020a03169163e16c7d98916024808301926020929190829003018186803b158015610ec357600080fd5b610f6c60e860020a6244414f02610e5e565b600160a060020a03163314610fb9576040805160e560020a62461bcd02815260206004820152601660248201526000805160206113e1833981519152604482015290519081900360640190fd5b610fc281611341565b50565b600160a060020a038116600090815260016020526040812054811061101e5760405160e560020a62461bcd0281526004018080602001828103825260298152602001806113716029913960400191505060405180910390fd5b50600160a060020a031660009081526001602052604090205490565b60025481565b61105260e860020a6244414f02610e5e565b600160a060020a0316331461109f576040805160e560020a62461bcd02815260206004820152601660248201526000805160206113e1833981519152604482015290519081900360640190fd5b600081815260208190526040902060010154600160a060020a031615156110fe576040805160e560020a62461bcd0281526020600482015260196024820152600080516020611428833981519152604482015290519081900360640190fd5b600081815260208181526040808320600190810154600160a060020a0316845290915281205411611179576040805160e560020a62461bcd02815260206004820152601960248201527f4552524f523a3a50524f445543545f4e4f545f41435449564500000000000000604482015290519081900360640190fd5b6000818152602081815260409182902060048101805475ff00000000000000000000000000000000000000000019167501000000000000000000000000000000000000000000179055805460019190910154835185815292830191909152600160a060020a03168183015290517f17f575c5fd027309a487484ea98a08697b9eb41ceb3229c05435bb333a7af8dc9181900360600190a150565b600354604080517f76b707b70000000000000000000000000000000000000000000000000000000081529051600092600160a060020a0316916376b707b7916004808301926020929190829003018186803b15801561127157600080fd5b505afa158015611285573d6000803e3d6000fd5b505050506040513d602081101561129b57600080fd5b5051919050565b600354604080517fda70cc0300000000000000000000000000000000000000000000000000000000815260048101859052602481018490529051600092600160a060020a03169163da70cc03916044808301926020929190829003018186803b15801561130e57600080fd5b505afa158015611322573d6000803e3d6000fd5b505050506040513d602081101561133857600080fd5b50519392505050565b6004805473ffffffffffffffffffffffffffffffffffffffff1916600160a060020a039290921691909117905556fe4552524f523a3a50524f445543545f4e4f545f415050524f5645445f4f525f4e4f545f4558495354534552524f523a3a46414c4c4241434b5f46554e4354494f4e5f4e4f575f414c4c4f5745444552524f523a3a50524f445543545f414444524553535f4e4f545f415050524f5645444552524f523a3a4e4f545f44414f5f53455256494345000000000000000000004552524f523a3a50524f445543545f414444524553535f414c52454144595f415050524f5645444552524f523a3a50524f445543545f4e4f545f45584953545300000000000000a165627a7a723058203e4a5768edc077d378ccec393c9a7ab719f3b080684863d989371d0b5adcb5c10029",
  "source": "pragma solidity 0.5.2;\n\nimport \"./LicenseStorageModel.sol\";\nimport \"../../shared/ModuleController.sol\";\n\ncontract LicenseController is LicenseStorageModel, ModuleController {\n    bytes32 public constant NAME = \"LicenseController\";\n\n    constructor(address _registry, uint256 _productIdIncrement)\n        public\n        WithRegistry(_registry)\n    {\n        // productIdIncrement should be equal to the value from the last deployed licence storage or zero\n        productIdIncrement = productIdIncrement;\n    }\n\n    /**\n     * @dev Register new product\n     */\n    function register(bytes32 _name, address _addr, bytes32 _policyFlow)\n        external\n        returns (uint256 _id)\n    {\n        // todo: add restriction, allow only ProductOwners\n        require(productIdByAddress[_addr] == 0, \"ERROR::PRODUCT_IS_ACTIVE\");\n\n        _id = ++productIdIncrement;\n\n        // todo: check required policyFlow existence\n\n        products[_id].name = _name;\n        products[_id].addr = _addr;\n        products[_id].policyFlow = _policyFlow;\n        products[_id].release = getRelease();\n\n        emit LogNewProduct(_id, _name, _addr, _policyFlow);\n    }\n\n    /*\n     * @dev Approve product\n     */\n    function approveProduct(uint256 _id) external onlyDAO {\n        require(products[_id].addr != address(0), \"ERROR::PRODUCT_NOT_EXISTS\");\n        require(\n            products[_id].approved != true,\n            \"ERROR::PRODUCT_ALREADY_APPROVED\"\n        );\n        require(\n            productIdByAddress[products[_id].addr] == 0,\n            \"ERROR::PRODUCT_ADDRESS_ALREADY_APPROVED\"\n        );\n        // todo: check if policyFlow is correct\n        // todo: should we allow products with the same name?\n\n        products[_id].approved = true;\n        productIdByAddress[products[_id].addr] = _id;\n\n        emit LogProductApproved(_id, products[_id].name, products[_id].addr);\n    }\n\n    /*\n     * @dev Disapprove product\n     */\n    function disapproveProduct(uint256 _id) external onlyDAO {\n        require(products[_id].addr != address(0), \"ERROR::PRODUCT_NOT_EXISTS\");\n        require(products[_id].approved == true, \"ERROR::PRODUCT_NOT_APPROVED\");\n        require(\n            productIdByAddress[products[_id].addr] > 0,\n            \"ERROR::PRODUCT_ADDRESS_NOT_APPROVED\"\n        );\n\n        products[_id].approved = false;\n        delete productIdByAddress[products[_id].addr];\n\n        emit LogProductDisapproved(_id, products[_id].name, products[_id].addr);\n    }\n\n    function pauseProduct(uint256 _id) external onlyDAO {\n        // todo: should be restricted to ProductOwners\n        require(products[_id].addr != address(0), \"ERROR::PRODUCT_NOT_EXISTS\");\n        require(\n            productIdByAddress[products[_id].addr] > 0,\n            \"ERROR::PRODUCT_NOT_ACTIVE\"\n        );\n\n        products[_id].paused = true;\n\n        emit LogProductPaused(_id, products[_id].name, products[_id].addr);\n    }\n\n    function unpauseProduct(uint256 _id) external onlyDAO {\n        // todo: should be restricted to ProductOwners\n        require(products[_id].addr != address(0), \"ERROR::PRODUCT_NOT_EXISTS\");\n        require(\n            productIdByAddress[products[_id].addr] > 0,\n            \"ERROR::PRODUCT_NOT_ACTIVE\"\n        );\n\n        products[_id].paused = false;\n\n        emit LogProductUnpaused(_id, products[_id].name, products[_id].addr);\n    }\n\n    /**\n     * @dev Check if contract is approved product\n     */\n    function isApprovedProduct(address _addr)\n        public\n        view\n        returns (bool _approved)\n    {\n        _approved = products[productIdByAddress[_addr]].approved == true && productIdByAddress[_addr] > 0 && products[productIdByAddress[_addr]].addr == _addr;\n    }\n\n    /**\n     * @dev Check if contract is paused product\n     */\n    function isPausedProduct(address _addr) public view returns (bool _paused) {\n        _paused = products[productIdByAddress[_addr]].paused == true;\n    }\n\n    function isValidCall(address _addr) public view returns (bool _valid) {\n        _valid = isApprovedProduct(_addr) && !isPausedProduct(_addr);\n    }\n\n    function authorize(address _sender)\n        public\n        view\n        returns (bool _authorized, address _policyFlow)\n    {\n        _authorized = isValidCall(_sender);\n        _policyFlow = getContractInRelease(\n            products[productIdByAddress[_sender]].release,\n            products[productIdByAddress[_sender]].policyFlow\n        );\n    }\n\n    function getProductId(address _addr)\n        public\n        view\n        returns (uint256 _productId)\n    {\n        require(\n            productIdByAddress[_addr] > 0,\n            \"ERROR::PRODUCT_NOT_APPROVED_OR_NOT_EXISTS\"\n        );\n\n        _productId = productIdByAddress[_addr];\n    }\n}\n",
  "sourcePath": "/Users/ka/Projects/Altoros/Etherisc/dip-platform/core/gif-contracts/contracts/modules/license/LicenseController.sol",
  "compiler": {
    "name": "solc",
    "version": "0.5.2+commit.1df8f40c.Emscripten.clang"
  },
  "schemaVersion": "3.0.2",
  "updatedAt": "2019-02-25T09:01:23.238Z",
  "devdoc": {
    "methods": {
      "isApprovedProduct(address)": {
        "details": "Check if contract is approved product"
      },
      "isPausedProduct(address)": {
        "details": "Check if contract is paused product"
      },
      "register(bytes32,address,bytes32)": {
        "details": "Register new product"
      }
    }
  },
  "userdoc": {
    "methods": {}
  }
}