{
  "contractName": "LicenseStorageModel",
  "abi": [
    {
      "constant": true,
      "inputs": [
        {
          "name": "",
          "type": "address"
        }
      ],
      "name": "productIdByAddress",
      "outputs": [
        {
          "name": "",
          "type": "uint256"
        }
      ],
      "payable": false,
      "stateMutability": "view",
      "type": "function"
    },
    {
      "constant": true,
      "inputs": [
        {
          "name": "",
          "type": "uint256"
        }
      ],
      "name": "products",
      "outputs": [
        {
          "name": "name",
          "type": "bytes32"
        },
        {
          "name": "addr",
          "type": "address"
        },
        {
          "name": "policyFlow",
          "type": "bytes32"
        },
        {
          "name": "release",
          "type": "uint256"
        },
        {
          "name": "policyToken",
          "type": "address"
        },
        {
          "name": "approved",
          "type": "bool"
        },
        {
          "name": "paused",
          "type": "bool"
        }
      ],
      "payable": false,
      "stateMutability": "view",
      "type": "function"
    },
    {
      "constant": true,
      "inputs": [],
      "name": "productIdIncrement",
      "outputs": [
        {
          "name": "",
          "type": "uint256"
        }
      ],
      "payable": false,
      "stateMutability": "view",
      "type": "function"
    },
    {
      "anonymous": false,
      "inputs": [
        {
          "indexed": false,
          "name": "productId",
          "type": "uint256"
        },
        {
          "indexed": false,
          "name": "name",
          "type": "bytes32"
        },
        {
          "indexed": false,
          "name": "addr",
          "type": "address"
        },
        {
          "indexed": false,
          "name": "policyFlow",
          "type": "bytes32"
        }
      ],
      "name": "LogNewProduct",
      "type": "event"
    },
    {
      "anonymous": false,
      "inputs": [
        {
          "indexed": false,
          "name": "id",
          "type": "uint256"
        },
        {
          "indexed": false,
          "name": "name",
          "type": "bytes32"
        },
        {
          "indexed": false,
          "name": "addr",
          "type": "address"
        }
      ],
      "name": "LogProductApproved",
      "type": "event"
    },
    {
      "anonymous": false,
      "inputs": [
        {
          "indexed": false,
          "name": "id",
          "type": "uint256"
        },
        {
          "indexed": false,
          "name": "name",
          "type": "bytes32"
        },
        {
          "indexed": false,
          "name": "addr",
          "type": "address"
        }
      ],
      "name": "LogProductDisapproved",
      "type": "event"
    },
    {
      "anonymous": false,
      "inputs": [
        {
          "indexed": false,
          "name": "id",
          "type": "uint256"
        },
        {
          "indexed": false,
          "name": "name",
          "type": "bytes32"
        },
        {
          "indexed": false,
          "name": "addr",
          "type": "address"
        }
      ],
      "name": "LogProductPaused",
      "type": "event"
    },
    {
      "anonymous": false,
      "inputs": [
        {
          "indexed": false,
          "name": "id",
          "type": "uint256"
        },
        {
          "indexed": false,
          "name": "name",
          "type": "bytes32"
        },
        {
          "indexed": false,
          "name": "addr",
          "type": "address"
        }
      ],
      "name": "LogProductUnpaused",
      "type": "event"
    }
  ],
  "bytecode": "0x608060405234801561001057600080fd5b506101e7806100206000396000f3fe608060405234801561001057600080fd5b506004361061005d577c01000000000000000000000000000000000000000000000000000000006000350463317349f281146100625780637acc0b20146100a7578063eff885cf14610119575b600080fd5b6100956004803603602081101561007857600080fd5b503573ffffffffffffffffffffffffffffffffffffffff16610121565b60408051918252519081900360200190f35b6100c4600480360360208110156100bd57600080fd5b5035610133565b6040805197885273ffffffffffffffffffffffffffffffffffffffff96871660208901528781019590955260608701939093529316608085015291151560a084015290151560c0830152519081900360e00190f35b6100956101b5565b60016020526000908152604090205481565b60006020819052908152604090208054600182015460028301546003840154600490940154929373ffffffffffffffffffffffffffffffffffffffff92831693919290919081169060ff740100000000000000000000000000000000000000008204811691750100000000000000000000000000000000000000000090041687565b6002548156fea165627a7a72305820ad7065fd8729342005c572542367dac7f76730e5c70274920575b52bfcc7882a0029",
  "source": "pragma solidity 0.5.2;\n\ncontract LicenseStorageModel {\n    event LogNewProduct(\n        uint256 productId,\n        bytes32 name,\n        address addr,\n        bytes32 policyFlow\n    );\n\n    event LogProductApproved(uint256 id, bytes32 name, address addr);\n\n    event LogProductDisapproved(uint256 id, bytes32 name, address addr);\n\n    event LogProductPaused(uint256 id, bytes32 name, address addr);\n\n    event LogProductUnpaused(uint256 id, bytes32 name, address addr);\n\n    struct Product {\n        bytes32 name;\n        address addr;\n        bytes32 policyFlow;\n        uint256 release; // core release\n        // uint256 product release\n        address policyToken;\n        bool approved;\n        bool paused;\n    }\n\n    mapping(uint256 => Product) public products;\n    mapping(address => uint256) public productIdByAddress;\n    uint256 public productIdIncrement;\n\n    // todo: Add list of approved products\n    // todo: Add list of products for approval\n\n}\n",
  "sourcePath": "/Users/ka/Projects/Altoros/Etherisc/dip-platform/core/gif-contracts/contracts/modules/license/LicenseStorageModel.sol",
  "compiler": {
    "name": "solc",
    "version": "0.5.2+commit.1df8f40c.Emscripten.clang"
  },
  "schemaVersion": "3.0.2",
  "updatedAt": "2019-02-25T08:57:37.603Z",
  "devdoc": {
    "methods": {}
  },
  "userdoc": {
    "methods": {}
  }
}