{
  "contractName": "OracleOwnerService",
  "abi": [
    {
      "constant": false,
      "inputs": [
        {
          "name": "_registry",
          "type": "address"
        }
      ],
      "name": "assignRegistry",
      "outputs": [],
      "payable": false,
      "stateMutability": "nonpayable",
      "type": "function",
      "signature": "0x51b68ee4"
    },
    {
      "constant": true,
      "inputs": [],
      "name": "registry",
      "outputs": [
        {
          "name": "",
          "type": "address"
        }
      ],
      "payable": false,
      "stateMutability": "view",
      "type": "function",
      "signature": "0x7b103999"
    },
    {
      "constant": true,
      "inputs": [],
      "name": "NAME",
      "outputs": [
        {
          "name": "",
          "type": "bytes32"
        }
      ],
      "payable": false,
      "stateMutability": "view",
      "type": "function",
      "signature": "0xa3f4df7e"
    },
    {
      "constant": true,
      "inputs": [
        {
          "name": "_contractName",
          "type": "bytes32"
        }
      ],
      "name": "getService",
      "outputs": [
        {
          "name": "_addr",
          "type": "address"
        }
      ],
      "payable": false,
      "stateMutability": "view",
      "type": "function",
      "signature": "0xda47d856"
    },
    {
      "constant": true,
      "inputs": [
        {
          "name": "_contractName",
          "type": "bytes32"
        }
      ],
      "name": "getContract",
      "outputs": [
        {
          "name": "_addr",
          "type": "address"
        }
      ],
      "payable": false,
      "stateMutability": "view",
      "type": "function",
      "signature": "0xe16c7d98"
    },
    {
      "inputs": [
        {
          "name": "_registry",
          "type": "address"
        }
      ],
      "payable": false,
      "stateMutability": "nonpayable",
      "type": "constructor",
      "signature": "constructor"
    },
    {
      "constant": false,
      "inputs": [
        {
          "name": "_oracleTypeName",
          "type": "bytes32"
        },
        {
          "name": "_inputFormat",
          "type": "string"
        },
        {
          "name": "_callbackFormat",
          "type": "string"
        },
        {
          "name": "_description",
          "type": "string"
        }
      ],
      "name": "proposeOracleType",
      "outputs": [],
      "payable": false,
      "stateMutability": "nonpayable",
      "type": "function",
      "signature": "0x26b85393"
    },
    {
      "constant": false,
      "inputs": [
        {
          "name": "_oracleContract",
          "type": "address"
        },
        {
          "name": "_description",
          "type": "string"
        }
      ],
      "name": "proposeOracle",
      "outputs": [
        {
          "name": "_oracleId",
          "type": "uint256"
        }
      ],
      "payable": false,
      "stateMutability": "nonpayable",
      "type": "function",
      "signature": "0xdba98c56"
    },
    {
      "constant": false,
      "inputs": [
        {
          "name": "_oracleTypeName",
          "type": "bytes32"
        },
        {
          "name": "_oracleId",
          "type": "uint256"
        }
      ],
      "name": "proposeOracleToType",
      "outputs": [
        {
          "name": "_proposalId",
          "type": "uint256"
        }
      ],
      "payable": false,
      "stateMutability": "nonpayable",
      "type": "function",
      "signature": "0x2e55b2cf"
    }
  ],
  "bytecode": "0x608060405234801561001057600080fd5b506040516020806108ec8339810180604052602081101561003057600080fd5b505160008054600160a060020a03909216600160a060020a031990921691909117905561088a806100626000396000f3fe608060405234801561001057600080fd5b50600436106100a5576000357c010000000000000000000000000000000000000000000000000000000090048063a3f4df7e11610078578063a3f4df7e14610246578063da47d8561461024e578063dba98c561461026b578063e16c7d98146102eb576100a5565b806326b85393146100aa5780632e55b2cf146101c757806351b68ee4146101fc5780637b10399914610222575b600080fd5b6101c5600480360360808110156100c057600080fd5b813591908101906040810160208201356401000000008111156100e257600080fd5b8201836020820111156100f457600080fd5b8035906020019184600183028401116401000000008311171561011657600080fd5b91939092909160208101903564010000000081111561013457600080fd5b82018360208201111561014657600080fd5b8035906020019184600183028401116401000000008311171561016857600080fd5b91939092909160208101903564010000000081111561018657600080fd5b82018360208201111561019857600080fd5b803590602001918460018302840111640100000000831117156101ba57600080fd5b509092509050610308565b005b6101ea600480360360408110156101dd57600080fd5b508035906020013561041e565b60408051918252519081900360200190f35b6101c56004803603602081101561021257600080fd5b5035600160a060020a03166104cd565b61022a61059b565b60408051600160a060020a039092168252519081900360200190f35b6101ea6105aa565b61022a6004803603602081101561026457600080fd5b50356105ce565b6101ea6004803603604081101561028157600080fd5b600160a060020a0382351691908101906040810160208201356401000000008111156102ac57600080fd5b8201836020820111156102be57600080fd5b803590602001918460018302840111640100000000831117156102e057600080fd5b509092509050610666565b61022a6004803603602081101561030157600080fd5b5035610742565b6103106107a8565b600160a060020a03166326b85393888888888888886040518863ffffffff167c01000000000000000000000000000000000000000000000000000000000281526004018088815260200180602001806020018060200184810384528a8a82818152602001925080828437600083820152601f01601f191690910185810384528881526020019050888880828437600083820152601f01601f191690910185810383528681526020019050868680828437600081840152601f19601f8201169050808301925050509a5050505050505050505050600060405180830381600087803b1580156103fd57600080fd5b505af1158015610411573d6000803e3d6000fd5b5050505050505050505050565b60006104286107a8565b604080517fa82e440200000000000000000000000000000000000000000000000000000000815233600482015260248101869052604481018590529051600160a060020a03929092169163a82e4402916064808201926020929091908290030181600087803b15801561049a57600080fd5b505af11580156104ae573d6000803e3d6000fd5b505050506040513d60208110156104c457600080fd5b50519392505050565b6104f67f44414f00000000000000000000000000000000000000000000000000000000006105ce565b600160a060020a0316331461056c57604080517f08c379a000000000000000000000000000000000000000000000000000000000815260206004820152601660248201527f4552524f523a3a4e4f545f44414f5f5345525649434500000000000000000000604482015290519081900360640190fd5b6000805473ffffffffffffffffffffffffffffffffffffffff1916600160a060020a0392909216919091179055565b600054600160a060020a031681565b7f4f7261636c654f776e657253657276696365000000000000000000000000000081565b60008054604080517fda47d856000000000000000000000000000000000000000000000000000000008152600481018590529051600160a060020a039092169163da47d85691602480820192602092909190829003018186803b15801561063457600080fd5b505afa158015610648573d6000803e3d6000fd5b505050506040513d602081101561065e57600080fd5b505192915050565b60006106706107a8565b6040517fd0378d690000000000000000000000000000000000000000000000000000000081523360048201818152600160a060020a0388811660248501526060604485019081526064850188905294169363d0378d6993899289928992608401848480828437600081840152601f19601f82011690508083019250505095505050505050602060405180830381600087803b15801561070e57600080fd5b505af1158015610722573d6000803e3d6000fd5b505050506040513d602081101561073857600080fd5b5051949350505050565b60008054604080517fe16c7d98000000000000000000000000000000000000000000000000000000008152600481018590529051600160a060020a039092169163e16c7d9891602480820192602092909190829003018186803b15801561063457600080fd5b60008054604080517fe16c7d980000000000000000000000000000000000000000000000000000000081527f517565727900000000000000000000000000000000000000000000000000000060048201529051600160a060020a039092169163e16c7d9891602480820192602092909190829003018186803b15801561082d57600080fd5b505afa158015610841573d6000803e3d6000fd5b505050506040513d602081101561085757600080fd5b505190509056fea165627a7a72305820bab3d53dcb2810fcf6c88474464991b151dc7410746ea39dada0e6109119eeba0029",
  "source": "pragma solidity 0.5.2;\n\nimport \"../modules/query/IQuery.sol\";\nimport \"../modules/query/IQueryController.sol\";\nimport \"../shared/WithRegistry.sol\";\n\ncontract OracleOwnerService is WithRegistry {\n    bytes32 public constant NAME = \"OracleOwnerService\";\n\n    constructor(address _registry) public WithRegistry(_registry) {}\n\n    function proposeOracleType(\n        bytes32 _oracleTypeName,\n        string calldata _inputFormat,\n        string calldata _callbackFormat,\n        string calldata _description\n    ) external {\n        // todo: oracle owner should be approved\n        query().proposeOracleType(\n            _oracleTypeName,\n            _inputFormat,\n            _callbackFormat,\n            _description\n        );\n    }\n\n    function proposeOracle(\n        address _oracleContract,\n        string calldata _description\n    ) external returns (uint256 _oracleId) {\n        // todo: oracle owner should be approved\n        _oracleId = query().proposeOracle(\n            msg.sender,\n            _oracleContract,\n            _description\n        );\n    }\n\n    function proposeOracleToType(bytes32 _oracleTypeName, uint256 _oracleId)\n        external\n        returns (uint256 _proposalId)\n    {\n        // todo: oracle owner should be approved\n        _proposalId = query().proposeOracleToType(\n            msg.sender,\n            _oracleTypeName,\n            _oracleId\n        );\n    }\n\n    /* Lookup */\n    function query() internal view returns (IQueryController) {\n        return IQueryController(registry.getContract(\"Query\"));\n    }\n}\n",
  "sourcePath": "/Users/ka/Projects/Altoros/Etherisc/dip-platform/core/gif-contracts/contracts/services/OracleOwnerService.sol",
  "compiler": {
    "name": "solc",
    "version": "0.5.2+commit.1df8f40c.Emscripten.clang"
  },
  "schemaVersion": "3.0.2",
  "updatedAt": "2019-02-26T20:51:03.562Z",
  "devdoc": {
    "methods": {}
  },
  "userdoc": {
    "methods": {}
  }
}