{
  "contractName": "PolicyController",
  "abi": [
    {
      "constant": true,
      "inputs": [
        {
          "name": "",
          "type": "uint256"
        },
        {
          "name": "",
          "type": "uint256"
        }
      ],
      "name": "payouts",
      "outputs": [
        {
          "name": "metadataId",
          "type": "uint256"
        },
        {
          "name": "claimId",
          "type": "uint256"
        },
        {
          "name": "expectedAmount",
          "type": "uint256"
        },
        {
          "name": "actualAmount",
          "type": "uint256"
        },
        {
          "name": "state",
          "type": "uint8"
        },
        {
          "name": "stateMessage",
          "type": "bytes32"
        },
        {
          "name": "createdAt",
          "type": "uint256"
        },
        {
          "name": "updatedAt",
          "type": "uint256"
        }
      ],
      "payable": false,
      "stateMutability": "view",
      "type": "function",
      "signature": "0x304de873"
    },
    {
      "constant": false,
      "inputs": [
        {
          "name": "_registry",
          "type": "address"
        }
      ],
      "name": "assignRegistry",
      "outputs": [],
      "payable": false,
      "stateMutability": "nonpayable",
      "type": "function",
      "signature": "0x51b68ee4"
    },
    {
      "constant": true,
      "inputs": [
        {
          "name": "",
          "type": "uint256"
        },
        {
          "name": "",
          "type": "uint256"
        }
      ],
      "name": "applications",
      "outputs": [
        {
          "name": "metadataId",
          "type": "uint256"
        },
        {
          "name": "customerExternalId",
          "type": "bytes32"
        },
        {
          "name": "premium",
          "type": "uint256"
        },
        {
          "name": "currency",
          "type": "bytes32"
        },
        {
          "name": "state",
          "type": "uint8"
        },
        {
          "name": "stateMessage",
          "type": "bytes32"
        },
        {
          "name": "createdAt",
          "type": "uint256"
        },
        {
          "name": "updatedAt",
          "type": "uint256"
        }
      ],
      "payable": false,
      "stateMutability": "view",
      "type": "function",
      "signature": "0x7a870b63"
    },
    {
      "constant": true,
      "inputs": [],
      "name": "registry",
      "outputs": [
        {
          "name": "",
          "type": "address"
        }
      ],
      "payable": false,
      "stateMutability": "view",
      "type": "function",
      "signature": "0x7b103999"
    },
    {
      "constant": true,
      "inputs": [
        {
          "name": "",
          "type": "uint256"
        },
        {
          "name": "",
          "type": "uint256"
        }
      ],
      "name": "metadata",
      "outputs": [
        {
          "name": "applicationId",
          "type": "uint256"
        },
        {
          "name": "policyId",
          "type": "uint256"
        },
        {
          "name": "hasPolicy",
          "type": "bool"
        },
        {
          "name": "hasApplication",
          "type": "bool"
        },
        {
          "name": "tokenContract",
          "type": "address"
        },
        {
          "name": "tokenId",
          "type": "uint256"
        },
        {
          "name": "registryContract",
          "type": "uint256"
        },
        {
          "name": "release",
          "type": "uint256"
        },
        {
          "name": "state",
          "type": "uint8"
        },
        {
          "name": "stateMessage",
          "type": "bytes32"
        },
        {
          "name": "createdAt",
          "type": "uint256"
        },
        {
          "name": "updatedAt",
          "type": "uint256"
        }
      ],
      "payable": false,
      "stateMutability": "view",
      "type": "function",
      "signature": "0xa0b7992b"
    },
    {
      "constant": true,
      "inputs": [
        {
          "name": "",
          "type": "uint256"
        },
        {
          "name": "",
          "type": "uint256"
        }
      ],
      "name": "policies",
      "outputs": [
        {
          "name": "metadataId",
          "type": "uint256"
        },
        {
          "name": "state",
          "type": "uint8"
        },
        {
          "name": "stateMessage",
          "type": "bytes32"
        },
        {
          "name": "createdAt",
          "type": "uint256"
        },
        {
          "name": "updatedAt",
          "type": "uint256"
        }
      ],
      "payable": false,
      "stateMutability": "view",
      "type": "function",
      "signature": "0xc2a0fa48"
    },
    {
      "constant": true,
      "inputs": [],
      "name": "delegator",
      "outputs": [
        {
          "name": "",
          "type": "address"
        }
      ],
      "payable": false,
      "stateMutability": "view",
      "type": "function",
      "signature": "0xce9b7930"
    },
    {
      "constant": true,
      "inputs": [
        {
          "name": "_contractName",
          "type": "bytes32"
        }
      ],
      "name": "getService",
      "outputs": [
        {
          "name": "_addr",
          "type": "address"
        }
      ],
      "payable": false,
      "stateMutability": "view",
      "type": "function",
      "signature": "0xda47d856"
    },
    {
      "constant": true,
      "inputs": [
        {
          "name": "_contractName",
          "type": "bytes32"
        }
      ],
      "name": "getContract",
      "outputs": [
        {
          "name": "_addr",
          "type": "address"
        }
      ],
      "payable": false,
      "stateMutability": "view",
      "type": "function",
      "signature": "0xe16c7d98"
    },
    {
      "constant": false,
      "inputs": [
        {
          "name": "_storage",
          "type": "address"
        }
      ],
      "name": "assignStorage",
      "outputs": [],
      "payable": false,
      "stateMutability": "nonpayable",
      "type": "function",
      "signature": "0xe71359bf"
    },
    {
      "constant": true,
      "inputs": [
        {
          "name": "",
          "type": "uint256"
        },
        {
          "name": "",
          "type": "uint256"
        }
      ],
      "name": "claims",
      "outputs": [
        {
          "name": "metadataId",
          "type": "uint256"
        },
        {
          "name": "data",
          "type": "bytes32"
        },
        {
          "name": "state",
          "type": "uint8"
        },
        {
          "name": "stateMessage",
          "type": "bytes32"
        },
        {
          "name": "createdAt",
          "type": "uint256"
        },
        {
          "name": "updatedAt",
          "type": "uint256"
        }
      ],
      "payable": false,
      "stateMutability": "view",
      "type": "function",
      "signature": "0xf894160e"
    },
    {
      "inputs": [
        {
          "name": "_registry",
          "type": "address"
        }
      ],
      "payable": false,
      "stateMutability": "nonpayable",
      "type": "constructor",
      "signature": "constructor"
    },
    {
      "payable": false,
      "stateMutability": "nonpayable",
      "type": "fallback"
    },
    {
      "anonymous": false,
      "inputs": [
        {
          "indexed": false,
          "name": "productId",
          "type": "uint256"
        },
        {
          "indexed": false,
          "name": "metadataId",
          "type": "uint256"
        },
        {
          "indexed": false,
          "name": "state",
          "type": "uint8"
        }
      ],
      "name": "LogNewMetadata",
      "type": "event",
      "signature": "0x56e10a65574d410cf29046d336f4e0b6756a82e88b976b823706a5cc4f37c470"
    },
    {
      "anonymous": false,
      "inputs": [
        {
          "indexed": false,
          "name": "productId",
          "type": "uint256"
        },
        {
          "indexed": false,
          "name": "metadataId",
          "type": "uint256"
        },
        {
          "indexed": false,
          "name": "state",
          "type": "uint8"
        }
      ],
      "name": "LogMetadataStateChanged",
      "type": "event",
      "signature": "0xb8ecaa7e65a5563c3056a6912ad98a31fff22865db39c1d532246718626b2454"
    },
    {
      "anonymous": false,
      "inputs": [
        {
          "indexed": false,
          "name": "productId",
          "type": "uint256"
        },
        {
          "indexed": false,
          "name": "metadataId",
          "type": "uint256"
        },
        {
          "indexed": false,
          "name": "applicationId",
          "type": "uint256"
        }
      ],
      "name": "LogNewApplication",
      "type": "event",
      "signature": "0x08cbae34439f6e42b3c0d22f309ee991b7a1aa31c27b09d0511634c5b7b4555c"
    },
    {
      "anonymous": false,
      "inputs": [
        {
          "indexed": false,
          "name": "productId",
          "type": "uint256"
        },
        {
          "indexed": false,
          "name": "metadataId",
          "type": "uint256"
        },
        {
          "indexed": false,
          "name": "applicationId",
          "type": "uint256"
        },
        {
          "indexed": false,
          "name": "state",
          "type": "uint8"
        }
      ],
      "name": "LogApplicationStateChanged",
      "type": "event",
      "signature": "0x72662cc8f3e4669125918fcdb8424c41e93f69bf15b435c1095772960df92445"
    },
    {
      "anonymous": false,
      "inputs": [
        {
          "indexed": false,
          "name": "productId",
          "type": "uint256"
        },
        {
          "indexed": false,
          "name": "metadataId",
          "type": "uint256"
        },
        {
          "indexed": false,
          "name": "policyId",
          "type": "uint256"
        },
        {
          "indexed": false,
          "name": "applicationId",
          "type": "uint256"
        }
      ],
      "name": "LogNewPolicy",
      "type": "event",
      "signature": "0x393a2454e004de3e3f426713018a5da2237da49f1079720cdf1450c81e0078c1"
    },
    {
      "anonymous": false,
      "inputs": [
        {
          "indexed": false,
          "name": "productId",
          "type": "uint256"
        },
        {
          "indexed": false,
          "name": "metadataId",
          "type": "uint256"
        },
        {
          "indexed": false,
          "name": "policyId",
          "type": "uint256"
        },
        {
          "indexed": false,
          "name": "state",
          "type": "uint8"
        }
      ],
      "name": "LogPolicyStateChanged",
      "type": "event",
      "signature": "0x8b0d1b9c9389302c8ab61b5f5ad51b9cbae5f3330693804a9f3d9aa00e9d1fde"
    },
    {
      "anonymous": false,
      "inputs": [
        {
          "indexed": false,
          "name": "productId",
          "type": "uint256"
        },
        {
          "indexed": false,
          "name": "metadataId",
          "type": "uint256"
        },
        {
          "indexed": false,
          "name": "policyId",
          "type": "uint256"
        },
        {
          "indexed": false,
          "name": "state",
          "type": "uint8"
        }
      ],
      "name": "LogNewClaim",
      "type": "event",
      "signature": "0xf32c53a0badbaf439caef780833859e2aa2f472f3a0f6149f5b384c8ae348faf"
    },
    {
      "anonymous": false,
      "inputs": [
        {
          "indexed": false,
          "name": "productId",
          "type": "uint256"
        },
        {
          "indexed": false,
          "name": "metadataId",
          "type": "uint256"
        },
        {
          "indexed": false,
          "name": "policyId",
          "type": "uint256"
        },
        {
          "indexed": false,
          "name": "state",
          "type": "uint8"
        }
      ],
      "name": "LogClaimStateChanged",
      "type": "event",
      "signature": "0x93ce95a18916f55295a7d528231262dc7e487c6e0b2360f3f3da9aaf0e8fb114"
    },
    {
      "anonymous": false,
      "inputs": [
        {
          "indexed": false,
          "name": "productId",
          "type": "uint256"
        },
        {
          "indexed": false,
          "name": "payoutId",
          "type": "uint256"
        },
        {
          "indexed": false,
          "name": "metadataId",
          "type": "uint256"
        },
        {
          "indexed": false,
          "name": "policyId",
          "type": "uint256"
        },
        {
          "indexed": false,
          "name": "claimId",
          "type": "uint256"
        },
        {
          "indexed": false,
          "name": "amount",
          "type": "uint256"
        },
        {
          "indexed": false,
          "name": "state",
          "type": "uint8"
        }
      ],
      "name": "LogNewPayout",
      "type": "event",
      "signature": "0xda3e9155077a479feba19bf813c11fe009119bb8374d902862b97174364d4f2c"
    },
    {
      "anonymous": false,
      "inputs": [
        {
          "indexed": false,
          "name": "productId",
          "type": "uint256"
        },
        {
          "indexed": false,
          "name": "metadataId",
          "type": "uint256"
        },
        {
          "indexed": false,
          "name": "policyId",
          "type": "uint256"
        },
        {
          "indexed": false,
          "name": "claimId",
          "type": "uint256"
        },
        {
          "indexed": false,
          "name": "state",
          "type": "uint8"
        }
      ],
      "name": "LogPayoutStateChanged",
      "type": "event",
      "signature": "0x37081c5c4ed46e00a7a4425e5eb205d695291de1fbdaa37a5ab5fb247831c2d8"
    },
    {
      "anonymous": false,
      "inputs": [
        {
          "indexed": false,
          "name": "productId",
          "type": "uint256"
        },
        {
          "indexed": false,
          "name": "policyId",
          "type": "uint256"
        },
        {
          "indexed": false,
          "name": "payoutId",
          "type": "uint256"
        },
        {
          "indexed": false,
          "name": "amount",
          "type": "uint256"
        },
        {
          "indexed": false,
          "name": "state",
          "type": "uint8"
        }
      ],
      "name": "LogPayoutCompleted",
      "type": "event",
      "signature": "0xc30f97faf368d03f2f6ac81cc1402b7d4aeca7d7bd43aeb061080b6b5c0c3cd6"
    },
    {
      "anonymous": false,
      "inputs": [
        {
          "indexed": false,
          "name": "productId",
          "type": "uint256"
        },
        {
          "indexed": false,
          "name": "policyId",
          "type": "uint256"
        },
        {
          "indexed": false,
          "name": "payoutId",
          "type": "uint256"
        },
        {
          "indexed": false,
          "name": "amount",
          "type": "uint256"
        },
        {
          "indexed": false,
          "name": "remainder",
          "type": "uint256"
        },
        {
          "indexed": false,
          "name": "state",
          "type": "uint8"
        }
      ],
      "name": "LogPartialPayout",
      "type": "event",
      "signature": "0x38dd802e8f7783a31657d40dc978a7c176f95b9038863ff49f42dca0f8ccba36"
    },
    {
      "constant": false,
      "inputs": [
        {
          "name": "_productId",
          "type": "uint256"
        }
      ],
      "name": "createPolicyFlow",
      "outputs": [
        {
          "name": "_metadataId",
          "type": "uint256"
        }
      ],
      "payable": false,
      "stateMutability": "nonpayable",
      "type": "function",
      "signature": "0x679ffb80"
    },
    {
      "constant": false,
      "inputs": [
        {
          "name": "_productId",
          "type": "uint256"
        },
        {
          "name": "_metadataId",
          "type": "uint256"
        },
        {
          "name": "_state",
          "type": "uint8"
        }
      ],
      "name": "setPolicyFlowState",
      "outputs": [],
      "payable": false,
      "stateMutability": "nonpayable",
      "type": "function",
      "signature": "0xe5274292"
    },
    {
      "constant": false,
      "inputs": [
        {
          "name": "_productId",
          "type": "uint256"
        },
        {
          "name": "_metadataId",
          "type": "uint256"
        },
        {
          "name": "_customerExternalId",
          "type": "bytes32"
        },
        {
          "name": "_premium",
          "type": "uint256"
        },
        {
          "name": "_currency",
          "type": "bytes32"
        },
        {
          "name": "_payoutOptions",
          "type": "uint256[]"
        }
      ],
      "name": "createApplication",
      "outputs": [
        {
          "name": "_applicationId",
          "type": "uint256"
        }
      ],
      "payable": false,
      "stateMutability": "nonpayable",
      "type": "function",
      "signature": "0xd007967a"
    },
    {
      "constant": false,
      "inputs": [
        {
          "name": "_productId",
          "type": "uint256"
        },
        {
          "name": "_applicationId",
          "type": "uint256"
        },
        {
          "name": "_state",
          "type": "uint8"
        }
      ],
      "name": "setApplicationState",
      "outputs": [],
      "payable": false,
      "stateMutability": "nonpayable",
      "type": "function",
      "signature": "0x5fde26f4"
    },
    {
      "constant": false,
      "inputs": [
        {
          "name": "_productId",
          "type": "uint256"
        },
        {
          "name": "_metadataId",
          "type": "uint256"
        }
      ],
      "name": "createPolicy",
      "outputs": [
        {
          "name": "_policyId",
          "type": "uint256"
        }
      ],
      "payable": false,
      "stateMutability": "nonpayable",
      "type": "function",
      "signature": "0xc7e2f28e"
    },
    {
      "constant": false,
      "inputs": [
        {
          "name": "_productId",
          "type": "uint256"
        },
        {
          "name": "_policyId",
          "type": "uint256"
        },
        {
          "name": "_state",
          "type": "uint8"
        }
      ],
      "name": "setPolicyState",
      "outputs": [],
      "payable": false,
      "stateMutability": "nonpayable",
      "type": "function",
      "signature": "0xd4d6e444"
    },
    {
      "constant": false,
      "inputs": [
        {
          "name": "_productId",
          "type": "uint256"
        },
        {
          "name": "_policyId",
          "type": "uint256"
        },
        {
          "name": "_data",
          "type": "bytes32"
        }
      ],
      "name": "createClaim",
      "outputs": [
        {
          "name": "_claimId",
          "type": "uint256"
        }
      ],
      "payable": false,
      "stateMutability": "nonpayable",
      "type": "function",
      "signature": "0xf6499f79"
    },
    {
      "constant": false,
      "inputs": [
        {
          "name": "_productId",
          "type": "uint256"
        },
        {
          "name": "_claimId",
          "type": "uint256"
        },
        {
          "name": "_state",
          "type": "uint8"
        }
      ],
      "name": "setClaimState",
      "outputs": [],
      "payable": false,
      "stateMutability": "nonpayable",
      "type": "function",
      "signature": "0x24e48c4a"
    },
    {
      "constant": false,
      "inputs": [
        {
          "name": "_productId",
          "type": "uint256"
        },
        {
          "name": "_claimId",
          "type": "uint256"
        },
        {
          "name": "_amount",
          "type": "uint256"
        }
      ],
      "name": "createPayout",
      "outputs": [
        {
          "name": "_payoutId",
          "type": "uint256"
        }
      ],
      "payable": false,
      "stateMutability": "nonpayable",
      "type": "function",
      "signature": "0x9171d040"
    },
    {
      "constant": false,
      "inputs": [
        {
          "name": "_productId",
          "type": "uint256"
        },
        {
          "name": "_payoutId",
          "type": "uint256"
        },
        {
          "name": "_amount",
          "type": "uint256"
        }
      ],
      "name": "payOut",
      "outputs": [
        {
          "name": "_remainder",
          "type": "uint256"
        }
      ],
      "payable": false,
      "stateMutability": "nonpayable",
      "type": "function",
      "signature": "0x2f5ab23b"
    },
    {
      "constant": false,
      "inputs": [
        {
          "name": "_productId",
          "type": "uint256"
        },
        {
          "name": "_payoutId",
          "type": "uint256"
        },
        {
          "name": "_state",
          "type": "uint8"
        }
      ],
      "name": "setPayoutState",
      "outputs": [],
      "payable": false,
      "stateMutability": "nonpayable",
      "type": "function",
      "signature": "0xae4b8ae1"
    },
    {
      "constant": true,
      "inputs": [
        {
          "name": "_productId",
          "type": "uint256"
        },
        {
          "name": "_applicationId",
          "type": "uint256"
        }
      ],
      "name": "getApplicationData",
      "outputs": [
        {
          "name": "_metadataId",
          "type": "uint256"
        },
        {
          "name": "_customerExternalId",
          "type": "bytes32"
        },
        {
          "name": "_premium",
          "type": "uint256"
        },
        {
          "name": "_currency",
          "type": "bytes32"
        },
        {
          "name": "_state",
          "type": "uint8"
        }
      ],
      "payable": false,
      "stateMutability": "view",
      "type": "function",
      "signature": "0x9c671820"
    },
    {
      "constant": true,
      "inputs": [
        {
          "name": "_productId",
          "type": "uint256"
        },
        {
          "name": "_applicationId",
          "type": "uint256"
        }
      ],
      "name": "getPayoutOptions",
      "outputs": [
        {
          "name": "_payoutOptions",
          "type": "uint256[]"
        }
      ],
      "payable": false,
      "stateMutability": "view",
      "type": "function",
      "signature": "0x51d7c4cc"
    },
    {
      "constant": true,
      "inputs": [
        {
          "name": "_productId",
          "type": "uint256"
        },
        {
          "name": "_applicationId",
          "type": "uint256"
        }
      ],
      "name": "getPremium",
      "outputs": [
        {
          "name": "_premium",
          "type": "uint256"
        }
      ],
      "payable": false,
      "stateMutability": "view",
      "type": "function",
      "signature": "0x82275208"
    },
    {
      "constant": true,
      "inputs": [
        {
          "name": "_productId",
          "type": "uint256"
        },
        {
          "name": "_applicationId",
          "type": "uint256"
        }
      ],
      "name": "getApplicationState",
      "outputs": [
        {
          "name": "_state",
          "type": "uint8"
        }
      ],
      "payable": false,
      "stateMutability": "view",
      "type": "function",
      "signature": "0x04fd5f6f"
    },
    {
      "constant": true,
      "inputs": [
        {
          "name": "_productId",
          "type": "uint256"
        },
        {
          "name": "_policyId",
          "type": "uint256"
        }
      ],
      "name": "getPolicyState",
      "outputs": [
        {
          "name": "_state",
          "type": "uint8"
        }
      ],
      "payable": false,
      "stateMutability": "view",
      "type": "function",
      "signature": "0xa72a8805"
    },
    {
      "constant": true,
      "inputs": [
        {
          "name": "_productId",
          "type": "uint256"
        },
        {
          "name": "_claimId",
          "type": "uint256"
        }
      ],
      "name": "getClaimState",
      "outputs": [
        {
          "name": "_state",
          "type": "uint8"
        }
      ],
      "payable": false,
      "stateMutability": "view",
      "type": "function",
      "signature": "0xe90d41d3"
    },
    {
      "constant": true,
      "inputs": [
        {
          "name": "_productId",
          "type": "uint256"
        },
        {
          "name": "_payoutId",
          "type": "uint256"
        }
      ],
      "name": "getPayoutState",
      "outputs": [
        {
          "name": "_state",
          "type": "uint8"
        }
      ],
      "payable": false,
      "stateMutability": "view",
      "type": "function",
      "signature": "0x5d70e11b"
    }
  ],
  "bytecode": "0x60806040523480156200001157600080fd5b5060405160208062002ad283398101806040526200003391908101906200006e565b60058054600160a060020a031916600160a060020a0392909216919091179055620000b6565b6000620000678251620000a3565b9392505050565b6000602082840312156200008157600080fd5b60006200008f848462000059565b949350505050565b600160a060020a031690565b6000620000b08262000097565b92915050565b612a0c80620000c66000396000f3fe608060405234801561001057600080fd5b50600436106101ec576000357c010000000000000000000000000000000000000000000000000000000090048063a0b7992b11610121578063d4d6e444116100bf578063e71359bf1161008e578063e71359bf14610490578063e90d41d3146104a3578063f6499f79146104c3578063f894160e146104d6576101ec565b8063d4d6e44414610444578063da47d85614610457578063e16c7d981461046a578063e52742921461047d576101ec565b8063c2a0fa48116100fb578063c2a0fa48146103e5578063c7e2f28e14610409578063ce9b79301461041c578063d007967a14610431576101ec565b8063a0b7992b14610394578063a72a8805146103bf578063ae4b8ae1146103d2576101ec565b80635fde26f41161018e5780637b103999116101685780637b10399914610335578063822752081461034a5780639171d0401461035d5780639c67182014610370576101ec565b80635fde26f4146102e8578063679ffb80146102fb5780637a870b631461030e576101ec565b8063304de873116101ca578063304de8731461026e57806351b68ee41461029557806351d7c4cc146102a85780635d70e11b146102c8576101ec565b806304fd5f6f1461021057806324e48c4a146102395780632f5ab23b1461024e575b60405160e560020a62461bcd02815260040161020790612454565b60405180910390fd5b61022361021e366004611fd2565b6104fb565b604051610230919061240a565b60405180910390f35b61024c610247366004612141565b610533565b005b61026161025c36600461200c565b610680565b60405161023091906123ee565b61028161027c366004611fd2565b6108ce565b604051610230989796959493929190612815565b61024c6102a3366004611f70565b610933565b6102bb6102b6366004611fd2565b6109b5565b60405161023091906123dd565b6102db6102d6366004611fd2565b610a3b565b6040516102309190612426565b61024c6102f63660046120fe565b610a73565b610261610309366004611fb4565b610b8f565b61032161031c366004611fd2565b610cbc565b60405161023098979695949392919061253a565b61033d610d21565b60405161023091906123fc565b610261610358366004611fd2565b610d30565b61026161036b36600461200c565b610d64565b61038361037e366004611fd2565b610f20565b6040516102309594939291906124ee565b6103a76103a2366004611fd2565b611037565b6040516102309c9b9a999897969594939291906125f3565b6102db6103cd366004611fd2565b6110c7565b61024c6103e0366004612184565b6110ff565b6103f86103f3366004611fd2565b611242565b6040516102309594939291906125b1565b610261610417366004611fd2565b611293565b610424611414565b60405161023091906123cf565b61026161043f366004612059565b611423565b61024c610452366004612184565b6115c8565b610424610465366004611fb4565b6116d5565b610424610478366004611fb4565b611775565b61024c61048b366004612141565b6117bf565b61024c61049e366004611f70565b6118c9565b6104b66104b1366004611fd2565b611928565b6040516102309190612418565b6102616104d136600461200c565b611960565b6104e96104e4366004611fd2565b611b07565b60405161023096959493929190612494565b600082815260016020526040812080548390811061051557fe5b600091825260209091206005600990920201015460ff169392505050565b60d060020a65506f6c6963790261054981611775565b600160a060020a031630146105735760405160e560020a62461bcd02815260040161020790612474565b61058a6000805160206129b3833981519152611775565b600160a060020a031633146105b45760405160e560020a62461bcd02815260040161020790612464565b60008481526003602052604081208054859081106105ce57fe5b90600052602060002090600602019050828160020160006101000a81548160ff021916908360028111156105fe57fe5b0217905550426005820155600085815260208190526040812082548154811061062357fe5b90600052602060002090600c020190507f93ce95a18916f55295a7d528231262dc7e487c6e0b2360f3f3da9aaf0e8fb1148683600001548360010154876040516106709493929190612734565b60405180910390a1505050505050565b600060d060020a65506f6c6963790261069881611775565b600160a060020a031630146106c25760405160e560020a62461bcd02815260040161020790612474565b6106d96000805160206129b3833981519152611775565b600160a060020a031633146107035760405160e560020a62461bcd02815260040161020790612464565b600085815260046020526040812080548690811061071d57fe5b6000918252602080832089845290839052604083206008909202018054825491945090811061074857fe5b6000918252602082206003850154600c90920201925061076e908763ffffffff611b5d16565b90506000600484015460ff16600181111561078557fe5b146107a55760405160e560020a62461bcd02815260040161020790612484565b60028301548111156107cc5760405160e560020a62461bcd02815260040161020790612444565b808360020154141561084f576000600284018190556003840182905560048401805460ff19166001908117918290554260078701558401546040519297507fc30f97faf368d03f2f6ac81cc1402b7d4aeca7d7bd43aeb061080b6b5c0c3cd692610842928c92918c91879160ff909116906127d3565b60405180910390a16108c3565b600383018190554260078401556002830154610871908263ffffffff611b7616565b600183015460048501546040519297507f38dd802e8f7783a31657d40dc978a7c176f95b9038863ff49f42dca0f8ccba36926108ba928c9290918c9187918c9160ff1690612858565b60405180910390a15b505050509392505050565b6004602052816000526040600020818154811015156108e957fe5b6000918252602090912060089091020180546001820154600283015460038401546004850154600586015460068701546007909701549598509396509194909360ff909216929188565b61095c7f44414f00000000000000000000000000000000000000000000000000000000006116d5565b600160a060020a031633146109865760405160e560020a62461bcd02815260040161020790612434565b6005805473ffffffffffffffffffffffffffffffffffffffff1916600160a060020a0392909216919091179055565b6000828152600160205260409020805460609190839081106109d357fe5b9060005260206000209060090201600401805480602002602001604051908101604052809291908181526020018280548015610a2e57602002820191906000526020600020905b815481526020019060010190808311610a1a575b5050505050905092915050565b6000828152600460205260408120805483908110610a5557fe5b600091825260209091206004600890920201015460ff169392505050565b60d060020a65506f6c69637902610a8981611775565b600160a060020a03163014610ab35760405160e560020a62461bcd02815260040161020790612474565b610aca6000805160206129b3833981519152611775565b600160a060020a03163314610af45760405160e560020a62461bcd02815260040161020790612464565b6000848152600160205260408120805485908110610b0e57fe5b90600052602060002090600902019050828160050160006101000a81548160ff02191690836003811115610b3e57fe5b021790555042600882015580546040517f72662cc8f3e4669125918fcdb8424c41e93f69bf15b435c1095772960df9244591610b8091889190889088906126f6565b60405180910390a15050505050565b600060d060020a65506f6c69637902610ba781611775565b600160a060020a03163014610bd15760405160e560020a62461bcd02815260040161020790612474565b610be86000805160206129b3833981519152611775565b600160a060020a03163314610c125760405160e560020a62461bcd02815260040161020790612464565b6000838152602081905260409020805490610c309060018301611bba565b60008481526020819052604081208054929450909184908110610c4f57fe5b600091825260208220600c919091020160088101805460ff1916905542600a8201819055600b8201556040519092507f56e10a65574d410cf29046d336f4e0b6756a82e88b976b823706a5cc4f37c47091610cad91879187916126a6565b60405180910390a15050919050565b600160205281600052604060002081815481101515610cd757fe5b6000918252602090912060099091020180546001820154600283015460038401546005850154600686015460078701546008909701549598509396509194909360ff909216929188565b600554600160a060020a031681565b6000828152600160205260408120805483908110610d4a57fe5b906000526020600020906009020160020154905092915050565b600060d060020a65506f6c69637902610d7c81611775565b600160a060020a03163014610da65760405160e560020a62461bcd02815260040161020790612474565b610dbd6000805160206129b3833981519152611775565b600160a060020a03163314610de75760405160e560020a62461bcd02815260040161020790612464565b6000858152600360205260408120805486908110610e0157fe5b90600052602060002090600602019050600460008781526020019081526020016000208054809190600101610e369190611beb565b60008781526004602052604081208054929550909185908110610e5557fe5b600091825260208083208554600893909302019182556001820189905560048201805460ff191690556002820188905542600683018190556007830155898352829052604082208454815492945090918110610ead57fe5b600091825260208083206003600c9093020191820180546001818101835591855291842090910188905542600b8301558554908201546040519294507fda3e9155077a479feba19bf813c11fe009119bb8374d902862b97174364d4f2c936108ba938d938b93909290918e918e916128a7565b60008281526001602052604081208054829182918291829187908110610f4257fe5b90600052602060002090600902016000015494506001600088815260200190815260200160002086815481101515610f7657fe5b90600052602060002090600902016001015493506001600088815260200190815260200160002086815481101515610faa57fe5b90600052602060002090600902016002015492506001600088815260200190815260200160002086815481101515610fde57fe5b9060005260206000209060090201600301549150600160008881526020019081526020016000208681548110151561101257fe5b600091825260209091206005600990920201015494979396509194509260ff16919050565b60006020528160005260406000208181548110151561105257fe5b60009182526020909120600c9091020180546001820154600483015460058401546006850154600786015460088701546009880154600a890154600b90990154979a5095985060ff80861698610100870482169862010000909704600160a060020a031697959694959394919092169291908c565b60008281526002602052604081208054839081106110e157fe5b600091825260209091206001600590920201015460ff169392505050565b60d060020a65506f6c6963790261111581611775565b600160a060020a0316301461113f5760405160e560020a62461bcd02815260040161020790612474565b6111566000805160206129b3833981519152611775565b600160a060020a031633146111805760405160e560020a62461bcd02815260040161020790612464565b600084815260046020526040812080548590811061119a57fe5b90600052602060002090600802019050828160040160006101000a81548160ff021916908360018111156111ca57fe5b021790555042600782015560008581526020819052604081208254815481106111ef57fe5b90600052602060002090600c020190507f37081c5c4ed46e00a7a4425e5eb205d695291de1fbdaa37a5ab5fb247831c2d886836000015483600101548560010154886040516106709594939291906127d3565b60026020528160005260406000208181548110151561125d57fe5b60009182526020909120600590910201805460018201546002830154600384015460049094015492955060ff9091169350919085565b600060d060020a65506f6c696379026112ab81611775565b600160a060020a031630146112d55760405160e560020a62461bcd02815260040161020790612474565b6112ec6000805160206129b3833981519152611775565b600160a060020a031633146113165760405160e560020a62461bcd02815260040161020790612464565b60008481526002602052604090208054906113349060018301611c17565b6000858152600260205260408120805492945090918490811061135357fe5b6000918252602080832060059290920290910186815560018101805460ff191690554260038201819055600482015587835290829052604082208054919350908690811061139d57fe5b60009182526020909120600c90910201600181810186905560048201805460ff1916909117905542600b82015580546040519192507f393a2454e004de3e3f426713018a5da2237da49f1079720cdf1450c81e0078c1916114039189918991899161279e565b60405180910390a150505092915050565b600654600160a060020a031681565b600060d060020a65506f6c6963790261143b81611775565b600160a060020a031630146114655760405160e560020a62461bcd02815260040161020790612474565b61147c6000805160206129b3833981519152611775565b600160a060020a031633146114a65760405160e560020a62461bcd02815260040161020790612464565b60008981526001602081905260409091208054916114c691908301611c43565b60008a815260016020526040812080549294509091849081106114e557fe5b60009182526020909120600990910201898155600181018990556002810188905560038101879055905061151d600482018686611c6f565b5060058101805460ff191690554260078201819055600882015560008a815260208190526040812080548b90811061155157fe5b60009182526020909120600c9091020184815560048101805461ff00191661010017905542600b8201556040519091507f08cbae34439f6e42b3c0d22f309ee991b7a1aa31c27b09d0511634c5b7b4555c906115b2908d908d9088906126ce565b60405180910390a1505050979650505050505050565b60d060020a65506f6c696379026115de81611775565b600160a060020a031630146116085760405160e560020a62461bcd02815260040161020790612474565b61161f6000805160206129b3833981519152611775565b600160a060020a031633146116495760405160e560020a62461bcd02815260040161020790612464565b600084815260026020526040812080548590811061166357fe5b90600052602060002090600502019050828160010160006101000a81548160ff0219169083600181111561169357fe5b021790555042600482015580546040517f8b0d1b9c9389302c8ab61b5f5ad51b9cbae5f3330693804a9f3d9aa00e9d1fde91610b809188919088908890612769565b6005546040517fda47d856000000000000000000000000000000000000000000000000000000008152600091600160a060020a03169063da47d8569061171f9085906004016123ee565b60206040518083038186803b15801561173757600080fd5b505afa15801561174b573d6000803e3d6000fd5b505050506040513d601f19601f8201168201806040525061176f9190810190611f96565b92915050565b6005546040517fe16c7d98000000000000000000000000000000000000000000000000000000008152600091600160a060020a03169063e16c7d989061171f9085906004016123ee565b60d060020a65506f6c696379026117d581611775565b600160a060020a031630146117ff5760405160e560020a62461bcd02815260040161020790612474565b6118166000805160206129b3833981519152611775565b600160a060020a031633146118405760405160e560020a62461bcd02815260040161020790612464565b600084815260208190526040812080548590811061185a57fe5b90600052602060002090600c02019050828160080160006101000a81548160ff0219169083600281111561188a57fe5b021790555042600b8201556040517fb8ecaa7e65a5563c3056a6912ad98a31fff22865db39c1d532246718626b245490610b80908790879087906126a6565b6118f27f44414f00000000000000000000000000000000000000000000000000000000006116d5565b600160a060020a0316331461191c5760405160e560020a62461bcd02815260040161020790612434565b61192581611b8b565b50565b600082815260036020526040812080548390811061194257fe5b600091825260209091206002600690920201015460ff169392505050565b600060d060020a65506f6c6963790261197881611775565b600160a060020a031630146119a25760405160e560020a62461bcd02815260040161020790612474565b6119b96000805160206129b3833981519152611775565b600160a060020a031633146119e35760405160e560020a62461bcd02815260040161020790612464565b60008581526002602052604081208054869081106119fd57fe5b90600052602060002090600502019050600360008781526020019081526020016000208054809190600101611a329190611cba565b60008781526003602052604081208054929550909185908110611a5157fe5b6000918252602080832085546006939093020191825560028201805460ff191690556001820188905542600483018190556005830155898352829052604082208454815492945090918110611aa257fe5b600091825260208083206002600c9093020191820180546001810182559084529083200187905542600b82015584546040519193507f93ce95a18916f55295a7d528231262dc7e487c6e0b2360f3f3da9aaf0e8fb114926108ba928c92918c91612734565b600360205281600052604060002081815481101515611b2257fe5b600091825260209091206006909102018054600182015460028301546003840154600485015460059095015493965091945060ff1692909186565b600082820183811015611b6f57600080fd5b9392505050565b600082821115611b8557600080fd5b50900390565b6006805473ffffffffffffffffffffffffffffffffffffffff1916600160a060020a0392909216919091179055565b815481835581811115611be657600c0281600c028360005260206000209182019101611be69190611ce6565b505050565b815481835581811115611be657600802816008028360005260206000209182019101611be69190611d7e565b815481835581811115611be657600502816005028360005260206000209182019101611be69190611dcd565b815481835581811115611be657600902816009028360005260206000209182019101611be69190611e07565b828054828255906000526020600020908101928215611caa579160200282015b82811115611caa578235825591602001919060010190611c8f565b50611cb6929150611e66565b5090565b815481835581811115611be657600602816006028360005260206000209182019101611be69190611e80565b611d7b91905b80821115611cb657600080825560018201819055611d0d6002830182611ec1565b611d1b600383016000611ec1565b5060048101805475ffffffffffffffffffffffffffffffffffffffffffff19169055600060058201819055600682018190556007820181905560088201805460ff1916905560098201819055600a8201819055600b820155600c01611cec565b90565b611d7b91905b80821115611cb657600080825560018201819055600282018190556003820181905560048201805460ff1916905560058201819055600682018190556007820155600801611d84565b611d7b91905b80821115611cb657600080825560018201805460ff1916905560028201819055600382018190556004820155600501611dd3565b611d7b91905b80821115611cb6576000808255600182018190556002820181905560038201819055611e3c6004830182611ec1565b5060058101805460ff19169055600060068201819055600782018190556008820155600901611e0d565b611d7b91905b80821115611cb65760008155600101611e6c565b611d7b91905b80821115611cb65760008082556001820181905560028201805460ff1916905560038201819055600482018190556005820155600601611e86565b50805460008255906000526020600020908101906119259190611e66565b6000611b6f8235612919565b6000611b6f8251612919565b600080601f83018413611f0957600080fd5b50813567ffffffffffffffff811115611f2157600080fd5b602083019150836020820283011115611f3957600080fd5b9250929050565b6000611b6f8235611d7b565b6000611b6f8235612959565b6000611b6f8235612968565b6000611b6f8235612977565b600060208284031215611f8257600080fd5b6000611f8e8484611edf565b949350505050565b600060208284031215611fa857600080fd5b6000611f8e8484611eeb565b600060208284031215611fc657600080fd5b6000611f8e8484611f40565b60008060408385031215611fe557600080fd5b6000611ff18585611f40565b925050602061200285828601611f40565b9150509250929050565b60008060006060848603121561202157600080fd5b600061202d8686611f40565b935050602061203e86828701611f40565b925050604061204f86828701611f40565b9150509250925092565b600080600080600080600060c0888a03121561207457600080fd5b60006120808a8a611f40565b97505060206120918a828b01611f40565b96505060406120a28a828b01611f40565b95505060606120b38a828b01611f40565b94505060806120c48a828b01611f40565b93505060a088013567ffffffffffffffff8111156120e157600080fd5b6120ed8a828b01611ef7565b925092505092959891949750929550565b60008060006060848603121561211357600080fd5b600061211f8686611f40565b935050602061213086828701611f40565b925050604061204f86828701611f4c565b60008060006060848603121561215657600080fd5b60006121628686611f40565b935050602061217386828701611f40565b925050604061204f86828701611f58565b60008060006060848603121561219957600080fd5b60006121a58686611f40565b93505060206121b686828701611f40565b925050604061204f86828701611f64565b6121d081612919565b82525050565b60006121e182612915565b8084526020840193506121f38361290f565b60005b8281101561222357612209868351612236565b6122128261290f565b6020969096019591506001016121f6565b5093949350505050565b6121d081612924565b6121d081611d7b565b6121d081612986565b6121d081612991565b6121d08161299c565b6121d0816129a7565b601681527f4552524f523a3a4e4f545f44414f5f5345525649434500000000000000000000602082015260400190565b602381527f4552524f523a3a416d6f756e74206973206d6f7265207468616e20657870656360208201527f7465640000000000000000000000000000000000000000000000000000000000604082015260600190565b602481527f4552524f523a3a46414c4c4241434b5f46554e4354494f4e5f4e4f575f414c4c60208201527f4f57454400000000000000000000000000000000000000000000000000000000604082015260600190565b601a81527f4552524f523a3a4e4f545f50524f445543545f53455256494345000000000000602082015260400190565b601581527f4552524f523a3a4e4f545f4f4e5f53544f524147450000000000000000000000602082015260400190565b601781527f4552524f523a3a5041594f55545f434f4d504c45544544000000000000000000602082015260400190565b6020810161176f82846121c7565b60208082528101611b6f81846121d6565b6020810161176f8284612236565b6020810161176f828461223f565b6020810161176f8284612248565b6020810161176f8284612251565b6020810161176f828461225a565b6020808252810161176f81612263565b6020808252810161176f81612293565b6020808252810161176f816122e9565b6020808252810161176f8161233f565b6020808252810161176f8161236f565b6020808252810161176f8161239f565b60c081016124a28289612236565b6124af6020830188612236565b6124bc6040830187612251565b6124c96060830186612236565b6124d66080830185612236565b6124e360a0830184612236565b979650505050505050565b60a081016124fc8288612236565b6125096020830187612236565b6125166040830186612236565b6125236060830185612236565b6125306080830184612248565b9695505050505050565b6101008101612549828b612236565b612556602083018a612236565b6125636040830189612236565b6125706060830188612236565b61257d6080830187612248565b61258a60a0830186612236565b61259760c0830185612236565b6125a460e0830184612236565b9998505050505050505050565b60a081016125bf8288612236565b6125cc602083018761225a565b6125d96040830186612236565b6125e66060830185612236565b6125306080830184612236565b6101808101612602828f612236565b61260f602083018e612236565b61261c604083018d61222d565b612629606083018c61222d565b612636608083018b6121c7565b61264360a083018a612236565b61265060c0830189612236565b61265d60e0830188612236565b61266b610100830187612251565b612679610120830186612236565b612687610140830185612236565b612695610160830184612236565b9d9c50505050505050505050505050565b606081016126b48286612236565b6126c16020830185612236565b611f8e6040830184612251565b606081016126dc8286612236565b6126e96020830185612236565b611f8e6040830184612236565b608081016127048287612236565b6127116020830186612236565b61271e6040830185612236565b61272b6060830184612248565b95945050505050565b608081016127428287612236565b61274f6020830186612236565b61275c6040830185612236565b61272b6060830184612251565b608081016127778287612236565b6127846020830186612236565b6127916040830185612236565b61272b606083018461225a565b608081016127ac8287612236565b6127b96020830186612236565b6127c66040830185612236565b61272b6060830184612236565b60a081016127e18288612236565b6127ee6020830187612236565b6127fb6040830186612236565b6128086060830185612236565b612530608083018461225a565b6101008101612824828b612236565b612831602083018a612236565b61283e6040830189612236565b61284b6060830188612236565b61257d608083018761225a565b60c081016128668289612236565b6128736020830188612236565b6128806040830187612236565b61288d6060830186612236565b61289a6080830185612236565b6124e360a083018461225a565b60e081016128b5828a612236565b6128c26020830189612236565b6128cf6040830188612236565b6128dc6060830187612236565b6128e96080830186612236565b6128f660a0830185612236565b61290360c083018461225a565b98975050505050505050565b60200190565b5190565b600061176f8261294d565b151590565b600060048210611cb657fe5b600060038210611cb657fe5b600060028210611cb657fe5b600160a060020a031690565b600060048210611cb657600080fd5b600060038210611cb657600080fd5b600060028210611cb657600080fd5b600061176f82612919565b600061176f82612929565b600061176f82612935565b600061176f8261294156fe50726f6475637453657276696365000000000000000000000000000000000000a265627a7a72305820aa9bf6b7604aab93c80a52ad5a3bf457bd30c587e6031d7ef2b81968db0c82b36c6578706572696d656e74616cf50037",
  "source": "pragma solidity 0.5.2;\npragma experimental ABIEncoderV2;\n\nimport \"openzeppelin-solidity/contracts/math/SafeMath.sol\";\nimport \"./PolicyStorageModel.sol\";\nimport \"../../shared/ModuleController.sol\";\n\ncontract PolicyController is PolicyStorageModel, ModuleController {\n    using SafeMath for *;\n\n    constructor(address _registry) public WithRegistry(_registry) {}\n\n    /* Metadata */\n    function createPolicyFlow(uint256 _productId)\n        external\n        onlyPolicyFlow(\"Policy\")\n        returns (uint256 _metadataId)\n    {\n        _metadataId = metadata[_productId].length++;\n\n        Metadata storage metadatum = metadata[_productId][_metadataId];\n        metadatum.state = PolicyFlowState.Started;\n        metadatum.createdAt = block.timestamp;\n        metadatum.updatedAt = block.timestamp;\n\n        emit LogNewMetadata(_productId, _metadataId, PolicyFlowState.Started);\n    }\n\n    function setPolicyFlowState(\n        uint256 _productId,\n        uint256 _metadataId,\n        PolicyFlowState _state\n    ) external onlyPolicyFlow(\"Policy\") {\n        Metadata storage metadatum = metadata[_productId][_metadataId];\n        metadatum.state = _state;\n        metadatum.updatedAt = block.timestamp;\n\n        emit LogMetadataStateChanged(_productId, _metadataId, _state);\n    }\n\n    /* Application */\n    function createApplication(\n        uint256 _productId,\n        uint256 _metadataId,\n        bytes32 _customerExternalId,\n        uint256 _premium,\n        bytes32 _currency,\n        uint256[] calldata _payoutOptions\n    ) external onlyPolicyFlow(\"Policy\") returns (uint256 _applicationId) {\n        _applicationId = applications[_productId].length++;\n\n        Application storage application = applications[_productId][_applicationId];\n        application.metadataId = _metadataId;\n        application.customerExternalId = _customerExternalId;\n        application.premium = _premium;\n        application.currency = _currency;\n        // todo: check payoutOptions values\n        application.payoutOptions = _payoutOptions;\n        application.state = ApplicationState.Applied;\n        application.createdAt = block.timestamp;\n        application.updatedAt = block.timestamp;\n\n        Metadata storage metadatum = metadata[_productId][_metadataId];\n        metadatum.applicationId = _applicationId;\n        metadatum.hasApplication = true;\n        metadatum.updatedAt = block.timestamp;\n\n        emit LogNewApplication(_productId, _metadataId, _applicationId);\n    }\n\n    function setApplicationState(\n        uint256 _productId,\n        uint256 _applicationId,\n        ApplicationState _state\n    ) external onlyPolicyFlow(\"Policy\") {\n        Application storage application = applications[_productId][_applicationId];\n        application.state = _state;\n        application.updatedAt = block.timestamp;\n\n        emit LogApplicationStateChanged(\n            _productId,\n            application.metadataId,\n            _applicationId,\n            _state\n        );\n    }\n\n    /* Policy */\n    function createPolicy(uint256 _productId, uint256 _metadataId)\n        external\n        onlyPolicyFlow(\"Policy\")\n        returns (uint256 _policyId)\n    {\n        _policyId = policies[_productId].length++;\n\n        Policy storage policy = policies[_productId][_policyId];\n        policy.metadataId = _metadataId;\n        policy.state = PolicyState.Active;\n        policy.createdAt = block.timestamp;\n        policy.updatedAt = block.timestamp;\n\n        Metadata storage metadatum = metadata[_productId][_metadataId];\n        metadatum.policyId = _policyId;\n        metadatum.hasPolicy = true;\n        metadatum.updatedAt = block.timestamp;\n\n        emit LogNewPolicy(\n            _productId,\n            _metadataId,\n            _policyId,\n            metadatum.applicationId\n        );\n    }\n\n    function setPolicyState(\n        uint256 _productId,\n        uint256 _policyId,\n        PolicyState _state\n    ) external onlyPolicyFlow(\"Policy\") {\n        Policy storage policy = policies[_productId][_policyId];\n        policy.state = _state;\n        policy.updatedAt = block.timestamp;\n\n        emit LogPolicyStateChanged(\n            _productId,\n            policy.metadataId,\n            _policyId,\n            _state\n        );\n    }\n\n    /* Claim */\n    function createClaim(uint256 _productId, uint256 _policyId, bytes32 _data)\n        external\n        onlyPolicyFlow(\"Policy\")\n        returns (uint256 _claimId)\n    {\n        Policy storage policy = policies[_productId][_policyId];\n\n        _claimId = claims[_productId].length++;\n\n        Claim storage claim = claims[_productId][_claimId];\n        claim.metadataId = policy.metadataId;\n        claim.state = ClaimState.Applied;\n        claim.data = _data;\n        claim.createdAt = block.timestamp;\n        claim.updatedAt = block.timestamp;\n\n        Metadata storage metadatum = metadata[_productId][policy.metadataId];\n        metadatum.claimIds.push(_claimId);\n        metadatum.updatedAt = block.timestamp;\n\n        emit LogClaimStateChanged(\n            _productId,\n            policy.metadataId,\n            _policyId,\n            ClaimState.Applied\n        );\n    }\n\n    function setClaimState(\n        uint256 _productId,\n        uint256 _claimId,\n        ClaimState _state\n    ) external onlyPolicyFlow(\"Policy\") {\n        Claim storage claim = claims[_productId][_claimId];\n        claim.state = _state;\n        claim.updatedAt = block.timestamp;\n\n        Metadata storage metadatum = metadata[_productId][claim.metadataId];\n\n        emit LogClaimStateChanged(\n            _productId,\n            claim.metadataId,\n            metadatum.policyId,\n            _state\n        );\n    }\n\n    /* Payout */\n    function createPayout(uint256 _productId, uint256 _claimId, uint256 _amount)\n        external\n        onlyPolicyFlow(\"Policy\")\n        returns (uint256 _payoutId)\n    {\n        Claim storage claim = claims[_productId][_claimId];\n\n        _payoutId = payouts[_productId].length++;\n\n        Payout storage payout = payouts[_productId][_payoutId];\n        payout.metadataId = claim.metadataId;\n        payout.claimId = _claimId;\n        payout.state = PayoutState.Expected;\n        payout.expectedAmount = _amount;\n        payout.createdAt = block.timestamp;\n        payout.updatedAt = block.timestamp;\n\n        Metadata storage metadatum = metadata[_productId][claim.metadataId];\n        metadatum.payoutIds.push(_payoutId);\n        metadatum.updatedAt = block.timestamp;\n\n        emit LogNewPayout(\n            _productId,\n            _payoutId,\n            claim.metadataId,\n            metadatum.policyId,\n            _claimId,\n            _amount,\n            PayoutState.Expected\n        );\n    }\n\n    function payOut(uint256 _productId, uint256 _payoutId, uint256 _amount)\n        external\n        onlyPolicyFlow(\"Policy\")\n        returns (uint256 _remainder)\n    {\n        Payout storage payout = payouts[_productId][_payoutId];\n        Metadata storage metadatum = metadata[_productId][payout.metadataId];\n\n        uint256 actualAmount = payout.actualAmount.add(_amount);\n\n        require(\n            payout.state == PayoutState.Expected,\n            \"ERROR::PAYOUT_COMPLETED\"\n        );\n\n        // Check if actual payout amount is no more than expected\n        require(\n            payout.expectedAmount >= actualAmount,\n            \"ERROR::Amount is more than expected\"\n        );\n\n        if (payout.expectedAmount == actualAmount) {\n            // Full\n            payout.expectedAmount = 0;\n            payout.actualAmount = actualAmount;\n            payout.state = PayoutState.PaidOut;\n            payout.updatedAt = block.timestamp;\n\n            _remainder = 0;\n\n            emit LogPayoutCompleted(\n                _productId,\n                metadatum.policyId,\n                _payoutId,\n                actualAmount,\n                payout.state\n            );\n        } else {\n            // Partial\n            payout.actualAmount = actualAmount;\n            payout.updatedAt = block.timestamp;\n\n            _remainder = payout.expectedAmount.sub(payout.actualAmount);\n\n            emit LogPartialPayout(\n                _productId,\n                metadatum.policyId,\n                _payoutId,\n                actualAmount,\n                _remainder,\n                payout.state\n            );\n        }\n    }\n\n    function setPayoutState(\n        uint256 _productId,\n        uint256 _payoutId,\n        PayoutState _state\n    ) external onlyPolicyFlow(\"Policy\") {\n        Payout storage payout = payouts[_productId][_payoutId];\n        payout.state = _state;\n        payout.updatedAt = block.timestamp;\n\n        Metadata storage metadatum = metadata[_productId][payout.metadataId];\n\n        emit LogPayoutStateChanged(\n            _productId,\n            payout.metadataId,\n            metadatum.policyId,\n            payout.claimId,\n            _state\n        );\n    }\n\n    /* Views */\n    function getApplicationData(uint256 _productId, uint256 _applicationId)\n        external\n        view\n        returns (\n        uint256 _metadataId,\n        bytes32 _customerExternalId,\n        uint256 _premium,\n        bytes32 _currency,\n        ApplicationState _state\n    )\n    {\n        _metadataId = applications[_productId][_applicationId].metadataId;\n        _customerExternalId = applications[_productId][_applicationId].customerExternalId;\n        _premium = applications[_productId][_applicationId].premium;\n        _currency = applications[_productId][_applicationId].currency;\n        _state = applications[_productId][_applicationId].state;\n    }\n\n    function getPayoutOptions(uint256 _productId, uint256 _applicationId)\n        external\n        view\n        returns (uint256[] memory _payoutOptions)\n    {\n        _payoutOptions = applications[_productId][_applicationId].payoutOptions;\n    }\n\n    function getPremium(uint256 _productId, uint256 _applicationId)\n        external\n        view\n        returns (uint256 _premium)\n    {\n        _premium = applications[_productId][_applicationId].premium;\n    }\n\n    function getApplicationState(uint256 _productId, uint256 _applicationId)\n        external\n        view\n        returns (ApplicationState _state)\n    {\n        _state = applications[_productId][_applicationId].state;\n    }\n\n    function getPolicyState(uint256 _productId, uint256 _policyId)\n        external\n        view\n        returns (PolicyState _state)\n    {\n        _state = policies[_productId][_policyId].state;\n    }\n\n    function getClaimState(uint256 _productId, uint256 _claimId)\n        external\n        view\n        returns (ClaimState _state)\n    {\n        _state = claims[_productId][_claimId].state;\n    }\n\n    function getPayoutState(uint256 _productId, uint256 _payoutId)\n        external\n        view\n        returns (PayoutState _state)\n    {\n        _state = payouts[_productId][_payoutId].state;\n    }\n}\n",
  "sourcePath": "/Users/ka/Projects/Altoros/Etherisc/dip-platform/core/gif-contracts/contracts/modules/policy/PolicyController.sol",
  "compiler": {
    "name": "solc",
    "version": "0.5.2+commit.1df8f40c.Emscripten.clang"
  },
  "schemaVersion": "3.0.2",
  "updatedAt": "2019-02-25T09:02:52.851Z",
  "devdoc": {
    "methods": {}
  },
  "userdoc": {
    "methods": {}
  }
}