{
  "contractName": "ProductOwnerService",
  "abi": [
    {
      "constant": true,
      "inputs": [],
      "name": "NAME",
      "outputs": [
        {
          "name": "",
          "type": "bytes32"
        }
      ],
      "payable": false,
      "stateMutability": "view",
      "type": "function"
    }
  ],
  "bytecode": "0x6080604052348015600f57600080fd5b5060b18061001e6000396000f3fe6080604052348015600f57600080fd5b50600436106044577c01000000000000000000000000000000000000000000000000000000006000350463a3f4df7e81146049575b600080fd5b604f6061565b60408051918252519081900360200190f35b7f50726f647563744f776e657253657276696365000000000000000000000000008156fea165627a7a723058209a2e27d6f0800e8144119dd29eac9ef0ff14eec23ed451b4aa6aac239ba0b5260029",
  "source": "pragma solidity 0.5.2;\n\ncontract ProductOwnerService {\n    bytes32 public constant NAME = \"ProductOwnerService\";\n}\n",
  "sourcePath": "/Users/ka/Projects/Altoros/Etherisc/dip-platform/core/gif-contracts/contracts/services/ProductOwnerService.sol",
  "compiler": {
    "name": "solc",
    "version": "0.5.2+commit.1df8f40c.Emscripten.clang"
  },
  "schemaVersion": "3.0.2",
  "updatedAt": "2019-02-26T20:35:09.896Z",
  "devdoc": {
    "methods": {}
  },
  "userdoc": {
    "methods": {}
  }
}