{
  "contractName": "ProductService",
  "abi": [
    {
      "constant": false,
      "inputs": [
        {
          "name": "_registry",
          "type": "address"
        }
      ],
      "name": "assignRegistry",
      "outputs": [],
      "payable": false,
      "stateMutability": "nonpayable",
      "type": "function",
      "signature": "0x51b68ee4"
    },
    {
      "constant": true,
      "inputs": [],
      "name": "registry",
      "outputs": [
        {
          "name": "",
          "type": "address"
        }
      ],
      "payable": false,
      "stateMutability": "view",
      "type": "function",
      "signature": "0x7b103999"
    },
    {
      "constant": true,
      "inputs": [],
      "name": "NAME",
      "outputs": [
        {
          "name": "",
          "type": "bytes32"
        }
      ],
      "payable": false,
      "stateMutability": "view",
      "type": "function",
      "signature": "0xa3f4df7e"
    },
    {
      "constant": true,
      "inputs": [
        {
          "name": "_contractName",
          "type": "bytes32"
        }
      ],
      "name": "getService",
      "outputs": [
        {
          "name": "_addr",
          "type": "address"
        }
      ],
      "payable": false,
      "stateMutability": "view",
      "type": "function",
      "signature": "0xda47d856"
    },
    {
      "constant": true,
      "inputs": [
        {
          "name": "_contractName",
          "type": "bytes32"
        }
      ],
      "name": "getContract",
      "outputs": [
        {
          "name": "_addr",
          "type": "address"
        }
      ],
      "payable": false,
      "stateMutability": "view",
      "type": "function",
      "signature": "0xe16c7d98"
    },
    {
      "inputs": [
        {
          "name": "_registry",
          "type": "address"
        }
      ],
      "payable": false,
      "stateMutability": "nonpayable",
      "type": "constructor",
      "signature": "constructor"
    },
    {
      "payable": false,
      "stateMutability": "nonpayable",
      "type": "fallback"
    },
    {
      "constant": false,
      "inputs": [
        {
          "name": "_name",
          "type": "bytes32"
        },
        {
          "name": "_policyFlow",
          "type": "bytes32"
        }
      ],
      "name": "register",
      "outputs": [
        {
          "name": "_registrationId",
          "type": "uint256"
        }
      ],
      "payable": false,
      "stateMutability": "nonpayable",
      "type": "function",
      "signature": "0x2f926732"
    }
  ],
  "bytecode": "0x608060405234801561001057600080fd5b506040516020806107458339810180604052602081101561003057600080fd5b505160008054600160a060020a03909216600160a060020a03199092169190911790556106e3806100626000396000f3fe608060405234801561001057600080fd5b506004361061007e577c010000000000000000000000000000000000000000000000000000000060003504632f92673281146101e757806351b68ee41461021c5780637b10399914610244578063a3f4df7e14610268578063da47d85614610270578063e16c7d981461028d575b6000806100896102aa565b604080517fb6a5d7de0000000000000000000000000000000000000000000000000000000081523360048201528151600160a060020a03939093169263b6a5d7de92602480840193919291829003018186803b1580156100e857600080fd5b505afa1580156100fc573d6000803e3d6000fd5b505050506040513d604081101561011257600080fd5b508051602090910151909250905060018215151461017a576040805160e560020a62461bcd02815260206004820152601560248201527f4552524f523a3a4e4f545f415554484f52495a45440000000000000000000000604482015290519081900360640190fd5b600160a060020a03811615156101da576040805160e560020a62461bcd02815260206004820152601f60248201527f4552524f523a3a504f4c4943595f464c4f575f4e4f545f5245534f4c56454400604482015290519081900360640190fd5b6101e381610360565b5050005b61020a600480360360408110156101fd57600080fd5b5080359060200135610420565b60408051918252519081900360200190f35b6102426004803603602081101561023257600080fd5b5035600160a060020a03166104cf565b005b61024c610586565b60408051600160a060020a039092168252519081900360200190f35b61020a610595565b61024c6004803603602081101561028657600080fd5b50356105b9565b61024c600480360360208110156102a357600080fd5b5035610651565b60008054604080517fe16c7d980000000000000000000000000000000000000000000000000000000081527f4c6963656e73650000000000000000000000000000000000000000000000000060048201529051600160a060020a039092169163e16c7d9891602480820192602092909190829003018186803b15801561032f57600080fd5b505afa158015610343573d6000803e3d6000fd5b505050506040513d602081101561035957600080fd5b5051905090565b600160a060020a03811615156103c0576040805160e560020a62461bcd02815260206004820152601d60248201527f4552524f523a3a554e4b4e4f574e5f494d504c454d454e544154494f4e000000604482015290519081900360640190fd5b60606000368080601f016020809104026020016040519081016040528093929190818152602001838380828437600092018290525084519495509384935091505060208401855af43d604051816000823e82801561041c578282f35b8282fd5b600061042a6102aa565b604080517f17ac890200000000000000000000000000000000000000000000000000000000815260048101869052336024820152604481018590529051600160a060020a0392909216916317ac8902916064808201926020929091908290030181600087803b15801561049c57600080fd5b505af11580156104b0573d6000803e3d6000fd5b505050506040513d60208110156104c657600080fd5b50519392505050565b6104f87f44414f00000000000000000000000000000000000000000000000000000000006105b9565b600160a060020a03163314610557576040805160e560020a62461bcd02815260206004820152601660248201527f4552524f523a3a4e4f545f44414f5f5345525649434500000000000000000000604482015290519081900360640190fd5b6000805473ffffffffffffffffffffffffffffffffffffffff1916600160a060020a0392909216919091179055565b600054600160a060020a031681565b7f50726f647563745365727669636500000000000000000000000000000000000081565b60008054604080517fda47d856000000000000000000000000000000000000000000000000000000008152600481018590529051600160a060020a039092169163da47d85691602480820192602092909190829003018186803b15801561061f57600080fd5b505afa158015610633573d6000803e3d6000fd5b505050506040513d602081101561064957600080fd5b505192915050565b60008054604080517fe16c7d98000000000000000000000000000000000000000000000000000000008152600481018590529051600160a060020a039092169163e16c7d9891602480820192602092909190829003018186803b15801561061f57600080fdfea165627a7a72305820d75d0093d146fd4bdab18dd8efbe6b81cc461fd9b64eb24a8e1fdf5d896dc2280029",
  "source": "pragma solidity 0.5.2;\n\nimport \"../shared/WithRegistry.sol\";\nimport \"../shared/Delegator.sol\";\nimport \"../modules/license/ILicenseController.sol\";\n\ncontract ProductService is WithRegistry, Delegator {\n    bytes32 public constant NAME = \"ProductService\";\n\n    constructor(address _registry) public WithRegistry(_registry) {}\n\n    function() external {\n        (bool authorized, address policyFlow) = license().authorize(msg.sender);\n\n        require(authorized == true, \"ERROR::NOT_AUTHORIZED\");\n        require(policyFlow != address(0), \"ERROR::POLICY_FLOW_NOT_RESOLVED\");\n\n        _delegate(policyFlow);\n    }\n\n    function register(bytes32 _name, bytes32 _policyFlow)\n        external\n        returns (uint256 _registrationId)\n    {\n        _registrationId = license().register(_name, msg.sender, _policyFlow);\n    }\n\n    function license() internal view returns (ILicenseController) {\n        return ILicenseController(registry.getContract(\"License\"));\n    }\n}\n",
  "sourcePath": "/Users/ka/Projects/Altoros/Etherisc/dip-platform/core/gif-contracts/contracts/services/ProductService.sol",
  "compiler": {
    "name": "solc",
    "version": "0.5.2+commit.1df8f40c.Emscripten.clang"
  },
  "schemaVersion": "3.0.2",
  "updatedAt": "2019-02-27T13:51:49.154Z",
  "devdoc": {
    "methods": {}
  },
  "userdoc": {
    "methods": {}
  }
}