{
  "contractName": "Query",
  "abi": [
    {
      "constant": true,
      "inputs": [
        {
          "name": "",
          "type": "uint256"
        },
        {
          "name": "",
          "type": "uint256"
        }
      ],
      "name": "assignedOracleTypes",
      "outputs": [
        {
          "name": "",
          "type": "bytes32"
        }
      ],
      "payable": false,
      "stateMutability": "view",
      "type": "function",
      "signature": "0x01146351"
    },
    {
      "constant": false,
      "inputs": [
        {
          "name": "_registry",
          "type": "address"
        }
      ],
      "name": "assignRegistry",
      "outputs": [],
      "payable": false,
      "stateMutability": "nonpayable",
      "type": "function",
      "signature": "0x51b68ee4"
    },
    {
      "constant": true,
      "inputs": [
        {
          "name": "",
          "type": "uint256"
        }
      ],
      "name": "oracles",
      "outputs": [
        {
          "name": "oracleOwner",
          "type": "address"
        },
        {
          "name": "oracleContract",
          "type": "address"
        },
        {
          "name": "description",
          "type": "string"
        },
        {
          "name": "state",
          "type": "uint8"
        }
      ],
      "payable": false,
      "stateMutability": "view",
      "type": "function",
      "signature": "0x5b69a7d8"
    },
    {
      "constant": true,
      "inputs": [
        {
          "name": "",
          "type": "uint256"
        }
      ],
      "name": "oracleRequests",
      "outputs": [
        {
          "name": "data",
          "type": "bytes"
        },
        {
          "name": "callbackMethodName",
          "type": "string"
        },
        {
          "name": "callbackContractAddress",
          "type": "address"
        },
        {
          "name": "oracleTypeName",
          "type": "bytes32"
        },
        {
          "name": "responsibleOracleId",
          "type": "uint256"
        },
        {
          "name": "createdAt",
          "type": "uint256"
        }
      ],
      "payable": false,
      "stateMutability": "view",
      "type": "function",
      "signature": "0x5f5369e6"
    },
    {
      "constant": true,
      "inputs": [],
      "name": "registry",
      "outputs": [
        {
          "name": "",
          "type": "address"
        }
      ],
      "payable": false,
      "stateMutability": "view",
      "type": "function",
      "signature": "0x7b103999"
    },
    {
      "constant": true,
      "inputs": [
        {
          "name": "",
          "type": "bytes32"
        },
        {
          "name": "",
          "type": "uint256"
        }
      ],
      "name": "proposedOracleIds",
      "outputs": [
        {
          "name": "",
          "type": "uint256"
        }
      ],
      "payable": false,
      "stateMutability": "view",
      "type": "function",
      "signature": "0x82df834d"
    },
    {
      "constant": true,
      "inputs": [],
      "name": "oracleIdIncrement",
      "outputs": [
        {
          "name": "",
          "type": "uint256"
        }
      ],
      "payable": false,
      "stateMutability": "view",
      "type": "function",
      "signature": "0xa0eae17b"
    },
    {
      "constant": true,
      "inputs": [],
      "name": "NAME",
      "outputs": [
        {
          "name": "",
          "type": "bytes32"
        }
      ],
      "payable": false,
      "stateMutability": "view",
      "type": "function",
      "signature": "0xa3f4df7e"
    },
    {
      "constant": true,
      "inputs": [
        {
          "name": "",
          "type": "bytes32"
        }
      ],
      "name": "oracleTypes",
      "outputs": [
        {
          "name": "inputFormat",
          "type": "string"
        },
        {
          "name": "callbackFormat",
          "type": "string"
        },
        {
          "name": "description",
          "type": "string"
        },
        {
          "name": "state",
          "type": "uint8"
        },
        {
          "name": "initialized",
          "type": "bool"
        }
      ],
      "payable": false,
      "stateMutability": "view",
      "type": "function",
      "signature": "0xac867b3c"
    },
    {
      "constant": true,
      "inputs": [
        {
          "name": "_contractName",
          "type": "bytes32"
        }
      ],
      "name": "getService",
      "outputs": [
        {
          "name": "_addr",
          "type": "address"
        }
      ],
      "payable": false,
      "stateMutability": "view",
      "type": "function",
      "signature": "0xda47d856"
    },
    {
      "constant": true,
      "inputs": [
        {
          "name": "",
          "type": "bytes32"
        },
        {
          "name": "",
          "type": "uint256"
        }
      ],
      "name": "assignedOracles",
      "outputs": [
        {
          "name": "",
          "type": "bool"
        }
      ],
      "payable": false,
      "stateMutability": "view",
      "type": "function",
      "signature": "0xdf5fd4ac"
    },
    {
      "constant": true,
      "inputs": [
        {
          "name": "",
          "type": "bytes32"
        },
        {
          "name": "",
          "type": "uint256"
        }
      ],
      "name": "assignedOraclesIds",
      "outputs": [
        {
          "name": "",
          "type": "uint256"
        }
      ],
      "payable": false,
      "stateMutability": "view",
      "type": "function",
      "signature": "0xe12f32e6"
    },
    {
      "constant": true,
      "inputs": [
        {
          "name": "_contractName",
          "type": "bytes32"
        }
      ],
      "name": "getContract",
      "outputs": [
        {
          "name": "_addr",
          "type": "address"
        }
      ],
      "payable": false,
      "stateMutability": "view",
      "type": "function",
      "signature": "0xe16c7d98"
    },
    {
      "constant": true,
      "inputs": [
        {
          "name": "",
          "type": "address"
        }
      ],
      "name": "oracleIdByAddress",
      "outputs": [
        {
          "name": "",
          "type": "uint256"
        }
      ],
      "payable": false,
      "stateMutability": "view",
      "type": "function",
      "signature": "0xe2797606"
    },
    {
      "constant": true,
      "inputs": [
        {
          "name": "",
          "type": "uint256"
        }
      ],
      "name": "oracleResponses",
      "outputs": [
        {
          "name": "requestId",
          "type": "uint256"
        },
        {
          "name": "responder",
          "type": "address"
        },
        {
          "name": "createdAt",
          "type": "uint256"
        },
        {
          "name": "status",
          "type": "bool"
        }
      ],
      "payable": false,
      "stateMutability": "view",
      "type": "function",
      "signature": "0xe46d2250"
    },
    {
      "constant": false,
      "inputs": [
        {
          "name": "_controller",
          "type": "address"
        }
      ],
      "name": "assignController",
      "outputs": [],
      "payable": false,
      "stateMutability": "nonpayable",
      "type": "function",
      "signature": "0xec1bc1ac"
    },
    {
      "constant": true,
      "inputs": [],
      "name": "controller",
      "outputs": [
        {
          "name": "",
          "type": "address"
        }
      ],
      "payable": false,
      "stateMutability": "view",
      "type": "function",
      "signature": "0xf77c4791"
    },
    {
      "inputs": [
        {
          "name": "_registry",
          "type": "address"
        }
      ],
      "payable": false,
      "stateMutability": "nonpayable",
      "type": "constructor",
      "signature": "constructor"
    },
    {
      "payable": false,
      "stateMutability": "nonpayable",
      "type": "fallback"
    },
    {
      "anonymous": false,
      "inputs": [
        {
          "indexed": false,
          "name": "oracleTypeName",
          "type": "bytes32"
        },
        {
          "indexed": false,
          "name": "inputFormat",
          "type": "string"
        },
        {
          "indexed": false,
          "name": "callbackFormat",
          "type": "string"
        },
        {
          "indexed": false,
          "name": "description",
          "type": "string"
        }
      ],
      "name": "LogOracleTypeProposed",
      "type": "event",
      "signature": "0xf8f6a590e9dbba446d8a0df812c416b6ee2ae769a44d6ca77b6e0f1874392da3"
    },
    {
      "anonymous": false,
      "inputs": [
        {
          "indexed": false,
          "name": "oracleTypeName",
          "type": "bytes32"
        }
      ],
      "name": "LogOracleTypeActivated",
      "type": "event",
      "signature": "0x5ebe72de9c701722bbf81673ee9151676f1f0dca63bc59277f8552b2e7e94754"
    },
    {
      "anonymous": false,
      "inputs": [
        {
          "indexed": false,
          "name": "oracleTypeName",
          "type": "bytes32"
        }
      ],
      "name": "LogOracleTypeDeactivated",
      "type": "event",
      "signature": "0x382a65e68aad7f96cc3ccc10be93d92e5365de2424d3ee6ea4145e30b2e4d3d2"
    },
    {
      "anonymous": false,
      "inputs": [
        {
          "indexed": false,
          "name": "oracleTypeName",
          "type": "bytes32"
        }
      ],
      "name": "LogOracleTypeRemoved",
      "type": "event",
      "signature": "0x57a6ff63d4d6cb402a72f21517371a62f8f2870d525cf45508b63f6d268b2523"
    },
    {
      "anonymous": false,
      "inputs": [
        {
          "indexed": false,
          "name": "oracleContract",
          "type": "address"
        },
        {
          "indexed": false,
          "name": "description",
          "type": "string"
        }
      ],
      "name": "LogOracleProposed",
      "type": "event",
      "signature": "0xf01fac3e5259db92d8581b7be73ba122e7703bd52b2e314ac5b0723736ca0813"
    },
    {
      "anonymous": false,
      "inputs": [
        {
          "indexed": false,
          "name": "oracleId",
          "type": "uint256"
        },
        {
          "indexed": false,
          "name": "prevContract",
          "type": "address"
        },
        {
          "indexed": false,
          "name": "nextContract",
          "type": "address"
        }
      ],
      "name": "LogOracleContractUpdated",
      "type": "event",
      "signature": "0x2107244ad02f5e32f335e2ef35e54ff4b74a372d21d74c8c325ab0ed0e66d71b"
    },
    {
      "anonymous": false,
      "inputs": [
        {
          "indexed": false,
          "name": "oracleId",
          "type": "uint256"
        }
      ],
      "name": "LogOracleActivated",
      "type": "event",
      "signature": "0x54186fbf3d247a05d38a902303d64c1853e6f78ff005c85193eac4afca515db9"
    },
    {
      "anonymous": false,
      "inputs": [
        {
          "indexed": false,
          "name": "oracleId",
          "type": "uint256"
        }
      ],
      "name": "LogOracleDeactivated",
      "type": "event",
      "signature": "0x996c039bedf701514c424e0f61f6b851d9e2bbdd6c8b5f02b033dab30fcbb10f"
    },
    {
      "anonymous": false,
      "inputs": [
        {
          "indexed": false,
          "name": "oracleId",
          "type": "uint256"
        }
      ],
      "name": "LogOracleRemoved",
      "type": "event",
      "signature": "0x196c1adc3f9dd78b95b0f6359e17c4f459c527c2cac013248f6e50bd95f8ba75"
    },
    {
      "anonymous": false,
      "inputs": [
        {
          "indexed": false,
          "name": "oracleTypeName",
          "type": "bytes32"
        },
        {
          "indexed": false,
          "name": "oracleId",
          "type": "uint256"
        },
        {
          "indexed": false,
          "name": "proposalId",
          "type": "uint256"
        }
      ],
      "name": "LogOracleProposedToType",
      "type": "event",
      "signature": "0x4fba195ba876fa0be998a04b8f31ee930a7ae32a9b12ebfaac7bdd0e4d409df6"
    },
    {
      "anonymous": false,
      "inputs": [
        {
          "indexed": false,
          "name": "oracleId",
          "type": "uint256"
        },
        {
          "indexed": false,
          "name": "oracleTypeId",
          "type": "uint256"
        },
        {
          "indexed": false,
          "name": "price",
          "type": "uint256"
        }
      ],
      "name": "LogOraclePriceUpdatedInType",
      "type": "event",
      "signature": "0xc2ca8a47e137573b9c0833d7d18170d741f9c6325983664e48568f8c9e1897dd"
    },
    {
      "anonymous": false,
      "inputs": [
        {
          "indexed": false,
          "name": "oracleTypeName",
          "type": "bytes32"
        },
        {
          "indexed": false,
          "name": "oracleId",
          "type": "uint256"
        },
        {
          "indexed": false,
          "name": "proposalId",
          "type": "uint256"
        }
      ],
      "name": "LogOracleToTypeProposalRevoked",
      "type": "event",
      "signature": "0xdf9b1ac211f181b009e69a6ec4afd4d0df12e560c8bada7f095560a14d754495"
    },
    {
      "anonymous": false,
      "inputs": [
        {
          "indexed": false,
          "name": "oracleTypeName",
          "type": "bytes32"
        },
        {
          "indexed": false,
          "name": "oracleId",
          "type": "uint256"
        }
      ],
      "name": "LogOracleAssignedToOracleType",
      "type": "event",
      "signature": "0xf863b7442748e5fbb6bea1e42409c5136386fcf03e16baa87f23dbdc8bd96b15"
    },
    {
      "anonymous": false,
      "inputs": [
        {
          "indexed": false,
          "name": "oracleTypeName",
          "type": "bytes32"
        },
        {
          "indexed": false,
          "name": "oracleId",
          "type": "uint256"
        }
      ],
      "name": "LogOracleRemovedFromOracleType",
      "type": "event",
      "signature": "0xecea252b7705bf41fe7d3f297197525dc46c6d21738ea4ca4fcb1e806a13013f"
    },
    {
      "anonymous": false,
      "inputs": [
        {
          "indexed": false,
          "name": "requestId",
          "type": "uint256"
        },
        {
          "indexed": false,
          "name": "responsibleOracleId",
          "type": "uint256"
        }
      ],
      "name": "LogOracleRequested",
      "type": "event",
      "signature": "0x7d3e222ad278ef9ddbad6b11ef360423a9775011c7e0547e2b77a4dd7cbd692e"
    },
    {
      "anonymous": false,
      "inputs": [
        {
          "indexed": false,
          "name": "requestId",
          "type": "uint256"
        },
        {
          "indexed": false,
          "name": "responseId",
          "type": "uint256"
        },
        {
          "indexed": false,
          "name": "responder",
          "type": "address"
        },
        {
          "indexed": false,
          "name": "status",
          "type": "bool"
        }
      ],
      "name": "LogOracleResponded",
      "type": "event",
      "signature": "0x304a2e4f4608767be519c154b9dd5f3f67443f27721be49fe2f62fc6b405c087"
    }
  ],
  "bytecode": "0x608060405234801561001057600080fd5b50604051602080610f918339810180604052602081101561003057600080fd5b5051600a8054600160a060020a031916600160a060020a03909216919091179055610f31806100606000396000f3fe608060405234801561001057600080fd5b5060043610610128576000357c010000000000000000000000000000000000000000000000000000000090048063ac867b3c116100bf578063e16c7d981161008e578063e16c7d9814610593578063e2797606146105b0578063e46d2250146105d6578063ec1bc1ac14610623578063f77c47911461064957610128565b8063ac867b3c146103dd578063da47d8561461051c578063df5fd4ac14610539578063e12f32e61461057057610128565b80637b103999116100fb5780637b1039991461038657806382df834d146103aa578063a0eae17b146103cd578063a3f4df7e146103d557610128565b8063011463511461013f57806351b68ee4146101745780635b69a7d81461019a5780635f5369e61461025d575b600b5461013d90600160a060020a0316610651565b005b6101626004803603604081101561015557600080fd5b5080359060200135610728565b60408051918252519081900360200190f35b61013d6004803603602081101561018a57600080fd5b5035600160a060020a0316610758565b6101b7600480360360208110156101b057600080fd5b5035610826565b60408051600160a060020a03808716825285166020820152908101606082018360018111156101e257fe5b60ff168152602001828103825284818151815260200191508051906020019080838360005b8381101561021f578181015183820152602001610207565b50505050905090810190601f16801561024c5780820380516001836020036101000a031916815260200191505b509550505050505060405180910390f35b61027a6004803603602081101561027357600080fd5b50356108e9565b60405180806020018060200187600160a060020a0316600160a060020a03168152602001868152602001858152602001848152602001838103835289818151815260200191508051906020019080838360005b838110156102e55781810151838201526020016102cd565b50505050905090810190601f1680156103125780820380516001836020036101000a031916815260200191505b5083810382528851815288516020918201918a019080838360005b8381101561034557818101518382015260200161032d565b50505050905090810190601f1680156103725780820380516001836020036101000a031916815260200191505b509850505050505050505060405180910390f35b61038e610a5b565b60408051600160a060020a039092168252519081900360200190f35b610162600480360360408110156103c057600080fd5b5080359060200135610a6a565b610162610a85565b610162610a8b565b6103fa600480360360208110156103f357600080fd5b5035610aaf565b6040518080602001806020018060200186600181111561041657fe5b60ff16815260200185151515158152602001848103845289818151815260200191508051906020019080838360005b8381101561045d578181015183820152602001610445565b50505050905090810190601f16801561048a5780820380516001836020036101000a031916815260200191505b5084810383528851815288516020918201918a019080838360005b838110156104bd5781810151838201526020016104a5565b50505050905090810190601f1680156104ea5780820380516001836020036101000a031916815260200191505b50848103825287518152875160209182019189019080838360008381101561034557818101518382015260200161032d565b61038e6004803603602081101561053257600080fd5b5035610c8f565b61055c6004803603604081101561054f57600080fd5b5080359060200135610d26565b604080519115158252519081900360200190f35b6101626004803603604081101561058657600080fd5b5080359060200135610d46565b61038e600480360360208110156105a957600080fd5b5035610d61565b610162600480360360208110156105c657600080fd5b5035600160a060020a0316610dc6565b6105f3600480360360208110156105ec57600080fd5b5035610dd8565b60408051948552600160a060020a0390931660208501528383019190915215156060830152519081900360800190f35b61013d6004803603602081101561063957600080fd5b5035600160a060020a0316610e1c565b61038e610ec7565b600160a060020a03811615156106c857604080517f08c379a000000000000000000000000000000000000000000000000000000000815260206004820152601d60248201527f4552524f523a3a554e4b4e4f574e5f494d504c454d454e544154494f4e000000604482015290519081900360640190fd5b60606000368080601f016020809104026020016040519081016040528093929190818152602001838380828437600092018290525084519495509384935091505060208401855af43d604051816000823e828015610724578282f35b8282fd5b60066020528160005260406000208181548110151561074357fe5b90600052602060002001600091509150505481565b6107817f44414f0000000000000000000000000000000000000000000000000000000000610c8f565b600160a060020a031633146107f757604080517f08c379a000000000000000000000000000000000000000000000000000000000815260206004820152601660248201527f4552524f523a3a4e4f545f44414f5f5345525649434500000000000000000000604482015290519081900360640190fd5b600a805473ffffffffffffffffffffffffffffffffffffffff1916600160a060020a0392909216919091179055565b60046020908152600091825260409182902080546001808301546002808501805488516101009582161595909502600019011691909104601f8101879004870284018701909752868352600160a060020a03938416969390911694919290918301828280156108d65780601f106108ab576101008083540402835291602001916108d6565b820191906000526020600020905b8154815290600101906020018083116108b957829003601f168201915b5050506003909301549192505060ff1684565b60088054829081106108f757fe5b60009182526020918290206006919091020180546040805160026001841615610100026000190190931692909204601f8101859004850283018501909152808252919350918391908301828280156109905780601f1061096557610100808354040283529160200191610990565b820191906000526020600020905b81548152906001019060200180831161097357829003601f168201915b505050505090806001018054600181600116156101000203166002900480601f016020809104026020016040519081016040528092919081815260200182805460018160011615610100020316600290048015610a2e5780601f10610a0357610100808354040283529160200191610a2e565b820191906000526020600020905b815481529060010190602001808311610a1157829003601f168201915b505050506002830154600384015460048501546005909501549394600160a060020a039092169390925086565b600a54600160a060020a031681565b60036020528160005260406000208181548110151561074357fe5b60075481565b7f517565727900000000000000000000000000000000000000000000000000000081565b6000602081815291815260409081902080548251601f600260001961010060018616150201909316929092049182018590048502810185019093528083529092839190830182828015610b435780601f10610b1857610100808354040283529160200191610b43565b820191906000526020600020905b815481529060010190602001808311610b2657829003601f168201915b505050505090806001018054600181600116156101000203166002900480601f016020809104026020016040519081016040528092919081815260200182805460018160011615610100020316600290048015610be15780601f10610bb657610100808354040283529160200191610be1565b820191906000526020600020905b815481529060010190602001808311610bc457829003601f168201915b50505060028085018054604080516020601f6000196101006001871615020190941695909504928301859004850281018501909152818152959695945090925090830182828015610c735780601f10610c4857610100808354040283529160200191610c73565b820191906000526020600020905b815481529060010190602001808311610c5657829003601f168201915b5050506003909301549192505060ff8082169161010090041685565b600a54604080517fda47d856000000000000000000000000000000000000000000000000000000008152600481018490529051600092600160a060020a03169163da47d856916024808301926020929190829003018186803b158015610cf457600080fd5b505afa158015610d08573d6000803e3d6000fd5b505050506040513d6020811015610d1e57600080fd5b505192915050565b600160209081526000928352604080842090915290825290205460ff1681565b60026020528160005260406000208181548110151561074357fe5b600a54604080517fe16c7d98000000000000000000000000000000000000000000000000000000008152600481018490529051600092600160a060020a03169163e16c7d98916024808301926020929190829003018186803b158015610cf457600080fd5b60056020526000908152604090205481565b6009805482908110610de657fe5b60009182526020909120600490910201805460018201546002830154600390930154919350600160a060020a0316919060ff1684565b610e457f44414f0000000000000000000000000000000000000000000000000000000000610c8f565b600160a060020a03163314610ebb57604080517f08c379a000000000000000000000000000000000000000000000000000000000815260206004820152601660248201527f4552524f523a3a4e4f545f44414f5f5345525649434500000000000000000000604482015290519081900360640190fd5b610ec481610ed6565b50565b600b54600160a060020a031681565b600b805473ffffffffffffffffffffffffffffffffffffffff1916600160a060020a039290921691909117905556fea165627a7a723058209bb9e097d1778e984b3230f336f8774dd9517f10ffb1294121a17b68fc7103ec0029",
  "source": "pragma solidity 0.5.2;\n\nimport \"./QueryStorageModel.sol\";\nimport \"../../shared/ModuleStorage.sol\";\n\ncontract Query is QueryStorageModel, ModuleStorage {\n    bytes32 public constant NAME = \"Query\";\n\n    constructor(address _registry) public WithRegistry(_registry) {}\n}\n",
  "sourcePath": "/Users/ka/Projects/Altoros/Etherisc/dip-platform/core/gif-contracts/contracts/modules/query/Query.sol",
  "compiler": {
    "name": "solc",
    "version": "0.5.2+commit.1df8f40c.Emscripten.clang"
  },
  "schemaVersion": "3.0.2",
  "updatedAt": "2019-02-25T09:04:22.241Z",
  "devdoc": {
    "methods": {}
  },
  "userdoc": {
    "methods": {}
  }
}