{
  "contractName": "QueryController",
  "abi": [
    {
      "constant": true,
      "inputs": [
        {
          "name": "",
          "type": "uint256"
        },
        {
          "name": "",
          "type": "uint256"
        }
      ],
      "name": "assignedOracleTypes",
      "outputs": [
        {
          "name": "",
          "type": "bytes32"
        }
      ],
      "payable": false,
      "stateMutability": "view",
      "type": "function",
      "signature": "0x01146351"
    },
    {
      "constant": false,
      "inputs": [
        {
          "name": "_registry",
          "type": "address"
        }
      ],
      "name": "assignRegistry",
      "outputs": [],
      "payable": false,
      "stateMutability": "nonpayable",
      "type": "function",
      "signature": "0x51b68ee4"
    },
    {
      "constant": true,
      "inputs": [
        {
          "name": "",
          "type": "uint256"
        }
      ],
      "name": "oracles",
      "outputs": [
        {
          "name": "oracleOwner",
          "type": "address"
        },
        {
          "name": "oracleContract",
          "type": "address"
        },
        {
          "name": "description",
          "type": "string"
        },
        {
          "name": "state",
          "type": "uint8"
        }
      ],
      "payable": false,
      "stateMutability": "view",
      "type": "function",
      "signature": "0x5b69a7d8"
    },
    {
      "constant": true,
      "inputs": [
        {
          "name": "",
          "type": "uint256"
        }
      ],
      "name": "oracleRequests",
      "outputs": [
        {
          "name": "data",
          "type": "bytes"
        },
        {
          "name": "callbackMethodName",
          "type": "string"
        },
        {
          "name": "callbackContractAddress",
          "type": "address"
        },
        {
          "name": "oracleTypeName",
          "type": "bytes32"
        },
        {
          "name": "responsibleOracleId",
          "type": "uint256"
        },
        {
          "name": "createdAt",
          "type": "uint256"
        }
      ],
      "payable": false,
      "stateMutability": "view",
      "type": "function",
      "signature": "0x5f5369e6"
    },
    {
      "constant": true,
      "inputs": [],
      "name": "registry",
      "outputs": [
        {
          "name": "",
          "type": "address"
        }
      ],
      "payable": false,
      "stateMutability": "view",
      "type": "function",
      "signature": "0x7b103999"
    },
    {
      "constant": true,
      "inputs": [
        {
          "name": "",
          "type": "bytes32"
        },
        {
          "name": "",
          "type": "uint256"
        }
      ],
      "name": "proposedOracleIds",
      "outputs": [
        {
          "name": "",
          "type": "uint256"
        }
      ],
      "payable": false,
      "stateMutability": "view",
      "type": "function",
      "signature": "0x82df834d"
    },
    {
      "constant": true,
      "inputs": [],
      "name": "oracleIdIncrement",
      "outputs": [
        {
          "name": "",
          "type": "uint256"
        }
      ],
      "payable": false,
      "stateMutability": "view",
      "type": "function",
      "signature": "0xa0eae17b"
    },
    {
      "constant": true,
      "inputs": [
        {
          "name": "",
          "type": "bytes32"
        }
      ],
      "name": "oracleTypes",
      "outputs": [
        {
          "name": "inputFormat",
          "type": "string"
        },
        {
          "name": "callbackFormat",
          "type": "string"
        },
        {
          "name": "description",
          "type": "string"
        },
        {
          "name": "state",
          "type": "uint8"
        },
        {
          "name": "initialized",
          "type": "bool"
        }
      ],
      "payable": false,
      "stateMutability": "view",
      "type": "function",
      "signature": "0xac867b3c"
    },
    {
      "constant": true,
      "inputs": [],
      "name": "delegator",
      "outputs": [
        {
          "name": "",
          "type": "address"
        }
      ],
      "payable": false,
      "stateMutability": "view",
      "type": "function",
      "signature": "0xce9b7930"
    },
    {
      "constant": true,
      "inputs": [
        {
          "name": "_contractName",
          "type": "bytes32"
        }
      ],
      "name": "getService",
      "outputs": [
        {
          "name": "_addr",
          "type": "address"
        }
      ],
      "payable": false,
      "stateMutability": "view",
      "type": "function",
      "signature": "0xda47d856"
    },
    {
      "constant": true,
      "inputs": [
        {
          "name": "",
          "type": "bytes32"
        },
        {
          "name": "",
          "type": "uint256"
        }
      ],
      "name": "assignedOracles",
      "outputs": [
        {
          "name": "",
          "type": "bool"
        }
      ],
      "payable": false,
      "stateMutability": "view",
      "type": "function",
      "signature": "0xdf5fd4ac"
    },
    {
      "constant": true,
      "inputs": [
        {
          "name": "",
          "type": "bytes32"
        },
        {
          "name": "",
          "type": "uint256"
        }
      ],
      "name": "assignedOraclesIds",
      "outputs": [
        {
          "name": "",
          "type": "uint256"
        }
      ],
      "payable": false,
      "stateMutability": "view",
      "type": "function",
      "signature": "0xe12f32e6"
    },
    {
      "constant": true,
      "inputs": [
        {
          "name": "_contractName",
          "type": "bytes32"
        }
      ],
      "name": "getContract",
      "outputs": [
        {
          "name": "_addr",
          "type": "address"
        }
      ],
      "payable": false,
      "stateMutability": "view",
      "type": "function",
      "signature": "0xe16c7d98"
    },
    {
      "constant": true,
      "inputs": [
        {
          "name": "",
          "type": "address"
        }
      ],
      "name": "oracleIdByAddress",
      "outputs": [
        {
          "name": "",
          "type": "uint256"
        }
      ],
      "payable": false,
      "stateMutability": "view",
      "type": "function",
      "signature": "0xe2797606"
    },
    {
      "constant": true,
      "inputs": [
        {
          "name": "",
          "type": "uint256"
        }
      ],
      "name": "oracleResponses",
      "outputs": [
        {
          "name": "requestId",
          "type": "uint256"
        },
        {
          "name": "responder",
          "type": "address"
        },
        {
          "name": "createdAt",
          "type": "uint256"
        },
        {
          "name": "status",
          "type": "bool"
        }
      ],
      "payable": false,
      "stateMutability": "view",
      "type": "function",
      "signature": "0xe46d2250"
    },
    {
      "constant": false,
      "inputs": [
        {
          "name": "_storage",
          "type": "address"
        }
      ],
      "name": "assignStorage",
      "outputs": [],
      "payable": false,
      "stateMutability": "nonpayable",
      "type": "function",
      "signature": "0xe71359bf"
    },
    {
      "inputs": [
        {
          "name": "_registry",
          "type": "address"
        }
      ],
      "payable": false,
      "stateMutability": "nonpayable",
      "type": "constructor",
      "signature": "constructor"
    },
    {
      "payable": false,
      "stateMutability": "nonpayable",
      "type": "fallback"
    },
    {
      "anonymous": false,
      "inputs": [
        {
          "indexed": false,
          "name": "oracleTypeName",
          "type": "bytes32"
        },
        {
          "indexed": false,
          "name": "inputFormat",
          "type": "string"
        },
        {
          "indexed": false,
          "name": "callbackFormat",
          "type": "string"
        },
        {
          "indexed": false,
          "name": "description",
          "type": "string"
        }
      ],
      "name": "LogOracleTypeProposed",
      "type": "event",
      "signature": "0xf8f6a590e9dbba446d8a0df812c416b6ee2ae769a44d6ca77b6e0f1874392da3"
    },
    {
      "anonymous": false,
      "inputs": [
        {
          "indexed": false,
          "name": "oracleTypeName",
          "type": "bytes32"
        }
      ],
      "name": "LogOracleTypeActivated",
      "type": "event",
      "signature": "0x5ebe72de9c701722bbf81673ee9151676f1f0dca63bc59277f8552b2e7e94754"
    },
    {
      "anonymous": false,
      "inputs": [
        {
          "indexed": false,
          "name": "oracleTypeName",
          "type": "bytes32"
        }
      ],
      "name": "LogOracleTypeDeactivated",
      "type": "event",
      "signature": "0x382a65e68aad7f96cc3ccc10be93d92e5365de2424d3ee6ea4145e30b2e4d3d2"
    },
    {
      "anonymous": false,
      "inputs": [
        {
          "indexed": false,
          "name": "oracleTypeName",
          "type": "bytes32"
        }
      ],
      "name": "LogOracleTypeRemoved",
      "type": "event",
      "signature": "0x57a6ff63d4d6cb402a72f21517371a62f8f2870d525cf45508b63f6d268b2523"
    },
    {
      "anonymous": false,
      "inputs": [
        {
          "indexed": false,
          "name": "oracleContract",
          "type": "address"
        },
        {
          "indexed": false,
          "name": "description",
          "type": "string"
        }
      ],
      "name": "LogOracleProposed",
      "type": "event",
      "signature": "0xf01fac3e5259db92d8581b7be73ba122e7703bd52b2e314ac5b0723736ca0813"
    },
    {
      "anonymous": false,
      "inputs": [
        {
          "indexed": false,
          "name": "oracleId",
          "type": "uint256"
        },
        {
          "indexed": false,
          "name": "prevContract",
          "type": "address"
        },
        {
          "indexed": false,
          "name": "nextContract",
          "type": "address"
        }
      ],
      "name": "LogOracleContractUpdated",
      "type": "event",
      "signature": "0x2107244ad02f5e32f335e2ef35e54ff4b74a372d21d74c8c325ab0ed0e66d71b"
    },
    {
      "anonymous": false,
      "inputs": [
        {
          "indexed": false,
          "name": "oracleId",
          "type": "uint256"
        }
      ],
      "name": "LogOracleActivated",
      "type": "event",
      "signature": "0x54186fbf3d247a05d38a902303d64c1853e6f78ff005c85193eac4afca515db9"
    },
    {
      "anonymous": false,
      "inputs": [
        {
          "indexed": false,
          "name": "oracleId",
          "type": "uint256"
        }
      ],
      "name": "LogOracleDeactivated",
      "type": "event",
      "signature": "0x996c039bedf701514c424e0f61f6b851d9e2bbdd6c8b5f02b033dab30fcbb10f"
    },
    {
      "anonymous": false,
      "inputs": [
        {
          "indexed": false,
          "name": "oracleId",
          "type": "uint256"
        }
      ],
      "name": "LogOracleRemoved",
      "type": "event",
      "signature": "0x196c1adc3f9dd78b95b0f6359e17c4f459c527c2cac013248f6e50bd95f8ba75"
    },
    {
      "anonymous": false,
      "inputs": [
        {
          "indexed": false,
          "name": "oracleTypeName",
          "type": "bytes32"
        },
        {
          "indexed": false,
          "name": "oracleId",
          "type": "uint256"
        },
        {
          "indexed": false,
          "name": "proposalId",
          "type": "uint256"
        }
      ],
      "name": "LogOracleProposedToType",
      "type": "event",
      "signature": "0x4fba195ba876fa0be998a04b8f31ee930a7ae32a9b12ebfaac7bdd0e4d409df6"
    },
    {
      "anonymous": false,
      "inputs": [
        {
          "indexed": false,
          "name": "oracleId",
          "type": "uint256"
        },
        {
          "indexed": false,
          "name": "oracleTypeId",
          "type": "uint256"
        },
        {
          "indexed": false,
          "name": "price",
          "type": "uint256"
        }
      ],
      "name": "LogOraclePriceUpdatedInType",
      "type": "event",
      "signature": "0xc2ca8a47e137573b9c0833d7d18170d741f9c6325983664e48568f8c9e1897dd"
    },
    {
      "anonymous": false,
      "inputs": [
        {
          "indexed": false,
          "name": "oracleTypeName",
          "type": "bytes32"
        },
        {
          "indexed": false,
          "name": "oracleId",
          "type": "uint256"
        },
        {
          "indexed": false,
          "name": "proposalId",
          "type": "uint256"
        }
      ],
      "name": "LogOracleToTypeProposalRevoked",
      "type": "event",
      "signature": "0xdf9b1ac211f181b009e69a6ec4afd4d0df12e560c8bada7f095560a14d754495"
    },
    {
      "anonymous": false,
      "inputs": [
        {
          "indexed": false,
          "name": "oracleTypeName",
          "type": "bytes32"
        },
        {
          "indexed": false,
          "name": "oracleId",
          "type": "uint256"
        }
      ],
      "name": "LogOracleAssignedToOracleType",
      "type": "event",
      "signature": "0xf863b7442748e5fbb6bea1e42409c5136386fcf03e16baa87f23dbdc8bd96b15"
    },
    {
      "anonymous": false,
      "inputs": [
        {
          "indexed": false,
          "name": "oracleTypeName",
          "type": "bytes32"
        },
        {
          "indexed": false,
          "name": "oracleId",
          "type": "uint256"
        }
      ],
      "name": "LogOracleRemovedFromOracleType",
      "type": "event",
      "signature": "0xecea252b7705bf41fe7d3f297197525dc46c6d21738ea4ca4fcb1e806a13013f"
    },
    {
      "anonymous": false,
      "inputs": [
        {
          "indexed": false,
          "name": "requestId",
          "type": "uint256"
        },
        {
          "indexed": false,
          "name": "responsibleOracleId",
          "type": "uint256"
        }
      ],
      "name": "LogOracleRequested",
      "type": "event",
      "signature": "0x7d3e222ad278ef9ddbad6b11ef360423a9775011c7e0547e2b77a4dd7cbd692e"
    },
    {
      "anonymous": false,
      "inputs": [
        {
          "indexed": false,
          "name": "requestId",
          "type": "uint256"
        },
        {
          "indexed": false,
          "name": "responseId",
          "type": "uint256"
        },
        {
          "indexed": false,
          "name": "responder",
          "type": "address"
        },
        {
          "indexed": false,
          "name": "status",
          "type": "bool"
        }
      ],
      "name": "LogOracleResponded",
      "type": "event",
      "signature": "0x304a2e4f4608767be519c154b9dd5f3f67443f27721be49fe2f62fc6b405c087"
    },
    {
      "constant": false,
      "inputs": [
        {
          "name": "_oracleTypeName",
          "type": "bytes32"
        },
        {
          "name": "_inputFormat",
          "type": "string"
        },
        {
          "name": "_callbackFormat",
          "type": "string"
        },
        {
          "name": "_description",
          "type": "string"
        }
      ],
      "name": "proposeOracleType",
      "outputs": [],
      "payable": false,
      "stateMutability": "nonpayable",
      "type": "function",
      "signature": "0x26b85393"
    },
    {
      "constant": false,
      "inputs": [
        {
          "name": "_oracleTypeName",
          "type": "bytes32"
        }
      ],
      "name": "activateOracleType",
      "outputs": [],
      "payable": false,
      "stateMutability": "nonpayable",
      "type": "function",
      "signature": "0x4df83672"
    },
    {
      "constant": false,
      "inputs": [
        {
          "name": "_oracleTypeName",
          "type": "bytes32"
        }
      ],
      "name": "deactivateOracleType",
      "outputs": [],
      "payable": false,
      "stateMutability": "nonpayable",
      "type": "function",
      "signature": "0xa375b93d"
    },
    {
      "constant": false,
      "inputs": [
        {
          "name": "_oracleTypeName",
          "type": "bytes32"
        }
      ],
      "name": "removeOracleType",
      "outputs": [],
      "payable": false,
      "stateMutability": "nonpayable",
      "type": "function",
      "signature": "0x4a1da439"
    },
    {
      "constant": false,
      "inputs": [
        {
          "name": "_sender",
          "type": "address"
        },
        {
          "name": "_oracleContract",
          "type": "address"
        },
        {
          "name": "_description",
          "type": "string"
        }
      ],
      "name": "proposeOracle",
      "outputs": [
        {
          "name": "_oracleId",
          "type": "uint256"
        }
      ],
      "payable": false,
      "stateMutability": "nonpayable",
      "type": "function",
      "signature": "0xd0378d69"
    },
    {
      "constant": false,
      "inputs": [
        {
          "name": "_sender",
          "type": "address"
        },
        {
          "name": "_newOracleContract",
          "type": "address"
        },
        {
          "name": "_oracleId",
          "type": "uint256"
        }
      ],
      "name": "updateOracleContract",
      "outputs": [],
      "payable": false,
      "stateMutability": "nonpayable",
      "type": "function",
      "signature": "0x2014ab7b"
    },
    {
      "constant": false,
      "inputs": [
        {
          "name": "_oracleId",
          "type": "uint256"
        }
      ],
      "name": "activateOracle",
      "outputs": [],
      "payable": false,
      "stateMutability": "nonpayable",
      "type": "function",
      "signature": "0xd114d8a1"
    },
    {
      "constant": false,
      "inputs": [
        {
          "name": "_oracleId",
          "type": "uint256"
        }
      ],
      "name": "deactivateOracle",
      "outputs": [],
      "payable": false,
      "stateMutability": "nonpayable",
      "type": "function",
      "signature": "0xe67f54f8"
    },
    {
      "constant": false,
      "inputs": [
        {
          "name": "_oracleId",
          "type": "uint256"
        }
      ],
      "name": "removeOracle",
      "outputs": [],
      "payable": false,
      "stateMutability": "nonpayable",
      "type": "function",
      "signature": "0x80935dbf"
    },
    {
      "constant": false,
      "inputs": [
        {
          "name": "_sender",
          "type": "address"
        },
        {
          "name": "_oracleTypeName",
          "type": "bytes32"
        },
        {
          "name": "_oracleId",
          "type": "uint256"
        }
      ],
      "name": "proposeOracleToType",
      "outputs": [
        {
          "name": "_proposalId",
          "type": "uint256"
        }
      ],
      "payable": false,
      "stateMutability": "nonpayable",
      "type": "function",
      "signature": "0xa82e4402"
    },
    {
      "constant": false,
      "inputs": [
        {
          "name": "_sender",
          "type": "address"
        },
        {
          "name": "_oracleTypeName",
          "type": "bytes32"
        },
        {
          "name": "_proposalId",
          "type": "uint256"
        }
      ],
      "name": "revokeOracleToTypeProposal",
      "outputs": [],
      "payable": false,
      "stateMutability": "nonpayable",
      "type": "function",
      "signature": "0x1d1da9e8"
    },
    {
      "constant": false,
      "inputs": [
        {
          "name": "_oracleTypeName",
          "type": "bytes32"
        },
        {
          "name": "_proposalId",
          "type": "uint256"
        }
      ],
      "name": "assignOracleToOracleType",
      "outputs": [],
      "payable": false,
      "stateMutability": "nonpayable",
      "type": "function",
      "signature": "0xcd748de8"
    },
    {
      "constant": false,
      "inputs": [
        {
          "name": "_oracleTypeName",
          "type": "bytes32"
        },
        {
          "name": "_oracleId",
          "type": "uint256"
        }
      ],
      "name": "removeOracleFromOracleType",
      "outputs": [],
      "payable": false,
      "stateMutability": "nonpayable",
      "type": "function",
      "signature": "0x2d0c9f08"
    },
    {
      "constant": false,
      "inputs": [
        {
          "name": "_input",
          "type": "bytes"
        },
        {
          "name": "_callbackMethodName",
          "type": "string"
        },
        {
          "name": "_callabackContractAddress",
          "type": "address"
        },
        {
          "name": "_oracleTypeName",
          "type": "bytes32"
        },
        {
          "name": "_responsibleOracleId",
          "type": "uint256"
        }
      ],
      "name": "request",
      "outputs": [
        {
          "name": "_requestId",
          "type": "uint256"
        }
      ],
      "payable": false,
      "stateMutability": "nonpayable",
      "type": "function",
      "signature": "0xd643ece8"
    },
    {
      "constant": false,
      "inputs": [
        {
          "name": "_requestId",
          "type": "uint256"
        },
        {
          "name": "_responder",
          "type": "address"
        },
        {
          "name": "_data",
          "type": "bytes"
        }
      ],
      "name": "respond",
      "outputs": [
        {
          "name": "_responseId",
          "type": "uint256"
        }
      ],
      "payable": false,
      "stateMutability": "nonpayable",
      "type": "function",
      "signature": "0x9af8c4ba"
    }
  ],
  "bytecode": "0x608060405234801561001057600080fd5b5060405160208061378b8339810180604052602081101561003057600080fd5b5051600a8054600160a060020a031916600160a060020a0390921691909117905561372b806100606000396000f3fe608060405234801561001057600080fd5b5060043610610202576000357c010000000000000000000000000000000000000000000000000000000090048063a375b93d1161012c578063da47d856116100bf578063e27976061161008e578063e279760614610b20578063e46d225014610b46578063e67f54f814610b93578063e71359bf14610bb057610202565b8063da47d85614610a8c578063df5fd4ac14610aa9578063e12f32e614610ae0578063e16c7d9814610b0357610202565b8063ce9b7930116100fb578063ce9b793014610907578063d0378d691461090f578063d114d8a114610998578063d643ece8146109b557610202565b8063a375b93d14610756578063a82e440214610773578063ac867b3c146107a5578063cd748de8146108e457610202565b806351b68ee4116101a457806380935dbf1161017357806380935dbf1461068957806382df834d146106a65780639af8c4ba146106c9578063a0eae17b1461074e57610202565b806351b68ee4146104535780635b69a7d8146104795780635f5369e61461053c5780637b1039991461066557610202565b806326b85393116101e057806326b85393146102db5780632d0c9f08146103f65780634a1da439146104195780634df836721461043657610202565b8063011463511461023c5780631d1da9e8146102715780632014ab7b146102a5575b60405160e560020a62461bcd0281526004018080602001828103825260248152602001806136096024913960400191505060405180910390fd5b61025f6004803603604081101561025257600080fd5b5080359060200135610bd6565b60408051918252519081900360200190f35b6102a36004803603606081101561028757600080fd5b50600160a060020a038135169060208101359060400135610c06565b005b6102a3600480360360608110156102bb57600080fd5b50600160a060020a03813581169160208101359091169060400135610df7565b6102a3600480360360808110156102f157600080fd5b8135919081019060408101602082013564010000000081111561031357600080fd5b82018360208201111561032557600080fd5b8035906020019184600183028401116401000000008311171561034757600080fd5b91939092909160208101903564010000000081111561036557600080fd5b82018360208201111561037757600080fd5b8035906020019184600183028401116401000000008311171561039957600080fd5b9193909290916020810190356401000000008111156103b757600080fd5b8201836020820111156103c957600080fd5b803590602001918460018302840111640100000000831117156103eb57600080fd5b509092509050610fb9565b6102a36004803603604081101561040c57600080fd5b508035906020013561129c565b6102a36004803603602081101561042f57600080fd5b50356113ce565b6102a36004803603602081101561044c57600080fd5b50356115c8565b6102a36004803603602081101561046957600080fd5b5035600160a060020a031661174f565b6104966004803603602081101561048f57600080fd5b50356117d0565b60408051600160a060020a03808716825285166020820152908101606082018360018111156104c157fe5b60ff168152602001828103825284818151815260200191508051906020019080838360005b838110156104fe5781810151838201526020016104e6565b50505050905090810190601f16801561052b5780820380516001836020036101000a031916815260200191505b509550505050505060405180910390f35b6105596004803603602081101561055257600080fd5b5035611893565b60405180806020018060200187600160a060020a0316600160a060020a03168152602001868152602001858152602001848152602001838103835289818151815260200191508051906020019080838360005b838110156105c45781810151838201526020016105ac565b50505050905090810190601f1680156105f15780820380516001836020036101000a031916815260200191505b5083810382528851815288516020918201918a019080838360005b8381101561062457818101518382015260200161060c565b50505050905090810190601f1680156106515780820380516001836020036101000a031916815260200191505b509850505050505050505060405180910390f35b61066d611a05565b60408051600160a060020a039092168252519081900360200190f35b6102a36004803603602081101561069f57600080fd5b5035611a14565b61025f600480360360408110156106bc57600080fd5b5080359060200135611c48565b61025f600480360360608110156106df57600080fd5b813591600160a060020a036020820135169181019060608101604082013564010000000081111561070f57600080fd5b82018360208201111561072157600080fd5b8035906020019184600183028401116401000000008311171561074357600080fd5b509092509050611c63565b61025f612061565b6102a36004803603602081101561076c57600080fd5b5035612067565b61025f6004803603606081101561078957600080fd5b50600160a060020a038135169060208101359060400135612238565b6107c2600480360360208110156107bb57600080fd5b50356124c2565b604051808060200180602001806020018660018111156107de57fe5b60ff16815260200185151515158152602001848103845289818151815260200191508051906020019080838360005b8381101561082557818101518382015260200161080d565b50505050905090810190601f1680156108525780820380516001836020036101000a031916815260200191505b5084810383528851815288516020918201918a019080838360005b8381101561088557818101518382015260200161086d565b50505050905090810190601f1680156108b25780820380516001836020036101000a031916815260200191505b50848103825287518152875160209182019189019080838360008381101561062457818101518382015260200161060c565b6102a3600480360360408110156108fa57600080fd5b50803590602001356126a2565b61066d6128db565b61025f6004803603606081101561092557600080fd5b600160a060020a03823581169260208101359091169181019060608101604082013564010000000081111561095957600080fd5b82018360208201111561096b57600080fd5b8035906020019184600183028401116401000000008311171561098d57600080fd5b5090925090506128ea565b6102a3600480360360208110156109ae57600080fd5b5035612b32565b61025f600480360360a08110156109cb57600080fd5b8101906020810181356401000000008111156109e657600080fd5b8201836020820111156109f857600080fd5b80359060200191846001830284011164010000000083111715610a1a57600080fd5b919390929091602081019035640100000000811115610a3857600080fd5b820183602082011115610a4a57600080fd5b80359060200191846001830284011164010000000083111715610a6c57600080fd5b9193509150600160a060020a038135169060208101359060400135612cbc565b61066d60048036036020811015610aa257600080fd5b5035612f57565b610acc60048036036040811015610abf57600080fd5b5080359060200135612fee565b604080519115158252519081900360200190f35b61025f60048036036040811015610af657600080fd5b508035906020013561300e565b61066d60048036036020811015610b1957600080fd5b5035613029565b61025f60048036036020811015610b3657600080fd5b5035600160a060020a031661308e565b610b6360048036036020811015610b5c57600080fd5b50356130a0565b60408051948552600160a060020a0390931660208501528383019190915215156060830152519081900360800190f35b6102a360048036036020811015610ba957600080fd5b50356130e4565b6102a360048036036020811015610bc657600080fd5b5035600160a060020a03166132b9565b600660205281600052604060002081815481101515610bf157fe5b90600052602060002001600091509150505481565b610c1d6000805160206135c9833981519152612f57565b600160a060020a03163314610c6a576040805160e560020a62461bcd02815260206004820152601760248201526000805160206136e0833981519152604482015290519081900360640190fd5b6000828152600360205260408120805483908110610c8457fe5b60009182526020808320909101548083526004909152604090912054909150600160a060020a0390811690851614610cf4576040805160e560020a62461bcd02815260206004820152601760248201526000805160206136e0833981519152604482015290519081900360640190fd5b600081815260046020526040902060010154600160a060020a03161515610d53576040805160e560020a62461bcd02815260206004820152601860248201526000805160206135e9833981519152604482015290519081900360640190fd5b60008381526020819052604090206003015460ff610100909104161515600114610db15760405160e560020a62461bcd0281526004018080602001828103825260228152602001806136be6022913960400191505060405180910390fd5b604080518481526020810183905280820184905290517fdf9b1ac211f181b009e69a6ec4afd4d0df12e560c8bada7f095560a14d7544959181900360600190a150505050565b610e0e6000805160206135c9833981519152612f57565b600160a060020a03163314610e5b576040805160e560020a62461bcd02815260206004820152601760248201526000805160206136e0833981519152604482015290519081900360640190fd5b600160a060020a03821660009081526005602052604090205415610ec9576040805160e560020a62461bcd02815260206004820152601460248201527f4552524f523a3a4f5241434c455f455849535453000000000000000000000000604482015290519081900360640190fd5b600081815260046020526040902054600160a060020a03848116911614610f28576040805160e560020a62461bcd02815260206004820152601760248201526000805160206136e0833981519152604482015290519081900360640190fd5b60008181526004602090815260408083206001018054600160a060020a03908116808652600585528386208690558254600160a060020a03191691881691821790925580855293829020859055815185815292830181905282820193909352517f2107244ad02f5e32f335e2ef35e54ff4b74a372d21d74c8c325ab0ed0e66d71b916060908290030190a150505050565b610fd06000805160206135c9833981519152612f57565b600160a060020a0316331461101d576040805160e560020a62461bcd02815260206004820152601760248201526000805160206136e0833981519152604482015290519081900360640190fd5b600087815260208190526040902060030154610100900460ff16156110765760405160e560020a62461bcd0281526004018080602001828103825260268152602001806136726026913960400191505060405180910390fd5b6040805160c06020601f8901819004028201810190925260a0810187815290918291908990899081908501838280828437600092019190915250505090825250604080516020601f880181900481028201810190925286815291810191908790879081908401838280828437600092019190915250505090825250604080516020601f8601819004810282018101909252848152918101919085908590819084018382808284376000920182905250938552505050602080830182905260016040938401528a825281815291902082518051919261115992849290910190613346565b5060208281015180516111729260018501920190613346565b506040820151805161118e916002840191602090910190613346565b50606082015160038201805460ff1916600183818111156111ab57fe5b021790555060808201518160030160016101000a81548160ff0219169083151502179055509050507ff8f6a590e9dbba446d8a0df812c416b6ee2ae769a44d6ca77b6e0f1874392da3878787878787876040518088815260200180602001806020018060200184810384528a8a82818152602001925080828437600083820152601f01601f191690910185810384528881526020019050888880828437600083820152601f01601f191690910185810383528681526020019050868680828437600083820152604051601f909101601f19169092018290039c50909a5050505050505050505050a150505050505050565b6112ae60e860020a6244414f02612f57565b600160a060020a031633146112fb576040805160e560020a62461bcd028152602060048201526016602482015260008051602061362d833981519152604482015290519081900360640190fd5b60008281526001602081815260408084208585529091529091205460ff16151514611370576040805160e560020a62461bcd02815260206004820152601a60248201527f4552524f523a3a4f5241434c455f4e4f545f41535349474e4544000000000000604482015290519081900360640190fd5b6000828152600160209081526040808320848452825291829020805460ff19169055815184815290810183905281517fecea252b7705bf41fe7d3f297197525dc46c6d21738ea4ca4fcb1e806a13013f929181900390910190a15050565b6113e060e860020a6244414f02612f57565b600160a060020a0316331461142d576040805160e560020a62461bcd028152602060048201526016602482015260008051602061362d833981519152604482015290519081900360640190fd5b60008181526020819052604090206003015460ff61010090910416151560011461148b5760405160e560020a62461bcd0281526004018080602001828103825260228152602001806136be6022913960400191505060405180910390fd5b600160008281526020819052604090206003015460ff1660018111156114ad57fe5b14611502576040805160e560020a62461bcd02815260206004820152601d60248201527f4552524f523a3a4f5241434c455f545950455f4e4f545f414354495645000000604482015290519081900360640190fd5b600081815260026020526040902054156115505760405160e560020a62461bcd02815260040180806020018281038252602581526020018061364d6025913960400191505060405180910390fd5b60008181526020819052604081209061156982826133c4565b6115776001830160006133c4565b6115856002830160006133c4565b50600301805461ffff191690556040805182815290517f382a65e68aad7f96cc3ccc10be93d92e5365de2424d3ee6ea4145e30b2e4d3d29181900360200190a150565b6115da60e860020a6244414f02612f57565b600160a060020a03163314611627576040805160e560020a62461bcd028152602060048201526016602482015260008051602061362d833981519152604482015290519081900360640190fd5b60008181526020819052604090206003015460ff6101009091041615156001146116855760405160e560020a62461bcd0281526004018080602001828103825260228152602001806136be6022913960400191505060405180910390fd5b600160008281526020819052604090206003015460ff1660018111156116a757fe5b14156116fd576040805160e560020a62461bcd02815260206004820152601960248201527f4552524f523a3a4f5241434c455f545950455f41435449564500000000000000604482015290519081900360640190fd5b60008181526020818152604091829020600301805460ff19166001179055815183815291517f5ebe72de9c701722bbf81673ee9151676f1f0dca63bc59277f8552b2e7e947549281900390910190a150565b61176160e860020a6244414f02612f57565b600160a060020a031633146117ae576040805160e560020a62461bcd028152602060048201526016602482015260008051602061362d833981519152604482015290519081900360640190fd5b600a8054600160a060020a031916600160a060020a0392909216919091179055565b60046020908152600091825260409182902080546001808301546002808501805488516101009582161595909502600019011691909104601f8101879004870284018701909752868352600160a060020a03938416969390911694919290918301828280156118805780601f1061185557610100808354040283529160200191611880565b820191906000526020600020905b81548152906001019060200180831161186357829003601f168201915b5050506003909301549192505060ff1684565b60088054829081106118a157fe5b60009182526020918290206006919091020180546040805160026001841615610100026000190190931692909204601f81018590048502830185019091528082529193509183919083018282801561193a5780601f1061190f5761010080835404028352916020019161193a565b820191906000526020600020905b81548152906001019060200180831161191d57829003601f168201915b505050505090806001018054600181600116156101000203166002900480601f0160208091040260200160405190810160405280929190818152602001828054600181600116156101000203166002900480156119d85780601f106119ad576101008083540402835291602001916119d8565b820191906000526020600020905b8154815290600101906020018083116119bb57829003601f168201915b505050506002830154600384015460048501546005909501549394600160a060020a039092169390925086565b600a54600160a060020a031681565b611a2660e860020a6244414f02612f57565b600160a060020a03163314611a73576040805160e560020a62461bcd028152602060048201526016602482015260008051602061362d833981519152604482015290519081900360640190fd5b600081815260046020526040902060010154600160a060020a03161515611ad2576040805160e560020a62461bcd02815260206004820152601860248201526000805160206135e9833981519152604482015290519081900360640190fd5b600160008281526004602052604090206003015460ff166001811115611af457fe5b1415611b4a576040805160e560020a62461bcd02815260206004820152601860248201527f4552524f523a3a4f5241434c455f4e4f545f4143544956450000000000000000604482015290519081900360640190fd5b6000818152600660205260409020541515611b995760405160e560020a62461bcd0281526004018080602001828103825260268152602001806136986026913960400191505060405180910390fd5b6000818152600460208181526040808420600181018054600160a060020a0316865260058452918520859055858552929091528154600160a060020a03199081168355815416905590611bef60028301826133c4565b50600301805460ff191690556000818152600660205260408120611c1291613408565b6040805182815290517f196c1adc3f9dd78b95b0f6359e17c4f459c527c2cac013248f6e50bd95f8ba759181900360200190a150565b600360205281600052604060002081815481101515610bf157fe5b6000611c8e7f4f7261636c655365727669636500000000000000000000000000000000000000612f57565b600160a060020a03163314611ced576040805160e560020a62461bcd02815260206004820152601160248201527f4552524f523a3a4e4f545f4f5241434c45000000000000000000000000000000604482015290519081900360640190fd5b6000600886815481101515611cfe57fe5b9060005260206000209060060201905060008160020160009054906101000a9004600160a060020a0316600160a060020a0316826001016040516020018082805460018160011615610100020316600290048015611d935780601f10611d71576101008083540402835291820191611d93565b820191906000526020600020905b815481529060010190602001808311611d7f575b50507f2875696e743235362c6279746573290000000000000000000000000000000000815260408051601019818403018152600f83018252603383018d815260538401928352607384018b90529094508c93508a928a9290609301848480828437600081840152601f19601f820116905080830192505050945050505050604051602081830303815290604052906040518082805190602001908083835b60208310611e505780518252601f199092019160209182019101611e31565b51815160001960209485036101000a01908116901991909116179052604080519490920184900390932092860180517bffffffffffffffffffffffffffffffffffffffffffffffffffffffff167fffffffff0000000000000000000000000000000000000000000000000000000090941693909317835251855190945084935090508083835b60208310611ef55780518252601f199092019160209182019101611ed6565b6001836020036101000a0380198251168184511680821785525050505050509050019150506000604051808303816000865af19150503d8060008114611f57576040519150601f19603f3d011682016040523d82523d6000602084013e611f5c565b606091505b505060098054919250611f729060018301613426565b925060806040519081016040528088815260200187600160a060020a03168152602001428152602001821515815250600984815481101515611fb057fe5b600091825260209182902083516004929092020190815582820151600182018054600160a060020a031916600160a060020a0392831617905560408085015160028401556060948501516003909301805460ff19169315159390931790925581518b81529283018790528916828201528315159282019290925290517f304a2e4f4608767be519c154b9dd5f3f67443f27721be49fe2f62fc6b405c087916080908290030190a15050949350505050565b60075481565b61207960e860020a6244414f02612f57565b600160a060020a031633146120c6576040805160e560020a62461bcd028152602060048201526016602482015260008051602061362d833981519152604482015290519081900360640190fd5b60008181526020819052604090206003015460ff6101009091041615156001146121245760405160e560020a62461bcd0281526004018080602001828103825260228152602001806136be6022913960400191505060405180910390fd5b600160008281526020819052604090206003015460ff16600181111561214657fe5b1461219b576040805160e560020a62461bcd02815260206004820152601d60248201527f4552524f523a3a4f5241434c455f545950455f4e4f545f414354495645000000604482015290519081900360640190fd5b600081815260026020526040902054156121e95760405160e560020a62461bcd02815260040180806020018281038252602581526020018061364d6025913960400191505060405180910390fd5b60008181526020818152604091829020600301805460ff19169055815183815291517f382a65e68aad7f96cc3ccc10be93d92e5365de2424d3ee6ea4145e30b2e4d3d29281900390910190a150565b60006122516000805160206135c9833981519152612f57565b600160a060020a0316331461229e576040805160e560020a62461bcd02815260206004820152601760248201526000805160206136e0833981519152604482015290519081900360640190fd5b600082815260046020526040902054600160a060020a038581169116146122fd576040805160e560020a62461bcd02815260206004820152601760248201526000805160206136e0833981519152604482015290519081900360640190fd5b600082815260046020526040902060010154600160a060020a0316151561235c576040805160e560020a62461bcd02815260206004820152601860248201526000805160206135e9833981519152604482015290519081900360640190fd5b60008381526020819052604090206003015460ff6101009091041615156001146123ba5760405160e560020a62461bcd0281526004018080602001828103825260228152602001806136be6022913960400191505060405180910390fd5b60008381526001602081815260408084208685529091529091205460ff1615151415612430576040805160e560020a62461bcd02815260206004820152601660248201527f4552524f523a3a4f5241434c455f41535349474e454400000000000000000000604482015290519081900360640190fd5b600083815260036020526040902080549061244e9060018301613457565b6000848152600360205260409020805491925083918390811061246d57fe5b6000918252602091829020019190915560408051858152918201849052818101839052517f4fba195ba876fa0be998a04b8f31ee930a7ae32a9b12ebfaac7bdd0e4d409df69181900360600190a19392505050565b6000602081815291815260409081902080548251601f6002600019610100600186161502019093169290920491820185900485028101850190935280835290928391908301828280156125565780601f1061252b57610100808354040283529160200191612556565b820191906000526020600020905b81548152906001019060200180831161253957829003601f168201915b505050505090806001018054600181600116156101000203166002900480601f0160208091040260200160405190810160405280929190818152602001828054600181600116156101000203166002900480156125f45780601f106125c9576101008083540402835291602001916125f4565b820191906000526020600020905b8154815290600101906020018083116125d757829003601f168201915b50505060028085018054604080516020601f60001961010060018716150201909416959095049283018590048502810185019091528181529596959450909250908301828280156126865780601f1061265b57610100808354040283529160200191612686565b820191906000526020600020905b81548152906001019060200180831161266957829003601f168201915b5050506003909301549192505060ff8082169161010090041685565b6126b460e860020a6244414f02612f57565b600160a060020a03163314612701576040805160e560020a62461bcd028152602060048201526016602482015260008051602061362d833981519152604482015290519081900360640190fd5b60008281526020819052604090206003015460ff61010090910416151560011461275f5760405160e560020a62461bcd0281526004018080602001828103825260228152602001806136be6022913960400191505060405180910390fd5b600082815260036020526040812080548390811061277957fe5b60009182526020808320909101548083526004909152604090912060010154909150600160a060020a031615156127e8576040805160e560020a62461bcd02815260206004820152601860248201526000805160206135e9833981519152604482015290519081900360640190fd5b60008381526001602081815260408084208585529091529091205460ff161515141561285e576040805160e560020a62461bcd02815260206004820152601660248201527f4552524f523a3a4f5241434c455f41535349474e454400000000000000000000604482015290519081900360640190fd5b60008381526001602081815260408084208585528252808420805460ff1916841790558684526002825280842080549384018155845292819020909101839055815185815290810183905281517ff863b7442748e5fbb6bea1e42409c5136386fcf03e16baa87f23dbdc8bd96b15929181900390910190a1505050565b600b54600160a060020a031681565b60006129036000805160206135c9833981519152612f57565b600160a060020a03163314612950576040805160e560020a62461bcd02815260206004820152601760248201526000805160206136e0833981519152604482015290519081900360640190fd5b600160a060020a038416600090815260056020526040902054156129be576040805160e560020a62461bcd02815260206004820152601460248201527f4552524f523a3a4f5241434c455f455849535453000000000000000000000000604482015290519081900360640190fd5b50600780546001810190915560408051608081018252600160a060020a03808816825286166020808301919091528251601f8601829004820281018201845285815291928301919086908690819084018382808284376000920182905250938552505060209092019150905260008281526004602090815260409182902083518154600160a060020a03918216600160a060020a031991821617835585840151600184018054919093169116179055918301518051612a839260028501920190613346565b50606082015160038201805460ff191660018381811115612aa057fe5b02179055505050600160a060020a038416600081815260056020908152604091829020849055815192835282018181529082018490527ff01fac3e5259db92d8581b7be73ba122e7703bd52b2e314ac5b0723736ca08139186918691869160608201848480828437600083820152604051601f909101601f1916909201829003965090945050505050a1949350505050565b612b4460e860020a6244414f02612f57565b600160a060020a03163314612b91576040805160e560020a62461bcd028152602060048201526016602482015260008051602061362d833981519152604482015290519081900360640190fd5b600081815260046020526040902060010154600160a060020a03161515612bf0576040805160e560020a62461bcd02815260206004820152601860248201526000805160206135e9833981519152604482015290519081900360640190fd5b600160008281526004602052604090206003015460ff166001811115612c1257fe5b1415612c68576040805160e560020a62461bcd02815260206004820152601760248201527f4552524f523a3a4f5241434c455f49535f414354495645000000000000000000604482015290519081900360640190fd5b600081815260046020908152604091829020600301805460ff19166001179055815183815291517f54186fbf3d247a05d38a902303d64c1853e6f78ff005c85193eac4afca515db99281900390910190a150565b60007f5175657279000000000000000000000000000000000000000000000000000000612ce881613029565b600160a060020a03163014612d47576040805160e560020a62461bcd02815260206004820152601560248201527f4552524f523a3a4e4f545f4f4e5f53544f524147450000000000000000000000604482015290519081900360640190fd5b612d707f50726f6475637453657276696365000000000000000000000000000000000000613029565b600160a060020a03163314612dcf576040805160e560020a62461bcd02815260206004820152601a60248201527f4552524f523a3a4e4f545f50524f445543545f53455256494345000000000000604482015290519081900360640190fd5b6008805490612de1906001830161347b565b91506000600883815481101515612df457fe5b600091825260209091206006909102019050612e11818b8b6134a7565b50612e206001820189896134a7565b50600281018054600160a060020a031916600160a060020a0388811691909117909155600382018690556004808301869055426005840155600086815260208290526040908190206001015481517fffc7906500000000000000000000000000000000000000000000000000000000815292830187815260248401928352604484018e905293169263ffc790659287928f928f92909190606401848480828437600081840152601f19601f820116905080830192505050945050505050600060405180830381600087803b158015612ef757600080fd5b505af1158015612f0b573d6000803e3d6000fd5b5050604080518681526020810188905281517f7d3e222ad278ef9ddbad6b11ef360423a9775011c7e0547e2b77a4dd7cbd692e9450908190039091019150a15050979650505050505050565b600a54604080517fda47d856000000000000000000000000000000000000000000000000000000008152600481018490529051600092600160a060020a03169163da47d856916024808301926020929190829003018186803b158015612fbc57600080fd5b505afa158015612fd0573d6000803e3d6000fd5b505050506040513d6020811015612fe657600080fd5b505192915050565b600160209081526000928352604080842090915290825290205460ff1681565b600260205281600052604060002081815481101515610bf157fe5b600a54604080517fe16c7d98000000000000000000000000000000000000000000000000000000008152600481018490529051600092600160a060020a03169163e16c7d98916024808301926020929190829003018186803b158015612fbc57600080fd5b60056020526000908152604090205481565b60098054829081106130ae57fe5b60009182526020909120600490910201805460018201546002830154600390930154919350600160a060020a0316919060ff1684565b6130f660e860020a6244414f02612f57565b600160a060020a03163314613143576040805160e560020a62461bcd028152602060048201526016602482015260008051602061362d833981519152604482015290519081900360640190fd5b600081815260046020526040902060010154600160a060020a031615156131a2576040805160e560020a62461bcd02815260206004820152601860248201526000805160206135e9833981519152604482015290519081900360640190fd5b600160008281526004602052604090206003015460ff1660018111156131c457fe5b14613219576040805160e560020a62461bcd02815260206004820152601860248201527f4552524f523a3a4f5241434c455f4e4f545f4143544956450000000000000000604482015290519081900360640190fd5b60008181526006602052604090205415156132685760405160e560020a62461bcd0281526004018080602001828103825260268152602001806136986026913960400191505060405180910390fd5b600081815260046020908152604091829020600301805460ff19169055815183815291517f996c039bedf701514c424e0f61f6b851d9e2bbdd6c8b5f02b033dab30fcbb10f9281900390910190a150565b6132cb60e860020a6244414f02612f57565b600160a060020a03163314613318576040805160e560020a62461bcd028152602060048201526016602482015260008051602061362d833981519152604482015290519081900360640190fd5b61332181613324565b50565b600b8054600160a060020a031916600160a060020a0392909216919091179055565b828054600181600116156101000203166002900490600052602060002090601f016020900481019282601f1061338757805160ff19168380011785556133b4565b828001600101855582156133b4579182015b828111156133b4578251825591602001919060010190613399565b506133c0929150613515565b5090565b50805460018160011615610100020316600290046000825580601f106133ea5750613321565b601f0160209004906000526020600020908101906133219190613515565b50805460008255906000526020600020908101906133219190613515565b815481835581811115613452576004028160040283600052602060002091820191016134529190613532565b505050565b81548183558181111561345257600083815260209020613452918101908301613515565b815481835581811115613452576006028160060283600052602060002091820191016134529190613570565b828054600181600116156101000203166002900490600052602060002090601f016020900481019282601f106134e85782800160ff198235161785556133b4565b828001600101855582156133b4579182015b828111156133b45782358255916020019190600101906134fa565b61352f91905b808211156133c0576000815560010161351b565b90565b61352f91905b808211156133c0576000808255600182018054600160a060020a0319169055600282015560038101805460ff19169055600401613538565b61352f91905b808211156133c057600061358a82826133c4565b6135986001830160006133c4565b50600281018054600160a060020a031916905560006003820181905560048201819055600582015560060161357656fe4f7261636c654f776e65725365727669636500000000000000000000000000004552524f523a3a4f5241434c455f4e4f545f45584953545300000000000000004552524f523a3a46414c4c4241434b5f46554e4354494f4e5f4e4f575f414c4c4f5745444552524f523a3a4e4f545f44414f5f53455256494345000000000000000000004552524f523a3a4f5241434c455f545950455f4841535f4143544956455f4f5241434c45534552524f523a3a4f5241434c455f545950455f414c52454144595f494e495449414c495a45444552524f523a3a4f5241434c455f41535349474e45445f544f5f4f5241434c455f54595045534552524f523a3a4f5241434c455f545950455f4e4f545f494e495449414c495a45444552524f523a3a4e4f545f4f5241434c455f4f574e4552000000000000000000a165627a7a72305820964c01dd6dcc79faf717c42377fb4f3c27d7fd89492c146c8713c0be68932ba70029",
  "source": "pragma solidity 0.5.2;\n\nimport \"./QueryStorageModel.sol\";\nimport \"../../IOracle.sol\";\nimport \"../../shared/ModuleController.sol\";\n\ncontract QueryController is QueryStorageModel, ModuleController {\n    constructor(address _registry) public WithRegistry(_registry) {}\n\n    function proposeOracleType(\n        bytes32 _oracleTypeName,\n        string calldata _inputFormat,\n        string calldata _callbackFormat,\n        string calldata _description\n    ) external onlyOracleOwner {\n        require(\n            oracleTypes[_oracleTypeName].initialized == false,\n            \"ERROR::ORACLE_TYPE_ALREADY_INITIALIZED\"\n        );\n\n        oracleTypes[_oracleTypeName] = OracleType(\n            _inputFormat,\n            _callbackFormat,\n            _description,\n            OracleTypeState.Inactive,\n            true\n        );\n\n        emit LogOracleTypeProposed(\n            _oracleTypeName,\n            _inputFormat,\n            _callbackFormat,\n            _description\n        );\n    }\n\n    function activateOracleType(bytes32 _oracleTypeName) external onlyDAO {\n        require(\n            oracleTypes[_oracleTypeName].initialized == true,\n            \"ERROR::ORACLE_TYPE_NOT_INITIALIZED\"\n        );\n        require(\n            oracleTypes[_oracleTypeName].state != OracleTypeState.Active,\n            \"ERROR::ORACLE_TYPE_ACTIVE\"\n        );\n\n        oracleTypes[_oracleTypeName].state = OracleTypeState.Active;\n\n        emit LogOracleTypeActivated(_oracleTypeName);\n    }\n\n    function deactivateOracleType(bytes32 _oracleTypeName) external onlyDAO {\n        require(\n            oracleTypes[_oracleTypeName].initialized == true,\n            \"ERROR::ORACLE_TYPE_NOT_INITIALIZED\"\n        );\n        require(\n            oracleTypes[_oracleTypeName].state == OracleTypeState.Active,\n            \"ERROR::ORACLE_TYPE_NOT_ACTIVE\"\n        );\n        require(\n            assignedOraclesIds[_oracleTypeName].length == 0,\n            \"ERROR::ORACLE_TYPE_HAS_ACTIVE_ORACLES\"\n        );\n\n        oracleTypes[_oracleTypeName].state = OracleTypeState.Inactive;\n\n        emit LogOracleTypeDeactivated(_oracleTypeName);\n    }\n\n    function removeOracleType(bytes32 _oracleTypeName) external onlyDAO {\n        require(\n            oracleTypes[_oracleTypeName].initialized == true,\n            \"ERROR::ORACLE_TYPE_NOT_INITIALIZED\"\n        );\n        require(\n            oracleTypes[_oracleTypeName].state == OracleTypeState.Active,\n            \"ERROR::ORACLE_TYPE_NOT_ACTIVE\"\n        );\n        require(\n            assignedOraclesIds[_oracleTypeName].length == 0,\n            \"ERROR::ORACLE_TYPE_HAS_ACTIVE_ORACLES\"\n        );\n\n        delete oracleTypes[_oracleTypeName];\n\n        emit LogOracleTypeDeactivated(_oracleTypeName);\n    }\n\n    function proposeOracle(\n        address _sender,\n        address _oracleContract,\n        string calldata _description\n    ) external onlyOracleOwner returns (uint256 _oracleId) {\n        require(\n            oracleIdByAddress[_oracleContract] == 0,\n            \"ERROR::ORACLE_EXISTS\"\n        );\n\n        _oracleId = oracleIdIncrement++;\n\n        oracles[_oracleId] = Oracle(\n            _sender,\n            _oracleContract,\n            _description,\n            OracleState.Inactive\n        );\n        oracleIdByAddress[_oracleContract] = _oracleId;\n\n        emit LogOracleProposed(_oracleContract, _description);\n    }\n\n    function updateOracleContract(\n        address _sender,\n        address _newOracleContract,\n        uint256 _oracleId\n    ) external onlyOracleOwner {\n        require(\n            oracleIdByAddress[_newOracleContract] == 0,\n            \"ERROR::ORACLE_EXISTS\"\n        );\n        require(\n            oracles[_oracleId].oracleOwner == _sender,\n            \"ERROR::NOT_ORACLE_OWNER\"\n        );\n\n        address prevContract = oracles[_oracleId].oracleContract;\n\n        oracleIdByAddress[oracles[_oracleId].oracleContract] = 0;\n        oracles[_oracleId].oracleContract = _newOracleContract;\n        oracleIdByAddress[_newOracleContract] = _oracleId;\n\n        emit LogOracleContractUpdated(\n            _oracleId,\n            prevContract,\n            _newOracleContract\n        );\n    }\n\n    function activateOracle(uint256 _oracleId) external onlyDAO {\n        require(\n            oracles[_oracleId].oracleContract != address(0),\n            \"ERROR::ORACLE_NOT_EXISTS\"\n        );\n        require(\n            oracles[_oracleId].state != OracleState.Active,\n            \"ERROR::ORACLE_IS_ACTIVE\"\n        );\n\n        oracles[_oracleId].state = OracleState.Active;\n\n        emit LogOracleActivated(_oracleId);\n    }\n\n    function deactivateOracle(uint256 _oracleId) external onlyDAO {\n        require(\n            oracles[_oracleId].oracleContract != address(0),\n            \"ERROR::ORACLE_NOT_EXISTS\"\n        );\n        require(\n            oracles[_oracleId].state == OracleState.Active,\n            \"ERROR::ORACLE_NOT_ACTIVE\"\n        );\n        require(\n            assignedOracleTypes[_oracleId].length != 0,\n            \"ERROR::ORACLE_ASSIGNED_TO_ORACLE_TYPES\"\n        );\n\n        oracles[_oracleId].state = OracleState.Inactive;\n\n        emit LogOracleDeactivated(_oracleId);\n    }\n\n    function removeOracle(uint256 _oracleId) external onlyDAO {\n        require(\n            oracles[_oracleId].oracleContract != address(0),\n            \"ERROR::ORACLE_NOT_EXISTS\"\n        );\n        require(\n            oracles[_oracleId].state != OracleState.Active,\n            \"ERROR::ORACLE_NOT_ACTIVE\"\n        );\n        require(\n            assignedOracleTypes[_oracleId].length != 0,\n            \"ERROR::ORACLE_ASSIGNED_TO_ORACLE_TYPES\"\n        );\n\n        delete oracleIdByAddress[oracles[_oracleId].oracleContract];\n        delete oracles[_oracleId];\n        delete assignedOracleTypes[_oracleId];\n\n        emit LogOracleRemoved(_oracleId);\n    }\n\n    function proposeOracleToType(\n        address _sender,\n        bytes32 _oracleTypeName,\n        uint256 _oracleId\n    ) external onlyOracleOwner returns (uint256 _proposalId) {\n        require(\n            oracles[_oracleId].oracleOwner == _sender,\n            \"ERROR::NOT_ORACLE_OWNER\"\n        );\n        require(\n            oracles[_oracleId].oracleContract != address(0),\n            \"ERROR::ORACLE_NOT_EXISTS\"\n        );\n        require(\n            oracleTypes[_oracleTypeName].initialized == true,\n            \"ERROR::ORACLE_TYPE_NOT_INITIALIZED\"\n        );\n        require(\n            assignedOracles[_oracleTypeName][_oracleId] != true,\n            \"ERROR::ORACLE_ASSIGNED\"\n        );\n\n        _proposalId = proposedOracleIds[_oracleTypeName].length++;\n        proposedOracleIds[_oracleTypeName][_proposalId] = _oracleId;\n\n        emit LogOracleProposedToType(_oracleTypeName, _oracleId, _proposalId);\n    }\n\n    function revokeOracleToTypeProposal(\n        address _sender,\n        bytes32 _oracleTypeName,\n        uint256 _proposalId\n    ) external onlyOracleOwner {\n        uint256 oracleId = proposedOracleIds[_oracleTypeName][_proposalId];\n\n        require(\n            oracles[oracleId].oracleOwner == _sender,\n            \"ERROR::NOT_ORACLE_OWNER\"\n        );\n        require(\n            oracles[oracleId].oracleContract != address(0),\n            \"ERROR::ORACLE_NOT_EXISTS\"\n        );\n        require(\n            oracleTypes[_oracleTypeName].initialized == true,\n            \"ERROR::ORACLE_TYPE_NOT_INITIALIZED\"\n        );\n\n        emit LogOracleToTypeProposalRevoked(\n            _oracleTypeName,\n            oracleId,\n            _proposalId\n        );\n    }\n\n    function assignOracleToOracleType(\n        bytes32 _oracleTypeName,\n        uint256 _proposalId\n    ) external onlyDAO {\n        require(\n            oracleTypes[_oracleTypeName].initialized == true,\n            \"ERROR::ORACLE_TYPE_NOT_INITIALIZED\"\n        );\n\n        uint256 oracleId = proposedOracleIds[_oracleTypeName][_proposalId];\n\n        require(\n            oracles[oracleId].oracleContract != address(0),\n            \"ERROR::ORACLE_NOT_EXISTS\"\n        );\n        require(\n            assignedOracles[_oracleTypeName][oracleId] != true,\n            \"ERROR::ORACLE_ASSIGNED\"\n        );\n\n        assignedOracles[_oracleTypeName][oracleId] = true;\n        assignedOraclesIds[_oracleTypeName].push(oracleId);\n\n        emit LogOracleAssignedToOracleType(_oracleTypeName, oracleId);\n    }\n\n    function removeOracleFromOracleType(\n        bytes32 _oracleTypeName,\n        uint256 _oracleId\n    ) external onlyDAO {\n        require(\n            assignedOracles[_oracleTypeName][_oracleId] == true,\n            \"ERROR::ORACLE_NOT_ASSIGNED\"\n        );\n\n        assignedOracles[_oracleTypeName][_oracleId] = false;\n\n        emit LogOracleRemovedFromOracleType(_oracleTypeName, _oracleId);\n    }\n\n    /* Oracle Request */\n    // 1->1\n    function request(\n        bytes calldata _input,\n        string calldata _callbackMethodName,\n        address _callabackContractAddress,\n        bytes32 _oracleTypeName,\n        uint256 _responsibleOracleId\n    ) external onlyPolicyFlow(\"Query\") returns (uint256 _requestId) {\n        // todo: validate\n\n        _requestId = oracleRequests.length++;\n\n        // todo: get token from product\n\n        OracleRequest storage req = oracleRequests[_requestId];\n        req.data = _input;\n        req.callbackMethodName = _callbackMethodName;\n        req.callbackContractAddress = _callabackContractAddress;\n        req.oracleTypeName = _oracleTypeName;\n        req.responsibleOracleId = _responsibleOracleId;\n        req.createdAt = block.timestamp;\n\n        IOracle(oracles[_responsibleOracleId].oracleContract).request(\n            _requestId,\n            _input\n        );\n\n        emit LogOracleRequested(_requestId, _responsibleOracleId);\n    }\n\n    /* Oracle Response */\n    function respond(\n        uint256 _requestId,\n        address _responder,\n        bytes calldata _data\n    ) external onlyOracle returns (uint256 _responseId) {\n        OracleRequest storage req = oracleRequests[_requestId];\n\n        (bool status, ) = req.callbackContractAddress.call(\n            abi.encodeWithSignature(\n                string(\n                    abi.encodePacked(req.callbackMethodName, \"(uint256,bytes)\")\n                ),\n                _requestId,\n                _data\n            )\n        );\n\n        // todo: send reward\n\n        _responseId = oracleResponses.length++;\n        oracleResponses[_responseId] = OracleResponse(\n            _requestId,\n            _responder,\n            block.timestamp,\n            status\n        );\n\n        emit LogOracleResponded(_requestId, _responseId, _responder, status);\n    }\n\n}\n",
  "sourcePath": "/Users/ka/Projects/Altoros/Etherisc/dip-platform/core/gif-contracts/contracts/modules/query/QueryController.sol",
  "compiler": {
    "name": "solc",
    "version": "0.5.2+commit.1df8f40c.Emscripten.clang"
  },
  "schemaVersion": "3.0.2",
  "updatedAt": "2019-02-25T09:04:22.268Z",
  "devdoc": {
    "methods": {}
  },
  "userdoc": {
    "methods": {}
  }
}