{
  "contractName": "RBAC",
  "abi": [
    {
      "constant": true,
      "inputs": [
        {
          "name": "",
          "type": "address"
        }
      ],
      "name": "permissions",
      "outputs": [
        {
          "name": "",
          "type": "uint256"
        }
      ],
      "payable": false,
      "stateMutability": "view",
      "type": "function"
    },
    {
      "constant": true,
      "inputs": [
        {
          "name": "",
          "type": "uint256"
        }
      ],
      "name": "rolesKeys",
      "outputs": [
        {
          "name": "",
          "type": "bytes32"
        }
      ],
      "payable": false,
      "stateMutability": "view",
      "type": "function"
    },
    {
      "constant": true,
      "inputs": [
        {
          "name": "",
          "type": "bytes32"
        }
      ],
      "name": "roles",
      "outputs": [
        {
          "name": "",
          "type": "uint256"
        }
      ],
      "payable": false,
      "stateMutability": "view",
      "type": "function"
    },
    {
      "constant": false,
      "inputs": [
        {
          "name": "_role",
          "type": "bytes32"
        }
      ],
      "name": "createRole",
      "outputs": [],
      "payable": false,
      "stateMutability": "nonpayable",
      "type": "function"
    },
    {
      "constant": false,
      "inputs": [
        {
          "name": "_address",
          "type": "address"
        },
        {
          "name": "_role",
          "type": "bytes32"
        }
      ],
      "name": "addRoleToAccount",
      "outputs": [],
      "payable": false,
      "stateMutability": "nonpayable",
      "type": "function"
    },
    {
      "constant": false,
      "inputs": [
        {
          "name": "_address",
          "type": "address"
        }
      ],
      "name": "cleanRolesForAccount",
      "outputs": [],
      "payable": false,
      "stateMutability": "nonpayable",
      "type": "function"
    },
    {
      "constant": true,
      "inputs": [
        {
          "name": "_address",
          "type": "address"
        },
        {
          "name": "_role",
          "type": "bytes32"
        }
      ],
      "name": "hasRole",
      "outputs": [
        {
          "name": "_hasRole",
          "type": "bool"
        }
      ],
      "payable": false,
      "stateMutability": "view",
      "type": "function"
    }
  ],
  "bytecode": "0x608060405234801561001057600080fd5b50610321806100206000396000f3fe608060405234801561001057600080fd5b506004361061009a576000357c010000000000000000000000000000000000000000000000000000000090048063ac4ab3fb11610078578063ac4ab3fb14610111578063c2e8673514610151578063c42994a21461017f578063f566e10e1461019c5761009a565b806301e882081461009f5780632cf88d9e146100d757806395356651146100f4575b600080fd5b6100c5600480360360208110156100b557600080fd5b5035600160a060020a03166101c2565b60408051918252519081900360200190f35b6100c5600480360360208110156100ed57600080fd5b50356101d4565b6100c56004803603602081101561010a57600080fd5b50356101f3565b61013d6004803603604081101561012757600080fd5b50600160a060020a038135169060200135610205565b604080519115158252519081900360200190f35b61017d6004803603604081101561016757600080fd5b50600160a060020a038135169060200135610231565b005b61017d6004803603602081101561019557600080fd5b5035610278565b61017d600480360360208110156101b257600080fd5b5035600160a060020a03166102db565b60026020526000908152604090205481565b60018054829081106101e257fe5b600091825260209091200154905081565b60006020819052908152604090205481565b60009081526020818152604080832054600160a060020a03909416835260029091528120549091161190565b600081815260208190526040902054151561024b57600080fd5b60009081526020818152604080832054600160a060020a0390941683526002909152902080549091179055565b6000818152602081905260409020541561029157600080fd5b60018054600083815260208190526040812060029290920a909155815480830183559190527fb10e2d527612073b26eecdfd717e6a320cf44b4afac2b0732d9fcbe2b7fa0cf60155565b600160a060020a031660009081526002602052604081205556fea165627a7a723058207d02e9a9d272622d62421473c2693d6289a7090448fde6584a10568d3322e8310029",
  "source": "pragma solidity 0.5.2;\n\ncontract RBAC {\n    mapping(bytes32 => uint256) public roles;\n    bytes32[] public rolesKeys;\n\n    mapping(address => uint256) public permissions;\n\n    modifier onlyWithRole(bytes32 _role) {\n        require(hasRole(msg.sender, _role));\n        _;\n    }\n\n    function createRole(bytes32 _role) public {\n        require(roles[_role] == 0);\n        // todo: check overflow\n        roles[_role] = 1 << rolesKeys.length;\n        rolesKeys.push(_role);\n    }\n\n    function addRoleToAccount(address _address, bytes32 _role) public {\n        require(roles[_role] != 0);\n\n        permissions[_address] = permissions[_address] | roles[_role];\n    }\n\n    function cleanRolesForAccount(address _address) public {\n        delete permissions[_address];\n    }\n\n    function hasRole(address _address, bytes32 _role)\n        public\n        view\n        returns (bool _hasRole)\n    {\n        _hasRole = (permissions[_address] & roles[_role]) > 0;\n    }\n}\n",
  "sourcePath": "/Users/ka/Projects/Altoros/Etherisc/dip-platform/core/gif-contracts/contracts/shared/RBAC.sol",
  "compiler": {
    "name": "solc",
    "version": "0.5.2+commit.1df8f40c.Emscripten.clang"
  },
  "schemaVersion": "3.0.2",
  "updatedAt": "2019-02-25T08:57:37.633Z",
  "devdoc": {
    "methods": {}
  },
  "userdoc": {
    "methods": {}
  }
}