{
  "contractName": "RegistryController",
  "abi": [
    {
      "constant": true,
      "inputs": [
        {
          "name": "",
          "type": "uint256"
        },
        {
          "name": "",
          "type": "bytes32"
        }
      ],
      "name": "contracts",
      "outputs": [
        {
          "name": "",
          "type": "address"
        }
      ],
      "payable": false,
      "stateMutability": "view",
      "type": "function",
      "signature": "0x184c68be"
    },
    {
      "constant": true,
      "inputs": [],
      "name": "release",
      "outputs": [
        {
          "name": "",
          "type": "uint256"
        }
      ],
      "payable": false,
      "stateMutability": "view",
      "type": "function",
      "signature": "0x86d1a69f"
    },
    {
      "constant": true,
      "inputs": [
        {
          "name": "",
          "type": "uint256"
        },
        {
          "name": "",
          "type": "uint256"
        }
      ],
      "name": "contractNames",
      "outputs": [
        {
          "name": "",
          "type": "bytes32"
        }
      ],
      "payable": false,
      "stateMutability": "view",
      "type": "function",
      "signature": "0xaefed5d1"
    },
    {
      "constant": true,
      "inputs": [],
      "name": "maxContracts",
      "outputs": [
        {
          "name": "",
          "type": "uint256"
        }
      ],
      "payable": false,
      "stateMutability": "view",
      "type": "function",
      "signature": "0xb739fcba"
    },
    {
      "constant": true,
      "inputs": [],
      "name": "delegator",
      "outputs": [
        {
          "name": "",
          "type": "address"
        }
      ],
      "payable": false,
      "stateMutability": "view",
      "type": "function",
      "signature": "0xce9b7930"
    },
    {
      "constant": true,
      "inputs": [
        {
          "name": "",
          "type": "bytes32"
        }
      ],
      "name": "controllers",
      "outputs": [
        {
          "name": "",
          "type": "address"
        }
      ],
      "payable": false,
      "stateMutability": "view",
      "type": "function",
      "signature": "0xfbae406a"
    },
    {
      "inputs": [],
      "payable": false,
      "stateMutability": "nonpayable",
      "type": "constructor",
      "signature": "constructor"
    },
    {
      "anonymous": false,
      "inputs": [
        {
          "indexed": false,
          "name": "release",
          "type": "uint256"
        },
        {
          "indexed": false,
          "name": "contractName",
          "type": "bytes32"
        },
        {
          "indexed": false,
          "name": "contractAddress",
          "type": "address"
        }
      ],
      "name": "LogContractRegistered",
      "type": "event",
      "signature": "0x15e2e693a18919eb5481862f0ce3bc926a4d9c18df99ce27af43e77ee60aa5b1"
    },
    {
      "anonymous": false,
      "inputs": [
        {
          "indexed": false,
          "name": "release",
          "type": "uint256"
        },
        {
          "indexed": false,
          "name": "contractName",
          "type": "bytes32"
        }
      ],
      "name": "LogContractDeregistered",
      "type": "event",
      "signature": "0x597fc21dedcba8a42c130014d59c8f62ddb37b06d6b8b13f135572882fccde5b"
    },
    {
      "anonymous": false,
      "inputs": [
        {
          "indexed": false,
          "name": "interfaceId",
          "type": "bytes4"
        },
        {
          "indexed": false,
          "name": "contractName",
          "type": "bytes32"
        }
      ],
      "name": "LogInterfaceIdRegistered",
      "type": "event",
      "signature": "0x92cc6cb50e8b2529c11ac7ab82b32bfffd58e8a9f370d111a91a9d7f41969091"
    },
    {
      "anonymous": false,
      "inputs": [
        {
          "indexed": false,
          "name": "release",
          "type": "uint256"
        }
      ],
      "name": "LogReleasePrepared",
      "type": "event",
      "signature": "0x0993b2797ae1340d35a5fe67ea18c07b9c0f39269da7db9da65fa5c1becca419"
    },
    {
      "constant": false,
      "inputs": [
        {
          "name": "_storage",
          "type": "address"
        }
      ],
      "name": "assignStorage",
      "outputs": [],
      "payable": false,
      "stateMutability": "nonpayable",
      "type": "function",
      "signature": "0xe71359bf"
    },
    {
      "constant": false,
      "inputs": [
        {
          "name": "_name",
          "type": "bytes32"
        },
        {
          "name": "_addr",
          "type": "address"
        }
      ],
      "name": "registerService",
      "outputs": [],
      "payable": false,
      "stateMutability": "nonpayable",
      "type": "function",
      "signature": "0x72dd0ff8"
    },
    {
      "constant": true,
      "inputs": [],
      "name": "getRelease",
      "outputs": [
        {
          "name": "_release",
          "type": "uint256"
        }
      ],
      "payable": false,
      "stateMutability": "view",
      "type": "function",
      "signature": "0x76b707b7"
    },
    {
      "constant": false,
      "inputs": [
        {
          "name": "_release",
          "type": "uint256"
        },
        {
          "name": "_contractName",
          "type": "bytes32"
        },
        {
          "name": "_contractAddress",
          "type": "address"
        }
      ],
      "name": "registerInRelease",
      "outputs": [],
      "payable": false,
      "stateMutability": "nonpayable",
      "type": "function",
      "signature": "0xf253f403"
    },
    {
      "constant": false,
      "inputs": [
        {
          "name": "_contractName",
          "type": "bytes32"
        },
        {
          "name": "_contractAddress",
          "type": "address"
        }
      ],
      "name": "register",
      "outputs": [],
      "payable": false,
      "stateMutability": "nonpayable",
      "type": "function",
      "signature": "0xd22057a9"
    },
    {
      "constant": false,
      "inputs": [
        {
          "name": "_release",
          "type": "uint256"
        },
        {
          "name": "_contractName",
          "type": "bytes32"
        }
      ],
      "name": "deregisterInRelease",
      "outputs": [],
      "payable": false,
      "stateMutability": "nonpayable",
      "type": "function",
      "signature": "0xdee86bc2"
    },
    {
      "constant": false,
      "inputs": [
        {
          "name": "_contractName",
          "type": "bytes32"
        }
      ],
      "name": "deregister",
      "outputs": [],
      "payable": false,
      "stateMutability": "nonpayable",
      "type": "function",
      "signature": "0x20813154"
    },
    {
      "constant": false,
      "inputs": [],
      "name": "prepareRelease",
      "outputs": [
        {
          "name": "_release",
          "type": "uint256"
        }
      ],
      "payable": false,
      "stateMutability": "nonpayable",
      "type": "function",
      "signature": "0xdfba2a6c"
    },
    {
      "constant": true,
      "inputs": [
        {
          "name": "_release",
          "type": "uint256"
        },
        {
          "name": "_contractName",
          "type": "bytes32"
        }
      ],
      "name": "getContractInRelease",
      "outputs": [
        {
          "name": "_addr",
          "type": "address"
        }
      ],
      "payable": false,
      "stateMutability": "view",
      "type": "function",
      "signature": "0xda70cc03"
    },
    {
      "constant": true,
      "inputs": [
        {
          "name": "_contractName",
          "type": "bytes32"
        }
      ],
      "name": "getContract",
      "outputs": [
        {
          "name": "_addr",
          "type": "address"
        }
      ],
      "payable": false,
      "stateMutability": "view",
      "type": "function",
      "signature": "0xe16c7d98"
    },
    {
      "constant": true,
      "inputs": [
        {
          "name": "_contractName",
          "type": "bytes32"
        }
      ],
      "name": "getService",
      "outputs": [
        {
          "name": "_addr",
          "type": "address"
        }
      ],
      "payable": false,
      "stateMutability": "view",
      "type": "function",
      "signature": "0xda47d856"
    }
  ],
  "bytecode": "0x6080604052606460015534801561001557600080fd5b507f44414f000000000000000000000000000000000000000000000000000000000060005260046020527f0f29151ae2e0b82c1d6e736e8cf325225d0784778f30ebbe73948237e7468a388054600160a060020a03191633179055610b7f8061007f6000396000f3fe608060405234801561001057600080fd5b5060043610610128576000357c010000000000000000000000000000000000000000000000000000000090048063d22057a9116100bf578063dfba2a6c1161008e578063dfba2a6c1461029b578063e16c7d98146102a3578063e71359bf146102c0578063f253f403146102e6578063fbae406a1461031857610128565b8063d22057a91461020c578063da47d85614610238578063da70cc0314610255578063dee86bc21461027857610128565b806386d1a69f116100fb57806386d1a69f146101d1578063aefed5d1146101d9578063b739fcba146101fc578063ce9b79301461020457610128565b8063184c68be1461012d578063208131541461016c57806372dd0ff81461018b57806376b707b7146101b7575b600080fd5b6101506004803603604081101561014357600080fd5b5080359060200135610335565b60408051600160a060020a039092168252519081900360200190f35b6101896004803603602081101561018257600080fd5b503561035b565b005b610189600480360360408110156101a157600080fd5b5080359060200135600160a060020a03166103c9565b6101bf610463565b60408051918252519081900360200190f35b6101bf610469565b6101bf600480360360408110156101ef57600080fd5b508035906020013561046f565b6101bf61049f565b6101506104a5565b6101896004803603604081101561022257600080fd5b5080359060200135600160a060020a03166104b4565b6101506004803603602081101561024e57600080fd5b5035610524565b6101506004803603604081101561026b57600080fd5b508035906020013561053f565b6101896004803603604081101561028e57600080fd5b5080359060200135610565565b6101bf610710565b610150600480360360208110156102b957600080fd5b503561088d565b610189600480360360208110156102d657600080fd5b5035600160a060020a03166108a1565b610189600480360360608110156102fc57600080fd5b5080359060208101359060400135600160a060020a0316610909565b6101506004803603602081101561032e57600080fd5b5035610a9f565b6002602090815260009283526040808420909152908252902054600160a060020a031681565b61036d60e860020a6244414f02610524565b600160a060020a031633146103ba576040805160e560020a62461bcd0281526020600482015260166024820152600080516020610b34833981519152604482015290519081900360640190fd5b6103c660005482610565565b50565b6103db60e860020a6244414f02610524565b600160a060020a03163314610428576040805160e560020a62461bcd0281526020600482015260166024820152600080516020610b34833981519152604482015290519081900360640190fd5b600091825260046020526040909120805473ffffffffffffffffffffffffffffffffffffffff1916600160a060020a03909216919091179055565b60005490565b60005481565b60036020528160005260406000208181548110151561048a57fe5b90600052602060002001600091509150505481565b60015481565b600554600160a060020a031681565b6104c660e860020a6244414f02610524565b600160a060020a03163314610513576040805160e560020a62461bcd0281526020600482015260166024820152600080516020610b34833981519152604482015290519081900360640190fd5b6105206000548383610909565b5050565b600090815260046020526040902054600160a060020a031690565b6000918252600260209081526040808420928452919052902054600160a060020a031690565b61057760e860020a6244414f02610524565b600160a060020a031633146105c4576040805160e560020a62461bcd0281526020600482015260166024820152600080516020610b34833981519152604482015290519081900360640190fd5b600082815260036020526040812054815b8181101561061b5760008581526003602052604090208054859190839081106105fa57fe5b906000526020600020015414156106135780925061061b565b6001016105d5565b506001810382101561067d5760008481526003602052604090208054600019830190811061064557fe5b9060005260206000200154600360008681526020019081526020016000208381548110151561067057fe5b6000918252602090912001555b600084815260036020526040902080549061069c906000198301610ae9565b506000848152600260209081526040808320868452825291829020805473ffffffffffffffffffffffffffffffffffffffff19169055815186815290810185905281517f597fc21dedcba8a42c130014d59c8f62ddb37b06d6b8b13f135572882fccde5b929181900390910190a150505050565b600061072460e860020a6244414f02610524565b600160a060020a03163314610771576040805160e560020a62461bcd0281526020600482015260166024820152600080516020610b34833981519152604482015290519081900360640190fd5b600080548152600360205260408120549081116107d8576040805160e560020a62461bcd02815260206004820152601460248201527f4552524f523a3a454d5054595f52454c45415345000000000000000000000000604482015290519081900360640190fd5b60008054600101905b8281101561084a5760008054815260036020526040812080548390811061080457fe5b6000918252602080832090910154825483526002825260408084208285529092529120549091506108419084908390600160a060020a0316610909565b506001016107e1565b50600081905560408051828152905191935083917f0993b2797ae1340d35a5fe67ea18c07b9c0f39269da7db9da65fa5c1becca4199181900360200190a1505090565b600061089b6000548361053f565b92915050565b6108b360e860020a6244414f02610524565b600160a060020a03163314610900576040805160e560020a62461bcd0281526020600482015260166024820152600080516020610b34833981519152604482015290519081900360640190fd5b6103c681610aba565b61091b60e860020a6244414f02610524565b600160a060020a03163314610968576040805160e560020a62461bcd0281526020600482015260166024820152600080516020610b34833981519152604482015290519081900360640190fd5b60015460008481526003602052604090205411156109d0576040805160e560020a62461bcd02815260206004820152601a60248201527f4552524f523a3a4d41585f434f4e5452414354535f4c494d4954000000000000604482015290519081900360640190fd5b6000838152600260209081526040808320858452909152902054600160a060020a03161515610a1b576000838152600360209081526040822080546001810182559083529120018290555b60008381526002602090815260408083208584528252918290208054600160a060020a03851673ffffffffffffffffffffffffffffffffffffffff19909116811790915582518681529182018590528183015290517f15e2e693a18919eb5481862f0ce3bc926a4d9c18df99ce27af43e77ee60aa5b19181900360600190a1505050565b600460205260009081526040902054600160a060020a031681565b6005805473ffffffffffffffffffffffffffffffffffffffff1916600160a060020a0392909216919091179055565b815481835581811115610b0d57600083815260209020610b0d918101908301610b12565b505050565b610b3091905b80821115610b2c5760008155600101610b18565b5090565b9056fe4552524f523a3a4e4f545f44414f5f5345525649434500000000000000000000a165627a7a723058202901174f84cd151426a1d3307fe6105b4fe2fc2631daa5888fee2ae59fe99dd20029",
  "source": "pragma solidity 0.5.2;\n\nimport \"./RegistryStorageModel.sol\";\nimport \"../../shared/BaseModuleController.sol\";\nimport \"../../shared/AccessModifiers.sol\";\n\ncontract RegistryController is RegistryStorageModel, BaseModuleController, AccessModifiers {\n    constructor() public {\n        // Init\n        controllers[\"DAO\"] = msg.sender;\n    }\n\n    function assignStorage(address _storage) external onlyDAO {\n        _assignStorage(_storage);\n    }\n\n    function registerService(bytes32 _name, address _addr) external onlyDAO {\n        controllers[_name] = _addr;\n    }\n\n    function getRelease() external view returns (uint256 _release) {\n        _release = release;\n    }\n\n    /**\n     * @dev Register contract in certain release\n     */\n    function registerInRelease(\n        uint256 _release,\n        bytes32 _contractName,\n        address _contractAddress\n    ) public onlyDAO {\n        require(\n            contractNames[_release].length <= maxContracts,\n            \"ERROR::MAX_CONTRACTS_LIMIT\"\n        );\n\n        if (contracts[_release][_contractName] == address(0)) {\n            contractNames[_release].push(_contractName);\n        }\n\n        contracts[_release][_contractName] = _contractAddress;\n\n        emit LogContractRegistered(_release, _contractName, _contractAddress);\n    }\n\n    /**\n     * @dev Register contract in the latest release\n     */\n    function register(bytes32 _contractName, address _contractAddress)\n        public\n        onlyDAO\n    {\n        registerInRelease(release, _contractName, _contractAddress);\n    }\n\n    /**\n     * @dev Deregister contract in certain release\n     */\n    function deregisterInRelease(uint256 _release, bytes32 _contractName)\n        public\n        onlyDAO\n    {\n        uint256 indexToDelete;\n        uint256 countContracts = contractNames[_release].length;\n\n        // todo: think about how to avoid this loop\n        for (uint256 i = 0; i < countContracts; i++) {\n            if (contractNames[_release][i] == _contractName) {\n                indexToDelete = i;\n                break;\n            }\n        }\n\n        if (indexToDelete < countContracts - 1) {\n            contractNames[_release][indexToDelete] = contractNames[_release][countContracts - 1];\n        }\n\n        contractNames[_release].length--;\n        delete contracts[_release][_contractName];\n\n        emit LogContractDeregistered(_release, _contractName);\n    }\n\n    /**\n     * @dev Deregister contract in the latest release\n     */\n    function deregister(bytes32 _contractName) public onlyDAO {\n        deregisterInRelease(release, _contractName);\n    }\n\n    /**\n     * @dev Create new release, copy contracts from previous release\n     */\n    function prepareRelease() public onlyDAO returns (uint256 _release) {\n        uint256 countContracts = contractNames[release].length;\n\n        require(countContracts > 0, \"ERROR::EMPTY_RELEASE\");\n\n        uint256 nextRelease = release + 1;\n\n        // todo: think about how to avoid this loop\n        for (uint256 i = 0; i < countContracts; i++) {\n            bytes32 contractName = contractNames[release][i];\n            registerInRelease(\n                nextRelease,\n                contractName,\n                contracts[release][contractName]\n            );\n        }\n\n        release = nextRelease;\n        _release = release;\n\n        emit LogReleasePrepared(release);\n    }\n\n    /**\n     * @dev Get contract's address in certain release\n     */\n    function getContractInRelease(uint256 _release, bytes32 _contractName)\n        public\n        view\n        returns (address _addr)\n    {\n        _addr = contracts[_release][_contractName];\n    }\n\n    /**\n     * @dev Get contract's address in the latest release\n     */\n    function getContract(bytes32 _contractName)\n        public\n        view\n        returns (address _addr)\n    {\n        _addr = getContractInRelease(release, _contractName);\n    }\n\n    function getService(bytes32 _contractName)\n        public\n        view\n        returns (address _addr)\n    {\n        _addr = controllers[_contractName];\n    }\n}\n",
  "sourcePath": "/Users/ka/Projects/Altoros/Etherisc/dip-platform/core/gif-contracts/contracts/modules/registry/RegistryController.sol",
  "compiler": {
    "name": "solc",
    "version": "0.5.2+commit.1df8f40c.Emscripten.clang"
  },
  "schemaVersion": "3.0.2",
  "updatedAt": "2019-02-25T09:08:22.456Z",
  "devdoc": {
    "methods": {
      "deregister(bytes32)": {
        "details": "Deregister contract in the latest release"
      },
      "deregisterInRelease(uint256,bytes32)": {
        "details": "Deregister contract in certain release"
      },
      "getContract(bytes32)": {
        "details": "Get contract's address in the latest release"
      },
      "getContractInRelease(uint256,bytes32)": {
        "details": "Get contract's address in certain release"
      },
      "prepareRelease()": {
        "details": "Create new release, copy contracts from previous release"
      },
      "register(bytes32,address)": {
        "details": "Register contract in the latest release"
      },
      "registerInRelease(uint256,bytes32,address)": {
        "details": "Register contract in certain release"
      }
    }
  },
  "userdoc": {
    "methods": {}
  }
}