{
  "contractName": "EStoreInsurance",
  "abi": [
    {
      "anonymous": false,
      "inputs": [
        {
          "indexed": false,
          "internalType": "uint256",
          "name": "_claimId",
          "type": "uint256"
        },
        {
          "indexed": false,
          "internalType": "uint256",
          "name": "_policyId",
          "type": "uint256"
        },
        {
          "indexed": false,
          "internalType": "enum EStoreInsurance.ClaimState",
          "name": "_state",
          "type": "uint8"
        },
        {
          "indexed": false,
          "internalType": "uint256",
          "name": "_stateTime",
          "type": "uint256"
        },
        {
          "indexed": false,
          "internalType": "string",
          "name": "_stateMessage",
          "type": "string"
        }
      ],
      "name": "LogClaimSetState",
      "type": "event"
    },
    {
      "anonymous": false,
      "inputs": [
        {
          "indexed": false,
          "internalType": "uint256",
          "name": "_policyId",
          "type": "uint256"
        },
        {
          "indexed": false,
          "internalType": "enum EStoreInsurance.PolicyState",
          "name": "_state",
          "type": "uint8"
        },
        {
          "indexed": false,
          "internalType": "uint256",
          "name": "_stateTime",
          "type": "uint256"
        },
        {
          "indexed": false,
          "internalType": "bytes32",
          "name": "_stateMessage",
          "type": "bytes32"
        }
      ],
      "name": "LogPolicySetState",
      "type": "event"
    },
    {
      "anonymous": false,
      "inputs": [
        {
          "indexed": true,
          "internalType": "address",
          "name": "previousOwner",
          "type": "address"
        },
        {
          "indexed": true,
          "internalType": "address",
          "name": "newOwner",
          "type": "address"
        }
      ],
      "name": "OwnershipTransferred",
      "type": "event"
    },
    {
      "constant": true,
      "inputs": [
        {
          "internalType": "uint256",
          "name": "",
          "type": "uint256"
        }
      ],
      "name": "claims",
      "outputs": [
        {
          "internalType": "uint256",
          "name": "policyId",
          "type": "uint256"
        },
        {
          "internalType": "enum EStoreInsurance.ClaimState",
          "name": "state",
          "type": "uint8"
        },
        {
          "internalType": "uint256",
          "name": "stateTime",
          "type": "uint256"
        },
        {
          "internalType": "string",
          "name": "stateMessage",
          "type": "string"
        }
      ],
      "payable": false,
      "stateMutability": "view",
      "type": "function"
    },
    {
      "constant": true,
      "inputs": [],
      "name": "isOwner",
      "outputs": [
        {
          "internalType": "bool",
          "name": "",
          "type": "bool"
        }
      ],
      "payable": false,
      "stateMutability": "view",
      "type": "function"
    },
    {
      "constant": true,
      "inputs": [],
      "name": "owner",
      "outputs": [
        {
          "internalType": "address",
          "name": "",
          "type": "address"
        }
      ],
      "payable": false,
      "stateMutability": "view",
      "type": "function"
    },
    {
      "constant": true,
      "inputs": [
        {
          "internalType": "uint256",
          "name": "",
          "type": "uint256"
        }
      ],
      "name": "policies",
      "outputs": [
        {
          "internalType": "bytes32",
          "name": "customerExternalId",
          "type": "bytes32"
        },
        {
          "internalType": "bytes32",
          "name": "riskId",
          "type": "bytes32"
        },
        {
          "internalType": "uint256",
          "name": "premium",
          "type": "uint256"
        },
        {
          "internalType": "uint256",
          "name": "expectedPayout",
          "type": "uint256"
        },
        {
          "internalType": "uint256",
          "name": "actualPayout",
          "type": "uint256"
        },
        {
          "internalType": "enum EStoreInsurance.Currency",
          "name": "currency",
          "type": "uint8"
        },
        {
          "internalType": "enum EStoreInsurance.PolicyState",
          "name": "state",
          "type": "uint8"
        },
        {
          "internalType": "uint256",
          "name": "stateTime",
          "type": "uint256"
        },
        {
          "internalType": "bytes32",
          "name": "stateMessage",
          "type": "bytes32"
        }
      ],
      "payable": false,
      "stateMutability": "view",
      "type": "function"
    },
    {
      "constant": false,
      "inputs": [],
      "name": "renounceOwnership",
      "outputs": [],
      "payable": false,
      "stateMutability": "nonpayable",
      "type": "function"
    },
    {
      "constant": true,
      "inputs": [
        {
          "internalType": "bytes32",
          "name": "",
          "type": "bytes32"
        }
      ],
      "name": "risks",
      "outputs": [
        {
          "internalType": "bytes32",
          "name": "vendorCode",
          "type": "bytes32"
        },
        {
          "internalType": "bytes32",
          "name": "product",
          "type": "bytes32"
        },
        {
          "internalType": "uint256",
          "name": "expiration",
          "type": "uint256"
        },
        {
          "internalType": "uint256",
          "name": "sumInsured",
          "type": "uint256"
        }
      ],
      "payable": false,
      "stateMutability": "view",
      "type": "function"
    },
    {
      "constant": false,
      "inputs": [
        {
          "internalType": "address",
          "name": "newOwner",
          "type": "address"
        }
      ],
      "name": "transferOwnership",
      "outputs": [],
      "payable": false,
      "stateMutability": "nonpayable",
      "type": "function"
    },
    {
      "constant": false,
      "inputs": [
        {
          "internalType": "bytes32",
          "name": "_vendorCode",
          "type": "bytes32"
        },
        {
          "internalType": "bytes32",
          "name": "_product",
          "type": "bytes32"
        },
        {
          "internalType": "uint256",
          "name": "_premium",
          "type": "uint256"
        },
        {
          "internalType": "uint256",
          "name": "_sumInsured",
          "type": "uint256"
        },
        {
          "internalType": "enum EStoreInsurance.Currency",
          "name": "_currency",
          "type": "uint8"
        },
        {
          "internalType": "uint256",
          "name": "_expiration",
          "type": "uint256"
        },
        {
          "internalType": "bytes32",
          "name": "_customerExternalId",
          "type": "bytes32"
        }
      ],
      "name": "newPolicy",
      "outputs": [],
      "payable": false,
      "stateMutability": "nonpayable",
      "type": "function"
    },
    {
      "constant": false,
      "inputs": [
        {
          "internalType": "uint256",
          "name": "_policyId",
          "type": "uint256"
        }
      ],
      "name": "underwrite",
      "outputs": [],
      "payable": false,
      "stateMutability": "nonpayable",
      "type": "function"
    },
    {
      "constant": false,
      "inputs": [
        {
          "internalType": "uint256",
          "name": "_policyId",
          "type": "uint256"
        },
        {
          "internalType": "bytes32",
          "name": "_reason",
          "type": "bytes32"
        }
      ],
      "name": "decline",
      "outputs": [],
      "payable": false,
      "stateMutability": "nonpayable",
      "type": "function"
    },
    {
      "constant": false,
      "inputs": [
        {
          "internalType": "uint256",
          "name": "_policyId",
          "type": "uint256"
        },
        {
          "internalType": "string",
          "name": "_reason",
          "type": "string"
        }
      ],
      "name": "newClaim",
      "outputs": [],
      "payable": false,
      "stateMutability": "nonpayable",
      "type": "function"
    },
    {
      "constant": false,
      "inputs": [
        {
          "internalType": "uint256",
          "name": "_policyId",
          "type": "uint256"
        }
      ],
      "name": "expire",
      "outputs": [],
      "payable": false,
      "stateMutability": "nonpayable",
      "type": "function"
    },
    {
      "constant": false,
      "inputs": [
        {
          "internalType": "uint256",
          "name": "_claimId",
          "type": "uint256"
        },
        {
          "internalType": "string",
          "name": "_reason",
          "type": "string"
        }
      ],
      "name": "rejectClaim",
      "outputs": [],
      "payable": false,
      "stateMutability": "nonpayable",
      "type": "function"
    },
    {
      "constant": false,
      "inputs": [
        {
          "internalType": "uint256",
          "name": "_claimId",
          "type": "uint256"
        },
        {
          "internalType": "string",
          "name": "_reason",
          "type": "string"
        }
      ],
      "name": "confirmClaim",
      "outputs": [],
      "payable": false,
      "stateMutability": "nonpayable",
      "type": "function"
    },
    {
      "constant": false,
      "inputs": [
        {
          "internalType": "uint256",
          "name": "_policyId",
          "type": "uint256"
        },
        {
          "internalType": "bytes32",
          "name": "_proof",
          "type": "bytes32"
        }
      ],
      "name": "confirmPayout",
      "outputs": [],
      "payable": false,
      "stateMutability": "nonpayable",
      "type": "function"
    },
    {
      "constant": true,
      "inputs": [],
      "name": "getPoliciesCount",
      "outputs": [
        {
          "internalType": "uint256",
          "name": "_count",
          "type": "uint256"
        }
      ],
      "payable": false,
      "stateMutability": "view",
      "type": "function"
    },
    {
      "constant": true,
      "inputs": [],
      "name": "getClaimsCount",
      "outputs": [
        {
          "internalType": "uint256",
          "name": "_count",
          "type": "uint256"
        }
      ],
      "payable": false,
      "stateMutability": "view",
      "type": "function"
    }
  ],
  "bytecode": "0x60806040526000610017640100000000610066810204565b60008054600160a060020a031916600160a060020a0383169081178255604051929350917f8be0079c531659141344cd1fd0a4f28419497f9722a3daafe3b4186f6b6457e0908290a35061006a565b3390565b6114b9806100796000396000f3fe608060405234801561001057600080fd5b5060043610610128576000357c0100000000000000000000000000000000000000000000000000000000900480638f32d59b116100bf578063bf81bf431161008e578063bf81bf43146103b2578063d3e89483146103cf578063eaf75b4614610456578063f2fde38b146104cd578063f9e4181d146104f357610128565b80638f32d59b146102b3578063965abf67146102cf5780639fd0457a146102d7578063a888c2cd146102fa57610128565b80636be60f8b116100fb5780636be60f8b14610227578063715018a6146102445780638993021b1461024c5780638da5cb5b1461028f57610128565b806331460e9d1461012d5780633577a5ad146101735780633ef8f2ba146101ea5780636a49820414610204575b600080fd5b610171600480360360e081101561014357600080fd5b5080359060208101359060408101359060608101359060ff6080820135169060a08101359060c0013561056a565b005b6101716004803603604081101561018957600080fd5b813591908101906040810160208201356401000000008111156101ab57600080fd5b8201836020820111156101bd57600080fd5b803590602001918460018302840111640100000000831117156101df57600080fd5b5090925090506106db565b6101f26107f5565b60408051918252519081900360200190f35b6101716004803603604081101561021a57600080fd5b50803590602001356107fb565b6101716004803603602081101561023d57600080fd5b5035610898565b610171610954565b6102696004803603602081101561026257600080fd5b50356109f5565b604080519485526020850193909352838301919091526060830152519081900360800190f35b610297610a1e565b60408051600160a060020a039092168252519081900360200190f35b6102bb610a2e565b604080519115158252519081900360200190f35b6101f2610a52565b610171600480360360408110156102ed57600080fd5b5080359060200135610a58565b6103176004803603602081101561031057600080fd5b5035610b0a565b6040518085815260200184600281111561032d57fe5b60ff16815260200183815260200180602001828103825283818151815260200191508051906020019080838360005b8381101561037457818101518382015260200161035c565b50505050905090810190601f1680156103a15780820380516001836020036101000a031916815260200191505b509550505050505060405180910390f35b610171600480360360208110156103c857600080fd5b5035610bd2565b6103ec600480360360208110156103e557600080fd5b5035610c8d565b604051808a815260200189815260200188815260200187815260200186815260200185600381111561041a57fe5b60ff16815260200184600581111561042e57fe5b60ff168152602001838152602001828152602001995050505050505050505060405180910390f35b6101716004803603604081101561046c57600080fd5b8135919081019060408101602082013564010000000081111561048e57600080fd5b8201836020820111156104a057600080fd5b803590602001918460018302840111640100000000831117156104c257600080fd5b509092509050610cec565b610171600480360360208110156104e357600080fd5b5035600160a060020a0316610e50565b6101716004803603604081101561050957600080fd5b8135919081019060408101602082013564010000000081111561052b57600080fd5b82018360208201111561053d57600080fd5b8035906020019184600183028401116401000000008311171561055f57600080fd5b509092509050610ea6565b610572610a2e565b6105b4576040805160e560020a62461bcd0281526020600482018190526024820152600080516020611465833981519152604482015290519081900360640190fd5b600085116105c157600080fd5b600084116105ce57600080fd5b4282116105da57600080fd5b6040805160208082018490528183018a9052426060808401919091528351808403909101815260809092019092528051910120600180546000916106209082810161127e565b60008381526003602052604081206001805493945090928490811061064157fe5b600091825260209091208c845560018085018d905560038086018c905560028087018b905560089094029092018881559283018c90558083018790556005830180549394508a93909260ff199091169190849081111561069d57fe5b02179055506106ce8360007f4170706c69656420627920637573746f6d657200000000000000000000000000610fe0565b5050505050505050505050565b6106e3610a2e565b610725576040805160e560020a62461bcd0281526020600482018190526024820152600080516020611465833981519152604482015290519081900360640190fd5b60006002848154811061073457fe5b906000526020600020906004020190506000600182600001548154811061075757fe5b6000918252602090912060089091020190506001600582810154610100900460ff169081111561078357fe5b1461078d57600080fd5b6000600183015460ff1660028111156107a257fe5b146107ac57600080fd5b6107ee85600186868080601f01602080910402602001604051908101604052809392919081815260200183838082843760009201919091525061109992505050565b5050505050565b60025490565b610803610a2e565b610845576040805160e560020a62461bcd0281526020600482018190526024820152600080516020611465833981519152604482015290519081900360640190fd5b60006001838154811061085457fe5b6000918252602082206008909102019150600582810154610100900460ff169081111561087d57fe5b1461088757600080fd5b61089383600584610fe0565b505050565b6108a0610a2e565b6108e2576040805160e560020a62461bcd0281526020600482018190526024820152600080516020611465833981519152604482015290519081900360640190fd5b6000600182815481106108f157fe5b6000918252602082206008909102019150600582810154610100900460ff169081111561091a57fe5b1461092457600080fd5b6109508260017f556e6465727772697474656e0000000000000000000000000000000000000000610fe0565b5050565b61095c610a2e565b61099e576040805160e560020a62461bcd0281526020600482018190526024820152600080516020611465833981519152604482015290519081900360640190fd5b60008054604051600160a060020a03909116907f8be0079c531659141344cd1fd0a4f28419497f9722a3daafe3b4186f6b6457e0908390a36000805473ffffffffffffffffffffffffffffffffffffffff19169055565b600360208190526000918252604090912080546001820154600283015492909301549092919084565b600054600160a060020a03165b90565b60008054600160a060020a0316610a436111ca565b600160a060020a031614905090565b60015490565b610a60610a2e565b610aa2576040805160e560020a62461bcd0281526020600482018190526024820152600080516020611465833981519152604482015290519081900360640190fd5b600060018381548110610ab157fe5b6000918252602090912060089091020190506002600582810154610100900460ff1690811115610add57fe5b14610ae757600080fd5b610af383600384610fe0565b600381018054600490920191909155600090555050565b60028181548110610b1757fe5b60009182526020918290206004919091020180546001808301546002808501546003860180546040805161010097831615979097026000190190911693909304601f810189900489028601890190935282855294975060ff9092169591949391830182828015610bc85780601f10610b9d57610100808354040283529160200191610bc8565b820191906000526020600020905b815481529060010190602001808311610bab57829003601f168201915b5050505050905084565b610bda610a2e565b610c1c576040805160e560020a62461bcd0281526020600482018190526024820152600080516020611465833981519152604482015290519081900360640190fd5b600060018281548110610c2b57fe5b600091825260208083206001600890930201918201548352600390526040909120600281015491925090421015610c6157600080fd5b6108938360047f4578706972656400000000000000000000000000000000000000000000000000610fe0565b60018181548110610c9a57fe5b600091825260209091206008909102018054600182015460028301546003840154600485015460058601546006870154600790970154959750939592949193909260ff80831693610100909304169189565b610cf4610a2e565b610d36576040805160e560020a62461bcd0281526020600482018190526024820152600080516020611465833981519152604482015290519081900360640190fd5b600060028481548110610d4557fe5b9060005260206000209060040201905060006001826000015481548110610d6857fe5b60009182526020808320600160089093020182810154845260039091526040909220919250600583810154610100900460ff1690811115610da557fe5b14610daf57600080fd5b6000600184015460ff166002811115610dc457fe5b14610dce57600080fd5b610e1086600287878080601f01602080910402602001604051908101604052809392919081815260200183838082843760009201919091525061109992505050565b600380820154908301558254610e489060027f436c61696d20697320636f6e6669726d65640000000000000000000000000000610fe0565b505050505050565b610e58610a2e565b610e9a576040805160e560020a62461bcd0281526020600482018190526024820152600080516020611465833981519152604482015290519081900360640190fd5b610ea3816111ce565b50565b610eae610a2e565b610ef0576040805160e560020a62461bcd0281526020600482018190526024820152600080516020611465833981519152604482015290519081900360640190fd5b600060018481548110610eff57fe5b60009182526020808320600160089093020182810154845260039091526040909220919250600583810154610100900460ff1690811115610f3c57fe5b14610f4657600080fd5b8060020154421115610f5757600080fd5b60028054600091610f6b90600183016112aa565b9050600060028281548110610f7c57fe5b90600052602060002090600402019050868160000181905550610fd782600088888080601f01602080910402602001604051908101604052809392919081815260200183838082843760009201919091525061109992505050565b50505050505050565b600060018481548110610fef57fe5b90600052602060002090600802019050828160050160016101000a81548160ff0219169083600581111561101f57fe5b02179055504281600601819055508181600701819055507fa0f11a743858f68e4c4fc054666c71c8a6c8b17e05a9924bff247a8fb60def3e848442856040518085815260200184600581111561107157fe5b60ff16815260200183815260200182815260200194505050505060405180910390a150505050565b6000600284815481106110a857fe5b90600052602060002090600402019050828160010160006101000a81548160ff021916908360028111156110d857fe5b021790555042600282015581516110f890600383019060208501906112d6565b507f5f166a414ad4071321f3746ea9d4aab53d63fe06ba8d4058a4ab2c7b615c58868482600001548542866040518086815260200185815260200184600281111561113f57fe5b60ff16815260200183815260200180602001828103825283818151815260200191508051906020019080838360005b8381101561118657818101518382015260200161116e565b50505050905090810190601f1680156111b35780820380516001836020036101000a031916815260200191505b50965050505050505060405180910390a150505050565b3390565b600160a060020a0381166112165760405160e560020a62461bcd02815260040180806020018281038252602681526020018061143f6026913960400191505060405180910390fd5b60008054604051600160a060020a03808516939216917f8be0079c531659141344cd1fd0a4f28419497f9722a3daafe3b4186f6b6457e091a36000805473ffffffffffffffffffffffffffffffffffffffff1916600160a060020a0392909216919091179055565b815481835581811115610893576008028160080283600052602060002091820191016108939190611354565b8154818355818111156108935760040281600402836000526020600020918201910161089391906113a4565b828054600181600116156101000203166002900490600052602060002090601f016020900481019282601f1061131757805160ff1916838001178555611344565b82800160010185558215611344579182015b82811115611344578251825591602001919060010190611329565b506113509291506113e0565b5090565b610a2b91905b808211156113505760008082556001820181905560028201819055600382018190556004820181905560058201805461ffff1916905560068201819055600782015560080161135a565b610a2b91905b8082111561135057600080825560018201805460ff19169055600282018190556113d760038301826113fa565b506004016113aa565b610a2b91905b8082111561135057600081556001016113e6565b50805460018160011615610100020316600290046000825580601f106114205750610ea3565b601f016020900490600052602060002090810190610ea391906113e056fe4f776e61626c653a206e6577206f776e657220697320746865207a65726f20616464726573734f776e61626c653a2063616c6c6572206973206e6f7420746865206f776e6572a265627a7a72315820ec0c7ebbc1d718d5ae4f70a5b9ef2d62e3fbe6583a86498b593301bb76c6176464736f6c63430005100032",
  "source": "pragma solidity ^0.5.12;\n\n\nimport \"openzeppelin-solidity/contracts/ownership/Ownable.sol\";\n\n\ncontract EStoreInsurance is Ownable {\n\n    // Policy livecycle states\n    enum PolicyState { Applied, Accepted, ForPayout, PaidOut, Expired, Declined }\n\n    // Claim livecycle states\n    enum ClaimState { Applied, Rejected, Confirmed }\n\n    // List of available currencies for payments and payouts\n    enum Currency { EUR, USD, GBP, CZK }\n\n    struct Policy {\n        // 0 - customer id in the external database\n        bytes32 customerExternalId;\n        // 1 - pointer to the risk in the risks mapping\n        bytes32 riskId;\n        // 2 - premium\n        uint256 premium;\n        // 3 - expected Payout\n        uint256 expectedPayout;\n        // 4 - actual Payout\n        uint256 actualPayout;\n        // 5 - currency\n        Currency currency;\n        // 6 - state of the policy\n        PolicyState state;\n        // 7 - time of the last state change\n        uint256 stateTime;\n        // 8 - state change message/reason\n        bytes32 stateMessage;\n    }\n\n    struct Risk {\n        bytes32 vendorCode;\n        bytes32 product;\n        uint256 expiration;\n        uint256 sumInsured;\n    }\n\n    struct Claim {\n        uint256 policyId;\n        ClaimState state;\n        uint256 stateTime;\n        string stateMessage;\n    }\n\n    Policy[] public policies;\n\n    Claim[] public claims;\n\n    mapping(bytes32 => Risk) public risks;\n\n    event LogPolicySetState(\n        uint256 _policyId,\n        PolicyState _state,\n        uint256 _stateTime,\n        bytes32 _stateMessage\n    );\n\n    event LogClaimSetState(\n        uint256 _claimId,\n        uint256 _policyId,\n        ClaimState _state,\n        uint256 _stateTime,\n        string _stateMessage\n    );\n\n    function newPolicy(\n        bytes32 _vendorCode,\n        bytes32 _product,\n        uint256 _premium,\n        uint256 _sumInsured,\n        Currency _currency,\n        uint256 _expiration,\n        bytes32 _customerExternalId\n    ) external onlyOwner {\n        require(_premium > 0);\n        require(_sumInsured > 0);\n        require(_expiration > block.timestamp);\n\n        bytes32 _riskId = keccak256(abi.encodePacked(_customerExternalId, _vendorCode, block.timestamp));\n        uint256 _policyId = policies.length++;\n\n        Risk storage risk = risks[_riskId];\n        Policy storage policy = policies[_policyId];\n\n        risk.vendorCode = _vendorCode;\n        risk.product = _product;\n        risk.sumInsured = _sumInsured;\n        risk.expiration = _expiration;\n\n        policy.customerExternalId = _customerExternalId;\n        policy.premium = _premium;\n        policy.riskId = _riskId;\n        policy.currency = _currency;\n\n        _setPolicyState(_policyId, PolicyState.Applied, \"Applied by customer\");\n    }\n\n    function underwrite(uint256 _policyId) external onlyOwner {\n        Policy storage policy = policies[_policyId];\n        require(policy.state == PolicyState.Applied);\n\n        _setPolicyState(_policyId, PolicyState.Accepted, \"Underwritten\");\n    }\n\n    function decline(uint256 _policyId, bytes32 _reason) external onlyOwner {\n        Policy storage policy = policies[_policyId];\n        require(policy.state == PolicyState.Applied);\n\n        _setPolicyState(_policyId, PolicyState.Declined, _reason);\n    }\n\n    function newClaim(uint256 _policyId, string calldata _reason) external onlyOwner {\n        Policy storage policy = policies[_policyId];\n        Risk storage risk = risks[policy.riskId];\n\n        require(policy.state == PolicyState.Accepted);\n        require(block.timestamp <= risk.expiration);\n\n        uint256 _claimId = claims.length++;\n        Claim storage claim = claims[_claimId];\n        claim.policyId = _policyId;\n\n        _setClaimState(_claimId, ClaimState.Applied, _reason);\n    }\n\n    function expire(uint256 _policyId) external onlyOwner {\n        Policy storage policy = policies[_policyId];\n        Risk storage risk = risks[policy.riskId];\n\n        require(block.timestamp >= risk.expiration);\n\n        _setPolicyState(_policyId, PolicyState.Expired, \"Expired\");\n    }\n\n    function rejectClaim(uint256 _claimId, string calldata _reason) external onlyOwner {\n        Claim storage claim = claims[_claimId];\n        Policy storage policy = policies[claim.policyId];\n\n        require(policy.state == PolicyState.Accepted);\n        require(claim.state == ClaimState.Applied);\n\n        _setClaimState(_claimId, ClaimState.Rejected, _reason);\n    }\n\n    function confirmClaim(uint256 _claimId, string calldata _reason) external onlyOwner {\n        Claim storage claim = claims[_claimId];\n        Policy storage policy = policies[claim.policyId];\n        Risk storage risk = risks[policy.riskId];\n\n        require(policy.state == PolicyState.Accepted);\n        require(claim.state == ClaimState.Applied);\n\n        _setClaimState(_claimId, ClaimState.Confirmed, _reason);\n\n        policy.expectedPayout = risk.sumInsured;\n\n        _setPolicyState(claim.policyId, PolicyState.ForPayout, \"Claim is confirmed\");\n    }\n\n    function confirmPayout(uint256 _policyId, bytes32 _proof) external onlyOwner {\n        Policy storage policy = policies[_policyId];\n        require(policy.state == PolicyState.ForPayout);\n\n        _setPolicyState(_policyId, PolicyState.PaidOut, _proof);\n\n        policy.actualPayout = policy.expectedPayout;\n        policy.expectedPayout = 0;\n    }\n\n    function getPoliciesCount() public view returns (uint256 _count) {\n        _count = policies.length;\n    }\n\n    function getClaimsCount() public view returns (uint256 _count) {\n        _count = claims.length;\n    }\n\n    function _setPolicyState(uint256 _policyId, PolicyState _newState, bytes32 _stateMessage) internal {\n        Policy storage policy = policies[_policyId];\n\n        policy.state = _newState;\n        policy.stateTime = block.timestamp;\n        policy.stateMessage = _stateMessage;\n\n        emit LogPolicySetState(_policyId, _newState, block.timestamp, _stateMessage);\n    }\n\n    function _setClaimState(uint256 _claimId, ClaimState _claimState, string memory _reason) internal {\n        Claim storage claim = claims[_claimId];\n\n        claim.state = _claimState;\n        claim.stateTime = block.timestamp;\n        claim.stateMessage = _reason;\n\n        emit LogClaimSetState(_claimId, claim.policyId, _claimState, block.timestamp, _reason);\n    }\n}\n",
  "sourcePath": "/home/christoph/Documents/sandbox/GIF/dip-platform/app_microservices/estore_contracts/contracts/EStoreInsurance.sol",
  "compiler": {
    "name": "solc",
    "version": "0.5.16+commit.9c3226ce.Emscripten.clang"
  },
  "schemaVersion": "3.0.21",
  "updatedAt": "2020-02-05T08:37:17.635Z",
  "devdoc": {
    "methods": {
      "isOwner()": {
        "details": "Returns true if the caller is the current owner."
      },
      "owner()": {
        "details": "Returns the address of the current owner."
      },
      "renounceOwnership()": {
        "details": "Leaves the contract without owner. It will not be possible to call `onlyOwner` functions anymore. Can only be called by the current owner.     * NOTE: Renouncing ownership will leave the contract without an owner, thereby removing any functionality that is only available to the owner."
      },
      "transferOwnership(address)": {
        "details": "Transfers ownership of the contract to a new account (`newOwner`). Can only be called by the current owner."
      }
    }
  },
  "userdoc": {
    "methods": {}
  }
}