{
  "contractName": "FlightDelayOraclize",
  "abi": [
    {
      "constant": true,
      "inputs": [
        {
          "name": "",
          "type": "address"
        }
      ],
      "name": "permissions",
      "outputs": [
        {
          "name": "",
          "type": "uint256"
        }
      ],
      "payable": false,
      "stateMutability": "view",
      "type": "function",
      "signature": "0x01e88208"
    },
    {
      "constant": true,
      "inputs": [],
      "name": "POLICY_FLOW",
      "outputs": [
        {
          "name": "",
          "type": "bytes32"
        }
      ],
      "payable": false,
      "stateMutability": "view",
      "type": "function",
      "signature": "0x09128d83"
    },
    {
      "constant": true,
      "inputs": [],
      "name": "maintenanceMode",
      "outputs": [
        {
          "name": "",
          "type": "bool"
        }
      ],
      "payable": false,
      "stateMutability": "view",
      "type": "function",
      "signature": "0x25dce0a6"
    },
    {
      "constant": true,
      "inputs": [
        {
          "name": "",
          "type": "uint256"
        }
      ],
      "name": "rolesKeys",
      "outputs": [
        {
          "name": "",
          "type": "bytes32"
        }
      ],
      "payable": false,
      "stateMutability": "view",
      "type": "function",
      "signature": "0x2cf88d9e"
    },
    {
      "constant": true,
      "inputs": [],
      "name": "MIN_OBSERVATIONS",
      "outputs": [
        {
          "name": "",
          "type": "uint256"
        }
      ],
      "payable": false,
      "stateMutability": "view",
      "type": "function",
      "signature": "0x39cee407"
    },
    {
      "constant": true,
      "inputs": [],
      "name": "MAX_PAYOUT",
      "outputs": [
        {
          "name": "",
          "type": "uint256"
        }
      ],
      "payable": false,
      "stateMutability": "view",
      "type": "function",
      "signature": "0x4b9ddafe"
    },
    {
      "constant": true,
      "inputs": [],
      "name": "MAX_PREMIUM",
      "outputs": [
        {
          "name": "",
          "type": "uint256"
        }
      ],
      "payable": false,
      "stateMutability": "view",
      "type": "function",
      "signature": "0x4cdabb16"
    },
    {
      "constant": true,
      "inputs": [
        {
          "name": "",
          "type": "uint256"
        }
      ],
      "name": "requests",
      "outputs": [
        {
          "name": "applicationId",
          "type": "uint256"
        },
        {
          "name": "policyId",
          "type": "uint256"
        },
        {
          "name": "riskId",
          "type": "bytes32"
        }
      ],
      "payable": false,
      "stateMutability": "view",
      "type": "function",
      "signature": "0x81d12c58"
    },
    {
      "constant": true,
      "inputs": [
        {
          "name": "",
          "type": "bytes32"
        }
      ],
      "name": "risks",
      "outputs": [
        {
          "name": "carrierFlightNumber",
          "type": "bytes32"
        },
        {
          "name": "departureYearMonthDay",
          "type": "bytes32"
        },
        {
          "name": "departureTime",
          "type": "uint256"
        },
        {
          "name": "arrivalTime",
          "type": "uint256"
        },
        {
          "name": "delayInMinutes",
          "type": "uint256"
        },
        {
          "name": "delay",
          "type": "uint8"
        },
        {
          "name": "cumulatedWeightedPremium",
          "type": "uint256"
        },
        {
          "name": "premiumMultiplier",
          "type": "uint256"
        },
        {
          "name": "weight",
          "type": "uint256"
        }
      ],
      "payable": false,
      "stateMutability": "view",
      "type": "function",
      "signature": "0x8993021b"
    },
    {
      "constant": true,
      "inputs": [
        {
          "name": "",
          "type": "bytes32"
        }
      ],
      "name": "roles",
      "outputs": [
        {
          "name": "",
          "type": "uint256"
        }
      ],
      "payable": false,
      "stateMutability": "view",
      "type": "function",
      "signature": "0x95356651"
    },
    {
      "constant": true,
      "inputs": [],
      "name": "MAX_FLIGHT_DURATION",
      "outputs": [
        {
          "name": "",
          "type": "uint256"
        }
      ],
      "payable": false,
      "stateMutability": "view",
      "type": "function",
      "signature": "0x972e22eb"
    },
    {
      "constant": true,
      "inputs": [],
      "name": "NAME",
      "outputs": [
        {
          "name": "",
          "type": "bytes32"
        }
      ],
      "payable": false,
      "stateMutability": "view",
      "type": "function",
      "signature": "0xa3f4df7e"
    },
    {
      "constant": true,
      "inputs": [
        {
          "name": "_address",
          "type": "address"
        },
        {
          "name": "_role",
          "type": "bytes32"
        }
      ],
      "name": "hasRole",
      "outputs": [
        {
          "name": "_hasRole",
          "type": "bool"
        }
      ],
      "payable": false,
      "stateMutability": "view",
      "type": "function",
      "signature": "0xac4ab3fb"
    },
    {
      "constant": true,
      "inputs": [],
      "name": "MIN_TIME_BEFORE_DEPARTURE",
      "outputs": [
        {
          "name": "",
          "type": "uint256"
        }
      ],
      "payable": false,
      "stateMutability": "view",
      "type": "function",
      "signature": "0xb7b357ac"
    },
    {
      "constant": true,
      "inputs": [],
      "name": "MIN_PREMIUM",
      "outputs": [
        {
          "name": "",
          "type": "uint256"
        }
      ],
      "payable": false,
      "stateMutability": "view",
      "type": "function",
      "signature": "0xbe5c8f44"
    },
    {
      "constant": false,
      "inputs": [
        {
          "name": "_address",
          "type": "address"
        },
        {
          "name": "_role",
          "type": "bytes32"
        }
      ],
      "name": "addRoleToAccount",
      "outputs": [],
      "payable": false,
      "stateMutability": "nonpayable",
      "type": "function",
      "signature": "0xc2e86735"
    },
    {
      "constant": true,
      "inputs": [],
      "name": "productService",
      "outputs": [
        {
          "name": "",
          "type": "address"
        }
      ],
      "payable": false,
      "stateMutability": "view",
      "type": "function",
      "signature": "0xc37d45bf"
    },
    {
      "constant": false,
      "inputs": [
        {
          "name": "_role",
          "type": "bytes32"
        }
      ],
      "name": "createRole",
      "outputs": [],
      "payable": false,
      "stateMutability": "nonpayable",
      "type": "function",
      "signature": "0xc42994a2"
    },
    {
      "constant": true,
      "inputs": [],
      "name": "developmentMode",
      "outputs": [
        {
          "name": "",
          "type": "bool"
        }
      ],
      "payable": false,
      "stateMutability": "view",
      "type": "function",
      "signature": "0xd6fcaf40"
    },
    {
      "constant": true,
      "inputs": [
        {
          "name": "",
          "type": "uint256"
        }
      ],
      "name": "weightPattern",
      "outputs": [
        {
          "name": "",
          "type": "uint8"
        }
      ],
      "payable": false,
      "stateMutability": "view",
      "type": "function",
      "signature": "0xe32bdf08"
    },
    {
      "constant": false,
      "inputs": [
        {
          "name": "_address",
          "type": "address"
        }
      ],
      "name": "cleanRolesForAccount",
      "outputs": [],
      "payable": false,
      "stateMutability": "nonpayable",
      "type": "function",
      "signature": "0xf566e10e"
    },
    {
      "constant": true,
      "inputs": [],
      "name": "CHECK_PAYOUT_OFFSET",
      "outputs": [
        {
          "name": "",
          "type": "uint256"
        }
      ],
      "payable": false,
      "stateMutability": "view",
      "type": "function",
      "signature": "0xf5fdfce9"
    },
    {
      "constant": true,
      "inputs": [
        {
          "name": "",
          "type": "uint256"
        }
      ],
      "name": "currencies",
      "outputs": [
        {
          "name": "",
          "type": "bytes32"
        }
      ],
      "payable": false,
      "stateMutability": "view",
      "type": "function",
      "signature": "0xf6d1c271"
    },
    {
      "inputs": [
        {
          "name": "_productController",
          "type": "address"
        }
      ],
      "payable": false,
      "stateMutability": "nonpayable",
      "type": "constructor",
      "signature": "constructor"
    },
    {
      "anonymous": false,
      "inputs": [
        {
          "indexed": false,
          "name": "requestId",
          "type": "uint256"
        },
        {
          "indexed": false,
          "name": "carrierFlightNumber",
          "type": "bytes32"
        },
        {
          "indexed": false,
          "name": "departureTime",
          "type": "uint256"
        },
        {
          "indexed": false,
          "name": "arrivalTime",
          "type": "uint256"
        }
      ],
      "name": "LogRequestFlightStatistics",
      "type": "event",
      "signature": "0xe857bff72dd2ed1b8242b825b28a9647d6c9128ca89f6e2f8261ed87ffecd914"
    },
    {
      "anonymous": false,
      "inputs": [
        {
          "indexed": false,
          "name": "requestId",
          "type": "uint256"
        },
        {
          "indexed": false,
          "name": "carrierFlightNumber",
          "type": "bytes32"
        },
        {
          "indexed": false,
          "name": "arrivalTime",
          "type": "uint256"
        }
      ],
      "name": "LogRequestFlightStatus",
      "type": "event",
      "signature": "0x9e0191c34cbc564aac9868f50a4cce5db2f167b44d26c02f50e12298b94407ef"
    },
    {
      "anonymous": false,
      "inputs": [
        {
          "indexed": false,
          "name": "claimId",
          "type": "uint256"
        },
        {
          "indexed": false,
          "name": "payoutId",
          "type": "uint256"
        },
        {
          "indexed": false,
          "name": "amount",
          "type": "uint256"
        }
      ],
      "name": "LogRequestPayout",
      "type": "event",
      "signature": "0x79dd0959b8266d381fe53d8d55bfc1b85a6c72f8e2f7739b7031fe7b2bce1a62"
    },
    {
      "constant": false,
      "inputs": [
        {
          "name": "_carrierFlightNumber",
          "type": "bytes32"
        },
        {
          "name": "_departureYearMonthDay",
          "type": "bytes32"
        },
        {
          "name": "_departureTime",
          "type": "uint256"
        },
        {
          "name": "_arrivalTime",
          "type": "uint256"
        },
        {
          "name": "_premium",
          "type": "uint256"
        },
        {
          "name": "_currency",
          "type": "bytes32"
        },
        {
          "name": "_payoutOptions",
          "type": "uint256[]"
        },
        {
          "name": "_customerExternalId",
          "type": "bytes32"
        }
      ],
      "name": "applyForPolicy",
      "outputs": [],
      "payable": false,
      "stateMutability": "nonpayable",
      "type": "function",
      "signature": "0x26735338"
    },
    {
      "constant": false,
      "inputs": [
        {
          "name": "_requestId",
          "type": "uint256"
        },
        {
          "name": "_response",
          "type": "bytes"
        }
      ],
      "name": "flightStatisticsCallback",
      "outputs": [],
      "payable": false,
      "stateMutability": "nonpayable",
      "type": "function",
      "signature": "0xda65b880"
    },
    {
      "constant": false,
      "inputs": [
        {
          "name": "_requestId",
          "type": "uint256"
        },
        {
          "name": "_response",
          "type": "bytes"
        }
      ],
      "name": "flightStatusCallback",
      "outputs": [],
      "payable": false,
      "stateMutability": "nonpayable",
      "type": "function",
      "signature": "0xac5465a1"
    },
    {
      "constant": false,
      "inputs": [
        {
          "name": "_payoutId",
          "type": "uint256"
        },
        {
          "name": "_sum",
          "type": "uint256"
        }
      ],
      "name": "confirmPayout",
      "outputs": [],
      "payable": false,
      "stateMutability": "nonpayable",
      "type": "function",
      "signature": "0x7f66ae95"
    },
    {
      "constant": true,
      "inputs": [
        {
          "name": "_premium",
          "type": "uint256"
        },
        {
          "name": "_statistics",
          "type": "uint256[6]"
        }
      ],
      "name": "calculatePayouts",
      "outputs": [
        {
          "name": "_weight",
          "type": "uint256"
        },
        {
          "name": "_payoutOptions",
          "type": "uint256[5]"
        }
      ],
      "payable": false,
      "stateMutability": "view",
      "type": "function",
      "signature": "0xc9821073"
    }
  ],
  "bytecode": "0x60806040526000600360006101000a81548160ff0219169083151502179055506000600360016101000a81548160ff0219169083151502179055506020604051908101604052807f455552000000000000000000000000000000000000000000000000000000000081525060049060016200007c9291906200029b565b5060c060405190810160405280600060ff168152602001600060ff168152602001600060ff168152602001601e60ff168152602001603260ff168152602001603260ff168152506005906006620000d5929190620002e0565b50348015620000e357600080fd5b5060405160208062002ce2833981018060405260208110156200010557600080fd5b8101908080519060200190929190505050807f466c6967687444656c61794f7261636c697a65000000000000000000000000007f506f6c696379466c6f7744656661756c7400000000000000000000000000000082600360026101000a81548173ffffffffffffffffffffffffffffffffffffffff021916908373ffffffffffffffffffffffffffffffffffffffff160217905550620001b58282620001bf640100000000026401000000009004565b50505050620003dc565b600360029054906101000a900473ffffffffffffffffffffffffffffffffffffffff1673ffffffffffffffffffffffffffffffffffffffff16632f92673283836040518363ffffffff167c01000000000000000000000000000000000000000000000000000000000281526004018083815260200182815260200192505050602060405180830381600087803b1580156200025957600080fd5b505af11580156200026e573d6000803e3d6000fd5b505050506040513d60208110156200028557600080fd5b8101908080519060200190929190505050505050565b8260018101928215620002cd579160200282015b82811115620002cc578251825591602001919060010190620002af565b5b509050620002dc919062000381565b5090565b826006601f016020900481019282156200036e5791602002820160005b838211156200033d57835183826101000a81548160ff021916908360ff1602179055509260200192600101602081600001049283019260010302620002fd565b80156200036c5782816101000a81549060ff02191690556001016020816000010492830192600103026200033d565b505b5090506200037d9190620003a9565b5090565b620003a691905b80821115620003a257600081600090555060010162000388565b5090565b90565b620003d991905b80821115620003d557600081816101000a81549060ff021916905550600101620003b0565b5090565b90565b6128f680620003ec6000396000f3fe608060405234801561001057600080fd5b50600436106101e1576000357c010000000000000000000000000000000000000000000000000000000090048063ac4ab3fb11610116578063c9821073116100b4578063e32bdf081161008e578063e32bdf08146108a2578063f566e10e146108ea578063f5fdfce91461092e578063f6d1c2711461094c576101e1565b8063c98210731461074b578063d6fcaf40146107fd578063da65b8801461081f576101e1565b8063be5c8f44116100f0578063be5c8f4414610667578063c2e8673514610685578063c37d45bf146106d3578063c42994a21461071d576101e1565b8063ac4ab3fb14610560578063ac5465a1146105c6578063b7b357ac14610649576101e1565b80634cdabb16116101835780638993021b1161015d5780638993021b1461046257806395356651146104e2578063972e22eb14610524578063a3f4df7e14610542576101e1565b80634cdabb16146103bc5780637f66ae95146103da57806381d12c5814610412576101e1565b806326735338116101bf578063267353381461027e5780632cf88d9e1461033e57806339cee407146103805780634b9ddafe1461039e576101e1565b806301e88208146101e657806309128d831461023e57806325dce0a61461025c575b600080fd5b610228600480360360208110156101fc57600080fd5b81019080803573ffffffffffffffffffffffffffffffffffffffff16906020019092919050505061098e565b6040518082815260200191505060405180910390f35b6102466109a6565b6040518082815260200191505060405180910390f35b6102646109ca565b604051808215151515815260200191505060405180910390f35b61033c600480360361010081101561029557600080fd5b81019080803590602001909291908035906020019092919080359060200190929190803590602001909291908035906020019092919080359060200190929190803590602001906401000000008111156102ee57600080fd5b82018360208201111561030057600080fd5b8035906020019184602083028401116401000000008311171561032257600080fd5b9091929391929390803590602001909291905050506109dd565b005b61036a6004803603602081101561035457600080fd5b8101908080359060200190929190505050610f12565b6040518082815260200191505060405180910390f35b610388610f35565b6040518082815260200191505060405180910390f35b6103a6610f3a565b6040518082815260200191505060405180910390f35b6103c4610f40565b6040518082815260200191505060405180910390f35b610410600480360360408110156103f057600080fd5b810190808035906020019092919080359060200190929190505050610f46565b005b61043e6004803603602081101561042857600080fd5b8101908080359060200190929190505050610f55565b60405180848152602001838152602001828152602001935050505060405180910390f35b61048e6004803603602081101561047857600080fd5b8101908080359060200190929190505050610f8e565b604051808a81526020018981526020018881526020018781526020018681526020018560ff1660ff168152602001848152602001838152602001828152602001995050505050505050505060405180910390f35b61050e600480360360208110156104f857600080fd5b8101908080359060200190929190505050610fe9565b6040518082815260200191505060405180910390f35b61052c611001565b6040518082815260200191505060405180910390f35b61054a611008565b6040518082815260200191505060405180910390f35b6105ac6004803603604081101561057657600080fd5b81019080803573ffffffffffffffffffffffffffffffffffffffff1690602001909291908035906020019092919050505061102c565b604051808215151515815260200191505060405180910390f35b610647600480360360408110156105dc57600080fd5b81019080803590602001909291908035906020019064010000000081111561060357600080fd5b82018360208201111561061557600080fd5b8035906020019184600183028401116401000000008311171561063757600080fd5b909192939192939050505061108c565b005b610651611496565b6040518082815260200191505060405180910390f35b61066f61149d565b6040518082815260200191505060405180910390f35b6106d16004803603604081101561069b57600080fd5b81019080803573ffffffffffffffffffffffffffffffffffffffff169060200190929190803590602001909291905050506114a3565b005b6106db611560565b604051808273ffffffffffffffffffffffffffffffffffffffff1673ffffffffffffffffffffffffffffffffffffffff16815260200191505060405180910390f35b6107496004803603602081101561073357600080fd5b8101908080359060200190929190505050611586565b005b6107b8600480360360e081101561076157600080fd5b81019080803590602001909291908060c001906006806020026040519081016040528092919082600660200280828437600081840152601f19601f82011690508083019250505050505091929192905050506115f9565b6040518083815260200182600560200280838360005b838110156107e95780820151818401526020810190506107ce565b505050509050019250505060405180910390f35b6108056118de565b604051808215151515815260200191505060405180910390f35b6108a06004803603604081101561083557600080fd5b81019080803590602001909291908035906020019064010000000081111561085c57600080fd5b82018360208201111561086e57600080fd5b8035906020019184600183028401116401000000008311171561089057600080fd5b90919293919293905050506118f1565b005b6108ce600480360360208110156108b857600080fd5b8101908080359060200190929190505050611d67565b604051808260ff1660ff16815260200191505060405180910390f35b61092c6004803603602081101561090057600080fd5b81019080803573ffffffffffffffffffffffffffffffffffffffff169060200190929190505050611d90565b005b610936611dd6565b6040518082815260200191505060405180910390f35b6109786004803603602081101561096257600080fd5b8101908080359060200190929190505050611ddc565b6040518082815260200191505060405180910390f35b60026020528060005260406000206000915090505481565b7f506f6c696379466c6f7744656661756c7400000000000000000000000000000081565b600360019054906101000a900460ff1681565b6105dc8510151515610a57576040517f08c379a00000000000000000000000000000000000000000000000000000000081526004018080602001828103825260168152602001807f4552524f523a3a494e56414c49445f5052454d49554d0000000000000000000081525060200191505060405180910390fd5b6171488511151515610ad1576040517f08c379a00000000000000000000000000000000000000000000000000000000081526004018080602001828103825260168152602001807f4552524f523a3a494e56414c49445f5052454d49554d0000000000000000000081525060200191505060405180910390fd5b60046000600181101515610ae157fe5b015484141515610b59576040517f08c379a00000000000000000000000000000000000000000000000000000000081526004018080602001828103825260168152602001807f4552524f523a494e56414c49445f43555252454e43590000000000000000000081525060200191505060405180910390fd5b8687101515610bb3576040517f08c379a00000000000000000000000000000000000000000000000000000000081526004018080602001828103825260258152602001806128836025913960400191505060405180910390fd5b6202a300870187111515610c12576040517f08c379a00000000000000000000000000000000000000000000000000000000081526004018080602001828103825260258152602001806128836025913960400191505060405180910390fd5b62015180420187101515610c71576040517f08c379a00000000000000000000000000000000000000000000000000000000081526004018080602001828103825260258152602001806128836025913960400191505060405180910390fd5b60008988886040516020018084815260200183815260200182815260200193505050506040516020818303038152906040528051906020012090506000600660008381526020019081526020016000209050600081600001541415610cf5578a81600001819055508981600101819055508881600201819055508781600301819055505b625b8d8081600601548260070154890201101515610d7b576040517f08c379a00000000000000000000000000000000000000000000000000000000081526004018080602001828103825260138152602001807f4552524f523a3a434c55535445525f5249534b0000000000000000000000000081525060200191505060405180910390fd5b600081600601541415610d9557625b8d8081600601819055505b6000610de4848989898980806020026020016040519081016040528093929190818152602001838360200280828437600081840152601f19601f82011690508083019250505050505050611df6565b9050600060078054809190600101610dfc91906127d3565b90506000600782815481101515610e0f57fe5b90600052602060002090600302019050828160000181905550848160020181905550610eb28e604051602001808281526020019150506040516020818303038152906040526040805190810160405280601881526020017f666c696768745374617469737469637343616c6c6261636b00000000000000008152507f466c69676874526174696e6773000000000000000000000000000000000000006000611f27565b507fe857bff72dd2ed1b8242b825b28a9647d6c9128ca89f6e2f8261ed87ffecd914828f8e8e6040518085815260200184815260200183815260200182815260200194505050505060405180910390a15050505050505050505050505050565b600181815481101515610f2157fe5b906000526020600020016000915090505481565b600a81565b61753081565b61714881565b610f508282612115565b505050565b600781815481101515610f6457fe5b90600052602060002090600302016000915090508060000154908060010154908060020154905083565b60066020528060005260406000206000915090508060000154908060010154908060020154908060030154908060040154908060050160009054906101000a900460ff16908060060154908060070154908060080154905089565b60006020528060005260406000206000915090505481565b6202a30081565b7f466c6967687444656c61794f7261636c697a650000000000000000000000000081565b60008060008084815260200190815260200160002054600260008673ffffffffffffffffffffffffffffffffffffffff1673ffffffffffffffffffffffffffffffffffffffff168152602001908152602001600020541611905092915050565b6000808383604081101561109f57600080fd5b8101908080357effffffffffffffffffffffffffffffffffffffffffffffffffffffffffffff19169060200190929190803590602001909291905050509150915060006007868154811015156110f157fe5b9060005260206000209060030201600101549050600060078781548110151561111657fe5b90600052602060002090600302016000015490506060611135826121f3565b905060007f4c00000000000000000000000000000000000000000000000000000000000000867effffffffffffffffffffffffffffffffffffffffffffffffffffffffffffff1916141580156111cd57507f4100000000000000000000000000000000000000000000000000000000000000867effffffffffffffffffffffffffffffffffffffffffffffffffffffffffffff191614155b801561121b57507f4300000000000000000000000000000000000000000000000000000000000000867effffffffffffffffffffffffffffffffffffffffffffffffffffffffffffff191614155b801561126957507f4400000000000000000000000000000000000000000000000000000000000000867effffffffffffffffffffffffffffffffffffffffffffffffffffffffffffff191614155b1561127957505050505050611491565b7f4300000000000000000000000000000000000000000000000000000000000000867effffffffffffffffffffffffffffffffffffffffffffffffffffffffffffff191614156112e3578160038151811015156112d257fe5b90602001906020020151905061148a565b7f4400000000000000000000000000000000000000000000000000000000000000867effffffffffffffffffffffffffffffffffffffffffffffffffffffffffffff1916141561134d5781600481518110151561133c57fe5b906020019060200201519050611489565b7f4100000000000000000000000000000000000000000000000000000000000000867effffffffffffffffffffffffffffffffffffffffffffffffffffffffffffff1916141561139c57611488565b601e85131561147d57602d8513156113ce578160018151811015156113bd57fe5b906020019060200201519050611414565b603c8513156113f7578160028151811015156113e657fe5b906020019060200201519050611413565b81600081518110151561140657fe5b9060200190602002015190505b5b600061141f8561231e565b9050600061142d82846123f3565b90507f79dd0959b8266d381fe53d8d55bfc1b85a6c72f8e2f7739b7031fe7b2bce1a6282828560405180848152602001838152602001828152602001935050505060405180910390a15050611487565b611486846124d1565b5b5b5b5b5050505050505b505050565b6201518081565b6105dc81565b600080600083815260200190815260200160002054141515156114c557600080fd5b60008082815260200190815260200160002054600260008473ffffffffffffffffffffffffffffffffffffffff1673ffffffffffffffffffffffffffffffffffffffff1681526020019081526020016000205417600260008473ffffffffffffffffffffffffffffffffffffffff1673ffffffffffffffffffffffffffffffffffffffff168152602001908152602001600020819055505050565b600360029054906101000a900473ffffffffffffffffffffffffffffffffffffffff1681565b6000806000838152602001908152602001600020541415156115a757600080fd5b60018054905060019060020a0260008083815260200190815260200160002081905550600181908060018154018082558091505090600182039060005260206000200160009091929091909150555050565b6000611603612805565b6105dc841015151561167d576040517f08c379a00000000000000000000000000000000000000000000000000000000081526004018080602001828103825260168152602001807f4552524f523a3a494e56414c49445f5052454d49554d0000000000000000000081525060200191505060405180910390fd5b61714884111515156116f7576040517f08c379a00000000000000000000000000000000000000000000000000000000081526004018080602001828103825260168152602001807f4552524f523a3a494e56414c49445f5052454d49554d0000000000000000000081525060200191505060405180910390fd5b600a83600060068110151561170857fe5b6020020151111515611782576040517f08c379a00000000000000000000000000000000000000000000000000000000081526004018080602001828103825260178152602001807f4552524f523a3a4c4f575f4f42534552564154494f4e5300000000000000000081525060200191505060405180910390fd5b6000600190505b6006811015611801578360006006811015156117a157fe5b602002015161271085836006811015156117b757fe5b60200201516005846006811015156117cb57fe5b602091828204019190069054906101000a900460ff1660ff1602028115156117ef57fe5b04830192508080600101915050611789565b5060008214156118305782600060068110151561181a57fe5b6020020151620186a081151561182c57fe5b0491505b60008090505b60058110156118d6578261271060056001840160068110151561185557fe5b602091828204019190069054906101000a900460ff1660ff1687020281151561187a57fe5b04828260058110151561188957fe5b60200201818152505061753082826005811015156118a357fe5b602002015111156118c95761753082826005811015156118bf57fe5b6020020181815250505b8080600101915050611836565b509250929050565b600360009054906101000a900460ff1681565b6118f9612828565b828260c081101561190957600080fd5b810190808060c001906006806020026040519081016040528092919082600660200280828437600081840152601f19601f82011690508083019250505050505091929192905050509050600060078581548110151561196457fe5b9060005260206000209060030201600001549050600a82600060068110151561198957fe5b60200201511115156119a55761199e8161257d565b5050611d62565b60006119b082612629565b905060606119bd836121f3565b905060006119c9612805565b6119d384876115f9565b9150915060058351141515611a33576040517f08c379a00000000000000000000000000000000000000000000000000000000081526004018080602001828103825260238152602001806128a86023913960400191505060405180910390fd5b60008090505b6005811015611b14578181600581101515611a5057fe5b60200201518482815181101515611a6357fe5b90602001906020020151141515611ae2576040517f08c379a000000000000000000000000000000000000000000000000000000000815260040180806020018281038252601c8152602001807f4552524f523a3a494e56414c49445f5041594f55545f4f5054494f4e0000000081525060200191505060405180910390fd5b6175308482815181101515611af357fe5b9060200190602002015111151515611b0757fe5b8080600101915050611a39565b50600060078a815481101515611b2657fe5b9060005260206000209060030201600201549050600060066000838152602001908152602001600020600701541415611ba2576127108502600660008381526020019081526020016000206006018190555082620186a0811515611b8657fe5b0460066000838152602001908152602001600020600701819055505b8260066000838152602001908152602001600020600801819055506000611bc8876126fe565b9050600060078054809190600101611be091906127d3565b90506000600782815481101515611bf357fe5b90600052602060002090600302019050828160010181905550611ce3610384600660008781526020019081526020016000206003015401600660008781526020019081526020016000206000015460066000888152602001908152602001600020600101546040516020018084815260200183815260200182815260200193505050506040516020818303038152906040526040805190810160405280601481526020017f666c6967687453746174757343616c6c6261636b0000000000000000000000008152507f466c6967687453746174757365730000000000000000000000000000000000006001611f27565b507f9e0191c34cbc564aac9868f50a4cce5db2f167b44d26c02f50e12298b94407ef826006600087815260200190815260200160002060000154600660008881526020019081526020016000206003015460405180848152602001838152602001828152602001935050505060405180910390a1505050505050505050505b505050565b600581600681101515611d7657fe5b60209182820401919006915054906101000a900460ff1681565b600260008273ffffffffffffffffffffffffffffffffffffffff1673ffffffffffffffffffffffffffffffffffffffff1681526020019081526020016000206000905550565b61038481565b600481600181101515611deb57fe5b016000915090505481565b6000600360029054906101000a900473ffffffffffffffffffffffffffffffffffffffff1673ffffffffffffffffffffffffffffffffffffffff1663dc3addf0868686866040518563ffffffff167c01000000000000000000000000000000000000000000000000000000000281526004018085815260200184815260200183815260200180602001828103825283818151815260200191508051906020019060200280838360005b83811015611eba578082015181840152602081019050611e9f565b5050505090500195505050505050602060405180830381600087803b158015611ee257600080fd5b505af1158015611ef6573d6000803e3d6000fd5b505050506040513d6020811015611f0c57600080fd5b81019080805190602001909291905050509050949350505050565b6000600360029054906101000a900473ffffffffffffffffffffffffffffffffffffffff1673ffffffffffffffffffffffffffffffffffffffff1663d643ece886863087876040518663ffffffff167c01000000000000000000000000000000000000000000000000000000000281526004018080602001806020018673ffffffffffffffffffffffffffffffffffffffff1673ffffffffffffffffffffffffffffffffffffffff168152602001858152602001848152602001838103835288818151815260200191508051906020019080838360005b83811015612019578082015181840152602081019050611ffe565b50505050905090810190601f1680156120465780820380516001836020036101000a031916815260200191505b50838103825287818151815260200191508051906020019080838360005b8381101561207f578082015181840152602081019050612064565b50505050905090810190601f1680156120ac5780820380516001836020036101000a031916815260200191505b50975050505050505050602060405180830381600087803b1580156120d057600080fd5b505af11580156120e4573d6000803e3d6000fd5b505050506040513d60208110156120fa57600080fd5b81019080805190602001909291905050509050949350505050565b6000600360029054906101000a900473ffffffffffffffffffffffffffffffffffffffff1673ffffffffffffffffffffffffffffffffffffffff16635aa6cf9784846040518363ffffffff167c01000000000000000000000000000000000000000000000000000000000281526004018083815260200182815260200192505050602060405180830381600087803b1580156121b057600080fd5b505af11580156121c4573d6000803e3d6000fd5b505050506040513d60208110156121da57600080fd5b8101908080519060200190929190505050905092915050565b6060600360029054906101000a900473ffffffffffffffffffffffffffffffffffffffff1673ffffffffffffffffffffffffffffffffffffffff1663450d512e836040518263ffffffff167c010000000000000000000000000000000000000000000000000000000002815260040180828152602001915050600060405180830381600087803b15801561228657600080fd5b505af115801561229a573d6000803e3d6000fd5b505050506040513d6000823e3d601f19601f8201168201806040525060208110156122c457600080fd5b8101908080516401000000008111156122dc57600080fd5b828101905060208101848111156122f257600080fd5b815185602082028301116401000000008211171561230f57600080fd5b50509291905050509050919050565b6000600360029054906101000a900473ffffffffffffffffffffffffffffffffffffffff1673ffffffffffffffffffffffffffffffffffffffff166354f3a32c836040518263ffffffff167c010000000000000000000000000000000000000000000000000000000002815260040180828152602001915050602060405180830381600087803b1580156123b157600080fd5b505af11580156123c5573d6000803e3d6000fd5b505050506040513d60208110156123db57600080fd5b81019080805190602001909291905050509050919050565b6000600360029054906101000a900473ffffffffffffffffffffffffffffffffffffffff1673ffffffffffffffffffffffffffffffffffffffff16636afa434084846040518363ffffffff167c01000000000000000000000000000000000000000000000000000000000281526004018083815260200182815260200192505050602060405180830381600087803b15801561248e57600080fd5b505af11580156124a2573d6000803e3d6000fd5b505050506040513d60208110156124b857600080fd5b8101908080519060200190929190505050905092915050565b600360029054906101000a900473ffffffffffffffffffffffffffffffffffffffff1673ffffffffffffffffffffffffffffffffffffffff1663bf81bf43826040518263ffffffff167c010000000000000000000000000000000000000000000000000000000002815260040180828152602001915050600060405180830381600087803b15801561256257600080fd5b505af1158015612576573d6000803e3d6000fd5b5050505050565b600360029054906101000a900473ffffffffffffffffffffffffffffffffffffffff1673ffffffffffffffffffffffffffffffffffffffff1663a0355f4e826040518263ffffffff167c010000000000000000000000000000000000000000000000000000000002815260040180828152602001915050600060405180830381600087803b15801561260e57600080fd5b505af1158015612622573d6000803e3d6000fd5b5050505050565b6000600360029054906101000a900473ffffffffffffffffffffffffffffffffffffffff1673ffffffffffffffffffffffffffffffffffffffff16631bf1fffb836040518263ffffffff167c010000000000000000000000000000000000000000000000000000000002815260040180828152602001915050602060405180830381600087803b1580156126bc57600080fd5b505af11580156126d0573d6000803e3d6000fd5b505050506040513d60208110156126e657600080fd5b81019080805190602001909291905050509050919050565b6000600360029054906101000a900473ffffffffffffffffffffffffffffffffffffffff1673ffffffffffffffffffffffffffffffffffffffff16636be60f8b836040518263ffffffff167c010000000000000000000000000000000000000000000000000000000002815260040180828152602001915050602060405180830381600087803b15801561279157600080fd5b505af11580156127a5573d6000803e3d6000fd5b505050506040513d60208110156127bb57600080fd5b81019080805190602001909291905050509050919050565b815481835581811115612800576003028160030283600052602060002091820191016127ff919061284b565b5b505050565b60a060405190810160405280600590602082028038833980820191505090505090565b60c060405190810160405280600690602082028038833980820191505090505090565b61287f91905b8082111561287b576000808201600090556001820160009055600282016000905550600301612851565b5090565b9056fe4552524f523a3a494e56414c49445f4152524956414c2f4445504152545552455f54494d454552524f523a3a494e56414c49445f5041594f55545f4f5054494f4e535f434f554e54a165627a7a723058204c6bc290f8be09e2138f60b698b737025478b2e21fe1f47a42627fff97df20340029",
  "source": "pragma solidity 0.5.2;\n\nimport \"../../InsuranceProduct.sol\";\n\ncontract FlightDelayOraclize is InsuranceProduct {\n    event LogRequestFlightStatistics(\n        uint256 requestId,\n        bytes32 carrierFlightNumber,\n        uint256 departureTime,\n        uint256 arrivalTime\n    );\n\n    event LogRequestFlightStatus(\n        uint256 requestId,\n        bytes32 carrierFlightNumber,\n        uint256 arrivalTime\n    );\n\n    event LogRequestPayout(uint256 claimId, uint256 payoutId, uint256 amount);\n\n    bytes32 public constant NAME = \"FlightDelayOraclize\";\n    bytes32 public constant POLICY_FLOW = \"PolicyFlowDefault\";\n\n    // Minimum observations for valid prediction\n    uint256 public constant MIN_OBSERVATIONS = 10;\n    // Minimum time before departure for applying\n    uint256 public constant MIN_TIME_BEFORE_DEPARTURE = 24 hours;\n    // Maximum duration of flight\n    uint256 public constant MAX_FLIGHT_DURATION = 2 days;\n    // Check for delay after .. minutes after scheduled arrival\n    uint256 public constant CHECK_PAYOUT_OFFSET = 15 minutes;\n\n    // All amounts expected to be provided in a currencys smallest unit\n    // E.g. 10 EUR = 1000 (1000 cents)\n    uint256 public constant MIN_PREMIUM = 1500;\n    uint256 public constant MAX_PREMIUM = 29000;\n    uint256 public constant MAX_PAYOUT = 30000;\n\n    bytes32[1] public currencies = [bytes32(\"EUR\")];\n\n    // ['observations','late15','late30','late45','cancelled','diverted']\n    uint8[6] public weightPattern = [0, 0, 0, 30, 50, 50];\n\n    // Maximum cumulated weighted premium per risk\n    uint256 constant MAX_CUMULATED_WEIGHTED_PREMIUM = 6000000;\n\n    struct Risk {\n        bytes32 carrierFlightNumber;\n        bytes32 departureYearMonthDay;\n        uint256 departureTime;\n        uint256 arrivalTime;\n        uint delayInMinutes;\n        uint8 delay;\n        uint256 cumulatedWeightedPremium;\n        uint256 premiumMultiplier;\n        uint256 weight;\n    }\n\n    struct RequestMetadata {\n        uint256 applicationId;\n        uint256 policyId;\n        bytes32 riskId;\n    }\n\n    mapping(bytes32 => Risk) public risks;\n\n    RequestMetadata[] public requests;\n\n    constructor(address _productController)\n        public\n        InsuranceProduct(_productController, NAME, POLICY_FLOW)\n    {}\n\n    function applyForPolicy(\n        // domain specific\n        bytes32 _carrierFlightNumber,\n        bytes32 _departureYearMonthDay,\n        uint256 _departureTime,\n        uint256 _arrivalTime,\n        // premium\n        uint256 _premium,\n        bytes32 _currency,\n        uint256[] calldata _payoutOptions,\n        // customer\n        bytes32 _customerExternalId\n    ) external {\n        // Validate input parameters\n        require(_premium >= MIN_PREMIUM, \"ERROR::INVALID_PREMIUM\");\n        require(_premium <= MAX_PREMIUM, \"ERROR::INVALID_PREMIUM\");\n        require(_currency == currencies[0], \"ERROR:INVALID_CURRENCY\");\n        require(\n            _departureTime < _departureTime,\n            \"ERROR::INVALID_ARRIVAL/DEPARTURE_TIME\"\n        );\n        require(\n            _departureTime > _departureTime + MAX_FLIGHT_DURATION,\n            \"ERROR::INVALID_ARRIVAL/DEPARTURE_TIME\"\n        );\n        require(\n            _departureTime < block.timestamp + MIN_TIME_BEFORE_DEPARTURE,\n            \"ERROR::INVALID_ARRIVAL/DEPARTURE_TIME\"\n        );\n\n        // Create risk if not exists\n        bytes32 riskId = keccak256(\n            abi.encodePacked(_carrierFlightNumber, _departureTime, _arrivalTime)\n        );\n        Risk storage risk = risks[riskId];\n\n        if (risk.carrierFlightNumber == \"\") {\n            risk.carrierFlightNumber = _carrierFlightNumber;\n            risk.departureYearMonthDay = _departureYearMonthDay;\n            risk.departureTime = _departureTime;\n            risk.arrivalTime = _arrivalTime;\n        }\n\n        require(\n            _premium * risk.premiumMultiplier + risk.cumulatedWeightedPremium < MAX_CUMULATED_WEIGHTED_PREMIUM,\n            \"ERROR::CLUSTER_RISK\"\n        );\n\n        if (risk.cumulatedWeightedPremium == 0) {\n            risk.cumulatedWeightedPremium = MAX_CUMULATED_WEIGHTED_PREMIUM;\n        }\n\n        // Create new application\n        uint256 applicationId = newApplication(\n            _customerExternalId,\n            _premium,\n            _currency,\n            _payoutOptions\n        );\n\n        // New request\n        uint256 requestId = requests.length++;\n        RequestMetadata storage requestMetadata = requests[requestId];\n        requestMetadata.applicationId = applicationId;\n        requestMetadata.riskId = riskId;\n\n        request(\n            abi.encode(_carrierFlightNumber),\n            \"flightStatisticsCallback\",\n            \"FlightRatings\",\n            0\n        );\n\n        emit LogRequestFlightStatistics(\n            requestId,\n            _carrierFlightNumber,\n            _departureTime,\n            _arrivalTime\n        );\n    }\n\n    function flightStatisticsCallback(\n        uint256 _requestId,\n        bytes calldata _response\n    ) external {\n        // Statistics: ['observations','late15','late30','late45','cancelled','diverted']\n        uint256[6] memory _statistics = abi.decode(_response, (uint256[6]));\n\n        uint256 applicationId = requests[_requestId].applicationId;\n\n        if (_statistics[0] <= MIN_OBSERVATIONS) {\n            decline(applicationId);\n            return;\n        }\n\n        uint256 premium = getPremium(applicationId);\n        uint256[] memory payoutOptions = getPayoutOptions(applicationId);\n        (uint256 weight, uint256[5] memory calculatedPayouts) = calculatePayouts(\n            premium,\n            _statistics\n        );\n\n        require(\n            payoutOptions.length == calculatedPayouts.length,\n            \"ERROR::INVALID_PAYOUT_OPTIONS_COUNT\"\n        );\n\n        for (uint256 i = 0; i < 5; i++) {\n            require(\n                payoutOptions[i] == calculatedPayouts[i],\n                \"ERROR::INVALID_PAYOUT_OPTION\"\n            );\n            assert(payoutOptions[i] <= MAX_PAYOUT);\n        }\n\n        bytes32 riskId = requests[_requestId].riskId;\n\n        if (risks[riskId].premiumMultiplier == 0) {\n            // It's the first policy for this risk, we accept any premium\n            risks[riskId].cumulatedWeightedPremium = premium * 10000;\n            risks[riskId].premiumMultiplier = 100000 / weight;\n        }\n\n        risks[riskId].weight = weight;\n\n        uint256 policyId = underwrite(applicationId);\n\n        // New request\n        uint256 newRequestId = requests.length++;\n        RequestMetadata storage requestMetadata = requests[newRequestId];\n        requestMetadata.policyId = policyId;\n\n        request(\n            abi.encode(\n                risks[riskId].arrivalTime + CHECK_PAYOUT_OFFSET,\n                risks[riskId].carrierFlightNumber,\n                risks[riskId].departureYearMonthDay\n            ),\n            \"flightStatusCallback\",\n            \"FlightStatuses\",\n            1\n        );\n\n        emit LogRequestFlightStatus(\n            newRequestId,\n            risks[riskId].carrierFlightNumber,\n            risks[riskId].arrivalTime\n        );\n    }\n\n    function flightStatusCallback(uint256 _requestId, bytes calldata _response)\n        external\n    {\n        (bytes1 status, int256 delay) = abi.decode(_response, (bytes1, int256));\n\n        uint256 policyId = requests[_requestId].policyId;\n        uint256 applicationId = requests[_requestId].applicationId;\n        uint256[] memory payoutOptions = getPayoutOptions(applicationId);\n\n        uint256 payoutAmount;\n\n        if (status != \"L\" && status != \"A\" && status != \"C\" && status != \"D\") {\n            return;\n        } else if (status == \"C\") {\n            payoutAmount = payoutOptions[3];\n        } else if (status == \"D\") {\n            payoutAmount = payoutOptions[4];\n        } else if (status == \"A\") {\n            // todo: reschedule\n        } else {\n            if (delay > 30) {\n                if (delay > 45) {\n                    payoutAmount = payoutOptions[1];\n                } else if (delay > 60) {\n                    payoutAmount = payoutOptions[2];\n                } else {\n                    payoutAmount = payoutOptions[0];\n                }\n\n                uint256 claimId = newClaim(policyId);\n                uint256 payoutId = confirmClaim(claimId, payoutAmount);\n\n                emit LogRequestPayout(claimId, payoutId, payoutAmount);\n            } else {\n                expire(policyId);\n            }\n        }\n    }\n\n    function confirmPayout(uint256 _payoutId, uint256 _sum) external {\n        payout(_payoutId, _sum);\n    }\n\n    function calculatePayouts(uint256 _premium, uint256[6] memory _statistics)\n        public\n        view\n        returns (uint256 _weight, uint256[5] memory _payoutOptions)\n    {\n        require(_premium >= MIN_PREMIUM, \"ERROR::INVALID_PREMIUM\");\n        require(_premium <= MAX_PREMIUM, \"ERROR::INVALID_PREMIUM\");\n        require(_statistics[0] > MIN_OBSERVATIONS, \"ERROR::LOW_OBSERVATIONS\");\n\n        for (uint256 i = 1; i < 6; i++) {\n            _weight += weightPattern[i] * _statistics[i] * 10000 / _statistics[0];\n            // 1% = 100 / 100% = 10,000\n        }\n\n        // To avoid div0 in the payout section, we have to make a minimal assumption on weight\n        if (_weight == 0) {\n            _weight = 100000 / _statistics[0];\n        }\n\n        for (uint256 i = 0; i < 5; i++) {\n            _payoutOptions[i] = _premium * weightPattern[i + 1] * 10000 / _weight;\n\n            if (_payoutOptions[i] > MAX_PAYOUT) {\n                _payoutOptions[i] = MAX_PAYOUT;\n            }\n        }\n    }\n}\n",
  "sourcePath": "/Users/ka/Projects/Altoros/Etherisc/dip-platform/core/gif-contracts/contracts/examples/FlightDelayOraclize/FlightDelayOraclize.sol",
  "compiler": {
    "name": "solc",
    "version": "0.5.2+commit.1df8f40c.Emscripten.clang"
  },
  "schemaVersion": "3.0.1",
  "updatedAt": "2019-01-30T11:22:45.258Z",
  "devdoc": {
    "methods": {}
  },
  "userdoc": {
    "methods": {}
  }
}