{
  "contractName": "FlightDelayOraclize",
  "abi": [
    {
      "anonymous": false,
      "inputs": [
        {
          "indexed": false,
          "name": "productId",
          "type": "uint256"
        },
        {
          "indexed": false,
          "name": "metadataId",
          "type": "uint256"
        },
        {
          "indexed": false,
          "name": "applicationId",
          "type": "uint256"
        }
      ],
      "name": "LogNewApplication",
      "type": "event"
    },
    {
      "constant": true,
      "inputs": [
        {
          "name": "",
          "type": "address"
        }
      ],
      "name": "permissions",
      "outputs": [
        {
          "name": "",
          "type": "uint256"
        }
      ],
      "payable": false,
      "stateMutability": "view",
      "type": "function",
      "signature": "0x01e88208"
    },
    {
      "constant": true,
      "inputs": [],
      "name": "POLICY_FLOW",
      "outputs": [
        {
          "name": "",
          "type": "bytes32"
        }
      ],
      "payable": false,
      "stateMutability": "view",
      "type": "function",
      "signature": "0x09128d83"
    },
    {
      "constant": true,
      "inputs": [],
      "name": "maintenanceMode",
      "outputs": [
        {
          "name": "",
          "type": "bool"
        }
      ],
      "payable": false,
      "stateMutability": "view",
      "type": "function",
      "signature": "0x25dce0a6"
    },
    {
      "constant": true,
      "inputs": [],
      "name": "CHECK_OFFSET",
      "outputs": [
        {
          "name": "",
          "type": "uint256"
        }
      ],
      "payable": false,
      "stateMutability": "view",
      "type": "function",
      "signature": "0x2c41284a"
    },
    {
      "constant": true,
      "inputs": [
        {
          "name": "",
          "type": "uint256"
        }
      ],
      "name": "rolesKeys",
      "outputs": [
        {
          "name": "",
          "type": "bytes32"
        }
      ],
      "payable": false,
      "stateMutability": "view",
      "type": "function",
      "signature": "0x2cf88d9e"
    },
    {
      "constant": true,
      "inputs": [],
      "name": "MIN_OBSERVATIONS",
      "outputs": [
        {
          "name": "",
          "type": "uint256"
        }
      ],
      "payable": false,
      "stateMutability": "view",
      "type": "function",
      "signature": "0x39cee407"
    },
    {
      "constant": true,
      "inputs": [],
      "name": "MAX_PAYOUT",
      "outputs": [
        {
          "name": "",
          "type": "uint256"
        }
      ],
      "payable": false,
      "stateMutability": "view",
      "type": "function",
      "signature": "0x4b9ddafe"
    },
    {
      "constant": true,
      "inputs": [],
      "name": "MAX_PREMIUM",
      "outputs": [
        {
          "name": "",
          "type": "uint256"
        }
      ],
      "payable": false,
      "stateMutability": "view",
      "type": "function",
      "signature": "0x4cdabb16"
    },
    {
      "constant": true,
      "inputs": [
        {
          "name": "",
          "type": "uint256"
        }
      ],
      "name": "requests",
      "outputs": [
        {
          "name": "applicationId",
          "type": "uint256"
        },
        {
          "name": "policyId",
          "type": "uint256"
        },
        {
          "name": "riskId",
          "type": "bytes32"
        }
      ],
      "payable": false,
      "stateMutability": "view",
      "type": "function",
      "signature": "0x81d12c58"
    },
    {
      "constant": true,
      "inputs": [
        {
          "name": "",
          "type": "bytes32"
        }
      ],
      "name": "risks",
      "outputs": [
        {
          "name": "carrierFlightNumber",
          "type": "bytes32"
        },
        {
          "name": "departureYearMonthDay",
          "type": "bytes32"
        },
        {
          "name": "departureTime",
          "type": "uint256"
        },
        {
          "name": "arrivalTime",
          "type": "uint256"
        },
        {
          "name": "delayInMinutes",
          "type": "uint256"
        },
        {
          "name": "delay",
          "type": "uint8"
        },
        {
          "name": "cumulatedWeightedPremium",
          "type": "uint256"
        },
        {
          "name": "premiumMultiplier",
          "type": "uint256"
        },
        {
          "name": "weight",
          "type": "uint256"
        }
      ],
      "payable": false,
      "stateMutability": "view",
      "type": "function",
      "signature": "0x8993021b"
    },
    {
      "constant": true,
      "inputs": [
        {
          "name": "",
          "type": "bytes32"
        }
      ],
      "name": "roles",
      "outputs": [
        {
          "name": "",
          "type": "uint256"
        }
      ],
      "payable": false,
      "stateMutability": "view",
      "type": "function",
      "signature": "0x95356651"
    },
    {
      "constant": true,
      "inputs": [],
      "name": "MAX_FLIGHT_DURATION",
      "outputs": [
        {
          "name": "",
          "type": "uint256"
        }
      ],
      "payable": false,
      "stateMutability": "view",
      "type": "function",
      "signature": "0x972e22eb"
    },
    {
      "constant": true,
      "inputs": [],
      "name": "NAME",
      "outputs": [
        {
          "name": "",
          "type": "bytes32"
        }
      ],
      "payable": false,
      "stateMutability": "view",
      "type": "function",
      "signature": "0xa3f4df7e"
    },
    {
      "constant": true,
      "inputs": [
        {
          "name": "_address",
          "type": "address"
        },
        {
          "name": "_role",
          "type": "bytes32"
        }
      ],
      "name": "hasRole",
      "outputs": [
        {
          "name": "_hasRole",
          "type": "bool"
        }
      ],
      "payable": false,
      "stateMutability": "view",
      "type": "function",
      "signature": "0xac4ab3fb"
    },
    {
      "constant": true,
      "inputs": [],
      "name": "MIN_TIME_BEFORE_DEPARTURE",
      "outputs": [
        {
          "name": "",
          "type": "uint256"
        }
      ],
      "payable": false,
      "stateMutability": "view",
      "type": "function",
      "signature": "0xb7b357ac"
    },
    {
      "constant": true,
      "inputs": [],
      "name": "MIN_PREMIUM",
      "outputs": [
        {
          "name": "",
          "type": "uint256"
        }
      ],
      "payable": false,
      "stateMutability": "view",
      "type": "function",
      "signature": "0xbe5c8f44"
    },
    {
      "constant": false,
      "inputs": [
        {
          "name": "_address",
          "type": "address"
        },
        {
          "name": "_role",
          "type": "bytes32"
        }
      ],
      "name": "addRoleToAccount",
      "outputs": [],
      "payable": false,
      "stateMutability": "nonpayable",
      "type": "function",
      "signature": "0xc2e86735"
    },
    {
      "constant": true,
      "inputs": [],
      "name": "productService",
      "outputs": [
        {
          "name": "",
          "type": "address"
        }
      ],
      "payable": false,
      "stateMutability": "view",
      "type": "function",
      "signature": "0xc37d45bf"
    },
    {
      "constant": false,
      "inputs": [
        {
          "name": "_role",
          "type": "bytes32"
        }
      ],
      "name": "createRole",
      "outputs": [],
      "payable": false,
      "stateMutability": "nonpayable",
      "type": "function",
      "signature": "0xc42994a2"
    },
    {
      "constant": true,
      "inputs": [],
      "name": "developmentMode",
      "outputs": [
        {
          "name": "",
          "type": "bool"
        }
      ],
      "payable": false,
      "stateMutability": "view",
      "type": "function",
      "signature": "0xd6fcaf40"
    },
    {
      "constant": true,
      "inputs": [
        {
          "name": "",
          "type": "uint256"
        }
      ],
      "name": "weightPattern",
      "outputs": [
        {
          "name": "",
          "type": "uint8"
        }
      ],
      "payable": false,
      "stateMutability": "view",
      "type": "function",
      "signature": "0xe32bdf08"
    },
    {
      "constant": false,
      "inputs": [
        {
          "name": "_address",
          "type": "address"
        }
      ],
      "name": "cleanRolesForAccount",
      "outputs": [],
      "payable": false,
      "stateMutability": "nonpayable",
      "type": "function",
      "signature": "0xf566e10e"
    },
    {
      "constant": true,
      "inputs": [
        {
          "name": "",
          "type": "uint256"
        }
      ],
      "name": "currencies",
      "outputs": [
        {
          "name": "",
          "type": "bytes32"
        }
      ],
      "payable": false,
      "stateMutability": "view",
      "type": "function",
      "signature": "0xf6d1c271"
    },
    {
      "inputs": [
        {
          "name": "_productController",
          "type": "address"
        }
      ],
      "payable": false,
      "stateMutability": "nonpayable",
      "type": "constructor",
      "signature": "constructor"
    },
    {
      "anonymous": false,
      "inputs": [
        {
          "indexed": false,
          "name": "requestId",
          "type": "uint256"
        },
        {
          "indexed": false,
          "name": "carrierFlightNumber",
          "type": "bytes32"
        },
        {
          "indexed": false,
          "name": "departureTime",
          "type": "uint256"
        },
        {
          "indexed": false,
          "name": "arrivalTime",
          "type": "uint256"
        }
      ],
      "name": "LogRequestFlightStatistics",
      "type": "event",
      "signature": "0xe857bff72dd2ed1b8242b825b28a9647d6c9128ca89f6e2f8261ed87ffecd914"
    },
    {
      "anonymous": false,
      "inputs": [
        {
          "indexed": false,
          "name": "requestId",
          "type": "uint256"
        },
        {
          "indexed": false,
          "name": "carrierFlightNumber",
          "type": "bytes32"
        },
        {
          "indexed": false,
          "name": "arrivalTime",
          "type": "uint256"
        }
      ],
      "name": "LogRequestFlightStatus",
      "type": "event",
      "signature": "0x9e0191c34cbc564aac9868f50a4cce5db2f167b44d26c02f50e12298b94407ef"
    },
    {
      "anonymous": false,
      "inputs": [
        {
          "indexed": false,
          "name": "policyId",
          "type": "uint256"
        },
        {
          "indexed": false,
          "name": "claimId",
          "type": "uint256"
        },
        {
          "indexed": false,
          "name": "payoutId",
          "type": "uint256"
        },
        {
          "indexed": false,
          "name": "amount",
          "type": "uint256"
        }
      ],
      "name": "LogRequestPayout",
      "type": "event",
      "signature": "0xa03388de5ed101344e2b409e4dc7e74b90fcaa1fa5295d6dab4d209160c39881"
    },
    {
      "anonymous": false,
      "inputs": [
        {
          "indexed": false,
          "name": "error",
          "type": "string"
        }
      ],
      "name": "LogError",
      "type": "event",
      "signature": "0xc35a0ec6603ff0b5966d7ca053a5f0984a70aad58a9a0ecb1349308815a4151a"
    },
    {
      "anonymous": false,
      "inputs": [
        {
          "indexed": false,
          "name": "requestId",
          "type": "uint256"
        },
        {
          "indexed": false,
          "name": "policyId",
          "type": "uint256"
        }
      ],
      "name": "LogUnprocessableStatus",
      "type": "event",
      "signature": "0xc3b7d47dc0fb0f47f9c9c1df52beba60d745510a2949f6d3ad249fe8b7f1b89b"
    },
    {
      "anonymous": false,
      "inputs": [
        {
          "indexed": false,
          "name": "policyId",
          "type": "uint256"
        }
      ],
      "name": "LogPolicyExpired",
      "type": "event",
      "signature": "0x08b74d3cccbcb3894ccc99c3a75f6a6890f71ea4c039fe60eabd7bee40b1231c"
    },
    {
      "anonymous": false,
      "inputs": [
        {
          "indexed": false,
          "name": "requestId",
          "type": "uint256"
        },
        {
          "indexed": false,
          "name": "applicationId",
          "type": "uint256"
        }
      ],
      "name": "LogRequestPayment",
      "type": "event",
      "signature": "0x8ef27d1fb873d360d63df66f16a2c329eedd2646556aa468d67ac231ad227e15"
    },
    {
      "constant": false,
      "inputs": [
        {
          "name": "_carrierFlightNumber",
          "type": "bytes32"
        },
        {
          "name": "_departureYearMonthDay",
          "type": "bytes32"
        },
        {
          "name": "_departureTime",
          "type": "uint256"
        },
        {
          "name": "_arrivalTime",
          "type": "uint256"
        },
        {
          "name": "_premium",
          "type": "uint256"
        },
        {
          "name": "_currency",
          "type": "bytes32"
        },
        {
          "name": "_payoutOptions",
          "type": "uint256[]"
        },
        {
          "name": "_customerExternalId",
          "type": "bytes32"
        }
      ],
      "name": "applyForPolicy",
      "outputs": [],
      "payable": false,
      "stateMutability": "nonpayable",
      "type": "function",
      "signature": "0x26735338"
    },
    {
      "constant": false,
      "inputs": [
        {
          "name": "_requestId",
          "type": "uint256"
        },
        {
          "name": "_response",
          "type": "bytes"
        }
      ],
      "name": "flightStatisticsCallback",
      "outputs": [],
      "payable": false,
      "stateMutability": "nonpayable",
      "type": "function",
      "signature": "0xda65b880"
    },
    {
      "constant": false,
      "inputs": [
        {
          "name": "_requestId",
          "type": "uint256"
        }
      ],
      "name": "confirmPaymentSuccess",
      "outputs": [],
      "payable": false,
      "stateMutability": "nonpayable",
      "type": "function",
      "signature": "0x730196d6"
    },
    {
      "constant": false,
      "inputs": [
        {
          "name": "_requestId",
          "type": "uint256"
        }
      ],
      "name": "confirmPaymentFailure",
      "outputs": [],
      "payable": false,
      "stateMutability": "nonpayable",
      "type": "function",
      "signature": "0x907be7e8"
    },
    {
      "constant": false,
      "inputs": [
        {
          "name": "_requestId",
          "type": "uint256"
        },
        {
          "name": "_response",
          "type": "bytes"
        }
      ],
      "name": "flightStatusCallback",
      "outputs": [],
      "payable": false,
      "stateMutability": "nonpayable",
      "type": "function",
      "signature": "0xac5465a1"
    },
    {
      "constant": false,
      "inputs": [
        {
          "name": "_payoutId",
          "type": "uint256"
        },
        {
          "name": "_amount",
          "type": "uint256"
        }
      ],
      "name": "confirmPayout",
      "outputs": [],
      "payable": false,
      "stateMutability": "nonpayable",
      "type": "function",
      "signature": "0x7f66ae95"
    },
    {
      "constant": true,
      "inputs": [
        {
          "name": "_premium",
          "type": "uint256"
        },
        {
          "name": "_statistics",
          "type": "uint256[6]"
        }
      ],
      "name": "calculatePayouts",
      "outputs": [
        {
          "name": "_weight",
          "type": "uint256"
        },
        {
          "name": "_payoutOptions",
          "type": "uint256[5]"
        }
      ],
      "payable": false,
      "stateMutability": "view",
      "type": "function",
      "signature": "0xc9821073"
    }
  ],
  "bytecode": "0x6003805461ffff1916905560a06040527f4555520000000000000000000000000000000000000000000000000000000000608090815262000045906004906001620001f0565b506040805160c08101825260008082526020820181905291810191909152601e606082015260326080820181905260a08201526200008890600590600662000233565b503480156200009657600080fd5b50604051602080620023af83398101806040526020811015620000b857600080fd5b5051600380546201000060b060020a03191662010000600160a060020a03841602179055807f466c6967687444656c61794f7261636c697a65000000000000000000000000007f506f6c696379466c6f7744656661756c740000000000000000000000000000006200013482826401000000006200013e810204565b505050506200030a565b600360029054906101000a9004600160a060020a0316600160a060020a0316632f92673283836040518363ffffffff167c01000000000000000000000000000000000000000000000000000000000281526004018083815260200182815260200192505050602060405180830381600087803b158015620001be57600080fd5b505af1158015620001d3573d6000803e3d6000fd5b505050506040513d6020811015620001ea57600080fd5b50505050565b826001810192821562000221579160200282015b828111156200022157825182559160200191906001019062000204565b506200022f929150620002c9565b5090565b600183019183908215620002bb5791602002820160005b838211156200028a57835183826101000a81548160ff021916908360ff16021790555092602001926001016020816000010492830192600103026200024a565b8015620002b95782816101000a81549060ff02191690556001016020816000010492830192600103026200028a565b505b506200022f929150620002e9565b620002e691905b808211156200022f5760008155600101620002d0565b90565b620002e691905b808211156200022f57805460ff19168155600101620002f0565b612095806200031a6000396000f3fe608060405234801561001057600080fd5b50600436106101de5760003560e060020a90048063972e22eb11610108578063c37d45bf116100a6578063da65b88011610075578063da65b880146105fc578063e32bdf0814610673578063f566e10e146106a6578063f6d1c271146106cc576101de565b8063c37d45bf1461051e578063c42994a214610542578063c98210731461055f578063d6fcaf40146105f4576101de565b8063ac5465a1116100e2578063ac5465a11461046b578063b7b357ac146104e2578063be5c8f44146104ea578063c2e86735146104f2576101de565b8063972e22eb1461042f578063a3f4df7e14610437578063ac4ab3fb1461043f576101de565b80634b9ddafe1161018057806381d12c581161014f57806381d12c58146103535780638993021b1461038e578063907be7e8146103f55780639535665114610412576101de565b80634b9ddafe146103035780634cdabb161461030b578063730196d6146103135780637f66ae9514610330576101de565b806326735338116101bc578063267353381461023f5780632c41284a146102d65780632cf88d9e146102de57806339cee407146102fb576101de565b806301e88208146101e357806309128d831461021b57806325dce0a614610223575b600080fd5b610209600480360360208110156101f957600080fd5b5035600160a060020a03166106e9565b60408051918252519081900360200190f35b6102096106fb565b61022b61071f565b604080519115158252519081900360200190f35b6102d4600480360361010081101561025657600080fd5b81359160208101359160408201359160608101359160808201359160a08101359181019060e0810160c082013564010000000081111561029557600080fd5b8201836020820111156102a757600080fd5b803590602001918460208302840111640100000000831117156102c957600080fd5b91935091503561072d565b005b610209610b39565b610209600480360360208110156102f457600080fd5b5035610b3f565b610209610b5e565b610209610b63565b610209610b6a565b6102d46004803603602081101561032957600080fd5b5035610b70565b6102d46004803603604081101561034657600080fd5b5080359060200135610d11565b6103706004803603602081101561036957600080fd5b5035610d20565b60408051938452602084019290925282820152519081900360600190f35b6103ab600480360360208110156103a457600080fd5b5035610d51565b60408051998a5260208a0198909852888801969096526060880194909452608087019290925260ff1660a086015260c085015260e084015261010083015251908190036101200190f35b6102d46004803603602081101561040b57600080fd5b5035610da2565b6102096004803603602081101561042857600080fd5b5035610dce565b610209610de0565b610209610de7565b61022b6004803603604081101561045557600080fd5b50600160a060020a038135169060200135610e0b565b6102d46004803603604081101561048157600080fd5b813591908101906040810160208201356401000000008111156104a357600080fd5b8201836020820111156104b557600080fd5b803590602001918460018302840111640100000000831117156104d757600080fd5b509092509050610e37565b61020961112e565b610209611135565b6102d46004803603604081101561050857600080fd5b50600160a060020a03813516906020013561113b565b610526611182565b60408051600160a060020a039092168252519081900360200190f35b6102d46004803603602081101561055857600080fd5b5035611197565b6105b5600480360360e081101561057557600080fd5b6040805160c0818101909252833593928301929160e083019190602084019060069083908390808284376000920191909152509194506111fa9350505050565b604051828152602081018260a080838360005b838110156105e05781810151838201526020016105c8565b505050509050019250505060405180910390f35b61022b611401565b6102d46004803603604081101561061257600080fd5b8135919081019060408101602082013564010000000081111561063457600080fd5b82018360208201111561064657600080fd5b8035906020019184600183028401116401000000008311171561066857600080fd5b50909250905061140a565b6106906004803603602081101561068957600080fd5b50356117a0565b6040805160ff9092168252519081900360200190f35b6102d4600480360360208110156106bc57600080fd5b5035600160a060020a03166117c7565b610209600480360360208110156106e257600080fd5b50356117e1565b60026020526000908152604090205481565b7f506f6c696379466c6f7744656661756c7400000000000000000000000000000081565b600354610100900460ff1681565b6105dc851015610775576040805160e560020a62461bcd0281526020600482015260166024820152600080516020612007833981519152604482015290519081900360640190fd5b6171488511156107bd576040805160e560020a62461bcd0281526020600482015260166024820152600080516020612007833981519152604482015290519081900360640190fd5b6004548414610816576040805160e560020a62461bcd02815260206004820152601660248201527f4552524f523a494e56414c49445f43555252454e435900000000000000000000604482015290519081900360640190fd5b8686116108575760405160e560020a62461bcd028152600401808060200182810382526025815260200180611fe26025913960400191505060405180910390fd5b6202a300870187111561089e5760405160e560020a62461bcd028152600401808060200182810382526025815260200180611fe26025913960400191505060405180910390fd5b4262015180018710156108e55760405160e560020a62461bcd028152600401808060200182810382526025815260200180611fe26025913960400191505060405180910390fd5b6040805160208082018c90528183018a905260608083018a905283518084039091018152608090920183528151918101919091206000818152600690925291902080541515610947578a8155600181018a905560028101899055600381018890555b625b8d80816006015482600701548902011015156109b4576040805160208082526013908201527f4552524f523a3a434c55535445525f5249534b000000000000000000000000008183015290516000805160206120278339815191529181900360600190a15050610b2e565b600681015415156109c957625b8d8060068201555b6000610a0a8489898989808060200260200160405190810160405280939291908181526020018383602002808284376000920191909152506117f592505050565b9050600060078054809190600101610a229190611f49565b90506000600782815481101515610a3557fe5b90600052602060002090600302019050828160000181905550848160020181905550610ad88e604051602001808281526020019150506040516020818303038152906040526040805190810160405280601881526020017f666c696768745374617469737469637343616c6c6261636b00000000000000008152507f466c69676874526174696e67730000000000000000000000000000000000000060006118e0565b507fe857bff72dd2ed1b8242b825b28a9647d6c9128ca89f6e2f8261ed87ffecd914828f8e8e6040518085815260200184815260200183815260200182815260200194505050505060405180910390a150505050505b505050505050505050565b61038481565b6001805482908110610b4d57fe5b600091825260209091200154905081565b600a81565b620249f081565b61714881565b6000600782815481101515610b8157fe5b90600052602060002090600302016000015490506000600783815481101515610ba657fe5b90600052602060002090600302016002015490506000610bc583611a33565b9050600060078054809190600101610bdd9190611f49565b90506000600782815481101515610bf057fe5b6000918252602080832060039283020160018181018890558885526006835260409485902093840154845494820154865161038490920194820194909452808601949094526060808501939093528451808503909301835260c084019094526014608084019081527f666c6967687453746174757343616c6c6261636b00000000000000000000000060a0909401939093529350610cb2929091907f466c696768745374617475736573000000000000000000000000000000000000906118e0565b5060008481526006602090815260409182902080546003909101548351868152928301919091528183015290517f9e0191c34cbc564aac9868f50a4cce5db2f167b44d26c02f50e12298b94407ef9181900360600190a1505050505050565b610d1b8282611ad1565b505050565b6007805482908110610d2e57fe5b600091825260209091206003909102018054600182015460029092015490925083565b60066020819052600091825260409091208054600182015460028301546003840154600485015460058601549686015460078701546008909701549597949693959294919360ff9092169290919089565b610dcb600782815481101515610db457fe5b906000526020600020906003020160000154611b77565b50565b60006020819052908152604090205481565b6202a30081565b7f466c6967687444656c61794f7261636c697a650000000000000000000000000081565b60009081526020818152604080832054600160a060020a03909416835260029091528120549091161190565b60008083836040811015610e4a57600080fd5b5060078054600160f860020a03198335169450602090920135925060009187908110610e7257fe5b90600052602060002090600302016001015490506000600787815481101515610e9757fe5b90600052602060002090600302016000015490506060610eb682611bf0565b90507f4c00000000000000000000000000000000000000000000000000000000000000600160f860020a0319861614801590610f1c57507f4100000000000000000000000000000000000000000000000000000000000000600160f860020a0319861614155b8015610f5257507f4300000000000000000000000000000000000000000000000000000000000000600160f860020a0319861614155b8015610f8857507f4400000000000000000000000000000000000000000000000000000000000000600160f860020a0319861614155b15610fd257604080518981526020810185905281517fc3b7d47dc0fb0f47f9c9c1df52beba60d745510a2949f6d3ad249fe8b7f1b89b929181900390910190a15050505050610d1b565b7f4100000000000000000000000000000000000000000000000000000000000000600160f860020a03198616141561100e575050505050610d1b565b7f4300000000000000000000000000000000000000000000000000000000000000600160f860020a031986161415611067576110628382600381518110151561105357fe5b90602001906020020151611ced565b611124565b7f4400000000000000000000000000000000000000000000000000000000000000600160f860020a0319861614156110ac576110628382600481518110151561105357fe5b600f84121580156110bd5750601e84125b156110d5576110628382600081518110151561105357fe5b601e84121580156110e65750602d84125b156110fe576110628382600181518110151561105357fe5b602d8412611119576110628382600281518110151561105357fe5b611124836000611ced565b5050505050505050565b6201518081565b6105dc81565b600081815260208190526040902054151561115557600080fd5b60009081526020818152604080832054600160a060020a0390941683526002909152902080549091179055565b600354620100009004600160a060020a031681565b600081815260208190526040902054156111b057600080fd5b60018054600083815260208190526040812060029290920a909155815480830183559190527fb10e2d527612073b26eecdfd717e6a320cf44b4afac2b0732d9fcbe2b7fa0cf60155565b6000611204611f75565b6105dc84101561124c576040805160e560020a62461bcd0281526020600482015260166024820152600080516020612007833981519152604482015290519081900360640190fd5b617148841115611294576040805160e560020a62461bcd0281526020600482015260166024820152600080516020612007833981519152604482015290519081900360640190fd5b8251600a106112ed576040805160e560020a62461bcd02815260206004820152601760248201527f4552524f523a3a4c4f575f4f42534552564154494f4e53000000000000000000604482015290519081900360640190fd5b60015b600681101561134e57835184826006811061130757fe5b60200201516005836006811061131957fe5b602091828204019190069054906101000a900460ff1660ff16026127100281151561134057fe5b0492909201916001016112f0565b50811515611369578251620186a081151561136557fe5b0491505b60005b60058110156113f957826005600183016006811061138657fe5b602091828204019190069054906101000a900460ff1660ff168602612710028115156113ae57fe5b048282600581106113bb57fe5b6020020152620249f08282600581106113d057fe5b602002015111156113f157620249f08282600581106113eb57fe5b60200201525b60010161136c565b509250929050565b60035460ff1681565b611412611f94565b828260c081101561142257600080fd5b810190808060c00190600680602002604051908101604052809291908260066020028082843760009201829052506007805494985090965094508993505050811061146957fe5b60009182526020909120600390910201548251909150600a106114965761148f81611b77565b5050610d1b565b60006114a182611da0565b905060606114ae83611bf0565b905060006114ba611f75565b6114c484876111fa565b84519193509150600514611516576000805160206120278339815191526040518080602001828103825260238152602001806120476023913960400191505060405180910390a1505050505050610d1b565b60005b600581101561162e5781816005811061152e57fe5b6020020151848281518110151561154157fe5b60209081029091010151146115aa57604080516020808252601c908201527f4552524f523a3a494e56414c49445f5041594f55545f4f5054494f4e000000008183015290516000805160206120278339815191529181900360600190a150505050505050610d1b565b620249f084828151811015156115bc57fe5b90602001906020020151111561162657604080516020808252601c908201527f4552524f523a3a494e56414c49445f5041594f55545f4f5054494f4e000000008183015290516000805160206120278339815191529181900360600190a150505050505050610d1b565b600101611519565b50600060078a81548110151561164057fe5b90600052602060002090600302016002015490506006600082815260200190815260200160002060070154600014156116c5578285620186a00281151561168357fe5b60008381526006602081905260409091209290910491015582620186a08115156116a957fe5b6000838152600660205260409020919004600790910155611704565b6000818152600660205260409020600701548502620249f08111156116ea5750620249f05b600082815260066020819052604090912001805490910190555b6000818152600660205260408120600801849055600780549061172a9060018301611f49565b9050600060078281548110151561173d57fe5b600091825260209182902060039091020189815560028101859055604080518581529283018b905280519193507f8ef27d1fb873d360d63df66f16a2c329eedd2646556aa468d67ac231ad227e15928290030190a1505050505050505050505050565b600581600681106117ad57fe5b60209182820401919006915054906101000a900460ff1681565b600160a060020a0316600090815260026020526040812055565b600481600181106117ee57fe5b0154905081565b6000600360029054906101000a9004600160a060020a0316600160a060020a031663dc3addf0868686866040518563ffffffff1660e060020a0281526004018085815260200184815260200183815260200180602001828103825283818151815260200191508051906020019060200280838360005b8381101561188357818101518382015260200161186b565b5050505090500195505050505050602060405180830381600087803b1580156118ab57600080fd5b505af11580156118bf573d6000803e3d6000fd5b505050506040513d60208110156118d557600080fd5b505195945050505050565b6000600360029054906101000a9004600160a060020a0316600160a060020a031663d643ece886863087876040518663ffffffff1660e060020a02815260040180806020018060200186600160a060020a0316600160a060020a03168152602001858152602001848152602001838103835288818151815260200191508051906020019080838360005b8381101561198257818101518382015260200161196a565b50505050905090810190601f1680156119af5780820380516001836020036101000a031916815260200191505b50838103825287518152875160209182019189019080838360005b838110156119e25781810151838201526020016119ca565b50505050905090810190601f168015611a0f5780820380516001836020036101000a031916815260200191505b50975050505050505050602060405180830381600087803b1580156118ab57600080fd5b600354604080517f6be60f8b000000000000000000000000000000000000000000000000000000008152600481018490529051600092620100009004600160a060020a031691636be60f8b91602480830192602092919082900301818787803b158015611a9f57600080fd5b505af1158015611ab3573d6000803e3d6000fd5b505050506040513d6020811015611ac957600080fd5b505192915050565b600354604080517f5aa6cf9700000000000000000000000000000000000000000000000000000000815260048101859052602481018490529051600092620100009004600160a060020a031691635aa6cf9791604480830192602092919082900301818787803b158015611b4457600080fd5b505af1158015611b58573d6000803e3d6000fd5b505050506040513d6020811015611b6e57600080fd5b50519392505050565b600360029054906101000a9004600160a060020a0316600160a060020a031663a0355f4e826040518263ffffffff1660e060020a02815260040180828152602001915050600060405180830381600087803b158015611bd557600080fd5b505af1158015611be9573d6000803e3d6000fd5b5050505050565b600354604080517f450d512e000000000000000000000000000000000000000000000000000000008152600481018490529051606092620100009004600160a060020a03169163450d512e91602480830192600092919082900301818387803b158015611c5c57600080fd5b505af1158015611c70573d6000803e3d6000fd5b505050506040513d6000823e601f3d908101601f191682016040526020811015611c9957600080fd5b810190808051640100000000811115611cb157600080fd5b82016020810184811115611cc457600080fd5b8151856020820283011164010000000082111715611ce157600080fd5b50909695505050505050565b801515611d3557611cfd82611e0c565b6040805183815290517f08b74d3cccbcb3894ccc99c3a75f6a6890f71ea4c039fe60eabd7bee40b1231c9181900360200190a1611d9c565b6000611d4083611e6a565b90506000611d4e8284611ed6565b60408051868152602081018590528082018390526060810186905290519192507fa03388de5ed101344e2b409e4dc7e74b90fcaa1fa5295d6dab4d209160c39881919081900360800190a150505b5050565b600354604080517f1bf1fffb000000000000000000000000000000000000000000000000000000008152600481018490529051600092620100009004600160a060020a031691631bf1fffb91602480830192602092919082900301818787803b158015611a9f57600080fd5b600360029054906101000a9004600160a060020a0316600160a060020a031663bf81bf43826040518263ffffffff1660e060020a02815260040180828152602001915050600060405180830381600087803b158015611bd557600080fd5b600354604080517f54f3a32c000000000000000000000000000000000000000000000000000000008152600481018490529051600092620100009004600160a060020a0316916354f3a32c91602480830192602092919082900301818787803b158015611a9f57600080fd5b600354604080517f6afa434000000000000000000000000000000000000000000000000000000000815260048101859052602481018490529051600092620100009004600160a060020a031691636afa434091604480830192602092919082900301818787803b158015611b4457600080fd5b815481835581811115610d1b57600302816003028360005260206000209182019101610d1b9190611fb3565b60a0604051908101604052806005906020820280388339509192915050565b60c0604051908101604052806006906020820280388339509192915050565b611fde91905b80821115611fda576000808255600182018190556002820155600301611fb9565b5090565b9056fe4552524f523a3a494e56414c49445f4152524956414c2f4445504152545552455f54494d454552524f523a3a494e56414c49445f5052454d49554d00000000000000000000c35a0ec6603ff0b5966d7ca053a5f0984a70aad58a9a0ecb1349308815a4151a4552524f523a3a494e56414c49445f5041594f55545f4f5054494f4e535f434f554e54a165627a7a723058200b9eca4cc5839684387312a0159bb96a8df96cef21acea6aaf77797dd0fb8c350029",
  "source": "pragma solidity 0.5.2;\n\nimport \"../../Product.sol\";\n\ncontract FlightDelayOraclize is Product {\n    event LogRequestFlightStatistics(\n        uint256 requestId,\n        bytes32 carrierFlightNumber,\n        uint256 departureTime,\n        uint256 arrivalTime\n    );\n\n    event LogRequestFlightStatus(\n        uint256 requestId,\n        bytes32 carrierFlightNumber,\n        uint256 arrivalTime\n    );\n\n    event LogRequestPayout(\n        uint256 policyId,\n        uint256 claimId,\n        uint256 payoutId,\n        uint256 amount\n    );\n\n    event LogError(string error);\n\n    event LogUnprocessableStatus(uint256 requestId, uint256 policyId);\n\n    event LogPolicyExpired(uint256 policyId);\n\n    event LogRequestPayment(uint256 requestId, uint256 applicationId);\n\n    bytes32 public constant NAME = \"FlightDelayOraclize\";\n    bytes32 public constant POLICY_FLOW = \"PolicyFlowDefault\";\n\n    // Minimum observations for valid prediction\n    uint256 public constant MIN_OBSERVATIONS = 10;\n    // Minimum time before departure for applying\n    uint256 public constant MIN_TIME_BEFORE_DEPARTURE = 24 hours;\n    // Maximum duration of flight\n    uint256 public constant MAX_FLIGHT_DURATION = 2 days;\n    // Check for delay after .. minutes after scheduled arrival\n    uint256 public constant CHECK_OFFSET = 15 minutes;\n\n    // All amounts expected to be provided in a currencys smallest unit\n    // E.g. 10 EUR = 1000 (1000 cents)\n    uint256 public constant MIN_PREMIUM = 1500;\n    uint256 public constant MAX_PREMIUM = 29000;\n    uint256 public constant MAX_PAYOUT = 150000;\n\n    bytes32[1] public currencies = [bytes32(\"EUR\")];\n\n    // ['observations','late15','late30','late45','cancelled','diverted']\n    uint8[6] public weightPattern = [0, 0, 0, 30, 50, 50];\n\n    // Maximum cumulated weighted premium per risk\n    uint256 constant MAX_CUMULATED_WEIGHTED_PREMIUM = 6000000;\n\n    struct Risk {\n        bytes32 carrierFlightNumber;\n        bytes32 departureYearMonthDay;\n        uint256 departureTime;\n        uint256 arrivalTime;\n        uint delayInMinutes;\n        uint8 delay;\n        uint256 cumulatedWeightedPremium;\n        uint256 premiumMultiplier;\n        uint256 weight;\n    }\n\n    struct RequestMetadata {\n        uint256 applicationId;\n        uint256 policyId;\n        bytes32 riskId;\n    }\n\n    mapping(bytes32 => Risk) public risks;\n\n    RequestMetadata[] public requests;\n\n    constructor(address _productController)\n        public\n        Product(_productController, NAME, POLICY_FLOW)\n    {}\n\n    function applyForPolicy(\n        // domain specific\n        bytes32 _carrierFlightNumber,\n        bytes32 _departureYearMonthDay,\n        uint256 _departureTime,\n        uint256 _arrivalTime,\n        // premium\n        uint256 _premium,\n        bytes32 _currency,\n        uint256[] calldata _payoutOptions,\n        // customer\n        bytes32 _customerExternalId\n    ) external {\n        // Validate input parameters\n        require(_premium >= MIN_PREMIUM, \"ERROR::INVALID_PREMIUM\");\n        require(_premium <= MAX_PREMIUM, \"ERROR::INVALID_PREMIUM\");\n        require(_currency == currencies[0], \"ERROR:INVALID_CURRENCY\");\n        require(\n            _arrivalTime > _departureTime,\n            \"ERROR::INVALID_ARRIVAL/DEPARTURE_TIME\"\n        );\n        require(\n            _departureTime <= _departureTime + MAX_FLIGHT_DURATION,\n            \"ERROR::INVALID_ARRIVAL/DEPARTURE_TIME\"\n        );\n        require(\n            _departureTime >= block.timestamp + MIN_TIME_BEFORE_DEPARTURE,\n            \"ERROR::INVALID_ARRIVAL/DEPARTURE_TIME\"\n        );\n\n        // Create risk if not exists\n        bytes32 riskId = keccak256(\n            abi.encodePacked(_carrierFlightNumber, _departureTime, _arrivalTime)\n        );\n        Risk storage risk = risks[riskId];\n\n        if (risk.carrierFlightNumber == \"\") {\n            risk.carrierFlightNumber = _carrierFlightNumber;\n            risk.departureYearMonthDay = _departureYearMonthDay;\n            risk.departureTime = _departureTime;\n            risk.arrivalTime = _arrivalTime;\n        }\n\n        if (_premium * risk.premiumMultiplier + risk.cumulatedWeightedPremium >= MAX_CUMULATED_WEIGHTED_PREMIUM) {\n            emit LogError(\"ERROR::CLUSTER_RISK\");\n            return;\n        }\n\n        if (risk.cumulatedWeightedPremium == 0) {\n            risk.cumulatedWeightedPremium = MAX_CUMULATED_WEIGHTED_PREMIUM;\n        }\n\n        // Create new application\n        uint256 applicationId = newApplication(\n            _customerExternalId,\n            _premium,\n            _currency,\n            _payoutOptions\n        );\n\n        // New request\n        uint256 requestId = requests.length++;\n        RequestMetadata storage requestMetadata = requests[requestId];\n        requestMetadata.applicationId = applicationId;\n        requestMetadata.riskId = riskId;\n\n        request(\n            abi.encode(_carrierFlightNumber),\n            \"flightStatisticsCallback\",\n            \"FlightRatings\",\n            0\n        );\n\n        emit LogRequestFlightStatistics(\n            requestId,\n            _carrierFlightNumber,\n            _departureTime,\n            _arrivalTime\n        );\n    }\n\n    function flightStatisticsCallback(\n        uint256 _requestId,\n        bytes calldata _response\n    ) external {\n        // Statistics: ['observations','late15','late30','late45','cancelled','diverted']\n        uint256[6] memory _statistics = abi.decode(_response, (uint256[6]));\n\n        uint256 applicationId = requests[_requestId].applicationId;\n\n        if (_statistics[0] <= MIN_OBSERVATIONS) {\n            decline(applicationId);\n            return;\n        }\n\n        uint256 premium = getPremium(applicationId);\n        uint256[] memory payoutOptions = getPayoutOptions(applicationId);\n        (uint256 weight, uint256[5] memory calculatedPayouts) = calculatePayouts(\n            premium,\n            _statistics\n        );\n\n        if (payoutOptions.length != calculatedPayouts.length) {\n            emit LogError(\"ERROR::INVALID_PAYOUT_OPTIONS_COUNT\");\n            return;\n        }\n\n        for (uint256 i = 0; i < 5; i++) {\n            if (payoutOptions[i] != calculatedPayouts[i]) {\n                emit LogError(\"ERROR::INVALID_PAYOUT_OPTION\");\n                return;\n            }\n\n            if (payoutOptions[i] > MAX_PAYOUT) {\n                emit LogError(\"ERROR::INVALID_PAYOUT_OPTION\");\n                return;\n            }\n        }\n\n        bytes32 riskId = requests[_requestId].riskId;\n\n        if (risks[riskId].premiumMultiplier == 0) {\n            // It's the first policy for this risk, we accept any premium\n            risks[riskId].cumulatedWeightedPremium = premium * 100000 / weight;\n            risks[riskId].premiumMultiplier = 100000 / weight;\n        } else {\n            uint256 cumulatedWeightedPremium = premium * risks[riskId].premiumMultiplier;\n\n            if (cumulatedWeightedPremium > MAX_PAYOUT) {\n                cumulatedWeightedPremium = MAX_PAYOUT;\n            }\n\n            risks[riskId].cumulatedWeightedPremium = risks[riskId].cumulatedWeightedPremium + cumulatedWeightedPremium;\n        }\n\n        risks[riskId].weight = weight;\n\n        // New request\n        uint256 newRequestId = requests.length++;\n        RequestMetadata storage requestMetadata = requests[newRequestId];\n        requestMetadata.applicationId = applicationId;\n        requestMetadata.riskId = riskId;\n\n        emit LogRequestPayment(newRequestId, applicationId);\n    }\n\n    function confirmPaymentSuccess(uint256 _requestId) external {\n        uint256 applicationId = requests[_requestId].applicationId;\n        bytes32 riskId = requests[_requestId].riskId;\n\n        uint256 policyId = underwrite(applicationId);\n\n        // New request\n        uint256 newRequestId = requests.length++;\n        RequestMetadata storage requestMetadata = requests[newRequestId];\n        requestMetadata.policyId = policyId;\n\n        request(\n            abi.encode(\n                risks[riskId].arrivalTime + CHECK_OFFSET,\n                risks[riskId].carrierFlightNumber,\n                risks[riskId].departureYearMonthDay\n            ),\n            \"flightStatusCallback\",\n            \"FlightStatuses\",\n            1\n        );\n\n        emit LogRequestFlightStatus(\n            newRequestId,\n            risks[riskId].carrierFlightNumber,\n            risks[riskId].arrivalTime\n        );\n    }\n\n    function confirmPaymentFailure(uint256 _requestId) external {\n        decline(requests[_requestId].applicationId);\n    }\n\n    function flightStatusCallback(uint256 _requestId, bytes calldata _response)\n        external\n    {\n        (bytes1 status, int256 delay) = abi.decode(_response, (bytes1, int256));\n\n        uint256 policyId = requests[_requestId].policyId;\n        uint256 applicationId = requests[_requestId].applicationId;\n        uint256[] memory payoutOptions = getPayoutOptions(applicationId);\n\n        if (status != \"L\" && status != \"A\" && status != \"C\" && status != \"D\") {\n            emit LogUnprocessableStatus(_requestId, policyId);\n            return;\n        }\n\n        if (status == \"A\") {\n            // todo: active, reschedule oracle call + 45 min\n            return;\n        }\n\n        if (status == \"C\") {\n            resolvePayout(policyId, payoutOptions[3]);\n        } else if (status == \"D\") {\n            resolvePayout(policyId, payoutOptions[4]);\n        } else if (delay >= 15 && delay < 30) {\n            resolvePayout(policyId, payoutOptions[0]);\n        } else if (delay >= 30 && delay < 45) {\n            resolvePayout(policyId, payoutOptions[1]);\n        } else if (delay >= 45) {\n            resolvePayout(policyId, payoutOptions[2]);\n        } else {\n            resolvePayout(policyId, 0);\n        }\n    }\n\n    function confirmPayout(uint256 _payoutId, uint256 _amount) external {\n        payout(_payoutId, _amount);\n    }\n\n    function calculatePayouts(uint256 _premium, uint256[6] memory _statistics)\n        public\n        view\n        returns (uint256 _weight, uint256[5] memory _payoutOptions)\n    {\n        require(_premium >= MIN_PREMIUM, \"ERROR::INVALID_PREMIUM\");\n        require(_premium <= MAX_PREMIUM, \"ERROR::INVALID_PREMIUM\");\n        require(_statistics[0] > MIN_OBSERVATIONS, \"ERROR::LOW_OBSERVATIONS\");\n\n        for (uint256 i = 1; i < 6; i++) {\n            _weight += weightPattern[i] * _statistics[i] * 10000 / _statistics[0];\n            // 1% = 100 / 100% = 10,000\n        }\n\n        // To avoid div0 in the payout section, we have to make a minimal assumption on weight\n        if (_weight == 0) {\n            _weight = 100000 / _statistics[0];\n        }\n\n        for (uint256 i = 0; i < 5; i++) {\n            _payoutOptions[i] = _premium * weightPattern[i + 1] * 10000 / _weight;\n\n            if (_payoutOptions[i] > MAX_PAYOUT) {\n                _payoutOptions[i] = MAX_PAYOUT;\n            }\n        }\n    }\n\n    function resolvePayout(uint256 _policyId, uint256 _payoutAmount) internal {\n        if (_payoutAmount == 0) {\n            expire(_policyId);\n\n            emit LogPolicyExpired(_policyId);\n        } else {\n            uint256 claimId = newClaim(_policyId);\n            uint256 payoutId = confirmClaim(claimId, _payoutAmount);\n\n            emit LogRequestPayout(_policyId, claimId, payoutId, _payoutAmount);\n        }\n    }\n}\n\n",
  "sourcePath": "/Users/ka/Projects/Altoros/Etherisc/dip-platform/core/gif-contracts/contracts/examples/FlightDelayOraclize/FlightDelayOraclize.sol",
  "compiler": {
    "name": "solc",
    "version": "0.5.2+commit.1df8f40c.Emscripten.clang"
  },
  "schemaVersion": "3.0.2",
  "updatedAt": "2019-02-25T09:10:07.418Z",
  "devdoc": {
    "methods": {}
  },
  "userdoc": {
    "methods": {}
  }
}